Component: ARM Compiler 6.14 Tool: armlink [5db06800]

==============================================================================

Section Cross References

    startup_stm32l431xx.o(RESET) refers to startup_stm32l431xx.o(STACK) for __initial_sp
    startup_stm32l431xx.o(RESET) refers to startup_stm32l431xx.o(.text) for Reset_Handler
    startup_stm32l431xx.o(RESET) refers to stm32l4xx_it.o(.text.NMI_Handler) for NMI_Handler
    startup_stm32l431xx.o(RESET) refers to stm32l4xx_it.o(.text.HardFault_Handler) for HardFault_Handler
    startup_stm32l431xx.o(RESET) refers to stm32l4xx_it.o(.text.MemManage_Handler) for MemManage_Handler
    startup_stm32l431xx.o(RESET) refers to stm32l4xx_it.o(.text.BusFault_Handler) for BusFault_Handler
    startup_stm32l431xx.o(RESET) refers to stm32l4xx_it.o(.text.UsageFault_Handler) for UsageFault_Handler
    startup_stm32l431xx.o(RESET) refers to stm32l4xx_it.o(.text.SVC_Handler) for SVC_Handler
    startup_stm32l431xx.o(RESET) refers to stm32l4xx_it.o(.text.DebugMon_Handler) for DebugMon_Handler
    startup_stm32l431xx.o(RESET) refers to stm32l4xx_it.o(.text.PendSV_Handler) for PendSV_Handler
    startup_stm32l431xx.o(RESET) refers to stm32l4xx_it.o(.text.SysTick_Handler) for SysTick_Handler
    startup_stm32l431xx.o(RESET) refers to stm32l4xx_it.o(.text.USART1_IRQHandler) for USART1_IRQHandler
    startup_stm32l431xx.o(RESET) refers to stm32l4xx_it.o(.text.LPUART1_IRQHandler) for LPUART1_IRQHandler
    startup_stm32l431xx.o(.text) refers to system_stm32l4xx.o(.text.SystemInit) for SystemInit
    startup_stm32l431xx.o(.text) refers to entry.o(.ARM.Collect$$$$00000000) for __main
    main.o(.text.HAL_UART_RxCpltCallback) refers to main.o(.bss.hlpuart1) for hlpuart1
    main.o(.text.HAL_UART_RxCpltCallback) refers to main.o(.bss.sgUartData) for sgUartData
    main.o(.text.HAL_UART_RxCpltCallback) refers to b_hal_it.o(.text.bHalItInvoke) for bHalItInvoke
==============================================================================

Removing Unused input sections from the image.

    Removing startup_stm32l431xx.o(HEAP), (512 bytes).
    Removing main.o(.text), (0 bytes).
    Removing main.o(.ARM.exidx.text.HAL_UART_RxCpltCallback), (8 bytes).
    Removing main.o(.ARM.exidx.text.bWifiTest), (8 bytes).
    Removing main.o(.ARM.exidx.text.DisplayTask), (8 bytes).
    Removing main.o(.ARM.exidx.text.WeatherTask), (8 bytes).
    Removing main.o(.ARM.exidx.text.main), (8 bytes).
    Removing main.o(.ARM.exidx.text.SystemClock_Config), (8 bytes).
    Removing main.o(.ARM.exidx.text._WifiEvtCb), (8 bytes).
    Removing main.o(.ARM.exidx.text._ButtonEventHandler), (8 bytes).
    Removing main.o(.ARM.exidx.text._HttpCb), (8 bytes).
    Removing main.o(.ARM.exidx.text.Error_Handler), (8 bytes).
    Removing main.o(.bss.hsd1), (132 bytes).
    Removing main.o(.ARM.use_no_argv), (4 bytes).
    Removing stm32l4xx_it.o(.text), (0 bytes).
    Removing stm32l4xx_it.o(.ARM.exidx.text.NMI_Handler), (8 bytes).
    Removing stm32l4xx_it.o(.ARM.exidx.text.HardFault_Handler), (8 bytes).
    Removing stm32l4xx_it.o(.ARM.exidx.text.MemManage_Handler), (8 bytes).
==============================================================================

Image Symbol Table

    Local Symbols

    Symbol Name                              Value     Ov Type        Size  Object(Section)

    ../clib/../cmprslib/zerorunl.c           0x00000000   Number         0  __dczerorl.o ABSOLUTE
    ../clib/microlib/ctype/ctype.c           0x00000000   Number         0  isspace_c.o ABSOLUTE
    ../clib/microlib/ctype/ctype.c           0x00000000   Number         0  ctype_o.o ABSOLUTE
    ../clib/microlib/ctype/ctype.c           0x00000000   Number         0  isalnum_o.o ABSOLUTE
    ../clib/microlib/ctype/ctype.c           0x00000000   Number         0  isalpha_o.o ABSOLUTE
    ../clib/microlib/ctype/ctype.c           0x00000000   Number         0  isblank_o.o ABSOLUTE
    ../clib/microlib/ctype/ctype.c           0x00000000   Number         0  iscntrl_o.o ABSOLUTE
    ../clib/microlib/ctype/ctype.c           0x00000000   Number         0  isdigit_o.o ABSOLUTE
    ../clib/microlib/ctype/ctype.c           0x00000000   Number         0  isgraph_o.o ABSOLUTE
    ../clib/microlib/ctype/ctype.c           0x00000000   Number         0  islower_o.o ABSOLUTE
    ../clib/microlib/ctype/ctype.c           0x00000000   Number         0  isprint_o.o ABSOLUTE
    ../clib/microlib/ctype/ctype.c           0x00000000   Number         0  ispunct_o.o ABSOLUTE
    ../clib/microlib/ctype/ctype.c           0x00000000   Number         0  isspace_o.o ABSOLUTE
    ../clib/microlib/ctype/ctype.c           0x00000000   Number         0  isupper_o.o ABSOLUTE
    ../clib/microlib/ctype/ctype.c           0x00000000   Number         0  isxdigit_o.o ABSOLUTE
    ../clib/microlib/ctype/ctype.c           0x00000000   Number         0  ctype_c.o ABSOLUTE
    ../clib/microlib/ctype/tolower.c         0x00000000   Number         0  tolower.o ABSOLUTE
    ../clib/microlib/division.c              0x00000000   Number         0  uldiv.o ABSOLUTE
    ../clib/microlib/division.c              0x00000000   Number         0  ldiv.o ABSOLUTE
    ../clib/microlib/division.c              0x00000000   Number         0  uidiv.o ABSOLUTE
    ../clib/microlib/errno.c                 0x00000000   Number         0  errno.o ABSOLUTE
    ../clib/microlib/init/entry.s            0x00000000   Number         0  entry.o ABSOLUTE
    ../clib/microlib/init/entry.s            0x00000000   Number         0  entry2.o ABSOLUTE
    ../clib/microlib/init/entry.s            0x00000000   Number         0  entry5.o ABSOLUTE
    ../clib/microlib/init/entry.s            0x00000000   Number         0  entry7a.o ABSOLUTE
    ../clib/microlib/init/entry.s            0x00000000   Number         0  entry7b.o ABSOLUTE
    ../clib/microlib/init/entry.s            0x00000000   Number         0  entry8a.o ABSOLUTE
    ../clib/microlib/init/entry.s            0x00000000   Number         0  entry8b.o ABSOLUTE
    ../clib/microlib/init/entry.s            0x00000000   Number         0  entry9a.o ABSOLUTE
    ../clib/microlib/init/entry.s            0x00000000   Number         0  entry9b.o ABSOLUTE
    ../clib/microlib/init/entry.s            0x00000000   Number         0  entry10a.o ABSOLUTE
    ../clib/microlib/init/entry.s            0x00000000   Number         0  entry10b.o ABSOLUTE
    ../clib/microlib/init/entry.s            0x00000000   Number         0  entry11a.o ABSOLUTE
    ../clib/microlib/init/entry.s            0x00000000   Number         0  entry11b.o ABSOLUTE
    ../clib/microlib/longlong.c              0x00000000   Number         0  llshl.o ABSOLUTE
    ../clib/microlib/longlong.c              0x00000000   Number         0  llushr.o ABSOLUTE
    ../clib/microlib/longlong.c              0x00000000   Number         0  llsshr.o ABSOLUTE
    ../clib/microlib/malloc/malloc.c         0x00000000   Number         0  malloc.o ABSOLUTE
    ../clib/microlib/malloc/malloc.c         0x00000000   Number         0  mallocr.o ABSOLUTE
    ../clib/microlib/malloc/malloc.c         0x00000000   Number         0  malloca.o ABSOLUTE
    ../clib/microlib/malloc/malloc.c         0x00000000   Number         0  mallocra.o ABSOLUTE
    ../clib/microlib/malloc/mvars.c          0x00000000   Number         0  mvars.o ABSOLUTE
    ../clib/microlib/printf/printf.c         0x00000000   Number         0  printfb.o ABSOLUTE
    ../clib/microlib/printf/printf.c         0x00000000   Number         0  printf0.o ABSOLUTE
    ../clib/microlib/printf/printf.c         0x00000000   Number         0  printf1.o ABSOLUTE
    ../clib/microlib/printf/printf.c         0x00000000   Number         0  printf2.o ABSOLUTE
    ../clib/microlib/printf/printf.c         0x00000000   Number         0  printf3.o ABSOLUTE
    ../clib/microlib/printf/printf.c         0x00000000   Number         0  printf4.o ABSOLUTE
    ../clib/microlib/printf/printf.c         0x00000000   Number         0  printf5.o ABSOLUTE
    ../clib/microlib/printf/printf.c         0x00000000   Number         0  printf6.o ABSOLUTE
    ../clib/microlib/printf/printf.c         0x00000000   Number         0  printf7.o ABSOLUTE
    ../clib/microlib/printf/printf.c         0x00000000   Number         0  printf8.o ABSOLUTE
    ../clib/microlib/printf/printf.c         0x00000000   Number         0  printfa.o ABSOLUTE
    ../clib/microlib/printf/stubs.s          0x00000000   Number         0  printfstubs.o ABSOLUTE
    ../clib/microlib/stdio/streams.c         0x00000000   Number         0  stdout.o ABSOLUTE
    ../clib/microlib/string/memcpy.c         0x00000000   Number         0  memcpya.o ABSOLUTE
    ../clib/microlib/string/memcpy.c         0x00000000   Number         0  memcpyb.o ABSOLUTE
    ../clib/microlib/string/memset.c         0x00000000   Number         0  memseta.o ABSOLUTE
    ../clib/microlib/string/strchr.c         0x00000000   Number         0  strchr.o ABSOLUTE
    ../clib/microlib/string/strcmp.c         0x00000000   Number         0  strcmp.o ABSOLUTE
    ../clib/microlib/string/strcpy.c         0x00000000   Number         0  strcpy.o ABSOLUTE
    ../clib/microlib/string/strlen.c         0x00000000   Number         0  strlen.o ABSOLUTE
    ../clib/microlib/string/strncmp.c        0x00000000   Number         0  strncmp.o ABSOLUTE
    ../clib/microlib/string/strncpy.c        0x00000000   Number         0  strncpy.o ABSOLUTE
    ../clib/microlib/string/strstr.c         0x00000000   Number         0  strstr.o ABSOLUTE
    ../clib/microlib/stubs.s                 0x00000000   Number         0  iusefp.o ABSOLUTE
    ../clib/scanf.c                          0x00000000   Number         0  __0sscanf.o ABSOLUTE
    ../clib/scanf.c                          0x00000000   Number         0  _scanf_int.o ABSOLUTE
    ../clib/scanf.c                          0x00000000   Number         0  _scanf_str.o ABSOLUTE
    ../clib/scanf.c                          0x00000000   Number         0  scanf_fp.o ABSOLUTE
    ../clib/scanf.c                          0x00000000   Number         0  atoi.o ABSOLUTE
    ../clib/scanf.c                          0x00000000   Number         0  _chval.o ABSOLUTE
    ../clib/scanf.c                          0x00000000   Number         0  scanf_char.o ABSOLUTE
    ../clib/scanf.c                          0x00000000   Number         0  _sgetc.o ABSOLUTE
    ../clib/scanf.c                          0x00000000   Number         0  strtod.o ABSOLUTE
    ../clib/scanf.c                          0x00000000   Number         0  strtol.o ABSOLUTE
    ../clib/scanf.c                          0x00000000   Number         0  _scanf.o ABSOLUTE
    ../clib/scanf.c                          0x00000000   Number         0  _strtoul.o ABSOLUTE
    ../fplib/microlib/d2f.c                  0x00000000   Number         0  d2f.o ABSOLUTE
    ../fplib/microlib/f2d.c                  0x00000000   Number         0  f2d.o ABSOLUTE
    ../fplib/microlib/fpadd.c                0x00000000   Number         0  dadd.o ABSOLUTE
    ../fplib/microlib/fpcmp.c                0x00000000   Number         0  dcmple.o ABSOLUTE
    ../fplib/microlib/fpcmp.c                0x00000000   Number         0  dcmpge.o ABSOLUTE
    ../fplib/microlib/fpcmp.c                0x00000000   Number         0  dcmpgt.o ABSOLUTE
    ../fplib/microlib/fpdiv.c                0x00000000   Number         0  ddiv.o ABSOLUTE
    ../fplib/microlib/fpepilogue.c           0x00000000   Number         0  depilogue.o ABSOLUTE
    ../fplib/microlib/fpepilogue.c           0x00000000   Number         0  fepilogue.o ABSOLUTE
    ../fplib/microlib/fpfix.c                0x00000000   Number         0  dfixi.o ABSOLUTE
    ../fplib/microlib/fpfix.c                0x00000000   Number         0  dfixui.o ABSOLUTE
    ../fplib/microlib/fpfix.c                0x00000000   Number         0  dfixl.o ABSOLUTE
    ../fplib/microlib/fpfix.c                0x00000000   Number         0  dfixul.o ABSOLUTE
    ../fplib/microlib/fpflt.c                0x00000000   Number         0  dflti.o ABSOLUTE
    ../fplib/microlib/fpflt.c                0x00000000   Number         0  dfltui.o ABSOLUTE
    ../fplib/microlib/fpflt.c                0x00000000   Number         0  dfltl.o ABSOLUTE
    ../fplib/microlib/fpflt.c                0x00000000   Number         0  dfltul.o ABSOLUTE
    ../fplib/microlib/fpmul.c                0x00000000   Number         0  dmul.o ABSOLUTE
    ../mathlib/strtod.c                      0x00000000   Number         0  strtod.o ABSOLUTE
    algo_base64.c                            0x00000000   Number         0  algo_base64.o ABSOLUTE
    algo_crc.c                               0x00000000   Number         0  algo_crc.o ABSOLUTE
    algo_hmac_sha1.c                         0x00000000   Number         0  algo_hmac_sha1.o ABSOLUTE
    algo_md5.c                               0x00000000   Number         0  algo_md5.o ABSOLUTE
    algo_sort.c                              0x00000000   Number         0  algo_sort.o ABSOLUTE
    algo_utf8_unicode.c                      0x00000000   Number         0  algo_utf8_unicode.o ABSOLUTE
    b_core.c                                 0x00000000   Number         0  b_core.o ABSOLUTE
    b_device.c                               0x00000000   Number         0  b_device.o ABSOLUTE
    b_drv_esp12f.c                           0x00000000   Number         0  b_drv_esp12f.o ABSOLUTE
    b_drv_key.c                              0x00000000   Number         0  b_drv_key.o ABSOLUTE
    b_drv_spiflash.c                         0x00000000   Number         0  b_drv_spiflash.o ABSOLUTE
    b_drv_st7789.c                           0x00000000   Number         0  b_drv_st7789.o ABSOLUTE
    b_hal.c                                  0x00000000   Number         0  b_hal.o ABSOLUTE
    b_hal_flash.c                            0x00000000   Number         0  b_hal_flash.o ABSOLUTE
    b_hal_gpio.c                             0x00000000   Number         0  b_hal_gpio.o ABSOLUTE
    b_hal_i2c.c                              0x00000000   Number         0  b_hal_i2c.o ABSOLUTE
    b_hal_it.c                               0x00000000   Number         0  b_hal_it.o ABSOLUTE
    b_hal_qspi.c                             0x00000000   Number         0  b_hal_qspi.o ABSOLUTE
    b_hal_sdio.c                             0x00000000   Number         0  b_hal_sdio.o ABSOLUTE
    b_hal_spi.c                              0x00000000   Number         0  b_hal_spi.o ABSOLUTE
    b_hal_uart.c                             0x00000000   Number         0  b_hal_uart.o ABSOLUTE
    b_mod_adchub.c                           0x00000000   Number         0  b_mod_adchub.o ABSOLUTE
    b_mod_button.c                           0x00000000   Number         0  b_mod_button.o ABSOLUTE
    b_mod_error.c                            0x00000000   Number         0  b_mod_error.o ABSOLUTE
    b_mod_fs.c                               0x00000000   Number         0  b_mod_fs.o ABSOLUTE
    b_mod_gui.c                              0x00000000   Number         0  b_mod_gui.o ABSOLUTE
    b_mod_iap.c                              0x00000000   Number         0  b_mod_iap.o ABSOLUTE
    b_mod_kv.c                               0x00000000   Number         0  b_mod_kv.o ABSOLUTE
    b_mod_link.c                             0x00000000   Number         0  b_mod_link.o ABSOLUTE
    b_mod_menu.c                             0x00000000   Number         0  b_mod_menu.o ABSOLUTE
    b_mod_modbus.c                           0x00000000   Number         0  b_mod_modbus.o ABSOLUTE
    b_mod_param.c                            0x00000000   Number         0  b_mod_param.o ABSOLUTE
    b_mod_protocol.c                         0x00000000   Number         0  b_mod_protocol.o ABSOLUTE
    b_mod_pwm.c                              0x00000000   Number         0  b_mod_pwm.o ABSOLUTE
    b_mod_shell.c                            0x00000000   Number         0  b_mod_shell.o ABSOLUTE
    b_mod_state.c                            0x00000000   Number         0  b_mod_state.o ABSOLUTE
    b_mod_trace.c                            0x00000000   Number         0  b_mod_trace.o ABSOLUTE
    b_mod_trans.c                            0x00000000   Number         0  b_mod_trans.o ABSOLUTE
    b_mod_wifi.c                             0x00000000   Number         0  b_mod_wifi.o ABSOLUTE
    b_mod_xm128.c                            0x00000000   Number         0  b_mod_xm128.o ABSOLUTE
    b_mod_ymodem.c                           0x00000000   Number         0  b_mod_ymodem.o ABSOLUTE
    b_queue.c                                0x00000000   Number         0  b_queue.o ABSOLUTE
    b_sem.c                                  0x00000000   Number         0  b_sem.o ABSOLUTE
    b_srv_tcpip.c                            0x00000000   Number         0  b_srv_tcpip.o ABSOLUTE
    b_task.c                                 0x00000000   Number         0  b_task.o ABSOLUTE
    b_timer.c                                0x00000000   Number         0  b_timer.o ABSOLUTE
    b_util_at.c                              0x00000000   Number         0  b_util_at.o ABSOLUTE
    b_util_fifo.c                            0x00000000   Number         0  b_util_fifo.o ABSOLUTE
    b_util_log.c                             0x00000000   Number         0  b_util_log.o ABSOLUTE
    b_util_lunar.c                           0x00000000   Number         0  b_util_lunar.o ABSOLUTE
    b_util_memp.c                            0x00000000   Number         0  b_util_memp.o ABSOLUTE
    b_util_utc.c                             0x00000000   Number         0  b_util_utc.o ABSOLUTE
    cdrcmple.s                               0x00000000   Number         0  cdrcmple.o ABSOLUTE
    cjson.c                                  0x00000000   Number         0  cjson.o ABSOLUTE
    dc.s                                     0x00000000   Number         0  dc.o ABSOLUTE
    flexible_button.c                        0x00000000   Number         0  flexible_button.o ABSOLUTE
    handlers.s                               0x00000000   Number         0  handlers.o ABSOLUTE
    http_parser.c                            0x00000000   Number         0  http_parser.o ABSOLUTE
    init.s                                   0x00000000   Number         0  init.o ABSOLUTE
    main.c                                   0x00000000   Number         0  main.o ABSOLUTE
    mcu_stm32l41x_flash.c                    0x00000000   Number         0  mcu_stm32l41x_flash.o ABSOLUTE
    mcu_stm32l41x_gpio.c                     0x00000000   Number         0  mcu_stm32l41x_gpio.o ABSOLUTE
    mcu_stm32l41x_i2c.c                      0x00000000   Number         0  mcu_stm32l41x_i2c.o ABSOLUTE
    mcu_stm32l41x_it.c                       0x00000000   Number         0  mcu_stm32l41x_it.o ABSOLUTE
    mcu_stm32l41x_qspi.c                     0x00000000   Number         0  mcu_stm32l41x_qspi.o ABSOLUTE
    mcu_stm32l41x_sdio.c                     0x00000000   Number         0  mcu_stm32l41x_sdio.o ABSOLUTE
    mcu_stm32l41x_spi.c                      0x00000000   Number         0  mcu_stm32l41x_spi.o ABSOLUTE
    mcu_stm32l41x_uart.c                     0x00000000   Number         0  mcu_stm32l41x_uart.o ABSOLUTE
    sfud.c                                   0x00000000   Number         0  sfud.o ABSOLUTE
    sfud_sfdp.c                              0x00000000   Number         0  sfud_sfdp.o ABSOLUTE
    startup_stm32l431xx.s                    0x00000000   Number         0  startup_stm32l431xx.o ABSOLUTE
    stm32l4xx_hal.c                          0x00000000   Number         0  stm32l4xx_hal.o ABSOLUTE
    stm32l4xx_hal_adc.c                      0x00000000   Number         0  stm32l4xx_hal_adc.o ABSOLUTE
    stm32l4xx_hal_adc_ex.c                   0x00000000   Number         0  stm32l4xx_hal_adc_ex.o ABSOLUTE
    stm32l4xx_hal_cortex.c                   0x00000000   Number         0  stm32l4xx_hal_cortex.o ABSOLUTE
    stm32l4xx_hal_dma.c                      0x00000000   Number         0  stm32l4xx_hal_dma.o ABSOLUTE
    stm32l4xx_hal_dma_ex.c                   0x00000000   Number         0  stm32l4xx_hal_dma_ex.o ABSOLUTE
    stm32l4xx_hal_flash.c                    0x00000000   Number         0  stm32l4xx_hal_flash.o ABSOLUTE
    stm32l4xx_hal_flash_ex.c                 0x00000000   Number         0  stm32l4xx_hal_flash_ex.o ABSOLUTE
    stm32l4xx_hal_flash_ramfunc.c            0x00000000   Number         0  stm32l4xx_hal_flash_ramfunc.o ABSOLUTE
    stm32l4xx_hal_gpio.c                     0x00000000   Number         0  stm32l4xx_hal_gpio.o ABSOLUTE
    stm32l4xx_hal_i2c.c                      0x00000000   Number         0  stm32l4xx_hal_i2c.o ABSOLUTE
    stm32l4xx_hal_i2c_ex.c                   0x00000000   Number         0  stm32l4xx_hal_i2c_ex.o ABSOLUTE
    stm32l4xx_hal_iwdg.c                     0x00000000   Number         0  stm32l4xx_hal_iwdg.o ABSOLUTE
    stm32l4xx_hal_mmc.c                      0x00000000   Number         0  stm32l4xx_hal_mmc.o ABSOLUTE
    stm32l4xx_hal_mmc_ex.c                   0x00000000   Number         0  stm32l4xx_hal_mmc_ex.o ABSOLUTE
    stm32l4xx_hal_msp.c                      0x00000000   Number         0  stm32l4xx_hal_msp.o ABSOLUTE
    stm32l4xx_hal_pwr.c                      0x00000000   Number         0  stm32l4xx_hal_pwr.o ABSOLUTE
    stm32l4xx_hal_pwr_ex.c                   0x00000000   Number         0  stm32l4xx_hal_pwr_ex.o ABSOLUTE
    stm32l4xx_hal_qspi.c                     0x00000000   Number         0  stm32l4xx_hal_qspi.o ABSOLUTE
    stm32l4xx_hal_rcc.c                      0x00000000   Number         0  stm32l4xx_hal_rcc.o ABSOLUTE
    stm32l4xx_hal_rcc_ex.c                   0x00000000   Number         0  stm32l4xx_hal_rcc_ex.o ABSOLUTE
    stm32l4xx_hal_sd.c                       0x00000000   Number         0  stm32l4xx_hal_sd.o ABSOLUTE
    stm32l4xx_hal_sd_ex.c                    0x00000000   Number         0  stm32l4xx_hal_sd_ex.o ABSOLUTE
    stm32l4xx_hal_smartcard.c                0x00000000   Number         0  stm32l4xx_hal_smartcard.o ABSOLUTE
    stm32l4xx_hal_smartcard_ex.c             0x00000000   Number         0  stm32l4xx_hal_smartcard_ex.o ABSOLUTE
    stm32l4xx_hal_spi.c                      0x00000000   Number         0  stm32l4xx_hal_spi.o ABSOLUTE
    stm32l4xx_hal_spi_ex.c                   0x00000000   Number         0  stm32l4xx_hal_spi_ex.o ABSOLUTE
    stm32l4xx_hal_tim.c                      0x00000000   Number         0  stm32l4xx_hal_tim.o ABSOLUTE
    stm32l4xx_hal_tim_ex.c                   0x00000000   Number         0  stm32l4xx_hal_tim_ex.o ABSOLUTE
    stm32l4xx_hal_uart.c                     0x00000000   Number         0  stm32l4xx_hal_uart.o ABSOLUTE
    stm32l4xx_hal_uart_ex.c                  0x00000000   Number         0  stm32l4xx_hal_uart_ex.o ABSOLUTE
    stm32l4xx_hal_usart.c                    0x00000000   Number         0  stm32l4xx_hal_usart.o ABSOLUTE
    stm32l4xx_hal_usart_ex.c                 0x00000000   Number         0  stm32l4xx_hal_usart_ex.o ABSOLUTE
    stm32l4xx_hal_wwdg.c                     0x00000000   Number         0  stm32l4xx_hal_wwdg.o ABSOLUTE
    stm32l4xx_it.c                           0x00000000   Number         0  stm32l4xx_it.o ABSOLUTE
    stm32l4xx_ll_sdmmc.c                     0x00000000   Number         0  stm32l4xx_ll_sdmmc.o ABSOLUTE
    system_stm32l4xx.c                       0x00000000   Number         0  system_stm32l4xx.o ABSOLUTE
    ugui.c                                   0x00000000   Number         0  ugui.o ABSOLUTE
    RESET                                    0x08000000   Section      396  startup_stm32l431xx.o(RESET)
    .ARM.Collect$$$$00000000                 0x0800018c   Section        0  entry.o(.ARM.Collect$$$$00000000)
    .ARM.Collect$$$$00000001                 0x0800018c   Section        4  entry2.o(.ARM.Collect$$$$00000001)
    .ARM.Collect$$$$00000004                 0x08000190   Section        4  entry5.o(.ARM.Collect$$$$00000004)
    .ARM.Collect$$$$00000008                 0x08000194   Section        0  entry7b.o(.ARM.Collect$$$$00000008)
    .ARM.Collect$$$$0000000A                 0x08000194   Section        0  entry8b.o(.ARM.Collect$$$$0000000A)
    .ARM.Collect$$$$0000000B                 0x08000194   Section        8  entry9a.o(.ARM.Collect$$$$0000000B)
    __lit__00000000                          0x0800019c   Data           4  entry2.o(.ARM.Collect$$$$00002712)
    .ARM.Collect$$$$0000000D                 0x0800019c   Section        0  entry10a.o(.ARM.Collect$$$$0000000D)
    .ARM.Collect$$$$0000000F                 0x0800019c   Section        0  entry11a.o(.ARM.Collect$$$$0000000F)
    .ARM.Collect$$$$00002712                 0x0800019c   Section        4  entry2.o(.ARM.Collect$$$$00002712)
    $v0                                      0x080001a0   Number         0  startup_stm32l431xx.o(.text)
    .text                                    0x080001a0   Section       36  startup_stm32l431xx.o(.text)
    .text                                    0x080001c4   Section        0  uldiv.o(.text)
    .text                                    0x0800022c   Section        0  ldiv.o(.text)
    .text                                    0x0800028e   Section        0  tolower.o(.text)
    .text                                    0x0800029a   Section        0  memcpya.o(.text)
    .text                                    0x080002be   Section        0  memseta.o(.text)
    .text                                    0x080002e2   Section        0  strstr.o(.text)
    .text                                    0x08000306   Section        0  strncpy.o(.text)
    .text                                    0x0800031e   Section        0  strchr.o(.text)
    .text                                    0x08000332   Section        0  strlen.o(.text)
    .text                                    0x08000340   Section        0  strcmp.o(.text)
    .text                                    0x0800035c   Section        0  strcpy.o(.text)
    .text                                    0x0800036e   Section        0  strncmp.o(.text)
    .text                                    0x0800038c   Section        0  __0sscanf.o(.text)
    .text                                    0x080003c4   Section        0  _scanf_int.o(.text)
    .text                                    0x08000516   Section        0  _scanf_str.o(.text)
    _fp_value                                0x080005fd   Thumb Code   296  scanf_fp.o(.text)
    .text                                    0x080005fc   Section        0  scanf_fp.o(.text)
    .text                                    0x08000962   Section        0  atoi.o(.text)
    .text                                    0x0800097c   Section        0  dadd.o(.text)
    .text                                    0x08000ada   Section        0  dmul.o(.text)
    .text                                    0x08000bc4   Section        0  ddiv.o(.text)
    .text                                    0x08000ca2   Section        0  dcmple.o(.text)
    .text                                    0x08000cd8   Section        0  dcmpge.o(.text)
    .text                                    0x08000d0e   Section        0  dfltui.o(.text)
    .text                                    0x08000d28   Section        0  dfltl.o(.text)
    .text                                    0x08000d50   Section        0  dfixi.o(.text)
    .text                                    0x08000d8e   Section        0  dfixui.o(.text)
    .text                                    0x08000dc0   Section        0  dfixl.o(.text)
    .text                                    0x08000e0a   Section        0  uidiv.o(.text)
    .text                                    0x08000e36   Section        0  llshl.o(.text)
    .text                                    0x08000e54   Section        0  llushr.o(.text)
    .text                                    0x08000e74   Section        0  llsshr.o(.text)
    .text                                    0x08000e98   Section        0  _chval.o(.text)
    _scanf_char_input                        0x08000eb5   Thumb Code    12  scanf_char.o(.text)
    .text                                    0x08000eb4   Section        0  scanf_char.o(.text)
    .text                                    0x08000edc   Section        0  _sgetc.o(.text)
    _local_sscanf                            0x08000f1d   Thumb Code    62  strtod.o(.text)
    .text                                    0x08000f1c   Section        0  strtod.o(.text)
    .text                                    0x08000fc4   Section        0  strtol.o(.text)
    .text                                    0x08001034   Section        0  iusefp.o(.text)
    .text                                    0x08001034   Section        0  depilogue.o(.text)
    .text                                    0x080010ee   Section        0  dfltul.o(.text)
    .text                                    0x08001106   Section        0  dfixul.o(.text)
    .text                                    0x08001138   Section       48  cdrcmple.o(.text)
    .text                                    0x08001168   Section        0  d2f.o(.text)
    .text                                    0x080011a0   Section       36  init.o(.text)
    .text                                    0x080011c4   Section        0  ctype_o.o(.text)
    .text                                    0x080011cc   Section        0  isspace_o.o(.text)
    .text                                    0x080011e0   Section        0  _scanf.o(.text)
    .text                                    0x08001512   Section        0  _strtoul.o(.text)
    .text                                    0x080015b6   Section        0  fepilogue.o(.text)
    .text                                    0x08001624   Section        0  __dczerorl.o(.text)
    [Anonymous Symbol]                       0x08001660   Section        0  stm32l4xx_it.o(.text.BusFault_Handler)
    [Anonymous Symbol]                       0x08001662   Section        0  stm32l4xx_it.o(.text.DebugMon_Handler)
    [Anonymous Symbol]                       0x08001668   Section        0  main.o(.text.DisplayTask)
    [Anonymous Symbol]                       0x08001804   Section        0  main.o(.text.Error_Handler)
    [Anonymous Symbol]                       0x0800180e   Section        0  stm32l4xx_hal_dma.o(.text.HAL_DMA_Abort)
    [Anonymous Symbol]                       0x08001852   Section        0  stm32l4xx_hal_dma.o(.text.HAL_DMA_Abort_IT)
    [Anonymous Symbol]                       0x080018a8   Section        0  stm32l4xx_hal_gpio.o(.text.HAL_GPIO_Init)
    [Anonymous Symbol]                       0x08001a86   Section        0  stm32l4xx_hal_gpio.o(.text.HAL_GPIO_WritePin)
    [Anonymous Symbol]                       0x08001a92   Section        0  stm32l4xx_hal.o(.text.HAL_GetTick)
    [Anonymous Symbol]                       0x08001a9e   Section        0  stm32l4xx_hal.o(.text.HAL_IncTick)
    [Anonymous Symbol]                       0x08001ab8   Section        0  stm32l4xx_hal.o(.text.HAL_Init)
    [Anonymous Symbol]                       0x08001ad4   Section        0  stm32l4xx_hal.o(.text.HAL_InitTick)
    [Anonymous Symbol]                       0x08001b28   Section        0  stm32l4xx_hal_msp.o(.text.HAL_MspInit)
    [Anonymous Symbol]                       0x08001b5a   Section        0  stm32l4xx_hal_cortex.o(.text.HAL_NVIC_EnableIRQ)
    [Anonymous Symbol]                       0x08001b78   Section        0  stm32l4xx_hal_cortex.o(.text.HAL_NVIC_SetPriority)
    [Anonymous Symbol]                       0x08001bce   Section        0  stm32l4xx_hal_cortex.o(.text.HAL_NVIC_SetPriorityGrouping)
    [Anonymous Symbol]                       0x08001bf0   Section        0  stm32l4xx_hal_pwr_ex.o(.text.HAL_PWREx_ControlVoltageScaling)
    [Anonymous Symbol]                       0x08001c64   Section        0  stm32l4xx_hal_pwr_ex.o(.text.HAL_PWREx_GetVoltageRange)
    [Anonymous Symbol]                       0x08001c74   Section        0  stm32l4xx_hal_qspi.o(.text.HAL_QSPI_Init)
    [Anonymous Symbol]                       0x08001d28   Section        0  stm32l4xx_hal_msp.o(.text.HAL_QSPI_MspInit)
    [Anonymous Symbol]                       0x08001d98   Section        0  stm32l4xx_hal_rcc_ex.o(.text.HAL_RCCEx_PeriphCLKConfig)
    [Anonymous Symbol]                       0x08002008   Section        0  stm32l4xx_hal_rcc.o(.text.HAL_RCC_ClockConfig)
    [Anonymous Symbol]                       0x08002164   Section        0  stm32l4xx_hal_rcc.o(.text.HAL_RCC_GetPCLK1Freq)
    [Anonymous Symbol]                       0x0800218e   Section        0  stm32l4xx_hal_rcc.o(.text.HAL_RCC_GetPCLK2Freq)
    [Anonymous Symbol]                       0x080021b8   Section        0  stm32l4xx_hal_rcc.o(.text.HAL_RCC_GetSysClockFreq)
    [Anonymous Symbol]                       0x08002270   Section        0  stm32l4xx_hal_rcc.o(.text.HAL_RCC_OscConfig)
    [Anonymous Symbol]                       0x08002862   Section        0  stm32l4xx_hal_spi.o(.text.HAL_SPI_Init)
    [Anonymous Symbol]                       0x0800293a   Section        0  stm32l4xx_hal_msp.o(.text.HAL_SPI_MspInit)
    [Anonymous Symbol]                       0x080029e2   Section        0  stm32l4xx_hal_cortex.o(.text.HAL_SYSTICK_Config)
    [Anonymous Symbol]                       0x08002a0e   Section        0  stm32l4xx_hal_uart.o(.text.HAL_UARTEx_RxEventCallback)
    [Anonymous Symbol]                       0x08002a10   Section        0  stm32l4xx_hal_uart_ex.o(.text.HAL_UARTEx_WakeupCallback)
    [Anonymous Symbol]                       0x08002a12   Section        0  stm32l4xx_hal_uart.o(.text.HAL_UART_ErrorCallback)
    [Anonymous Symbol]                       0x08002a14   Section        0  stm32l4xx_hal_uart.o(.text.HAL_UART_IRQHandler)
    [Anonymous Symbol]                       0x08002cde   Section        0  stm32l4xx_hal_uart.o(.text.HAL_UART_Init)
    [Anonymous Symbol]                       0x08002d3e   Section        0  stm32l4xx_hal_msp.o(.text.HAL_UART_MspInit)
    [Anonymous Symbol]                       0x08002e38   Section        0  stm32l4xx_hal_uart.o(.text.HAL_UART_Receive_IT)
    [Anonymous Symbol]                       0x08002e9e   Section        0  main.o(.text.HAL_UART_RxCpltCallback)
    [Anonymous Symbol]                       0x08002ee4   Section        0  stm32l4xx_hal_uart.o(.text.HAL_UART_TxCpltCallback)
    [Anonymous Symbol]                       0x08002ee8   Section        0  stm32l4xx_it.o(.text.HardFault_Handler)
    [Anonymous Symbol]                       0x08002eea   Section        0  stm32l4xx_it.o(.text.LPUART1_IRQHandler)
    [Anonymous Symbol]                       0x08002ef8   Section        0  stm32l4xx_it.o(.text.MemManage_Handler)
    [Anonymous Symbol]                       0x08002efc   Section        0  stm32l4xx_it.o(.text.NMI_Handler)
    [Anonymous Symbol]                       0x08002efe   Section        0  stm32l4xx_it.o(.text.PendSV_Handler)
    QSPI_WaitFlagStateUntilTimeout           0x08002f01   Thumb Code    96  stm32l4xx_hal_qspi.o(.text.QSPI_WaitFlagStateUntilTimeout)
    [Anonymous Symbol]                       0x08002f00   Section        0  stm32l4xx_hal_qspi.o(.text.QSPI_WaitFlagStateUntilTimeout)
    RCCEx_PLLSAI1_Config                     0x08002f61   Thumb Code   298  stm32l4xx_hal_rcc_ex.o(.text.RCCEx_PLLSAI1_Config)
    [Anonymous Symbol]                       0x08002f60   Section        0  stm32l4xx_hal_rcc_ex.o(.text.RCCEx_PLLSAI1_Config)
    RCC_SetFlashLatencyFromMSIRange          0x0800308b   Thumb Code   138  stm32l4xx_hal_rcc.o(.text.RCC_SetFlashLatencyFromMSIRange)
    [Anonymous Symbol]                       0x0800308a   Section        0  stm32l4xx_hal_rcc.o(.text.RCC_SetFlashLatencyFromMSIRange)
    [Anonymous Symbol]                       0x08003114   Section        0  stm32l4xx_it.o(.text.SVC_Handler)
    [Anonymous Symbol]                       0x08003116   Section        0  stm32l4xx_it.o(.text.SysTick_Handler)
    [Anonymous Symbol]                       0x08003124   Section        0  main.o(.text.SystemClock_Config)
    [Anonymous Symbol]                       0x080031a6   Section        0  system_stm32l4xx.o(.text.SystemInit)
    [Anonymous Symbol]                       0x080031b8   Section        0  stm32l4xx_hal_uart.o(.text.UART_AdvFeatureConfig)
    [Anonymous Symbol]                       0x08003284   Section        0  stm32l4xx_hal_uart.o(.text.UART_CheckIdleState)
    UART_DMAAbortOnError                     0x080032ed   Thumb Code    16  stm32l4xx_hal_uart.o(.text.UART_DMAAbortOnError)
    [Anonymous Symbol]                       0x080032ec   Section        0  stm32l4xx_hal_uart.o(.text.UART_DMAAbortOnError)
    UART_EndRxTransfer                       0x080032fd   Thumb Code    80  stm32l4xx_hal_uart.o(.text.UART_EndRxTransfer)
    [Anonymous Symbol]                       0x080032fc   Section        0  stm32l4xx_hal_uart.o(.text.UART_EndRxTransfer)
    UART_RxISR_16BIT                         0x0800334d   Thumb Code   158  stm32l4xx_hal_uart.o(.text.UART_RxISR_16BIT)
    [Anonymous Symbol]                       0x0800334c   Section        0  stm32l4xx_hal_uart.o(.text.UART_RxISR_16BIT)
    UART_RxISR_8BIT                          0x080033ed   Thumb Code   158  stm32l4xx_hal_uart.o(.text.UART_RxISR_8BIT)
    [Anonymous Symbol]                       0x080033ec   Section        0  stm32l4xx_hal_uart.o(.text.UART_RxISR_8BIT)
    [Anonymous Symbol]                       0x0800348c   Section        0  stm32l4xx_hal_uart.o(.text.UART_SetConfig)
    [Anonymous Symbol]                       0x0800368c   Section        0  stm32l4xx_hal_uart.o(.text.UART_Start_Receive_IT)
    [Anonymous Symbol]                       0x0800375c   Section        0  stm32l4xx_hal_uart.o(.text.UART_WaitOnFlagUntilTimeout)
    [Anonymous Symbol]                       0x08003834   Section        0  ugui.o(.text.UG_DrawLine)
    [Anonymous Symbol]                       0x0800396c   Section        0  ugui.o(.text.UG_DriverRegister)
    [Anonymous Symbol]                       0x0800398c   Section        0  ugui.o(.text.UG_FillFrame)
    [Anonymous Symbol]                       0x08003a0e   Section        0  ugui.o(.text.UG_FillScreen)
    [Anonymous Symbol]                       0x08003a3a   Section        0  ugui.o(.text.UG_FontSelect)
    [Anonymous Symbol]                       0x08003a58   Section        0  ugui.o(.text.UG_GetUnicode)
    [Anonymous Symbol]                       0x08003c2c   Section        0  ugui.o(.text.UG_Init)
    [Anonymous Symbol]                       0x08003ca4   Section        0  ugui.o(.text.UG_PutString)
    [Anonymous Symbol]                       0x08003d8a   Section        0  ugui.o(.text.UG_SelectGUI)
    [Anonymous Symbol]                       0x08003d9a   Section        0  ugui.o(.text.UG_SetBackcolor)
    [Anonymous Symbol]                       0x08003daa   Section        0  ugui.o(.text.UG_SetForecolor)
    [Anonymous Symbol]                       0x08003dba   Section        0  ugui.o(.text.UG_TouchUpdate)
    [Anonymous Symbol]                       0x08003dcc   Section        0  ugui.o(.text.UG_Update)
    [Anonymous Symbol]                       0x08003e6c   Section        0  stm32l4xx_it.o(.text.USART1_IRQHandler)
    [Anonymous Symbol]                       0x08003e78   Section        0  stm32l4xx_it.o(.text.UsageFault_Handler)
    [Anonymous Symbol]                       0x08003e7a   Section        0  main.o(.text.WeatherTask)
    _ButtonEventHandler                      0x08003f97   Thumb Code    24  main.o(.text._ButtonEventHandler)
    [Anonymous Symbol]                       0x08003f96   Section        0  main.o(.text._ButtonEventHandler)
    _HttpCb                                  0x08003fb1   Thumb Code   304  main.o(.text._HttpCb)
    [Anonymous Symbol]                       0x08003fb0   Section        0  main.o(.text._HttpCb)
    _LCD_FillRect                            0x080040f1   Thumb Code   202  b_mod_gui.o(.text._LCD_FillRect)
    [Anonymous Symbol]                       0x080040f0   Section        0  b_mod_gui.o(.text._LCD_FillRect)
    _LCD_SetColorPixel                       0x080041bb   Thumb Code    98  b_mod_gui.o(.text._LCD_SetColorPixel)
    [Anonymous Symbol]                       0x080041ba   Section        0  b_mod_gui.o(.text._LCD_SetColorPixel)
    [Anonymous Symbol]                       0x0800421c   Section        0  ugui.o(.text._UG_DrawObjectFrame)
    [Anonymous Symbol]                       0x08004358   Section        0  ugui.o(.text._UG_HandleEvents)
    [Anonymous Symbol]                       0x080043b8   Section        0  ugui.o(.text._UG_ProcessTouchData)
    [Anonymous Symbol]                       0x08004474   Section        0  ugui.o(.text._UG_PutChar)
    [Anonymous Symbol]                       0x08004810   Section        0  ugui.o(.text._UG_PutText)
    [Anonymous Symbol]                       0x08004a08   Section        0  ugui.o(.text._UG_UpdateObjects)
    [Anonymous Symbol]                       0x08004a5c   Section        0  ugui.o(.text._UG_WindowDrawTitle)
    [Anonymous Symbol]                       0x08004b3c   Section        0  ugui.o(.text._UG_WindowUpdate)
    _WifiEvtCb                               0x08004c11   Thumb Code   208  main.o(.text._WifiEvtCb)
    [Anonymous Symbol]                       0x08004c10   Section        0  main.o(.text._WifiEvtCb)
    _bAtCmdCb                                0x08004ce1   Thumb Code    80  b_drv_esp12f.o(.text._bAtCmdCb)
    [Anonymous Symbol]                       0x08004ce0   Section        0  b_drv_esp12f.o(.text._bAtCmdCb)
    _bAtFree                                 0x08004d31   Thumb Code     4  b_util_at.o(.text._bAtFree)
    [Anonymous Symbol]                       0x08004d30   Section        0  b_util_at.o(.text._bAtFree)
    _bAtNewDataCb                            0x08004d35   Thumb Code   336  b_drv_esp12f.o(.text._bAtNewDataCb)
    [Anonymous Symbol]                       0x08004d34   Section        0  b_drv_esp12f.o(.text._bAtNewDataCb)
    _bAtNewDataFree                          0x08004e85   Thumb Code    32  b_drv_esp12f.o(.text._bAtNewDataFree)
    [Anonymous Symbol]                       0x08004e84   Section        0  b_drv_esp12f.o(.text._bAtNewDataFree)
    _bAtSendData                             0x08004ea5   Thumb Code    62  b_drv_esp12f.o(.text._bAtSendData)
    [Anonymous Symbol]                       0x08004ea4   Section        0  b_drv_esp12f.o(.text._bAtSendData)
    _bButtonCallback                         0x08004ee3   Thumb Code    54  b_mod_button.o(.text._bButtonCallback)
    [Anonymous Symbol]                       0x08004ee2   Section        0  b_mod_button.o(.text._bButtonCallback)
    _bButtonCore                             0x08004f19   Thumb Code    38  b_mod_button.o(.text._bButtonCore)
    [Anonymous Symbol]                       0x08004f18   Section        0  b_mod_button.o(.text._bButtonCore)
    _bButtonFindInstance                     0x08004f41   Thumb Code    56  b_mod_button.o(.text._bButtonFindInstance)
    [Anonymous Symbol]                       0x08004f40   Section        0  b_mod_button.o(.text._bButtonFindInstance)
    _bButtonRead                             0x08004f79   Thumb Code    70  b_mod_button.o(.text._bButtonRead)
    [Anonymous Symbol]                       0x08004f78   Section        0  b_mod_button.o(.text._bButtonRead)
    _bCloseTcpUdp                            0x08004fc1   Thumb Code    56  b_drv_esp12f.o(.text._bCloseTcpUdp)
    [Anonymous Symbol]                       0x08004fc0   Section        0  b_drv_esp12f.o(.text._bCloseTcpUdp)
    _bCoreMonitor                            0x08004ff9   Thumb Code     2  b_core.o(.text._bCoreMonitor)
    [Anonymous Symbol]                       0x08004ff8   Section        0  b_core.o(.text._bCoreMonitor)
    _bDriverNullInit                         0x08004ffb   Thumb Code     4  b_device.o(.text._bDriverNullInit)
    [Anonymous Symbol]                       0x08004ffa   Section        0  b_device.o(.text._bDriverNullInit)
    _bESP12FCtl                              0x08005001   Thumb Code   932  b_drv_esp12f.o(.text._bESP12FCtl)
    [Anonymous Symbol]                       0x08005000   Section        0  b_drv_esp12f.o(.text._bESP12FCtl)
    _bEsp12fCtlResult                        0x080053a5   Thumb Code   216  b_drv_esp12f.o(.text._bEsp12fCtlResult)
    [Anonymous Symbol]                       0x080053a4   Section        0  b_drv_esp12f.o(.text._bEsp12fCtlResult)
    _bEsp12fFree                             0x0800547d   Thumb Code     4  b_drv_esp12f.o(.text._bEsp12fFree)
    [Anonymous Symbol]                       0x0800547c   Section        0  b_drv_esp12f.o(.text._bEsp12fFree)
    _bEsp12fGetConn                          0x08005481   Thumb Code    72  b_drv_esp12f.o(.text._bEsp12fGetConn)
    [Anonymous Symbol]                       0x08005480   Section        0  b_drv_esp12f.o(.text._bEsp12fGetConn)
    _bGUI_Core                               0x080054c9   Thumb Code   212  b_mod_gui.o(.text._bGUI_Core)
    [Anonymous Symbol]                       0x080054c8   Section        0  b_mod_gui.o(.text._bGUI_Core)
    _bHalItHandler                           0x0800559d   Thumb Code    64  b_hal_uart.o(.text._bHalItHandler)
    [Anonymous Symbol]                       0x0800559c   Section        0  b_hal_uart.o(.text._bHalItHandler)
    _bHalUartDetectIdle                      0x080055dd   Thumb Code   144  b_hal_uart.o(.text._bHalUartDetectIdle)
    [Anonymous Symbol]                       0x080055dc   Section        0  b_hal_uart.o(.text._bHalUartDetectIdle)
    _bHalUartIdleCb                          0x0800566d   Thumb Code    22  b_drv_esp12f.o(.text._bHalUartIdleCb)
    [Anonymous Symbol]                       0x0800566c   Section        0  b_drv_esp12f.o(.text._bHalUartIdleCb)
    _bHttpResult                             0x08005683   Thumb Code    82  b_srv_tcpip.o(.text._bHttpResult)
    [Anonymous Symbol]                       0x08005682   Section        0  b_srv_tcpip.o(.text._bHttpResult)
    [Anonymous Symbol]                       0x080056d4   Section        0  b_srv_tcpip.o(.text._bHttpTaskFunc)
    _bHttpTransCb                            0x08005c85   Thumb Code     2  b_srv_tcpip.o(.text._bHttpTransCb)
    [Anonymous Symbol]                       0x08005c84   Section        0  b_srv_tcpip.o(.text._bHttpTransCb)
    _bJoinAp                                 0x08005c89   Thumb Code    68  b_drv_esp12f.o(.text._bJoinAp)
    [Anonymous Symbol]                       0x08005c88   Section        0  b_drv_esp12f.o(.text._bJoinAp)
    _bKVCopyData                             0x08005ccd   Thumb Code   116  b_mod_kv.o(.text._bKVCopyData)
    [Anonymous Symbol]                       0x08005ccc   Section        0  b_mod_kv.o(.text._bKVCopyData)
    _bKVEraseSector                          0x08005d41   Thumb Code    84  b_mod_kv.o(.text._bKVEraseSector)
    [Anonymous Symbol]                       0x08005d40   Section        0  b_mod_kv.o(.text._bKVEraseSector)
    _bKVFindKey                              0x08005d95   Thumb Code   564  b_mod_kv.o(.text._bKVFindKey)
    [Anonymous Symbol]                       0x08005d94   Section        0  b_mod_kv.o(.text._bKVFindKey)
    _bKVFindMessyEmptySector                 0x08005fd1   Thumb Code   252  b_mod_kv.o(.text._bKVFindMessyEmptySector)
    [Anonymous Symbol]                       0x08005fd0   Section        0  b_mod_kv.o(.text._bKVFindMessyEmptySector)
    _bKVKey2hex8                             0x080060d5   Thumb Code    54  b_mod_kv.o(.text._bKVKey2hex8)
    [Anonymous Symbol]                       0x080060d4   Section        0  b_mod_kv.o(.text._bKVKey2hex8)
    _bKVReadDataHead                         0x0800610b   Thumb Code    52  b_mod_kv.o(.text._bKVReadDataHead)
    [Anonymous Symbol]                       0x0800610a   Section        0  b_mod_kv.o(.text._bKVReadDataHead)
    _bKVReadSectorHead                       0x0800613f   Thumb Code    84  b_mod_kv.o(.text._bKVReadSectorHead)
    [Anonymous Symbol]                       0x0800613e   Section        0  b_mod_kv.o(.text._bKVReadSectorHead)
    _bKVSectorDefrag                         0x08006195   Thumb Code   628  b_mod_kv.o(.text._bKVSectorDefrag)
    [Anonymous Symbol]                       0x08006194   Section        0  b_mod_kv.o(.text._bKVSectorDefrag)
    _bKVSetDataState                         0x08006411   Thumb Code   148  b_mod_kv.o(.text._bKVSetDataState)
    [Anonymous Symbol]                       0x08006410   Section        0  b_mod_kv.o(.text._bKVSetDataState)
    _bKVSetSectorFlag                        0x080064a5   Thumb Code    92  b_mod_kv.o(.text._bKVSetSectorFlag)
    [Anonymous Symbol]                       0x080064a4   Section        0  b_mod_kv.o(.text._bKVSetSectorFlag)
    _bKVSetSectorState                       0x08006501   Thumb Code   160  b_mod_kv.o(.text._bKVSetSectorState)
    [Anonymous Symbol]                       0x08006500   Section        0  b_mod_kv.o(.text._bKVSetSectorState)
    _bKeyRead                                0x080065a1   Thumb Code    38  b_drv_key.o(.text._bKeyRead)
    [Anonymous Symbol]                       0x080065a0   Section        0  b_drv_key.o(.text._bKeyRead)
    _bLcdWriteCmd                            0x080065c7   Thumb Code   152  b_drv_st7789.o(.text._bLcdWriteCmd)
    [Anonymous Symbol]                       0x080065c6   Section        0  b_drv_st7789.o(.text._bLcdWriteCmd)
    _bLcdWriteData                           0x0800665f   Thumb Code   152  b_drv_st7789.o(.text._bLcdWriteData)
    [Anonymous Symbol]                       0x0800665e   Section        0  b_drv_st7789.o(.text._bLcdWriteData)
    _bLcdWriteGRam                           0x080066f7   Thumb Code    74  b_drv_st7789.o(.text._bLcdWriteGRam)
    [Anonymous Symbol]                       0x080066f6   Section        0  b_drv_st7789.o(.text._bLcdWriteGRam)
    _bLocalTcpServer                         0x08006741   Thumb Code    56  b_drv_esp12f.o(.text._bLocalTcpServer)
    [Anonymous Symbol]                       0x08006740   Section        0  b_drv_esp12f.o(.text._bLocalTcpServer)
    _bNtpConnCallback                        0x08006779   Thumb Code     2  b_srv_tcpip.o(.text._bNtpConnCallback)
    [Anonymous Symbol]                       0x08006778   Section        0  b_srv_tcpip.o(.text._bNtpConnCallback)
    [Anonymous Symbol]                       0x0800677c   Section        0  b_srv_tcpip.o(.text._bNtpTaskFunc)
    bNtpServer                               0x08006afc   Number         0  b_srv_tcpip.o(.text._bNtpTaskFunc)
    _bPing                                   0x08006b35   Thumb Code    52  b_drv_esp12f.o(.text._bPing)
    [Anonymous Symbol]                       0x08006b34   Section        0  b_drv_esp12f.o(.text._bPing)
    _bRemoteTcpServer                        0x08006b69   Thumb Code    84  b_drv_esp12f.o(.text._bRemoteTcpServer)
    [Anonymous Symbol]                       0x08006b68   Section        0  b_drv_esp12f.o(.text._bRemoteTcpServer)
    _bRemoteUdpServer                        0x08006bbd   Thumb Code    84  b_drv_esp12f.o(.text._bRemoteUdpServer)
    [Anonymous Symbol]                       0x08006bbc   Section        0  b_drv_esp12f.o(.text._bRemoteUdpServer)
    _bSPIFLASH_Close                         0x08006c11   Thumb Code    96  b_drv_spiflash.o(.text._bSPIFLASH_Close)
    [Anonymous Symbol]                       0x08006c10   Section        0  b_drv_spiflash.o(.text._bSPIFLASH_Close)
    _bSPIFLASH_Ctl                           0x08006c71   Thumb Code    62  b_drv_spiflash.o(.text._bSPIFLASH_Ctl)
    [Anonymous Symbol]                       0x08006c70   Section        0  b_drv_spiflash.o(.text._bSPIFLASH_Ctl)
    _bSPIFLASH_Open                          0x08006caf   Thumb Code    96  b_drv_spiflash.o(.text._bSPIFLASH_Open)
    [Anonymous Symbol]                       0x08006cae   Section        0  b_drv_spiflash.o(.text._bSPIFLASH_Open)
    _bSPIFLASH_ReadBuf                       0x08006d0f   Thumb Code    18  b_drv_spiflash.o(.text._bSPIFLASH_ReadBuf)
    [Anonymous Symbol]                       0x08006d0e   Section        0  b_drv_spiflash.o(.text._bSPIFLASH_ReadBuf)
    _bSPIFLASH_WriteBuf                      0x08006d21   Thumb Code    18  b_drv_spiflash.o(.text._bSPIFLASH_WriteBuf)
    [Anonymous Symbol]                       0x08006d20   Section        0  b_drv_spiflash.o(.text._bSPIFLASH_WriteBuf)
    _bSPIFlashSPI_Lock                       0x08006d33   Thumb Code     4  b_drv_spiflash.o(.text._bSPIFlashSPI_Lock)
    [Anonymous Symbol]                       0x08006d32   Section        0  b_drv_spiflash.o(.text._bSPIFlashSPI_Lock)
    _bSPIFlashSPI_Unlock                     0x08006d37   Thumb Code     4  b_drv_spiflash.o(.text._bSPIFlashSPI_Unlock)
    [Anonymous Symbol]                       0x08006d36   Section        0  b_drv_spiflash.o(.text._bSPIFlashSPI_Unlock)
    _bSPIFlashSPI_WR                         0x08006d3b   Thumb Code   290  b_drv_spiflash.o(.text._bSPIFlashSPI_WR)
    [Anonymous Symbol]                       0x08006d3a   Section        0  b_drv_spiflash.o(.text._bSPIFlashSPI_WR)
    _bST7789Ctl                              0x08006e5d   Thumb Code   424  b_drv_st7789.o(.text._bST7789Ctl)
    [Anonymous Symbol]                       0x08006e5c   Section        0  b_drv_st7789.o(.text._bST7789Ctl)
    _bST7789Write                            0x08007005   Thumb Code   120  b_drv_st7789.o(.text._bST7789Write)
    [Anonymous Symbol]                       0x08007004   Section        0  b_drv_st7789.o(.text._bST7789Write)
    _bSetApInfo                              0x0800707d   Thumb Code    80  b_drv_esp12f.o(.text._bSetApInfo)
    [Anonymous Symbol]                       0x0800707c   Section        0  b_drv_esp12f.o(.text._bSetApInfo)
    _bTaskCore                               0x080070cd   Thumb Code    60  b_task.o(.text._bTaskCore)
    [Anonymous Symbol]                       0x080070cc   Section        0  b_task.o(.text._bTaskCore)
    _bTcpUdpSend                             0x08007109   Thumb Code    64  b_drv_esp12f.o(.text._bTcpUdpSend)
    [Anonymous Symbol]                       0x08007108   Section        0  b_drv_esp12f.o(.text._bTcpUdpSend)
    _bTcpipSrvFree                           0x08007149   Thumb Code     4  b_srv_tcpip.o(.text._bTcpipSrvFree)
    [Anonymous Symbol]                       0x08007148   Section        0  b_srv_tcpip.o(.text._bTcpipSrvFree)
    _bTimerCore                              0x0800714d   Thumb Code    84  b_timer.o(.text._bTimerCore)
    [Anonymous Symbol]                       0x0800714c   Section        0  b_timer.o(.text._bTimerCore)
    _bWifiDrvCb                              0x080071a1   Thumb Code   564  b_mod_wifi.o(.text._bWifiDrvCb)
    [Anonymous Symbol]                       0x080071a0   Section        0  b_mod_wifi.o(.text._bWifiDrvCb)
    _bWifiFree                               0x080073db   Thumb Code     4  b_mod_wifi.o(.text._bWifiFree)
    [Anonymous Symbol]                       0x080073da   Section        0  b_mod_wifi.o(.text._bWifiFree)
    _bWifiResult                             0x080073e1   Thumb Code   150  b_mod_wifi.o(.text._bWifiResult)
    [Anonymous Symbol]                       0x080073e0   Section        0  b_mod_wifi.o(.text._bWifiResult)
    _bWifiSetDrvCbArg                        0x08007479   Thumb Code   108  b_mod_wifi.o(.text._bWifiSetDrvCbArg)
    [Anonymous Symbol]                       0x08007478   Section        0  b_mod_wifi.o(.text._bWifiSetDrvCbArg)
    [Anonymous Symbol]                       0x080074e4   Section        0  b_util_at.o(.text.bAtFeedData)
    [Anonymous Symbol]                       0x080075c4   Section        0  b_util_at.o(.text.bAtInit)
    [Anonymous Symbol]                       0x08007644   Section        0  b_util_at.o(.text.bAtSendCmd)
    [Anonymous Symbol]                       0x08007754   Section        0  b_util_at.o(.text.bAtTask)
    [Anonymous Symbol]                       0x08007854   Section        0  b_mod_button.o(.text.bButtonAddKey)
    [Anonymous Symbol]                       0x080078c4   Section        0  b_core.o(.text.bClose)
    [Anonymous Symbol]                       0x080078f8   Section        0  b_mod_wifi.o(.text.bConnect)
    [Anonymous Symbol]                       0x080079a0   Section        0  b_core.o(.text.bCtl)
    [Anonymous Symbol]                       0x080079c0   Section        0  b_device.o(.text.bDeviceClose)
    [Anonymous Symbol]                       0x08007a3c   Section        0  b_device.o(.text.bDeviceCtl)
    [Anonymous Symbol]                       0x08007ab4   Section        0  b_device.o(.text.bDeviceInit)
    [Anonymous Symbol]                       0x08007c68   Section        0  b_device.o(.text.bDeviceOpen)
    [Anonymous Symbol]                       0x08007ce0   Section        0  b_device.o(.text.bDeviceRead)
    [Anonymous Symbol]                       0x08007d5c   Section        0  b_device.o(.text.bDeviceReadMessage)
    [Anonymous Symbol]                       0x08007d80   Section        0  b_device.o(.text.bDeviceWrite)
    [Anonymous Symbol]                       0x08007e04   Section        0  b_device.o(.text.bDeviceWriteMessage)
    [Anonymous Symbol]                       0x08007e28   Section        0  b_drv_esp12f.o(.text.bESP12F_Init)
    [Anonymous Symbol]                       0x08007f10   Section        0  b_drv_esp12f.o(.text.bEsp12fTask)
    [Anonymous Symbol]                       0x080081e0   Section        0  b_core.o(.text.bExec)
    [Anonymous Symbol]                       0x0800820e   Section        0  b_util_fifo.o(.text.bFIFO_Deinit)
    [Anonymous Symbol]                       0x08008224   Section        0  b_util_fifo.o(.text.bFIFO_Init)
    [Anonymous Symbol]                       0x08008244   Section        0  b_util_fifo.o(.text.bFIFO_Length)
    [Anonymous Symbol]                       0x08008268   Section        0  b_util_fifo.o(.text.bFIFO_Read)
    [Anonymous Symbol]                       0x08008300   Section        0  b_util_fifo.o(.text.bFIFO_Write)
    [Anonymous Symbol]                       0x080083a4   Section        0  b_util_memp.o(.text.bFree)
    [Anonymous Symbol]                       0x08008428   Section        0  b_mod_gui.o(.text.bGUIRegist)
    [Anonymous Symbol]                       0x080084ec   Section        0  b_util_memp.o(.text.bGetFreeSize)
    [Anonymous Symbol]                       0x08008540   Section        0  b_hal.o(.text.bHalDelayMs)
    [Anonymous Symbol]                       0x08008568   Section        0  b_hal.o(.text.bHalDelayUs)
    [Anonymous Symbol]                       0x08008586   Section        0  b_hal.o(.text.bHalGetSysTick)
    [Anonymous Symbol]                       0x08008592   Section        0  b_hal.o(.text.bHalGetSysTickPlus)
    [Anonymous Symbol]                       0x080085a8   Section        0  b_hal_gpio.o(.text.bHalGpioConfig)
    [Anonymous Symbol]                       0x080085ac   Section        0  b_hal_gpio.o(.text.bHalGpioReadPin)
    [Anonymous Symbol]                       0x080085b0   Section        0  b_hal_gpio.o(.text.bHalGpioReadPort)
    [Anonymous Symbol]                       0x080085b4   Section        0  b_hal_gpio.o(.text.bHalGpioWritePin)
    [Anonymous Symbol]                       0x080085b8   Section        0  b_hal_gpio.o(.text.bHalGpioWritePort)
    [Anonymous Symbol]                       0x080085bc   Section        0  b_hal.o(.text.bHalIncSysTick)
    [Anonymous Symbol]                       0x080085e0   Section        0  b_hal.o(.text.bHalInit)
    [Anonymous Symbol]                       0x08008668   Section        0  b_hal_it.o(.text.bHalIntDisable)
    [Anonymous Symbol]                       0x0800866c   Section        0  b_hal_it.o(.text.bHalIntEnable)
    [Anonymous Symbol]                       0x08008670   Section        0  b_hal_it.o(.text.bHalItInvoke)
    [Anonymous Symbol]                       0x080086b2   Section        0  b_hal_it.o(.text.bHalItRegister)
    [Anonymous Symbol]                       0x080086d6   Section        0  b_hal_qspi.o(.text.bHalQSPIReceiveData)
    [Anonymous Symbol]                       0x080086e6   Section        0  b_hal_qspi.o(.text.bHalQSPISendCmd)
    [Anonymous Symbol]                       0x080086f6   Section        0  b_hal_qspi.o(.text.bHalQSPITransmitData)
    [Anonymous Symbol]                       0x08008708   Section        0  b_hal_spi.o(.text.bHalSpiReceive)
    [Anonymous Symbol]                       0x08008748   Section        0  b_hal_spi.o(.text.bHalSpiSend)
    [Anonymous Symbol]                       0x08008784   Section        0  b_hal_spi.o(.text.bHalSpiTransfer)
    [Anonymous Symbol]                       0x08008884   Section        0  b_hal_uart.o(.text.bHalUartReceiveIdle)
    [Anonymous Symbol]                       0x080088ec   Section        0  b_hal_uart.o(.text.bHalUartSend)
    [Anonymous Symbol]                       0x080088f0   Section        0  b_hal.o(.text.bHalUserInit)
    [Anonymous Symbol]                       0x080088f4   Section        0  b_srv_tcpip.o(.text.bHttpInit)
    [Anonymous Symbol]                       0x0800899c   Section        0  b_srv_tcpip.o(.text.bHttpRequest)
    [Anonymous Symbol]                       0x08008cb8   Section        0  b_core.o(.text.bInit)
    [Anonymous Symbol]                       0x08008e7c   Section        0  b_drv_key.o(.text.bKEY_Init)
    [Anonymous Symbol]                       0x08008ebc   Section        0  b_mod_kv.o(.text.bKVGetValue)
    [Anonymous Symbol]                       0x080090d0   Section        0  b_mod_kv.o(.text.bKVInit)
    [Anonymous Symbol]                       0x08009314   Section        0  b_mod_kv.o(.text.bKVSetValue)
    [Anonymous Symbol]                       0x080099d8   Section        0  b_util_log.o(.text.bLogOut)
    bLogParamTable                           0x08009acc   Number         0  b_util_log.o(.text.bLogOut)
    bLogPrefix                               0x08009ad0   Number         0  b_util_log.o(.text.bLogOut)
    [Anonymous Symbol]                       0x08009ad8   Section        0  b_core.o(.text.bLseek)
    [Anonymous Symbol]                       0x08009afc   Section        0  b_util_memp.o(.text.bMalloc)
    [Anonymous Symbol]                       0x08009c14   Section        0  b_util_memp.o(.text.bMallocFailedHook)
    [Anonymous Symbol]                       0x08009c16   Section        0  mcu_stm32l41x_gpio.o(.text.bMcuGpioConfig)
    [Anonymous Symbol]                       0x08009cc6   Section        0  mcu_stm32l41x_gpio.o(.text.bMcuGpioReadPin)
    [Anonymous Symbol]                       0x08009cec   Section        0  mcu_stm32l41x_gpio.o(.text.bMcuGpioReadPort)
    [Anonymous Symbol]                       0x08009d02   Section        0  mcu_stm32l41x_gpio.o(.text.bMcuGpioWritePin)
    [Anonymous Symbol]                       0x08009d2c   Section        0  mcu_stm32l41x_gpio.o(.text.bMcuGpioWritePort)
    [Anonymous Symbol]                       0x08009d3e   Section        0  mcu_stm32l41x_it.o(.text.bMcuIntDisable)
    [Anonymous Symbol]                       0x08009d46   Section        0  mcu_stm32l41x_it.o(.text.bMcuIntEnable)
    [Anonymous Symbol]                       0x08009d4c   Section        0  mcu_stm32l41x_qspi.o(.text.bMcuQSPIReceiveData)
    [Anonymous Symbol]                       0x08009dc0   Section        0  mcu_stm32l41x_qspi.o(.text.bMcuQSPISendCmd)
    [Anonymous Symbol]                       0x08009e98   Section        0  mcu_stm32l41x_qspi.o(.text.bMcuQSPITransmitData)
    [Anonymous Symbol]                       0x08009f04   Section        0  mcu_stm32l41x_spi.o(.text.bMcuSpiReceive)
    [Anonymous Symbol]                       0x08009f2c   Section        0  mcu_stm32l41x_spi.o(.text.bMcuSpiSend)
    [Anonymous Symbol]                       0x08009f84   Section        0  mcu_stm32l41x_spi.o(.text.bMcuSpiTransfer)
    [Anonymous Symbol]                       0x08009fc8   Section        0  mcu_stm32l41x_uart.o(.text.bMcuUartSend)
    [Anonymous Symbol]                       0x0800a05a   Section        0  b_mod_link.o(.text.bNetlinkInit)
    [Anonymous Symbol]                       0x0800a060   Section        0  b_core.o(.text.bOpen)
    [Anonymous Symbol]                       0x0800a0ec   Section        0  b_core.o(.text.bRead)
    [Anonymous Symbol]                       0x0800a13e   Section        0  b_util_memp.o(.text.bRealloc)
    [Anonymous Symbol]                       0x0800a1aa   Section        0  b_mod_wifi.o(.text.bRecv)
    [Anonymous Symbol]                       0x0800a1f8   Section        0  b_drv_spiflash.o(.text.bSPIFLASH_Init)
    [Anonymous Symbol]                       0x0800a2b8   Section        0  b_drv_st7789.o(.text.bST7789_Init)
    [Anonymous Symbol]                       0x0800a580   Section        0  b_mod_wifi.o(.text.bSend)
    [Anonymous Symbol]                       0x0800a5f4   Section        0  b_mod_wifi.o(.text.bShutdown)
    [Anonymous Symbol]                       0x0800a6b0   Section        0  b_srv_tcpip.o(.text.bSntpStart)
    [Anonymous Symbol]                       0x0800a6fc   Section        0  b_mod_wifi.o(.text.bSockIsReadable)
    [Anonymous Symbol]                       0x0800a706   Section        0  b_mod_wifi.o(.text.bSockIsWriteable)
    [Anonymous Symbol]                       0x0800a710   Section        0  b_mod_wifi.o(.text.bSocket)
    [Anonymous Symbol]                       0x0800a784   Section        0  b_task.o(.text.bTaskCreate)
    [Anonymous Symbol]                       0x0800a7ec   Section        0  b_task.o(.text.bTaskRemove)
    [Anonymous Symbol]                       0x0800a812   Section        0  b_srv_tcpip.o(.text.bTcpipSrvInit)
    [Anonymous Symbol]                       0x0800a818   Section        0  b_util_utc.o(.text.bUTC2Struct)
    [Anonymous Symbol]                       0x0800aa28   Section        0  b_util_utc.o(.text.bUTC_GetTime)
    [Anonymous Symbol]                       0x0800aa5a   Section        0  b_util_utc.o(.text.bUTC_SetTime)
    [Anonymous Symbol]                       0x0800aa7a   Section        0  b_mod_wifi.o(.text.bWifiApConfigNet)
    [Anonymous Symbol]                       0x0800ab2c   Section        0  b_mod_wifi.o(.text.bWifiConnTcp)
    [Anonymous Symbol]                       0x0800ab9e   Section        0  b_mod_wifi.o(.text.bWifiConnUdp)
    [Anonymous Symbol]                       0x0800ac10   Section        0  b_mod_wifi.o(.text.bWifiDisconn)
    [Anonymous Symbol]                       0x0800acd0   Section        0  b_mod_wifi.o(.text.bWifiInit)
    [Anonymous Symbol]                       0x0800ad20   Section        0  b_mod_wifi.o(.text.bWifiJoinAp)
    [Anonymous Symbol]                       0x0800adca   Section        0  b_mod_wifi.o(.text.bWifiSend)
    [Anonymous Symbol]                       0x0800ae8c   Section        0  main.o(.text.bWifiTest)
    [Anonymous Symbol]                       0x0800aedc   Section        0  b_core.o(.text.bWrite)
    buffer_skip_whitespace                   0x0800af2d   Thumb Code    50  cjson.o(.text.buffer_skip_whitespace)
    [Anonymous Symbol]                       0x0800af2c   Section        0  cjson.o(.text.buffer_skip_whitespace)
    [Anonymous Symbol]                       0x0800af60   Section        0  cjson.o(.text.cJSON_Delete)
    [Anonymous Symbol]                       0x0800afac   Section        0  cjson.o(.text.cJSON_GetArrayItem)
    [Anonymous Symbol]                       0x0800afd8   Section        0  cjson.o(.text.cJSON_GetObjectItem)
    [Anonymous Symbol]                       0x0800afde   Section        0  cjson.o(.text.cJSON_IsString)
    [Anonymous Symbol]                       0x0800aff2   Section        0  cjson.o(.text.cJSON_Parse)
    [Anonymous Symbol]                       0x0800affc   Section        0  cjson.o(.text.cJSON_ParseWithLengthOpts)
    [Anonymous Symbol]                       0x0800b100   Section        0  cjson.o(.text.cJSON_ParseWithOpts)
    [Anonymous Symbol]                       0x0800b124   Section        0  algo_crc.o(.text.crc_calculate)
    [Anonymous Symbol]                       0x0800b18e   Section        0  flexible_button.o(.text.flex_button_reg_function)
    [Anonymous Symbol]                       0x0800b1b8   Section        0  flexible_button.o(.text.flex_button_register)
    [Anonymous Symbol]                       0x0800b244   Section        0  flexible_button.o(.text.flex_button_scan)
    get_object_item                          0x0800b4c9   Thumb Code   154  cjson.o(.text.get_object_item)
    [Anonymous Symbol]                       0x0800b4c8   Section        0  cjson.o(.text.get_object_item)
    [Anonymous Symbol]                       0x0800b562   Section        0  http_parser.o(.text.http_message_needs_eof)
    [Anonymous Symbol]                       0x0800b5bc   Section        0  http_parser.o(.text.http_parser_execute)
    [Anonymous Symbol]                       0x0800dac0   Section        0  http_parser.o(.text.http_parser_init)
    [Anonymous Symbol]                       0x0800daf2   Section        0  http_parser.o(.text.http_parser_settings_init)
    [Anonymous Symbol]                       0x0800dafc   Section        0  http_parser.o(.text.http_should_keep_alive)
    internal_free                            0x0800db23   Thumb Code     4  cjson.o(.text.internal_free)
    [Anonymous Symbol]                       0x0800db22   Section        0  cjson.o(.text.internal_free)
    internal_malloc                          0x0800db27   Thumb Code     4  cjson.o(.text.internal_malloc)
    [Anonymous Symbol]                       0x0800db26   Section        0  cjson.o(.text.internal_malloc)
    internal_realloc                         0x0800db2b   Thumb Code     4  cjson.o(.text.internal_realloc)
    [Anonymous Symbol]                       0x0800db2a   Section        0  cjson.o(.text.internal_realloc)
    [Anonymous Symbol]                       0x0800db30   Section        0  main.o(.text.main)
    [Anonymous Symbol]                       0x0800de60   Section        0  b_srv_tcpip.o(.text.on_message_complete)
    page256_or_1_byte_write                  0x0800de6d   Thumb Code   696  sfud.o(.text.page256_or_1_byte_write)
    [Anonymous Symbol]                       0x0800de6c   Section        0  sfud.o(.text.page256_or_1_byte_write)
    parse_hex4                               0x0800e12d   Thumb Code    82  cjson.o(.text.parse_hex4)
    [Anonymous Symbol]                       0x0800e12c   Section        0  cjson.o(.text.parse_hex4)
    parse_string                             0x0800e181   Thumb Code   516  cjson.o(.text.parse_string)
    [Anonymous Symbol]                       0x0800e180   Section        0  cjson.o(.text.parse_string)
    parse_url_char                           0x0800e38d   Thumb Code   428  http_parser.o(.text.parse_url_char)
    [Anonymous Symbol]                       0x0800e38c   Section        0  http_parser.o(.text.parse_url_char)
    parse_value                              0x0800e539   Thumb Code   880  cjson.o(.text.parse_value)
    [Anonymous Symbol]                       0x0800e538   Section        0  cjson.o(.text.parse_value)
    read_sfdp_data                           0x0800e8b9   Thumb Code   428  sfud_sfdp.o(.text.read_sfdp_data)
    [Anonymous Symbol]                       0x0800e8b8   Section        0  sfud_sfdp.o(.text.read_sfdp_data)
    set_write_enabled                        0x0800ea65   Thumb Code   284  sfud.o(.text.set_write_enabled)
    [Anonymous Symbol]                       0x0800ea64   Section        0  sfud.o(.text.set_write_enabled)
    [Anonymous Symbol]                       0x0800eb80   Section        0  sfud.o(.text.sfud_chip_erase)
    [Anonymous Symbol]                       0x0800ed1c   Section        0  sfud.o(.text.sfud_device_init)
    [Anonymous Symbol]                       0x0800f2b4   Section        0  sfud.o(.text.sfud_erase)
    [Anonymous Symbol]                       0x0800f524   Section        0  sfud.o(.text.sfud_read)
    [Anonymous Symbol]                       0x0800f6f4   Section        0  sfud_sfdp.o(.text.sfud_read_sfdp)
    [Anonymous Symbol]                       0x0800ff7c   Section        0  sfud_sfdp.o(.text.sfud_sfdp_get_suitable_eraser)
    [Anonymous Symbol]                       0x08010020   Section        0  sfud.o(.text.sfud_write)
    [Anonymous Symbol]                       0x08010270   Section        0  sfud.o(.text.sfud_write_status)
    wait_busy                                0x08010389   Thumb Code   280  sfud.o(.text.wait_busy)
    [Anonymous Symbol]                       0x08010388   Section        0  sfud.o(.text.wait_busy)
    i.__0snprintf                            0x080104a8   Section        0  printfa.o(i.__0snprintf)
    i.__0sprintf                             0x080104dc   Section        0  printfa.o(i.__0sprintf)
    i.__0vsnprintf                           0x08010504   Section        0  printfa.o(i.__0vsnprintf)
    i.__aeabi_errno_addr                     0x08010538   Section        0  errno.o(i.__aeabi_errno_addr)
    i.__hardfp_strtod                        0x08010540   Section        0  strtod.o(i.__hardfp_strtod)
    i.__scatterload_copy                     0x08010568   Section       14  handlers.o(i.__scatterload_copy)
    i.__scatterload_null                     0x08010576   Section        2  handlers.o(i.__scatterload_null)
    i.__scatterload_zeroinit                 0x08010578   Section       14  handlers.o(i.__scatterload_zeroinit)
    _fp_digits                               0x08010589   Thumb Code   366  printfa.o(i._fp_digits)
    i._fp_digits                             0x08010588   Section        0  printfa.o(i._fp_digits)
    i._is_digit                              0x08010712   Section        0  scanf_fp.o(i._is_digit)
    _printf_core                             0x08010721   Thumb Code  1744  printfa.o(i._printf_core)
    i._printf_core                           0x08010720   Section        0  printfa.o(i._printf_core)
    _printf_post_padding                     0x08010e03   Thumb Code    36  printfa.o(i._printf_post_padding)
    i._printf_post_padding                   0x08010e02   Section        0  printfa.o(i._printf_post_padding)
    _printf_pre_padding                      0x08010e27   Thumb Code    46  printfa.o(i._printf_pre_padding)
    i._printf_pre_padding                    0x08010e26   Section        0  printfa.o(i._printf_pre_padding)
    _snputc                                  0x08010e55   Thumb Code    22  printfa.o(i._snputc)
    i._snputc                                0x08010e54   Section        0  printfa.o(i._snputc)
    _sputc                                   0x08010e6b   Thumb Code    10  printfa.o(i._sputc)
    i._sputc                                 0x08010e6a   Section        0  printfa.o(i._sputc)
    .constdata                               0x08010e74   Section      129  ctype_o.o(.constdata)
    table                                    0x08010ef8   Data           4  ctype_o.o(.constdata)
    .constdata                               0x08010ef8   Section        4  ctype_o.o(.constdata)
    .L__const._bUTC_CalendarMonthDays.table  0x08010efc   Data           7  b_util_utc.o(.rodata..L__const._bUTC_CalendarMonthDays.table)
    .Lswitch.table.crc_calculate_sbs         0x08010f04   Data          52  algo_crc.o(.rodata..Lswitch.table.crc_calculate_sbs)
    SpiTable                                 0x08010f94   Data          12  mcu_stm32l41x_spi.o(.rodata.SpiTable)
    [Anonymous Symbol]                       0x08010f94   Section        0  mcu_stm32l41x_spi.o(.rodata.SpiTable)
    bDeviceDescTable                         0x08010fa0   Data          20  b_device.o(.rodata.bDeviceDescTable)
    [Anonymous Symbol]                       0x08010fa0   Section        0  b_device.o(.rodata.bDeviceDescTable)
    bDriverNumberTable                       0x08010fb4   Data           5  b_device.o(.rodata.bDriverNumberTable)
    [Anonymous Symbol]                       0x08010fb4   Section        0  b_device.o(.rodata.bDriverNumberTable)
    bEsp12fCtlEvent                          0x08010fb9   Data          24  b_drv_esp12f.o(.rodata.bEsp12fCtlEvent)
    [Anonymous Symbol]                       0x08010fb9   Section        0  b_drv_esp12f.o(.rodata.bEsp12fCtlEvent)
    bEspCmdApMode                            0x08010fd4   Data          48  b_drv_esp12f.o(.rodata.bEspCmdApMode)
    [Anonymous Symbol]                       0x08010fd4   Section        0  b_drv_esp12f.o(.rodata.bEspCmdApMode)
    bEspCmdApStaMode                         0x08011004   Data          48  b_drv_esp12f.o(.rodata.bEspCmdApStaMode)
    [Anonymous Symbol]                       0x08011004   Section        0  b_drv_esp12f.o(.rodata.bEspCmdApStaMode)
    bEspCmdCloseTcpUdp                       0x08011034   Data          16  b_drv_esp12f.o(.rodata.bEspCmdCloseTcpUdp)
    [Anonymous Symbol]                       0x08011034   Section        0  b_drv_esp12f.o(.rodata.bEspCmdCloseTcpUdp)
    bEspCmdInit                              0x08011044   Data          32  b_drv_esp12f.o(.rodata.bEspCmdInit)
    [Anonymous Symbol]                       0x08011044   Section        0  b_drv_esp12f.o(.rodata.bEspCmdInit)
    bEspCmdJoinAp                            0x08011064   Data          16  b_drv_esp12f.o(.rodata.bEspCmdJoinAp)
    [Anonymous Symbol]                       0x08011064   Section        0  b_drv_esp12f.o(.rodata.bEspCmdJoinAp)
    bEspCmdLocalTcpServer                    0x08011074   Data          16  b_drv_esp12f.o(.rodata.bEspCmdLocalTcpServer)
    [Anonymous Symbol]                       0x08011074   Section        0  b_drv_esp12f.o(.rodata.bEspCmdLocalTcpServer)
    bEspCmdPing                              0x08011084   Data          16  b_drv_esp12f.o(.rodata.bEspCmdPing)
    [Anonymous Symbol]                       0x08011084   Section        0  b_drv_esp12f.o(.rodata.bEspCmdPing)
    bEspCmdRemotTcpServer                    0x08011094   Data          16  b_drv_esp12f.o(.rodata.bEspCmdRemotTcpServer)
    [Anonymous Symbol]                       0x08011094   Section        0  b_drv_esp12f.o(.rodata.bEspCmdRemotTcpServer)
    bEspCmdRemotUdpServer                    0x080110a4   Data          16  b_drv_esp12f.o(.rodata.bEspCmdRemotUdpServer)
    [Anonymous Symbol]                       0x080110a4   Section        0  b_drv_esp12f.o(.rodata.bEspCmdRemotUdpServer)
    bEspCmdSendData                          0x080110b4   Data          16  b_drv_esp12f.o(.rodata.bEspCmdSendData)
    [Anonymous Symbol]                       0x080110b4   Section        0  b_drv_esp12f.o(.rodata.bEspCmdSendData)
    bEspCmdStaMode                           0x080110c4   Data          32  b_drv_esp12f.o(.rodata.bEspCmdStaMode)
    [Anonymous Symbol]                       0x080110c4   Section        0  b_drv_esp12f.o(.rodata.bEspCmdStaMode)
    bHalIf_ESP12F                            0x080110e4   Data           1  b_drv_esp12f.o(.rodata.bHalIf_ESP12F)
    [Anonymous Symbol]                       0x080110e4   Section        0  b_drv_esp12f.o(.rodata.bHalIf_ESP12F)
    bHalIf_KEY                               0x080110e5   Data           6  b_drv_key.o(.rodata.bHalIf_KEY)
    [Anonymous Symbol]                       0x080110e5   Section        0  b_drv_key.o(.rodata.bHalIf_KEY)
    bHalIf_SPIFLASH                          0x080110eb   Data          12  b_drv_spiflash.o(.rodata.bHalIf_SPIFLASH)
    [Anonymous Symbol]                       0x080110eb   Section        0  b_drv_spiflash.o(.rodata.bHalIf_SPIFLASH)
    bHalIf_ST7789                            0x080110f8   Data          20  b_drv_st7789.o(.rodata.bHalIf_ST7789)
    [Anonymous Symbol]                       0x080110f8   Section        0  b_drv_st7789.o(.rodata.bHalIf_ST7789)
    .Lswitch.table.UART_SetConfig.3          0x0801110c   Data          16  stm32l4xx_hal_uart.o(.rodata.cst16)
    UartTable                                0x0801111c   Data          16  mcu_stm32l41x_uart.o(.rodata.cst16)
    normal_url_char                          0x0801112c   Data          32  http_parser.o(.rodata.cst32)
    flash_chip_table                         0x0801114c   Data         504  sfud.o(.rodata.flash_chip_table)
    [Anonymous Symbol]                       0x0801114c   Section        0  sfud.o(.rodata.flash_chip_table)
    method_strings                           0x08013344   Data         136  http_parser.o(.rodata.method_strings)
    [Anonymous Symbol]                       0x08013344   Section        0  http_parser.o(.rodata.method_strings)
    mf_table                                 0x080133cc   Data         128  sfud.o(.rodata.mf_table)
    [Anonymous Symbol]                       0x080133cc   Section        0  sfud.o(.rodata.mf_table)
    .L.str.7                                 0x08013464   Data          96  main.o(.rodata.str1.1)
    [Anonymous Symbol]                       0x08013464   Section        0  main.o(.rodata.str1.1)
    .L.str.12                                0x080134c4   Data           8  main.o(.rodata.str1.1)
    .L.str.8                                 0x080134cc   Data          11  main.o(.rodata.str1.1)
    .L.str.9                                 0x080134d7   Data           5  main.o(.rodata.str1.1)
    .L.str.19                                0x080134dc   Data           7  main.o(.rodata.str1.1)
    .L.str.7                                 0x080134e3   Data          49  b_core.o(.rodata.str1.1)
    [Anonymous Symbol]                       0x080134e3   Section        0  b_core.o(.rodata.str1.1)
    .L.str.5                                 0x08013514   Data          49  b_core.o(.rodata.str1.1)
    .L.str.2                                 0x08013545   Data          49  b_core.o(.rodata.str1.1)
    .L.str.4                                 0x08013576   Data          49  b_core.o(.rodata.str1.1)
    .L.str.3                                 0x080135a7   Data          49  b_core.o(.rodata.str1.1)
    .L.str.6                                 0x080135d8   Data          49  b_core.o(.rodata.str1.1)
    .L.str.1                                 0x08013609   Data          49  b_core.o(.rodata.str1.1)
    .L.str                                   0x0801363a   Data          34  b_core.o(.rodata.str1.1)
    .L__func__.bInit                         0x0801365c   Data           6  b_core.o(.rodata.str1.1)
    .L.str.3                                 0x08013662   Data          14  b_device.o(.rodata.str1.1)
    [Anonymous Symbol]                       0x08013662   Section        0  b_device.o(.rodata.str1.1)
    .L.str.6                                 0x08013670   Data           9  b_device.o(.rodata.str1.1)
    .L.str.10                                0x08013679   Data           7  b_device.o(.rodata.str1.1)
    .L.str.11                                0x08013680   Data           9  b_device.o(.rodata.str1.1)
    .L.str                                   0x08013689   Data          36  b_device.o(.rodata.str1.1)
    .L.str.9                                 0x080136ad   Data           5  b_device.o(.rodata.str1.1)
    .L.str.2                                 0x080136b2   Data           5  b_device.o(.rodata.str1.1)
    .L.str.8                                 0x080136b2   Data           5  b_device.o(.rodata.str1.1)
    .L.str.12                                0x080136b7   Data           4  b_device.o(.rodata.str1.1)
    .L__func__.bDeviceInit                   0x080136bb   Data          12  b_device.o(.rodata.str1.1)
    .L.str.11                                0x080136c7   Data          15  b_drv_esp12f.o(.rodata.str1.1)
    [Anonymous Symbol]                       0x080136c7   Section        0  b_drv_esp12f.o(.rodata.str1.1)
    .L.str.6                                 0x080136d6   Data           7  b_drv_esp12f.o(.rodata.str1.1)
    .L.str.12                                0x080136dd   Data          14  b_drv_esp12f.o(.rodata.str1.1)
    .L.str.13                                0x080136eb   Data          14  b_drv_esp12f.o(.rodata.str1.1)
    .L.str.14                                0x080136f9   Data          14  b_drv_esp12f.o(.rodata.str1.1)
    .L.str.16                                0x08013707   Data          14  b_drv_esp12f.o(.rodata.str1.1)
    .L.str.5                                 0x08013715   Data           5  b_drv_esp12f.o(.rodata.str1.1)
    .L.str.1                                 0x0801371a   Data           9  b_drv_esp12f.o(.rodata.str1.1)
    .L.str.31                                0x08013723   Data           7  b_drv_esp12f.o(.rodata.str1.1)
    .L.str.2                                 0x08013727   Data           3  b_drv_esp12f.o(.rodata.str1.1)
    .L.str.3                                 0x08013727   Data           3  b_drv_esp12f.o(.rodata.str1.1)
    .L.str.23                                0x0801372a   Data           2  b_drv_esp12f.o(.rodata.str1.1)
    .L.str.2                                 0x0801372c   Data           3  b_drv_esp12f.o(.rodata.str1.1)
    .L__func__._bAtSendData                  0x0801372f   Data          13  b_drv_esp12f.o(.rodata.str1.1)
    .L__func__._bAtNewDataCb                 0x0801373c   Data          14  b_drv_esp12f.o(.rodata.str1.1)
    .L.str.3                                 0x0801374a   Data          43  b_drv_esp12f.o(.rodata.str1.1)
    .L__func__._bESP12FCtl                   0x08013775   Data          12  b_drv_esp12f.o(.rodata.str1.1)
    .L.str.18                                0x08013781   Data          93  sfud.o(.rodata.str1.1)
    [Anonymous Symbol]                       0x08013781   Section        0  sfud.o(.rodata.str1.1)
    .L.str.62                                0x080137de   Data          41  sfud.o(.rodata.str1.1)
    .L.str.57                                0x08013807   Data          34  sfud.o(.rodata.str1.1)
    .L.str.8                                 0x08013829   Data          38  sfud.o(.rodata.str1.1)
    .L.str.3                                 0x0801384f   Data          43  sfud.o(.rodata.str1.1)
    .L.str.64                                0x0801387a   Data          42  sfud.o(.rodata.str1.1)
    .L__func__.sfud_read_status              0x0801388d   Data          17  sfud.o(.rodata.str1.1)
    .L.str.1                                 0x080138a4   Data          30  sfud.o(.rodata.str1.1)
    .L.str.4                                 0x080138a4   Data          30  sfud.o(.rodata.str1.1)
    .L.str.16                                0x080138c2   Data          41  sfud.o(.rodata.str1.1)
    .L.str.59                                0x080138eb   Data          35  sfud.o(.rodata.str1.1)
    .L.str.1                                 0x0801390e   Data          39  sfud.o(.rodata.str1.1)
    .L.str.58                                0x08013935   Data          28  sfud.o(.rodata.str1.1)
    .L.str.14                                0x08013951   Data          56  sfud.o(.rodata.str1.1)
    .L.str.32                                0x08013989   Data           7  sfud.o(.rodata.str1.1)
    .L.str.38                                0x08013990   Data           8  sfud.o(.rodata.str1.1)
    .L.str.31                                0x08013998   Data           7  sfud.o(.rodata.str1.1)
    .L.str.30                                0x0801399f   Data           7  sfud.o(.rodata.str1.1)
    .L.str.39                                0x080139a6   Data           8  sfud.o(.rodata.str1.1)
    .L.str.28                                0x080139ae   Data          12  sfud.o(.rodata.str1.1)
    .L.str.33                                0x080139ba   Data           9  sfud.o(.rodata.str1.1)
    .L.str.34                                0x080139c3   Data           9  sfud.o(.rodata.str1.1)
    .L.str.40                                0x080139cc   Data          12  sfud.o(.rodata.str1.1)
    .L.str.29                                0x080139d8   Data          12  sfud.o(.rodata.str1.1)
    .L.str.35                                0x080139e4   Data           9  sfud.o(.rodata.str1.1)
    .L.str.46                                0x080139ed   Data           5  sfud.o(.rodata.str1.1)
    .L.str.20                                0x080139f2   Data          11  sfud.o(.rodata.str1.1)
    .L.str.54                                0x080139fd   Data           5  sfud.o(.rodata.str1.1)
    .L.str.36                                0x08013a02   Data          10  sfud.o(.rodata.str1.1)
    .L.str.43                                0x08013a0c   Data           4  sfud.o(.rodata.str1.1)
    .L.str.37                                0x08013a10   Data          10  sfud.o(.rodata.str1.1)
    .L.str.49                                0x08013a1a   Data           5  sfud.o(.rodata.str1.1)
    .L.str.52                                0x08013a1f   Data           4  sfud.o(.rodata.str1.1)
    .L.str.21                                0x08013a23   Data           9  sfud.o(.rodata.str1.1)
    .L.str.24                                0x08013a2c   Data           9  sfud.o(.rodata.str1.1)
    .L.str.25                                0x08013a35   Data           9  sfud.o(.rodata.str1.1)
    .L.str.23                                0x08013a3e   Data           9  sfud.o(.rodata.str1.1)
    .L.str.22                                0x08013a47   Data           9  sfud.o(.rodata.str1.1)
    .L.str.26                                0x08013a50   Data          10  sfud.o(.rodata.str1.1)
    .L.str.27                                0x08013a5a   Data          10  sfud.o(.rodata.str1.1)
    .L.str                                   0x08013a64   Data          40  sfud.o(.rodata.str1.1)
    .L__func__.sfud_read                     0x08013a8c   Data          10  sfud.o(.rodata.str1.1)
    .L__func__.set_write_enabled             0x08013a96   Data          18  sfud.o(.rodata.str1.1)
    .L__func__.read_jedec_id                 0x08013aa8   Data          14  sfud.o(.rodata.str1.1)
    .L.str.55                                0x08013ab6   Data           8  sfud.o(.rodata.str1.1)
    .L.str.53                                0x08013abe   Data          11  sfud.o(.rodata.str1.1)
    .L__func__.set_4_byte_address_mode       0x08013ac9   Data          24  sfud.o(.rodata.str1.1)
    .L__func__.sfud_erase                    0x08013ae1   Data          11  sfud.o(.rodata.str1.1)
    .L__func__.sfud_chip_erase               0x08013aec   Data          16  sfud.o(.rodata.str1.1)
    .L__func__.page256_or_1_byte_write       0x08013afc   Data          24  sfud.o(.rodata.str1.1)
    .L__func__.aai_write                     0x08013b14   Data          10  sfud.o(.rodata.str1.1)
    .L.str.2                                 0x08013b1e   Data           6  sfud.o(.rodata.str1.1)
    .L.str.5                                 0x08013b1e   Data           6  sfud.o(.rodata.str1.1)
    .L.str.51                                0x08013b24   Data           8  sfud.o(.rodata.str1.1)
    .L.str.7                                 0x08013b2c   Data          15  sfud.o(.rodata.str1.1)
    .L.str.44                                0x08013b3b   Data           6  sfud.o(.rodata.str1.1)
    .L.str.48                                0x08013b41   Data           6  sfud.o(.rodata.str1.1)
    .L.str.50                                0x08013b47   Data           6  sfud.o(.rodata.str1.1)
    .L.str.45                                0x08013b4d   Data           7  sfud.o(.rodata.str1.1)
    .L.str.47                                0x08013b54   Data           6  sfud.o(.rodata.str1.1)
    .L.str.60                                0x08013b5a   Data           6  sfud.o(.rodata.str1.1)
    .L.str.13                                0x08013b60   Data          14  sfud.o(.rodata.str1.1)
    .L.str.41                                0x08013b6e   Data           8  sfud.o(.rodata.str1.1)
    .L__func__.sfud_write_status             0x08013b76   Data          18  sfud.o(.rodata.str1.1)
    .L__func__.reset                         0x08013b88   Data           6  sfud.o(.rodata.str1.1)
    .L__func__.sfud_device_init              0x08013b8e   Data          17  sfud.o(.rodata.str1.1)
    .L__func__.hardware_init                 0x08013b9f   Data          14  sfud.o(.rodata.str1.1)
    .L.str.42                                0x08013bad   Data           8  sfud.o(.rodata.str1.1)
    .L.str.56                                0x08013bb5   Data           9  sfud.o(.rodata.str1.1)
    .L__func__.wait_busy                     0x08013bbe   Data          10  sfud.o(.rodata.str1.1)
    .L.str.34                                0x08013bc8   Data          33  sfud_sfdp.o(.rodata.str1.1)
    [Anonymous Symbol]                       0x08013bc8   Section        0  sfud_sfdp.o(.rodata.str1.1)
    .L.str.7                                 0x08013be9   Data          76  sfud_sfdp.o(.rodata.str1.1)
    .L.str.4                                 0x08013c35   Data          90  sfud_sfdp.o(.rodata.str1.1)
    .L.str.22                                0x08013c8f   Data          66  sfud_sfdp.o(.rodata.str1.1)
    .L.str.37                                0x08013cd1   Data          60  sfud_sfdp.o(.rodata.str1.1)
    .L.str.17                                0x08013d0d   Data         139  sfud_sfdp.o(.rodata.str1.1)
    .L.str.35                                0x08013d98   Data          69  sfud_sfdp.o(.rodata.str1.1)
    .L.str.8                                 0x08013ddd   Data          53  sfud_sfdp.o(.rodata.str1.1)
    .L.str.15                                0x08013e12   Data          83  sfud_sfdp.o(.rodata.str1.1)
    .L.str.23                                0x08013e65   Data          51  sfud_sfdp.o(.rodata.str1.1)
    .L.str.18                                0x08013e98   Data          55  sfud_sfdp.o(.rodata.str1.1)
    .L.str.28                                0x08013ecf   Data          68  sfud_sfdp.o(.rodata.str1.1)
    .L.str.27                                0x08013f13   Data          46  sfud_sfdp.o(.rodata.str1.1)
    .L.str.25                                0x08013f41   Data          29  sfud_sfdp.o(.rodata.str1.1)
    .L.str.32                                0x08013f5e   Data          25  sfud_sfdp.o(.rodata.str1.1)
    .L.str.31                                0x08013f77   Data          24  sfud_sfdp.o(.rodata.str1.1)
    .L.str.33                                0x08013f8f   Data          24  sfud_sfdp.o(.rodata.str1.1)
    .L.str.14                                0x08013fa7   Data          54  sfud_sfdp.o(.rodata.str1.1)
    .L.str.26                                0x08013fdd   Data          41  sfud_sfdp.o(.rodata.str1.1)
    .L.str.29                                0x08014006   Data         119  sfud_sfdp.o(.rodata.str1.1)
    .L.str.30                                0x0801407d   Data         119  sfud_sfdp.o(.rodata.str1.1)
    .L.str.16                                0x080140f4   Data          71  sfud_sfdp.o(.rodata.str1.1)
    .L.str.24                                0x0801413b   Data          55  sfud_sfdp.o(.rodata.str1.1)
    .L.str.36                                0x08014172   Data          23  sfud_sfdp.o(.rodata.str1.1)
    .L.str.19                                0x08014189   Data          40  sfud_sfdp.o(.rodata.str1.1)
    .L.str.21                                0x080141b1   Data          35  sfud_sfdp.o(.rodata.str1.1)
    .L__func__.read_sfdp_data                0x080141d4   Data          15  sfud_sfdp.o(.rodata.str1.1)
    .L.str                                   0x080141e3   Data          45  sfud_sfdp.o(.rodata.str1.1)
    .L__func__.read_basic_table              0x08014210   Data          17  sfud_sfdp.o(.rodata.str1.1)
    .L__func__.sfud_read_sfdp                0x08014221   Data          15  sfud_sfdp.o(.rodata.str1.1)
    .L__func__.read_basic_header             0x08014230   Data          18  sfud_sfdp.o(.rodata.str1.1)
    .L__func__.read_sfdp_header              0x08014242   Data          17  sfud_sfdp.o(.rodata.str1.1)
    .L__func__.sfud_sfdp_get_suitable_eraser 0x08014253   Data          30  sfud_sfdp.o(.rodata.str1.1)
    .L.str                                   0x08014271   Data          39  b_mod_kv.o(.rodata.str1.1)
    [Anonymous Symbol]                       0x08014271   Section        0  b_mod_kv.o(.rodata.str1.1)
    .L__func__.bKVGetValue                   0x08014298   Data          12  b_mod_kv.o(.rodata.str1.1)
    .L__func__.bKVInit                       0x080142a4   Data           8  b_mod_kv.o(.rodata.str1.1)
    .L.str                                   0x080142ac   Data          41  b_mod_wifi.o(.rodata.str1.1)
    [Anonymous Symbol]                       0x080142ac   Section        0  b_mod_wifi.o(.rodata.str1.1)
    .L__func__.bShutdown                     0x080142d5   Data          10  b_mod_wifi.o(.rodata.str1.1)
    .L__func__.bAtFeedData                   0x080142df   Data          12  b_util_at.o(.rodata.str1.1)
    [Anonymous Symbol]                       0x080142df   Section        0  b_util_at.o(.rodata.str1.1)
    .L.str                                   0x080142eb   Data          38  b_util_at.o(.rodata.str1.1)
    .L__func__.bAtSendCmd                    0x08014311   Data          11  b_util_at.o(.rodata.str1.1)
    .L.str.3                                 0x0801431c   Data           6  cjson.o(.rodata.str1.1)
    [Anonymous Symbol]                       0x0801431c   Section        0  cjson.o(.rodata.str1.1)
    .L.str.4                                 0x08014322   Data           5  cjson.o(.rodata.str1.1)
    .L.str.71                                0x08014327   Data           5  http_parser.o(.rodata.str1.1)
    [Anonymous Symbol]                       0x08014327   Section        0  http_parser.o(.rodata.str1.1)
    .L.str.86                                0x0801432c   Data           7  http_parser.o(.rodata.str1.1)
    .L.str.8                                 0x0801432f   Data          10  http_parser.o(.rodata.str1.1)
    .L.str.87                                0x08014333   Data           7  http_parser.o(.rodata.str1.1)
    .L.str.85                                0x08014335   Data           5  http_parser.o(.rodata.str1.1)
    .L.str.10                                0x08014339   Data          20  http_parser.o(.rodata.str1.1)
    .L.str.81                                0x0801433a   Data           9  http_parser.o(.rodata.str1.1)
    .L.str.96                                0x08014343   Data          12  http_parser.o(.rodata.str1.1)
    .L.str.95                                0x08014345   Data          10  http_parser.o(.rodata.str1.1)
    .L.str.11                                0x0801434d   Data          11  http_parser.o(.rodata.str1.1)
    .L.str.76                                0x0801434f   Data           6  http_parser.o(.rodata.str1.1)
    .L.str.102                               0x08014355   Data           7  http_parser.o(.rodata.str1.1)
    .L.str.13                                0x08014358   Data           8  http_parser.o(.rodata.str1.1)
    .L.str.92                                0x0801435c   Data           6  http_parser.o(.rodata.str1.1)
    .L.str.14                                0x08014360   Data           9  http_parser.o(.rodata.str1.1)
    .L.str.98                                0x08014362   Data           6  http_parser.o(.rodata.str1.1)
    .L.str.69                                0x08014368   Data           7  http_parser.o(.rodata.str1.1)
    .L.str.15                                0x08014369   Data          32  http_parser.o(.rodata.str1.1)
    .L.str.80                                0x0801436f   Data           5  http_parser.o(.rodata.str1.1)
    .L.str.93                                0x08014374   Data          11  http_parser.o(.rodata.str1.1)
    .L.str.83                                0x08014378   Data           7  http_parser.o(.rodata.str1.1)
    .L.str.82                                0x0801437f   Data          10  http_parser.o(.rodata.str1.1)
    .L.str.97                                0x08014383   Data           6  http_parser.o(.rodata.str1.1)
    .L.str.16                                0x08014389   Data          11  http_parser.o(.rodata.str1.1)
    .L.str.84                                0x08014389   Data           7  http_parser.o(.rodata.str1.1)
    .L.str.78                                0x0801438b   Data           5  http_parser.o(.rodata.str1.1)
    .L.str.101                               0x08014390   Data           7  http_parser.o(.rodata.str1.1)
    .L.str.100                               0x08014392   Data           5  http_parser.o(.rodata.str1.1)
    .L.str.17                                0x08014394   Data          14  http_parser.o(.rodata.str1.1)
    .L.str.88                                0x08014397   Data           4  http_parser.o(.rodata.str1.1)
    .L.str.79                                0x0801439b   Data           6  http_parser.o(.rodata.str1.1)
    .L.str.99                                0x080143a1   Data          11  http_parser.o(.rodata.str1.1)
    .L.str.18                                0x080143a2   Data          16  http_parser.o(.rodata.str1.1)
    .L.str.75                                0x080143ac   Data           8  http_parser.o(.rodata.str1.1)
    .L.str.19                                0x080143b2   Data          15  http_parser.o(.rodata.str1.1)
    .L.str.74                                0x080143b4   Data           8  http_parser.o(.rodata.str1.1)
    .L.str.70                                0x080143bc   Data           4  http_parser.o(.rodata.str1.1)
    .L.str.89                                0x080143c0   Data           7  http_parser.o(.rodata.str1.1)
    .L.str.20                                0x080143c1   Data          17  http_parser.o(.rodata.str1.1)
    .L.str.72                                0x080143c7   Data           5  http_parser.o(.rodata.str1.1)
    .L.str.91                                0x080143cc   Data           9  http_parser.o(.rodata.str1.1)
    .L.str.21                                0x080143d2   Data           8  http_parser.o(.rodata.str1.1)
    .L.str.73                                0x080143d5   Data           4  http_parser.o(.rodata.str1.1)
    .L.str.94                                0x080143d9   Data           7  http_parser.o(.rodata.str1.1)
    .L.str.22                                0x080143da   Data          17  http_parser.o(.rodata.str1.1)
    .L.str.77                                0x080143e0   Data           5  http_parser.o(.rodata.str1.1)
    .L.str.90                                0x080143e5   Data          11  http_parser.o(.rodata.str1.1)
    .L.str.23                                0x080143eb   Data          18  http_parser.o(.rodata.str1.1)
    .L.str.4                                 0x080143f0   Data           8  http_parser.o(.rodata.str1.1)
    .L.str.29                                0x080143f8   Data          50  b_srv_tcpip.o(.rodata.str1.1)
    [Anonymous Symbol]                       0x080143f8   Section        0  b_srv_tcpip.o(.rodata.str1.1)
    .L.str.24                                0x080143fd   Data           6  http_parser.o(.rodata.str1.1)
    .L.str.25                                0x08014403   Data          10  http_parser.o(.rodata.str1.1)
    .L.str.26                                0x0801440d   Data          13  http_parser.o(.rodata.str1.1)
    .L.str.27                                0x0801441a   Data          10  http_parser.o(.rodata.str1.1)
    .L.str.28                                0x08014424   Data          19  http_parser.o(.rodata.str1.1)
    .L.str.10                                0x0801442a   Data          23  b_srv_tcpip.o(.rodata.str1.1)
    .L.str.29                                0x08014437   Data          19  http_parser.o(.rodata.str1.1)
    .L.str.8                                 0x08014441   Data          20  b_srv_tcpip.o(.rodata.str1.1)
    .L.str.30                                0x0801444a   Data          12  http_parser.o(.rodata.str1.1)
    .L.str.1                                 0x08014455   Data          17  b_srv_tcpip.o(.rodata.str1.1)
    .L.str.31                                0x08014456   Data          13  http_parser.o(.rodata.str1.1)
    .L.str.32                                0x08014463   Data          17  http_parser.o(.rodata.str1.1)
    .L.str.22                                0x08014466   Data          30  b_srv_tcpip.o(.rodata.str1.1)
    .L.str.33                                0x08014474   Data          10  http_parser.o(.rodata.str1.1)
    .L.str.34                                0x0801447e   Data          10  http_parser.o(.rodata.str1.1)
    .L.str.4                                 0x08014484   Data          13  b_srv_tcpip.o(.rodata.str1.1)
    .L.str.35                                0x08014488   Data          19  http_parser.o(.rodata.str1.1)
    .L.str.17                                0x08014491   Data          30  b_srv_tcpip.o(.rodata.str1.1)
    .L.str.36                                0x0801449b   Data          15  http_parser.o(.rodata.str1.1)
    .L.str.37                                0x080144aa   Data          30  http_parser.o(.rodata.str1.1)
    .L.str.30                                0x080144af   Data          58  b_srv_tcpip.o(.rodata.str1.1)
    .L.str.38                                0x080144c8   Data          16  http_parser.o(.rodata.str1.1)
    .L.str.39                                0x080144d8   Data           9  http_parser.o(.rodata.str1.1)
    .L.str.40                                0x080144e1   Data           5  http_parser.o(.rodata.str1.1)
    .L.str.41                                0x080144e6   Data          16  http_parser.o(.rodata.str1.1)
    .L.str                                   0x080144e9   Data          43  b_srv_tcpip.o(.rodata.str1.1)
    .L.str.42                                0x080144f6   Data          20  http_parser.o(.rodata.str1.1)
    .L.str.43                                0x0801450a   Data          18  http_parser.o(.rodata.str1.1)
    .L__func__._bNtpTaskFunc                 0x08014514   Data          14  b_srv_tcpip.o(.rodata.str1.1)
    .L.str.44                                0x0801451c   Data          13  http_parser.o(.rodata.str1.1)
    .L__func__._bHttpTaskFunc                0x08014522   Data          15  b_srv_tcpip.o(.rodata.str1.1)
    .L.str.45                                0x08014529   Data          23  http_parser.o(.rodata.str1.1)
    .L.str.23                                0x08014531   Data          16  b_srv_tcpip.o(.rodata.str1.1)
    .L.str.46                                0x08014540   Data          22  http_parser.o(.rodata.str1.1)
    .L.str.24                                0x08014541   Data          16  b_srv_tcpip.o(.rodata.str1.1)
    .L.str.25                                0x08014551   Data          16  b_srv_tcpip.o(.rodata.str1.1)
    .L.str.47                                0x08014556   Data          19  http_parser.o(.rodata.str1.1)
    .L__func__.bHttpRequest                  0x08014561   Data          13  b_srv_tcpip.o(.rodata.str1.1)
    .L.str.48                                0x08014569   Data          20  http_parser.o(.rodata.str1.1)
    tokens                                   0x0801456e   Data         256  http_parser.o(.rodata.tokens)
    [Anonymous Symbol]                       0x0801456e   Section        0  http_parser.o(.rodata.tokens)
    .L.str.49                                0x0801457d   Data          21  http_parser.o(.rodata.str1.1)
    .L.str.50                                0x08014592   Data           7  http_parser.o(.rodata.str1.1)
    .L.str.51                                0x08014599   Data          18  http_parser.o(.rodata.str1.1)
    .L.str.52                                0x080145ab   Data          17  http_parser.o(.rodata.str1.1)
    .L.str.53                                0x080145bc   Data          22  http_parser.o(.rodata.str1.1)
    .L.str.54                                0x080145d2   Data          18  http_parser.o(.rodata.str1.1)
    .L.str.55                                0x080145e4   Data          32  http_parser.o(.rodata.str1.1)
    .L.str.56                                0x08014604   Data          30  http_parser.o(.rodata.str1.1)
    .L.str.57                                0x08014622   Data          22  http_parser.o(.rodata.str1.1)
    .L.str.58                                0x08014638   Data          16  http_parser.o(.rodata.str1.1)
    .L.str.59                                0x08014648   Data          12  http_parser.o(.rodata.str1.1)
    .L.str.60                                0x08014654   Data          20  http_parser.o(.rodata.str1.1)
    .L.str.61                                0x08014668   Data          16  http_parser.o(.rodata.str1.1)
    unhex                                    0x0801466e   Data         256  http_parser.o(.rodata.unhex)
    [Anonymous Symbol]                       0x0801466e   Section        0  http_parser.o(.rodata.unhex)
    .L.str.106                               0x08014767   Data           7  http_parser.o(.rodata.str1.1)
    .L.str.107                               0x0801476e   Data           8  http_parser.o(.rodata.str1.1)
    .L.str.108                               0x08014776   Data          21  http_parser.o(.rodata.str1.1)
    .L.str.109                               0x0801478b   Data          37  http_parser.o(.rodata.str1.1)
    __tagsym$$used.0                         0x08014790   Number         0  b_core.o(bos_polling)
    __tagsym$$used.0                         0x08014794   Number         0  b_task.o(bos_polling)
    __tagsym$$used.0                         0x08014798   Number         0  b_timer.o(bos_polling)
    __tagsym$$used.0                         0x0801479c   Number         0  b_mod_button.o(bos_polling)
    __tagsym$$used.0                         0x080147a0   Number         0  b_mod_gui.o(bos_polling)
    __tagsym$$used.0                         0x080147a4   Number         0  b_hal_uart.o(bos_polling)
    __tagsym$$used.1                         0x080147a8   Number         0  b_device.o(driver_init)
    .L.str.110                               0x080147b0   Data          11  http_parser.o(.rodata.str1.1)
    __tagsym$$used.0                         0x080147b0   Number         0  b_drv_esp12f.o(driver_init)
    __tagsym$$used.0                         0x080147b8   Number         0  b_drv_key.o(driver_init)
    .L.str.111                               0x080147bb   Data          27  http_parser.o(.rodata.str1.1)
    __tagsym$$used.0                         0x080147c0   Number         0  b_drv_spiflash.o(driver_init)
    __tagsym$$used.0                         0x080147c8   Number         0  b_drv_st7789.o(driver_init)
    __tagsym$$used.0                         0x080147d0   Number         0  b_device.o(driver_init_0)
    .L.str.112                               0x080147d6   Data          20  http_parser.o(.rodata.str1.1)
    .L.str.113                               0x080147ea   Data          36  http_parser.o(.rodata.str1.1)
    .L.str.114                               0x0801480e   Data          20  http_parser.o(.rodata.str1.1)
    .L.str.115                               0x08014822   Data          36  http_parser.o(.rodata.str1.1)
    .L.str.116                               0x08014846   Data          24  http_parser.o(.rodata.str1.1)
    .L.str.117                               0x0801485e   Data          40  http_parser.o(.rodata.str1.1)
    .L.str.118                               0x08014886   Data          12  http_parser.o(.rodata.str1.1)
    .L.str.119                               0x08014892   Data          28  http_parser.o(.rodata.str1.1)
    .L.str.120                               0x080148ae   Data          24  http_parser.o(.rodata.str1.1)
    .L.str.121                               0x080148c6   Data          40  http_parser.o(.rodata.str1.1)
    .L.str.122                               0x080148ee   Data          14  http_parser.o(.rodata.str1.1)
    .L.str.123                               0x080148fc   Data          30  http_parser.o(.rodata.str1.1)
    .L.str.124                               0x0801491a   Data          20  http_parser.o(.rodata.str1.1)
    .L.str.125                               0x0801492e   Data          36  http_parser.o(.rodata.str1.1)
    .L.str.126                               0x08014952   Data          22  http_parser.o(.rodata.str1.1)
    .L.str.127                               0x08014968   Data          38  http_parser.o(.rodata.str1.1)
    .L.str.128                               0x0801498e   Data          22  http_parser.o(.rodata.str1.1)
    .L.str.129                               0x080149a4   Data          35  http_parser.o(.rodata.str1.1)
    .L.str.130                               0x080149c7   Data          20  http_parser.o(.rodata.str1.1)
    .L.str.131                               0x080149db   Data          46  http_parser.o(.rodata.str1.1)
    .L.str.132                               0x08014a09   Data          22  http_parser.o(.rodata.str1.1)
    .L.str.133                               0x08014a1f   Data          56  http_parser.o(.rodata.str1.1)
    .L.str.134                               0x08014a57   Data          20  http_parser.o(.rodata.str1.1)
    .L.str.135                               0x08014a6b   Data          21  http_parser.o(.rodata.str1.1)
    .L.str.136                               0x08014a80   Data          19  http_parser.o(.rodata.str1.1)
    .L.str.137                               0x08014a93   Data          25  http_parser.o(.rodata.str1.1)
    .L.str.138                               0x08014aac   Data          19  http_parser.o(.rodata.str1.1)
    .L.str.139                               0x08014abf   Data          20  http_parser.o(.rodata.str1.1)
    .L.str.140                               0x08014ad3   Data          16  http_parser.o(.rodata.str1.1)
    .L.str.141                               0x08014ae3   Data          12  http_parser.o(.rodata.str1.1)
    .L.str.142                               0x08014aef   Data          17  http_parser.o(.rodata.str1.1)
    .L.str.143                               0x08014b00   Data          13  http_parser.o(.rodata.str1.1)
    .L.str.144                               0x08014b0d   Data          17  http_parser.o(.rodata.str1.1)
    .L.str.145                               0x08014b1e   Data          13  http_parser.o(.rodata.str1.1)
    .L.str.146                               0x08014b2b   Data          17  http_parser.o(.rodata.str1.1)
    .L.str.147                               0x08014b3c   Data          13  http_parser.o(.rodata.str1.1)
    .L.str.148                               0x08014b49   Data          25  http_parser.o(.rodata.str1.1)
    .L.str.149                               0x08014b62   Data          21  http_parser.o(.rodata.str1.1)
    .L.str.150                               0x08014b77   Data          21  http_parser.o(.rodata.str1.1)
    .L.str.151                               0x08014b8c   Data          17  http_parser.o(.rodata.str1.1)
    .L.str.152                               0x08014b9d   Data          16  http_parser.o(.rodata.str1.1)
    .L.str.153                               0x08014bad   Data          22  http_parser.o(.rodata.str1.1)
    .L.str.154                               0x08014bc3   Data          25  http_parser.o(.rodata.str1.1)
    .L.str.155                               0x08014bdc   Data          28  http_parser.o(.rodata.str1.1)
    .L.str.156                               0x08014bf8   Data          27  http_parser.o(.rodata.str1.1)
    .L.str.157                               0x08014c13   Data          43  http_parser.o(.rodata.str1.1)
    .L.str.158                               0x08014c3e   Data          30  http_parser.o(.rodata.str1.1)
    .L.str.159                               0x08014c5c   Data          33  http_parser.o(.rodata.str1.1)
    .L.str.160                               0x08014c7d   Data          23  http_parser.o(.rodata.str1.1)
    .L.str.161                               0x08014c94   Data          39  http_parser.o(.rodata.str1.1)
    .L.str.162                               0x08014cbb   Data          21  http_parser.o(.rodata.str1.1)
    .L.str.163                               0x08014cd0   Data          24  http_parser.o(.rodata.str1.1)
    .L.str.164                               0x08014ce8   Data          27  http_parser.o(.rodata.str1.1)
    .L.str.165                               0x08014d03   Data          38  http_parser.o(.rodata.str1.1)
    .L.str.166                               0x08014d29   Data          11  http_parser.o(.rodata.str1.1)
    .L.str.167                               0x08014d34   Data          29  http_parser.o(.rodata.str1.1)
    .L.str.168                               0x08014d51   Data          11  http_parser.o(.rodata.str1.1)
    .L.str.169                               0x08014d5c   Data          17  http_parser.o(.rodata.str1.1)
    .L.str.170                               0x08014d6d   Data          12  http_parser.o(.rodata.str1.1)
    .L.str.171                               0x08014d79   Data          26  http_parser.o(.rodata.str1.1)
    .L.str.172                               0x08014d93   Data          30  http_parser.o(.rodata.str1.1)
    .L.str.173                               0x08014db1   Data          38  http_parser.o(.rodata.str1.1)
    _errno                                   0x20000000   Data           4  errno.o(.data)
    .data                                    0x20000000   Section        4  errno.o(.data)
    bHalItListHead                           0x20000008   Data           8  b_hal_it.o(.data.bHalItListHead)
    [Anonymous Symbol]                       0x20000008   Section        0  b_hal_it.o(.data.bHalItListHead)
    bHalUartListHead                         0x20000010   Data           8  b_hal_uart.o(.data.bHalUartListHead)
    [Anonymous Symbol]                       0x20000010   Section        0  b_hal_uart.o(.data.bHalUartListHead)
    bHttpfd                                  0x20000018   Data           4  main.o(.data.bHttpfd)
    [Anonymous Symbol]                       0x20000018   Section        0  main.o(.data.bHttpfd)
    bTaskListHead                            0x2000001c   Data           8  b_task.o(.data.bTaskListHead)
    [Anonymous Symbol]                       0x2000001c   Section        0  b_task.o(.data.bTaskListHead)
    bTimerListHead                           0x20000024   Data           8  b_timer.o(.data.bTimerListHead)
    [Anonymous Symbol]                       0x20000024   Section        0  b_timer.o(.data.bTimerListHead)
    bUsDelayParam                            0x2000002c   Data           4  b_hal.o(.data.bUsDelayParam)
    [Anonymous Symbol]                       0x2000002c   Section        0  b_hal.o(.data.bUsDelayParam)
    bWeather                                 0x20000030   Data          16  main.o(.data.bWeather)
    [Anonymous Symbol]                       0x20000030   Section        0  main.o(.data.bWeather)
    bWifiModule                              0x20000040   Data         116  b_mod_wifi.o(.data.bWifiModule)
    [Anonymous Symbol]                       0x20000040   Section        0  b_mod_wifi.o(.data.bWifiModule)
    bWifiTransList                           0x200000b4   Data           8  b_mod_wifi.o(.data.bWifiTransList)
    [Anonymous Symbol]                       0x200000b4   Section        0  b_mod_wifi.o(.data.bWifiTransList)
    global_hooks                             0x200000dc   Data          12  cjson.o(.data.global_hooks)
    [Anonymous Symbol]                       0x200000dc   Section        0  cjson.o(.data.global_hooks)
    main.gui_bTFT                            0x200000e8   Data         140  main.o(.data.main.gui_bTFT)
    [Anonymous Symbol]                       0x200000e8   Section        0  main.o(.data.main.gui_bTFT)
    main.key_bKEYF1                          0x20000174   Data          16  main.o(.data.main.key_bKEYF1)
    [Anonymous Symbol]                       0x20000174   Section        0  main.o(.data.main.key_bKEYF1)
    max_header_size                          0x20000184   Data           4  http_parser.o(.data.max_header_size)
    [Anonymous Symbol]                       0x20000184   Section        0  http_parser.o(.data.max_header_size)
    state                                    0x20000188   Data           1  main.o(.data.state)
    [Anonymous Symbol]                       0x20000188   Section        0  main.o(.data.state)
    DisplayAttr                              0x20000190   Data          44  main.o(.bss.DisplayAttr)
    [Anonymous Symbol]                       0x20000190   Section        0  main.o(.bss.DisplayAttr)
    WeatherAttr                              0x200001bc   Data          44  main.o(.bss.WeatherAttr)
    [Anonymous Symbol]                       0x200001bc   Section        0  main.o(.bss.WeatherAttr)
    _UG_HandleEvents.msg                     0x200001e8   Data           8  ugui.o(.bss._UG_HandleEvents.msg)
    [Anonymous Symbol]                       0x200001e8   Section        0  ugui.o(.bss._UG_HandleEvents.msg)
    _bButtonCore.tick                        0x200001f0   Data           4  b_mod_button.o(.bss._bButtonCore.tick)
    [Anonymous Symbol]                       0x200001f0   Section        0  b_mod_button.o(.bss._bButtonCore.tick)
    _bCoreCreateFd.init                      0x200001f4   Data           1  b_core.o(.bss._bCoreCreateFd.init)
    [Anonymous Symbol]                       0x200001f4   Section        0  b_core.o(.bss._bCoreCreateFd.init)
    _bGUI_Core.tick                          0x200001f8   Data           4  b_mod_gui.o(.bss._bGUI_Core.tick)
    [Anonymous Symbol]                       0x200001f8   Section        0  b_mod_gui.o(.bss._bGUI_Core.tick)
    _bNtpTaskFunc.ntp_server_index           0x200001fc   Data           1  b_srv_tcpip.o(.bss._bNtpTaskFunc.ntp_server_index)
    [Anonymous Symbol]                       0x200001fc   Section        0  b_srv_tcpip.o(.bss._bNtpTaskFunc.ntp_server_index)
    bBaseTick                                0x20000200   Data           8  b_util_utc.o(.bss.bBaseTick)
    [Anonymous Symbol]                       0x20000200   Section        0  b_util_utc.o(.bss.bBaseTick)
    bBaseUTC                                 0x20000208   Data           8  b_util_utc.o(.bss.bBaseUTC)
    [Anonymous Symbol]                       0x20000208   Section        0  b_util_utc.o(.bss.bBaseUTC)
    bButtonInitFlag                          0x20000210   Data           1  b_mod_button.o(.bss.bButtonInitFlag)
    [Anonymous Symbol]                       0x20000210   Section        0  b_mod_button.o(.bss.bButtonInitFlag)
    bCoreFdTable                             0x20000214   Data          60  b_core.o(.bss.bCoreFdTable)
    [Anonymous Symbol]                       0x20000214   Section        0  b_core.o(.bss.bCoreFdTable)
    bDriverInterfaceTable                    0x20000250   Data         340  b_device.o(.bss.bDriverInterfaceTable)
    [Anonymous Symbol]                       0x20000250   Section        0  b_device.o(.bss.bDriverInterfaceTable)
    bEspRunInfo                              0x200003a4   Data        1804  b_drv_esp12f.o(.bss.bEspRunInfo)
    [Anonymous Symbol]                       0x200003a4   Section        0  b_drv_esp12f.o(.bss.bEspRunInfo)
    bLogBuff                                 0x20000ab0   Data         256  b_util_log.o(.bss.bLogBuff)
    [Anonymous Symbol]                       0x20000ab0   Section        0  b_util_log.o(.bss.bLogBuff)
    bMempBuf                                 0x20000bb0   Data       20480  b_util_memp.o(.bss.bMempBuf)
    [Anonymous Symbol]                       0x20000bb0   Section        0  b_util_memp.o(.bss.bMempBuf)
    bMempInitFlag                            0x20005bb0   Data           1  b_util_memp.o(.bss.bMempInitFlag)
    [Anonymous Symbol]                       0x20005bb0   Section        0  b_util_memp.o(.bss.bMempInitFlag)
    bNtpPcb                                  0x20005bb4   Data          12  b_srv_tcpip.o(.bss.bNtpPcb)
    [Anonymous Symbol]                       0x20005bb4   Section        0  b_srv_tcpip.o(.bss.bNtpPcb)
    bNtpTask                                 0x20005bc0   Data          44  b_srv_tcpip.o(.bss.bNtpTask)
    [Anonymous Symbol]                       0x20005bc0   Section        0  b_srv_tcpip.o(.bss.bNtpTask)
    bST7789RunInfo                           0x20005bec   Data           4  b_drv_st7789.o(.bss.bST7789RunInfo)
    [Anonymous Symbol]                       0x20005bec   Section        0  b_drv_st7789.o(.bss.bST7789RunInfo)
    bSpiFlashPrivate                         0x20005bf0   Data         116  b_drv_spiflash.o(.bss.bSpiFlashPrivate)
    [Anonymous Symbol]                       0x20005bf0   Section        0  b_drv_spiflash.o(.bss.bSpiFlashPrivate)
    bSysTick                                 0x20005c64   Data           4  b_hal.o(.bss.bSysTick)
    [Anonymous Symbol]                       0x20005c64   Section        0  b_hal.o(.bss.bSysTick)
    bSysTickOvr                              0x20005c68   Data           4  b_hal.o(.bss.bSysTickOvr)
    [Anonymous Symbol]                       0x20005c68   Section        0  b_hal.o(.bss.bSysTickOvr)
    btn_head                                 0x20005c6c   Data           4  flexible_button.o(.bss.btn_head)
    [Anonymous Symbol]                       0x20005c6c   Section        0  flexible_button.o(.bss.btn_head)
    button_cnt                               0x20005c70   Data           1  flexible_button.o(.bss.button_cnt)
    [Anonymous Symbol]                       0x20005c70   Section        0  flexible_button.o(.bss.button_cnt)
    flex_button_register.init_flag           0x20005c71   Data           1  flexible_button.o(.bss.flex_button_register.init_flag)
    [Anonymous Symbol]                       0x20005c71   Section        0  flexible_button.o(.bss.flex_button_register.init_flag)
    flex_callback                            0x20005c74   Data           4  flexible_button.o(.bss.flex_callback)
    [Anonymous Symbol]                       0x20005c74   Section        0  flexible_button.o(.bss.flex_callback)
    flex_read_function                       0x20005c78   Data           4  flexible_button.o(.bss.flex_read_function)
    [Anonymous Symbol]                       0x20005c78   Section        0  flexible_button.o(.bss.flex_read_function)
    global_error.0                           0x20005cbc   Data           4  cjson.o(.bss.global_error.0)
    [Anonymous Symbol]                       0x20005cbc   Section        0  cjson.o(.bss.global_error.0)
    global_error.1                           0x20005cc0   Data           4  cjson.o(.bss.global_error.1)
    [Anonymous Symbol]                       0x20005cc0   Section        0  cjson.o(.bss.global_error.1)
    gui                                      0x20005cc4   Data           4  ugui.o(.bss.gui)
    [Anonymous Symbol]                       0x20005cc4   Section        0  ugui.o(.bss.gui)
    main.button_bKEYF1                       0x20005e80   Data          12  main.o(.bss.main.button_bKEYF1)
    [Anonymous Symbol]                       0x20005e80   Section        0  main.o(.bss.main.button_bKEYF1)
    main.tickbWifiTest                       0x20005e8c   Data           4  main.o(.bss.main.tickbWifiTest)
    [Anonymous Symbol]                       0x20005e8c   Section        0  main.o(.bss.main.tickbWifiTest)
    pButtonHead                              0x20005e90   Data           4  b_mod_button.o(.bss.pButtonHead)
    [Anonymous Symbol]                       0x20005e90   Section        0  b_mod_button.o(.bss.pButtonHead)
    pCurrentTaskAttr                         0x20005e94   Data           4  b_task.o(.bss.pCurrentTaskAttr)
    [Anonymous Symbol]                       0x20005e94   Section        0  b_task.o(.bss.pCurrentTaskAttr)
    pGUICurrent                              0x20005e98   Data           4  b_mod_gui.o(.bss.pGUICurrent)
    [Anonymous Symbol]                       0x20005e98   Section        0  b_mod_gui.o(.bss.pGUICurrent)
    pGUIHead                                 0x20005e9c   Data           4  b_mod_gui.o(.bss.pGUIHead)
    [Anonymous Symbol]                       0x20005e9c   Section        0  b_mod_gui.o(.bss.pGUIHead)
    page256_or_1_byte_write.cmd_data         0x20005ea0   Data         261  sfud.o(.bss.page256_or_1_byte_write.cmd_data)
    [Anonymous Symbol]                       0x20005ea0   Section        0  sfud.o(.bss.page256_or_1_byte_write.cmd_data)
    sApInfo                                  0x20005fa8   Data          98  main.o(.bss.sApInfo)
    [Anonymous Symbol]                       0x20005fa8   Section        0  main.o(.bss.sApInfo)
    sgUartData                               0x2000600a   Data           1  main.o(.bss.sgUartData)
    [Anonymous Symbol]                       0x2000600a   Section        0  main.o(.bss.sgUartData)
    STACK                                    0x20006010   Section     4096  startup_stm32l431xx.o(STACK)

    Global Symbols

    Symbol Name                              Value     Ov Type        Size  Object(Section)

    BuildAttributes$$THM_ISAv4$E$P$D$K$B$S$7EM$VFPi3$EXTD16$VFPS$VFMA$PE$A:L22UL41UL21$X:L11$S22US41US21$IEEE1$IW$~IW$USESV6$~STKCKD$USESV7$~SHL$OTIME$ROPI$IEEEJ$EBA8$MICROLIB$REQ8$PRES8$EABIv2 0x00000000   Number         0  anon$$obj.o ABSOLUTE
    _printf_a                                0x00000000   Number         0  printfstubs.o ABSOLUTE
    _printf_c                                0x00000000   Number         0  printfstubs.o ABSOLUTE
    _printf_charcount                        0x00000000   Number         0  printfstubs.o ABSOLUTE
    _printf_d                                0x00000000   Number         0  printfstubs.o ABSOLUTE
    _printf_e                                0x00000000   Number         0  printfstubs.o ABSOLUTE
    _printf_f                                0x00000000   Number         0  printfstubs.o ABSOLUTE
    _printf_flags                            0x00000000   Number         0  printfstubs.o ABSOLUTE
    _printf_fp_dec                           0x00000000   Number         0  printfstubs.o ABSOLUTE
    _printf_fp_hex                           0x00000000   Number         0  printfstubs.o ABSOLUTE
    _printf_g                                0x00000000   Number         0  printfstubs.o ABSOLUTE
    _printf_i                                0x00000000   Number         0  printfstubs.o ABSOLUTE
    _printf_int_dec                          0x00000000   Number         0  printfstubs.o ABSOLUTE
    _printf_l                                0x00000000   Number         0  printfstubs.o ABSOLUTE
    _printf_lc                               0x00000000   Number         0  printfstubs.o ABSOLUTE
    _printf_ll                               0x00000000   Number         0  printfstubs.o ABSOLUTE
    _printf_lld                              0x00000000   Number         0  printfstubs.o ABSOLUTE
    _printf_lli                              0x00000000   Number         0  printfstubs.o ABSOLUTE
    _printf_llo                              0x00000000   Number         0  printfstubs.o ABSOLUTE
    _printf_llu                              0x00000000   Number         0  printfstubs.o ABSOLUTE
    _printf_llx                              0x00000000   Number         0  printfstubs.o ABSOLUTE
    _printf_longlong_dec                     0x00000000   Number         0  printfstubs.o ABSOLUTE
    _printf_longlong_hex                     0x00000000   Number         0  printfstubs.o ABSOLUTE
    _printf_longlong_oct                     0x00000000   Number         0  printfstubs.o ABSOLUTE
    _printf_ls                               0x00000000   Number         0  printfstubs.o ABSOLUTE
    _printf_mbtowc                           0x00000000   Number         0  printfstubs.o ABSOLUTE
    _printf_n                                0x00000000   Number         0  printfstubs.o ABSOLUTE
    _printf_o                                0x00000000   Number         0  printfstubs.o ABSOLUTE
    _printf_p                                0x00000000   Number         0  printfstubs.o ABSOLUTE
    _printf_percent                          0x00000000   Number         0  printfstubs.o ABSOLUTE
    _printf_pre_padding                      0x00000000   Number         0  printfstubs.o ABSOLUTE
    _printf_return_value                     0x00000000   Number         0  printfstubs.o ABSOLUTE
    _printf_s                                0x00000000   Number         0  printfstubs.o ABSOLUTE
    _printf_sizespec                         0x00000000   Number         0  printfstubs.o ABSOLUTE
    _printf_str                              0x00000000   Number         0  printfstubs.o ABSOLUTE
    _printf_truncate_signed                  0x00000000   Number         0  printfstubs.o ABSOLUTE
    _printf_truncate_unsigned                0x00000000   Number         0  printfstubs.o ABSOLUTE
    _printf_u                                0x00000000   Number         0  printfstubs.o ABSOLUTE
    _printf_wc                               0x00000000   Number         0  printfstubs.o ABSOLUTE
    _printf_wctomb                           0x00000000   Number         0  printfstubs.o ABSOLUTE
    _printf_widthprec                        0x00000000   Number         0  printfstubs.o ABSOLUTE
    _printf_x                                0x00000000   Number         0  printfstubs.o ABSOLUTE
    __cpp_initialize__aeabi_                  - Undefined Weak Reference
    __cxa_finalize                            - Undefined Weak Reference
    _clock_init                               - Undefined Weak Reference
    _microlib_exit                            - Undefined Weak Reference
    _scanf_longlong                           - Undefined Weak Reference
    __Vectors_Size                           0x0000018c   Number         0  startup_stm32l431xx.o ABSOLUTE
    __Vectors                                0x08000000   Data           4  startup_stm32l431xx.o(RESET)
    __Vectors_End                            0x0800018c   Data           0  startup_stm32l431xx.o(RESET)
    __main                                   0x0800018d   Thumb Code     0  entry.o(.ARM.Collect$$$$00000000)
    _main_stk                                0x0800018d   Thumb Code     0  entry2.o(.ARM.Collect$$$$00000001)
    _main_scatterload                        0x08000191   Thumb Code     0  entry5.o(.ARM.Collect$$$$00000004)
    __main_after_scatterload                 0x08000195   Thumb Code     0  entry5.o(.ARM.Collect$$$$00000004)
    _main_clock                              0x08000195   Thumb Code     0  entry7b.o(.ARM.Collect$$$$00000008)
    _main_cpp_init                           0x08000195   Thumb Code     0  entry8b.o(.ARM.Collect$$$$0000000A)
    _main_init                               0x08000195   Thumb Code     0  entry9a.o(.ARM.Collect$$$$0000000B)
    __rt_final_cpp                           0x0800019d   Thumb Code     0  entry10a.o(.ARM.Collect$$$$0000000D)
    __rt_final_exit                          0x0800019d   Thumb Code     0  entry11a.o(.ARM.Collect$$$$0000000F)
    Reset_Handler                            0x080001a1   Thumb Code     8  startup_stm32l431xx.o(.text)
    ADC1_IRQHandler                          0x080001bb   Thumb Code     0  startup_stm32l431xx.o(.text)
    CAN1_RX0_IRQHandler                      0x080001bb   Thumb Code     0  startup_stm32l431xx.o(.text)
    CAN1_RX1_IRQHandler                      0x080001bb   Thumb Code     0  startup_stm32l431xx.o(.text)
    CAN1_SCE_IRQHandler                      0x080001bb   Thumb Code     0  startup_stm32l431xx.o(.text)
    CAN1_TX_IRQHandler                       0x080001bb   Thumb Code     0  startup_stm32l431xx.o(.text)
    COMP_IRQHandler                          0x080001bb   Thumb Code     0  startup_stm32l431xx.o(.text)
    CRS_IRQHandler                           0x080001bb   Thumb Code     0  startup_stm32l431xx.o(.text)
    DMA1_Channel1_IRQHandler                 0x080001bb   Thumb Code     0  startup_stm32l431xx.o(.text)
    DMA1_Channel2_IRQHandler                 0x080001bb   Thumb Code     0  startup_stm32l431xx.o(.text)
    DMA1_Channel3_IRQHandler                 0x080001bb   Thumb Code     0  startup_stm32l431xx.o(.text)
    DMA1_Channel4_IRQHandler                 0x080001bb   Thumb Code     0  startup_stm32l431xx.o(.text)
    DMA1_Channel5_IRQHandler                 0x080001bb   Thumb Code     0  startup_stm32l431xx.o(.text)
    DMA1_Channel6_IRQHandler                 0x080001bb   Thumb Code     0  startup_stm32l431xx.o(.text)
    DMA1_Channel7_IRQHandler                 0x080001bb   Thumb Code     0  startup_stm32l431xx.o(.text)
    DMA2_Channel1_IRQHandler                 0x080001bb   Thumb Code     0  startup_stm32l431xx.o(.text)
    DMA2_Channel2_IRQHandler                 0x080001bb   Thumb Code     0  startup_stm32l431xx.o(.text)
    DMA2_Channel3_IRQHandler                 0x080001bb   Thumb Code     0  startup_stm32l431xx.o(.text)
    DMA2_Channel4_IRQHandler                 0x080001bb   Thumb Code     0  startup_stm32l431xx.o(.text)
    DMA2_Channel5_IRQHandler                 0x080001bb   Thumb Code     0  startup_stm32l431xx.o(.text)
    DMA2_Channel6_IRQHandler                 0x080001bb   Thumb Code     0  startup_stm32l431xx.o(.text)
    DMA2_Channel7_IRQHandler                 0x080001bb   Thumb Code     0  startup_stm32l431xx.o(.text)
    EXTI0_IRQHandler                         0x080001bb   Thumb Code     0  startup_stm32l431xx.o(.text)
    EXTI15_10_IRQHandler                     0x080001bb   Thumb Code     0  startup_stm32l431xx.o(.text)
    EXTI1_IRQHandler                         0x080001bb   Thumb Code     0  startup_stm32l431xx.o(.text)
    EXTI2_IRQHandler                         0x080001bb   Thumb Code     0  startup_stm32l431xx.o(.text)
    EXTI3_IRQHandler                         0x080001bb   Thumb Code     0  startup_stm32l431xx.o(.text)
    EXTI4_IRQHandler                         0x080001bb   Thumb Code     0  startup_stm32l431xx.o(.text)
    EXTI9_5_IRQHandler                       0x080001bb   Thumb Code     0  startup_stm32l431xx.o(.text)
    FLASH_IRQHandler                         0x080001bb   Thumb Code     0  startup_stm32l431xx.o(.text)
    FPU_IRQHandler                           0x080001bb   Thumb Code     0  startup_stm32l431xx.o(.text)
    I2C1_ER_IRQHandler                       0x080001bb   Thumb Code     0  startup_stm32l431xx.o(.text)
    I2C1_EV_IRQHandler                       0x080001bb   Thumb Code     0  startup_stm32l431xx.o(.text)
    I2C2_ER_IRQHandler                       0x080001bb   Thumb Code     0  startup_stm32l431xx.o(.text)
    I2C2_EV_IRQHandler                       0x080001bb   Thumb Code     0  startup_stm32l431xx.o(.text)
    I2C3_ER_IRQHandler                       0x080001bb   Thumb Code     0  startup_stm32l431xx.o(.text)
    I2C3_EV_IRQHandler                       0x080001bb   Thumb Code     0  startup_stm32l431xx.o(.text)
    LPTIM1_IRQHandler                        0x080001bb   Thumb Code     0  startup_stm32l431xx.o(.text)
    LPTIM2_IRQHandler                        0x080001bb   Thumb Code     0  startup_stm32l431xx.o(.text)
    PVD_PVM_IRQHandler                       0x080001bb   Thumb Code     0  startup_stm32l431xx.o(.text)
    QUADSPI_IRQHandler                       0x080001bb   Thumb Code     0  startup_stm32l431xx.o(.text)
    RCC_IRQHandler                           0x080001bb   Thumb Code     0  startup_stm32l431xx.o(.text)
    RNG_IRQHandler                           0x080001bb   Thumb Code     0  startup_stm32l431xx.o(.text)
    RTC_Alarm_IRQHandler                     0x080001bb   Thumb Code     0  startup_stm32l431xx.o(.text)
    RTC_WKUP_IRQHandler                      0x080001bb   Thumb Code     0  startup_stm32l431xx.o(.text)
    SAI1_IRQHandler                          0x080001bb   Thumb Code     0  startup_stm32l431xx.o(.text)
    SDMMC1_IRQHandler                        0x080001bb   Thumb Code     0  startup_stm32l431xx.o(.text)
    SPI1_IRQHandler                          0x080001bb   Thumb Code     0  startup_stm32l431xx.o(.text)
    SPI2_IRQHandler                          0x080001bb   Thumb Code     0  startup_stm32l431xx.o(.text)
    SPI3_IRQHandler                          0x080001bb   Thumb Code     0  startup_stm32l431xx.o(.text)
    SWPMI1_IRQHandler                        0x080001bb   Thumb Code     0  startup_stm32l431xx.o(.text)
    TAMP_STAMP_IRQHandler                    0x080001bb   Thumb Code     0  startup_stm32l431xx.o(.text)
    TIM1_BRK_TIM15_IRQHandler                0x080001bb   Thumb Code     0  startup_stm32l431xx.o(.text)
    TIM1_CC_IRQHandler                       0x080001bb   Thumb Code     0  startup_stm32l431xx.o(.text)
    TIM1_TRG_COM_IRQHandler                  0x080001bb   Thumb Code     0  startup_stm32l431xx.o(.text)
    TIM1_UP_TIM16_IRQHandler                 0x080001bb   Thumb Code     0  startup_stm32l431xx.o(.text)
    TIM2_IRQHandler                          0x080001bb   Thumb Code     0  startup_stm32l431xx.o(.text)
    TIM6_DAC_IRQHandler                      0x080001bb   Thumb Code     0  startup_stm32l431xx.o(.text)
    TIM7_IRQHandler                          0x080001bb   Thumb Code     0  startup_stm32l431xx.o(.text)
    TSC_IRQHandler                           0x080001bb   Thumb Code     0  startup_stm32l431xx.o(.text)
    USART2_IRQHandler                        0x080001bb   Thumb Code     0  startup_stm32l431xx.o(.text)
    USART3_IRQHandler                        0x080001bb   Thumb Code     0  startup_stm32l431xx.o(.text)
    WWDG_IRQHandler                          0x080001bb   Thumb Code     0  startup_stm32l431xx.o(.text)
    __aeabi_uldivmod                         0x080001c5   Thumb Code    98  uldiv.o(.text)
    __aeabi_ldivmod                          0x0800022d   Thumb Code    98  ldiv.o(.text)
    tolower                                  0x0800028f   Thumb Code    12  tolower.o(.text)
    __aeabi_memcpy                           0x0800029b   Thumb Code    36  memcpya.o(.text)
    __aeabi_memcpy4                          0x0800029b   Thumb Code     0  memcpya.o(.text)
    __aeabi_memcpy8                          0x0800029b   Thumb Code     0  memcpya.o(.text)
    __aeabi_memset                           0x080002bf   Thumb Code    14  memseta.o(.text)
    __aeabi_memset4                          0x080002bf   Thumb Code     0  memseta.o(.text)
    __aeabi_memset8                          0x080002bf   Thumb Code     0  memseta.o(.text)
    __aeabi_memclr                           0x080002cd   Thumb Code     4  memseta.o(.text)
    __aeabi_memclr4                          0x080002cd   Thumb Code     0  memseta.o(.text)
    __aeabi_memclr8                          0x080002cd   Thumb Code     0  memseta.o(.text)
    _memset$wrapper                          0x080002d1   Thumb Code    18  memseta.o(.text)
    strstr                                   0x080002e3   Thumb Code    36  strstr.o(.text)
    strncpy                                  0x08000307   Thumb Code    24  strncpy.o(.text)
    strchr                                   0x0800031f   Thumb Code    20  strchr.o(.text)
    strlen                                   0x08000333   Thumb Code    14  strlen.o(.text)
    strcmp                                   0x08000341   Thumb Code    28  strcmp.o(.text)
    strcpy                                   0x0800035d   Thumb Code    18  strcpy.o(.text)
    strncmp                                  0x0800036f   Thumb Code    30  strncmp.o(.text)
    __0sscanf                                0x0800038d   Thumb Code    48  __0sscanf.o(.text)
    _scanf_int                               0x080003c5   Thumb Code   332  _scanf_int.o(.text)
    _scanf_string                            0x08000517   Thumb Code   224  _scanf_str.o(.text)
    _scanf_real                              0x08000725   Thumb Code     0  scanf_fp.o(.text)
    _scanf_really_real                       0x08000725   Thumb Code   556  scanf_fp.o(.text)
    atoi                                     0x08000963   Thumb Code    26  atoi.o(.text)
    __aeabi_dadd                             0x0800097d   Thumb Code   322  dadd.o(.text)
    __aeabi_dsub                             0x08000abf   Thumb Code     6  dadd.o(.text)
    __aeabi_drsub                            0x08000ac5   Thumb Code     6  dadd.o(.text)
    __aeabi_dmul                             0x08000adb   Thumb Code   228  dmul.o(.text)
    __aeabi_ddiv                             0x08000bc5   Thumb Code   222  ddiv.o(.text)
    __aeabi_dcmple                           0x08000ca3   Thumb Code    54  dcmple.o(.text)
    __aeabi_dcmpge                           0x08000cd9   Thumb Code    54  dcmpge.o(.text)
    __aeabi_ui2d                             0x08000d0f   Thumb Code    26  dfltui.o(.text)
    __aeabi_l2d                              0x08000d29   Thumb Code    40  dfltl.o(.text)
    __aeabi_d2iz                             0x08000d51   Thumb Code    62  dfixi.o(.text)
    __aeabi_d2uiz                            0x08000d8f   Thumb Code    50  dfixui.o(.text)
    __aeabi_d2lz                             0x08000dc1   Thumb Code    74  dfixl.o(.text)
    __aeabi_uidiv                            0x08000e0b   Thumb Code     0  uidiv.o(.text)
    __aeabi_uidivmod                         0x08000e0b   Thumb Code    44  uidiv.o(.text)
    __aeabi_llsl                             0x08000e37   Thumb Code    30  llshl.o(.text)
    _ll_shift_l                              0x08000e37   Thumb Code     0  llshl.o(.text)
    __aeabi_llsr                             0x08000e55   Thumb Code    32  llushr.o(.text)
    _ll_ushift_r                             0x08000e55   Thumb Code     0  llushr.o(.text)
    __aeabi_lasr                             0x08000e75   Thumb Code    36  llsshr.o(.text)
    _ll_sshift_r                             0x08000e75   Thumb Code     0  llsshr.o(.text)
    _chval                                   0x08000e99   Thumb Code    28  _chval.o(.text)
    __vfscanf_char                           0x08000ec1   Thumb Code    20  scanf_char.o(.text)
    _sgetc                                   0x08000edd   Thumb Code    30  _sgetc.o(.text)
    _sbackspace                              0x08000efb   Thumb Code    34  _sgetc.o(.text)
    __strtod_int                             0x08000f5b   Thumb Code    94  strtod.o(.text)
    strtol                                   0x08000fc5   Thumb Code   112  strtol.o(.text)
    __I$use$fp                               0x08001035   Thumb Code     0  iusefp.o(.text)
    _double_round                            0x08001035   Thumb Code    30  depilogue.o(.text)
    _double_epilogue                         0x08001053   Thumb Code   156  depilogue.o(.text)
    __aeabi_ul2d                             0x080010ef   Thumb Code    24  dfltul.o(.text)
    __aeabi_d2ulz                            0x08001107   Thumb Code    48  dfixul.o(.text)
    __aeabi_cdrcmple                         0x08001139   Thumb Code    48  cdrcmple.o(.text)
    __aeabi_d2f                              0x08001169   Thumb Code    56  d2f.o(.text)
    __scatterload                            0x080011a1   Thumb Code    28  init.o(.text)
    __scatterload_rt2                        0x080011a1   Thumb Code     0  init.o(.text)
    __rt_ctype_table                         0x080011c5   Thumb Code     4  ctype_o.o(.text)
    isspace                                  0x080011cd   Thumb Code    18  isspace_o.o(.text)
    __vfscanf                                0x080011e1   Thumb Code   808  _scanf.o(.text)
    _strtoul                                 0x08001513   Thumb Code   158  _strtoul.o(.text)
    _float_round                             0x080015b7   Thumb Code    18  fepilogue.o(.text)
    _float_epilogue                          0x080015c9   Thumb Code    92  fepilogue.o(.text)
    __decompress                             0x08001625   Thumb Code     0  __dczerorl.o(.text)
    __decompress0                            0x08001625   Thumb Code    58  __dczerorl.o(.text)
    BusFault_Handler                         0x08001661   Thumb Code     2  stm32l4xx_it.o(.text.BusFault_Handler)
    DebugMon_Handler                         0x08001663   Thumb Code     2  stm32l4xx_it.o(.text.DebugMon_Handler)
    DisplayTask                              0x08001669   Thumb Code   412  main.o(.text.DisplayTask)
    Error_Handler                            0x08001805   Thumb Code    10  main.o(.text.Error_Handler)
    HAL_DMA_Abort                            0x0800180f   Thumb Code    68  stm32l4xx_hal_dma.o(.text.HAL_DMA_Abort)
    HAL_DMA_Abort_IT                         0x08001853   Thumb Code    86  stm32l4xx_hal_dma.o(.text.HAL_DMA_Abort_IT)
    HAL_GPIO_Init                            0x080018a9   Thumb Code   472  stm32l4xx_hal_gpio.o(.text.HAL_GPIO_Init)
    HAL_GPIO_WritePin                        0x08001a87   Thumb Code    12  stm32l4xx_hal_gpio.o(.text.HAL_GPIO_WritePin)
    HAL_GetTick                              0x08001a93   Thumb Code    12  stm32l4xx_hal.o(.text.HAL_GetTick)
    HAL_IncTick                              0x08001a9f   Thumb Code    26  stm32l4xx_hal.o(.text.HAL_IncTick)
    HAL_Init                                 0x08001ab9   Thumb Code    28  stm32l4xx_hal.o(.text.HAL_Init)
    HAL_InitTick                             0x08001ad5   Thumb Code    84  stm32l4xx_hal.o(.text.HAL_InitTick)
    HAL_MspInit                              0x08001b29   Thumb Code    50  stm32l4xx_hal_msp.o(.text.HAL_MspInit)
    HAL_NVIC_EnableIRQ                       0x08001b5b   Thumb Code    30  stm32l4xx_hal_cortex.o(.text.HAL_NVIC_EnableIRQ)
    HAL_NVIC_SetPriority                     0x08001b79   Thumb Code    86  stm32l4xx_hal_cortex.o(.text.HAL_NVIC_SetPriority)
    HAL_NVIC_SetPriorityGrouping             0x08001bcf   Thumb Code    32  stm32l4xx_hal_cortex.o(.text.HAL_NVIC_SetPriorityGrouping)
    HAL_PWREx_ControlVoltageScaling          0x08001bf1   Thumb Code   116  stm32l4xx_hal_pwr_ex.o(.text.HAL_PWREx_ControlVoltageScaling)
    HAL_PWREx_GetVoltageRange                0x08001c65   Thumb Code    16  stm32l4xx_hal_pwr_ex.o(.text.HAL_PWREx_GetVoltageRange)
    HAL_QSPI_Init                            0x08001c75   Thumb Code   180  stm32l4xx_hal_qspi.o(.text.HAL_QSPI_Init)
    HAL_QSPI_MspInit                         0x08001d29   Thumb Code   112  stm32l4xx_hal_msp.o(.text.HAL_QSPI_MspInit)
    HAL_RCCEx_PeriphCLKConfig                0x08001d99   Thumb Code   622  stm32l4xx_hal_rcc_ex.o(.text.HAL_RCCEx_PeriphCLKConfig)
    HAL_RCC_ClockConfig                      0x08002009   Thumb Code   348  stm32l4xx_hal_rcc.o(.text.HAL_RCC_ClockConfig)
    HAL_RCC_GetPCLK1Freq                     0x08002165   Thumb Code    42  stm32l4xx_hal_rcc.o(.text.HAL_RCC_GetPCLK1Freq)
    HAL_RCC_GetPCLK2Freq                     0x0800218f   Thumb Code    42  stm32l4xx_hal_rcc.o(.text.HAL_RCC_GetPCLK2Freq)
    HAL_RCC_GetSysClockFreq                  0x080021b9   Thumb Code   182  stm32l4xx_hal_rcc.o(.text.HAL_RCC_GetSysClockFreq)
    HAL_RCC_OscConfig                        0x08002271   Thumb Code  1522  stm32l4xx_hal_rcc.o(.text.HAL_RCC_OscConfig)
    HAL_SPI_Init                             0x08002863   Thumb Code   216  stm32l4xx_hal_spi.o(.text.HAL_SPI_Init)
    HAL_SPI_MspInit                          0x0800293b   Thumb Code   168  stm32l4xx_hal_msp.o(.text.HAL_SPI_MspInit)
    HAL_SYSTICK_Config                       0x080029e3   Thumb Code    44  stm32l4xx_hal_cortex.o(.text.HAL_SYSTICK_Config)
    HAL_UARTEx_RxEventCallback               0x08002a0f   Thumb Code     2  stm32l4xx_hal_uart.o(.text.HAL_UARTEx_RxEventCallback)
    HAL_UARTEx_WakeupCallback                0x08002a11   Thumb Code     2  stm32l4xx_hal_uart_ex.o(.text.HAL_UARTEx_WakeupCallback)
    HAL_UART_ErrorCallback                   0x08002a13   Thumb Code     2  stm32l4xx_hal_uart.o(.text.HAL_UART_ErrorCallback)
    HAL_UART_IRQHandler                      0x08002a15   Thumb Code   714  stm32l4xx_hal_uart.o(.text.HAL_UART_IRQHandler)
    HAL_UART_Init                            0x08002cdf   Thumb Code    96  stm32l4xx_hal_uart.o(.text.HAL_UART_Init)
    HAL_UART_MspInit                         0x08002d3f   Thumb Code   248  stm32l4xx_hal_msp.o(.text.HAL_UART_MspInit)
    HAL_UART_Receive_IT                      0x08002e39   Thumb Code   102  stm32l4xx_hal_uart.o(.text.HAL_UART_Receive_IT)
    HAL_UART_RxCpltCallback                  0x08002e9f   Thumb Code    70  main.o(.text.HAL_UART_RxCpltCallback)
    HAL_UART_TxCpltCallback                  0x08002ee5   Thumb Code     2  stm32l4xx_hal_uart.o(.text.HAL_UART_TxCpltCallback)
    HardFault_Handler                        0x08002ee9   Thumb Code     2  stm32l4xx_it.o(.text.HardFault_Handler)
    LPUART1_IRQHandler                       0x08002eeb   Thumb Code    12  stm32l4xx_it.o(.text.LPUART1_IRQHandler)
    MemManage_Handler                        0x08002ef9   Thumb Code     2  stm32l4xx_it.o(.text.MemManage_Handler)
    NMI_Handler                              0x08002efd   Thumb Code     2  stm32l4xx_it.o(.text.NMI_Handler)
    PendSV_Handler                           0x08002eff   Thumb Code     2  stm32l4xx_it.o(.text.PendSV_Handler)
    SVC_Handler                              0x08003115   Thumb Code     2  stm32l4xx_it.o(.text.SVC_Handler)
    SysTick_Handler                          0x08003117   Thumb Code    14  stm32l4xx_it.o(.text.SysTick_Handler)
    SystemClock_Config                       0x08003125   Thumb Code   130  main.o(.text.SystemClock_Config)
    SystemInit                               0x080031a7   Thumb Code    18  system_stm32l4xx.o(.text.SystemInit)
    UART_AdvFeatureConfig                    0x080031b9   Thumb Code   204  stm32l4xx_hal_uart.o(.text.UART_AdvFeatureConfig)
    UART_CheckIdleState                      0x08003285   Thumb Code   104  stm32l4xx_hal_uart.o(.text.UART_CheckIdleState)
    UART_SetConfig                           0x0800348d   Thumb Code   512  stm32l4xx_hal_uart.o(.text.UART_SetConfig)
    UART_Start_Receive_IT                    0x0800368d   Thumb Code   208  stm32l4xx_hal_uart.o(.text.UART_Start_Receive_IT)
    UART_WaitOnFlagUntilTimeout              0x0800375d   Thumb Code   216  stm32l4xx_hal_uart.o(.text.UART_WaitOnFlagUntilTimeout)
    UG_DrawLine                              0x08003835   Thumb Code   306  ugui.o(.text.UG_DrawLine)
    UG_DriverRegister                        0x0800396d   Thumb Code    30  ugui.o(.text.UG_DriverRegister)
    UG_FillFrame                             0x0800398d   Thumb Code   124  ugui.o(.text.UG_FillFrame)
    UG_FillScreen                            0x08003a0f   Thumb Code    44  ugui.o(.text.UG_FillScreen)
    UG_FontSelect                            0x08003a3b   Thumb Code    30  ugui.o(.text.UG_FontSelect)
    UG_GetUnicode                            0x08003a59   Thumb Code   468  ugui.o(.text.UG_GetUnicode)
    UG_Init                                  0x08003c2d   Thumb Code   120  ugui.o(.text.UG_Init)
    UG_PutString                             0x08003ca5   Thumb Code   224  ugui.o(.text.UG_PutString)
    UG_SelectGUI                             0x08003d8b   Thumb Code    16  ugui.o(.text.UG_SelectGUI)
    UG_SetBackcolor                          0x08003d9b   Thumb Code    16  ugui.o(.text.UG_SetBackcolor)
    UG_SetForecolor                          0x08003dab   Thumb Code    16  ugui.o(.text.UG_SetForecolor)
    UG_TouchUpdate                           0x08003dbb   Thumb Code    18  ugui.o(.text.UG_TouchUpdate)
    UG_Update                                0x08003dcd   Thumb Code   160  ugui.o(.text.UG_Update)
    USART1_IRQHandler                        0x08003e6d   Thumb Code    12  stm32l4xx_it.o(.text.USART1_IRQHandler)
    UsageFault_Handler                       0x08003e79   Thumb Code     2  stm32l4xx_it.o(.text.UsageFault_Handler)
    WeatherTask                              0x08003e7b   Thumb Code   284  main.o(.text.WeatherTask)
    _UG_DrawObjectFrame                      0x0800421d   Thumb Code   310  ugui.o(.text._UG_DrawObjectFrame)
    _UG_HandleEvents                         0x08004359   Thumb Code    96  ugui.o(.text._UG_HandleEvents)
    _UG_ProcessTouchData                     0x080043b9   Thumb Code   186  ugui.o(.text._UG_ProcessTouchData)
    _UG_PutChar                              0x08004475   Thumb Code   918  ugui.o(.text._UG_PutChar)
    _UG_PutText                              0x08004811   Thumb Code   498  ugui.o(.text._UG_PutText)
    _UG_UpdateObjects                        0x08004a09   Thumb Code    84  ugui.o(.text._UG_UpdateObjects)
    _UG_WindowDrawTitle                      0x08004a5d   Thumb Code   216  ugui.o(.text._UG_WindowDrawTitle)
    _UG_WindowUpdate                         0x08004b3d   Thumb Code   210  ugui.o(.text._UG_WindowUpdate)
    _bHttpTaskFunc                           0x080056d5   Thumb Code  1456  b_srv_tcpip.o(.text._bHttpTaskFunc)
    _bNtpTaskFunc                            0x0800677d   Thumb Code   952  b_srv_tcpip.o(.text._bNtpTaskFunc)
    bAtFeedData                              0x080074e5   Thumb Code   224  b_util_at.o(.text.bAtFeedData)
    bAtInit                                  0x080075c5   Thumb Code   128  b_util_at.o(.text.bAtInit)
    bAtSendCmd                               0x08007645   Thumb Code   272  b_util_at.o(.text.bAtSendCmd)
    bAtTask                                  0x08007755   Thumb Code   256  b_util_at.o(.text.bAtTask)
    bButtonAddKey                            0x08007855   Thumb Code   112  b_mod_button.o(.text.bButtonAddKey)
    bClose                                   0x080078c5   Thumb Code    52  b_core.o(.text.bClose)
    bConnect                                 0x080078f9   Thumb Code   168  b_mod_wifi.o(.text.bConnect)
    bCtl                                     0x080079a1   Thumb Code    32  b_core.o(.text.bCtl)
    bDeviceClose                             0x080079c1   Thumb Code   124  b_device.o(.text.bDeviceClose)
    bDeviceCtl                               0x08007a3d   Thumb Code   120  b_device.o(.text.bDeviceCtl)
    bDeviceInit                              0x08007ab5   Thumb Code   428  b_device.o(.text.bDeviceInit)
    bDeviceOpen                              0x08007c69   Thumb Code   120  b_device.o(.text.bDeviceOpen)
    bDeviceRead                              0x08007ce1   Thumb Code   124  b_device.o(.text.bDeviceRead)
    bDeviceReadMessage                       0x08007d5d   Thumb Code    36  b_device.o(.text.bDeviceReadMessage)
    bDeviceWrite                             0x08007d81   Thumb Code   132  b_device.o(.text.bDeviceWrite)
    bDeviceWriteMessage                      0x08007e05   Thumb Code    36  b_device.o(.text.bDeviceWriteMessage)
    bESP12F_Init                             0x08007e29   Thumb Code   232  b_drv_esp12f.o(.text.bESP12F_Init)
    bEsp12fTask                              0x08007f11   Thumb Code   720  b_drv_esp12f.o(.text.bEsp12fTask)
    bExec                                    0x080081e1   Thumb Code    46  b_core.o(.text.bExec)
    bFIFO_Deinit                             0x0800820f   Thumb Code    22  b_util_fifo.o(.text.bFIFO_Deinit)
    bFIFO_Init                               0x08008225   Thumb Code    32  b_util_fifo.o(.text.bFIFO_Init)
    bFIFO_Length                             0x08008245   Thumb Code    36  b_util_fifo.o(.text.bFIFO_Length)
    bFIFO_Read                               0x08008269   Thumb Code   150  b_util_fifo.o(.text.bFIFO_Read)
    bFIFO_Write                              0x08008301   Thumb Code   162  b_util_fifo.o(.text.bFIFO_Write)
    bFree                                    0x080083a5   Thumb Code   132  b_util_memp.o(.text.bFree)
    bGUIRegist                               0x08008429   Thumb Code   196  b_mod_gui.o(.text.bGUIRegist)
    bGetFreeSize                             0x080084ed   Thumb Code    84  b_util_memp.o(.text.bGetFreeSize)
    bHalDelayMs                              0x08008541   Thumb Code    38  b_hal.o(.text.bHalDelayMs)
    bHalDelayUs                              0x08008569   Thumb Code    30  b_hal.o(.text.bHalDelayUs)
    bHalGetSysTick                           0x08008587   Thumb Code    12  b_hal.o(.text.bHalGetSysTick)
    bHalGetSysTickPlus                       0x08008593   Thumb Code    22  b_hal.o(.text.bHalGetSysTickPlus)
    bHalGpioConfig                           0x080085a9   Thumb Code     4  b_hal_gpio.o(.text.bHalGpioConfig)
    bHalGpioReadPin                          0x080085ad   Thumb Code     4  b_hal_gpio.o(.text.bHalGpioReadPin)
    bHalGpioReadPort                         0x080085b1   Thumb Code     4  b_hal_gpio.o(.text.bHalGpioReadPort)
    bHalGpioWritePin                         0x080085b5   Thumb Code     4  b_hal_gpio.o(.text.bHalGpioWritePin)
    bHalGpioWritePort                        0x080085b9   Thumb Code     4  b_hal_gpio.o(.text.bHalGpioWritePort)
    bHalIncSysTick                           0x080085bd   Thumb Code    36  b_hal.o(.text.bHalIncSysTick)
    bHalInit                                 0x080085e1   Thumb Code   136  b_hal.o(.text.bHalInit)
    bHalIntDisable                           0x08008669   Thumb Code     4  b_hal_it.o(.text.bHalIntDisable)
    bHalIntEnable                            0x0800866d   Thumb Code     4  b_hal_it.o(.text.bHalIntEnable)
    bHalItInvoke                             0x08008671   Thumb Code    66  b_hal_it.o(.text.bHalItInvoke)
    bHalItRegister                           0x080086b3   Thumb Code    36  b_hal_it.o(.text.bHalItRegister)
    bHalQSPIReceiveData                      0x080086d7   Thumb Code    16  b_hal_qspi.o(.text.bHalQSPIReceiveData)
    bHalQSPISendCmd                          0x080086e7   Thumb Code    16  b_hal_qspi.o(.text.bHalQSPISendCmd)
    bHalQSPITransmitData                     0x080086f7   Thumb Code    16  b_hal_qspi.o(.text.bHalQSPITransmitData)
    bHalSpiReceive                           0x08008709   Thumb Code    62  b_hal_spi.o(.text.bHalSpiReceive)
    bHalSpiSend                              0x08008749   Thumb Code    60  b_hal_spi.o(.text.bHalSpiSend)
    bHalSpiTransfer                          0x08008785   Thumb Code   240  b_hal_spi.o(.text.bHalSpiTransfer)
    bHalUartReceiveIdle                      0x08008885   Thumb Code   104  b_hal_uart.o(.text.bHalUartReceiveIdle)
    bHalUartSend                             0x080088ed   Thumb Code     4  b_hal_uart.o(.text.bHalUartSend)
    bHalUserInit                             0x080088f1   Thumb Code     2  b_hal.o(.text.bHalUserInit)
    bHttpInit                                0x080088f5   Thumb Code   168  b_srv_tcpip.o(.text.bHttpInit)
    bHttpRequest                             0x0800899d   Thumb Code   788  b_srv_tcpip.o(.text.bHttpRequest)
    bInit                                    0x08008cb9   Thumb Code   452  b_core.o(.text.bInit)
    bKEY_Init                                0x08008e7d   Thumb Code    62  b_drv_key.o(.text.bKEY_Init)
    bKVGetValue                              0x08008ebd   Thumb Code   524  b_mod_kv.o(.text.bKVGetValue)
    bKVInit                                  0x080090d1   Thumb Code   580  b_mod_kv.o(.text.bKVInit)
    bKVSetValue                              0x08009315   Thumb Code  1724  b_mod_kv.o(.text.bKVSetValue)
    bLogOut                                  0x080099d9   Thumb Code   256  b_util_log.o(.text.bLogOut)
    bLseek                                   0x08009ad9   Thumb Code    36  b_core.o(.text.bLseek)
    bMalloc                                  0x08009afd   Thumb Code   280  b_util_memp.o(.text.bMalloc)
    bMallocFailedHook                        0x08009c15   Thumb Code     2  b_util_memp.o(.text.bMallocFailedHook)
    bMcuGpioConfig                           0x08009c17   Thumb Code   176  mcu_stm32l41x_gpio.o(.text.bMcuGpioConfig)
    bMcuGpioReadPin                          0x08009cc7   Thumb Code    38  mcu_stm32l41x_gpio.o(.text.bMcuGpioReadPin)
    bMcuGpioReadPort                         0x08009ced   Thumb Code    22  mcu_stm32l41x_gpio.o(.text.bMcuGpioReadPort)
    bMcuGpioWritePin                         0x08009d03   Thumb Code    42  mcu_stm32l41x_gpio.o(.text.bMcuGpioWritePin)
    bMcuGpioWritePort                        0x08009d2d   Thumb Code    18  mcu_stm32l41x_gpio.o(.text.bMcuGpioWritePort)
    bMcuIntDisable                           0x08009d3f   Thumb Code     8  mcu_stm32l41x_it.o(.text.bMcuIntDisable)
    bMcuIntEnable                            0x08009d47   Thumb Code     4  mcu_stm32l41x_it.o(.text.bMcuIntEnable)
    bMcuQSPIReceiveData                      0x08009d4d   Thumb Code   116  mcu_stm32l41x_qspi.o(.text.bMcuQSPIReceiveData)
    bMcuQSPISendCmd                          0x08009dc1   Thumb Code   216  mcu_stm32l41x_qspi.o(.text.bMcuQSPISendCmd)
    bMcuQSPITransmitData                     0x08009e99   Thumb Code   108  mcu_stm32l41x_qspi.o(.text.bMcuQSPITransmitData)
    bMcuSpiReceive                           0x08009f05   Thumb Code    40  mcu_stm32l41x_spi.o(.text.bMcuSpiReceive)
    bMcuSpiSend                              0x08009f2d   Thumb Code    88  mcu_stm32l41x_spi.o(.text.bMcuSpiSend)
    bMcuSpiTransfer                          0x08009f85   Thumb Code    66  mcu_stm32l41x_spi.o(.text.bMcuSpiTransfer)
    bMcuUartSend                             0x08009fc9   Thumb Code   146  mcu_stm32l41x_uart.o(.text.bMcuUartSend)
    bNetlinkInit                             0x0800a05b   Thumb Code     4  b_mod_link.o(.text.bNetlinkInit)
    bOpen                                    0x0800a061   Thumb Code   140  b_core.o(.text.bOpen)
    bRead                                    0x0800a0ed   Thumb Code    82  b_core.o(.text.bRead)
    bRealloc                                 0x0800a13f   Thumb Code   108  b_util_memp.o(.text.bRealloc)
    bRecv                                    0x0800a1ab   Thumb Code    78  b_mod_wifi.o(.text.bRecv)
    bSPIFLASH_Init                           0x0800a1f9   Thumb Code   192  b_drv_spiflash.o(.text.bSPIFLASH_Init)
    bST7789_Init                             0x0800a2b9   Thumb Code   712  b_drv_st7789.o(.text.bST7789_Init)
    bSend                                    0x0800a581   Thumb Code   116  b_mod_wifi.o(.text.bSend)
    bShutdown                                0x0800a5f5   Thumb Code   188  b_mod_wifi.o(.text.bShutdown)
    bSntpStart                               0x0800a6b1   Thumb Code    76  b_srv_tcpip.o(.text.bSntpStart)
    bSockIsReadable                          0x0800a6fd   Thumb Code    10  b_mod_wifi.o(.text.bSockIsReadable)
    bSockIsWriteable                         0x0800a707   Thumb Code    10  b_mod_wifi.o(.text.bSockIsWriteable)
    bSocket                                  0x0800a711   Thumb Code   114  b_mod_wifi.o(.text.bSocket)
    bTaskCreate                              0x0800a785   Thumb Code   104  b_task.o(.text.bTaskCreate)
    bTaskRemove                              0x0800a7ed   Thumb Code    38  b_task.o(.text.bTaskRemove)
    bTcpipSrvInit                            0x0800a813   Thumb Code     4  b_srv_tcpip.o(.text.bTcpipSrvInit)
    bUTC2Struct                              0x0800a819   Thumb Code   528  b_util_utc.o(.text.bUTC2Struct)
    bUTC_GetTime                             0x0800aa29   Thumb Code    50  b_util_utc.o(.text.bUTC_GetTime)
    bUTC_SetTime                             0x0800aa5b   Thumb Code    32  b_util_utc.o(.text.bUTC_SetTime)
    bWifiApConfigNet                         0x0800aa7b   Thumb Code   178  b_mod_wifi.o(.text.bWifiApConfigNet)
    bWifiConnTcp                             0x0800ab2d   Thumb Code   114  b_mod_wifi.o(.text.bWifiConnTcp)
    bWifiConnUdp                             0x0800ab9f   Thumb Code   114  b_mod_wifi.o(.text.bWifiConnUdp)
    bWifiDisconn                             0x0800ac11   Thumb Code   192  b_mod_wifi.o(.text.bWifiDisconn)
    bWifiInit                                0x0800acd1   Thumb Code    80  b_mod_wifi.o(.text.bWifiInit)
    bWifiJoinAp                              0x0800ad21   Thumb Code   170  b_mod_wifi.o(.text.bWifiJoinAp)
    bWifiSend                                0x0800adcb   Thumb Code   192  b_mod_wifi.o(.text.bWifiSend)
    bWifiTest                                0x0800ae8d   Thumb Code    80  main.o(.text.bWifiTest)
    bWrite                                   0x0800aedd   Thumb Code    80  b_core.o(.text.bWrite)
    cJSON_Delete                             0x0800af61   Thumb Code    74  cjson.o(.text.cJSON_Delete)
    cJSON_GetArrayItem                       0x0800afad   Thumb Code    44  cjson.o(.text.cJSON_GetArrayItem)
    cJSON_GetObjectItem                      0x0800afd9   Thumb Code     6  cjson.o(.text.cJSON_GetObjectItem)
    cJSON_IsString                           0x0800afdf   Thumb Code    20  cjson.o(.text.cJSON_IsString)
    cJSON_Parse                              0x0800aff3   Thumb Code     8  cjson.o(.text.cJSON_Parse)
    cJSON_ParseWithLengthOpts                0x0800affd   Thumb Code   260  cjson.o(.text.cJSON_ParseWithLengthOpts)
    cJSON_ParseWithOpts                      0x0800b101   Thumb Code    34  cjson.o(.text.cJSON_ParseWithOpts)
    crc_calculate                            0x0800b125   Thumb Code   106  algo_crc.o(.text.crc_calculate)
    flex_button_reg_function                 0x0800b18f   Thumb Code    40  flexible_button.o(.text.flex_button_reg_function)
    flex_button_register                     0x0800b1b9   Thumb Code   140  flexible_button.o(.text.flex_button_register)
    flex_button_scan                         0x0800b245   Thumb Code   636  flexible_button.o(.text.flex_button_scan)
    http_message_needs_eof                   0x0800b563   Thumb Code    88  http_parser.o(.text.http_message_needs_eof)
    http_parser_execute                      0x0800b5bd   Thumb Code  9470  http_parser.o(.text.http_parser_execute)
    http_parser_init                         0x0800dac1   Thumb Code    50  http_parser.o(.text.http_parser_init)
    http_parser_settings_init                0x0800daf3   Thumb Code    10  http_parser.o(.text.http_parser_settings_init)
    http_should_keep_alive                   0x0800dafd   Thumb Code    38  http_parser.o(.text.http_should_keep_alive)
    main                                     0x0800db31   Thumb Code   816  main.o(.text.main)
    on_message_complete                      0x0800de61   Thumb Code    10  b_srv_tcpip.o(.text.on_message_complete)
    sfud_chip_erase                          0x0800eb81   Thumb Code   412  sfud.o(.text.sfud_chip_erase)
    sfud_device_init                         0x0800ed1d   Thumb Code  1432  sfud.o(.text.sfud_device_init)
    sfud_erase                               0x0800f2b5   Thumb Code   616  sfud.o(.text.sfud_erase)
    sfud_read                                0x0800f525   Thumb Code   464  sfud.o(.text.sfud_read)
    sfud_read_sfdp                           0x0800f6f5   Thumb Code  2176  sfud_sfdp.o(.text.sfud_read_sfdp)
    sfud_sfdp_get_suitable_eraser            0x0800ff7d   Thumb Code   164  sfud_sfdp.o(.text.sfud_sfdp_get_suitable_eraser)
    sfud_write                               0x08010021   Thumb Code   584  sfud.o(.text.sfud_write)
    sfud_write_status                        0x08010271   Thumb Code   280  sfud.o(.text.sfud_write_status)
    __0snprintf                              0x080104a9   Thumb Code    48  printfa.o(i.__0snprintf)
    __1snprintf                              0x080104a9   Thumb Code     0  printfa.o(i.__0snprintf)
    __2snprintf                              0x080104a9   Thumb Code     0  printfa.o(i.__0snprintf)
    __c89snprintf                            0x080104a9   Thumb Code     0  printfa.o(i.__0snprintf)
    snprintf                                 0x080104a9   Thumb Code     0  printfa.o(i.__0snprintf)
    __0sprintf                               0x080104dd   Thumb Code    34  printfa.o(i.__0sprintf)
    __1sprintf                               0x080104dd   Thumb Code     0  printfa.o(i.__0sprintf)
    __2sprintf                               0x080104dd   Thumb Code     0  printfa.o(i.__0sprintf)
    __c89sprintf                             0x080104dd   Thumb Code     0  printfa.o(i.__0sprintf)
    sprintf                                  0x080104dd   Thumb Code     0  printfa.o(i.__0sprintf)
    __0vsnprintf                             0x08010505   Thumb Code    46  printfa.o(i.__0vsnprintf)
    __1vsnprintf                             0x08010505   Thumb Code     0  printfa.o(i.__0vsnprintf)
    __2vsnprintf                             0x08010505   Thumb Code     0  printfa.o(i.__0vsnprintf)
    __c89vsnprintf                           0x08010505   Thumb Code     0  printfa.o(i.__0vsnprintf)
    vsnprintf                                0x08010505   Thumb Code     0  printfa.o(i.__0vsnprintf)
    __aeabi_errno_addr                       0x08010539   Thumb Code     4  errno.o(i.__aeabi_errno_addr)
    __rt_errno_addr                          0x08010539   Thumb Code     0  errno.o(i.__aeabi_errno_addr)
    __hardfp_strtod                          0x08010541   Thumb Code    32  strtod.o(i.__hardfp_strtod)
    __scatterload_copy                       0x08010569   Thumb Code    14  handlers.o(i.__scatterload_copy)
    __scatterload_null                       0x08010577   Thumb Code     2  handlers.o(i.__scatterload_null)
    __scatterload_zeroinit                   0x08010579   Thumb Code    14  handlers.o(i.__scatterload_zeroinit)
    _is_digit                                0x08010713   Thumb Code    14  scanf_fp.o(i._is_digit)
    __ctype_table                            0x08010e74   Data         129  ctype_o.o(.constdata)
    AHBPrescTable                            0x08010f38   Data          16  system_stm32l4xx.o(.rodata.AHBPrescTable)
    APBPrescTable                            0x08010f48   Data           8  system_stm32l4xx.o(.rodata.APBPrescTable)
    FONT_12X16                               0x08010f50   Data          20  ugui.o(.rodata.FONT_12X16)
    MSIRangeTable                            0x08010f64   Data          48  system_stm32l4xx.o(.rodata.MSIRangeTable)
    font_12x16                               0x08011344   Data        8192  ugui.o(.rodata.font_12x16)
    pal_window                               0x0801344c   Data          24  ugui.o(.rodata.pal_window)
    Region$$Table$$Base                      0x08014770   Number         0  anon$$obj.o(Region$$Table)
    Region$$Table$$Limit                     0x08014790   Number         0  anon$$obj.o(Region$$Table)
    bos_polling$$Base                        0x08014790   Number         0  b_core.o(bos_polling)
    polling_bCoreMonitor                     0x08014790   Data           4  b_core.o(bos_polling)
    polling_bTaskCore                        0x08014794   Data           4  b_task.o(bos_polling)
    polling_bTimerCore                       0x08014798   Data           4  b_timer.o(bos_polling)
    polling_bButtonCore                      0x0801479c   Data           4  b_mod_button.o(bos_polling)
    polling_bGUI_Core                        0x080147a0   Data           4  b_mod_gui.o(bos_polling)
    polling_bHalUartDetectIdle               0x080147a4   Data           4  b_hal_uart.o(bos_polling)
    bos_polling$$Limit                       0x080147a8   Number         0  b_hal_uart.o(bos_polling)
    driver_init$$Base                        0x080147a8   Number         0  b_device.o(driver_init)
    init_bDriverNullInit                     0x080147a8   Data           8  b_device.o(driver_init)
    initbESP12F_Init                         0x080147b0   Data           8  b_drv_esp12f.o(driver_init)
    initbKEY_Init                            0x080147b8   Data           8  b_drv_key.o(driver_init)
    initbSPIFLASH_Init                       0x080147c0   Data           8  b_drv_spiflash.o(driver_init)
    initbST7789_Init                         0x080147c8   Data           8  b_drv_st7789.o(driver_init)
    driver_init$$Limit                       0x080147d0   Number         0  b_drv_st7789.o(driver_init)
    driver_init_0$$Base                      0x080147d0   Number         0  b_device.o(driver_init_0)
    init0_bDriverNullInit                    0x080147d0   Data           8  b_device.o(driver_init_0)
    driver_init_0$$Limit                     0x080147d8   Number         0  b_device.o(driver_init_0)
    SystemCoreClock                          0x20000004   Data           4  system_stm32l4xx.o(.data.SystemCoreClock)
    gKVInstance                              0x200000bc   Data          32  main.o(.data.gKVInstance)
    uwTickFreq                               0x20000189   Data           1  stm32l4xx_hal.o(.data.uwTickFreq)
    uwTickPrio                               0x2000018c   Data           4  stm32l4xx_hal.o(.data.uwTickPrio)
    g_btn_status_reg                         0x20005c7c   Data          32  flexible_button.o(.bss.g_btn_status_reg)
    g_logic_level                            0x20005c9c   Data          32  flexible_button.o(.bss.g_logic_level)
    hlpuart1                                 0x20005cc8   Data         132  main.o(.bss.hlpuart1)
    hqspi                                    0x20005d4c   Data          76  main.o(.bss.hqspi)
    hspi2                                    0x20005d98   Data         100  main.o(.bss.hspi2)
    huart1                                   0x20005dfc   Data         132  main.o(.bss.huart1)
    uwTick                                   0x2000600c   Data           4  stm32l4xx_hal.o(.bss.uwTick)
    __initial_sp                             0x20007010   Data           0  startup_stm32l431xx.o(STACK)



==============================================================================

Memory Map of the image

  Image Entry point : 0x0800018d

  Load Region LR_IROM1 (Base: 0x08000000, Size: 0x00014968, Max: 0x00040000, ABSOLUTE, COMPRESSED[0x00014838])

    Execution Region ER_IROM1 (Exec base: 0x08000000, Load base: 0x08000000, Size: 0x000147d8, Max: 0x00040000, ABSOLUTE)

    Exec Addr    Load Addr    Size         Type   Attr      Idx    E Section Name        Object

    0x08000000   0x08000000   0x0000018c   Data   RO            3    RESET               startup_stm32l431xx.o
    0x0800018c   0x0800018c   0x00000000   Code   RO         3064  * .ARM.Collect$$$$00000000  mc_w.l(entry.o)
    0x0800018c   0x0800018c   0x00000004   Code   RO         3420    .ARM.Collect$$$$00000001  mc_w.l(entry2.o)
    0x08000190   0x08000190   0x00000004   Code   RO         3423    .ARM.Collect$$$$00000004  mc_w.l(entry5.o)
    0x08000194   0x08000194   0x00000000   Code   RO         3425    .ARM.Collect$$$$00000008  mc_w.l(entry7b.o)
    0x08000194   0x08000194   0x00000000   Code   RO         3427    .ARM.Collect$$$$0000000A  mc_w.l(entry8b.o)
    0x08000194   0x08000194   0x00000008   Code   RO         3428    .ARM.Collect$$$$0000000B  mc_w.l(entry9a.o)
    0x0800019c   0x0800019c   0x00000000   Code   RO         3430    .ARM.Collect$$$$0000000D  mc_w.l(entry10a.o)
    0x0800019c   0x0800019c   0x00000000   Code   RO         3432    .ARM.Collect$$$$0000000F  mc_w.l(entry11a.o)
    0x0800019c   0x0800019c   0x00000004   Code   RO         3421    .ARM.Collect$$$$00002712  mc_w.l(entry2.o)
    0x080001a0   0x080001a0   0x00000024   Code   RO            4    .text               startup_stm32l431xx.o
    0x080001c4   0x080001c4   0x00000068   Code   RO         3067    .text               mc_w.l(uldiv.o)
    0x0800022c   0x0800022c   0x00000062   Code   RO         3069    .text               mc_w.l(ldiv.o)
    0x0800028e   0x0800028e   0x0000000c   Code   RO         3071    .text               mc_w.l(tolower.o)
    0x0800029a   0x0800029a   0x00000024   Code   RO         3073    .text               mc_w.l(memcpya.o)
    0x080002be   0x080002be   0x00000024   Code   RO         3075    .text               mc_w.l(memseta.o)
    0x080002e2   0x080002e2   0x00000024   Code   RO         3077    .text               mc_w.l(strstr.o)
    0x08000306   0x08000306   0x00000018   Code   RO         3079    .text               mc_w.l(strncpy.o)
    0x0800031e   0x0800031e   0x00000014   Code   RO         3081    .text               mc_w.l(strchr.o)
    0x08000332   0x08000332   0x0000000e   Code   RO         3083    .text               mc_w.l(strlen.o)
    0x08000340   0x08000340   0x0000001c   Code   RO         3085    .text               mc_w.l(strcmp.o)
    0x0800035c   0x0800035c   0x00000012   Code   RO         3087    .text               mc_w.l(strcpy.o)
    0x0800036e   0x0800036e   0x0000001e   Code   RO         3089    .text               mc_w.l(strncmp.o)
    0x0800038c   0x0800038c   0x00000038   Code   RO         3382    .text               mc_w.l(__0sscanf.o)
    0x080003c4   0x080003c4   0x00000152   Code   RO         3384    .text               mc_w.l(_scanf_int.o)
    0x08000516   0x08000516   0x000000e6   Code   RO         3386    .text               mc_w.l(_scanf_str.o)
    0x080005fc   0x080005fc   0x00000366   Code   RO         3388    .text               mc_w.l(scanf_fp.o)
    0x08000962   0x08000962   0x0000001a   Code   RO         3392    .text               mc_w.l(atoi.o)
    0x0800097c   0x0800097c   0x0000015e   Code   RO         3394    .text               mf_w.l(dadd.o)
    0x08000ada   0x08000ada   0x000000ea   Code   RO         3396    .text               mf_w.l(dmul.o)
    0x08000bc4   0x08000bc4   0x000000de   Code   RO         3398    .text               mf_w.l(ddiv.o)
    0x08000ca2   0x08000ca2   0x00000036   Code   RO         3400    .text               mf_w.l(dcmple.o)
    0x08000cd8   0x08000cd8   0x00000036   Code   RO         3402    .text               mf_w.l(dcmpge.o)
    0x08000d0e   0x08000d0e   0x0000001a   Code   RO         3408    .text               mf_w.l(dfltui.o)
    0x08000d28   0x08000d28   0x00000028   Code   RO         3410    .text               mf_w.l(dfltl.o)
    0x08000d50   0x08000d50   0x0000003e   Code   RO         3412    .text               mf_w.l(dfixi.o)
    0x08000d8e   0x08000d8e   0x00000032   Code   RO         3414    .text               mf_w.l(dfixui.o)
    0x08000dc0   0x08000dc0   0x0000004a   Code   RO         3416    .text               mf_w.l(dfixl.o)
    0x08000e0a   0x08000e0a   0x0000002c   Code   RO         3435    .text               mc_w.l(uidiv.o)
    0x08000e36   0x08000e36   0x0000001e   Code   RO         3437    .text               mc_w.l(llshl.o)
    0x08000e54   0x08000e54   0x00000020   Code   RO         3439    .text               mc_w.l(llushr.o)
    0x08000e74   0x08000e74   0x00000024   Code   RO         3441    .text               mc_w.l(llsshr.o)
    0x08000e98   0x08000e98   0x0000001c   Code   RO         3452    .text               mc_w.l(_chval.o)
    0x08000eb4   0x08000eb4   0x00000028   Code   RO         3454    .text               mc_w.l(scanf_char.o)
    0x08000edc   0x08000edc   0x00000040   Code   RO         3456    .text               mc_w.l(_sgetc.o)
    0x08000f1c   0x08000f1c   0x000000a8   Code   RO         3458    .text               mc_w.l(strtod.o)
    0x08000fc4   0x08000fc4   0x00000070   Code   RO         3460    .text               mc_w.l(strtol.o)
    0x08001034   0x08001034   0x00000000   Code   RO         3462    .text               mc_w.l(iusefp.o)
    0x08001034   0x08001034   0x000000ba   Code   RO         3463    .text               mf_w.l(depilogue.o)
    0x080010ee   0x080010ee   0x00000018   Code   RO         3465    .text               mf_w.l(dfltul.o)
    0x08001106   0x08001106   0x00000030   Code   RO         3467    .text               mf_w.l(dfixul.o)
    0x08001136   0x08001136   0x00000002   PAD
    0x08001138   0x08001138   0x00000030   Code   RO         3469    .text               mf_w.l(cdrcmple.o)
    0x08001168   0x08001168   0x00000038   Code   RO         3471    .text               mf_w.l(d2f.o)
    0x080011a0   0x080011a0   0x00000024   Code   RO         3473    .text               mc_w.l(init.o)
    0x080011c4   0x080011c4   0x00000008   Code   RO         3477    .text               mc_w.l(ctype_o.o)
    0x080011cc   0x080011cc   0x00000012   Code   RO         3499    .text               mc_w.l(isspace_o.o)
    0x080011de   0x080011de   0x00000002   PAD
    0x080011e0   0x080011e0   0x00000332   Code   RO         3505    .text               mc_w.l(_scanf.o)
    0x08001512   0x08001512   0x000000a4   Code   RO         3507    .text               mc_w.l(_strtoul.o)
    0x080015b6   0x080015b6   0x0000006e   Code   RO         3509    .text               mf_w.l(fepilogue.o)
    0x08001624   0x08001624   0x0000003a   Code   RO         3522    .text               mc_w.l(__dczerorl.o)
    0x0800165e   0x0800165e   0x00000002   PAD
    0x08001660   0x08001660   0x00000002   Code   RO           64    .text.BusFault_Handler  stm32l4xx_it.o
    0x08001662   0x08001662   0x00000002   Code   RO           70    .text.DebugMon_Handler  stm32l4xx_it.o
    0x08001664   0x08001664   0x00000004   PAD
    0x08001668   0x08001668   0x0000019c   Code   RO           15    .text.DisplayTask   main.o
    0x08001804   0x08001804   0x0000000a   Code   RO           29    .text.Error_Handler  main.o
    0x0800180e   0x0800180e   0x00000044   Code   RO         1192    .text.HAL_DMA_Abort  stm32l4xx_hal_dma.o
    0x08001852   0x08001852   0x00000056   Code   RO         1194    .text.HAL_DMA_Abort_IT  stm32l4xx_hal_dma.o
    0x080018a8   0x080018a8   0x000001de   Code   RO          306    .text.HAL_GPIO_Init  stm32l4xx_hal_gpio.o
    0x08001a86   0x08001a86   0x0000000c   Code   RO          312    .text.HAL_GPIO_WritePin  stm32l4xx_hal_gpio.o
    0x08001a92   0x08001a92   0x0000000c   Code   RO          125    .text.HAL_GetTick   stm32l4xx_hal.o
    0x08001a9e   0x08001a9e   0x0000001a   Code   RO          123    .text.HAL_IncTick   stm32l4xx_hal.o
    0x08001ab8   0x08001ab8   0x0000001c   Code   RO          113    .text.HAL_Init      stm32l4xx_hal.o
    0x08001ad4   0x08001ad4   0x00000054   Code   RO          115    .text.HAL_InitTick  stm32l4xx_hal.o
    0x08001b28   0x08001b28   0x00000032   Code   RO           87    .text.HAL_MspInit   stm32l4xx_hal_msp.o
    0x08001b5a   0x08001b5a   0x0000001e   Code   RO          200    .text.HAL_NVIC_EnableIRQ  stm32l4xx_hal_cortex.o
    0x08001b78   0x08001b78   0x00000056   Code   RO          198    .text.HAL_NVIC_SetPriority  stm32l4xx_hal_cortex.o
    0x08001bce   0x08001bce   0x00000020   Code   RO          196    .text.HAL_NVIC_SetPriorityGrouping  stm32l4xx_hal_cortex.o
    0x08001bee   0x08001bee   0x00000002   PAD
    0x08001bf0   0x08001bf0   0x00000074   Code   RO         1120    .text.HAL_PWREx_ControlVoltageScaling  stm32l4xx_hal_pwr_ex.o
    0x08001c64   0x08001c64   0x00000010   Code   RO         1118    .text.HAL_PWREx_GetVoltageRange  stm32l4xx_hal_pwr_ex.o
    0x08001c74   0x08001c74   0x000000b4   Code   RO          510    .text.HAL_QSPI_Init  stm32l4xx_hal_qspi.o
    0x08001d28   0x08001d28   0x00000070   Code   RO           93    .text.HAL_QSPI_MspInit  stm32l4xx_hal_msp.o
    0x08001d98   0x08001d98   0x0000026e   Code   RO          640    .text.HAL_RCCEx_PeriphCLKConfig  stm32l4xx_hal_rcc_ex.o
    0x08002006   0x08002006   0x00000002   PAD
    0x08002008   0x08002008   0x0000015c   Code   RO          610    .text.HAL_RCC_ClockConfig  stm32l4xx_hal_rcc.o
    0x08002164   0x08002164   0x0000002a   Code   RO          616    .text.HAL_RCC_GetPCLK1Freq  stm32l4xx_hal_rcc.o
    0x0800218e   0x0800218e   0x0000002a   Code   RO          618    .text.HAL_RCC_GetPCLK2Freq  stm32l4xx_hal_rcc.o
    0x080021b8   0x080021b8   0x000000b6   Code   RO          608    .text.HAL_RCC_GetSysClockFreq  stm32l4xx_hal_rcc.o
    0x0800226e   0x0800226e   0x00000002   PAD
    0x08002270   0x08002270   0x000005f2   Code   RO          604    .text.HAL_RCC_OscConfig  stm32l4xx_hal_rcc.o
    0x08002862   0x08002862   0x000000d8   Code   RO          777    .text.HAL_SPI_Init  stm32l4xx_hal_spi.o
    0x0800293a   0x0800293a   0x000000a8   Code   RO          101    .text.HAL_SPI_MspInit  stm32l4xx_hal_msp.o
    0x080029e2   0x080029e2   0x0000002c   Code   RO          208    .text.HAL_SYSTICK_Config  stm32l4xx_hal_cortex.o
    0x08002a0e   0x08002a0e   0x00000002   Code   RO          996    .text.HAL_UARTEx_RxEventCallback  stm32l4xx_hal_uart.o
    0x08002a10   0x08002a10   0x00000002   Code   RO         1047    .text.HAL_UARTEx_WakeupCallback  stm32l4xx_hal_uart_ex.o
    0x08002a12   0x08002a12   0x00000002   Code   RO          994    .text.HAL_UART_ErrorCallback  stm32l4xx_hal_uart.o
    0x08002a14   0x08002a14   0x000002ca   Code   RO          990    .text.HAL_UART_IRQHandler  stm32l4xx_hal_uart.o
    0x08002cde   0x08002cde   0x00000060   Code   RO          908    .text.HAL_UART_Init  stm32l4xx_hal_uart.o
    0x08002d3e   0x08002d3e   0x000000f8   Code   RO           89    .text.HAL_UART_MspInit  stm32l4xx_hal_msp.o
    0x08002e36   0x08002e36   0x00000002   PAD
    0x08002e38   0x08002e38   0x00000066   Code   RO          940    .text.HAL_UART_Receive_IT  stm32l4xx_hal_uart.o
    0x08002e9e   0x08002e9e   0x00000046   Code   RO           11    .text.HAL_UART_RxCpltCallback  main.o
    0x08002ee4   0x08002ee4   0x00000002   Code   RO          998    .text.HAL_UART_TxCpltCallback  stm32l4xx_hal_uart.o
    0x08002ee6   0x08002ee6   0x00000002   PAD
    0x08002ee8   0x08002ee8   0x00000002   Code   RO           60    .text.HardFault_Handler  stm32l4xx_it.o
    0x08002eea   0x08002eea   0x0000000c   Code   RO           78    .text.LPUART1_IRQHandler  stm32l4xx_it.o
    0x08002ef6   0x08002ef6   0x00000002   PAD
    0x08002ef8   0x08002ef8   0x00000002   Code   RO           62    .text.MemManage_Handler  stm32l4xx_it.o
    0x08002efa   0x08002efa   0x00000002   PAD
    0x08002efc   0x08002efc   0x00000002   Code   RO           58    .text.NMI_Handler   stm32l4xx_it.o
    0x08002efe   0x08002efe   0x00000002   Code   RO           72    .text.PendSV_Handler  stm32l4xx_it.o
    0x08002f00   0x08002f00   0x00000060   Code   RO          516    .text.QSPI_WaitFlagStateUntilTimeout  stm32l4xx_hal_qspi.o
    0x08002f60   0x08002f60   0x0000012a   Code   RO          642    .text.RCCEx_PLLSAI1_Config  stm32l4xx_hal_rcc_ex.o
    0x0800308a   0x0800308a   0x0000008a   Code   RO          606    .text.RCC_SetFlashLatencyFromMSIRange  stm32l4xx_hal_rcc.o
    0x08003114   0x08003114   0x00000002   Code   RO           68    .text.SVC_Handler   stm32l4xx_it.o
    0x08003116   0x08003116   0x0000000e   Code   RO           74    .text.SysTick_Handler  stm32l4xx_it.o
    0x08003124   0x08003124   0x00000082   Code   RO           21    .text.SystemClock_Config  main.o
    0x080031a6   0x080031a6   0x00000012   Code   RO         1317    .text.SystemInit    system_stm32l4xx.o
    0x080031b8   0x080031b8   0x000000cc   Code   RO          914    .text.UART_AdvFeatureConfig  stm32l4xx_hal_uart.o
    0x08003284   0x08003284   0x00000068   Code   RO          916    .text.UART_CheckIdleState  stm32l4xx_hal_uart.o
    0x080032ec   0x080032ec   0x00000010   Code   RO          992    .text.UART_DMAAbortOnError  stm32l4xx_hal_uart.o
    0x080032fc   0x080032fc   0x00000050   Code   RO          962    .text.UART_EndRxTransfer  stm32l4xx_hal_uart.o
    0x0800334c   0x0800334c   0x0000009e   Code   RO         1028    .text.UART_RxISR_16BIT  stm32l4xx_hal_uart.o
    0x080033ea   0x080033ea   0x00000002   PAD
    0x080033ec   0x080033ec   0x0000009e   Code   RO         1030    .text.UART_RxISR_8BIT  stm32l4xx_hal_uart.o
    0x0800348a   0x0800348a   0x00000002   PAD
    0x0800348c   0x0800348c   0x00000200   Code   RO          912    .text.UART_SetConfig  stm32l4xx_hal_uart.o
    0x0800368c   0x0800368c   0x000000d0   Code   RO          942    .text.UART_Start_Receive_IT  stm32l4xx_hal_uart.o
    0x0800375c   0x0800375c   0x000000d8   Code   RO          930    .text.UART_WaitOnFlagUntilTimeout  stm32l4xx_hal_uart.o
    0x08003834   0x08003834   0x00000138   Code   RO         2245    .text.UG_DrawLine   ugui.o
    0x0800396c   0x0800396c   0x0000001e   Code   RO         2311    .text.UG_DriverRegister  ugui.o
    0x0800398a   0x0800398a   0x00000002   PAD
    0x0800398c   0x0800398c   0x00000082   Code   RO         2241    .text.UG_FillFrame  ugui.o
    0x08003a0e   0x08003a0e   0x0000002c   Code   RO         2239    .text.UG_FillScreen  ugui.o
    0x08003a3a   0x08003a3a   0x0000001e   Code   RO         2237    .text.UG_FontSelect  ugui.o
    0x08003a58   0x08003a58   0x000001d4   Code   RO         2261    .text.UG_GetUnicode  ugui.o
    0x08003c2c   0x08003c2c   0x00000078   Code   RO         2233    .text.UG_Init       ugui.o
    0x08003ca4   0x08003ca4   0x000000e6   Code   RO         2263    .text.UG_PutString  ugui.o
    0x08003d8a   0x08003d8a   0x00000010   Code   RO         2235    .text.UG_SelectGUI  ugui.o
    0x08003d9a   0x08003d9a   0x00000010   Code   RO         2281    .text.UG_SetBackcolor  ugui.o
    0x08003daa   0x08003daa   0x00000010   Code   RO         2279    .text.UG_SetForecolor  ugui.o
    0x08003dba   0x08003dba   0x00000012   Code   RO         2327    .text.UG_TouchUpdate  ugui.o
    0x08003dcc   0x08003dcc   0x000000a0   Code   RO         2317    .text.UG_Update     ugui.o
    0x08003e6c   0x08003e6c   0x0000000c   Code   RO           76    .text.USART1_IRQHandler  stm32l4xx_it.o
    0x08003e78   0x08003e78   0x00000002   Code   RO           66    .text.UsageFault_Handler  stm32l4xx_it.o
    0x08003e7a   0x08003e7a   0x0000011c   Code   RO           17    .text.WeatherTask   main.o
    0x08003f96   0x08003f96   0x00000018   Code   RO           25    .text._ButtonEventHandler  main.o
    0x08003fae   0x08003fae   0x00000002   PAD
    0x08003fb0   0x08003fb0   0x00000140   Code   RO           27    .text._HttpCb       main.o
    0x080040f0   0x080040f0   0x000000ca   Code   RO         1724    .text._LCD_FillRect  b_mod_gui.o
    0x080041ba   0x080041ba   0x00000062   Code   RO         1722    .text._LCD_SetColorPixel  b_mod_gui.o
    0x0800421c   0x0800421c   0x0000013c   Code   RO         2305    .text._UG_DrawObjectFrame  ugui.o
    0x08004358   0x08004358   0x00000060   Code   RO         2303    .text._UG_HandleEvents  ugui.o
    0x080043b8   0x080043b8   0x000000ba   Code   RO         2299    .text._UG_ProcessTouchData  ugui.o
    0x08004472   0x08004472   0x00000002   PAD
    0x08004474   0x08004474   0x0000039c   Code   RO         2269    .text._UG_PutChar   ugui.o
    0x08004810   0x08004810   0x000001f8   Code   RO         2291    .text._UG_PutText   ugui.o
    0x08004a08   0x08004a08   0x00000054   Code   RO         2301    .text._UG_UpdateObjects  ugui.o
    0x08004a5c   0x08004a5c   0x000000de   Code   RO         2319    .text._UG_WindowDrawTitle  ugui.o
    0x08004b3a   0x08004b3a   0x00000002   PAD
    0x08004b3c   0x08004b3c   0x000000d2   Code   RO         2321    .text._UG_WindowUpdate  ugui.o
    0x08004c0e   0x08004c0e   0x00000002   PAD
    0x08004c10   0x08004c10   0x000000d0   Code   RO           23    .text._WifiEvtCb    main.o
    0x08004ce0   0x08004ce0   0x00000050   Code   RO         1522    .text._bAtCmdCb     b_drv_esp12f.o
    0x08004d30   0x08004d30   0x00000004   Code   RO         2000    .text._bAtFree      b_util_at.o
    0x08004d34   0x08004d34   0x00000150   Code   RO         1524    .text._bAtNewDataCb  b_drv_esp12f.o
    0x08004e84   0x08004e84   0x00000020   Code   RO         1548    .text._bAtNewDataFree  b_drv_esp12f.o
    0x08004ea4   0x08004ea4   0x0000003e   Code   RO         1526    .text._bAtSendData  b_drv_esp12f.o
    0x08004ee2   0x08004ee2   0x00000036   Code   RO         1696    .text._bButtonCallback  b_mod_button.o
    0x08004f18   0x08004f18   0x00000026   Code   RO         1702    .text._bButtonCore  b_mod_button.o
    0x08004f3e   0x08004f3e   0x00000002   PAD
    0x08004f40   0x08004f40   0x00000038   Code   RO         1704    .text._bButtonFindInstance  b_mod_button.o
    0x08004f78   0x08004f78   0x00000046   Code   RO         1698    .text._bButtonRead  b_mod_button.o
    0x08004fbe   0x08004fbe   0x00000002   PAD
    0x08004fc0   0x08004fc0   0x00000038   Code   RO         1544    .text._bCloseTcpUdp  b_drv_esp12f.o
    0x08004ff8   0x08004ff8   0x00000002   Code   RO         1333    .text._bCoreMonitor  b_core.o
    0x08004ffa   0x08004ffa   0x00000004   Code   RO         1377    .text._bDriverNullInit  b_device.o
    0x08004ffe   0x08004ffe   0x00000002   PAD
    0x08005000   0x08005000   0x000003a4   Code   RO         1520    .text._bESP12FCtl   b_drv_esp12f.o
    0x080053a4   0x080053a4   0x000000d8   Code   RO         1516    .text._bEsp12fCtlResult  b_drv_esp12f.o
    0x0800547c   0x0800547c   0x00000004   Code   RO         1550    .text._bEsp12fFree  b_drv_esp12f.o
    0x08005480   0x08005480   0x00000048   Code   RO         1530    .text._bEsp12fGetConn  b_drv_esp12f.o
    0x080054c8   0x080054c8   0x000000d4   Code   RO         1738    .text._bGUI_Core    b_mod_gui.o
    0x0800559c   0x0800559c   0x00000040   Code   RO         2863    .text._bHalItHandler  b_hal_uart.o
    0x080055dc   0x080055dc   0x00000090   Code   RO         2865    .text._bHalUartDetectIdle  b_hal_uart.o
    0x0800566c   0x0800566c   0x00000016   Code   RO         1528    .text._bHalUartIdleCb  b_drv_esp12f.o
    0x08005682   0x08005682   0x00000052   Code   RO         3011    .text._bHttpResult  b_srv_tcpip.o
    0x080056d4   0x080056d4   0x000005b0   Code   RO         3009    .text._bHttpTaskFunc  b_srv_tcpip.o
    0x08005c84   0x08005c84   0x00000002   Code   RO         3013    .text._bHttpTransCb  b_srv_tcpip.o
    0x08005c86   0x08005c86   0x00000002   PAD
    0x08005c88   0x08005c88   0x00000044   Code   RO         1534    .text._bJoinAp      b_drv_esp12f.o
    0x08005ccc   0x08005ccc   0x00000074   Code   RO         1781    .text._bKVCopyData  b_mod_kv.o
    0x08005d40   0x08005d40   0x00000054   Code   RO         1757    .text._bKVEraseSector  b_mod_kv.o
    0x08005d94   0x08005d94   0x0000023a   Code   RO         1765    .text._bKVFindKey   b_mod_kv.o
    0x08005fce   0x08005fce   0x00000002   PAD
    0x08005fd0   0x08005fd0   0x00000102   Code   RO         1779    .text._bKVFindMessyEmptySector  b_mod_kv.o
    0x080060d2   0x080060d2   0x00000002   PAD
    0x080060d4   0x080060d4   0x00000036   Code   RO         1783    .text._bKVKey2hex8  b_mod_kv.o
    0x0800610a   0x0800610a   0x00000034   Code   RO         1767    .text._bKVReadDataHead  b_mod_kv.o
    0x0800613e   0x0800613e   0x00000054   Code   RO         1755    .text._bKVReadSectorHead  b_mod_kv.o
    0x08006192   0x08006192   0x00000002   PAD
    0x08006194   0x08006194   0x0000027a   Code   RO         1761    .text._bKVSectorDefrag  b_mod_kv.o
    0x0800640e   0x0800640e   0x00000002   PAD
    0x08006410   0x08006410   0x00000094   Code   RO         1773    .text._bKVSetDataState  b_mod_kv.o
    0x080064a4   0x080064a4   0x0000005c   Code   RO         1759    .text._bKVSetSectorFlag  b_mod_kv.o
    0x08006500   0x08006500   0x000000a0   Code   RO         1775    .text._bKVSetSectorState  b_mod_kv.o
    0x080065a0   0x080065a0   0x00000026   Code   RO         1578    .text._bKeyRead     b_drv_key.o
    0x080065c6   0x080065c6   0x00000098   Code   RO         1676    .text._bLcdWriteCmd  b_drv_st7789.o
    0x0800665e   0x0800665e   0x00000098   Code   RO         1678    .text._bLcdWriteData  b_drv_st7789.o
    0x080066f6   0x080066f6   0x0000004a   Code   RO         1680    .text._bLcdWriteGRam  b_drv_st7789.o
    0x08006740   0x08006740   0x00000038   Code   RO         1538    .text._bLocalTcpServer  b_drv_esp12f.o
    0x08006778   0x08006778   0x00000002   Code   RO         3005    .text._bNtpConnCallback  b_srv_tcpip.o
    0x0800677a   0x0800677a   0x00000002   PAD
