:020000040800F2
:1000000010700020A1010008FD2E0008E92E000854
:10001000F92E000861160008793E00080000000073
:100020000000000000000000000000001531000882
:100030006316000800000000FF2E000817310008BA
:10004000BB010008BB010008BB010008BB010008A0
:10005000BB010008BB010008BB010008BB01000890
:10006000BB010008BB010008BB010008BB01000880
:10007000BB010008BB010008BB010008BB01000870
:10008000BB010008BB010008BB010008BB01000860
:10009000BB010008BB010008BB010008BB01000850
:1000A000BB010008BB010008BB010008BB01000840
:1000B000BB0100080000000000000000BB010008B8
:1000C000BB010008BB010008BB010008BB01000820
:1000D000BB0100086D3E0008BB010008BB01000821
:1000E000BB010008BB010008000000000000000088
:1000F0000000000000000000000000000000000000
:1001000000000000BB01000800000000BB01000867
:100110000000000000000000BB010008BB01000857
:10012000BB010008BB010008BB010008BB010008BF
:10013000BB010008000000000000000000000000FB
:10014000BB010008BB010008BB0100080000000063
:10015000BB010008BB010008EB2E0008BB01000832
:10016000BB010008BB010008BB0100080000000043
:10017000BB010008BB0100080000000000000000F7
:10018000BB010008BB010008BB010008DFF80CD070
:1001900001F006F80048004731DB0008107000202D
:1001A0000648804706480047FEE7FEE7FEE7FEE711
:1001B000FEE7FEE7FEE7FEE7FEE7FEE7A731000801
:1001C0008D0100082DE9F05F0546002092469B4610
:1001D00088460646814640241BE02846414647465D
:1001E000224600F037FE53465A46C01A914110D3BA
:1001F00011461846224600F01EFE2D1A67EB010834
:100200004F4622460120002100F015FE17EB0009A1
:100210004E41201EA4F10104DFDC484631462A4647
:10022000434600F000B830BCBDE8C09F2DE9F04166
:100230000024061B254671F1000605DA012400277B
:10024000D0EB070067EB0101161E73F1000605DA1B
:100250000027D2EB0702012567EB0303FFF7B2FF8C
:1002600086460E4617469C46AC4204D00025D0EB8D
:10027000050E65EB010624B10020D2EB000760EB10
:10028000030C704631463A466346BDE8F081A0F162
:100290004101192900D82030704740EA01039B072B
:1002A00003D009E008C9121F08C0042AFAD203E0EB
:1002B00011F8013B00F8013B521EF9D27047D2B24F
:1002C00001E000F8012B491EFBD270470022F6E73F
:1002D00010B513460A4604461946FFF7F0FF2046BC
:1002E00010BD30B505462A460B4612F8010B13F82F
:1002F000014B08B1A042F8D01CB1002802D06D1CFF
:10030000F1E7284630BD10B5044604E00B7800F84C
:10031000013B03B1491C521EF8D2204610BDCAB29F
:10032000401E10F8011F8A4202D00029F9D1002096
:100330007047421C10F8011B0029FBD1801A70473E
:1003400010B5002200E0521C835C8C5CA34201D1FA
:10035000002BF8D1D8B2E1B2401A10BD034611F813
:10036000012B00F8012B002AF9D11846704730B54F
:1003700005460020034600E05B1C934205D2EC5C7E
:10038000C85C201A01D1002CF6D130BD0FB400B5E5
:100390008DB010A909900B9000914FF0FF300A909A
:1003A00000200C9005480690054807906A4609A869
:1003B0000F9900F085FD0DB05DF814FBDD0E00080F
:1003C000FB0E00082DE9FF5F1D464FF0FF3BD5E90E
:1003D000014691465F464FF00008A9697F1C0198CD
:1003E0008847296A824688470028F6D1BAF1FF3F3C
:1003F0000CD024F4C064002E19DD600614D5BAF1C7
:100400002B0F09D0BAF12D0F0ED103E0584604B0DE
:1004100000F07EB844F48064A9697F1C0198884785
:10042000761E8246002E02DDBAF1300F03D0B9F1FC
:10043000000F26D032E0A969761E44F400747F1CB8
:10044000019888478246002E05DDBAF1780F06D064
:10045000BAF1580F03D0B9F1000F10D01EE0B9F176
:10046000000F02D0B9F1100F18D1A969761E24F43B
:1004700000747F1C019888478246102002E0082003
:1004800000E00A20814609E008FB0908A969761EF8
:1004900044F400747F1C019888478246002E05DDD5
:1004A0004946504600F0F8FC0028EDDAE969019869
:1004B0008847A00502D46FF00100A8E7E00725D126
:1004C000600613D5600502D5C8F1000000E0404683
:1004D00029680A1D2A600968220501D5087015E0FF
:1004E000220701D5088011E008600FE02868011D8F
:1004F00029600068210502D580F8008006E0210708
:1005000002D5A0F8008001E0C0F8008038467EE700
:1005100030BCBDE8C09F2DE9FF5FD2E901A74FF0D5
:100520000008916999461446DDF838B046460198AE
:100530008847054659EA0B0005D009E0A169761CF9
:10054000019888470546216A284688470028F5D142
:10055000681C03D05FEACA7005D015E04FF0FF3089
:1005600004B000F048B82068011D2160D0F8008078
:100570000AE05FEACA7001D108F8015BA169761C44
:100580007F1E019888470546002F1ADD681C18D089
:10059000B9F1000F0DD0E81705EBD060421120F043
:1005A0001F0059F822102A1A012090400142E0D180
:1005B00007E0BBF1000FDCD1216A284688470028FC
:1005C000D7D0E16901988847BBF1000F07D1002E11
:1005D00005DD5FEACA7002D1002188F80010A0682A
:1005E000B84203DDBBF1000F03D017B16FF001007B
:1005F000B6E73046B4E730BCBDE8C09F2DE9FF4FF9
:10060000087883B09946FF2805D0491C2D2804D0CE
:100610000024002008E000200BE00124F9E700EBB3
:10062000800003EB4000491C0B78FF2BF7D104B18D
:10063000404200230293147819461D462D2C01D008
:100640002B2C04D1521C2D2C13D000240294AA462A
:100650001478FF2C0FD00A25A3FB057801FB058138
:100660004FF0000C03FB0C11521CE3194AEB010183
:10067000EEE70124EAE7814453EA010002D019F5CC
:10068000C87F06DA03980021C0E9001107B000F026
:1006900065B90025AE4E2F46DFF8B882184600F047
:1006A00026FDCDE90001B9F1000002DAC9F100042C
:1006B00000E004460023A74A1AEB030B42EB045A5E
:1006C00012E0E00707D02A4633463846414600F09C
:1006D00004FA074688462A4633461046194600F073
:1006E000FCF905460E466410002CEAD1DDE9000154
:1006F000B9F1000F5A46534606DA00F063FA3A465B
:10070000434600F05FFA05E000F0E7F93A46434659
:1007100000F0E3F9029A0AB181F00041039AC2E9BC
:100720000001B3E72DE9FF4F1F468DB0D7E9014621
:100730004FF0FF382E2045464FF000090B90B96965
:100740006D1C0E988847396A824688470028F6D182
:10075000BAF1FF3F0AD024F4D064002E11DDBAF1C3
:100760002B0F08D0BAF12D0F0BD102E0404611B08B
:100770008DE744F48064B9696D1C0E988847824601
:10078000761E6946600501D52D2000E02B208DF8EE
:10079000000001F1010B0DF1200809E0B9696D1CA1
:1007A0000E98884782460F9844F40074761E0560C0
:1007B000002E02DDBAF1300FF0D00B998A453ED100
:1007C00044F0800406E00F99681CA9F1010944F483
:1007D00000740860B9696D1C761E0E9888478246C1
:1007E0003028F0D02BE00B998A4505D1200603D4A0
:1007F00044F08004761E18E050460FF08AFF08B3DC
:100800000DF11302761EAAF1300044F400749345F2
:1008100006D20BF8010B200607D5A9F1010003E071
:10082000200602D409F101008146A00502D50F99E6
:10083000681C0860B9696D1C0E9888478246002EB6
:10084000D1DC53E0002E51DDBAF1650F02D0BAF1D0
:10085000450F4BD1A00549D5B9696D1C24F44074EE
:10086000761E0E9888478246002E0CDD2B2804D079
:10087000BAF12D0F07D144F48074B9696D1C0E983C
:1008800088478246761EE00501D52D2100E02B2108
:1008900008F8011BCDF82C8021E00DF12901761E0E
:1008A00044F4007488450CD2AAF1300010F0FF0027
:1008B00088F8000002D10B99884509D908F1010890
:1008C00006E0E00501D5244801E042F20F708146C0
:1008D000B9696D1C0E98884782460F980560002EF6
:1008E00004DD50460FF015FF0028D6D1F9690E98A7
:1008F0008847FF208BF8000088F800000020069051
:1009000007904B466A4608A906A8FFF777FEA005A0
:1009100002D46FF001002AE714F0240F0AD0E00798
:1009200014D1DDE906123868031D3B600068C0E998
:1009300000120BE0DDE9060100F016FC0146E007BD
:1009400004D13868021D3A600068016028460EE74D
:10095000000014400000F03FF1D8FFFF30BCBDE8BC
:10096000C08F70B506460FF0E7FD046805460A2201
:100970000021304600F026FB2C6070BD2DE9FE4FB3
:10098000804681EA0300C00F0C46009021F0004130
:1009900023F00045B8EB0200A94105D240462146AC
:1009A00090461C460B46024623F00040104347D0B9
:1009B000270DC7F30A00C3F30A510290401A0190B1
:1009C00040286BDAC3F3130040F4801B0098924672
:1009D00020B10023D2EB030A63EB0B0B01985946BD
:1009E000C0F14002504600F026FA06460D46504639
:1009F0005946019A00F03EFA10EB080061410024CC
:100A000087EA115284EAE7731A4340D0009A62B32E
:100A1000019A012A4FEA075215DC001B61EB020123
:100A20004FF0004202EA0752CDE90042001C41F5B6
:100A3000801132462B4600F00CFB03B000F045B8A5
:100A400040462146F9E7001B61EB0201001C41F51D
:100A5000801300185B412018A2F5001747EB030133
:100A600040EAD570B6196D4111E06D084FEA3606BF
:100A700045EAC0754FEA0752001B61EB0201001CFA
:100A800041F5801149084FEA3000001951413246C2
:100A90002B4603B000F01CB800F0CCBA009801223D
:100AA00040000023D0EB020263EBE0730098214684
:100AB0004FEAE074B8EB000061EB0401E9E783F072
:100AC00000435BE781F0004158E730BCBDE8C08FD0
:100AD00030BCBDE8C04FFFF7DFBF2DE9FE4F81EA14
:100AE000030404F0004421F0004100944FF0000B97
:100AF00023F0004350EA01045ED052EA03045BD0C5
:100B0000C3F30A54C1F30A552C44A4F2F3340194FC
:100B1000A0FB0254C1F3130141F48011C3F313038A
:100B200043F4801301FB024400FB034E840A970A3E
:100B300044EA815447EA8357A4FB076802958D0A6B
:100B400005FB07854FEA932C04FB0C542705029DF7
:100B50004FEA065847EA1637B5EB08056EEB070C67
:100B6000870E920E47EA811742EA8312A7FB020121
:100B7000B6EB0B0164EB00042B0D43EA0C335E185B
:100B800044EB1C50DA465146E7FB0201C5F313045F
:100B90004FEA0B3343EA14534FEA0432019C43EA11
:100BA0000603A4F10C040294009CCDE900B400F00B
:100BB00050FA03B000F003B800200146F9E730BC5A
:100BC000BDE8C08F2DE9F04D81EA030404F0004B2D
:100BD00021F0004514464FF0000A23F0004150EA8E
:100BE000050220D054EA01021DD0C5F30A5702467F
:100BF000C5F31303C1F31300C1F30A5640F4801583
:100C000043F48013A7EB0608101BD64608F2FD3804
:100C100073EB050002D308F1010801E092185B4173
:100C2000B8F1000F03DA00200146BDE8F08D002086
:100C30004FF48011064684460EE0171B73EB050740
:100C400005D3121B63EB050306434CEA010C49086C
:100C50004FEA300092185B4150EA0107EDD152EAA9
:100C6000030012D082EA040083EA0501084305D09C
:100C7000101BAB4106D20122002306E000224FF0F8
:100C8000004302E06FF0010253101AEB06004CEB38
:100C9000085110EB0A0041EB0B01BDE8F04D00F0EC
:100CA000C9B930B5041E71F1000404DB4FF00044F3
:100CB000404264EB0101141E73F1000405DB1C4685
:100CC0004FF00043524263EB0403801A994101D371
:100CD000012030BD002030BD30B5041E71F100048C
:100CE00004DB4FF00044404264EB0101141E73F139
:100CF000000405DB1C464FF00043524263EB040343
:100D0000101A8B4101D3012030BD002030BD0EB53B
:100D100040F2334102910021CDE900110A460B4611
:100D200000F097F903B000BD3EB5CA17CB0F002401
:100D300050405140C0186141DA0740F233430094FB
:100D4000CDE901232246234600F083F903B030BDEC
:100D500070B5C1F30A5201F000450024C1F313013C
:100D600040F2FF3341F480119A4201DA002070BD55
:100D700040F233439A42A2F2334203DC524200F083
:100D800069F800E090402C43F1D0404270BDC1F3BF
:100D90000A5210B5C1F3130140F2FF3341F4801140
:100DA0009A4201DA002010BD40F233439A42A2F287
:100DB000334203DC524200F04DF810BD904010BDAC
:100DC00070B5C1F30A5201F000450024C1F31301CC
:100DD00040F2FF3341F480119A4202DA00200146CA
:100DE00070BD40F233439A42A2F2334203DC5242D6
:100DF00000F030F801E000F01EF82C43F0D00023A2
:100E0000D0EB030063EB010170BD30B50B4601462A
:100E100000202022012409E021FA02F59D4205D399
:100E200003FA02F5491B04FA02F52844151EA2F143
:100E30000102F1DC30BD202A04DB203A00FA02F185
:100E4000002070479140C2F1200320FA03F31943B8
:100E500090407047202A04DB203A21FA02F000215A
:100E6000704721FA02F3D040C2F1200291400843BA
:100E700019467047202A06DBCB17203A41FA02F0C8
:100E800043EAE07306E041FA02F3D040C2F12002E7
:100E900091400843194670473A2800D2303820F074
:100EA0002002412A01D3A2F13700884201D34FF03A
:100EB000FF3070470268114413780160184670478C
:100EC000D160044951610449116200211161114648
:100ED00000F086B9B50E0008CD110008426842B195
:100EE000016811F8013B23B1521EC0E900121846F7
:100EF00070470121C160881E704742685AB1C368BB
:100F0000016843B983688B4205D0491E521CC0E971
:100F10000012002070474FF0FF3070470FB40B00F5
:100F200010B58AB00FA900910E994FF00004234A22
:100F3000CC60214CCDE9064200D004236FF0004282
:100F4000CDE901321E4A089202466B460020FFF7A7
:100F5000E9FB0AB010BC5DF814FBF0B585B007469C
:100F60004FF0FF300091CDE901011E4600201546EB
:100F70000C4604903B466A46314604A8FFF7CEFF74
:100F800004990346601825B109B1024600E02246E3
:100F90002A6000290ED0002B02DD0099814209D081
:100FA0000094001BCDE901043B466A46314604A883
:100FB000FFF7B4FF05B0F0BDDD0E0008FB0E000822
:100FC000CD1100082DE9F04791460F4680460446B2
:100FD000002614F8015B2DB100F0F4F80068405DC4
:100FE000C007F6D12B2D02D02D2D18D0641E4A46F5
:100FF0003946204600F08DFA27B13968A14201D167
:10100000C7F8008071054FF002040BD5404200285C
:1010100003DD0FF091FA0460A007BDE8F08746F405
:101020008066E4E70028F8DA0FF086FA04606FF0D3
:101030000040F2E710B5141E73F1000408DA401CFA
:1010400041F1000192185B411A4301D120F00100E7
:1010500010BD2DE9F04D92469B4611B1B1FA81F2D7
:1010600002E0B0FA80F220329046FFF7E4FE044638
:101070000F4640EA0A0041EA0B0153465A4608432C
:1010800013D0114653EA010019D0C8F1400250466E
:10109000FFF7E0FE05460E46504659464246FFF72A
:1010A000CAFE084305D0012004E020463946BDE8C9
:1010B000F08D0020054346EAE0762C4337430A983A
:1010C0006305E40AA0EB08000022FD0A44EA475445
:1010D0000A3002D500200146E9E7010510196941EF
:1010E000DDE9084500196941BDE8F04DA2E70EB5FC
:1010F00040F2334202920022CDE900221346FFF76C
:10110000A8FF03B000BDC1F30A52C1F3130140F2BE
:10111000FF3341F480119A4202DA00200146704701
:1011200040F233439A42A2F2334202DC5242FFF7CA
:1011300091BEFFF780BE000030B5041E71F10004BF
:1011400004DB4FF00044404264EB0101141E73F1D4
:10115000000405DB1C464FF00043524263EB0403DE
:10116000994208BF904230BD01F0004330B421F0F5
:10117000004150EA010206D00A0DA2F56072C1F3E7
:101180001301002A02DC30BC00207047440F44EAFF
:10119000C104C100E01830BC00EBC25000F00BBA33
:1011A000064C074D06E0E06840F0010394E80700B4
:1011B00098471034AC42F6D3FEF7ECFF70470108B5
:1011C0009047010800487047F80E010810B5044622
:1011D000FFF7F8FF0068005D00F0010010BD00009F
:1011E0002DE9F34F8BB04FF0000801F10C000C46D5
:1011F0004FF0010B46460DF1080A0190626901218A
:1012000001989047051E2DD0252D2CD0216A8847A6
:10121000C0B16269012101989047216A884700287E
:10122000F7D1411E62690198904700E0761CA169E0
:101230000B988847216A88470028F7D1E1690B9805
:101240008847DBE7A1690B9888470746A84201D188
:10125000761CD3E7E1690B9888477F1C02D1B8F16F
:10126000000F6FD046E1002762693D46394601987C
:1012700090472A2804D162690121019890470125ED
:10128000DFF884926269012101989047A0F1300152
:101290000A290AD24F45E5DC07EB870100EB41073D
:1012A000303FDFD445F01005ECE7E90601D46FF0DC
:1012B00000476C280AD04C2814D0682815D06A281A
:1012C0000DD074281CD07A281AD01DE06269012143
:1012D000019890476C2802D045F0040514E045F0D1
:1012E00002050DE045F020050AE062690121019840
:1012F0009047682802D045F0080505E045F40065F0
:101300006269012101989047C4E9015765283DD0E1
:1013100019DC58287AD00CDC452837D004DC252885
:1013200026D0412831D131E046282FD047282CD172
:101330002CE05B2877D0612828D063287CD06428F3
:1013400023D15AE0D0E06F2848D008DC66281DD0B1
:1013500067281BD0692821D06E2816D127E0702875
:1013600045D0732868D0752847D078280DD14DE036
:10137000A1690B988847054625283FF469AFE169C4
:101380000B9888476D1C3FF46AAFB3E023466A466A
:101390006FF001000B99FFF7C5F99EE045F04000A2
:1013A0006060A80723464FF0000236D43EE0E8070D
:1013B0007FF447AF2068011D21600068290501D531
:1013C00006701BE7290701D5068017E7A90703D593
:1013D000F117C0E9006111E706600FE745F0400032
:1013E0006060A80723464FF0080216D41EE040F6BE
:1013F0000E0125EA0100606016E045F040006060E3
:10140000A80723464FF00A0207D40FE045F040003A
:101410006060A80708D5234610226FF001000B99E1
:10142000AFF3008059E007E0234610226FF001007F
:101430000B99FEF7C7FF50E04FF000094F464B46AF
:10144000632802D05B2806D040E0E80601D40120E2
:10145000A06001273AE062690121019890475E2867
:1014600005D14FF001096269494601989047216909
:1014700039B900210A46534643F82120491C08295E
:10148000FADBB0B3216969B9C11700EBD16253111E
:101490000AEB830122F01F02821A01200B689040A0
:1014A00003430B6062690121019890475D28E8D1F0
:1014B000B9F1000F09D00020514651F82020D24345
:1014C00041F82020401C0828F7DB02AB2246009799
:1014D0006FF001000B99FFF71EF800280CDA401C92
:1014E00008D1BBF1000F05D04FF0FF300DB000F078
:1014F0000DB8FFE74046F9E7E90701D108F1010817
:1015000006444FF0000B79E6CCCCCC0C30BCBDE8E7
:10151000C08F2DE9F05F82460078002715468B4684
:101520000AF10104B946302801D09DB113E014F846
:10153000010B0127782803D0582801D045B10AE0D3
:101540000DB1102D07D10027102514F8010B02E072
:10155000082500E00A250026B0460EE005FB08003D
:1015600005FB06F1012701EB10461FFA80F8B6F5DE
:10157000803F00D3B94614F8010B2946FFF78CFCD5
:101580000028EBDABBF1000F05D00FB1641E00E0BC
:101590005446CBF80040B9F1000F06D00EF0CCFF56
:1015A00002210160C81E00F003B848EA0640FAE7CD
:1015B00030BCBDE8C09F0029A8BF7047401C49004F
:1015C00008BF20F00100704710B4B0FA80FC00FAA8
:1015D0000CF050EA010404BF10BC704749B1CCF1D3
:1015E000200421FA04F411FA0CF118BF012121435F
:1015F0000843A3EB0C01CB1D4FEA00614FEA10201A
:1016000042BF002010BC704700EBC35010440029BB
:10161000A4BF10BC7047401C490008BF20F0010067
:1016200010BC704730B58C1810F8012B12F00F0366
:1016300001D110F8013B120906D110F8012B03E08B
:1016400010F8015B01F8015B5B1EF9D101E001F8C4
:10165000013B521EFBD1A142E6D3002030BD000069
:10166000FEE77047000000002DE9F04194B0044609
:1016700000880D46E12879D038B100202080C4E9E7
:101680000100C4E90300032085E009F0CDF99FEDD6
:10169000440B024612A80B4609F0BEF89DF84B0019
:1016A000BDF848209DF84A309DF84C7002AE00907D
:1016B0003DA1304601970EF011FF00201421324663
:1016C0004FF0000802F0EEFA9DF84D209DF84E30E4
:1016D0009DF84F703AA1304600970EF0FFFE0020B3
:1016E0002821324602F0DEFA06F000FF024638A159
:1016F00030460EF0F3FE00203C21324602F0D2FAD2
:10170000286828B3EA689FED260B12A8002309F089
:1017100083F89DF84D209DF84E309DF84F7002AE35
:101720002EA1304600970EF0D9FE002064213246EB
:1017300002F0B8FA95E88C002EA1304600970EF022
:10174000CDFE00208221324602F0ACFAC5F80080BE
:10175000E06848B906F017FF04F1040C4FF47A7101
:10176000012200238CE80F00E120208006F00BFF0F
:10177000D4E90112401A90420CD306F004FFD4E9D8
:101780000112401A904224BF6FF001002061002036
:10179000E0607AE7002014B0BDE8F08100BF00BF30
:1017A0000000000000002040253034642D25303238
:1017B000642D253032642020253032640000000082
:1017C000253032643A253032643A253032640000E4
:1017D000667265653A2536640000000075706461C4
:1017E00074653A253032643A253032643A25303215
:1017F00064000000252E36732025336420253264D2
:1018000025250000EFF3108072B600BFFEE7014609
:1018100090F82500022815D10868D1E910C30268A4
:1018200022F00E020260026822F00102026003F060
:101830001C00012202FA00F0CCF80400002081F81C
:10184000252002E00420C8630120002281F8242022
:10185000704780B590F82510022920D10168D0F892
:1018600038E0D0E910C30A68BEF1000F22F00E0282
:101870000A600A6822F001020A6003F01C014FF0BE
:10188000010202FA01F1CCF804104FF0000180F8D7
:10189000252080F8241005D0F047002102E0042123
:1018A000C1630121084680BD2DE9F04F84B00C686A
:1018B0000190002C00F0E180019841F2000600F157
:1018C0003842C4F600068E464FEAB2270721B042DE
:1018D00008BF0421042F4FF000054FF001074FF01F
:1018E00000064FF0000838BF4FEAB2210091CDF852
:1018F00008E000BFA7F1010A012000FA0AF214EA89
:10190000020900F0AC80DEF804C00CF0030BABF170
:101910000104012C16D80198744681680323E468F9
:10192000B3409943B4402143816041684FEA480E77
:101930009143CCF3001202FA0AF20446D843114351
:1019400061600BE00321B140019CC843BBF1030F70
:10195000B64603D1B6464FF0030B23E0E168029B85
:1019600001409A68BBF1020F02FA0EF241EA02014D
:10197000E16017D16FF0030101EA5A01214405F03B
:101980001C040F22D1F820C002FA04FB1A692CEAC9
:101990000B0CA24042EA0C02019C0A62D3F804C07C
:1019A0000CF0030B21680BFA0EF201401143216089
:1019B000DDF808E01CF4403F51D041F26000C4F271
:1019C0000200016840F2004C41F001010160016831
:1019D000C4F2010C01F00101039103992AF0030103
:1019E0004FF6084A6144CFF6FF7A05F00C030F204A
:1019F00051F80A2000FA03F40098A24300FA03F316
:101A00001A4341F80A20DCF80810DEF8042041EA05
:101A1000090340F20C40D40258BF21EA0903CCF874
:101A20000830C4F201000168940241EA090358BF7A
:101A300021EA09030360DCF80410940341EA090376
:101A400058BF21EA0903CCF80430DCF80010D203B7
:101A500041EA090358BF21EA0903CCF80030DEF857
:101A6000004008F1010834FA07F106F1020607F117
:101A7000010705F104057FF43DAF04B000F000B8A4
:101A800030BCBDE8C08F1823002A08BF2823C150EE
:101A9000704746F20C00C2F200000068704740F246
:101AA000891046F20C01C2F20000C2F20001007877
:101AB0000A6810440860704780B5032000F087F87A
:101AC000002000F007F808B1012080BD00F02CF8DC
:101AD000002080BDB0B540F28911C2F20001097842
:101AE000F9B1044640F20400C2F200004FF47A72E9
:101AF0000068B2FBF1F1B0FBF1F000F072FF0F2CC7
:101B00004FF001050ED868B94FF0FF302146002292
:101B1000002500F031F840F28C10C2F200000460A1
:101B200000E001252846B0BD82B041F25800C4F261
:101B30000200816841F001018160816801F00101CA
:101B400001910199016841F080510160006800F045
:101B500080500090009802B0704700280BD400F02D
:101B60001F01012202FA01F14EF200124009CEF2E9
:101B7000000242F82010704710B54EF60C5CCEF211
:101B8000000CDCF80030C3F3022E8EF00704042CA6
:101B900028BF0424BEF103034FF0FF3E0EFA04F405
:101BA00038BF0023A14399400EFA03F39A4300F093
:101BB0000F03043B1143634409010C3300F16042FD
:101BC000B0F1FF3FC8BF02F56443197010BD4EF677
:101BD0000C51CEF200010A684FF6FF031A4060F381
:101BE0000A2242F0806040F0FD70086070470000FB
:101BF00047F20001C4F200010A68B0F5007F02F468
:101C0000C06025D1B0F5007F2AD00868012262F3B8
:101C10004A20086040F20400C2F20000006832234B
:101C200058434DF68363C4F21B33A0FB030302EB5E
:101C3000934000BF4B69421E824203D213F480607E
:101C40001046F7D14869400544BF0320704707E0BC
:101C5000B0F5806F04D00868022262F34A20086061
:101C60000020704747F20000C4F20000006800F452
:101C7000C06070472DE9F04182B00446FFF709FFCC
:101C80002CB1064694F8410018B1A06C0AE001207E
:101C900047E0002084F84000204600F045F841F27B
:101CA0008830A0642168A2680B686FF0FF0523F4F8
:101CB000706305EB02221A430A600090204620213F
:101CC000002233464FF0000801F01AF938BBD4E97E
:101CD0000012D4E9033C0E684FF62F75C0F2FF05E1
:101CE0002E40D4E90757334343EA02622A433A437A
:101CF0000A604A684FF6FE03CFF6E0731A40D4E953
:101D000005371A4342EA0C423A434A600A6842F0F5
:101D100001020A600121C4F8448084F8411084F86B
:101D2000408002B0BDE8F08110B586B0044601A83D
:101D30001421FEF7CBFA206841F20001CAF200013B
:101D4000884227D141F24C00C4F20200416841F4BC
:101D500080714160416801F48071009100990168CF
:101D600041F002010160006801A900F0020000904A
:101D7000009840F60340019002200290002003905A
:101D8000032004900A20059040F20040C4F60000B1
:101D9000FFF78AFD06B010BD2DE9F04381B004467F
:101DA000407841F20C070007C4F202071BD5606CB3
:101DB00068B1B0F5400F11D0B0F5000F40F00E81C2
:101DC000386840F4803038604FF4000006E0201D91
:101DD000002101F0C5F8814638B9606CF96F21F433
:101DE00040010843F8674FF00009A078800757D5F5
:101DF000F86CC0000BD4F86C4FF0010840F0805034
:101E0000F864F86C00F080500090009801E04FF00A
:101E1000000847F20005C4F20005286840F480700D
:101E20002860FFF736FE06462868C00507D4FFF78E
:101E300030FE801B0228F7D94FF0030929E0B9F1E1
:101E4000000F26D1D7F8840010F4407017D0A16D90
:101E5000884211D0D7F88400D7F8841020F440705D
:101E600041F48031C7F88410D7F8841021F4803110
:101E7000C7F88410C7F88400C00740F0B280D7F8D4
:101E80008400A16D20F4407008434FF00009C7F8AA
:101E90008400B8F1000F03D0F86C20F08050F86493
:101EA0002168C80705D0F86F226A20F003001043AC
:101EB000F867880705D5F86F626A20F00C001043B8
:101EC000F867480705D5F86FA26A20F03000104384
:101ED000F867880605D5F86FE26A20F44060104381
:101EE000F867880505D5F86FE26B20F440201043B1
:101EF000F867480505D5F86F226C20F440101043B0
:101F0000F867480605D5F86F226B20F4405010435F
:101F1000F867080605D5F86F626B20F4404010435F
:101F2000F867C80505D5F86FA26B20F44030104360
:101F3000F867080318D5FA6FA06C22F040620243DC
:101F4000B0F1806FFA6707D0B0F1006F0CD138683C
:101F500040F48010386007E0201D012101F000F8F6
:101F60002168002818BF8146480318D5FA6FE06C35
:101F700022F040620243B0F1806FFA6707D0B0F1FF
:101F8000006F0CD1386840F48010386007E0201DE5
:101F9000012100F0E5FF2168002818BF81464804B0
:101FA00010D5F86F226D20F040501043B2F1805FE1
:101FB000F86707D1201D022100F0D2FF2168002818
:101FC00018BF8146080405D5F86F616D20F0804088
:101FD0000843F867484601B0BDE8F0834FF00109B7
:101FE00003E7FFF756FD064641F288354FF0030937
:101FF000D7F8840080073FF542AFFFF74AFD801B0A
:10200000A842F5D945E700002DE9F04381B000284A
:1020100000F0A48042F20008C4F202080446D8F896
:1020200000000D4600F0070088420DD2D8F80000ED
:1020300020F007002843C8F80000D8F8000000F09E
:102040000700A84240F08A80206841F20809C107D1
:10205000C4F2020932D06068022806D0032809D1F0
:1020600059F8081C89010DD478E059F8081C890337
:1020700008D473E059F8081C10B1490502D46DE08A
:1020800089076BD5D9F8001021F003010843C9F87E
:102090000000FFF7FEFC064641F28837D9F8000041
:1020A000616800F00C00B0EB810F06D0FFF7F1FC87
:1020B000801BB842F2D9032051E02068810707D580
:1020C000D9F80010A26821F0F0011143C9F80010FE
:1020D000D8F8001001F00701A9420CD9D8F8001077
:1020E00021F007012943C8F80010D8F8001001F0CA
:1020F0000701A94232D1410707D5D9F80010E2689B
:1021000021F4E0611143C9F80010000708D5D9F89F
:102110000000216920F4605040EAC100C9F80000C5
:1021200000F04AF8D9F8001040F63872C1F30311F4
:10213000C0F60102515C40F2040201F01F0120FAD6
:1021400001F140F28C10C2F200000068C2F20002FD
:10215000116001B0BDE8F043FFF7BCBC012001B045
:10216000BDE8F08340F2040041F20801C2F2000031
:10217000C4F202010068096840F64872C1F3022106
:10218000C0F60102515C01F01F01C840704740F2E7
:10219000040041F20801C2F20000C4F2020100682A
:1021A000096840F64872C1F3C221C0F60102515CD1
:1021B00001F01F01C840704741F20001C4F2020162
:1021C000886810F00C02C86805D00C2A27D100F0EE
:1021D0000300012823D10868000703D4D1F8940034
:1021E000000A01E00868000940F6647300F00F007F
:1021F000C0F6010353F82030002A184618BF00200B
:102200000C2A18BF7047C86800F0030002280FD0DE
:10221000032804BF41F20023C0F27A030CE0042A31
:102220001DD0082A20D141F20020C0F27A00704768
:1022300042F20043C0F2F403C868C0F30210CA6857
:102240000130C2F30622C9685A43B2FBF0F0C1F371
:102250004161022202EB4101B0FBF1F0704742F212
:102260000040C0F2F400704700200023C8E70000DF
:102270002DE9F04381B0002800F05E8241F20006B3
:102280000446C4F20206B068F168227800F00C0837
:10229000D00601F0030728D42078C0075BD0B8F13E
:1022A000080F51D0B8F10C0F08BF032F4CD0656850
:1022B000B5F5803F07D03068B5F5A02F40F07982A2
:1022C00040F480203060306840F480303060FFF7A8
:1022D000E0FB0546306880033DD4FFF7DAFB401B86
:1022E00064284FF00300F5D927E2B8F1000F1BD0A6
:1022F000B8F10C0F08BF012F16D0A1693068002972
:1023000000F09F8140F001003060FFF7C2FB0546FE
:102310003068800700F1A881FFF7BBFB401B022853
:102320004FF00300F4D908E23068800703D5A069B4
:10233000002800F00182206A3168090700F1DF807F
:10234000D6F894100909DBE03068800303D5606893
:10235000002800F0F181207880072CD5B8F1040F17
:102360001BD0B8F10C0F08BF022F16D0E1683068FF
:10237000002900F0E58140F480703060FFF789FBB0
:10238000054600BF306840050ED4FFF782FB401BB6
:1023900002284FF00300F5D9CFE13068400503D59E
:1023A000E068002800F0C8817068216920F0F850CA
:1023B00040EA016070602078000760D42078400710
:1023C00074D42078800600F18080A06A002800F094
:1023D0004682022840F05A81F068E16A00F0030268
:1023E0008A4240F07781226B6FF00F0300F070019A
:1023F00003EB0212914240F06D81616B00F4FE42EA
:10240000B2EB012F40F06681A16B00F07842B2EB95
:10241000C16F40F05F81E26B0023CFF6E07303EA07
:10242000025200F4C001A2F50012914240F0528124
:10243000216C4FF07E4202EA016100F0C06001F1C0
:102440007E41884240F046813068800100F1078279
:10245000306840F080703060F06840F08070F0606C
:10246000FFF717FB04463068800100F1F881FFF7A1
:1024700010FB001B02284FF00300F4D95DE16169F5
:10248000D6F89400002900F0C78040F00100C6F89B
:102490009400FFF7FEFA0546D6F8940080078DD425
:1024A000FFF7F7FA401B0228F6D9B3E0B06DC00081
:1024B00074D4B06D4FF0010940F08050B065B06D3C
:1024C00000F08050009000986AE0616AD6F89800A9
:1024D000002900F0178140F00100C6F89800FFF7CE
:1024E000D8FA0546D6F8980080073FF56EAFFFF79B
:1024F000D0FA401B02284FF00300F3D91DE13168E8
:1025000001F0F001884216D900F0BFFD002840F02C
:102510001381306840F0080030603068D4E907214A
:1025200020F0F00008433060706820F47F4040EAFB
:102530000220706014E03168B8F1000F41F008012A
:102540003160316821F0F00141EA000131607168C9
:10255000E26921F47F4141EA0221716000F0E780E5
:10256000FFF72AFEB16840F63872C1F30311C0F6D6
:102570000102515C40F2040201F01F0120FA01F156
:1025800040F28C10C2F200000068C2F2000211603A
:10259000FFF7A0FA002840F0D0807DE64FF0000958
:1025A00047F20007C4F200073868C00511D4386844
:1025B00040F480703860FFF76CFA05463868C00553
:1025C00007D4FFF766FA401B02284FF00300F5D945
:1025D000B3E0A568012D08D0D6F89000052D40F095
:1025E000C18040F00400C6F89000D6F8900040F09A
:1025F0000100C6F89000FFF74CFA054641F2883713
:10260000D6F89000800700F1CB80FFF742FA401B1C
:10261000B842F5D9032090E020F00100C6F89400FC
:10262000FFF737FA054600BFD6F8940080077FF51C
:10263000C5AEFFF72EFA401B02284FF00300F3D976
:102640007BE020F001003060FFF723FA054600BF71
:10265000306880077FF520AEFFF71BFA401B022889
:102660004FF00300F4D968E0306840F008003060B3
:102670003068D4E9072120F0F0000843306070682A
:1026800020F47F4040EA0220706005E6B8F10C0FAC
:1026900052D0306820F0807030603068000103D480
:1026A000F06820F00300F060F0684FF6FF71CFF69D
:1026B000EE610840F060FFF7ECF9044630688001F5
:1026C00040F1CD80FFF7E5F9001B03284FF0030030
:1026D000F4D332E0B8F10C0F2ED0306840012BD487
:1026E000306820F080703060FFF7D3F9054630681D
:1026F000800177D5FFF7CDF9401B02284FF003008A
:10270000F5D91AE020F00100C6F89800FFF7C1F9EA
:10271000054600BFD6F8980080077FF556AEFFF754
:10272000B8F9401B02284FF00300F3D905E000F090
:10273000ACFC00283FF414AF012001B0BDE8F083E9
:1027400020F480703060FFF7A4F90546306840053A
:102750007FF531AEFFF79DF9401B02284FF00300D3
:10276000F4D9EAE720F00100C6F89000D6F890000E
:1027700020F00400C6F89000FFF78BF9002D054605
:102780007FF43CAF41F28837D6F89000800707D538
:10279000FFF77FF9401BB8424FF00300F4D9CCE7B4
:1027A000B9F1000F3FF40DAEB06D20F08050B06570
:1027B00007E620F480303060306820F480203060FC
:1027C000FFF767F9002D05467FF484AD06E0FFF7BB
:1027D00060F9401B64284FF00300AED830688003D6
:1027E000F5D4B8E5F06848F28C01C0F29D1104F10F
:1027F0002C0700EA010C8ECF6FF00F00D4E90F54C4
:1028000000EB02100022CFF6E07241EA0C0102EA6E
:1028100005520843A2F500124FF07E4540EA03201E
:1028200005EA0465104305F17E4540EAC760284388
:10283000F060306840F080703060F06840F0807088
:10284000F060FFF726F904463068800107D4FFF7EF
:1028500020F9001B02284FF00300F5D96DE7002096
:102860006BE740B1B0B50446406A30B1002020614A
:1028700004F1140007E0012070476068B0F5827F22
:1028800003D004F11C00002101600025A56294F82A
:102890005D0020B9204684F85C5000F04EF802201C
:1028A00084F85D002068D4F80CE00268BEF5E06FA3
:1028B00022F0400202604EF4006298BF0125B2F59A
:1028C000706F1CBF0023A3624FEA053CD4E90135B9
:1028D000D4E9042103F4827305F404452B4402F087
:1028E00002021A44A36901F00101E569114403F4ED
:1028F0000072114405F03802256A114405F0800287
:10290000A56A114405F40052114301600421626A72
:102910000EF4706501EA1341636B45EA0C0502F0A1
:102920001002294303F008031143194341600020BA
:102930000121206684F85D10B0BD2DE9F04387B019
:10294000044602A81421FDF7C1FC206843F60001EB
:10295000C4F20001884241D141F24C00C4F20200AD
:10296000C16840F2004441F48041C160C168C4F6CE
:10297000000401F4804101910199016802AD41F028
:102980000401016001684FF0020801F004010191A7
:10299000019901684FF0000941F0020101600068EF
:1029A000032600F00200019001980C2002900527F8
:1029B00004F580602946CDF80C80CDF8109005967E
:1029C0000697FEF771FF4FF4005002A981E801035A
:1029D00020462946CDE90567FEF766FF07B0BDE84A
:1029E000F083411E0020B0EB116F1CBF0120704727
:1029F0004EF21002CEF2000251604EF62351CEF29A
:102A00000001F0230B700721906011607047704740
:102A10007047704770B501680446C8690A6840F697
:102A20002F03D1F808E00340202B02F0200308D147
:102A30003BB1616E002900F035812046BDE8704051
:102A4000084740F60F0528420BD040F220150EF043
:102A5000010CC0F200452A428CF001064ED1002E36
:102A60004CD0236E0240D60639D5012B37D1102029
:102A700008628868400600F1B280B4F85800B4F8E3
:102A80005A20B4F85A30002B00F00C81801A02044E
:102A900000F0088151E8001F226821F4907142E89B
:102AA00000130BB12168F5E7216851E8021F226885
:102AB00021F0010142E80213002BF5D12021E1674A
:102AC00000212166616600BF216851E8001F22686D
:102AD00021F0100142E80013002BF5D1C4E0C00240
:102AE00040F1C8801EF4800000F0C4804FF48012D2
:102AF00020460A62BDE87040FFF78ABFC50718BFCD
:102B000012F4807507D001250D62D4F8805045F08D
:102B10000105C4F8805000F002054FF0010E8EEA66
:102B20005505354307D102250D62D4F8805045F094
:102B30000405C4F8805000F004058EEA95052E4384
:102B400007D104260E62D4F8806046F00206C4F86D
:102B5000806053EA0C0318BF0123060708D53BB178
:102B600008230B62D4F8803043F00803C4F88030A7
:102B700003050BD512F0806308D04FF400630B629D
:102B8000D4F8803043F02003C4F88030D4F880308B
:102B9000002B00F087801040800604D5626E12B1D1
:102BA000204690472168D4F88000896800F028000A
:102BB00001F0400140186FD0204600F09FFB2068D4
:102BC0008168490640F17D8050E8020F216820F0BD
:102BD000400041E80202002A65D02068F4E7206F37
:102BE000026853689DB2002D5CD0B4F8580085424D
:102BF00058D2A4F85A301268920632D451E8000F25
:102C0000216820F4807041E800021AB1206850E881
:102C1000000FF5E7206850E8020F216820F001005E
:102C200041E80202002AF5D1206850E8020F21682D
:102C300020F0400041E80202002AF5D12020E067A0
:102C400000202066206850E8000F216820F0100066
:102C500041E80002002AF5D1206FFEF7D8FDB4F854
:102C60005800B4F85A10401A81B22046BDE87040AE
:102C7000FFF7CDBE10060DD4500613D551E8000F56
:102C8000216820F0400041E80002FAB1206850E8D5
:102C9000000FF5E7A16ECDE62046FFF7BAFE002053
:102CA000C4F8800070BD206F58B143F2ED21C0F62A
:102CB00000018163FEF7CDFD0028F3D0206F816B0A
:102CC000BCE62046BDE87040FFF7A3BE20200021EF
:102CD000A0672046A166BDE8704000F003B910B5BA
:102CE000A0B10446806F28B9002084F87400204603
:102CF00000F025F82420A0672068016821F0010178
:102D00000160204600F0C2FB012801D1012010BD66
:102D1000606A10B1204600F04FFA2168486820F43C
:102D200090404860886820F02A008860086840F079
:102D3000010220460A60BDE8104000F0A3BA10B5B9
:102D40009EB0044619A81421FDF7C0FA02A85C2120
:102D5000FDF7BCFA206843F60001C4F20101884285
:102D60002ED048F20001C4F20001884261D1202037
:102D7000029000200D9002A8FFF70EF808B1FEF7B0
:102D800041FD41F24C00C4F202000169462441F0C9
:102D900001010161016901F00101019101990168DD
:102DA00041F0040101600068082100F00400019076
:102DB00001980320199040F60000C4F6000026E0B8
:102DC0000120029000200A9002A8FEF7E5FF08B15A
:102DD000FEF718FD41F24C00C4F2020041692524BF
:102DE00041F480414161416901F4804101910199BF
:102DF000016841F0010101600068072100F0010055
:102E0000019001984FF4C06019904FF09040022259
:102E10001A9200221B920322CDE91C2119A9FEF768
:102E200043FD204602210022FEF7A6FE2046FEF7C3
:102E300094FE1EB010BD000080B5C36F202B07D1DB
:102E40004FF0010329B122B190F87430012B02D167
:102E50000223184680BD012380F8743000230366E6
:102E6000D0F800C048F20003C4F200039C4503D030
:102E7000DCF804301B0203D400F008FC0023E8E770
:102E80005CE800CFD0F800E04CF080634EE8003CF6
:102E9000BCF1000FF0D0036853E800CFF2E780B533
:102EA00082B0012145F6C842ADF8041046F20A018D
:102EB000C2F20002C2F200019042009110D16A46B3
:102EC00044F65510082105F0D3FB45F6C84046F2FC
:102ED0000A01C2F20000C2F200010122FFF7ACFFBA
:102EE00002B080BD70470000FEE745F6C840C2F260
:102EF0000000FFF78FBD0000FEE70000FEE770470F
:102F00002DE9F04381B004460068154682680E46FC
:102F1000114018BF0121A94215D0DDF82080994643
:102F200008F101074FB1FEF7B4FDB8F1000F0CD066
:102F3000A0EB0900404508D820688168314018BFDF
:102F40000121A942EED1002007E0042084F84100CD
:102F5000606C40F001006064012001B0BDE8F083C6
:102F6000F0B581B041F20007C4F20207FA680D46DD
:102F70009107044612D0F868216800F003008842E7
:102F80004FF0010040F07F8000297CD0F868C0F34A
:102F900002106168013088420AD11DE020680328D0
:102FA00008D002283ED0012802D13968890708D408
:102FB000012068E0396889035CBF39685FEA413104
:102FC000F6D5F968626821F073016FF00F0303EB27
:102FD000021208431043F860386820F080603860BF
:102FE000FEF757FD064600BF3868000105D5FEF71D
:102FF00050FD801B0228F7D93EE0BDB1386948F288
:10300000FF01CFF6FF11012D1AD101F1B46101408A
:1030100020690023CFF6E073A26803EA0050A0F510
:10302000001016E039684905C2D5CAE7386948F288
:10303000FF01C0F2FF710140D4E90220C00608E0A0
:10304000014060694FF07E43A26803EA006000F12E
:103050007E4041EA022108433861386840F08060D0
:103060003860FEF716FD05463868000106D4FEF705
:1030700010FD401B0228F7D9032004E0A06939693C
:1030800008433861002001B0F0BDB0B582B041F214
:103090005805C4F2020529680446C9000FD42868FF
:1030A00040F080502860286800F08050019001981E
:1030B000FEF7D8FD296821F08051296001E0FEF774
:1030C000D1FDB0F5007F06D1812C08D30120A02CC2
:1030D00088BF02200DE0802C03D9032009E00020E6
:1030E00007E0A4F17000B0FA80F04009802C08BF1E
:1030F000022042F20001C4F202010A6822F0070233
:1031000002440A60096801F00701081A18BF01208B
:1031100002B0B0BD704780B5FEF7C1FCBDE880408D
:1031200005F04CBA80B596B005A84421FDF7CEF85D
:1031300068461421FDF7CAF84FF40070FEF758FDF9
:1031400018B1EFF3108072B6FEE74FF4807108916A
:1031500010210220099101210590CDE90F00119164
:103160000A2112910721CDE91310159005A8FFF748
:103170007FF820B1EFF3108072B600BFFEE70F209A
:103180000090032001900020CDE9020004906846E1
:103190000421FEF739FF20B1EFF3108072B600BFB3
:1031A000FEE716B080BD4EF68850CEF200000168F2
:1031B00041F470010160704780B5416ACA0708D0C8
:1031C0000268D0F828C0536823F4003343EA0C03A4
:1031D00053608A0708D50268D0F82CC0536823F4DE
:1031E000803343EA0C0353604A0708D50268D0F8DD
:1031F00030C0536823F4802343EA0C0353600A076A
:1032000008D50268D0F834C0536823F4004343EA79
:103210000C035360CA0608D50268D0F838C093681A
:1032200023F4805343EA0C0393608A0608D50268AE
:10323000D0F83CC0936823F4005343EA0C03936036
:103240004A0614D50268D0F840C05368BCF5801F08
:1032500023F4801343EA0C03536008D1D2F804C06E
:10326000D0F844E02CF4C00343EA0E03536009068F
:1032700058BF80BD0168806C4A6822F40022104368
:10328000486080BDB0B582B004460020C4F880001C
:10329000FEF7FFFB216805460A6812070CD56FF0A0
:1032A0007E4C20464FF4001100222B46CDF800C082
:1032B00000F054FA78B92168086840070DD56FF01E
:1032C0007E4C20464FF4800100222B46CDF800C0F2
:1032D00000F044FA08B1032006E02020A067E06770
:1032E0000020206684F8740002B0B0BD806A00211E
:1032F000A0F85A10A0F85210FFF78BBB016851E8F4
:10330000001F026821F4907142E80013002BF5D1F0
:10331000016851E8021F026821F0010142E802132E
:10332000002BF5D1016E01290AD100BF016851E8D7
:10333000001F026821F0100142E80013002BF5D1B4
:103340002021C1670021016641667047B0F85C200A
:103350000168C36F222B43D1B1F824C0436D02EA48
:103360000C0223F8022B4365B0F85A20013AA0F86A
:103370005A20B0F85A20002A18BF704751E8001FA1
:10338000026821F4907142E800130BB10168F5E77F
:10339000016851E8021F026821F0010142E80213AE
:1033A000002BF5D12021C16700214166026E012A60
:1033B00018BFFFF774BD0166016851E8001F02687D
:1033C00021F0100142E80013002BF5D10168CA6911
:1033D000D20644BF10220A62B0F85810FFF717BB9C
:1033E000088B40F00800088370470000B0F85C10BC
:1033F0000268C36F222B43D1928C436D1140197028
:10340000416D01314165B0F85A100139A0F85A10E8
:10341000B0F85A10002918BF704700BF016851E882
:10342000001F026821F4907142E80013002BF5D1CF
:10343000016851E8021F026821F0010142E802130D
:10344000002BF5D12021C16700214166026E012ABF
:1034500018BFFFF724BD0166016851E8001F02682C
:1034600021F0100142E80013002BF5D10168CA6970
:10347000D20644BF10220A62B0F85810FFF7C7BA4C
:10348000108B40F00800108370470000B0B505466F
:103490002A69D5E9021300680A436969D5F81CE076
:1034A0001143026846F6F314CEF6FF7441EA0E01AA
:1034B000224011430160416848F2000C21F4405160
:1034C00019434160AA69C4F2000C60451CBF296A17
:1034D0000A438168102321F430611143816047F66B
:1034E000FF71C4F20001884212DC44F20041C4F2D0
:1034F000000188421BD044F60001C4F2000188425A
:103500002AD141F28801C4F2020109680B091BE0CB
:10351000604513D043F60001C4F2010188421BD17B
:1035200041F28801C4F202010B6854A210E041F29A
:103530008801C4F2020109688B0805E041F28801A4
:10354000C4F2020109688B0A41F20C12C0F60102B2
:1035500003F0030152F82130604542F20040C0F20E
:10356000F40011D0BEF5004F1DD1082B4FF0010122
:1035700000F27E80DFE803F005454E7C487C7C7CD1
:103580004C00FEF7EFFD41E0082B4FF0010100F287
:103590006F80DFE803F0056D1C6D166D6D6D1A0010
:1035A000FEF7E0FD0FE0082B4FF0010160D8DFE8E7
:1035B00003F005464F5F495F5F5F4D00FEF7D2FDA8
:1035C00042E0FEF7F9FD10B94FE04FF400406A68A1
:1035D00002EB420188424FF0010149D313039842A4
:1035E00046D8010E000210EB520041F10001002309
:1035F000FCF7E8FD4FF6FF42A0F54071C0F20F0264
:103600002FE0FEF7C4FD01E0FEF7D6FD10B92CE077
:103610004FF4004069684A0802EB4000B0FBF1F04B
:103620004FF6EF72A0F11001914220D84FF6F071E1
:103630000140C0F342002A680844D06015E0FEF75C
:10364000A6FD01E0FEF7B8FD10B90EE04FF4004012
:1036500069684FF6EF7200EB5100B0FBF1F0A0F19A
:103660001001914203D82968C860002100E00121BF
:10367000002208466A66AA66B0BD00BF01000000CD
:103680000400000002000000080000004165A0F8EE
:103690005820A0F85A2081680022426651B1B1F149
:1036A000805F0BD0B1F5805F0CD1016921B940F288
:1036B000FF110AE0016939B9FF2106E0016919B17A
:1036C0003F2102E0002100E07F21A0F85C100021F2
:1036D000C0F880102221C167016851E8021F02680A
:1036E00041F0010142E80213002BF5D18268016923
:1036F000B2F5805F09D1E1B143F2ED31C0F60001CE
:103700004166002180F8741008E043F2ED32C0F603
:1037100000024266002280F8742099B1016851E8E5
:10372000001F026841F4907142E80013002BF5D1AC
:1037300012E043F24D31C0F600014166002180F8ED
:10374000741000BF016851E8001F026841F02001B9
:1037500042E80013002BF5D1002070472DE9F0431B
:1037600081B0044600681546C2690E461140891BA7
:10377000B1FA81F14909A9421ED1DDF820809946AC
:1037800008F1010787B1FEF784F9B8F1000F15D0F1
:10379000A0EB0900404511D820680168490744BFE3
:1037A000C1695FEA015121D4C1693140891BB1FA75
:1037B00081F14909A942E5D0002038E0206850E8AD
:1037C000000F216820F4D07041E80002002AF5D1F2
:1037D000206850E8020F216820F0010041E8020251
:1037E000002AF5D12020A067E0671CE04FF40061BB
:1037F000016200BF50E8000F216820F4D07041E85A
:1038000000020AB12068F5E7206850E8020F21683D
:1038100020F0010041E80202002AF5D12020A06733
:10382000E067C4F88000002084F87400032001B031
:10383000BDE8F0832DE9F04F85B045F6C445C2F2EE
:10384000000591462A680C4692F85010DDF838C001
:103850009846890706460FD5D76C304621464A461A
:103860004346AA46CDF800C0E346B847002877D0C3
:10387000DAF800205546DC46A9EB060001B2A8EBB9
:10388000040300EBE1301FB280EAE1300FFA80FB65
:1038900003EBE7304FF0FF3880EAE7300029C8BF7C
:1038A0004FF0010813680FFA80F9002F4FF0FF372F
:1038B000304621466246C8BF0127E24698475A462D
:1038C000CB45CDF810B025DAB9F1010F48DB1FFA6E
:1038D00089F02946D3463B4647080025CDF80880A5
:1038E000174438B24845A4BFA7EB09074644086807
:1038F0001C449846036830B28A4621B25A4698471B
:10390000681C4346DDF80880049A05B251464D45CF
:10391000E6DB25E0012A23DB90B229464546D44662
:10392000BB464FEA500A0027CDF80C90CA440FFA64
:103930008AF09042A4BFAAEB020A5C4408682E44B5
:103940000368884621B230B26246E1469847049A3D
:10395000781CCC46DDF80C9007B241469742E5DB77
:1039600005B000F000B830BCBDE8C08F032888BFA8
:10397000704745F6C442C2F20002126802EBC00072
:10398000C164032180F85010704700002DE9F04F0A
:1039900081B045F6C44B8246824291460F46C2F240
:1039A000000BBCBF814692468B42B8BF1F46DBF876
:1039B00000009846B8BF884690F858100A9D8907BD
:1039C0000AD5466D0FFA8AF039B20FFA89F20FFA6A
:1039D00088F30095B047A0B10FFA89F40FFA88F880
:1039E000564600BFDBF8000039B2036830B22A4601
:1039F0009847701C06B2A642F4DD781C07B2474512
:103A0000EEDD01B000F000B830BCBDE8C08F80B57D
:103A100082B045F6C441C2F2000109688446888834
:103A2000C9880138013902B20BB200200021CDF85B
:103A300000C0FFF7ABFF02B080BD80B545F6C441C2
:103A4000C2F20001096890E80C50006901F12C07EE
:103A500087E80C50C86380BDF0B5024690F90000BD
:103A6000030608605CBF0120F0BDC6B270B200233F
:103A7000B0F1FF3F4FF0000013DCC02E01D2FF2059
:103A80000FE0E02E01D202200BE0F02E01D2032045
:103A900007E0F82E01D2042003E00620FC2E38BFF8
:103AA00005200B6092F90030B3F1FF3F5FFA83FC11
:103AB000C4BF81F800C0F0BDBCF1C00FC0F0B5803C
:103AC000BCF1E00F0DD2527802F0E003802B40F001
:103AD000AC8002F03F0242EA8C120A70CCF3820200
:103AE00019E0BCF1F00F18D292F9016006F0C005A0
:103AF000802D40F09A80927802F0C005802D40F031
:103B00009480F5B202F03F0242EA85120A70C6F3D1
:103B1000830242EA03124A70F0BDBCF1F80F23D2CF
:103B200092F9016006F0C005802D7ED1D57805F0B0
:103B3000C004802C79D192F9022002F0C004802CBC
:103B400073D1D4B205F03F0545EA84150D70C2F378
:103B5000830242EA06124A7003F00702C6F3011319
:103B600043EA82028A70F0BD92F9045092F9014052
:103B700092F90330BCF1FC0F5FFA85FE24D204F009
:103B8000C005802D51D192F9022002F0C005802D90
:103B90004BD103F0C005802D47D10EF0C005802D1C
:103BA00043D1DDB20EF03F0646EA85160E70C3F330
:103BB000830343EA02134B70C2F3011242EA840208
:103BC0008A704FEA8C122FE0E4B204F0C006802E17
:103BD0002BD192F9026006F0C007802F25D103F0A7
:103BE000C007802F21D105F0C007802F1DD192F989
:103BF000052002F0C007802F18BFF0BDD7B207F034
:103C00003F0747EA8E170F70C2F3830242EA05129C
:103C10004A70C3F3011242EA86028A700CF0010274
:103C200004F03F0343EA8212CA70F0BD844601608B
:103C30008280C3804FF00410591FCCF82000501F21
:103C4000ACF82610ACF81E1045F65D41ACF8240027
:103C5000ACF81C0040F20110ACF846104FF6FF71B2
:103C6000ACF840000020CCF842100021CCF82C0029
:103C7000CCF83C00CCF83600CCF83200CCE904009B
:103C8000CCF818000CEBC10201310429D06482F891
:103C90005000F7D145F6C441C2F200010120C1F83D
:103CA00000C070472DE9F04F83B092F80090824633
:103CB0000020B9F1000F029061D045F6C440C2F275
:103CC000000005681446884602AFD34620463946B0
:103CD0004FFA89F6FFF7C0FEE98E04448E4202DBFC
:103CE000288F864205DD94F80090B9F1000FEDD1E0
:103CF00045E05FFA89F00A2804D194F80090B5F8FD
:103D000004B0F2E7EA6B12B1711A515C01E095F868
:103D10003210C00901FA00F00FFA8BF1B5F9042056
:103D200051FA80F1914206DBA98E95F94120414478
:103D300001EB0208D346E96A0029C1B216D0B5F8F2
:103D40004400B5F8423005F12C0C00900D460FFAF6
:103D50008BF10FFA88F23046CDF804C000F08AFBF0
:103D600045F6C440C2F200002946056895F94000B6
:103D700094F800900844B9F1000F8344A6D103B031
:103D800000F000B830BCBDE8C08F45F6C442014623
:103D9000C2F2000201201160704745F6C441C2F230
:103DA00000010968A1F84400704745F6C441C2F219
:103DB00000010968A1F84200704745F6C443C2F209
:103DC00000031B68588199811A727047B0B545F697
:103DD000C445C2F20005296831B391F84800C20712
:103DE0001CBF00F0FE0081F84800D1E9040488B14E
:103DF000A0420FD048618C6134B1A17D890744BFD6
:103E0000217A5FEA01711BD4017A044601F097011F
:103E10002831017244B1207A810603D5204600F092
:103E20008DFE207A000700D4B0BD204600F0C4FA11
:103E3000204600F0E9FD2046BDE8B04000F08CBA15
:103E4000E189C28991420BD1618A428A914207D1AC
:103E5000218A028A914203D1A18A828A9142D3D0D7
:103E6000204600F0FBFD28684069CDE745F6FC5090
:103E7000C2F20000FEF7CEBDFEE770B582B0044688
:103E800000880E46B0F5927F05DCB0B140F21F11FC
:103E9000884215D007E040F22911884265D040F2EF
:103EA0002511884235D0002003252080C4E9010077
:103EB000C4E90300284602B070BD40F21F10208004
:103EC00006F0B2FD8122C6F29252801A71F1000012
:103ED0004FF00005EEDB40F21800C2F2000000686F
:103EE00043F26442C0F601020021002335600095D0
:103EF00004F054FDE06848B904F045FB04F1040CFB
:103F000042F21071012200238CE80F0040F22510CC
:103F10002080306830B904F036FBD4E90112401A31
:103F2000904236D304F02FFBD4E90112401A90429C
:103F300024BF6FF001002061306800210028E1609B
:103F4000BBD006F071FDE168F06059B904F01BFBCD
:103F50004BF6002104F1040CC0F2DB010122002326
:103F60008CE80F0040F22910208004F00CFBD4E90B
:103F70000112401A90420CD304F005FBD4E901125F
:103F8000401A904224BF6FF0010020610020E060E1
:103F900093E700258EE7022808BF402A00D070472B
:103FA00040F28810C2F2000000210170704700004A
:103FB0002DE9F04F81B0012869D108680C4600282E
:103FC0005ED0A18800295BD032A11546FCF789F9A3
:103FD000002855D007F00DF8002851D02FA1064633
:103FE00006F0FAFF002848D0C168202945D10021F9
:103FF00006F0DCFF43F2C441C0F60101074606F0BB
:10400000EBFF824627A1384606F0E6FF814628A14D
:10401000384606F0E1FF804643F2DC4BDAF8100048
:10402000C0F6010B25A1C5F800B0FCF75AF924A78A
:10403000002808BF5F462F60DAF8100022A1FCF7C5
:1040400050F90FF2880B002808BFBB46C5F800B036
:10405000DAF810001FA1FCF744F91FA1002808BFDF
:1040600059462960D9F81000FCF77BFCD8F81010ED
:1040700068600846FCF775FCA860304606F070FFE3
:10408000A16821B1206801B000F02AB8084701B04A
:1040900000F02BB80D0A0D0A000000006C6976656F
:1040A0007300000074656D706572617475726500EF
:1040B00068756D696469747900000000E699B40060
:1040C00053756E6E79000000E99BA8005261696E1D
:1040D00079000000E99BAA00536E6F777900000019
:1040E00030BCBDE8C04FFFF7D1BF30BCBDE8C08FCA
:1040F0002DE9F04383B0164645F69862C2F20002FD
:104100001268002A56D007461068894601211D46CC
:1041100005F0A6FF00284DD480463046B74238BF90
:104120003846ADF8000028460A9C88BF3E46ADF8E8
:104130000460A94538BF4846ADF802006A464046CB
:104140004FF0000188BF4D46ADF80650ADF808406D
:1041500003F026FC0546404603F0B4FBB5F1FF3FF3
:1041600028DCBDF80000BDF80430984222D8BDF824
:104170000210BDF8062000BF97B28EB2BE4212D820
:1041800000B209B2224600F018F8BDF80200BDF8EE
:104190000620411C8BB2BDF800009342ADF802101E
:1041A000EED9BDF80430013087B29EB2B742ADF807
:1041B0000000E1D903B0BDE8F083F0B581B045F669
:1041C0009866C2F200060C463168ADF8022019B3B9
:1041D0000A7C8B89E743002A04BF0446D81907B23A
:1041E0009F4219DAC889844216DA0868012105F06D
:1041F00037FF002810D405463068808900FB047121
:10420000284605F069FC0DF102012846022206F05D
:1042100065FE284603F056FB01B0F0BD2DE9F04FD6
:1042200087B00C46109907460D88501E99461646D1
:104230008A4602B238462146234606920095FFF789
:10424000F9FA601CA9F10101BAF802500FFA80FBDB
:104250000FFA81F8384659463A4643460095FFF72B
:10426000E9FABAF804503846494632464B46CDF88A
:1042700010900095FFF7DEFABAF806503046214656
:104280003246434603940095FFF7D4FA781CBAF8F7
:104290000850B11E0FFA80FA0AB2504659465B46E2
:1042A00005920095FFF7C6FA1099A9F10202A01C29
:1042B0004C890FFA82F901B2504652464B460291A0
:1042C0000094FFF7B7FA1098069D8489504641463E
:1042D0002A4643460094FFF7ADFADDF840802846B1
:1042E000B8F80E4059462A464B460094FFF7A2FA0A
:1042F000B81C029DB8F81070F11E04B20AB2204634
:1043000029462B460097FFF795FA04990398CA1E91
:104310000330B8F8127016B201B220462246334676
:104320000097FFF787FA2046059CB8F814704946B5
:1043300022464B460097FFF77DFAB8F816702046E4
:104340002946224633460097FFF774FA07B000F07B
:1043500000B830BCBDE8C08F2DE9F04381B040F219
:10436000E8150446C2F200050220287020784FF0BC
:104370000009C5F80490E0B14701E846002600BFF7
:104380006068815D304401F00301022900900DD185
:10439000817E59B1C5F80480008B226BA5F801001D
:1043A0002846E9709047009880F81A902036B74266
:1043B000E6D101B0BDE8F083B0B50178002957D04F
:1043C00045F6C442C2F2000212684368B2F90AE03C
:1043D000B2F90CC0127A0833B2FA82F00EF101027F
:1043E000B2FA82F240095209104300BF13F8084C98
:1043F00013F8072C04F04B040A2C33D190B1540667
:1044000030D5940651BF42F0100202F0FE0442EA99
:10441000841242F00802D4B242EA941222F0460218
:1044200020E000BF5506B3F9005002F0620458BF07
:10443000621DAE4502F0DF0412DBB3F90450AE4555
:104440000EDCB3F90250AC450ADBB3F90650AC45BB
:1044500006DC540642F020045CBF04F0F902941C10
:1044600044F0400203F8072C013903F12003BDD1C9
:10447000B0BD00002DE9F04F87B09046119AC6B24A
:104480001C46DB2E8A4607DCC32E0DDCB02E17D06F
:10449000B52E08BFE6261AE0F52E0BDCDC2E11D077
:1044A000E42E08BF842612E0C42E0DD0D62E08BFFD
:1044B00099260CE0FC2E09D0F62E08BF942606E0C3
:1044C000F82604E09A2602E08E2600E08126518933
:1044D000B14200F2978111988089B042C0F0928178
:1044E0001198B0F9063098B2002800F08B81119D28
:1044F00042072A694FEAD0074FF0010C18BF0CEBB6
:10450000D0078446069712B1771A12F807C045F60D
:10451000C442C2F200021268DDF840B092F8607046
:10452000CDF814C0BF0765D42A79CDF80CA0012AB4
:1045300000F0C280002A40F065811198028910B213
:104540000128C0F25F81069B711A594301FB02F5F5
:10455000591E012212FA81F10023009106990029C7
:1045600040D0002602952846E1465546019300BFFB
:104570005FEA094100F10101049121D011994FF046
:10458000000A09680F5C00BF45F6C440C2F2000093
:10459000006822460368F80728B20FFA88F108BFBE
:1045A0005A4698470135BAF1060FA9F1010909D811
:1045B0007F085FEA09400AF1010AE5D102E000BF85
:1045C0004FF0000901360699B0B288420498CFD363
:1045D0001198029D00990089DDF814C0DDF80CA047
:1045E000019B0D44013399B202B2914208F10108D6
:1045F000B4DB07E129890AEB0C004144D76D01388F
:10460000013902B20BB250464146B84729790546F6
:10461000012900F0AC80059F002940F0F38011983B
:1046200001890BB2012BC0F2ED80119ADDF818C0A0
:10463000528901FB0CF1B21A01FB02F0ACF101014D
:10464000012212FA81F10026029100BF069969B396
:1046500003960026049000BF390400F1010A17D028
:1046600011994FF00008096811F800905FEAC970CD
:10467000204608BF5846A847B8F1060FA7F1010722
:1046800007D84FEA5909380408F10108EED100E0D3
:10469000002701360699B0B288425046DCD3119803
:1046A000029903890498059F039E08440136B1B21C
:1046B0001AB29142CADBA5E02F893AB2012AC0F2B0
:1046C000A180711A594301FB07F9E5B25FFA8BFE2D
:1046D00024F0FF042BF0FF0700260694BCF1000F26
:1046E00039D0049645F6C4462C460025D346BA4632
:1046F0007746C2F2000600BF1198006810F8090062
:1047000009F10109C0F5807101FB07F214FB0022D9
:10471000C2F30722069B584301FB0A0031684FF49D
:104720007F4303EA10200B6802440FFA8BF00FFA64
:1047300088F19847DDF814C00135A8B260450BF147
:10474000010BD9D31199049EC8880A89039925467B
:10475000BE4657468A46A9EB0C01013601FA80F99C
:10476000B1B213B2994208F10108B7DB4AE01198DF
:10477000059900890FFA80FCBCF1010F42DB119B07
:104780005FFA84F85A89B3F90630B21A42431FFA25
:1047900083FE02FB03F65FFA8BF924F0FF042BF093
:1047A000FF07002029B3DDF844A04FF0000B06906E
:1047B000DAF80000805D0136C0F5807101FB09F276
:1047C00018FB0022604301FB0700C2F307214FF4EE
:1047D0007F4202EA10200844A84705990BF1010B1B
:1047E0001FFA8BF08842E3D3BAF806E0BAF808C0A3
:1047F00006980130721A83B20FFA8CF6B34202FAAD
:104800008EF6CFDB07B000F000B830BCBDE8C08F3B
:104810002DE9F04F8BB004460089B4F90A200790C7
:104820006068B4F90E70B4F80CC0217D00230A93BF
:10483000B0B3D4F800A0BAF1000F31D003687BB355
:10484000B0F90830A7EB020B9B4529DB1FFA82FE6B
:10485000C288B4F9189009929AB2E68A04921FFAB3
:1048600089F80122554600BF2F780A2F02D017B9C8
:1048700003E000BF01320135F6E711F0300F12D02E
:104880004FF48035534305EB0B45C3EB15434FF015
:10489000FF3515FA82F29BB202FB1932130403D5DD
:1048A0000BB000F0AEB80022C1F3001312B21A41EF
:1048B00072440892079AACEB020202F1010901F07E
:1048C00001020692C1F34001059104994144CDE9EA
:1048D00003914FF0000C524692F90070FBB29BB36B
:1048E0000A2B31D04589AF4202DB81898F4201DD3D
:1048F0000132F1E70169DDF824E011B17F1B11F805
:1049000007E00CEB06015FB2B7F1FF3F01EB0E0CC5
:10491000EEDCC02B02D24FF0FF3310E0E02B01D2CF
:1049200002230CE0F02B01D2032308E0F82B01D284
:10493000042304E0FC2B4FF0060338BF05231A4480
:104940004FEA4C0CC8E700BFA6EB0C01494409B282
:104950000029A5D4059A89B2D140069ADDF81C80B9
:10496000002A08BF884400BF9AF900905FFA89FBCB
:10497000BBF1000F3FF494AFBBF10A0F38D05046A3
:104980000AA9FFF769F845F6C441C2F200010968B7
:104990000746C96A71B1608A089A238A65680090DF
:1049A0004FFA8BF00FFA88F112B20195FFF762FD12
:1049B00010E000BF5FEA09600CD5626809981169D0
:1049C00019B15089A9EB0000085C08EB060101EB66
:1049D000000800BF606809990269BA441AB14189A8
:1049E000A9EB0101515C08EB060202EB0108BBE7F1
:1049F0000899049ADDF80C9011440AF1010A089113
:104A000067E730BCBDE8C08F2DE9F04381B0814637
:104A1000007800B34FEA4018002700BFD9F804001F
:104A2000C65D06F00301022912D1C5196C78B006E3
:104A300003D56A6848462946904706F088008828CA
:104A400006D114F0410003D06A68484629469047D1
:104A50002037B845E2D101B0BDE8F0832DE9F04F31
:104A600089B018B10446007A800701D4FF205DE0C8
:104A7000A07DE68910F0010045F6C440278AC2F205
:104A80000000B4F812A094F82C101CBF03360337B2
:104A9000006818BFAAF1030A40692A22A0424FF019
:104AA000280008BF262208BF2420205AA7F1010BA6
:104AB000A55AADF818000BEB01000FFA86F80FFAB3
:104AC0008AF939B203B240464A46ADF81A50009509
:104AD000FEF75CFFD4E90601CDE90201F01CADF858
:104AE000100094F82C0094F822105844ADF81600E9
:104AF00094F920008DF81C1094F92110ADF81E00D7
:104B000002A8ADF81270ADF814A0ADF82010FFF7B0
:104B10007FFE94F82C004A46384401B249F61357F8
:104B200040460B460097FEF785FE002040B209B0D4
:104B300000F000B830BCBDE8C08F00002DE9F043A4
:104B400081B00446C789B0F81080B0F81290007A9E
:104B5000A68A00F0DF01000721720FD445F6C44099
:104B6000C2F2000000680FFA89F2B0F8465038B27D
:104B700033B201460095FEF709FF45E0A07D4906E6
:104B800017D410F0010114D043F24C4CC0F6010CC4
:104B900038B20FFA88F10FFA89F233B2CDF800C0BB
:104BA000FFF73CFBA07D033708F10308A9F10309D7
:104BB000033E80070AD52046FFF750FF207A4106C2
:104BC0001FD494F82C00404400F10108A58938B2A4
:104BD0000FFA88F10FFA89F233B20095FEF7D6FE8C
:104BE000207888B1616800BF0A7802F00B030A2BB5
:104BF00004BF42F060020A70013801F12001F3D1D4
:104C000002E000F0BF00207201B0BDE8F0830000B8
:104C100070B584B0054624A016460C46CDE90005C3
:104C200027A12CA203207C23029404F0D5FE7DB1A1
:104C3000012D29D144B3207830B340F28810C2F25C
:104C40000000042101704FF4616005F031FD1BE0AC
:104C500014B345F6A875C2F2000528462146622223
:104C6000FBF71BFB40F2BC0043F2CC41C2F2000058
:104C7000C0F601012A46622304F04CFB40F2881082
:104C8000C2F200000221017064B1314656B12046E3
:104C900004B0BDE87040084740F28810C2F200003E
:104CA0000021017004B070BD6D61696E206576747D
:104CB0003A2564206172673A2570200D0A000000D1
:104CC0002E2E2F436F72652F5372632F6D61696EA5
:104CD0002E6300005F576966694576744362000081
:104CE00080B582B08446086C0121BCF1000F08BF7A
:104CF000022180F86A1107A043F24A710090C0F6C1
:104D0000010108A20120DD23CDF804C004F064FEF7
:104D100002B080BD617420726573756C743A25644D
:104D20000D0A00005F624174436D6443620000003D
:104D300003F038BB2DE9F04786B005460020D3F8D4
:104D400040A0CDE904003FA128461446FBF7C9FA6C
:104D500000286BD03DA105AA04AB0646FBF716FB65
:104D6000049F022851D1012F4FDB059804285DD8FC
:104D700030463A21FBF7D3FA00F101083DA043F297
:104D80004A7143F23C720090C0F60101C0F6010284
:104D900003204FF492730297CDF8048004F01CFEB8
:104DA000BDF81070002F41D0502004F0A7FEE8B3EA
:104DB0008146781C04F0A2FE00283ED00646002062
:104DC000F055304641463A46FBF767FA05984621CA
:104DD00000FB01A045F27D41C0F60001C9F84C106E
:104DE000811C48464422A9F84870C9F84460FBF782
:104DF00054FADAF80477DAF8083744F68562C0F630
:104E000000020B204946B84710E014A1CDE900107C
:104E100043F24A7143F23C72C0F60101C0F601024E
:104E2000022040F22F13029704F0D6FD15B10CB109
:104E30002846A04706B0BDE8F087484603F0B2FA1E
:104E4000F4E700BF2B4950442C0000002B4950448C
:104E50002C25642C25643A252A7300007373636142
:104E60006E66206572726F72202564202564200DA5
:104E70000A000000726561643A25702C2025640DDB
:104E80000A00000068B110B5C16C044621B1606C25
:104E900010B18847002060642046BDE8104003F050
:104EA00081BA704710B582B0D3690A4619780446B2
:104EB0000846214603F01AFD43F22370C0F60100B4
:104EC00043F24A7143F22F720090C0F60101C0F61E
:104ED000010203204FF4A073019404F07DFD02B0A1
:104EE00010BD10B5017A044600F02AF898B1617A35
:104EF0008388C1F3430101228A401A420BD0D0F8C3
:104F000008C0BCF1000F06D00068A379217A92B2E4
:104F1000BDE81040604710BD10B503F034FB40F20F
:104F2000F014C2F200042168401A152838BF10BDE1
:104F300003F029FB2060BDE8104006F083B90000B3
:104F400070B582B045F69062C2F2000214687CB17E
:104F5000A1EB810100EB810601AD00BF206829466D
:104F600002F0FCFE0198B04203D0E468002CF5D1B9
:104F70000024204602B070BD70B582B0017A0024D2
:104F800005468DF80740FFF7DBFFA8B10068002158
:104F9000002405F065F800280ED4297A064604F0AE
:104FA0009BFD0DF107013046012205F09FF83046C8
:104FB00002F088FC9DF80740204602B070BD00005A
:104FC000B0B500F26C55044628468021FBF77EF907
:104FD00094F8603103A2284680210BF065FA284638
:104FE000B0BD00BF41542B434950434C4F53453D46
:104FF00025640D0A00000000704700207047000083
:105000002DE9F04184B00023046C8DF80F30207836
:1050100028B14FF0FF35284604B0BDE8F0811646B0
:105020000F46CCA043F24A7143F275720090C0F66D
:105030000101C0F6010203204FF40F73019704F041
:10504000CBFC0F2F4FF0000584F86171E3D8DFE847
:1050500007F06873474747820909090909A6080844
:1050600008CDD8E7002ED4D004F5BE6840463146BE
:105070004422FBF712F9FF208DF80F000DF10F020B
:105080002046414600F0FCF99DF80F100646B4A0FA
:10509000029143F24A7143F275720090C0F6010129
:1050A000C0F60102012040F28923019604F094FC2D
:1050B000B81F04284FF00005ADD8DFE800F0040366
:1050C0009AB7D400A7E706210025012084F86111D2
:1050D00041F2740184F86B512070C0F60101E4E0E4
:1050E000002E3FF496AF04F5BE6031466322FBF715
:1050F000D4F8042F4FF0000500F0CC80032F00F00F
:10510000D980022F7FF487AF01202070022084F81D
:10511000610140F6D470C0F60100C4F864010320B8
:10512000D3E0002E3FF475AFD6E900010025C4F8A6
:105130000407C4F808176EE70120207084F86101A5
:1051400041F2C400C0F60100C4F864010220A4F8D2
:1051500068010320BBE0002E3FF45BAF3046FBF755
:10516000E8F840283FF655AF04F5BE6528464121D2
:10517000FBF7ACF83046FBF7DCF802462846314630
:10518000FBF78BF805210025012084F8611141F21D
:10519000840184F86B512070C0F6010185E0002E77
:1051A0003FF437AF706C00283FF433AF04F5BE68AE
:1051B000204641460022002500F062F9B0F1FF3F91
:1051C00040F3B3800746404631465022FBF765F86E
:1051D0000B2184F8611141F2B4010120C0F60101F4
:1051E00084F8607184F86B5120705EE0C4F8086741
:1051F0006FE09DF80F00FF286DD0462110FB0145A0
:1052000084F86001A81C41464422FBF746F80120BF
:10521000082185F84600002584F8611141F29401C7
:1052200084F86B512070C0F601013EE09DF80F003C
:10523000FF285DD0462110FB014584F86001A81CC1
:1052400041464422FBF729F80120092185F8460050
:10525000002584F8611141F2A40184F86B5120709B
:10526000C0F6010121E0B6F1FF3F4EDD462006FB0E
:10527000004000250A2180F84650012084F8611181
:1052800041F2340184F8606184F86B512070C0F6FB
:1052900001010AE00421012084F8611141F2640156
:1052A00084F86B512070C0F60101C4F86411A4F8B1
:1052B0006801B0E6012041F2040120700320C0F62D
:1052C000010184F86101C4F86411A4F8680184F84C
:1052D0006B0100259FE643F24A7143F275722AA7DB
:1052E000C0F60101C0F60102022040F293232BE038
:1052F00043F24A7143F2757220A7C0F60101C0F66D
:10530000010202204FF428731EE043F2C76743F204
:105310004A7143F27572C0F60107C0F60101C0F68A
:105320000102022040F2AD230EE043F2C76743F2D0
:105330004A7143F27572C0F60107C0F60101C0F66A
:105340000102022040F2C523009704F045FB6FF0F4
:10535000010560E663746C3A25640D0A00000000E4
:1053600072657476616C20256420636E6E5F69647B
:105370002025303278200D0A00000000636F6E6E29
:105380002066756C6C0D0A00636F6E6E2066756C1E
:105390006C2C2075736520636F6E6E5F69642030BE
:1053A0000D0A00002DE9F04182B0176C04460B286D
:1053B0000D4635D143F24A7116460FF29C0CC0F6E9
:1053C000010129A2032040F29913CDF800C004F096
:1053D00003FBE5B1F069D7F83486B7F838260078D2
:1053E000414603F083FA43F22370C0F6010043F212
:1053F0004A7143F22F720090C0F60101C0F601021B
:1054000003204FF4A073CDF8048004F0E5FAD7F838
:105410003C1629B1D7F8340688470020C7F834066F
:1054200000203870A7F86801C7F8640140F6B97029
:10543000C0F6010000EB4400002D08BF013090F9D8
:105440000000D7F804C7D7F808370021002202B0BF
:10545000BDE8F041604700BF73656E64206461740D
:10546000612E2E2E0D0A00005F6245737031326688
:1054700043746C526573756C7400000002F092BF47
:10548000F0B581B015460E4600F14607002400BF76
:10549000387801280CD137F8020CB6F8421088424F
:1054A00008D1A7F144003146FAF74AFF10B908E0E5
:1054B00005B12C700134052C07F14607E8D14FF0F7
:1054C000FF34204601B0F0BDB0B582B003F05BF808
:1054D00040F2F814C2F200042168401A0B2859D394
:1054E00003F051F845F69865C2F20005296820607E
:1054F00000294FD0486800284CD0002104F0B0FDAE
:10550000002847D404462868806820B901A92046AD
:10551000042204F0EBFD204602F0D4F929688868E3
:10552000C0BBBDF80420488A82422CD38D8AAA428F
:1055300029D2BDF80630CC8AA34224D3B1F818E0B2
:10554000734520D2B1F80CC0121A02FB0CF2281AD3
:1055500092FBF0F0CA891B1B5A43AEEB04030D7C8F
:1055600092FBF3F1ADF80400ADF806103DB9C2436B
:10557000ADF8041008460CEB0201ADF8061000B2BD
:1055800009B2012204E0B1F90C00B1F90E100022B9
:10559000FEF713FCFEF71AFC02B0B0BD80B5E3B114
:1055A0009869D0B1B2F804C0BCF1000F15D000204A
:1055B000B3F82CE0D96971450CD91168D3F818E01B
:1055C00011F800C0998D0EF801C0998D01319985AF
:1055D000B2F804C001306045EAD380BD70B540F236
:1055E0001004C2F200042568A54208BF70BD002661
:1055F00035F8080C40B335F8061C35F8080CE9B14D
:1056000035F8061C884217D102F0BDFF55F8041C7E
:1056100035F8142C401A904216D955F8103C7BB13D
:1056200035F8081C55F81C0C55F80C2C9847002828
:105630000ED455F8181C11E035F8080C25F8060CA6
:1056400002F0A1FF45F8040C2D68A542D0D10CE072
:1056500035F8081C55F8180C8842F1D155F81C0C87
:10566000FAF734FE25F8086CEAE770BD80B5126CD5
:105670000B46014602F254601A4601F033FF002047
:1056800080BD70B515460E460029044603D4062E8B
:1056900001D0012E0DD1D4F8D00020B102F082FE4D
:1056A0000020C4F8D0004FF0FF30C4F8D40005202B
:1056B0006070D4E93232304629469847D4F8500118
:1056C00020B102F06FFE0020C4F850010020C4F8A1
:1056D000540170BD2DE9F04389B00546008844F2BD
:1056E00084480C46B0F5E07FC0F601080DDDB0F54A
:1056F000E97F13DB00F0DF81B0F5F47F00F08F81EC
:10570000B0F5F87F00F0B2811CE0B0F5D67F10DC78
:1057100018B3B0F5CE7F00F0488213E040F2C1111B
:10572000884200F0C08040F2C511884200F01A8122
:1057300008E040F2AD11884252D040F2B1118842E7
:1057400000F0F081002003262880C5E90100C5E9AA
:105750000300304609B0BDE8F08360780528F1D039
:10576000062800F00C8245F68541C0F600010020B5
:10577000224604F0CDFFB0F1FF3FC4F8D40040F35F
:10578000E581B4F8C41004F143020FF27843CDE987
:105790000030CDE9031244F2E94144F22252A61C42
:1057A000C0F60101C0F60102032040F2AB130296DD
:1057B00004F012F9D4F8D400B4F8C420314602F051
:1057C0009BF8E86848B902F0DEFE05F1040C41F2EE
:1057D0008831012200238CE80F0040F2AD102880B0
:1057E000D4F8D40004F08FFF012807D002F0CBFEDC
:1057F000D5E90112401A9042C0F0F88102F0C3FED0
:10580000D5E90112401A904280F0728128694FF068
:1058100000090230C5F80C9000F06F81204600218D
:105820000022FFF72EFFD4F8D0700FF2F03044F2D0
:10583000E94144F222520090C0F60101C0F6010293
:10584000032040F2B713019704F0C6F8D4E9346797
:105850003046FAF76EFD82B238463146002304F036
:105860008FFE04F584700121C4F8204108F028F966
:1058700004F5947008F03DF94DF66160C0F6000043
:10588000C4F84401ADF82290E86848B902F07BFE04
:1058900005F1040C41F28831012200238CE80F004D
:1058A00040F2C1102880D4F8D40004F027FF01286A
:1058B00007D002F068FED5E90112401A9042C0F00C
:1058C000958102F060FED5E90112401A90422FD274
:1058D000286900210230E9602FD0B4F85431B4F8BF
:1058E0005621981A812850DA44F2E94144F22252B2
:1058F000CDA7C0F60101C0F6010203204FF4E67304
:10590000009704F069F8B4F8540100F58061D4F808
:105910005001A4F8541189B204F011FC0028C4F815
:10592000500100F0B680B4F85621B4F854312EE09E
:105930006FF001000021C5E9031044F22A4744F248
:10594000E94144F22252C0F60107C0F60101C0F657
:10595000010202204FF4E273009704F03DF840F298
:10596000C5102880D4F8D40004F044FE002800F1CB
:105970003D8144F2E94144F22252C0F60101C0F6F1
:10598000010202204FF4E373A7E0D4F85001D4F8E9
:10599000D4708118981A82B20DF12203384604F0AF
:1059A00004FCBDF82230002B3FF46EAFD4F8502138
:1059B000B4F8567104F5847004F594713A4405F016
:1059C000FDFDBDF82210B4F8562106469AA00090BD
:1059D000CDE9021244F2E94144F22252C0F601013B
:1059E000C0F6010203204FF4F073019603F0F4FFB8
:1059F000BDF82200B4F8561162780844032AA4F8CE
:105A000056011DD1ADF8180047F24910D4F85011D5
:105A1000C0F6000007904FF4F47005912880D4F888
:105A2000D40004F0E7FD00284FF000063FF591AEEA
:105A300005AA20460121FFF724FEC4F850618CE638
:105A4000B6F1FF3F3FF720AF44F2E94144F2225262
:105A500082A7C0F60101C0F60102022040F2EF1356
:105A6000009703F0B9FF4FF4F8702880D4F8D40001
:105A700004F0C0FD002800F1B98044F2E94144F28D
:105A80002252C0F60101C0F60102022040F2F113D9
:105A900023E044F2E94144F2225275A7C0F6010125
:105AA000C0F60102022040F2D113009703F094FFE8
:105AB0004FF4E9702880D4F8D40004F09BFD00284E
:105AC00000F1948044F2E94144F22252C0F601010F
:105AD000C0F60102022040F2D313CDF8008003F09B
:105AE0007BFF20466FF062010022FFF7CAFD34E61B
:105AF0006FF001000021C5E9031044F2414744F270
:105B0000E94144F22252C0F60107C0F60101C0F695
:105B1000010202204FF4D873009703F05DFF40F2BA
:105B2000B1102880D4F8D40004F064FD00285DD4BE
:105B300044F2E94144F22252C0F60101C0F60102EA
:105B400002204FF4D973CDF800800FE044F255479E
:105B5000C0F6010744F2E94144F22252C0F60101C5
:105B6000C0F60102022040F2A713009703F034FFB1
:105B700020466FF062010022FFF783FDE2E5D4F8D2
:105B8000D40001282BDB44F2E94144F2225218A749
:105B9000C0F60101C0F60102022040F29B130097FB
:105BA00003F01AFF4FF4CE702880D4F8D40004F02C
:105BB00021FD00281AD444F2E94144F22252C0F6F1
:105BC0000101C0F60102022040F29D13CDF80080D1
:105BD00003F002FF204602210022FFF752FDD4F815
:105BE000040104F003FE204602F0DCFB0026B0E5D1
:105BF000687474702064657374726F792E2E2E0D24
:105C00000A000000736F636B66643A2025782025D4
:105C1000732025642025730D0A00000073656E64EF
:105C20003A25730D0A0000007265616C6C6F632D7C
:105C30002D2D2D2D0D0A000070617273655F6C654E
:105C40006E20256420726561646C656E2025642079
:105C5000696E6465783A25640D0A0000706172739C
:105C600065206572726F722E2E200D0A00000000F2
:105C70006D616C6C6F63206572726F722E2E200DD9
:105C80000A00000070470000B0B582B000F26C5509
:105C9000044628468021FAF719FB04F5BE6304F296
:105CA000116404A22846802100940AF0FDFB2846D6
:105CB00002B0B0BD41542B43574A41503D22257399
:105CC000222C222573220D0A000000002DE9F04746
:105CD00088B040688A4602219946904604F0C0F98F
:105CE000002827D40746B9F1000F1FD000246D46C5
:105CF0004E4600BF0AEB0401384603F0EDFE38467D
:105D00002946202204F0F2F908EB0401384603F09A
:105D1000E3FE202238462946202E38BF324605F0C1
:105D2000DDF820344C45A6F12006E3D3384601F0D7
:105D3000C9FD01E04FF0FF39484608B0BDE8F087E3
:105D400070B582B0044600690D4618B1E168B1FB38
:105D5000F0F000E00120A84217D96068022104F0A9
:105D60007FF9002811D40646A06821696A4601FB24
:105D7000050000210090012001903046002401F030
:105D80000FFE304601F09EFD01E04FF0FF3420464B
:105D900002B070BD2DE9F04F9DB08846814608A93C
:105DA0004046059200F096F9D9F81000064608B969
:105DB000D9F80C600021112E38BF01214FF6FC7B71
:105DC0004FF6FF740191DDE90851C0F2FF0BC0F2FC
:105DD0007F040027CDE906810296049520B1D9F809
:105DE0000C10B1FBF0F000E00120874280F0E5806C
:105DF0004846394611AA00F0A2F9002800F1DD80DA
:105E0000139845F27161C1F23421884214D045F2F1
:105E10007961C1F23421884202D1112E0CD30FE0F6
:105E2000129845F27861C1F23421401A18BF01205E
:105E30000199084304D000BFD9F810000137CDE71D
:105E40004FF0100A039700BFD9F80800D9F81010D6
:105E5000504401FB070148460AAA00F056F9002801
:105E600000F1AB800A9846F67631C6F25F2188428F
:105E7000E2D1DDE90C01079A68405140084306D1A0
:105E80009DF82F004FF0AA41B1EB006F20D10F9980
:105E9000032000EB116020F003000A0201EA040174
:105EA00004D4033101EA0B010BE000BFD9F8102044
:105EB0000AB9D9F80C2011441139103AB1FBF2F1AA
:105EC00089005044084400F1180AB245BCD3B3E736
:105ED000D9F80800D9F81010504401FB07050598BF
:105EE00005604046FAF725FAD9F8041080460846BE
:105EF000002104F0B5F8002846D405F11801044645
:105F000003F0EAFD5FFA88F6DDF81880C6B10027D5
:105F1000354600BF0DF1540B20465946202204F0AF
:105F2000E5F808EB070120225846202D38BF2A4605
:105F3000FAF71DFAF8B92037BE42A5F12005E9D8D5
:105F4000204601F0BFFC0B9800F07F41B1F12A4FD1
:105F500038D120F07F4A6FF07F40029E4FF6FC7BE5
:105F60004FF6FF74DDE903758245C0F2FF0BC0F206
:105F70007F04AAD160E7204601F0A4FC029E4FF600
:105F8000FC7B039FC0F2FF0B0F9903204FF6FF74B9
:105F900000EB1160C0F27F0420F003000A0201EA66
:105FA000040104D40331DDF81880049D7AE7D9F8A0
:105FB0001020DDF81880049D7AE74FF0FF301DB007
:105FC00000F002B80020FAE730BCBDE8C08F000046
:105FD0002DE9F04F87B00D4606464FF0FF30002BFD
:105FE00008600192106008D4306918B1F168B1FB03
:105FF000F0F000E00120984200D8002345F2706ADA
:10600000C1F2342A5F1C00200DF10C090AF10904C9
:106010000AF10801029100BF316919B1F268B2FBBF
:10602000F1F200E0012290424DD200F1010B07EBAA
:10603000000819B1F068B0FBF1F000E00120B8FBF6
:10604000F0F14A4601FB1081304600F078F8DDE9B6
:106050000501514508BFA04218D045F2796140F0D2
:106060000800C1F2342188425846D5D004980299DC
:1060700088425846D0D00198006801301FD130695D
:10608000B0B1F168B1FBF0F013E000BF2868013057
:106090005846C1D1306918B1F168B1FBF0F000E0A9
:1060A0000120B8FBF0F101FB108028605846B3E7EF
:1060B0000120B8FBF0F101FB10800199086028680D
:1060C00001305846A8D007B000F000B830BCBDE899
:1060D000C08F000070B50C460546FAF72AF907286C
:1060E00004D9686829686060216070BD002600BF1F
:1060F0002846FAF71EF986422CBF3046A85DA05507
:106100000136082E08BF70BDF2E770B540680E4634
:106110000221144603F0A4FF00280DD431460546A1
:1061200003F0DAFC28462146182203F0DFFF284658
:1061300001F0C8FB002070BD4FF0FF3070BDF0B51E
:1061400081B00546006914460E4618B1E968B1FBF6
:10615000F0F000E00120B04217D96868002103F098
:106160007FFF002811D40746A868296901FB0601B2
:10617000384603F0B1FC38462146102203F0B6FF42
:10618000384601F09FFB002001E04FF0FF3001B0E6
:10619000F0BD00002DE9F04F89B0044621694FF0B1
:1061A000FF300190009059B161694FF0FF35481CF4
:1061B00072D020460122002300F0A2F963696DE04D
:1061C0006169A068B1F1FF3F40F30881E16800F127
:1061D000100501448D4280F011814FF6FC7A4FF694
:1061E000FF76C0F2FF0AC0F27F060DF108094FF0FA
:1061F000550B4FF003082F46204639464A46FFF715
:1062000084FF002800F1FD80029846F67631C6F240
:106210005F21884240F0F1800398BBEB106F28D0DB
:10622000000EAA2825D0AF4216D007982A4608EBC0
:1062300010613040033021F0030100EA0A000844F5
:1062400000F1180320463946FFF740FD2046394645
:1062500000222B4600F0DCF8079808EB1061304074
:1062600021F00301033000EA0A002944084400F148
:106270001805079808EB1061304021F00301033046
:1062800000EA0A0039440144D4E9020201F1180786
:1062900011188F42B0D3B1E04FF0FF3301A96A4625
:1062A0002046FFF795FEE069656102280ED300994C
:1062B0004A1C00F0908001381022C4E90512E06108
:1062C00020460022002300F01BF99AE0012840F04C
:1062D0008280DDF804A04FF0FF301AF101071CBFE7
:1062E000DDF8008018F1010100F08B80A5682669B7
:1062F000204641460022002300F002F9B0F1FF3FA2
:1063000069DDA068216905F1100201FB070006FBA9
:106310000A2506FB082B1838A84248D90DF10809B0
:10632000204629464A46FFF7F0FE029846F67631A7
:10633000C6F25F2188423AD1079903200A0200EB96
:1063400011604FF6FF7220F00300C0F27F0200F1EF
:10635000180001EA020106D44FF6FC720331C0F2C4
:10636000FF02114008E0226902B9E26811441139C4
:10637000103AB1FBF2F18900039A5523B3EB126F87
:1063800000EB01060BD0100EAA2808D020462946A3
:106390005A463346FFF79AFC0028C8BF8344A068DA
:1063A0002169354401FB07001838A842B8D82046B7
:1063B0005146FFF7C5FC2046514600F073F8A0682F
:1063C0002169ABEB000001FB18000128A4BFC4E960
:1063D0000580002015E04FF0FF3012E0E169002950
:1063E0003FF4F4AE00206061E0612046002100220D
:1063F000002300F085F8102102E0A068291A00208F
:10640000A16109B000F000B830BCBDE8C08F000049
:10641000B0B584B00D460021012A039105D03AB9E8
:10642000AA2161F31F63039302E04FF0AA41039195
:106430004068022103F014FE0446B0F1FF3F0EDD78
:10644000291D204603F048FB03A92046042204F03E
:1064500045FD0546204601F035FAE8170EE008A094
:1064600044F271210090C0F6010109A203204FF40B
:10647000AF73019403F0B0FA4FF0FF3004B0B0BD39
:106480006F70656E206661696C202564200D0A00BE
:106490005F624B56536574446174615374617465F3
:1064A0000000000070B584B0044600690D4618B1C4
:1064B000E168B1FBF0F000E00120A8421CD960685F
:1064C000022103F0CDFD002816D40646A0682169FC
:1064D00046F6763201FB0501C6F25F223046009295
:1064E00003F0FAFA69463046042204F0F7FC30461D
:1064F00001F0E8F9002001E04FF0FF3004B070BD7A
:106500002DE9F04184B0054600691F4614460E4649
:1065100018B1E968B1FBF0F000E00120B04214D9F5
:10652000022C12D86868022103F09AFD00280CD4CE
:106530008046022C0ED0012C12D0D4B945F27060E6
:10654000C1F234200830019013E04FF0FF3004B066
:10655000BDE8F08145F27060C1F23420039008E09C
:1065600045F27060C1F23420002F14BF01300930B1
:106570000290A868296900EB840001FB0600011D58
:10658000404603F0A9FA684600EB8400011D40462E
:10659000042204F0A3FC404601F094F90020D6E761
:1065A00073B1B0B5C56914462878697801F0FEFF6B
:1065B000A978401AB0FA80F0400920700120B0BDDF
:1065C0004FF0FF307047B0B582B0C5690C46A87C6B
:1065D000ADF8061030B1022829D001283DD1286835
:1065E00004803AE0A878E978002201F0E3FF2879F6
:1065F0006979012201F0DEFF287A697A002201F030
:10660000D9FF2878214601F0D7FFA879E97900223F
:1066100001F0D0FFA879E979012201F0CBFF287AB7
:10662000697A012202B0BDE8B04001F0C3BF28780A
:106630006978002201F0BEFFE87A297B0022AC1CB9
:1066400001F0B8FF0DF106012046012202F07CF8AE
:10665000E87A297B012201F0ADFF02B0B0BDB0B5F0
:1066600082B0C5690C46A87CADF8061030B102288E
:1066700029D001283DD1286844803AE0A878E978FB
:10668000012201F097FF28796979012201F092FF38
:10669000287A697A002201F08DFF2878214601F0DE
:1066A0008BFFA879E979002201F084FFA879E979C4
:1066B000012201F07FFF287A697A012202B0BDE849
:1066C000B04001F077BF28786978012201F072FFAD
:1066D000E87A297B0022AC1C01F06CFF0DF1060169
:1066E0002046012202F030F8E87A297B012201F0ED
:1066F00061FF02B0B0BDB0B582B0C569AA7C022A04
:1067000002D2FFF7ACFF19E018D148BAADF8060085
:1067100028786978012201F04DFFE87A297B002270
:10672000AC1C01F047FF0DF106012046022202F0E9
:106730000BF8E87A297B012201F03CFF02B0B0BDE2
:10674000B0B500F26C55044628468021F9F7BEFD2D
:10675000B4F8323603A22846802109F0A5FE284667
:10676000B0BD00BF41542B4349505345525645528A
:106770003D312C25640D0A00704700002DE9F041E1
:1067800090B00446008845F6B43744F2844840F29D
:10679000FC160021DF28C2F20007C0F60108C2F291
:1067A0000006ADF80E1005DCD3280CDC08B3D028A9
:1067B00053D014E0EF280CDCE02800F05381E328EC
:1067C00000F07E810BE0D42800F01681DC2879D01F
:1067D00005E0F02800F0B080F22800F0D180002021
:1067E0002080C4E90100C4E90300032010B0BDE823
:1067F000F08146F27971C0F600010120002203F019
:1068000087FFB0F1FF3F786040F3CF80B7A13578C4
:10681000CDE9001044F2E94144F21452C0F60101FE
:10682000C0F601020320CE23029503F0D5F831789B
:10683000B2A2786852F821107B2201F05DF8E0687E
:1068400048B901F0A0FE04F1040C44F620610122D5
:1068500000238CE80F00D0202080786803F053FFDD
:10686000012807D001F08FFED4E90112401A9042AE
:10687000C0F02D8101F087FED4E90112401A904248
:1068800080F0A580206900210230E16000F0A48042
:1068900004AD28463021F9F719FD1B2178688DF8E1
:1068A0001010294630220023002503F069FEE0681D
:1068B00030B901F068FE231D44F62061012227C390
:1068C000DC202080786803F019FF012807D001F050
:1068D0005AFED4E90112401A9042C0F0F88001F04B
:1068E00052FED4E90112401A904280F0A68020693D
:1068F00000210230E16000F0A580786804A90DF164
:106900000E03302203F051FCBDF80E00302811D1E7
:106910000C990E98411A0DD301290BD848F2801119
:1069200000BAC7F6554140184FF0000161F100016F
:1069300004F093F8F0202080786803F05BFE0028D4
:1069400000F1C58044F2E94144F21452C0F601015D
:10695000C0F601020220F123CDF8008003F03CF8DC
:10696000E06858B901F00FFE6060B8684FF47A71C2
:106970004843A0600120E06000202061F2202080D8
:1069800001F001FED4E90112401A9042C0F09F804C
:1069900001F0F9FDD4E90112401A904224BF6FF0D2
:1069A000010020610020E06023E744F2554744F2F3
:1069B000E94144F21452C0F60107C0F60101C0F6E5
:1069C00001020220CB23009703F006F807E76FF0DF
:1069D00001000021C4E9031044F2E94144F21452D9
:1069E0004FA5C0F60101C0F601020220D323009595
:1069F00002F0F2FFD4202080786803F0FBFD00282D
:106A000065D444F2E94144F21452C0F60101C0F6E3
:106A100001020220D523CDF8008002F0DDFF30789E
:106A20004AF6AB210130CAF6AA21A0FB0112510897
:106A300001EB4101401A3070D1E66FF001000021F6
:106A4000C4E9031044F2E94144F214522EA5C0F601
:106A50000101C0F601020220DF23009502F0BCFF15
:106A6000E0202080786803F0C5FD00282FD444F290
:106A7000E94144F21452C0F60101C0F601020220BD
:106A8000E123CDF8008002F0A7FF30784AF6AB2171
:106A90000130CAF6AA21A0FB01125108E26801EBFD
:106AA0004101401A30704AB901F06DFD04F1040C47
:106AB00042F21071012200238CE80F00E3202080B5
:106AC00001F061FDD4E90112401A904201D2002088
:106AD0008CE601F058FDD4E90112401A904224BF1F
:106AE0006FF0010020610020E06078E6736F636B57
:106AF00066643A2025782025640D0A003145010896
:106B000041450108514501086E7470207265637635
:106B10002074696D656F75742E2E200D0A000000BB
:106B20006E74702073656E64206661696C2E2E2E03
:106B30000D0A0000B0B500F26C55044628468021CD
:106B4000F9F7C4FB04F5BE6303A22846802109F0CF
:106B5000ABFC2846B0BD00BF41542B50494E473DC9
:106B6000222573220D0A0000B0B582B000F26C55E8
:106B7000044628468021F9F7A9FB94F86031B4F85F
:106B800032C604F5BE60009004A228468021CDF8EC
:106B900004C009F089FC284602B0B0BD41542B4323
:106BA000495053544152543D25642C2254435022A1
:106BB0002C222573222C25640D0A0000B0B582B06A
:106BC00000F26C55044628468021F9F77FFB94F8C3
:106BD0006031B4F832C604F5BE60009004A22846C5
:106BE0008021CDF804C009F05FFC284602B0B0BD9A
:106BF00041542B43495053544152543D25642C2257
:106C0000554450222C222573222C25640D0A0000A5
:106C100070B58CB0C469B926E07A8DF82F6080B168
:106C2000607AA17A002201F0C5FC0DF12F01204607
:106C3000012201F089FD607AA17A012201F0BAFCFB
:106C400010E000216D46019105F11400CDE902111B
:106C50001821F9F73BFB0120049000962078294683
:106C600001F041FD0A2001F07FFC00200CB070BD56
:106C700080B5006C02290CD0012910D0A1B99AB1BD
:106C8000D2F804C08369116803FB0CF208F012FB10
:106C900008E04AB101698069B1FBF0F001E01AB186
:106CA00080691060002080BD4FF0FF3080BD70B55E
:106CB0008CB0C469AB26E07A8DF82F6080B1607A21
:106CC000A17A002201F076FC0DF12F01204601226D
:106CD00001F03AFD607AA17A012201F06BFC10E02C
:106CE00000216D46019105F11400CDE90211182132
:106CF000F9F7ECFA0120049000962078294601F07B
:106D0000F2FC0A2001F030FC00200CB070BD10B580
:106D10001C46006C1346224608F004FC204610BDB9
:106D200010B51C46006C1346224609F079F920463E
:106D300010BD01F099BC01F099BC2DE9F0478CB071
:106D400000699846C4690E46174601B93FB9DDF897
:106D50005090B8F1000F07D1B9F1000F04D002250F
:106D600028460CB0BDE8F087E07AF0B1607AA17AED
:106D7000002201F01FFC2EB127B1BAB220463146E5
:106D800001F0E2FCB8F1000F18BFB9F1000F05D017
:106D90001FFA89F22046414601F0B6FC607AA17ADA
:106DA000012201F007FC0025DAE73078022F01907C
:106DB0004FF00100059010D3042F4DD3B1787078B7
:106DC000F278090241EA0040104402900220099042
:106DD000012006904FF0040A05E000204FF0010A60
:106DE0000290069009900025B8F1000F03950795D1
:106DF0000A9519D0A7EB0A00B7EB0A0118BFC1002A
:106E0000012004910890CDF82C90207801A901F080
:106E10006AFCB9F1000FC6D02078414601F05BFC56
:106E2000032101EAE0759BE7B7EB0A0738460495B2
:106E300018BF012008900B97207801A901F053FC9E
:106E4000002F3FF48DAF207806EB0A0101F053FCD0
:106E5000022101EA907583E7032581E72DE9F043DC
:106E600081B0036C022963D0044601296AD000294D
:106E700040F0C380002A00F0C080168850889188B6
:106E8000D7888E428846814684BFB0460E46B842B7
:106E900088BFB946198888BF0746884580F0AD800D
:106EA0005888874280F0A980158920462A21FFF75B
:106EB0008AFB310A2046FFF7D2FB20463146FFF716
:106EC000CEFB4FEA18212046FFF7C9FB204641467A
:106ED000FFF7C5FB20462B21FFF775FB4FEA192171
:106EE0002046FFF7BCFB20464946FFF7B8FB390AAE
:106EF0002046FFF7B4FB20463946FFF7B0FB20469B
:106F00002C21FFF760FBA8EB0600A7EB090101307D
:106F1000013101FB00F6012E12DB00272046294635
:106F2000FFF7E9FB0137B7424FF00000F6DB66E000
:106F3000002A4FF0FF3062D0002B60D0106818603C
:106F400000205CE0002A58D0158850889188D688A7
:106F50008D420F46804684BF2F460D46B04288BF03
:106F6000B046198888BF06468F4246D25888864266
:106F700043D2D2F8089020462A21FFF724FB290AA1
:106F80002046FFF76CFB20462946FFF768FB390ACD
:106F90002046FFF764FB20463946FFF760FB20469A
:106FA0002B21FFF710FB4FEA18212046FFF757FB74
:106FB00020464146FFF753FB310A2046FFF74FFBBF
:106FC00020463146FFF74BFB20462C21FFF7FBFA0A
:106FD000781BA6EB08010130013101FB00F5012D02
:106FE000AEDB002639F816102046FFF784FB013689
:106FF000AE424FF00000F5DB01E04FF0FF3001B092
:10700000BDE8F0832DE9F04381B00446022B4FF038
:10701000FF3030D3904672B3236C1A885B88B1FB83
:10702000F2F61FFA86F9994525D206FB121520467D
:107030002A21AFB2FFF7C7FA390A2046FFF70FFB44
:10704000E9B22046FFF70BFB20462B21FFF7BBFAE6
:107050004FEA19212046FFF702FBF1B22046FFF765
:10706000FEFA20462C21FFF7AEFAB8F800102046B1
:10707000FFF741FB022001B0BDE8F083B0B582B05C
:1070800000F26C55044628468021F9F71FF994F860
:1070900052C604F2116004F5BE63009004A22846B3
:1070A0008021CDF804C009F0FFF9284602B0B0BD38
:1070B00041542B43575341503D222573222C222506
:1070C00073222C352C25640D0A00000070B540F2A7
:1070D0001C04C2F200042568A54208BF70BD45F635
:1070E0009466C2F2000600BF55F8202C42B1A5F10B
:1070F0002400017B012903D1306081681030904762
:107100002D68A542F0D170BDB0B582B000F26C55CB
:10711000044628468021F9F7D9F894F86031B4F88C
:10712000384604A228468021009409F0BDF928467B
:1071300002B0B0BD41542B43495053454E443D2508
:10714000642C25640D0A000001F02CB970B540F2E2
:107150002404C2F200042568A54208BF70BD0026C1
:1071600055F8180CC0B115F8100C012814D101F015
:107170000AFA55E90312401A90420DD955E9061052
:10718000884715F8040C20B101F0FDF945F80C0C06
:1071900002E005F8106C00BF2D68A542E0D170BD7B
:1071A0002DE9F04FAFB040F24008C2F200080F46A0
:1071B00098F8051005467CA08DE8230044F2AC2128
:1071C0001E469346C0F601017BA20120F9230397D6
:1071D00002F002FCB5F1FF3F40F373800B2D47D165
:1071E000002F45D0B7F84840ECB3D7F84490B9F138
:1071F000000F38D040F2B40AC2F2000A0496DAF85E
:10720000006000BF56451FD0A6F184003946F9F74B
:1072100097F828B9B7F8420036F8861C884201D0A2
:107220003668EFE7A6F194004946224601F068F877
:10723000012056E9282306F8980C032000219847DE
:10724000D7F84490B7F84840D8E91B631EA9072037
:107250000022CDF87890ADF87C40B04798F8050052
:10726000002851D0049EBBF1000F01D03846D8470A
:1072700098F80500062800F29480DFE800F0041575
:10728000262B393D4100022D40F08B801EAC20465C
:107290004221F9F71BF840F29A21D8F80000ADF826
:1072A000BA100621224607E0032D73D0002D78D1B5
:1072B000424652F8060B042100F072FBB0F1FF3F8A
:1072C0006FDC98F80500002168E0072D69D12EB920
:1072D000022062E0082D64D1002E5DD001203268CA
:1072E0007368707201200021984798F8050054E0F7
:1072F000092D56D1042050E0042D52D105204CE038
:107300000A2D4ED1062048E00DF1140A50466221A4
:10731000F8F7DCFF786C03F06CFE0028A2D029A1FE
:10732000814603F059FE064628A1484603F054FE64
:10733000044676B1304603F052FE50B1366930460D
:10734000F8F7F7FF202804D8024605A83146F8F7D9
:10735000A4FF7CB1204603F042FE58B124692046C8
:10736000F8F7E7FF402805D802460AF12100214638
:10737000F8F793FF484603F0F3FD05A8F8F7D9FFA7
:1073800000283FF46FAF98F8050005AA012100F02E
:1073900027F867E7012000E003200121002200F028
:1073A0001FF82FB000F016B85B25645D6576743A5F
:1073B00025642025700D0A005F6257696669447272
:1073C0007643620073736964000000007061737338
:1073D0007764000030BCBDE8C08F00F0E3BF000060
:1073E00080B582B040F2400EC2F2000E00230128A8
:1073F0008DF807108EF804300CD0A0B9DEE91BC35D
:10740000002000290CBF00211146002202B0BDE877
:1074100080406047DEE91BC30DF107010120002217
:10742000E04702B080BD9EF8050002380428F8D875
:10743000DFE800F0031B090F1500DEE91BC30DF1A7
:1074400007010220EBE7DEE91BC30DF10701042071
:10745000E5E7DEE91BC30DF107010520DFE7DEE903
:107460001BC30DF107010620D9E7DEE91BC30DF1AF
:1074700007010320D3E7000080B582B040F240014D
:10748000C2F200010A799AB191F805C00CA044F249
:10749000AC210090C0F601010DA202204FF4BE7392
:1074A000CDF804C002F098FA4FF0FF3002B080BD72
:1074B000024608680F2102B0BDE8804000F070BAB3
:1074C0006275737920636D643A25640D0A000000CB
:1074D0005F625769666953657444727643624172AC
:1074E00067000000F0B583B000284FF0FF3752D09E
:1074F0000D4600294FD0044628A01646CDE90002CB
:1075000044F2EB2144F2DF22C0F60101C0F6010291
:107510000320C523029502F05FFA67682FB322A00B
:1075200044F2EB2144F2DF220090C0F60101C0F6E4
:1075300001020320C823019702F04EFA6168284631
:10754000F8F7CFFE4FF0000728B344F2EB2144F2E6
:10755000DF2218A6C0F60101C0F601020320CB23EA
:10756000009602F039FA676015E0304602F0C6FA7C
:1075700078B1294632460746F8F78FFEA368656959
:1075800044F63152C0F6000238463146A84700277B
:1075900001E04FF0FF37384603B0F0BD3E5B256495
:1075A0005D25730D0A000000726573705B25735DC5
:1075B0000D0A00006D61746368206F6B2E2E0D0A3A
:1075C000000000002DE9F04381B04FF0FF3540B3DB
:1075D0000F4631B3164622B344F2EB2198460446D7
:1075E000DDF8209011A5C0F6010113A203209B2312
:1075F000009502F0F1F9201D4421F8F767FE47F2EB
:107600005571002504F11C030DA0C0F600012246AF
:10761000C4E90476C4F818802560C4F8089003F023
:10762000B1F8284601B0BDE8F08300BF617420695D
:107630006E69742E2E0D0A00624174496E697400E1
:1076400061740000F0B587B017460D4604462DA0C2
:1076500044F2EB2144F211321E460090C0F60101C3
:10766000C0F601020320A823019502F0B5F92069B4
:10767000ACB1A5B190B1616989B1A16979B137B3F4
:107680002EBB44F2EB2144F2113224A7C0F60101D3
:10769000C0F601020220B123009712E00020D4E9D5
:1076A000051724A28DE83400CDE9030144F2EB2153
:1076B00044F21132C0F60101C0F601020220AC23EF
:1076C000059702F089F94FF0FF3007B0F0BD206850
:1076D00008B9606880B144F2EB2144F211320CA782
:1076E000C0F60101C0F601020220B623009702F0A5
:1076F00073F96FF00100E8E70020C4E90057A681A4
:10770000E3E700BF6174636D643A2025730D0A00DE
:10771000627573792E2E0D0A000000007265737079
:1077200020706172616D206572726F722E2E0D0A6B
:1077300000000000706172616D206572726F722EC0
:1077400025702C25702C25702C25702C25702E0D65
:107750000A0000002DE9F04383B0044600880D467E
:1077600078284FF0000838D06E280BD040B10020A8
:107770004FF003092080C4E90100C4E9030056E08A
:107780006E2020802F684FF00009002F4FD0AE6987
:107790003846F8F7CEFDAA6881B23846B047686827
:1077A000C5F80090E0B3AF8923A044F2EB2100902C
:1077B000C0F6010125A203207723019702F00CF9FE
:1077C000E06840B900F0DFFEA989C4E901010120A9
:1077D000E0600020206178202080686830B100F0EF
:1077E000D2FED4E90112401A90421ED300F0CBFE23
:1077F000D4E90112401A904224BF6FF001002061C9
:107800000020E060D5E901212B69002A08BF4FF074
:107810000108C5E90000A8815FFA88F09847AFE742
:10782000A9682A6901209047AAE74FF00009484655
:1078300003B0BDE8F08300BF77616974207265739F
:10784000702025646D732E2E0D0A00006241745461
:1078500061736B0070B582B04FF0FF3678B30C46A1
:1078600069B340F21026C2F200060546307858B9D6
:1078700044F6E36044F67971C0F60000C0F60001FA
:1078800003F085FC0120307045F69061C2F20001E2
:10789000086818B1C168E960C56002E000200D60A9
:1078A000E860286801A9019400F0ACFA607A00262B
:1078B00040F0010060722046267203F07DFC3046E5
:1078C00002B070BD10B5042813D840F2142100EBAB
:1078D0004000C2F2000101EB8000044614F8011FD1
:1078E00039B1406800F06CF8207810B100202070A9
:1078F00010BD4FF0FF3010BD70B584B01646044681
:1079000001280D4625DB25B32846F8F712FD80280F
:107910001FD82878E8B1668304F11C06304681211F
:10792000F8F7D4FC2846F8F704FD0246304629460D
:10793000F8F7B3FC2046FFF79FFD00281BD494F80E
:107940009D00618BD0B1304604B0BDE8704003F0BB
:1079500026B90DA044F2AC218DE83100C0F601013A
:107960000CA202204FF42773039602F035F84FF073
:10797000FF3004B070BD6FF00100FAE7304604B08C
:10798000BDE8704003F0D2B825642025702025643E
:107990000D0A000062436F6E6E65637400000000A4
:1079A000042884BF4FF0FF30704740F2142300EBEF
:1079B0004000C2F2000303EB8000406800F03EB8D4
:1079C00080B582B0042802D94FF0FF3021E040F2A8
:1079D000502200EB0011C2F2000252F82130D3B164
:1079E00040F6A071C0F6010151F820C043F270606A
:1079F000C0F6010043F289610090C0F601010BA2BC
:107A0000022040F22B13CDF804C001F0E5FF6FF027
:107A1000FE0002B080BD02EB8100C16819B102B066
:107A2000BDE8804008476FF0FD00F2E762446576EC
:107A3000696365436C6F73650000000080B582B0B8
:107A4000042802D94FF0FF3021E040F2502C00EB27
:107A5000001EC2F2000C5CF82E30D3B140F6A071CB
:107A6000C0F6010151F820C043F27060C0F6010079
:107A700043F289610090C0F601010BA2022040F29E
:107A80004113CDF804C001F0A7FF6FF0FE0002B073
:107A900080BD0CEB8E0003691BB102B0BDE88040D5
:107AA00018476FF0FD00F2E762446576696365434D
:107AB000746C00002DE9F04F85B040F25020C2F206
:107AC00000004FF4AA71F8F701FC44F2D87644F2B2
:107AD000D070C0F60106C0F6010040F6B47940F659
:107AE000A07BB042C0F60109C0F6010B24D044F2DD
:107AF000D07440F2502AC0F60104C2F2000A00BF5E
:107B000000205546002700BF19F80710227891423F
:107B10000AD100F1010868625BF8270061682862F9
:107B200028468847286040460137052F05F144055F
:107B3000EAD10834B442E3D144F2D07844F2A870D8
:107B4000C0F60108C0F60100404522D044F2A874F6
:107B500040F2502AC0F60104C2F2000A0020554645
:107B6000002700BF19F807102278914209D1461C5E
:107B700068625BF8270061682862284688472860A9
:107B800030460137052F05F14405EBD10834444553
:107B9000E4D143F2896A43F2BB6627A0C0F6010A2A
:107BA000C0F6010623A70090032051463246B923B0
:107BB000019701F011FF40F25020C2F2000043F2A1
:107BC000626500F1200400274FF0FF380FF28009B2
:107BD000C0F60105206858B154F8201C0095CDE985
:107BE0000201032051463246C223019708E000BF3C
:107BF0008DE8A002032051463246BE23CDF80C800A
:107C000001F0EAFE0137052F04F14404E2D143F20A
:107C1000896143F2BB6211A7C0F60101C0F60102FF
:107C20000320C423009701F0D7FE002005B000F028
:107C300017B800BF646573000D0A6465765F6E6FE8
:107C40000909253136730973746174650D0A0000E2
:107C50006E6F206472697665000000000D0A0000F6
:107C600030BCBDE8C08F000080B582B0042802D9C6
:107C70004FF0FF3020E040F2502200EB0011C2F242
:107C8000000252F82130CBB140F6A071C0F60101DC
:107C900051F820C043F27060C0F6010043F28961E0
:107CA0000090C0F601010BA20220E723CDF804C02A
:107CB00001F092FE6FF0FE0002B080BD02EB810089
:107CC000816819B102B0BDE8804008476FF0FD003F
:107CD000F2E700BF624465766963654F70656E00C8
:107CE00010B582B004284FF0FF3C20D8FAB140F222
:107CF000502E00EB001CC2F2000E5EF82C40CCB1FE
:107D000040F6A071C0F6010151F8204043F27060C6
:107D1000C0F6010043F289610090C0F601010CA297
:107D20000220FE23019401F057FE6FF0FE0C604626
:107D300002B010BD0EEB8C00D0F818C0BCF1000FE3
:107D400003D002B0BDE8104060476FF0FD0CEEE7D5
:107D50006244657669636552656164000246042881
:107D60004FF0FF300BD851B102EB021040F250221D
:107D7000C2F2000202EB8000006C08600020704735
:107D800010B582B004284FF0FF3C21D802B340F276
:107D9000502E00EB001CC2F2000E5EF82C40D4B155
:107DA00040F6A071C0F6010151F8204043F2706026
:107DB000C0F6010043F289610090C0F601010DA2F6
:107DC000022040F21513019401F006FE6FF0FE0C44
:107DD000604602B010BD0EEB8C00D0F814C0BCF1B0
:107DE000000F03D002B0BDE8104060476FF0FD0CFB
:107DF000EEE700BF62446576696365577269746532
:107E000000000000024604284FF0FF300BD851B1AB
:107E1000086802EB021140F25022C2F2000202EBAB
:107E20008101086400207047F0B581B0044647F630
:107E300029600025C0F60000C4E9005004F10800E4
:107E40001421A5626563F8F741FA606A41F2E40122
:107E5000C0F60101014440F2A436E16145F201019E
:107E6000C2F2000640F20C77C0F6000100FB07608A
:107E7000216140F20C712064F8F728FA606A47F635
:107E8000117100FB0760C0F6000100F5DB631EA066
:107E9000224602F077FC606A44F6E14100FB07608D
:107EA00044F6355244F6A56300F25460C0F6000172
:107EB000C0F60002C0F600030094FFF783FB606A7F
:107EC0004FF4806300FB0761E06901F5B672C1F809
:107ED000B4263222A1F8BC2645F26D62C0F600023B
:107EE000C1F8B836C1F8C026C1F8C446A1F8C856D2
:107EF000A1F8CA56C1F8CC56007801F29C6100F096
:107F0000C1FC002001B0F0BD657370313266000025
:107F1000F0B581B00E6C0D46317821B3044600886F
:107F2000B0F5EA7F09DC08B340F2BB1188425ED0AD
:107F3000B0F5DF7F00F080800DE040F2D51188427F
:107F400000F0B180B0F5FA7F00F0F88040F2022135
:107F5000884200F0308100202080C4E90100C4E99B
:107F60000300032000E0002001B0F0BD96F86B0193
:107F7000C1071FD1800777D4D6F86401002800F02C
:107F80000C8196F86811002900F0078196F86921A4
:107F90008A4280F00281110141580023002906F233
:107FA000546700EB021086F86A3100F0A98042683D
:107FB0000389B1E043F21A7143F22C72002706F2F2
:107FC0005460C0F60101C0F601024FF4967386F8C2
:107FD0006A71FFF737FBE06830B900F0D4FA231D6F
:107FE00041F28831012287C340F2BB10208096F80D
:107FF0006A0130B900F0C7FAD4E90112401A904280
:10800000B1D300F0C0FAD4E901120027401A90421F
:1080100024BF6FF00100206196F86A01E760012833
:1080200040F0B58000F0AFFA231D4FF47A610122D1
:1080300087C34FF4DF70208000F0A5FAD4E9011265
:10804000401A90428FD300F09EFAD4E90112401AF0
:10805000904224BF6FF00100206196F86B11002060
:10806000E06001F0FE0048E096F8690141F2440149
:10807000C0F6010101EB0013000109585A681B8981
:10808000002706F2546086F86A71FFF7DBFAE068B1
:1080900030B900F078FA231D41F28831012287C3FC
:1080A00040F2D510208096F86A0138B900F06BFADA
:1080B000D4E90112401A9042FFF455AF00F063FA80
:1080C000D4E90112401A904224BF6FF001002061F0
:1080D00096F86A0100210128E16058D196F86901FB
:1080E0000130C1B2022986F8690156D396F86B11A6
:1080F000002086F8690101F0FD0086F86B014CE074
:10810000C16830468847D6F8641196F8692101EBBA
:1081100002114A680B8901463846FFF793FAE06876
:1081200048B900F030FA04F1040C41F28831012220
:1081300000238CE80F004FF4FA70208096F86A0153
:1081400038B900F020FAD4E90112401A9042FFF445
:108150000AAF00F018FAD4E90112401A904224BF85
:108160006FF00100206196F86A0100210128E160AA
:108170000DD196F8690196F868110130C2B28A42B1
:1081800086F8690109D396F86101012102E096F8A9
:10819000610100212A46FDF705F9E06840B900F0C9
:1081A000F2F904F1040C6421012200238CE80F0091
:1081B00040F20220208000F0E6F9D4E90112401AD2
:1081C0009042FFF4D0AE00F0DEF9D4E90112401A7B
:1081D000904224BF6FF0010020610020E060C5E6FE
:1081E000B0B544F2A87444F29070C0F60104C0F631
:1081F0000100A04209D044F29075C0F6010500BF0D
:1082000055F8040B8047AC42FAD10020B0BD30B124
:108210000146002008608880C880088170474FF0C0
:10822000FF307047034600284FF0FF3018BF002989
:1082300000D17047002AFCD0002019609A80D880B5
:10824000188170474FF0FF3260B159B1B0F808C0E3
:10825000C38802899C453CBF83881A44C088101A91
:10826000002208801046704710B500284FF0FF3EEE
:1082700043D0002941D0D0F800C0BCF1000F37D066
:10828000B0F808E0C4880389A6453CBF848823442D
:10829000C4881B1B9CB2944238BF1A461FFA82FE48
:1082A000BEF1000F27D0C288BEF1010F1CF80220DA
:1082B0000A70C288B0F804C002F10102B2FBFCF4FB
:1082C00004FB1C22C28018D0012200BF0468C388AE
:1082D000E35C8B54C388B0F804C00133B3FBFCF4F7
:1082E000013204FB1C3392B27245C380EED304E02A
:1082F0004FF0FF3E01E04FF0000E704610BD000051
:10830000B0B500284FF0FF3E49D0002947D0D0F843
:1083100000C0BCF1000F0CD00389C488B0F808E09D
:10832000A34209D28388C58803EB0E04A4EB050E93
:1083300006E04FF0FF3E32E0C4888388AEEB040EC7
:10834000A3EB0E039DB2954238BF1A461FFA82FE78
:10835000BEF1000F21D00A780589BEF1010F0CF89B
:1083600005200289858802F10102B2FBF5F404FBC5
:108370001522028113D0012205688C5C0389013229
:10838000EC54038985880133B3FBF5F492B204FB06
:10839000153372450381EFD301E04FF0000E7046B4
:1083A000B0BD000000283ED045F6B031C2F2000159
:1083B0000978012937D140F6B031C2F2000144F604
:1083C000F8720A4490422ED8083188422BD350F8D4
:1083D000081CCAB2AA2A26D1552240F6B03C62F344
:1083E0000701C2F2000C40F8081CDCF80020DCF8A1
:1083F0000400D3B2552B13D1A8B100BF0368D9B282
:1084000055290DD103F5006121F0FF010A44CCF894
:10841000002040680028CCF80400EFD103E000BF42
:1084200000288446E1D1704770B582B030B304466D
:108430008068022804D3606810B16FF0010552E033
:108440002068022101F00CFE0546013009D0E068E9
:1084500001AA019028460221FFF7A2FA2846FFF759
:1084600031FA45F69C61C2F20001086848B1D0F8C3
:108470008810C4F88810C0F8884006E04FF0FF3537
:1084800031E000200C60C4F88800012004F11C06D3
:10849000B4F90C20B4F90E3044F2BB11207400255D
:1084A000C0F600013046A4F85C50FBF7BFFB304635
:1084B000FBF76BFC4FF6FF70FBF777FC0020FBF738
:1084C0006CFC44F2F101C0F600010120FBF74EFA0A
:1084D00040F65070C0F60100FBF7AFFA45F6986021
:1084E000C2F200000460284602B070BDB0B545F687
:1084F000B034C2F20004207890B940F6B035C2F230
:10850000000505F1080044F6F871F7F7DFFE4FF6B5
:108510005500C0F24F000021C5E900010120207084
:1085200040F6B031C2F20001002000BF0A6849687D
:10853000D3B2552B08BF00EB12200029F6D1B0BDF5
:1085400081B040F22C01C2F20001096848434FF4A7
:108550007A714843009000BF0098411E00280091A6
:10856000FAD101B07047000081B040F22C01C2F294
:1085700000010968484300900098411E00280091BE
:10858000FAD101B0704745F66440C2F200000068BD
:10859000704745F66840C2F20000016845F6644045
:1085A000C2F200000068704701F035BB01F08BBBE0
:1085B00001F09CBB01F0A5BB01F0B8BB45F66440DF
:1085C000C2F20000016801310160006800B170472B
:1085D00045F66840C2F20000016801310160704751
:1085E000F0B583B040F22C07C2F200073C6848F2B5
:1085F000A060C0F201006043029000200190009052
:1086000045F66440C2F200000168019102994A1ED9
:1086100000290292FAD10068009000980199401A4E
:10862000F8F775FB9FED0E0B02460B4651EC100B55
:10863000F8F7C8FA054620460E46F8F768FB0246EA
:108640000B4628463146F8F748FAF8F7A0FB3860A1
:1086500003B0BDE8F04000F04BB900BF00BF00BF61
:10866000000000000000594001F069BB01F06BBB45
:1086700010B540F2080CC2F2000CDCF8004000BF5C
:1086800064450ED034F80C3C834208D114F80A3CFF
:108690008B4204D154F808ECBEF1000F04D12468D9
:1086A000EEE74FF0FF3010BD54F8043CF0470020D7
:1086B00010BD68B1416859B140F20801C2F2000131
:1086C0000A6840F80C2F5060416008600020704735
:1086D0004FF0FF30704718B911B1002001F036BBE0
:1086E0004FF0FF30704718B911B1002001F068BB9E
:1086F0004FF0FF30704718B911B1002001F0CCBB2A
:108700004FF0FF307047000070B5064600284FF06C
:10871000FF3010D00D4671B13078144601280BD1CE
:1087200044B100BF3046FF2100F02CF8013C05F8B1
:10873000010BF7D1002070BD304629462246BDE826
:10874000704001F0DFBB000070B5064600284FF016
:10875000FF300FD00D4669B13078144601280AD198
:108760003CB100BF15F8011B304600F00BF8013C8E
:10877000F8D1002070BD304629462246BDE8704041
:1087800001F0D4BB2DE9F04F85B078B30C460178E9
:1087900001292DD1B0F8019090F807A0B0F805108C
:1087A000B0F8038090F808B056464FEA1920BAF1A5
:1087B000000F18BF012603904FEA18200D0ACFB210
:1087C0000290384629463246FFF7F4FEBBF1000F0F
:1087D000CDF810B0019611D0BAFA8AF04FEA501BCA
:1087E000384629465A46FFF7E5FE08E000243DE0FA
:1087F000214605B000F03EB801F0C4BBB3468BF093
:1088000001064FF0000A5FFA88F85FFA89F900BFA5
:10881000029904F080024046FFF7CCFE3846294614
:108820003246FFF7C7FE03994846FFF7BFFE002810
:1088300018BF0120049940EA4404012908BFBAF195
:10884000070F0AD0384629465A46FFF7B3FEBAF159
:10885000070F0AF1010ADBD35E460198864205D074
:1088600086F0010238462946FFF7A4FEE0B205B0C3
:1088700000F005B830BCBDE8C04FFFF7BDBF30BC4D
:10888000BDE8C08FB0B540F21005C2F200052A68FD
:108890000C4600BFAA4205D012F8341C81421AD0FF
:1088A0001268F7E7BCB1A169A9B12070A07145F2C7
:1088B0009D5044F655122146C0F6000021F8042FC1
:1088C000C4E902040020A085E08520630846FFF784
:1088D000F0FE18B1B0BD4FF0FF30B0BD286844F8CD
:1088E000340F4460002065602C60B0BD01F06CBBAB
:1088F0007047000070B582B0A8B305464FF4AC7065
:108900000E4601F0FBF888B34FF4A8710446F7F760
:10891000DDFC00204FF0FF3105226270C4E93256C1
:10892000C4E9340145F2D56104F1D803C4E9540027
:10893000C0F600010020224601F024FFC4F8040123
:10894000B0B944F2E9410CA6C0F6010110A2022020
:108950004FF40D73009601F03FF82046FFF722FD1B
:108960006FF0020404E04FF0FF3401E06FF0010407
:10897000204602B070BD00BF7461736B20637265E6
:10898000617465206661696C2E2E0D0A000000007E
:108990006248747470496E69740000002DE9F04FEC
:1089A00085B01546044601280F4620DB012F1ED84E
:1089B000EDB1D4F8C800D0B16078052830D104F109
:1089C00002094846C2219B46F7F780FC97A128463A
:1089D00008220826F7F7CBFCA0B397A12846072268
:1089E0000726F7F7C4FC002861D100202BE044F2F1
:1089F0009140C0F6010044F2E94144F261528DE831
:108A00009100C0F60101C0F60102022040F24323AA
:108A1000039500F0E1FF4FF0FF3005B000F048B9DA
:108A200044F2E94144F261527CA7C0F60101C0F66C
:108A30000102022040F24923009700F0CDFF6FF0C1
:108A40000100EAE701202E44207030462F21F7F77D
:108A500066FC824620B92846F7F76BFC05EB000A56
:108A6000AAEB0605402D22DC484631462A4604F191
:108A70004308F7F748FC60190021817048463A2105
:108A8000F7F74DFC18B10130F7F76BFF05E02178DF
:108A900040F2BB10002908BF5020A4F8C4009AF887
:108AA0000010C9B15046F7F744FC802818D97AA0C5
:108AB00044F2E94144F261524FF0FF370090C0F6B2
:108AC0000101C0F60102022040F25123019700F09B
:108AD00083FF6FF00200A0E72F21A8F8001005E047
:108AE00040465146F7F73AFCB4F8C40044F2E94571
:108AF00044F2615680B252A1C0F60105C0F60106EB
:108B0000009102900320294632464FF41573CDF8A8
:108B1000049000F061FF4FA00090032029463246E8
:108B200040F25523CDF8048000F056FF012F1ED0EF
:108B3000002F4FD14046F7F7FCFB05464846F7F7B4
:108B4000F8FB284400F12E05284600F0D7FF002846
:108B500040D029460746F7F7B9FB44F2F832C0F691
:108B60000102384629464346CDF800904FE0DDF833
:108B700038A04046F7F7DDFB05464846F7F7D9FB36
:108B800006465046F7F7D5FBA9190844BBF1000F7C
:108B900000F1360503D05846F7F7CBFB05442846CD
:108BA00000F0ACFFB0B129460746F7F78FFB5046FF
:108BB000F7F7BFFBBBF1000F21D044F2AF42CDE984
:108BC000009B0290C0F60102384629464346CDF884
:108BD0000CA01CE044F2664744F2E94144F26152C1
:108BE000C0F60107C0F60101C0F6010202204FF4F1
:108BF0001873009700F0F0FE6FF003000DE7CDE969
:108C0000009017A2384629464346CDF808A007F041
:108C10004BFC0020C4F8D0706070FEE6687474707D
:108C200020627573792E2E2E0D0A00006874747000
:108C3000733A2F2F00000000687474703A2F2F00D1
:108C4000686F73743A257320706F72742025640AFC
:108C500000000000706174683A2573200A0000006B
:108C6000504F5354202F257320485454502F312EE9
:108C7000310D0A486F73743A2025730D0A436F6EE5
:108C800074656E742D4C656E6774683A2025640DAA
:108C90000A0D0A25730D0A007061727365207572E2
:108CA0006C206661696C2E2E2564200D0A00000080
:108CB00030BCBDE8C08F000070B58AB0FFF790FCF3
:108CC00043F23A6443F25C6543F2096CC0F6010476
:108CD000C0F60105C0F6010C032021462A4640F2E9
:108CE0004113CDF800C000F077FE43F2455CC0F6BA
:108CF000010C032021462A464FF4A173CDF800C091
:108D000000F06AFE43F2A75CC0F6010C0320214686
:108D10002A4640F24313CDF800C000F05DFE43F256
:108D2000765CC0F6010C032021462A464FF4A2735C
:108D3000CDF800C000F050FE43F2145CC0F6010C08
:108D4000032021462A4640F24513CDF800C000F02A
:108D500043FE43F2D85CC0F6010C032021462A46AC
:108D60004FF4A373CDF800C000F036FE43F2E34C9D
:108D7000C0F6010C032021462A4640F24713CDF8E5
:108D800000C000F029FE0FF26C0C032021462A4699
:108D90004FF4A473CDF800C000F01EFE22A008908E
:108DA000012108220C23152025A60FF2880C4FF074
:108DB000060ECDE90060CDE90233CDE904210320A0
:108DC00021462A4640F24B13CDF818E0CDF81CC0DE
:108DD00000F002FE24A005260090032021462A462A
:108DE0004FF4A673019600F0F7FD0AB0BDE870409D
:108DF000FEF760BE202020202020202020202020E0
:108E0000202020202020202020285F202F2020200C
:108E10002020202020202020202020202020202052
:108E200020200D0A0000000031303A34303A343648
:108E3000000000004D6172203331203230323400A6
:108E400048573A25642E25642E25642046573A2536
:108E5000642E25642E256420434F4D50494C453ADD
:108E600025732D25730D0A00646576696365206E90
:108E7000756D6265723A25640D0A000001464B6A01
:108E800041F2E50248F67D6C03EB4303C0F60102B4
:108E90000020C0F6000C1A4446F2A15388624863D1
:108EA0000864C0F60003C1E9000CC1E90200C1E991
:108EB000040000208B61CA61704700002DE9F04F6B
:108EC0008BB005460020099085B10F4671B114465C
:108ED00062B11E4653B12878012819D13846F7F7F8
:108EE00028FAFF2828D96FF0020022E044F271210D
:108EF00044F2982270A7C0F60101C0F601020320D7
:108F000040F2D343009700F067FD4FF0FF3010E0D0
:108F100044F2712144F298225EA7C0F60101C0F626
:108F2000010203204FF49B63009700F055FD6FF0A2
:108F300001000BB000F0C8B809AA28463946FCF772
:108F400029FF0028F5D4DDF8249002AA28464946D6
:108F5000FDF7DBF807986FF3DF50B04202D96FF0EE
:108F60000300E6E700216868149F4FF6FF7ADDF8FA
:108F70001C800A910021C0F27F0A01F071F80028DC
:108F80001CD406465FEA082038D4032000EB1860A2
:108F900020F00300484400F11801304600F09CFD29
:108FA00008EA0A023046214601F0A0F83046FEF7F2
:108FB00089FC149F4FF6FF7AC0F27F0A079800EAF7
:108FC0000A0207B13A60069D0D20214602F0AAF878
:108FD000854201D10020ACE744F2712144F298228D
:108FE00030A7C0F60101C0F60102032040F2F143B0
:108FF000009700F0F1FC6FF004009AE70AEA080A13
:10900000AAF111000190032000EB186020F003008A
:10901000484400F118094FF000084FF0000B286990
:1090200000B9E868019901441038B1FBF0F08045BF
:10903000BCD2DA45BAD33046494600F04DFD304641
:109040000AA9042201F052F82869AAEB0B0701468D
:1090500000B9E96810398F4203D900B9E868A0F176
:1090600010070A98A9688842A0D3EA681144884288
:109070009CD200F11001304600F02EFD04EB0B01F4
:1090800030463A4601F032F8BB4408F1010809F1D4
:109090000409C4E76E6F20696E69742E2E2E200DB0
:1090A0000A000000636865636B2063726320657269
:1090B000726F72200D0A0000706172616D2065721E
:1090C000726F72200D0A000030BCBDE8C08F000036
:1090D0002DE9F04391B044F2712144F2A4220446F8
:1090E00079A7C0F60101C0F60102032040F27E43D9
:1090F000009700F071FC002C00F0DE80E168002990
:1091000000F0DA8022694FF0FF30914240F2D680C1
:1091100010230026C4E9050374A3A768002AE661AA
:1091200014BFB1FBF2F001200093CDE9021244F22A
:10913000712144F2A42246F676380490C0F601016B
:10914000C0F60102032040F28E43C6F25F28019769
:1091500000F042FC45F2796745F27869002506AED9
:10916000C1F23427C1F23429206918B1E168B1FB9A
:10917000F0F100E001218D4221D2204629463246FD
:10918000FCF7DDFF002800F197800698404509D1E3
:10919000089840F00800B8420FD00798484509D118
:1091A00065610AE020462946FCF7CAFD20462946AB
:1091B000FDF778F9E0690130E0610135D4E790B15D
:1091C000E16989B961694A1C59D02046FCF7B8FDAC
:1091D00061692046FDF766F901204FF0FF31E0613B
:1091E0006161207044E00020616901220029227041
:1091F0003ED4064600B9E668112E3DD3A26801FBB5
:1092000000200AAA00F110012046FCF77EFFA0BB57
:10921000102703250DF128090A98404551D10F99CF
:1092200005EB116020F003000A026FF3DF5103D455
:10923000033121F0030108E0226902B9E268114418
:109240001139103AB1FBF2F189003844084400F1B9
:109250001807B74210D2A068D4E90412384402FBC0
:10926000010120464A46FCF750FF0028D4D004E014
:109270002046FCF78FFF21E0A66100201EE00025BC
:10928000E561656118B1E168B1FBF0F100E0012131
:109290008D42A9D220462946FCF752FD00280BD466
:1092A00020462946FDF7FEF8002805D4E16920692B
:1092B0000131E1610135E5E74FF0FF3011B0BDE864
:1092C000F083A761D9E700BF3D3D3D3D3D3E426192
:1092D00062794F53204B562056302E333D3D3D3D55
:1092E0003D3D3D3D3D3D0D0A00000000625F6B7657
:1092F0003A307825782025644220655F73697A6565
:109300002025644220736563746F722025640D0A02
:10931000000000002DE9F04FA3B000284FF0FF3609
:1093200000F05D820F46002900F059829246002A23
:1093300000F055821D46002B00F051820446007853
:10934000012840F0CF80D4F810B03846BBF1000FB0
:1093500008BFD4F80CB0A669F6F7EBFF81460020F1
:109360004FF0FF38109011AA20463946CDF84480BE
:10937000FCF710FD002846D0CDF8448009F11B0011
:1093800020F00301E81C20F003022069ABEB060685
:1093900001EB020B4FF0000970B11038A8420BD25C
:1093A00029180139B1FBF0F93846F6F7C2FF1B3036
:1093B00020F0030000EB890BB34514D92046FCF7DD
:1093C000E9FE002800F1A280206900B9E068A169E7
:1093D000401A834500F2868011AA20463946FCF7E0
:1093E000D9FCDDF844804FF6FF76B9F1000FC0F2EA
:1093F0007F0618BF18F101005FD118F1010000F0DD
:109400008780206971E0DDF84480A068804540F2E3
:10941000B581E1680844804580F0B08100200A9061
:109420001AAA20464146FCF770FE002800F1A982E6
:109430001F986FF3DF50A84240F0A38160680021BD
:1094400000F00EFE0028099000F19B811F9808F1A2
:1094500018030102059600F12382032101EB10603D
:1094600020F00300C118099800F036FB4FF0000C03
:1094700012A9A5EB0C06CDF820C0202E28BF20266F
:109480000998324600F032FEDDF820C012A9012E04
:109490000BDB0AEB0C0E00200A5C1EF800309A422F
:1094A00040F069820130B042F6D3B444AC45E0D319
:1094B0000998FEF707FA002062E20AAA2046414610
:1094C000FCF723FE0F9920693140024600B9E2689B
:1094D00011441139103AB1FBF2F1E269114401393A
:1094E000494502D26FF0010679E1A8B1A16862692D
:1094F000A8EB0101B1FBF0F0904215D1A369204621
:1095000041460022FCF784FF61691AE0064666E1E5
:10951000CDF824B0012020E0A36920464146002276
:10952000FCF776FF064612E02046414600226FF027
:109530007F43FCF76DFFA1682269A8EB0101B1FB35
:10954000F2F10646204602220023FCF7D9FF002E46
:1095500000F145810020CDF824B004F11006A16887
:109560004CCEB9F1000F02FB031101EB060B00F02A
:10957000C980D0B91AAA20464146CDF820B0FCF7E0
:10958000C4FD1F9908020ED520694FF6FF72C0F284
:109590007F0201EA020100B9E06801441139103884
:1095A000884240F22081DDF820B04FF0FF300021EA
:1095B0001A902290219146F67631179012A8C6F2A1
:1095C0005F2100F10808129138464146FCF782FD00
:1095D0000D2051462A4601F0A5FD16903846F6F7B3
:1095E000A8FE4FF6FF721799C0F27F022A4001F4DD
:1095F000000142EA0060014460681791022100F016
:109600002FFD00287BD45946064600F065FA12A9C2
:109610003046042201F062FC0BF10801304600F0F4
:109620005BFA30464146102201F058FC3846F6F706
:1096300080FE02463046394601F050FC3046FEF7C7
:1096400041F90BF118074FF000090DF168080DF111
:10965000880B00BF204641465A460023FCF7B8FC61
:10966000229E2046314601220123FCF749FF226950
:10967000D4E9010102FB0611E2692191511EE16169
:10968000022100F0EDFC002839D406469DF85F0069
:109690002169033020F00300384401B9E168103932
:1096A000B9FBF1F100EB8101304600F015FA3046CC
:1096B00021A9042201F012FC219800F1100130468A
:1096C00000F00AFA20690AEB0901A5EB090203463A
:1096D00000B9E368103B9A4203D900B9E068A0F1F1
:1096E0001002304601F0FAFB3046FEF7EBF8206935
:1096F00000B9E0684844A0F11009A945AAD3DDF8F3
:10970000249068E046F676300F99C6F25F200A9002
:1097100021F400000F900AA800F1080838464146DD
:10972000FCF7D8FC0D2051462A4601F0FBFC0E90B8
:109730003846F6F7FEFD4FF6FF720F99C0F27F0232
:109740002A4001F4000142EA0060014460680F9180
:10975000022100F085FC002810D45946064600F08E
:10976000BBF90AA93046042201F0B8FB206958B1C0
:109770000BF10801304600F0AFF90AE04FF0FF3678
:109780002DE04FF0FF30FCE010A93046042201F03C
:10979000A5FBDDF8249030464146102201F09EFBE7
:1097A0003846F6F7C6FD02463046394601F096FBCC
:1097B0009DF83F00033020F00300584400F11801E9
:1097C000304600F089F9304651462A4601F086FBC2
:1097D0003046FEF777F8A0694844A061002630467D
:1097E00023B000F0F5B8B1FBF0F008F1180B4FF022
:1097F000000907902046414612AAFCF786FC002883
:1098000022903FF5D0AE206917994FF6FF72C0F253
:109810007F025E4601EA020100B9E06801441139A5
:109820001038B1FBF0F048457FF6BDAE606802210C
:1098300000F016FCB0F1FF3F7FF7B5AE83469DF810
:109840005F00033020F003003118584600F044F95F
:10985000584622A9042200F049FC5846FEF732F887
:10986000B346229E002E3FF59EAEA0682169301AB5
:10987000B0FBF1F12046FCF763FAA0682169301AC9
:10988000B0FBF1F12046FCF70DFEE06909F101099A
:109890000130E06107980BF1040B8145AAD382E601
:1098A0004FF6FF72C0F27F0200264FF0030C00213A
:1098B000089103932169024001B9E1680A44113A11
:1098C0001039B2FBF1F18E42BFF4F2AD0CEB106037
:1098D000049603EB8601099E20F003000144304604
:1098E00000F0FAF830460AA9042200F0FFFB2069D4
:1098F0000899A5EB0102014600B9E16810398A42D6
:1099000003D900B9E068A0F110020A98079200F1AB
:109910001001099800F0E0F8079A0AB3002312A991
:10992000D61A0693202E28BF20260998324600F02A
:10993000DDFB12A9012E0BDB08980AEB000C0020BE
:109940000A5C1CF800309A4215D10130B042F7D3BE
:10995000069B079A089833449A4230440890DFD80F
:10996000049E1F98039B4FF6FF720136C0F27F02E0
:109970004FF0030C9EE70998FDF7A4FF4FF0FF306E
:10998000059E00287FF4FAAC06A044F271210090F5
:10999000C0F601010AA2032040F2F133019700F062
:1099A0001BF81BE725732073616D652061732074BC
:1099B0006865206F6C642076616C7565200D0A0007
:1099C0005F624B5641646456616C7565000000002F
:1099D00030BCBDE8C08F00002DE9F04383B0032800
:1099E00071D840F6B028C2F2000804460F4640463F
:1099F0004FF4807199461646F6F768FC032C01D1A6
:109A0000002749E031A032A1095D055D88F800100A
:109A10003A20690788F8010001D4022715E038468A
:109A2000F6F787FCC4B257FA80F00A2C84BFA0F185
:109A30000A070A2408F1020039462246F6F72DFCEF
:109A400004EB0800E71C20218170A8070FD53046E1
:109A5000F6F76FFC044608EB0700E2B23146F6F772
:109A60001CFC57FA84F0471C202108F80010E80776
:109A700012D018A101A84A4606F030FD002822D4D1
:109A8000044608EB070001A92246F6F706FCE01998
:109A9000471C202108F800100A9A0BAB08EB0700BE
:109AA000C7F1FF01009306F02DFD00280BD440F60E
:109AB000B024C2F200042046F6F73BFC82B200203C
:109AC0002146FEF713FF03B0BDE8F0830003070053
:109AD000495745002564000004280CD840F21422A0
:109AE00000EB4000C2F2000202EB8000427812B1AB
:109AF0008160002070474FF0FF30704770B582B032
:109B000045F6B035C2F200052978044691B940F611
:109B1000B036C2F2000606F1080044F6F871F6F716
:109B2000D5FB4FF65500C0F24F000021C6E90001F9
:109B30000120287004B3E11C21F0030440F6B0308A
:109B400004F10802C2F200000368DEB2AA2E05D0BA
:109B5000B4EB132F13D01E0A964216D24068002889
:109B6000F2D118A000901EA127A20220B2230194D6
:109B7000FFF732FF00F04EF8002002B070BDAA21BE
:109B800061F3070340F8083BF7E7AA2262F30703F3
:109B9000036000F108025523135506680902A6EB7D
:109BA0000426A6F5006663F30706165143681619E6
:109BB0007360037840F2FF35A943194401604660A1
:109BC0001046DAE76D656D7020616C6C6F6320661E
:109BD00061696C2C2073697A653A25640000000085
:109BE0002E2E2F2E2E2F2E2E2F426162794F532F85
:109BF000626F732F7574696C732F625F7574696C13
:109C00005F6D656D702E63005F624D656D70416CB8
:109C10006C6F63007047B0B50B2818BF112900D1D5
:109C2000B0BD012410294FF0030C4FEA802008BF7B
:109C30004FF0553408BF4FF0FF3C012A4FF00002AF
:109C40004FF0000E18BFF44608BF224600F19040C6
:109C50005BB1012B02D10022A64606E04FF0020EB6
:109C6000102908BF4FF0AA3E0022102907D1002179
:109C700002604160C0F808C0C0F80CE0B0BD4B0005
:109C8000032405689C40A543056005689A402A4363
:109C900002600122456802FA01F125EA01014160F2
:109CA00041680CFA03F241608168A14381608168D8
:109CB00011438160C1680EFA03F2A143C160C1681B
:109CC0001143C160B0BD02460B284FF000000CD01C
:109CD00001F0FE03102B08BF704790021022C4F65B
:109CE00000021058C84000F0010070470B2801D155
:109CF000002004E010218002C4F60001085880B260
:109D000070470B2811D041F00103112B08BF704799
:109D10000123002A40F2180203FA01F14FEA8020E1
:109D2000C4F6000208BF0904115070470B2808BF91
:109D3000704714228002C4F6000211507047EFF3FE
:109D4000108072B6704762B67047000080B510B1DF
:109D50004FF0FF3080BD41F20800CAF20000D0F899
:109D600010C08268C36812F1010E4FF0010262F365
:109D70009B63C360C0F810C00ED34FF4801100BFC6
:109D80000268920701D40139FAD1416821F0020139
:109D90004160002080BD00BF4FF48013026812F0C4
:109DA000060F03D1013BF9D107E000BF027EBEF1EF
:109DB000010E01F8012BEFD1DFE76FF0020080BD4B
:109DC00010B510B14FF0FF3010BD41F208004FF454
:109DD0008012CAF2000000BF03689B0604D5013A56
:109DE000FAD16FF0010010BDD1F81CC0BCF1000F1A
:109DF00002D08A6A013A8260C2680023CFF28003EF
:109E000013408A69BCF1000F0CF0030E18BF43EA3F
:109E10000E635AB14C6A920392B2D1F808E01A4329
:109E200004F0030342EA0343C0F814E0D1F814E05D
:109E3000BEF1000F08D00C6A0EF0030243EA822242
:109E400004F0030342EA03330A6932B102F0030269
:109E50000C7843EA022242EA0403CA68BEF1000F0A
:109E600002F01F0243EA8242C2601CBF49680161DE
:109E7000BCF1000F0ED14FF4801100BF02689207B1
:109E800004D40139FAD16FF0020010BD416821F00D
:109E900002014160002010BD80B510B14FF0FF30CD
:109EA00080BD41F20800CAF20000D0F810C08268FC
:109EB000C36812F1010E23F04063C360C0F810C004
:109EC0000ED34FF4801100BF0268920701D401390C
:109ED000FAD1416821F002014160002080BD00BF3D
:109EE0004FF480130268520702D4013BFAD106E016
:109EF00011F8012BBEF1010E0276F1D1E1E76FF00E
:109F0000020080BD70B5064600284FF0FF300CD02F
:109F10000D4651B114463AB13046FF2100F032F8F7
:109F2000013C05F8010BF7D1002070BD0346002865
:109F30004FF0FF3018BF002900D170475878022831
:109F40001ED840F69473C0F6010353F8200043680E
:109F500043F48053436003685B0603D4036843F013
:109F60004003036062B14FF0000C00BF83689B07A1
:109F7000FCD511F80C300CF1010C94450373F5D1AC
:109F80000020704710B14078022801D900207047A6
:109F900040F69472C0F6010252F82000027B42683B
:109FA00042F4805242600268520603D4026842F0D2
:109FB0004002026082689207FCD501738168C9077C
:109FC000FCD0007B7047000010B54FF0000E042855
:109FD000844638BF4FF0010E4FF0FF30E1B3ACF1D3
:109FE0000803B3FA83F35B0953EA0E0334D0BCF1E0
:109FF000080F04D148F20000C4F2000005E041F26D
:10A000001C10C0F6010050F82C00B2B140F2010C57
:10A010004FF0000EC0F20B0C634600BFC46964062B
:10A0200004D4013B022BF9D214E000BF11F80E302A
:10A030000EF1010E96458362EED14FF4302100BF40
:10A04000C3695B0602D40139FAD803E0002910463F
:10A05000C8BF10BD6FF0010010BD002070470000A8
:10A06000B0B502293ED840F2F413C2F200031A78C8
:10A07000002A40F21422C2F2000207D10125002476
:10A0800054550C353D2DFBD101251D70002300BF1B
:10A09000D5186C78012C02D16D68854222D00C3322
:10A0A0003C2BF5D1151D002415F8032C2AB10134E1
:10A0B000052C05F10C05F7D114E005F8041C01216D
:10A0C00005F8031C0021C5E90001FDF7CDFDB0F145
:10A0D000FF3F09DCFE3007D015F8030C10B100205B
:10A0E00005F8030C4FF0FF342046B0BDB0B5144660
:10A0F0000A46014604284FF0FF301CD8DAB101EBC4
:10A10000410040F21421C2F2000111F8203043F066
:10A110000203022B10D101EB8005687860B155F87D
:10A12000081F234655F8040CFDF7DAFD002802D479
:10A13000296821442960B0BD4FF0FF30B0BD70B533
:10A140000E4638B3044656B33046FFF7D7FC48B343
:10A15000054654F8080C40F6B03CC2F2000C44F638
:10A16000F872C1B20CF108039444020AAA2918BF7C
:10A1700000229C4238BF0022644588BF0022284646
:10A180002146B24288BF3246F6F787F82046FEF7EE
:10A1900009F908E03046BDE87040FFF7AFBC204643
:10A1A000FEF700F90025284670BD70B582B0044660
:10A1B0000020ADF80600002C4FF0FF301AD4C9B1D2
:10A1C000C2B104F10C0630461D46FEF74DF80028DA
:10A1D0000ED405B128800DF106013046FEF732F8A5
:10A1E000BDF8060000284FF0000008BF207201E013
:10A1F0006FF0010002B070BD2DE9F04100268662CB
:10A200004663D0E9082141F2EB0501EB4103C0F6BA
:10A21000010504464AF2F91C05EB830346F6AF45F7
:10A2200046F61140C0F6000CC0F60005C0F600006E
:10A2300046F6714E46F60F5846F62157C0F6000E08
:10A24000C0F60008C0F60007C4E9006CC4E902507B
:10A2500045F6F030C4E904E7C4E90683C2F2000021
:10A26000742301FB03054B432564C25020466960FB
:10A270002C63FCF71CFD46F63B50C0F6000046F68A
:10A28000335146F6375205F12403C0F60001C0F6FB
:10A29000000207C34FF0FF30C5E90E60284604F006
:10A2A0003DFD05460028204618BF4FF0FF35FCF75E
:10A2B000AFFC2846BDE8F081B0B504464AF2B920AB
:10A2C0000021C0F60000C4E9001004F10800A162FA
:10A2D00061631421F5F7FAFF606A41F2F80200EBBE
:10A2E0008001C0F6010202EB8101E16147F2050144
:10A2F00046F65D62C0F60001C0F60002C4E9042122
:10A3000045F6EC31C2F2000101EB80022264F0223A
:10A31000C0F2401241F82020002000210022FEF768
:10A3200049F96420FEF70CF9E1690122087C497CB7
:10A33000FEF740F96420FEF703F9E569A87C38BB15
:10A340002878697800220023FEF72EF9A878E978AA
:10A350000122FEF72FF9287969790022FEF72AF900
:10A36000287A697A0022FEF725F92879697901228D
:10A37000FEF720F92878FEF71BF9287A697A01227E
:10A38000FEF718F92878697801220023FEF70CF906
:10A390000C20FEF7D5F820461121FCF714F90C200B
:10A3A000FEF7CEF820463621FCF70DF920460021B5
:10A3B000FCF755F920463A21FCF705F920466521BE
:10A3C000FCF74DF92046B221FCF7FDF820460C21A0
:10A3D000FCF745F920460C21FCF741F92046002105
:10A3E000FCF73DF920463321FCF739F920463321AB
:10A3F000FCF735F92046B721FCF7E5F82046722135
:10A40000FCF72DF92046BB21FCF7DDF820463D2165
:10A41000FCF725F92046C021FCF7D5F820462C2171
:10A42000FCF71DF92046C221FCF7CDF8204601219A
:10A43000FCF715F92046C321FCF7C5F82046192181
:10A44000FCF70DF92046C421FCF7BDF82046202179
:10A45000FCF705F92046C621FCF7B5F820460F2188
:10A46000FCF7FDF82046D021FCF7ADF82046A421EA
:10A47000FCF7F5F82046A121FCF7F1F82046E02191
:10A48000FCF7A1F82046D021FCF7E9F8204604218A
:10A49000FCF7E5F820460D21FCF7E1F820461121F4
:10A4A000FCF7DDF820461321FCF7D9F820462B21D4
:10A4B000FCF7D5F820463F21FCF7D1F8204654217F
:10A4C000FCF7CDF820464C21FCF7C9F820461821AE
:10A4D000FCF7C5F820460D21FCF7C1F820460B21FA
:10A4E000FCF7BDF820461F21FCF7B9F820462321D0
:10A4F000FCF7B5F82046E121FCF765F82046D021AD
:10A50000FCF7ADF820460421FCF7A9F820460C2101
:10A51000FCF7A5F820461121FCF7A1F820461321ED
:10A52000FCF79DF820462C21FCF799F820463F21A6
:10A53000FCF795F820464421FCF791F8204651217C
:10A54000FCF78DF820462F21FCF789F820461F21C3
:10A55000FCF785F820461F21FCF781F820462021D2
:10A56000FCF77DF820462321FCF779F820462121CD
:10A57000FCF729F820462921FCF725F80020B0BD7A
:10A58000F0B583B0074600284FF0FF3026D40E46C2
:10A5900021B3154612B338461C46FCF76DFF002860
:10A5A0001AD4798B07F11C0032462B4600F00DFCC3
:10A5B000002811D407460AA044F2AC210090C0F64E
:10A5C00001010AA203204FF43A730197FFF704FA3E
:10A5D00004B12580002001E06FF0010003B0F0BD60
:10A5E00073656E64202564200D0A00006253656E59
:10A5F00064000000B0B582B0B0F1FF3F1EDD04463C
:10A60000D0F8A000D4F8A410416008600020FCF746
:10A6100033FFB0F1FF3F23DD618B04F11C0000F03C
:10A62000F7FA254655F80C0FFDF7BCFE2846FDF756
:10A63000EEFD2046FDF7B6FE002025E044F2AC21F9
:10A6400044F2D52216A5C0F60101C0F6010202208F
:10A6500040F209330095FFF7BFF94FF0FF3013E0E8
:10A6600084460AA044F2AC2144F2D5220090C0F600
:10A670000101C0F6010202204FF44473CDF804C07A
:10A68000FFF7AAF96FF0010002B0B0BD7365742046
:10A69000617267206572726F722E2E25640D0A003A
:10A6A000736F636B6664203D3D202D310D0A000001
:10A6B000B0B545F6B435C2F200052968044699B92B
:10A6C00000204FF0FF314FF4616285E8070046F249
:10A6D0007D7145F6C03308A0C0F60001C2F2000348
:10A6E000002200F04FF82860002C0EBF4FF0FF3022
:10A6F000AC600020B0BD00BF6E747000002854BF75
:10A70000007A00207047002854BF407A002070472C
:10A71000F0B581B001284FF0FF342FD80D4669B352
:10A720000746A8201646FFF7E9F928B3A8210446F2
:10A73000F5F7CCFD4FF48050FFF7E0F9C8B10146C2
:10A7400004F10C004FF48052FDF76CFD002084F8FA
:10A750009D70C4E90065208140F2B400C2F200009F
:10A760000168224642F8A01F4A60C4F8A4000260B3
:10A7700004E02046FDF716FE6FF00104204601B00C
:10A78000F0BD0000B0B54FF0000C49B343B340F248
:10A790001C0CC2F2000CDCF800E0E64507D0744661
:10A7A000A4F124059D421AD024686445F8D10DA473
:10A7B000002818BF04460120C3E900411873002097
:10A7C0009A601882C3E90500C3E90700184640F8FB
:10A7D00024EFCEF80400C3F828C0CCF800009C4653
:10A7E0006046B0BD4E554C4C0000000080B140F2B8
:10A7F0001C01C2F200010A688A4209D0A2F12403B6
:10A80000834201D01268F7E7D0E90910486001607F
:10A810007047FFF722BC00002DE9F04381B02DED19
:10A82000028BB0EE408A194680461046F0EE608AF0
:10A83000F6F77AFA9FED7A0B054654EC107B0E463C
:10A8400051EC180B3A462346F6F747F93A462346A9
:10A85000F6F743F92A463346F6F790F8F6F7B0FADA
:10A8600045F28015C0F201052A4600230446F5F79B
:10A87000DDFC00FB15414BF2C532C9F2A212A1FB6F
:10A88000022348F6890CC8F6880CDB0A4FF461678E
:10A8900003FB1717A1FB0C6544F62516BFB2C2F2E5
:10A8A0009246A0FB0642A7FB0C7C871A02EB5702DC
:10A8B0009208A2EBC20202440332D7B2A7FB06649D
:10A8C0006E093601A6EB5516A1EB860188F8071034
:10A8D0004FEA5C1188F80610391B04EB5101890816
:10A8E000A1EBC1011144013148F21F5C45F6294931
:10A8F00045F6294688F8041040F2B271C5F2EB1C07
:10A900004FF4C87ECCF28F29C0F28F2688F805302C
:10A910008DB2A5FB0C32D30903FB1E5454B105FBC9
:10A9200009F34FEAB303B34240F26D1304D315F0B9
:10A93000030701D14FF4B773984214D322040DD00A
:10A9400005FB09F24FEAB202B24240F26D1207D3A0
:10A9500015F0030308BF4FF4B77201E04FF4B7726C
:10A96000801A0131D4E7A8F800105109642201FBD4
:10A9700012514FF01C0C1C22002918BF4FF01D0C67
:10A9800040F6FC63A90718BF94460122C0F60103F4
:10A99000210408BF4FF01D0C511ECFB20B2F01D95F
:10A9A000002113E0D6B2022E61460FD0002500BF71
:10A9B000595DB14203D00135072DF9D102E0E9B26A
:10A9C000072901D31E2101E01F2100BF88421AD3AD
:10A9D0000B2F01D9002113E0D7B2022F61460FD00F
:10A9E000002600BF995DB94203D00136072EF9D188
:10A9F00002E0F1B2072901D31E2101E01F2100BFAF
:10AA0000401A0132C8E7013088F8022088F80300B4
:10AA1000BDEC028B01B0BDE8F08300BF00BF00BFFA
:10AA20000000000000004E40B0B540F20820C2F225
:10AA30000000D0E90045FDF7ACFD40F20022C2F273
:10AA40000002D2E90023801A99414FF47A72002360
:10AA5000F5F7B8FB00196941B0BD80B540F2082296
:10AA6000C2F20002C2E90001FDF793FD40F20022AC
:10AA7000C2F20002C2E9000180BD2DE9F04399B0A5
:10AA8000054600284FF0FF304DD040F24009C2F299
:10AA900000090F4699F80410002944D1D9F8004064
:10AAA000002C40D42846F5F744FC202806D806465A
:10AAB0003FB13846F5F73DFC402805D94FF0FF304F
:10AAC00031E04FF0000805E097F80080B8F1000F82
:10AAD00018BFB8466F46C6F16301B819F5F7F6FB23
:10AAE000384629463246F5F7D8FBB8F1000F0DD0AD
:10AAF00003208DF86200404607F12105F5F719FCA7
:10AB0000024628464146F5F7C8FB02E000208DF8D2
:10AB100062006A4620460321FCF742FF002802D467
:10AB20000121A9F8041019B0BDE8F0832DE9F04126
:10AB300092B0054600284FF0FF302DD040F240077C
:10AB4000C2F200070C46397931BB3E68002E23D48F
:10AB50002846F5F7EEFB40281CD82878D0B10DF137
:10AB6000040840464221F5F7B1FB2846F5F7E1FB22
:10AB7000024640462946F5F790FB304608214246FA
:10AB8000ADF84640FCF70CFF002805D440F2012147
:10AB9000B98001E04FF0FF3012B0BDE8F0812DE93F
:10ABA000F04192B0054600284FF0FF302DD040F222
:10ABB0004007C2F200070C46397931BB3E68002ECF
:10ABC00023D42846F5F7B5FB40281CD82878D0B107
:10ABD0000DF1040840464221F5F778FB2846F5F7C9
:10ABE000A8FB024640462946F5F757FB30460921A7
:10ABF0004246ADF84640FCF7D3FE002805D440F2AB
:10AC00000131B98001E04FF0FF3012B0BDE8F081B2
:10AC10002DE9F04397B040F24006C2F200063779C2
:10AC20003468054628B327BB002C22D42846894621
:10AC3000F5F77FFB40281CD82878D0B10DF1180813
:10AC400040464221F5F742FB2846F5F772FB0246E3
:10AC500040462946F5F721FB20460A214246ADF839
:10AC60005A90FCF79DFE00281AD440F20141B180B1
:10AC700016E02846F5F75DFB06460BA044F2AC2132
:10AC8000CDE90007C0F601010DA2022040F23323F6
:10AC9000CDE9024505950496FEF79EFE4FF0FF3084
:10ACA00017B0BDE8F08300BF6572723A20256420BA
:10ACB00025642025702025642025730D0A000000DE
:10ACC0006257696669446973636F6E6E00000000C5
:10ACD000F0B583B04FF0FF34F9B140F24007C2F253
:10ACE00000070E463968B1F1FF3F16DC0221154618
:10ACF000FFF7B6F900280ED447F2A111C0F6000103
:10AD00000191002401AA00213860C7E91B65029463
:10AD1000FCF746FE01E04FF0FF34204603B0F0BDE3
:10AD20002DE9F041054600284FF0FF304BD040F2AE
:10AD30004008C2F200080F4698F80410002942D1DA
:10AD4000D8F80040002C3ED42846F5F7F2FA202827
:10AD500005D847B13846F5F7ECFA402805D94FF049
:10AD6000FF30BDE8F081002603E03E78002E18BFDA
:10AD70003E4608F1060738466321F5F7A7FA28464C
:10AD8000F5F7D7FA024638462946F5F786FA66B14E
:10AD9000032088F868003046F5F7CBFA024608F140
:10ADA00027003146F5F779FA02E0002088F86800BC
:10ADB000204601210022FCF7F3FD002803D440F2D5
:10ADC0000111A8F80410BDE8F0812DE9F04395B019
:10ADD0004FF0FF36A8B140F24009C2F20009044624
:10ADE00099F8040068B9D9F80000002809D4204671
:10ADF000984615460F46F5F79CFA402805D94FF0BE
:10AE0000FF36304615B0BDE8F083002D4FF0FF3619
:10AE1000F7D020780028F4D0B8F1000FEFD001AEC1
:10AE200030465021F5F752FA2046F5F782FA0246ED
:10AE300030462146F5F731FA4046ADF84670FEF748
:10AE40005DFE1290C0B129464246F5F726FA47F258
:10AE5000DB31C0F60001D9F80000149101AA0B21E2
:10AE6000ADF84C80FCF79CFD0646002807D440F264
:10AE70000160A9F80400C4E76FF00106C1E7129869
:10AE8000FDF790FA00201290BBE7000010B540F2E9
:10AE90008814C2F200042078022808D098B90AA0C9
:10AEA0000BA1FFF7EAFD00280DD401200AE045F6CA
:10AEB000A870C2F2000000F12101FFF731FF002865
:10AEC00001D40320207010BD426162794F5300000D
:10AED000313233343536373800000000B0B514460F
:10AEE0000A46014604284FF0FF301BD8D2B101EBCF
:10AEF000410040F21421C2F2000111F82030013B60
:10AF0000012B10D801EB8005687860B155F8081F57
:10AF1000234655F8040CFCF733FF002802D42968B7
:10AF200021442960B0BD4FF0FF30B0BD70B1026860
:10AF300062B1D0E901C3634510D200BFD15C2029C2
:10AF400006D801339C458360F8D104E000207047A7
:10AF50009C4518BF7047ACF101018160704700004B
:10AF600070B508B340F2DC060446C2F2000600BF2A
:10AF7000E16825462468C80504D4A86810B1FFF725
:10AF8000EFFFE968C80504D4286910B171688847E3
:10AF9000E968880503D4286A08B171688847716830
:10AFA00028468847002CE3D170BD000002460028E7
:10AFB0004FF0000005D0002903D4906818BF002886
:10AFC00000D17047013900BF00684A1E8A42F8D29A
:10AFD00000281146F8D1F4E7002200F075BA0028E5
:10AFE0000FBF0020007B1038B0FA80F018BF400976
:10AFF00070470021002200F083B800002DE9F047DF
:10B0000088B00C46054601A81C211F469046F5F75E
:10B010005DF945F6BC4945F6C04AC2F20009002078
:10B02000C2F2000A002DC9F80000CAF8000042D0A0
:10B03000002C40D00020CDE90154039040F2DC0008
:10B04000C2F20000D0E900128068CDE90512079035
:10B050002820884778B328210646F5F737F9052CCC
:10B0600007D326A1284603220324F5F780F900B967
:10B07000039401A8FFF75AFF0146304603F05CFA3B
:10B08000B0B18FB3DDE90102039968B191420BD2EF
:10B09000435C202B04D801318A420391F8D101E0AE
:10B0A0008A4201D1511E0391914201D2405CD8B134
:10B0B0003046FFF755FF95B1DDE902120029084639
:10B0C00018BF01388A4238BF1046B8F1000F1CBFC4
:10B0D0002918C8F80010C9F80050CAF80000002666
:10B0E000304608B0BDE8F087B8F1000FF8D00198FD
:10B0F00003990844C8F80000F2E700BFEFBBBF00A7
:10B1000068B170B5144606460D46F5F712F9411CB4
:10B1100030462A462346BDE87040FFF76FBF002047
:10B120007047000010B54FF0000371B36AB3A0F18F
:10B13000020C5FFA8CF30C2B08D840F604734FFA1C
:10B140008CFCC0F6010353F82CE001E04FF0000E38
:10B150000D2819D148F2203CCEF6B85C08788EEA6A
:10B16000000E002073468CEA5E0EDC0708BF4FEA33
:10B17000530E072800F10100F4D3013A01F1010157
:10B18000ECD16FEA0E0300E00023184610BD024622
:10B1900000284FF0FF3018BF002900D1704745F656
:10B1A0007440C2F20000026045F67840C2F200002E
:10B1B000016000207047000070B545F6714145F60A
:10B1C0006C45C2F20001C2F200050A782E680446FE
:10B1D0007AB90120087045F69C40C2F20000202197
:10B1E000F5F774F845F67C40C2F200002021F5F72F
:10B1F0006DF824B32EB13046A04220D0006800285C
:10B20000FAD1607A00F0010000F1160161720021AC
:10B21000C4E9006145F67041C2F200010A782C6071
:10B2200045F69C45D608C2F2000502F00703AC5D66
:10B2300098402043A855501C0870C0B270BD4FF014
:10B24000FF3070BD2DE9F04F89B00DF1040B584669
:10B250002021F5F73BF845F66C48C2F20008D8F813
:10B26000005045F67049C2F20009E5B145F6784A4A
:10B27000C2F2000ADAF80010A9B199F8007000BF14
:10B28000013FF8B2C6081BF806402846884707F079
:10B2900007012D68884020430BF806001DB1DAF83D
:10B2A00000100029ECD145F69C4145F67C45002074
:10B2B000C2F20001C2F200051BF800200B5C5A40EC
:10B2C000D2432A5401302028F6D1D8F800404FF05C
:10B2D0000008002C00F0ED8099F800704FF6FF791F
:10B2E00002264FF0010B4FF0000A00BF607A2028C1
:10B2F00006D3A18801318AB24A4508BFFA21A1804C
:10B30000B6EB501FA7F101071ED04109012929D032
:10B31000002940F0A980F9B2C908695C07F007026A
:10B32000D140C90743D045F67441C2F20001096813
:10B3300000F0E100C4F80480607211B12046884733
:10B34000607A6BF35F108EE0F9B2C908695C07F0B0
:10B350000702D140C9072ED06BF35F106072A4F8CA
:10B36000048081E0F9B2C908695C07F00702D140A6
:10B37000C90732D0E288A188DAB3102974D3032137
:10B38000032A28BF0A4645F67441C2F20001096843
:10B3900000F0E10062F34400607211B1204688477A
:10B3A000607A6BF35F106072C4F804805CE000F0B8
:10B3B000E100163057E0A188102955D3E288032117
:10B3C000032A28BF0A4645F67441C2F2000100F084
:10B3D000E100096862F344003EE0A188FA2917D32E
:10B3E00045F67441C2F2000100F0E1000968123034
:10B3F00032E0FA2917D300F01E01102934D045F6A7
:10B400007441C2F2000100F0E1000968103043E02D
:10B41000962917D345F67441C2F2000100F0E1000D
:10B4200009680E3018E0962928D300F01E010C2977
:10B430001AD045F67441C2F2000100F0E10009683B
:10B440000C3029E032292DD345F67441C2F20001B7
:10B4500000F0E10009680A30607211B120468847A7
:10B46000607A00F01F006072607A24681F2888BF2D
:10B470000AF1010A002C7FF439AF1CE000F01E0233
:10B48000082AF1D03229EFD345F67441C2F2000107
:10B4900000F0E1000968083000296072E4D020461D
:10B4A0008847E1E7E18866F35F106072481CE0803E
:10B4B000DAE74FF0000A5FFA8AF009B000F000B84E
:10B4C00030BCBDE8C08F00002DE9F04381B0E0B38F
:10B4D0008846D1B38468B2B3BCB3D4F82090B9F134
:10B4E000000F34D040464946F4F72AFF88B3246859
:10B4F000F2E700BFD4F82090B9F1000F22D0C14587
:10B5000027D098F800703846F4F7C1FE99F800107B
:10B5100005460846F4F7BBFE854211D1012600BF5F
:10B52000BFB118F806703846F4F7B1FE19F80610E6
:10B5300005460846F4F7ABFE854206F10106EFD05A
:10B54000854206D02468002CD4D1002006E04FF0BC
:10B550000009B9F1000F08BF4C46204601B0BDE814
:10B56000F08302680146900704BF00207047D005B1
:10B570004FF0000020D48B8AB3F5987F1CD0CC2BE1
:10B580001AD0643B642B17D30420C2F20000104091
:10B5900000F16043B3FA83F3B0F1005F4FEA531058
:10B5A0000AD012F0040218BF7047D1E90201084026
:10B5B0000130B0FA80F04009704700002DE9F04FEB
:10B5C00091B0834606685C46C6F3862054F814EFB3
:10B5D0001EF0FE4F03D0002011B002F06EBA5D469F
:10B5E000109655F8046F0F46002B01F057860E9603
:10B5F0002D284FF00006069508BF164632284FF05A
:10B600000009A0F1150108BF91460B294FF0000178
:10B61000039681F07686002116460C911099D51874
:10B6200001F0804104960591691E0026F446924679
:10B63000019302910792CDE90A47CDF83CB00D95F0
:10B640009AF80080C1B23B290AD240F28411C2F2BA
:10B6500000010E9A096801328A420E9201F26E8749
:10B660004A464FF0FF3151FA80F13F2901F2CE8571
:10B670009146DFE811F09307A3039E07AC07190575
:10B6800020052705D507DD072E05EC073505090838
:10B690004000D50119083C0543059005AF05AA04F3
:10B6A000AA04AA04AA04490449044904490449040F
:10B6B00049044904C605D6052F083708DD05E40509
:10B6C000EB05F20500063F0807064E08EC011106DF
:10B6D0001B072807F40117095300C3012F07560859
:10B6E00070087D088B080F029F083607B9086B07A2
:10B6F0002A02D408DD08A8F13000C0B20A284FFAA7
:10B7000088F1C0F017840F200A294A463FF4A9AFF8
:10B710000D294A463FF4A5AF00F04EBC5846E3461B
:10B72000F446D0F800E0DDF83480CEF34642C2455E
:10B7300000F0138440F28410C2F200005546D0F8A5
:10B7400000A008962846099595F900001646C7B24C
:10B750000A2F00F03F820D2F00F07083109900290E
:10B7600007D4092F05D0202FC1F0C2857F2F01F00B
:10B77000BF85F4B21A2C4FF0000200F22F8147F07F
:10B780002003DFE814F048002B012B012B012B01D3
:10B790002B012B012B012B01390D6C007000740063
:10B7A000390D2B017B0082009800A3002B00AC0018
:10B7B000C200DA0043001B001B001B00202F28D012
:10B7C0002C2F40F0BF80182C00F0F5801A2C00F0D0
:10B7D000F480192C40F0B3801020EFE00EF180705F
:10B7E000010E61F31C6E0F99C1F800E0C0F3046014
:10B7F0000A2800F2A7800FF67461095C8B4240F0C2
:10B80000A1801322092808BF1822E7E01122202F67
:10B810004EE03246E2E0A8EB0502524528BF524610
:10B82000002A00F0D7800A9C1099A818013A00BF9E
:10B83000FBB20D2B18BF0A2B00F0BB80002907D4E8
:10B84000092B05D0202BC1F06B857F2B01F068857B
:10B85000002A00F0BE806F780135013AE8E7202F1A
:10B8600072D10A22BAE0202F6ED10C22B6E0202F2E
:10B870004FF00C0200F0B28001F0A7BD202B21D0C8
:10B88000632B40F08D801022A8E00EF18070010E35
:10B8900061F31C6E0F99C1F800E0C0F30460072843
:10B8A00012D80FF6D451095C8B420DD11022062814
:10B8B00008BF172292E02C2F06D10F982EF0F85EC9
:10B8C000C0F800E00F2289E0112287E06A2B61DCDA
:10B8D000202B7CD0632B40F0888014227EE00EF178
:10B8E0008070010E61F31C6E0F99C1F800E0C0F387
:10B8F0000460052826D80FF68851095C8B4221D1B7
:10B900001422042808BF192268E00EF18070010E8D
:10B9100061F31C6E0F99C1F800E0C0F304600728C2
:10B9200010D844F2F031C0F60101095C8B4209D114
:10B930001522062808BF1A2250E02C2F02D10F989A
:10B9400041E000BF162249E0A7F13001C9B20A293F
:10B9500081F025860F9F4FF0FF36D7E9023249F676
:10B96000991416F19931C1F699147441C91A74EBFE
:10B970000201C1F01F860A21A3FB011302EB820220
:10B98000303803EB4202091842EBE070C7E90210BD
:10B990000B2223E06B2B26D0752B26D115221DE020
:10B9A00044F26E50C0F60100C25C002A18BF11229A
:10B9B00014E0013D0EE0082000E020204EEA000ED9
:10B9C0000F98C0F800E02EF0F85EC0F800E01222F8
:10B9D00004E00546454508BF013D002201354545C7
:10B9E0007FF4B2AE26E21322F8E744F26E50C0F6BE
:10B9F0000100C25C002A18BF1622EFE75FFA88F048
:10BA0000202802D0092840F0D980DBF8001031202E
:10BA100001F47E02B2F5B01F4A467FF422AEEDE19A
:10BA20000C99DBF80000002908BF51460C9120F06A
:10BA3000F8505FFA88F1CBF8000010200A294A4636
:10BA40003FF40FAE0D294A463FF40BAE29E25FFAF0
:10BA500088F139200A294A463FF403AE82E25FFAB0
:10BA600088F109294FF02E0018BF202900F0198213
:10BA7000DBF80010C1F34640A0F11702032A00F2E0
:10BA800037810820DFE812F004003B0138013A0159
:10BA9000042034E15FFA88F00A2841F06D84DBF875
:10BAA0000010480664D440F20020C2F2000001EA0F
:10BAB0000002824240F0DC80480700F1D5801098F7
:10BAC000002800F1D58001F0E3BC0D98DBE90237D6
:10BAD000A0EB0A00191A4FF0000277EBE07138BFB3
:10BAE0000122002A3A4634460CBFC21718465E1C93
:10BAF0004FF0000147F10005D6F10106A94181F0A0
:10BB00007D832146002C08BF51461B1A67EB0202B9
:10BB10005044CBE902321A43A0F1010A40F05182AD
:10BB20001EF0FE4F41F06C83DDE90A4700264020FD
:10BB300000294A463FF495ADBA6900264020002A04
:10BB40004A463FF48EADDBF8002060F39022CBF83C
:10BB50000020BB69AAEB0100421C58469847002808
:10BB600040F00A81D4F800C0DBF8000000261BE09A
:10BB70001EF0FE4F41F046837A6A4FF00A084020DB
:10BB8000002A4A463FF46DAD60F39021CBF80010D7
:10BB9000796A58468847002840F0E380D4F800C00E
:10BBA000DBF800004FF00A08C0F386201CF0FE4FBF
:10BBB000E6464A463FF455AD01F055BCDBF80010AF
:10BBC0002C20C1F34642A2F11703032B4A463FF64D
:10BBD00048AD1BE109980E99281A01440B9F514565
:10BBE0000E9101F22186F0B22EF47E0141EA40412D
:10BBF0000F981CF0FE4F016041F00C83E6460A9C52
:10BC0000089EDC46DDF83CB04FF00A0800223420E4
:10BC1000B9F1000FAA463FF424AD3B694FF00A0882
:10BC200000223420002BAA463FF41BAD60F3902184
:10BC3000CBF800103B69A5EB0902584649469847E6
:10BC4000002840F0AF80D4F800C0DBF800004FF0CF
:10BC50000A08C0F3862000221CF0FE4FE646AA46E2
:10BC60003FF4FFAC01F056BE0598002801F01084A7
:10BC700001F0A000A0280ED16FF0640010FA8EF041
:10BC8000B0FA80F04009C007890708BF4FF00040B4
:10BC90002EF0004109E00EF47F00A0F5A020B0FADC
:10BCA00080F04009C1072EF0004008432060796908
:10BCB00089B15846884770B1012806D0022841F062
:10BCC000D783206840F000402060DBF8000040F49B
:10BCD0008070CBF80000D4F800C04FF00A083A207A
:10BCE0001CF0FE4FE6464A463FF4BBAC01F063BB96
:10BCF0000A2807D101F04ABB102000E020200143B0
:10BD0000CBF80010B9F1000F08BFD1461EF0FE4F6E
:10BD100041F07A820022B9F1000F4FF02C003FF47D
:10BD2000A0AC3869002200284FF02C003FF499ACF9
:10BD300060F39021CBF800103B69AAEB090258464A
:10BD40004946984718BBD4F800C0DBF80000002231
:10BD5000C0F386201CF0FE4FE6463FF482AC01F0B3
:10BD600082BB06980E99D4F800C001600A2060F3E7
:10BD70001E6CC4F800C013E706980E99D4F800C0F2
:10BD80000160062060F31E6CC4F800C0ECE6069863
:10BD90000E99D4F800C00160042060F31E6CC4F852
:10BDA00000C0D2E706980E99D4F800C001600420C4
:10BDB00060F31E6CC4F800C047E700BF5FFA88F16B
:10BDC0000A294FF0020018BF0D296AD0DBF80000E5
:10BDD0004FF60343CDF6FF7300EA030248294FF004
:10BDE000FF31CBF80020CBE9021100F01981D91EF8
:10BDF0000840CBF800001220FFF732BC0C2060F3A3
:10BE00005741CBF800103120FFF72ABCDFE803F0E0
:10BE10000205080B41F0040007E041F0080004E0CF
:10BE200041F0100001E041F02000CBF800002C2090
:10BE3000FFF716BC01234546322013E0F0B22EF482
:10BE40007E0141EA404E0F981CF0FE4FC0F800E022
:10BE500041F0DE81B9F1000F2CD1002332463420AD
:10BE60004FF000090A9CDDE9086AD1B22EF47E0287
:10BE700042EA41410F9A002B116040F2841218BF30
:10BE8000013DC2F200020E9BA5EB0A0112680B44B1
:10BE90009342AA460E9301F2D883E646DC46DDF8CB
:10BEA0003CB00D9D0AF1010A0B9FAA457FF4C8AB77
:10BEB00001F044BA0B99DDF824A0086900284FF07E
:10BEC000340001F0FC800F9C60F3902EC4F800E079
:10BED0000B69A5EB0902204649469847002841F026
:10BEE000F3800A98D0F800C0D4F800E01CF0FE4FB0
:10BEF000CEF3862041F00B850023E34632460A9CB0
:10BF0000089E4FF00009B0E75FFA88F20A2A76D05F
:10BF10004FFA88F10D2972D0202965D104991EF0BD
:10BF2000FE4F41F07F81002940F0928400200A9C5E
:10BF3000049074E10EEB8E0001EB40004FF6D071DF
:10BF4000084481B2C0EA0E0EB1F57A7FC4F800E071
:10BF500081F027820E20F446A3E70123C24645461E
:10BF6000322082E70D299CD0202901F05F8244F223
:10BF70006E50C0F601004156002901F05782039A25
:10BF8000DBF80000002A08BF5246039220F0F85266
:10BF90007329CBF8002077DC632900F066857029CF
:10BFA00040F075854FF67F71CEF201018031084077
:10BFB00000F5202000F071BD20293FF472AF01F0A0
:10BFC000F0B90A9C3E200E466BE74FFA88F1A1F1CA
:10BFD0000A02162A08D8012303FA02F20923C0F242
:10BFE00040031A4241F0A58267467546C0B202F08E
:10BFF000CDF9012801F09284AE46BC4651E72C20D1
:10C000000D2A4FF4102108BF2B201EF0FE4FCBF855
:10C01000101041F00381049921BB0021049140E7F5
:10C020001CF0FE4F41F0FC803968002901F064806B
:10C030000321CDF6FE71084000F54060CBF800000A
:10C04000396858468847002841F04B80D4F800C032
:10C05000DBF800001CF0FE4FC0F3862000F0C38523
:10C0600001F02EBC7A68002AD7D0DBF8002022F439
:10C07000FE3242EA8020CBF800007B68AAEB010286
:10C080005846984700F0F6BB742900F0F7847529EC
:10C0900040F0FD844FF67F71CEF2010180310840FF
:10C0A00000F5801000F0F9BC5FFA88F0542800F029
:10C0B0008C8201F0D3BA5FFA88F0542841F0D8821C
:10C0C0000720EEE65FFA88F0502841F0DB82082076
:10C0D000E7E65FFA88F02E2841F039840B20E0E68D
:10C0E0005FFA88F0202800F02A8401F03ABC5FFA59
:10C0F00088F00A2800F0128301F0CEBA5FFA88F1C6
:10C100000A294FF012003FF4CCAE0D293FF4C9AE1E
:10C11000DBF800004FF60341CDF6FF710140CBF88C
:10C12000001048F020016139C9B21A294FF0FF31DF
:10C13000CBE9021181F085844FF603434FFA88F270
:10C14000CCF2FF031840413A2EF47F0100F18070D9
:10C15000142ACBF81410CBF8000001F279838C4636
:10C16000DFE812F015001F0722074507760B760B54
:10C1700025072807760B760B760B2B072E07310742
:10C1800034073707760B3A073D074007430741F46A
:10C19000981C00F02CBF5FEA086001F0208343F296
:10C1A0004431CEF30740C0F6010151F82020DBF8FE
:10C1B00000105FFA88F02028C1F3046303D1D75C34
:10C1C000002F00F06F85D25C904240F01084132065
:10C1D00000F06CBF5FFA88F020284FF014003FF4A5
:10C1E00060AE04996746002908BF514604910EF4D9
:10C1F0007F017546B1F5A02F4FFA88F108BF1820CE
:10C20000F5E65FFA88F0202809D04FFA88F049282F
:10C2100000F0FA84482841F0DF81212041E6202007
:10C220003FE65FFA88F0542841F04082222038E649
:10C230005FFA88F02F2841F04382272031E65FFA29
:10C2400088F0432841F0468226202AE65FFA88F0EB
:10C25000452800F04C8201F047BAA8F13000C0B286
:10C260000A2881F088836FF02F0050FA88F0ABF82D
:10C270001000282015E65FFA88F02E2841F085830B
:10C2800029200EE65FFA88F00D2800F05B830A286B
:10C2900000F0448201F032BA40F28410C2F2000091
:10C2A000DDF83480E346F446D0F800E0C24500F003
:10C2B000708555462A783046202A00F0AE8444F234
:10C2C0006E57C0F60107BE56F3B2002B00F0A584EE
:10C2D0000F990A68C2F346440E2C00F29D87DFE8EE
:10C2E00014F01A002D003D004E005C006E0084002A
:10C2F0009D00C0000F000F009B079B070F000F0061
:10C3000022F47E010F9A11600A9C064601354545CC
:10C31000D0D100F03DBDA8EB0501714528BF7146A5
:10C320006A186E1C3346964206D21E78202E03D021
:10C33000B95D5E1C0029F5D15D1EE5E74FF67F74FF
:10C34000CEF2010402F1807104F1800701F0F8518E
:10C350003A406F2B08BF42F480220EE04FF67F7404
:10C36000CEF2010404F1800702F180713A4001F03D
:10C37000F8516E2B08BF42F4C0221143C2E702F10C
:10C380008071090E61F31C620F99742E0A6000F02F
:10C3900087806E2EB4D1042183E002F180710F0EEC
:10C3A0000F9C67F31C622260C1F304670A2FA7D8B1
:10C3B0000FF69C61C95D8B42A2D1092F10E002F1FA
:10C3C00080710F0E0F9C67F31C622260C1F304673B
:10C3D000102F95D80FF68461C95D8B4290D10F2F35
:10C3E0000A9C064692D1092155E002F180710F0E98
:10C3F0000F9C67F31C622260C1F304670E2F3FF6A7
:10C400007FAF0FF66C61C95D8B427FF479AF0A9CF8
:10C410000D2F06467FF47AAF0A213CE002F18071CD
:10C420000F0E0F9C67F31C622260C1F30467112F8B
:10C430003FF666AF0FF64861C95D8B427FF460AF8F
:10C440000A9C102F06467FF461AF4FF6FF71CDF6C0
:10C450000171114041F000510F9841F4D011016079
:10C4600054E702F180710F0E0F9C67F31C6222608B
:10C47000C1F30467072F3FF643AF44F2F031C0F633
:10C480000101C95D8B427FF43BAF0A9C062F064633
:10C490007FF43CAF0E210F9861F35742026035E7FD
:10C4A000062161F357420F990A602DE75FFA88F180
:10C4B0000C294FF02E0000F3ED8109293FF4F1AC77
:10C4C0000A2905D0EEE15FFA88F00A2841F02081C0
:10C4D0003020E6E45FFA88F00A2841F02E8233200B
:10C4E000DFE40D98DBE90221A0EB0A00131A71EBDF
:10C4F000E0734FF0000338BF0123002B0B4608BF49
:10C50000C3179BF8007018BF10467F074FF0000755
:10C5100040F18E863446561C41F10005D6F10106E5
:10C52000AF4180F091862646002C08BF5646121A6D
:10C5300099415044A0F1010A52EA01004FF03B003A
:10C54000CBE9022108BF3C200A9CAAE4DBF80000EA
:10C55000410740F169865FFA88F10A2941F01581A7
:10C56000069A00211EF0FE4F116040F09586796A10
:10C5700000294FF0350100F0D78561F39020CBF80A
:10C580000000796A58468847002800F02083069901
:10C590000020086020680A2100F0D1BD5FFA88F110
:10C5A0000A294FF0010018BF0D293FF47AAC01F0C1
:10C5B000E1B85FFA88F0542840F0A681DBF800006B
:10C5C000012161F30100CBF80000062069E45FFA65
:10C5D00088F10A294FF004003FF463AC0D293FF4C1
:10C5E00060ACDBF800004FF60342CDF6FF7202406C
:10C5F00048294FF0FF31CBF80020CBE9021141F080
:10C600001F811EF0FE4F40F06F863968002900F050
:10C610009F850321CDF6FE71084000F5A0500DE581
:10C620005FFA88F02F2841F07D800920FFF739BCA0
:10C63000A8F13000C0B20A2881F0B1816FF02F005C
:10C6400050FA88F0ABF810000A20FFF72ABCA8F1D6
:10C650003000C0B20A2881F0AC816FF02F0050FA90
:10C6600088F0ABF812000C20FFF71BBC6B656570FF
:10C670002D616C69766500006368756E6B6564009A
:10C68000636C6F7365000000A8F13000C0B20A2827
:10C6900080F050814FF6D07050FA88F0C0EA0E0E4C
:10C6A000C4F800E0FFF756BC5FFA88F00A2800F0F3
:10C6B0009D820D2840F0A5820C991EF0FE4F40F09F
:10C6C0001186002940F0728300200A9C0C901120F2
:10C6D000FFF7E7BB5FFA88F0542841F02D80232054
:10C6E000FFF7DFBB5FFA88F0502841F02F8024204D
:10C6F000FFF7D7BBA8F13000C0B20A2881F06381F0
:10C700006FF02F0050FA88F0ABF812002A20FFF7E4
:10C71000C8BB5FFA88F00A2841F05F812C20FFF740
:10C72000C0BB0E98012840F08B859BF800004007A5
:10C7300040F1B08544F26E615FFA88F0C0F6010105
:10C74000085CFF2801F0538140B2C117CBE9020118
:10C7500001200E9015E19BF80000400740F16A852A
:10C760005FFA88F10D2940F0F0803820FFF799BB7F
:10C770009BF80000400740F165855FFA88F037219B
:10C780000D2808BF38210846FFF78BBBDBF80010E7
:10C79000480740F14B855FFA88F00A2840F0FF8790
:10C7A0000020CBF80400DBE90202104300F0F68120
:10C7B0003B20F8E15FFA88F00A2840F0D187DBF8E7
:10C7C0000080002118F00400CBF8041040F0DC8059
:10C7D000DBE90223013243F10003D2F1010271EBE4
:10C7E000030238BF0121D0E0DBF80000410740F12F
:10C7F0002585DBE90212114340F028855FFA88F1B4
:10C800000D2940F0E2871EF0FE4F40F04685002ED5
:10C8100040F028820A9C00263D20FFF742BB002EF4
:10C8200018BFB2465646DDF808A03F20FFF739BBD7
:10C830005846E046754601F061F9002800F0328163
:10C840009BF8000080074FF0040008BF12202AE187
:10C85000786800284FF0200000F07684DBF8002094
:10C8600060F39022CBF800207B68AAEB01025846C7
:10C8700098470A9C002840F04184D4F800C0DBF8B7
:10C8800000001CF0FE4FC0F3862041F0198000210B
:10C890000491A8E120293FF404AB0D2902D12F20F7
:10C8A000FFF7FFBADBF80010B9F1000F21F0F850E4
:10C8B00008BFD146CBF80000C1F34640A0F1090201
:10C8C000092A00F2488248F020033220DFE812F003
:10C8D0000C00280243020A004A0259020A004302DD
:10C8E00043020A00FFF7DDBAD8B2632800F0FE82E7
:10C8F0006B2840F004834FF67F70CEF20100803049
:10C90000084000F5181007E3452841F08780022110
:10C91000DBF8000061F3174E4FF6FC71CEF2FF0119
:10C92000084000F10070CBF800001320CBF814E0B1
:10C93000FFF711BB5FFA88F0202840F06B870D20CD
:10C94000FFF7AFBA2B20FFF7ACBA44F26E60C0F627
:10C950000100405CFF2800F0CC81DBE90212B1F15C
:10C96000FF336FF0704372EB030381F077801201A5
:10C9700040B242EA117210EB011142EBE070CBE9D8
:10C9800002103620FFF78DBA0121BEF1FF3F40F3C0
:10C99000B2805FEAC85140F1BC800F98E34675460B
:10C9A00001F0ACF85FEA88714FF0040108BF122172
:10C9B000002808BF012115F0FE4F40F09884F86967
:10C9C000002800F0CA8328F4FE30DDF83CB040EACD
:10C9D0008120CBF80000F96958468847002800F00C
:10C9E000F68006990020086020680721A7E32D281B
:10C9F00005D0A8F14100C0B2192800F2F0864FFA24
:10CA000088F00EF47F024FF4F85303EA1143104309
:10CA100040F24E121843C0F20A02904240F34481A1
:10CA200040F25222C0F20F02904200F3F38140F232
:10CA30004032C0F20A02904240F3738240F2413227
:10CA4000C0F20A02904200F0168340F25042C0F257
:10CA50000C02904200F0118340F24222C0F20F0219
:10CA6000904240F0BC8612201AE34FF67F71CEF25E
:10CA700001018031084000F500300EE04FF67F7173
:10CA8000CEF201018031084000F5602005E04FF64C
:10CA90007F71CEF2010180310840CBF800002D20DB
:10CAA000FFF7FFB90120AE4615F0FE4F40F0C483FA
:10CAB000F969002900F02D83DBF8001021F4FE3124
:10CAC00041EA8020CBF80000F969584688470028E1
:10CAD00040F021832168DBF8000011F0FE4FC0F325
:10CAE000862040F0ED868E46BEF1FF3F40F3618622
:10CAF0008C46FFF7D6B90EF47F02B2F5A02F00F0F6
:10CB0000788608F48072012383EA12220A4200F038
:10CB10007086002840F09F80DDF83CB05FEA880016
:10CB200000F1F080DBE9020100EA0102013200F0CD
:10CB3000C981084340F0D58158466546744600F0E7
:10CB4000DDFF5FEA88714FF0040108BF1221002861
:10CB500008BF012114F0FE4F40F00D840B9AD069FC
:10CB6000002800F0258328F4FE3040EA81210F9848
:10CB70000160D1698847002840F020830A98D0F8E6
:10CB800000C0DDF83CB01CF0FE4FDBF80000C0F345
:10CB9000862040F0958600210A9C23E041F0400168
:10CBA0002C20CBF800101EF0FE4F40F074833A6A40
:10CBB000002A00F0BB8221F4FE3141EA8020CBF84C
:10CBC0000000396A58468847002840F0B382D4F8FC
:10CBD00000C0DBF800001CF0FE4FC0F3862040F0E0
:10CBE0006F8600210E91E646FFF75BB90C991EF0A7
:10CBF000FE4F40F07883002940F0EB8000200C903D
:10CC00008CE51020FFF74DB90EF47F00B0F5041F3E
:10CC100040F0E2842520FFF744B90E9BA5EB0A0102
:10CC20000B4473450E9300F213873A2A0B9A03992B
:10CC3000E64640F018861EF0FE4F40F05783DC4673
:10CC4000DDF83CB00646002940F0028100200A9C35
:10CC500003902E201DE10020DDF83CB00E90352021
:10CC6000FFF71FB9B96900294FF03D013FF4D2AD7C
:10CC700061F39020CBF80000BB69AAEB060258468E
:10CC8000314698470A9C002840F06D82D4F800C0D5
:10CC9000DBF800001CF0FE4FC0F3862040F0108649
:10CCA0000026A0E7142001E240F24712C0F205027C
:10CCB000904240F3F18040F24812C0F209029042E3
:10CCC00040F33F8140F24912C0F20902904200F065
:10CCD000D68140F22D12C0F20A02904200F0D181BA
:10CCE00040F24512C0F20A02904240F078851720C7
:10CCF000D6E120294FF0370018BF3B293FF4D1A8D7
:10CD000000F0E4BD00200E90109800284FF03F0086
:10CD10003FF5C7A818F003017FF4C3A800F0E0BDF9
:10CD2000A8F13000C0B20A2880F0A586880500F17D
:10CD3000E4854FFA88F03038C217CBE902024FF68B
:10CD40007F70CEF20100A0F5C070084040F4B01032
:10CD500040F40070E0E04FF67F70CEF201008030CA
:10CD60000840D9E04FF67F72CEF20102D8B280328D
:10CD7000632801EA02000CBF40F4001040F40810E0
:10CD8000CAE04FF67F70CEF2010008408030C3E069
:10CD9000D04602980E9AA0EB08010A4482467245DA
:10CDA0000E9200F22E862D20FFF777B8B868002883
:10CDB0004FF0110000F0EB81DBF8002060F39022CF
:10CDC000CBF80020BB68AAEB0102584698470A9CA2
:10CDD00010E0B86800284FF02C0000F0DB81DBF891
:10CDE000002060F39022CBF80020BB68AAEB010280
:10CDF00058469847002840F0C081D4F800C0DBF8BE
:10CE000000001CF0FE4FC0F3862040F05985002141
:10CE10000C91E8E640F24122C0F21402904240F345
:10CE2000A08040F24222C0F21402904200F02B8116
:10CE300040F24512C0F21A02904200F0268140F200
:10CE40004F12C0F21A02904240F0C984212027E11B
:10CE5000D06800284FF02E003FF4F8AEDBF8003029
:10CE600060F39023CBF80030D3686A1A584698478D
:10CE70000A9C002840F09281D4F800C0DBF8000042
:10CE80001CF0FE4FC0F3862040F041850021039145
:10CE9000E646AA46FFF705B840F25412C0F2030274
:10CEA00090426EDC40F24112C0F20302904200F068
:10CEB000EE8040F25212C0F20302904240F08F84A2
:10CEC0000C20EDE0584665467746FEF74AFB002801
:10CED00000F09F8000200E903F20BE46AC46FEF73B
:10CEE000E0BF00200E903E20FEF7DBBF4FF67F70C4
:10CEF000CEF201008030084000F520100CE04FF623
:10CF00007F72CEF201028032752801EA020014BF5E
:10CF100040F4301040F42810CBF800003220FEF727
:10CF2000C0BF40F24F12C0F20A02904200F0B1803E
:10CF300040F24122C0F20A02904240F05084152093
:10CF4000AEE040F24812C0F20502904200F0A38029
:10CF500040F25022C0F20502904240F04084082086
:10CF60009EE040F25322C0F20F02904200F0958002
:10CF700040F24932C0F20F02904240F0308420204B
:10CF80008EE040F25512C0F20302904200F087801A
:10CF900040F25222C0F20402904240F020841D2050
:10CFA0007EE041F4801C22E041F4A02C1FE041F41B
:10CFB000803C1CE041F4003C19E041F4102C16E0E8
:10CFC00041F4202C13E041F4C81C10E041F4C02CC3
:10CFD0000DE041F4403C0AE041F4A01C07E041F4BC
:10CFE000D01C04E041F4E02C01E041F4702C1CF072
:10CFF000FE4FC4F800C040F078813968002900F085
:10D00000AA800321CCF2FE11084000F59840FFF7FA
:10D0100015B8584600F072FD5FEA88714FF00401C0
:10D0200008BF1221002808BF012117F0FE4F40F071
:10D03000DD810B98C069002800F0CB8028F4FE3019
:10D040000F9A40EA812010600B98C169104688470A
:10D05000002840F0C6800A98D0F800C00F981CF055
:10D06000FE4F0068C0F3862040F02A8400210A9C0D
:10D07000DDF83CB0B6E51E2012E00D2010E01F20C8
:10D080000EE018200CE011200AE00E2008E01C2021
:10D0900006E00B2004E0162002E01B2000E0042044
:10D0A00060F3174EC4F800E01320F44601F18072DB
:10D0B000120E62F31C61CBF80010FEF7F2BE0023E3
:10D0C00032463420FEF71BBF0A9A06980E99D2F812
:10D0D00000C00160042161F31E6CC2F800C0FEF7BD
:10D0E00003BF06980E9901602068012161F31E605C
:10D0F00084462060FEF7ACBF032074E506980E99C5
:10D1000001602068022161F31E6084462060FFF701
:10D11000B6BB4146E8E406980E99016021680720F5
:10D1200060F31E612160D6E4002097E500210E9196
:10D13000FEF7B7BE0699002008602068092161F358
:10D140001E608446206044E500210A9CFEF766BF0D
:10D150000520FEF7A6BE132045E50020AE460E9042
:10D160000846FEF79BBE06980E99016020680621CE
:10D1700061F31E60844620608AE506980E9901607E
:10D180002068082161F31E608446206037E6002194
:10D190000A9C00E000210C91FEF783BE06980E99D0
:10D1A00001602068032161F31E608446206065E60B
:10D1B000A64600200A9C0E9008460FE006990A9A9F
:10D1C000002008601068072161F31E60844610602B
:10D1D000D7E400200A9C0E900846BE46DDF83CB01D
:10D1E0007CE606990A9A002008601068072161F31E
:10D1F0001E608446106031E7FEE700BFFEE700BF17
:10D20000FEE700BFFEE700BFFEE700BFFEE700BF8E
:10D21000FEE700BFFEE700BFFEE700BFFEE700BF7E
:10D22000FEE700BFFEE700BFFEE700BFFEE700BF6E
:10D23000FEE700BFFEE700BFFEE700BFFEE700BF5E
:10D24000FEE700BFFEE700BFFEE700BFFEE700BF4E
:10D25000636F6E6E656374696F6E000070726F78D5
:10D26000792D636F6E6E656374696F6E00000000E8
:10D27000636F6E74656E742D6C656E677468000004
:10D280007472616E736665722D656E636F64696E2C
:10D2900067000000FEE7FEE7FEE7FEE7122807D87A
:10D2A000012116228140C0F2040211427EF493A9AA
:10D2B0003F282DD1F86900283EF48DA910993F2010
:10D2C00060F39021CBF80010F96958468847002890
:10D2D0003EF481A92068072161F31E602E60206062
:10D2E000FEF779B9FEE7FEE7FEE7FEE7FEE7FEE7B9
:10D2F000069A0E9B1820E6460A9C136060F31E6E89
:10D3000015E00026102804BF00261146FEF785B957
:10D310000B2060F31E6EC4F800E00120FEF75CB93C
:10D32000069A0E9B1820E64660F31E6E13603220AC
:10D33000C4F800E0DDF83CB0AA4680E00C99B046A5
:10D340000A46002918BF0122002E18BF0132049E90
:10D35000002E18BF0132B9F1000F18BF0132039936
:10D36000002918BF0132022A04D21CF0FE4F3ED021
:10D37000FEE700BFFEE7FEE7069A0E9B1E20136045
:10D38000714660F31E612160392008E0069A0E9B09
:10D390001920714660F31E611360216030208E46B3
:10D3A0004DE0069A0E9B0F2060F31E6E1360C4F8CA
:10D3B00000E00E2043E0DBF800100E9A60F39021AD
:10D3C000CBF80420CBF800104DE01920DDF83CB07C
:10D3D00060F31E6C62F3574ECBF814C00E9B3220E4
:10D3E000CBE900E30A9C069AE646A5E7FEE700299A
:10D3F00052D0FA68002A4FD0DBF8002000F07F00FE
:10D4000022F4FE3242EA8020CBF80000FB686A1A60
:10D4100058469847002840F087822168DBF80000D2
:10D4200011F0FE4FC0F3862037D00BE1069A0E9B19
:10D43000182060F31E6E1360C4F800E02C201EF06C
:10D44000FE4F05D113602021724661F31E622260F7
:10D45000DBF80010C0B221F4FE3141EA8020CBF8A5
:10D460000430CBF800000798AAEB0000FEF7B4B830
:10D47000DBF814100522DBF8000062F31E61CBF824
:10D4800014103A2161F390200E99CBE90001EAE7EC
:10D49000069A0E9B1A2072E7614611F0FE4F00D0EB
:10D4A000FEE7B9F1000F1DD03A69DAB1DBF80010E0
:10D4B00000F07F0021F4FE3141EA8020CBF800002B
:10D4C0003B69A5EB0902584649469847002840F0B9
:10D4D000AF822168DBF8000011F0FE4FC0F3862018
:10D4E00040F0B08011F0FE4F01D000BFFEE7E6B182
:10D4F0007A68D2B1DBF8001000F07F0021F4FE3131
:10D5000041EA8020CBF800007B68AA1B58463146D0
:10D510009847002840F0A6822168DBF8000011F04F
:10D52000FE4FC0F3862040F08D8011F0FE4F0FD0EB
:10D53000FEE7069A0E9B1121136004E0069A0E9BEB
:10D540000C211360E64661F31E6EC4F800E076E736
:10D55000B8F1000F1ED0BA69E2B10F9F00F07F0052
:10D56000396821F4FE3141EA802038600B98414649
:10D5700083690D98A0EB080238469847002840F0D0
:10D580007E820A9801680F9811F0FE4F0068C0F380
:10D59000862057D111F0FE4F28D000BFFEE719209A
:10D5A000DDF83CB060F31E6C0B20CBF814C060F3C8
:10D5B000574E13E7192060F31E6C0B200E9B60F38F
:10D5C000574EC7F814C0C7E900E30A9C069AE6461E
:10D5D0003220AA46BB4632E7069A0E9B1C2060F317
:10D5E0001E6E1360C4F800E0202028E70C99F1B10A
:10D5F0000B998968D9B10F9F00F07F00396821F439
:10D60000FE3141EA802038600B988368DDE90C1018
:10D61000421A38469847002840F03B820A98006832
:10D620000F9910F0FE4F0968C1F386200AD1DDE999
:10D630000E1200F07F005160116821F4FE3141EAC2
:10D64000802010600198FDF7C7BF069A0E9B0C2141
:10D65000E64661F31E6EDDF83CB0F7E0069A0E9BDD
:10D660001E2060F31E6E1360C4F800E00520E6E69D
:10D67000069A0E9B1E2060F31E6E1360C4F800E035
:10D680000620DCE6069A0E9B1E2060F31E6E1360D9
:10D69000C4F800E00720D2E6069A0E9B1E2060F335
:10D6A0001E6E1360C4F800E01120C8E6069A0E9BB7
:10D6B0001E2060F31E6E1360C4F800E02120BEE659
:10D6C000069A0E9B1E2060F31E6E1360C4F800E0E5
:10D6D0002420B4E6069A0E9B1E2060F31E6E136093
:10D6E000C4F800E02520AAE6069A0E9B1E2060F3EF
:10D6F0001E6E1360C4F800E02620A0E6069A0E9B7A
:10D700000E2060F31E6E1360C4F800E02A2096E637
:10D71000069A0E9B1E2060F31E6E1360C4F800E094
:10D720002F208CE6069A0E9B1E2060F31E6E13605F
:10D73000C4F800E0082082E6069A0E9B1E2060F3E3
:10D740001E6E1360C4F800E0222078E6069A0E9B55
:10D750001E2060F31E6E1360C4F800E023206EE606
:10D76000069A0E9B1E20714660F31E6113602160B5
:10D770003A2014E6069A0E9B0D20E646136060F3ED
:10D780001E6EC4F800E0012059E6069A0E9B1E208A
:10D79000714660F31E61136021603D20FFE5069A2B
:10D7A0000E9B1E20714660F31E61136021603820BD
:10D7B000F5E5DBF800100E9A21F4FE3141EA8020F5
:10D7C000CBF80420CBF800007AE0069A0E9B1E20CE
:10D7D000714660F31E61136021603C20DFE5069A0C
:10D7E0000E9B102060F31E6E1360C4F800E013203F
:10D7F00025E60F98744600F081F95FEA88714FF0D2
:10D80000040108BF1221002808BF012114F0FE4FB7
:10D8100034D0FEE7069A0E9B0F2060F31E6E136055
:10D82000C4F800E00D200AE6069A0E9B0C20E6469E
:10D830000A9C60F31E6E1360C4F800E0342079E5A2
:10D84000069A0E9B1C2060F31E6E042013607CE67B
:10D85000069A0E9B4FF48050136060F31E4EC4F87E
:10D8600000E01220EBE5069A0E9B182013600A9C3C
:10D8700060F31E6EC4F800E02D205BE50B98C069D4
:10D88000B0B128F4FE300F9A40EA812010600B9866
:10D89000C16910468847002840F005810A98006851
:10D8A0000F9910F0FE4FD1F80080C8F3862107D100
:10D8B00028F4FE3242EA81210F9A0020C2E90010CA
:10D8C0000798AAEB00000130FDF786BE069A0E9B72
:10D8D0001B201360714660F31E61216036205EE5F7
:10D8E0002120714660F31E61CBF814103A2100200C
:10D8F00061F39028CBE90080B5E5069A0E9B1A20CB
:10D90000136060F31E6EC4F800E0322097E50798BC
:10D91000281AD8E70798281AFDF75EBE069A0E9BCC
:10D9200011201360AE462AE706980E99016021681F
:10D93000032060F31E61216070E5069A0E9B17209C
:10D9400060F31E6E1360C4F800E0342077E5069A99
:10D950000E9B0E2060F31E6E1360C4F800E00A20D8
:10D960006DE5069A0E9B0E2060F31E6E1360C4F8E0
:10D9700000E00C2063E5069A0E9B0E2060F31E6EFD
:10D980001360C4F800E0272059E5069A0E9B0E208C
:10D9900060F31E6E1360C4F800E028204FE5069A7D
:10D9A0000E9B0E2060F31E6E1360C4F800E0092089
:10D9B00045E5069A0E9B0E2060F31E6E1360C4F8B8
:10D9C00000E00B203BE5069A0E9B0E2060F31E6ED6
:10D9D0001360C4F800E0292031E5069A0E9B172059
:10D9E00060F31E6E1360C4F800E02B2027E5069A52
:10D9F0001B207146012360F31E61136021603520F6
:10DA0000CDE4069A0E9B0C20E64660F31E6EDDF810
:10DA10003CB01360C4F800E02D2010E5069A0E9B80
:10DA20001C2060F31E6E1360C4F800E0032006E5BE
:10DA300006980E9901602168042060F31E61216040
:10DA400048E5069A0E9B102060F31E6E136006E7F1
:10DA5000069A0E9B0C201360E64608E7069A0E9B7A
:10DA6000192036E706980E9901602168022060F3BC
:10DA70001E61216051E5069A0E9B192040E7069829
:10DA80000E990A9A01601168062060F31E61116008
:10DA900079E506980E990A9A01601068082161F3E9
:10DAA0001E601060BCE506990A9A002008601068A4
:10DAB000072161F31E601060F2E630BCBDE8C08F44
:10DAC00070B586690D4620210446F2F7FFFB4FF43E
:10DAD0000061A66105F00300012D08BF4FF48051DD
:10DAE000002D08BF4FF49041084420600020606181
:10DAF00070BD80B52821F2F7E9FB80BD80B5018AB1
:10DB000031B1418A21B10178C90604D5002080BD18
:10DB100001780907FAD5FDF724FDB0FA80F0400935
:10DB200080BDFAF73FBCFBF7E9BFFCF708BB00007C
:10DB30008AB043F60008C4F20008F3F7BDFFF5F71A
:10DB4000F1FA002741F24C000597C4F20200016887
:10DB500040F6000441F0040101600168C4F60004CD
:10DB600001F00401099109990168002241F00201C4
:10DB70000160016801F0020109910999016841F011
:10DB800001010160016801F0010109910999016831
:10DB900041F00801016000684FF4015100F00800F5
:10DBA000099009982046F3F76EFFA4F58065284692
:10DBB0004FF4004101224FF4004A4FF00109F3F7FE
:10DBC00062FF204680210122F3F75DFF4FF40050F1
:10DBD00001AECDE9010920463146CDE90377F3F7DF
:10DBE00063FE4FF00C0B28463146CDE901B7CDF866
:10DBF0000C90F3F759FECDE901A94FF0020A28462F
:10DC000031460397CDF810A0F3F74EFEC020CDE9C2
:10DC1000010920463146CDE9037AF3F745FE45F682
:10DC2000FC5008F58031C2F200004FF4E13280E888
:10DC30008600C0E90377C0E905B7C0E90777476206
:10DC4000F5F74DF818B1EFF3108072B6FEE745F620
:10DC50009850C2F200004FF482714FF4E0624FF42A
:10DC600000731024C0E900810721C0E90272C0E9F5
:10DC700004A9C0E90634C0E90877C0E90A71C0E91F
:10DC80000C77F4F7EEFD20B1EFF3108072B600BF11
:10DC9000FEE745F64C5041F20001C2F20000CAF224
:10DCA00000010025042216234FF44077C0E9001537
:10DCB000C0E90224C0E90437C0E906550562F3F75C
:10DCC000D9FF20B1EFF3108072B600BFFEE745F632
:10DCD000C84008F59041C2F200004FF4E1320C2335
:10DCE00080E826003021C0E90355C0E90535C0E9C8
:10DCF00008514FF480514FF40052C0E90E12F4F76E
:10DD0000EEFF20B1EFF3108072B600BFFEE7FAF726
:10DD1000D3FF40F2E800C2F20000FAF785FB0020D2
:10DD20000027F5F774FE40F2BC04C2F2000420465E
:10DD3000FBF7CEF943F2CC4145F6A872C0F60101DB
:10DD4000C2F20002204662230097FBF7B7F843F2C5
:10DD5000D745C0F6010509AE2046294632460423C0
:10DD600009970097FBF7AAF8099A01AF37A138463F
:10DD700002F0B4FB002000213A46F5F793FF099822
:10DD8000294601300990204632460423FBF7C2FAA7
:10DD900044F61141C0F6000101200022FCF798FF73
:10DDA00040F2741045F68061C2F20000C2F2000138
:10DDB000F9F750FD45F6C84046F20A01C2F20000EC
:10DDC000C2F200010122F5F737F8FCF722FD40F21C
:10DDD000300441F26961C2F2000440F290131EA0C7
:10DDE000C0F60001C2F200032246FCF7CBFC43F26E
:10DDF000C44043F67B6140F2BC13C0F60100C0F69C
:10DE00000001C2F200032246FCF7BCFC43F6B170ED
:10DE1000C0F600002146FAF76DFD40F2180145F604
:10DE20008C64C2F20001C2F200040860FAF7D8F96B
:10DE3000FAF7A9FB2168401AB0F57A7FF6D9FAF70C
:10DE4000A2FB2060FDF722F8F0E700BF626F6F745D
:10DE50003A25303464000000646973706C617900A5
:10DE60008169032200204A70704700002DE9F04FBD
:10DE700085B0A8B31F46934681460D46012B02D0BC
:10DE8000B7F5807F53D199F83400002873D0D9F8C2
:10DE900010000BEB0501814240F2958043F66424AB
:10DEA00043F6FC2543F62907C0F60104C0F6010538
:10DEB000C0F60107032021462A4640F28723009737
:10DEC000FBF78AFD43F22777C0F6010703202146BE
:10DED0002A4640F287230097FBF77EFD052409E1DF
:10DEE00043F6FC2443F61E3043F6A40143F66425B2
:10DEF000C0F60104C0F60100C0F60101C0F601053C
:10DF0000CDE9001001202946224640F27F230294E9
:10DF1000FBF762FD43F22777C0F60107032029468D
:10DF2000224640F27F230097FBF756FDFEE743F6BB
:10DF3000FC2443F6A40143F66425C0F601046FA057
:10DF4000C0F60101C0F60105CDE900100120294607
:10DF5000224640F281230294FBF73EFD43F22777ED
:10DF6000C0F6010703202946224640F2812300978C
:10DF7000FBF732FDFEE743F6FC2443F62C3043F674
:10DF8000A40143F66425C0F60104C0F60100C0F602
:10DF90000101C0F60105CDE9001001202946224605
:10DFA00040F283230294FBF717FD43F22777C0F674
:10DFB000010703202946224640F283230097FBF7FE
:10DFC0000BFD00BFFEE7D9F8281009F1200609B1C2
:10DFD00030468847BBF1000F4FF0000400F081800D
:10DFE0000E9845F6A064C2F200040490039600BFA8
:10DFF0004846012100F036FD002871D199F835001E
:10E000000221217000284FF004004FF000024FF071
:10E01000000108BF032000BFD34303440131DB00EC
:10E02000A618CAB225FA03F390427370F4D899F88F
:10E03000350005260028B5FBF7F008BF0426784315
:10E04000401B07EB0008C34598BFD8460499A019A8
:10E050004246BA46F2F721F9D9F824C0039808EBF2
:10E0600006022146002300264F460096E04778B975
:10E07000384602F089F9B94688BB0498039EBBEB89
:10E08000080B4544404457460490B1D1002428E091
:10E0900043F6642443F6FC2543F67A0CC0F60104EB
:10E0A000C0F601058146C0F6010C032021462A4630
:10E0B0004FF42F73CDF800C0FBF78EFC43F2277CA2
:10E0C000C0F6010C032021462A464FF42F73CDF8E9
:10E0D00000C0FBF781FC039E4C46B94601E0039E5D
:10E0E00004464846002100F0BDFCD9F82C1009B1C7
:10E0F00030468847204605B000F014B8777269743E
:10E10000655F6772616E203D3D2031207C7C207709
:10E11000726974655F6772616E203D3D20323536ED
:10E120000000000030BCBDE8C08F00008446002223
:10E13000002000BF1CF80230A3F130010A2903D2ED
:10E140006FF02F0110E000BFA3F14101062903D2B7
:10E150006FF0360108E000BFA3F16101052984BF1B
:10E16000002070476FF0560119440844032A02F159
:10E17000010238BF0001042A08BF7047DAE7000037
:10E180002DE9F04F81B08B460B68896819440D4624
:10E1900015F8012B222A40F0EC80DBF80420EC1A61
:10E1A0008146944215D2012700202E46CC5D5C2C7E
:10E1B00002D0222C07D110E00137CE19F61A964270
:10E1C00080F0D78001300137CE19F41A9442EDD394
:10E1D00004E0002001272E4600E0F41A944280F06B
:10E1E000C88001EB070A9AF80020222A40F0C1807B
:10E1F000711ADBF81020081A01309047002800F04F
:10E20000B8808446022F8046C0F2A1804FF00C0EE9
:10E21000E04600BF28785C280ED1711B0129C0F2AE
:10E22000A480687861280BDC22281FD02F281DD0FD
:10E230005C281BD099E000BF013508F8010B19E0FC
:10E24000A0F16E02072A07D8DFE802F0048F8F8F53
:10E250000D8F0F170A2009E0662827D0622840F0AA
:10E260008480082002E00D2000E0092008F8010B5E
:10E27000022005445545CDD369E0062975DBA81C6D
:10E280006746FFF753FF044640F2FF3024EA0000E0
:10E29000B0F5584F0DD0B0F55C4FBC464FF00C0EAA
:10E2A00063D0802C31D2012106204CE008F801EB2C
:10E2B000DEE7A81D311A0629BC4656DB00785C282B
:10E2C00053D1E879752850D105F10800FFF72EFFEA
:10E2D00040F2FF3120EA01014FF00C0EBC46B1F5CF
:10E2E0005C4F42D14FF60041C0F20F0101EA842198
:10E2F0006FF39F20084400F580340C20210C102976
:10E3000033D8F021009104210FE0B4F5006F04D25E
:10E31000C02000900221062007E0B4F5803F4FF0B6
:10E320000600EBD2E021009103214B1EDBB202225A
:10E33000A70962F39F1408F80340013B3C46F7D15C
:10E34000009A47EA020488F80040884491E70020D8
:10E3500088F800001020C9F80C00DBF80000C9F8AC
:10E3600010C0301A411C012007E0DBF81410604691
:10E370008847DBF80000291A0020CBF8081001B00C
:10E3800000F000B830BCBDE8C08F0000A1F1090367
:10E39000172B844608D801201B2200FA03F3C0F291
:10E3A0008002134200D07047ACF114000B2800F239
:10E3B000C180DFE800F026333B40060645781010A8
:10E3C000869A402904BF1A2070473F2900F09B809D
:10E3D0002F293BD173E0C8B241F22C12C008C0F61D
:10E3E0000102105C01F00702D040C0071CBF1D20D5
:10E3F00070470120232908BF1E203F2908BF1D2088
:10E4000070472A294FF01B00CDD02F29CBD041F0E7
:10E4100020006138C0B21A2806D38BE041F02000FA
:10E420006138C0B21A2870D2152070472F2904BF56
:10E43000172070477EE02F2904BF1820704779E02D
:10E440002F293CD03F295ED0402973D0A1F1300064
:10E45000C0B20A284FF01900A5D341F02002613A5A
:10E46000D2B21A2AFFF49FAFA1F121021C2A4FF069
:10E47000190009D8012303FA02F243F6F973C1F235
:10E4800000631A427FF48FAFA1F15B02042A06D821
:10E49000012303FA02F212F0150F7FF484AF7E29F4
:10E4A00018BF01207047C8B241F22C12C008C0F654
:10E4B0000102105C01F00702D040C0072AD01B20E7
:10E4C0007047C8B241F22C12C008C0F60102105CBD
:10E4D00001F00702D040C00713D10120232908BF53
:10E4E0001E203F2908BF1F207047C8B241F22C12DE
:10E4F000C008C0F60102105C01F00702D040C0075E
:10E5000010D01F2070471C2070473A2904BF1620E6
:10E5100070470FE00120232908BF1E203F2908BFB4
:10E520001C20704723294FF01F0008BF70473F2968
:10E530003FF439AF012070472DE9F04F91B0002929
:10E5400000F0A3810D688B46002D00F09E81DBE971
:10E550000178824608F10404BC420AD843F2B26151
:10E5600005EB0800C0F6010104220426F1F7FFFEC6
:10E5700040B308F10506BE4209D844F21C3105EB50
:10E580000800C0F601010522F1F7F1FE00B3BC421C
:10E590000AD844F2223105EB0800C0F6010104223A
:10E5A000F1F7E5FE00284DD0B84580F06E8115F8F2
:10E5B0000810222912D15046594611B000F074B902
:10E5C000FFF7DEBDCAF80C60CBF8084001275DE11B
:10E5D0000127CAF80C70CBF8086057E12D2905EB2C
:10E5E000080038D0A1F13002092A34D97B2955D04E
:10E5F0005B2940F04A81DBF80C10CA087C2A00F243
:10E6000044810131CBF80C1000785B2840F03D814B
:10E6100008F10100CBF808005846FCF787FCDBE95D
:10E620000110884280F09C80DBF80010095C5D29B5
:10E6300040F09A80DBF80C1000260139CBF80C1062
:10E64000202150E002200127CAF80C00CAF81470FB
:10E65000CBF808401AE147F6E5730021E9460122AC
:10E66000C0F20043109100BF08EB0106BE423FD24A
:10E67000455CA5F12B061A2E0DD802FA06F41C42B1
:10E6800005D009F8015001313F29EDD12FE0032ECB
:10E6900001D12E25F5E7652DF3D029E0DBF80C102C
:10E6A000CA087C2A00F2F1800131CBF80C10007806
:10E6B0007B2840F0EA8008F10100CBF808005846BA
:10E6C000FCF734FCDBE90110884249D2DBF800108A
:10E6D000095C7D2940F08180DBF80C1000260139AF
:10E6E000CBF80C1040210130CAE9026135E03F212E
:10E6F000002709F8017010A9484601F021FF109C7D
:10E70000A14500F0C3809FED641B58EC107B53ECD7
:10E71000112B384641468AED060BF2F7DDFA68B94F
:10E720009FED5F0B384653EC102B4146F2F7B9FAD8
:10E7300038B938464146F2F70BFB04E06FF0004071
:10E7400001E04FF00040CAF814000820CAF80C009D
:10E75000DBF80800A4EB09010844CBF8080035E712
:10E760000138CBF8080090E0013800260024CBF8EF
:10E770000800DBF8101028208847002800F081806E
:10E7800028210746F1F7A2FD002E1ABF27607C6002
:10E790003E46DBF808000130CBF808005846FCF78D
:10E7A000C5FB38465946FFF7C7FE00286AD05846D1
:10E7B000FCF7BCFBDBE90110884263D2DBF80010F8
:10E7C0003C46095C2C29D4D05D295BD1DBF80C10C8
:10E7D0000139CBF80C10776032E701384FF00008B0
:10E7E00000260024CBF80800DBF81010282088470A
:10E7F000002846D028210746F1F768FD002E1ABFF1
:10E8000027607C603E46DBF808000130CBF808004A
:10E810005846FCF78BFB38465946FFF7B1FC88B3E6
:10E820005846FCF783FB3869C7F810803862DBE98B
:10E830000110884226D2DBF80010095C3A2921D168
:10E840000130CBF808005846FCF770FB38465946B3
:10E85000FFF772FEB0B15846FCF768FBDBE9011028
:10E8600088420FD2DBF800103C46095C2C29BBD053
:10E870007D2907D1DBF80C100139CBF80C1077603B
:10E8800030E716B13046FCF76BFB0027384611B075
:10E8900000F00FB800BF00BF0000C0FFFFFFDF4166
:10E8A000000000000000E0C130BCBDE8C04FFFF731
:10E8B00087BE30BCBDE8C08FB0B586B09C4613465D
:10E8C0005A228DF813200A0C8DF814200A0A8DF8AC
:10E8D0001520FF228DF816108DF8172080B1B1F1A8
:10E8E000807F36D2002B5AD0456A002D7DD0203053
:10E8F0000DF113010522CDF800C0A84706B0B0BD48
:10E9000044F2D41443F61E3043F6A40144F2E31556
:10E91000C0F60104C0F60100C0F60101C0F6010511
:10E92000CDE900100120294622464FF4C27302941B
:10E93000FBF752F843F2277CC0F6010C032029466E
:10E9400022464FF4C273CDF800C0FBF745F800BF74
:10E95000FEE744F2D41443F6A40144F2E315C0F6F2
:10E96000010435A0C0F60101C0F60105CDE9001093
:10E9700001202946224640F285130294FBF72CF829
:10E9800043F2277CC0F6010C03202946224640F2C0
:10E990008513CDF800C0FBF71FF800BFFEE744F277
:10E9A000D41443F6A40144F2E315C0F601042AA0EE
:10E9B000C0F60101C0F60105CDE90010012029468D
:10E9C00022464FF4C3730294FBF706F843F2277C08
:10E9D000C0F6010C0320294622464FF4C373CDF83C
:10E9E00000C0FAF7F9FF00BFFEE744F2D41443F683
:10E9F000A40144F2E315C0F6010413A0C0F601011E
:10EA0000C0F60105CDE9001001202946224640F25A
:10EA100087130294FAF7E0FF43F2277CC0F6010C5B
:10EA200003202946224640F28713CDF800C0FAF7AA
:10EA3000D3FF00BFFEE700BF61646472203C203159
:10EA40004C203C3C20323400666C6173682D3E7370
:10EA500070692E7772000000726561645F6275668E
:10EA6000000000002DE9F04184B0C0B10546062049
:10EA7000002908BF04208DF80E006F6A05F12006FA
:10EA800000200C4600900DF10E01304601220023BB
:10EA90004FF00108B84750B304B0BDE8F08143F629
:10EAA000962443F61E3043F6A40143F66425C0F6CF
:10EAB0000104C0F60100C0F60101C0F60105CDE970
:10EAC000001001202946224640F2C7330294FAF78B
:10EAD00083FF43F22777C0F6010703202946224629
:10EAE00040F2C7330097FAF777FF00BFFEE7052033
:10EAF0006F6A8DF80F000DF10F010DF10D03304617
:10EB00000122CDF80080B847002CC5D00028C3D121
:10EB10009DF80D0080071ED443F6642443F6962525
:10EB2000C0F60104C0F601050CA7032021462A46C1
:10EB300040F2DD330097FAF74FFF43F22777C0F634
:10EB40000107032021462A4640F2DD330097FAF7F9
:10EB500043FF0220A0E700209EE700BF4572726FCE
:10EB6000723A2043616E277420656E61626C652085
:10EB70007772697465207374617475732E00000078
:10EB80002DE9F04184B0F0B1044690F8340000283B
:10EB900041D0A16A04F1200509B1284688472046E2
:10EBA0000121FFF75FFF0646002840F09280A08A0F
:10EBB000C72100078DF80C1055D4676A002603A9F9
:10EBC000284601225BE043F6EC2443F61E3043F670
:10EBD000A40143F66425C0F60104C0F60100C0F6A6
:10EBE0000101C0F60105CDE90010012029462246A9
:10EBF00040F2BF130294FAF7EFFE43F22777C0F614
:10EC0000010703202946224640F2BF130097FAF776
:10EC1000E3FE00BFFEE743F6EC2443F62C3043F658
:10EC2000A40143F66425C0F60104C0F60100C0F655
:10EC30000101C0F60105CDE9001001202946224658
:10EC400040F2C1130294FAF7C7FE43F22777C0F6E9
:10EC5000010703202946224640F2C1130097FAF724
:10EC6000BBFE00BFFEE748F29400ADF80D009A200D
:10EC7000676A8DF80F00002603A9284604220023A6
:10EC80000096B847064600B343F6642743F6EC28DF
:10EC9000C0F60107C0F601080FF2500C03203946F8
:10ECA000424640F2DF13CDF800C0FAF795FE43F27A
:10ECB000277CC0F6010C03203946424640F2DF13A0
:10ECC000CDF800C0FAF788FE03E0204601F05CFBB7
:10ECD000064620460021FFF7C5FEE16A09B1284635
:10ECE0008847304604B0BDE8F08100BF4572726FBE
:10ECF000723A20466C61736820636869702065729F
:10ED00006173652053504920636F6D6D756E696343
:10ED1000617465206572726F722E00002DE9F043F8
:10ED200087B0E8B3476A0446002F5ED0206943F2FB
:10ED30002779C0F6010938B1A18A29B1A16919B1B1
:10ED4000217F002940F0E9809F2104F120008DF807
:10ED50001810032606A90DF1150301220096B847E5
:10ED6000002868D043F6642643F6A827C0F60106BB
:10ED7000C0F6010705460FF2BC4C032031463A4667
:10ED80004FF46D73CDF800C0FAF726FE032031462C
:10ED90003A464FF46D73CDF80090FAF71DFEFEE091
:10EDA00043F69F3443F61E3043F6A40143F6642530
:10EDB000C0F60104C0F60100C0F60101C0F601056D
:10EDC000CDE90010012029462246D7230294FAF704
:10EDD00003FE43F22777C0F60107032029462246A7
:10EDE000D7230097FAF7F8FDFEE743F69F3443F682
:10EDF000603043F6A40143F66425C0F60104C0F672
:10EE00000100C0F60101C0F60105CDE900100120A6
:10EE100029462246DE230294FAF7DEFD43F22777E5
:10EE2000C0F60107032029462246DE230097FAF7A1
:10EE3000D3FD00BFFEE79DF815009DF816109DF864
:10EE4000172043F2817343F6642543F6A826C0F6E3
:10EE50000103C0F60105C0F6010620736173A273B9
:10EE6000CDE90030CDE902120120294632464FF4A7
:10EE70006C730127FAF7B0FD0320294632464FF4A0
:10EE80006C73CDF80090FAF7A7FD204600F032FC35
:10EE9000E8B10021A160D4E91402B4F8483020613F
:10EEA000012B08BF022794F85830A782A26123776C
:10EEB00004EBC107FB6D33B19A4204D997F8602087
:10EEC000A36122771A4601310329F1D122E0217B87
:10EED00041F24C120020C0F6010200BF13181F7946
:10EEE0008F4207D15F79667BB74203D19F79A67BBA
:10EEF000B74205D01830B0F5FC7FEFD1206909E0AA
:10EF000010589A89A06098681969A2821A7D2061B8
:10EF1000A161227728B3A18A19B3A16909B3217F1E
:10EF2000F9B1227B43F2CC330021C0F6010300BFCC
:10EF300003EBC1073F7997425AD001311029F7D12D
:10EF4000C7A1CDE9001043F6642143F69F32C0F615
:10EF50000101C0F60102032040F2431340F24315C1
:10EF600071E043F6642543F69F3643F65117C0F629
:10EF70000105C0F60106C0F6010703202946324606
:10EF800040F227130097FAF727FD0320294632465F
:10EF900040F22713CDF80090FAF71EFD012500205E
:10EFA000216884F8340043F64F00C0F60100CDE933
:10EFB000000143F6642143F68E32C0F60101C0F62B
:10EFC0000102032069236924FAF706FD43F6642150
:10EFD00043F68E32C0F60101C0F60102032023463B
:10EFE000CDF80090FAF7F8FC284607B0BDE8F083AA
:10EFF000A26853F8311092B1A3A3CDE90031CDE955
:10F00000022043F6642143F69F32C0F60101C0F6A8
:10F01000010203204FF49D734FF49D7513E043F6F6
:10F02000C202C0F60102CDE9002143F6642143F695
:10F030009F320290C0F60101C0F60102032040F2A7
:10F040003F1340F23F15FAF7C7FC43F6642143F63D
:10F050009F32C0F60101C0F6010203202B46CDF815
:10F060000090FAF7B9FC04F120086620656A0DF1FA
:10F0700019078DF819000026404639460122002361
:10F080000096A84718B1054640F2863614E020469F
:10F0900001F07AF9791C9920676A8DF81A004046C8
:10F0A000012200230096B84718B9204601F06CF9F8
:10F0B000D8B105464FF4667643F6642743F68838A0
:10F0C00043F6070CC0F60107C0F60108C0F6010CB4
:10F0D0000320394642463346CDF800C0FAF77CFC9F
:10F0E000032039464246334655E643F6642543F647
:10F0F000883743F63516C0F60105C0F60107C0F69D
:10F100000106012029463A464FF465730096FAF746
:10F1100063FC032029463A464FF46573CDF800900E
:10F12000FAF75AFCA08A400708D5204601210022A0
:10F1300001F09EF8054600287FF431AF2069B0F158
:10F14000807F36D920460121FFF78CFC0546002838
:10F150007FF425AFB720676A8DF81B000020009070
:10F160000DF11B014046012200230126B847E0B300
:10F17000054643F2DE7043F6642643F6C92743F69C
:10F180005A3CC0F60100C0F60106C0F60107C0F601
:10F19000010C0090032031463A4640F21543CDF869
:10F1A00004C0FAF719FC032031463A4640F21543F1
:10F1B000F1E5002084F835000120216884F834004E
:10F1C00043F60E10C0F60100CDE9000143F66421BC
:10F1D00043F68E32C0F60101C0F60102032064231B
:10F1E0006424FAF7F9FB0025F0E684F8356043F66D
:10F1F000EB0043F6642543F6C92643F65A37C0F6BA
:10F200000100C0F60105C0F60106C0F60107009036
:10F2100001202946324640F211430197FAF7DCFB00
:10F2200003202946324640F21143CDF80090FAF708
:10F23000D3FBC1E74572726F723A20526561642058
:10F24000666C61736820646576696365204A45442D
:10F250004543204944206572726F722E0000000001
:10F2600046696E64206120666C617368206368691A
:10F27000702E2053697A6520697320256C642062A2
:10F28000797465732E00000046696E642061202544
:10F290007320257320666C61736820636869702E23
:10F2A0002053697A6520697320256C642062797423
:10F2B00065732E002DE9F04F87B068B3044690F8CF
:10F2C000340000284FD020690D4611441746814272
:10F2D00071D943F6642443F6E12543F62907C0F6C5
:10F2E0000104C0F60105C0F60107032021462A46A5
:10F2F00040F20B230097FAF76FFB43F22777C0F633
:10F300000107032021462A4640F20B230097FAF713
:10F3100063FB4FF0050AE6E043F6E12443F61E30B6
:10F3200043F6A40143F66425C0F60104C0F60100CB
:10F33000C0F60101C0F60105CDE900100120294603
:10F34000224640F205230294FAF746FB43F2277760
:10F35000C0F6010703202946224640F20523009704
:10F36000FAF73AFBFEE743F6E12443F62C3043F686
:10F37000A40143F66425C0F60104C0F60100C0F6FE
:10F380000101C0F60105CDE9001001202946224601
:10F3900040F207230294FAF71FFB43F22777C0F6E7
:10F3A000010703202946224640F207230097FAF777
:10F3B00013FB00BFFEE735B9B84204D12046FFF782
:10F3C000DFFB82468FE0A16A04F1200609B13046D6
:10F3D0008847002F4FF0000A7DD004F11C000390F5
:10F3E0000DF1170004F1180900F10108049600BF9F
:10F3F00094F8440049460028039809D0204629463D
:10F400003A4600F0BBFD04EBC00101F15800543155
:10F41000D1F800B0067820460121FFF723FBA8BBF6
:10F4200094F835000421002200238DF8176000288D
:10F4300008BF0321D6430E44F60025FA06F6013331
:10F4400008F80260DAB29142F4D805220028666A10
:10F4500008BF042204980DF117010023CDF800A085
:10F46000B047A8B9204600F08FFF78B9B5FBFBF094
:10F4700000FB1B5008B1ABEB000B5F4503D9B7EBAA
:10F480000B075D44B4D14FF0000A23E0824621E02F
:10F4900043F6642543F6E127C0F60105C0F60107EF
:10F4A00006460FF24C0C032029463A464FF40F73E0
:10F4B000CDF800C0FAF790FA43F2277CC0F6010CB1
:10F4C000032029463A464FF40F73CDF800C0FAF7EF
:10F4D00083FAB246049E20460021FFF7C3FAE16A90
:10F4E00009B130468847504607B000F017B800BF52
:10F4F0004572726F723A20466C6173682065726162
:10F5000073652053504920636F6D6D756E6963613B
:10F510007465206572726F722E00000030BCBDE809
:10F52000C08F00002DE9F04385B080B31D46002B4D
:10F5300055D0044690F83400002874D020690F4656
:10F5400011449146814240F2968043F6642443F68A
:10F550008C2543F62907C0F60104C0F60105C0F664
:10F560000107032021462A4640F28D130097FAF73F
:10F5700033FA43F22777C0F60107032021462A46D3
:10F5800040F28D130097FAF727FA0526AAE043F612
:10F590008C2443F61E3043F6A40143F66425C0F6DE
:10F5A0000104C0F60100C0F60101C0F60105CDE975
:10F5B00000100120294622464FF4C3730294FAF743
:10F5C0000BFA43F22777C0F60107032029462246AB
:10F5D0004FF4C3730097FAF7FFF900BFFEE743F655
:10F5E0008C2443F6A40143F66425C0F601043FA031
:10F5F000C0F60101C0F60105CDE900100120294641
:10F60000224640F287130294FAF7E6F943F227778D
:10F61000C0F6010703202946224640F287130097CF
:10F62000FAF7DAF9FEE743F68C2443F62C3043F67A
:10F63000A40143F66425C0F60104C0F60100C0F63B
:10F640000101C0F60105CDE900100120294622463E
:10F6500040F289130294FAF7BFF943F22777C0F614
:10F66000010703202946224640F289130097FAF742
:10F67000B3F900BFFEE7A16A04F1200809B14046D2
:10F680008847204600F080FE064638BB03208DF8F0
:10F690000F000DF10F0094F835C0411C0422002327
:10F6A0000026BCF1000F08BF032200BFD84310445E
:10F6B000C00027FA00F00136C854F3B29A42F5D8D8
:10F6C000676A05220DF10F0140462B46BCF1000F81
:10F6D00008BF0422CDF80090B8470646E16A09B198
:10F6E00040468847304605B0BDE8F08364617461E8
:10F6F000000000002DE9F04F8FB0F8B10446002063
:10F70000CDE9060084F8440006AA2046002108231B
:10F71000FFF7D2F843F22777C0F6010798B30FF24C
:10F72000D87044F2E31144F242220090C0F6010185
:10F73000C0F6010203208023802561E044F22124E9
:10F7400043F61E3043F6A40144F2E315C0F601046B
:10F75000C0F60100C0F60101C0F60105CDE90010B8
:10F7600001202946224656230294FAF735F943F23E
:10F770002777C0F601070320294622465623009723
:10F78000FAF72AF9FEE79DF81800532828D19DF8CA
:10F790001900462824D19DF81A00442820D19DF84C
:10F7A0001B0050281CD19DF81D109DF81C0002293B
:10F7B00084F8460084F8451052D343F6DD52C0F673
:10F7C0000102CDE9002144F2E31144F24222029009
:10F7D000C0F60101C0F6010203208E238E250FE042
:10F7E00043F6E930C0F6010044F2E31144F242224C
:10F7F0000090C0F60101C0F6010201208623862593
:10F80000FAF7EAF844F2E31144F24222C0F60101A9
:10F81000C0F6010203202B460097FAF7DDF82668B0
:10F8200043F6354044F2E31444F22125C0F60100CA
:10F83000C0F60104C0F601050090032021462A46C7
:10F8400063230196FAF7C8F8032021462A4663236A
:10F850000097FAF7C1F8002528460FB000F08ABBE0
:10F8600044F2E31844F242269DF81E500FF2A862BB
:10F87000C0F60108C0F60106CDE900210290012082
:10F880004146324692230395FAF7A6F803204146F3
:10F89000324692230097FAF79FF80020CDE9060040
:10F8A00006AA204608210823FFF706F880B143F690
:10F8B000A770C0F6010044F2E31144F23022009038
:10F8C000C0F60101C0F601020320AC23AC252DE0F7
:10F8D0009DF81A109DF81900022912D343F61262FE
:10F8E000C0F60102CDE9002144F2E31144F23022D6
:10F8F0000290C0F60101C0F601020320B923B92528
:10F9000014E09DF81B20082A1BD844F2F400C0F62E
:10F910000100CDE9000244F2E31144F23022C0F6C6
:10F920000101C0F601020320BF23BF25FAF754F8F6
:10F9300044F2E31144F23022C0F60101C0F60102A4
:10F9400068E7BDF81C309DF81E609DF8185043EA2A
:10F95000064643F60D53C0F60103CDE9003544F2E7
:10F96000E31544F23028C0F60105C0F60108CDE9E0
:10F9700002100492012029464246C6230596FAF752
:10F980002BF8032029464246C6230097FAF724F8AD
:10F9900006AD28462421F0F799FC204631462A4638
:10F9A0002423FEF789FFB8B144F2E31444F2102592
:10F9B00043F69866C0F60104C0F60105C0F60106DC
:10F9C000032021462A46E0230096FAF705F8032093
:10F9D00021462A46E0233BE744F2891044F2E3192A
:10F9E00044F21028C0F60100C0F60109C0F6010873
:10F9F0000090012049464246E4230126F9F7ECFF36
:10FA0000032049464246E4230097F9F7E5FF0FF249
:10FA1000485C012049464246E523CDF800C0F9F78D
:10FA2000DBFF032049464246E5230097F9F7D4FF60
:10FA300044F2B11A0135C0F6010A15F8010C297813
:10FA40006A78AB78CDF800A0CDE90232CDE9041098
:10FA5000012049464246E9230196F9F7BDFF0320FC
:10FA600049464246E9230097F9F7B6FF01360A2EC8
:10FA700005F10405E1D19DF818109DF8190001F079
:10FA80000301032984F84B0016D0012950D101212C
:10FA900084F84A1043F68F41C0F60101CDE9001009
:10FAA00044F2E31144F21022C0F60101C0F6010253
:10FAB0000120F323F32612E0002084F84A0043F6E5
:10FAC0006560C0F6010044F2E31144F21022009098
:10FAD000C0F60101C0F601020120F723F726F9F76D
:10FAE0007BFF44F2E31144F21022C0F60101C0F69C
:10FAF0000102032033460097F9F76EFF9DF81800C6
:10FB000040072DD40120A4F8480043F64170C0F608
:10FB1000010044F2E31144F210220090C0F601010A
:10FB2000C0F60102012040F2031340F203162DE05B
:10FB300044F2E31444F2102544F23B16C0F60104EB
:10FB4000C0F60105C0F60106032021462A46FA2325
:10FB50000096F9F741FF032021462A46FA2377E66B
:10FB60004FF48070A4F8480043F6DD70C0F6010041
:10FB700044F2E31144F210220090C0F60101C0F6F5
:10FB80000102012040F2071340F20716F9F724FFA3
:10FB900044F2E31144F21022C0F60101C0F6010262
:10FBA000032033460097F9F717FF9DF81800000768
:10FBB00015D4012084F84C0043F61370C0F6010000
:10FBC00044F2E31144F210220090C0F60101C0F6A5
:10FBD0000102012040F2131340F213164EE044F2EA
:10FBE000E31644F21025002043F6CF6CC0F6010660
:10FBF000C0F6010584F84C00C0F6010C0120314626
:10FC00002A464FF48C73CDF800C0F9F7E5FE0320C7
:10FC100031462A464FF48C730097F9F7DDFE9DF8C4
:10FC20001800C00615D4502084F84D0044F2060098
:10FC3000C0F6010044F2E31144F210220090C0F635
:10FC40000101C0F6010201204FF490734FF4907649
:10FC500014E0062084F84D0044F27D00C0F6010057
:10FC600044F2E31144F210220090C0F60101C0F604
:10FC7000010201204FF493734FF49376F9F7ACFE31
:10FC800044F2E31144F21022C0F60101C0F6010271
:10FC9000032033460097F9F79FFE9DF81A00C0F342
:10FCA000410002281AD001282FD0002840F0878078
:10FCB0000120A4F84E0043F67770C0F6010044F22C
:10FCC000E31144F210220090C0F60101C0F60102D7
:10FCD000012040F2311340F231162CE04FF48070D5
:10FCE000A4F84E0043F68F70C0F6010044F2E31111
:10FCF00044F210220090C0F60101C0F6010201207A
:10FD000040F23B1340F23B1615E040F20110A4F81C
:10FD10004E0043F65E70C0F6010044F2E31144F277
:10FD200010220090C0F60101C0F6010201204FF43C
:10FD30009B734FF49B76F9F74FFE44F2E31144F2C4
:10FD40001022C0F60101C0F60102032033460097DD
:10FD5000F9F742FE9DF81E209DF81F309DF81D10FA
:10FD600012049DF81C0042EA036242EA01211A06CD
:10FD7000084403D4012101EBD00045E020F000400D
:10FD800024283DD30025256544F2E31444F21026CF
:10FD900043F6985CC0F60104C0F60106C0F6010CFB
:10FDA0000320214632464FF4A873CDF800C0F9F77E
:10FDB00013FE0320214632464FF4A8731CE00025B1
:10FDC000A4F84E5044F2E31444F2102643F6C83C23
:10FDD000C0F60104C0F60106C0F6010C032021465E
:10FDE00032464FF4A073CDF800C0F9F7F5FD0320BB
:10FDF000214632464FF4A0730097F9F7EDFD2BE54D
:10FE00000338012101FA00F044F2721144F2E31ABE
:10FE100044F21029C0F60101C0F6010AC0F601093A
:10FE20002065CDE90010012051464A464FF4AB73DE
:10FE3000F9F7D2FD032051464A464FF4AB730097C1
:10FE4000F9F7CAFD43F6D14B0026C0F6010B4FF07F
:10FE5000000806AD05EB4600017F01B3012202FA5E
:10FE600001F15FFA88F2457F04EBC202880A51650E
:10FE700082F85850CDE900B0012051464A4640F280
:10FE80005F13029506ADF9F7A7FD032051464A46D8
:10FE900040F25F130097F9F79FFD08F10108013662
:10FEA000042ED7D10020022800F1010C1BD804EB4E
:10FEB000C0031A4652F8547FAFB103F1580E04EB59
:10FEC000C007FE6D66B11568B54209D99EF80010ED
:10FED00097F8603016608EF80030FD6587F8601086
:10FEE00001300328EBD1BCF1040F6046DBD10125C2
:10FEF00084F84450B0E400BF4572726F723A2043F8
:10FF0000616E2774207265616420534644502068F6
:10FF100065616465722E0000436865636B2053461B
:10FF2000445020686561646572206973204F4B2ED0
:10FF30002054686520726576657273696F6E2069FA
:10FF400073205625642E25642C204E504E20697354
:10FF50002025642E000000004D53422D4C534220BA
:10FF6000203320202020322020202031202020205B
:10FF70003000000030BCBDE8C08F0000B0B584B0D8
:10FF800090F8443043B1436DB1FBF3F505FB131317
:10FF90003BB3002004B0B0BD44F2532443F6A401A7
:10FFA00044F2E315C0F6010417A0C0F60101C0F643
:10FFB0000105CDE9001001202946224640F299139F
:10FFC0000294F9F709FD43F2277CC0F6010C0320E7
:10FFD0002946224640F29913CDF800C0F9F7FCFCFF
:10FFE000FEE700F16C03002053F830506C1E944281
:10FFF00004D2B1FBF5F404FB15151DB1C51CC8D026
:020000040801F1
:100000000138F1E70330C5E7666C6173682D3E7314
:100010006664702E617661696C61626C65000000D7
:100020002DE9F04F87B00446808A99461546C207ED
:100030000F4603D140070FD4002609E02046394679
:100040002A464FF48073CDF80090FDF70FFF064667
:10005000304607B000F008B994F8340028B320699E
:10006000E919814249D943F6642443F6143543F62D
:100070002907C0F60104C0F60105C0F601070320F8
:1000800021462A4640F2ED230097F9F7A5FC43F2FA
:100090002777C0F60107032021462A4640F2ED23C8
:1000A0000097F9F799FC0526D2E743F6143443F696
:1000B0002C3043F6A40143F66425C0F60104C0F6D3
:1000C0000100C0F60101C0F60105CDE900100120D4
:1000D0002946224640F2E9230294F9F77DFC43F2D7
:1000E0002777C0F6010703202946224640F2E9237C
:1000F0000097F9F771FC00BFFEE7A16A04F1200840
:1001000009B140468847F8070DD0204639460122FC
:100110000123CDF80090FDF7A9FE064648B909F184
:1001200001090137013D20460121FEF79BFC0646EF
:1001300050B120460021FEF795FCE16A00293FF40A
:1001400087AF4046884783E7AD20022D8DF8140025
:100150004ED30DF1140A05F001000AF1010B0490D1
:100160000020C00709D099F800008DF8150099F813
:1001700001008DF81600012021E094F835000421DB
:1001800000220023002808BF032100BFD6430E44ED
:10019000F60027FA06F601330BF80260DAB2914254
:1001A000F4D899F8001000284FF0050008BF04208B
:1001B0000AF8001099F801100AEB00025170D4F807
:1001C00024C040F00202404651460023002600961B
:1001D000E04718BB204600F0D7F8002842D1023D86
:1001E000023709F10209012D4FF00100B9D8049D31
:1001F00020460021FEF736FC012D064608BF002EE2
:1002000008D12046394601220123CDF80090FDF7A0
:100210002DFE0646002E8CD100268EE743F664257F
:1002200043F6143743F67A0CC0F60105C0F6010711
:100230000646C0F6010C032029463A464FF44773A0
:10024000CDF800C0F9F7C8FB43F2277CC0F6010CDB
:10025000032029463A464FF44773CDF800C0F9F71A
:10026000BBFB66E7064664E730BCBDE8C08F000014
:10027000F0B585B098B11446054600F12006B1B33B
:1002800050206F6A8DF812004FF0000C0DF1120132
:10029000304601220023CDF800C0B8472BE043F6DA
:1002A000763443F61E3043F6A40143F66425C0F6C7
:1002B0000104C0F60100C0F60101C0F60105CDE958
:1002C000001001202946224640F266430294F9F7C5
:1002D00083FB43F22777C0F6010703202946224615
:1002E00040F266430097F9F777FB00BFFEE7284628
:1002F0000121FEF7B7FB074678B901206F6A8DF838
:10030000120000250DF112013046022200238DF863
:1003100013400095B8470746F8B143F6642443F606
:100320007635C0F60104C0F601050DA6032021466E
:100330002A4640F27B430096F9F74EFB43F22776BC
:10034000C0F60106032021462A4640F27B43009670
:10035000F9F742FB384605B0F0BD0027FAE700BFC9
:100360004572726F723A2057726974655F73746177
:10037000747573207265676973746572206661694C
:100380006C65642E000000002DE9F04F85B0002858
:1003900044D0C66B044600F120054FF005094FF02C
:1003A000010A0DF113080DF1120B00BF676A284610
:1003B000414601225B468DF81390CDF800A0B84766
:1003C00018B99DF81200C0074FD026B1A06B00B13C
:1003D0008047013EEAE79DF8120043F6642543F6A4
:1003E000BE3624A1C0F60105C0F601060424009122
:1003F000029003202946324640F242430194F9F725
:10040000EBFA43F22777C0F601070320294632466C
:1004100040F242430097F9F7DFFA27E043F6BE3493
:1004200043F61E3043F6A40143F66425C0F60104EA
:10043000C0F60100C0F60101C0F60105CDE90010CB
:1004400001202946224640F233430294F9F7C4FAC8
:1004500043F22777C0F6010703202946224640F2DF
:1004600033430097F9F7B8FAFEE70024204605B0B9
:1004700000F016B84572726F723A20466C6173686C
:1004800020776169742062757379206861732061D7
:100490006E206572726F722E202564202564000024
:1004A00030BCBDE8C08F00000FB47CB50C0009ADB6
:1004B00001D0611E00E00021CDE90001064B6A4633
:1004C0002946089800F02CF9002C02D0009A00214F
:1004D00011707CBC5DF814FB550E01080FB4084B7D
:1004E00010B504A902AA039800F01AF9044602A95B
:1004F000002000F0BAFC204610BC5DF814FB0000A0
:100500006B0E01087CB50C001D461646014601D055
:10051000601E00E00020CDE90010064B6A46294627
:10052000304600F0FDF8002C02D0009A0021117036
:100530007CBD0000550E01080048704700000020F7
:1005400000B583B09FED060B0A4601468DED000B0A
:1005500001236846F0F701FD9DED000B03B000BDDF
:10056000000000000000000002E008C8121F08C1DF
:10057000002AFAD170477047002001E001C1121F24
:10058000002AFBD1704700002DE9FF5F82B00021F7
:10059000DDE90430020DDDF840B0034318D044F625
:1005A0001050A2F2FF3242431514119801281FD0B7
:1005B000A5EB0B00401C5FEA000A4FF000064E4F0F
:1005C000DFF83891B046504615D5CAF1000413E063
:1005D000119801244AA3012801D16FEA0B01029866
:1005E000119AC0E90031C0E9024206B000F08EB8AD
:1005F000CBF10000DFE704460021404A491842EBF6
:100600000450CDE9001012E0E00707D032463B4627
:1006100040464946F0F761FA8046894632463B46F5
:1006200010461946F0F759FA06460F466410002C9A
:10063000EAD1DDE90401DDE90023BAF1000F06DAB1
:10064000F0F74BFA42464B46F0F747FA05E0F0F771
:10065000B9FA42464B46F0F7B5FA04460E46002278
:10066000284BF0F769FD03D84FF0FF30014607E053
:100670000022254B20463146F0F780F9F0F743FD84
:10068000102409E0002C0ADB0A220023EFF79AFD70
:10069000039B30321A55641E50EA0102F2D1641CE9
:1006A000039AC4F111031444119A012A03D00122C0
:1006B00008430DD10AE0084304D000204FF0110B8D
:1006C000119072E7A3EB0B056D1E0DE05B4504DD99
:1006D0004FF0000205F1010504E003DA4FF00002DB
:1006E000A5F10105002AECD002981199C0E9023168
:1006F000C0E9004579E70000000014400000F03F29
:10070000300000000000F0430000E03F30BCBDE8D6
:10071000C09F30380A2801D201207047002070475E
:100720002DE9FF4F95B09B468946064600250FE20E
:10073000252877D100242746F84A0121059400E0B6
:10074000044316F8013F203B01FA03F01042F7D1B1
:1007500030782A2811D06FF02F033078A0F13002C2
:10076000092A16D8059A44F0020402EB820203EB30
:1007700042021044761C0590EFE759F8042B0592CD
:10078000002A03DA504244F40054059044F0020475
:10079000761C30782E2816D116F8010F44F0040488
:1007A0002A280DD06FF02F023078A0F13003092BEA
:1007B00009D807EB870302EB4303C718761CF3E75E
:1007C00059F8047B761C30786C280FD006DC4C2856
:1007D00017D068280DD06A2814D104E0742810D0EE
:1007E0007A280FD10DE044F400140AE044F4801498
:1007F00001E044F440147278824202D104F580147E
:10080000761C761C307866280BD013DC582877D0FD
:1008100009DC002875D04528F6D04628F4D04728B2
:100820001AD19DE118E0632835D0642879D0652875
:1008300012D195E1702873D008DC6728F1D06928BF
:100840006FD06E280DD06F2806D1B5E073282CD05C
:10085000752875D0782874D05A46179990476D1C22
:1008600075E1C4F30250022809D003280DD0D9F84D
:10087000001004280DD00D6009F1040967E1D9F8D2
:100880000010EA17C1E90052F6E7D9F800100D8010
:10089000F2E70D70F0E719F8041B8DF80010002046
:1008A0008DF80100EA46012003E059F804AB4FF04F
:1008B000FF3061074FF0000102D40DE008F10101A3
:1008C0008846B9420FDA8045F8DB1AF8081000298B
:1008D000F4D108E008F1010188468142FADB1AF8F8
:1008E00008100029F6D105985B46A0EB08072146C1
:1008F0003846179A00F097FA284400EB080507E0FD
:100900004DE029E10DE01AF8010B5A46179990477E
:10091000B8F10108F7D25B4621463846179A13E131
:1009200042E00A220092C4F302524FF0000A022A67
:1009300008D059F804CB032A4FEAEC710AD00DE035
:1009400029E02AE009F1070121F00702F2E802C1DB
:10095000914609E00FFA8CFC4FEAEC71042A03D1AE
:100960004FFA8CFC4FEAEC71002907DA0A460021A5
:10097000DCF1000C61EB02012D2202E0220504D51E
:100980002B228DF80420012203E0E20701D020226F
:10099000F7E7904659E00A2102E010220DE010210D
:1009A0004FF0000A00910BE010224FF0000A44F0D3
:1009B00004040827009203E008224FF0000A009286
:1009C000C4F30252022A05D059F804CB0021032AAD
:1009D00008D009E009F1070121F00702F2E802C19D
:1009E000914605E01FFA8CFC042A01D10CF0FF0CA3
:1009F0004FF00008220728D5702806D0009B83F00E
:100A0000100353EA0A0305D00EE040228DF80420BB
:100A1000012208E05CEA010206D030228DF80420B1
:100A20008DF8050002229046009B83F0080353EAEC
:100A30000A030AD15CEA010201D1620705D530221E
:100A40008DF804204FF001087F1E582804D034A0F0
:100A500003900EA802900DE036A0F9E753466046D9
:100A6000009AEFF7AFFB84460398825C0298401E21
:100A7000029002705CEA0100F0D1029806A9081AFF
:100A800000F1200A600702D524F4803400E0012739
:100A9000574502DDA7EB0A0000E0002000EB0A0149
:100AA000009005984144401A0590E00306D45B4647
:100AB0002146179A059800F0B6F90544002706E08C
:100AC00001A85A46C05D179990476D1C7F1C474589
:100AD000F6DBE0030CD55B462146179A059800F03B
:100AE000A2F9054404E030205A46179990476D1C3E
:100AF0000099481E00900029F5DC08E00298029950
:100B00005A460078491C0291179990476D1CBAF11A
:100B10000001AAF1010AF1DC65E1000009280100E9
:100B20003031323334353637383961626364656663
:100B30000000000030313233343536373839414225
:100B4000434445460000000000F05BF90544761C74
:100B5000307800287FF4ECAD19B0284600F04EB98B
:100B6000620700D4062709F1070222F0070CFCE80F
:100B70000223E14603F000485FEA080C02D00FF2BE
:100B8000702C0DE05FEA045C02D50FF2682C07E0E0
:100B90005FEAC47C02D00FF2602C01E0AFF2700C6F
:100BA0004FF0FF3823F00043CDF850C065280CD03B
:100BB00006DC452809D046281DD047283DD13DE018
:100BC000662818D067287ED138E00021112F01DB7C
:100BD000112000E0781CCDE9000106A90EA8FFF75E
:100BE000D3FCDDE90F010E9A03910021009207F179
:100BF000010A04914DE04FF000400097CDE901104B
:100C000006A90EA8FFF7C0FCDDE90F0203920E9BB8
:100C100011990022DDF80CA00093049211B9791CFF
:100C200000EB010AB7EB0A0004D4C0F1FF3007F172
:100C3000010A0490AAEB0700019044E0012F00DABA
:100C400001270021112F01DD112000E03846CDE9F8
:100C5000000106A90EA8FFF797FCDDE90F010E9A27
:100C60000391002104910092BA4621070CD4039904
:100C7000514500DA8A46BAF1010F05DD009AAAF162
:100C80000101515C302908D0B84202DA10F1040F9A
:100C900006DA0121CDE9011015E0AAF10101E9E729
:100CA000002805DC049901440491AAEB000102E04C
:100CB000411C514500DD8A460499401A401C0190B0
:100CC0004FF000400290200704D40198504501DB0A
:100CD000CDF8048000208DF84F0002980DF14F07E9
:100CE000B0F1004F25D02B200E9002984FF0020853
:100CF00000280CDA404202902D200E9007E00A21D5
:100D00000298F0F782F83031029007F8011DB8F12F
:100D10000001A8F10108F2DC02980028EFD1791E49
:100D20000E980870307800F0200040F0450007F879
:100D3000020D12A8C01B00F107081498007800B13A
:100D4000012000EB0A01019801EBE0710598414494
:100D5000401A401E0590E00306D45B462146179AD0
:100D6000059800F060F805441498007818B15A46C8
:100D7000179990476D1CE00324D55B462146179ACE
:100D8000059800F050F805441CE00498002807DBA3
:100D9000DDE90301884203DD0098405C179901E01A
:100DA000179930205A469047049805F10105401CD8
:100DB00004900198401E019004D12E205A461799A4
:100DC00090476D1CBAF10001AAF1010ADDDC05E0D3
:100DD00017F8010B5A46179990476D1CB8F100019E
:100DE000A8F10108F4DC5B462146179A0598ABE6AA
:100DF0002D0000002B0000002000000030BCBDE8EA
:100E0000C08F2DE9F041044600251E461746880490
:100E100004D405E039462020B0476D1C641EF9D586
:100E20002846BDE8F0812DE9F041044600251E4624
:100E30009046C80301D5302700E02027880404D558
:100E400005E041463846B0476D1C641EF9D528467A
:100E5000BDE8F0814A68002A06D00A68531C0B607E
:100E600010704868401E486070470A68531C0B6049
:100E70001070704700404040404040404040414179
:100E8000414141404040404040404040404040405F
:100E900040404040400502020202020202020202F9
:100EA00002020202022020202020202020202002F6
:100EB0000202020202029090909090901010101086
:100EC0001010101010101010101010101010101022
:100ED00002020202020288888888888808080808B6
:100EE0000808080808080808080808080808080882
:100EF0000202020240000000750E0108010305070E
:100F0000080A0C00FFFFFFFF0000000000000000C7
:100F100000000000FFFFFFFFFFFFFFFF00000000D9
:100F2000FFFFFFFFFFFFFFFF0000000000000000C9
:100F3000FFFFFFFFFFFFFFFF0000000000000000B9
:100F4000010203040607080900000000010203046F
:100F50004413010800000C0010000000FF00000016
:100F600000000000A0860100400D0300801A06006A
:100F700000350C0040420F0080841E0000093D0037
:100F800000127A000024F40000366E010048E801E7
:100F9000006CDC020030014000380040003C0040A2
:100FA000B2360108AD3601087936010880360108ED
:100FB000B736010800080C15170000009D019D02BE
:100FC0009D039D04A105A206A307A408A509A60ADE
:100FD000A7000000F93601082C3701082C01000099
:100FE0000000000000000000000000002C010000D4
:100FF0007D700008EB3601082C3701082C01000039
:1010000000000000073701082C3701082C01000000
:101010000000000000000000000000002C010000A3
:101020007D700008EB3601082C3701082C01000008
:1010300000000000000000002C3701082C01000017
:10104000C14F0008153701082C3701082C0100009A
:1010500000000000D63601082C3701082C010000E2
:1010600000000000000000002C370108983A000042
:10107000895C0008000000002C3701082C010000EA
:1010800041670008000000002C370108B80B000081
:10109000356B0008000000002C370108E803000051
:1010A000696B0008000000002C370108E80300000D
:1010B000BD6B0008000000002A3701082C01000069
:1010C00009710008DD3601082C3701082C010000E9
:1010D00000000000EB3601082C3701082C0100004D
:1010E00000000000080102000103000000000000F1
:1010F00000000000000000000206000100000000E7
:10110000000000020D0000000000020000000000CE
:101110000400000002000000080000000038014048
:101120000044004000480040004C00400000000027
:10113000F6FFFF7FFFFFFFFFFFFFFF7F00000000C4
:10114000000000000000000000000000F23901086B
:101150001F260000000020000A000000000200001E
:1011600081000000233A0108EF401300000008004E
:10117000010000000010000020000000473A0108B4
:10118000EF301500000020000100000000100000FA
:10119000200000003E3A0108EF401500000020004A
:1011A0000100000000100000200000002C3A01089F
:1011B000EF40160000004000010000000010000099
:1011C00020000000353A0108EF40170000008000C1
:1011D000010000000010000020000000503A01084B
:1011E000EF401800000000010100000000100000A6
:1011F000200000005A3A0108EF40190000000002E8
:10120000010000000010000020000000AE390108BD
:10121000BF258E0000001000060000000010000036
:1012200020000000D8390108BF254100000020003F
:101230000600000000100000200000009F39010897
:101240002020160000004000010000000000010006
:10125000D800000098390108202014000000100078
:101260000100000000000100D800000089390108D9
:101270002020130000000800010000000000010011
:10128000D8000000BA3901081C30160000004000E8
:10129000010000000010000020000000C339010818
:1012A000C84017000000800001000000001000008E
:1012B00020000000E4390108C840150000002000AB
:1012C000010000000010000020000000023A0108A8
:1012D0000140150000002000010000000010000087
:1012E00020000000103A0108010215000000400033
:1012F00001000000001000002000000090390108EB
:101300003730140000001000010000000010000041
:1013100020000000A63901088C20130000000800FE
:10132000060000000010000020000000CC39010879
:10133000BF25410000002000060000000010000052
:10134000200000000000000000000000000000007D
:10135000000000000000000000000000000000008D
:1013600000000000E000180304040404B209B209FC
:10137000020802081209E208040404041803E00049
:1013800000000000E000F803FC07FC074E0E4E0EC4
:10139000FE0FFE0FEE0E1E0FFC07FC07F803E00029
:1013A000000000000000000000001803BC07FC075C
:1013B000FC07FC07F803F001E0004000000000001B
:1013C000000000000000000000004000E000F0010C
:1013D000F803FC07F803F001E00040000000000003
:1013E0000000000000000000E000F001F001F0014A
:1013F000EC06FE0FFE0FFE0F4C06E000F0010000B1
:10140000000000000000000040004000E000F0018B
:10141000F803FC07FC07FC075803E000F00100009C
:1014200000000000000000000000000000000000BC
:1014300000000000000000000000000000000000AC
:10144000000000000000000000000000000000009C
:10145000000000000000000000000000000000008C
:10146000000000000000000000000000000000007C
:10147000000000000000000000000000000000006C
:10148000000000000000000000000000000000005C
:10149000000000000000000000000000000000004C
:1014A0000000000000000000000080070006780532
:1014B000CC04860186018601CC0078000000000083
:1014C0000000000000000000E001300318061806CC
:1014D00018063003E001C000C000F003C000C000E7
:1014E00000000000000000000000000000000000FC
:1014F00000000000000000000000000000000000EC
:101500000000000030007000D00090013003700235
:10151000D00290031C031E021E028C03C003C003F2
:1015200080010000000040004000E404F8031803BC
:101530000C060E0E0C061803F803E40440004000ED
:1015400000000000000000000800180038007800CB
:10155000F800F801F80078003800180008000000D2
:10156000000000000000000000018001C001E00157
:10157000F001F801F001E001C0018001000100006C
:101580000000000000004000E000F001F80340000F
:101590004000400040004000F803F001E00040003F
:1015A000000000000000980198019801980198013E
:1015B00098019801980198019801000098019801FC
:1015C000000000000000F8076C0366036603660372
:1015D0006C037803600360036003600360036003CF
:1015E000000000000000F8010C030C000C00F801E2
:1015F0000C030C03F801000300030C03F8010000C6
:1016000000000000000000000000000000000000DA
:1016100000000000000000000000F807F807F807CD
:10162000000000004000E000F001F803400040002E
:101630004000400040004000F803F001E00040009E
:10164000F803000000004000E000F001F803400053
:10165000400040004000400040004000400040008A
:10166000000000000000400040004000400040003A
:101670004000400040004000F803F001E00040005E
:101680000000000000000000000000008000800159
:101690008003FC0780038001800000000000000040
:1016A00000000000000000000000000020003000EA
:1016B0003800FC0738003000200000000000000067
:1016C000000000000000000000000000000000001A
:1016D0000000000002000200020002000200FE07FB
:1016E00000000000000000000000000010011803CE
:1016F0001C07FE0F1C07180310010000000000006B
:101700000000000000000000000000000000400099
:10171000E000F001F803FC07FE0F000000000000ED
:101720000000000000000000000000000000FE0FAC
:10173000FC07F803F001E00040000000000000009A
:101740000000000000000000000000000000000099
:101750000000000000000000000000000000000089
:101760000000000060006000F000F000F000F000F9
:10177000F000600060006000000000006000600099
:1017800000000000000000009801980198019801F5
:101790000000000000000000000000000000000049
:1017A000000000000000600660066006FC0F3003C9
:1017B000300398019801FE03CC00CC00CC0000005F
:1017C0000000000060006000F801FC036C006C0089
:1017D000FC01F80360036003FC03F8016000600093
:1017E000000000000000000000081C0C1C0E1C077C
:1017F0008003C001E000700038001C070E070607D8
:10180000000000000000E000B00198019801D8003D
:10181000700078007C00CC06CC038C01DC037806D9
:101820000000000070007000700060006000300078
:1018300000000000000000000000000000000000A8
:1018400000000000C0016000700030003800380067
:101850003800380038003800300070006000C001E7
:101860000000000038006000E000C000C001C001BE
:10187000C001C001C001C001C000E000600038002C
:10188000000000000000000000006C036C03F80181
:10189000F000FC03F000F8016C036C030000000092
:1018A0000000000000000000000000006000600078
:1018B0006000FC03FC0360006000600000000000AA
:1018C0000000000000000000000000000000000018
:1018D00000000000000000000000700070007000B8
:1018E0006000300000000000000000000000000068
:1018F0000000FC03FC0300000000000000000000EA
:1019000000000000000000000000000000000000D7
:101910000000000000000000000070007000700077
:101920000000000000000008000C000E000780030B
:10193000C001E000700038001C000E00060000002E
:1019400000000000F001FC070C06060E060F860DD5
:10195000C60C660C360C1E0C0E0C0C06FC07F001B7
:1019600000000000C000E000F800F800C000C00067
:10197000C000C000C000C000C000C000F807F807E9
:1019800000000000F803FC070E0E060C060E000710
:101990008003C001E000700038001C00FE0FFE0F45
:1019A00000000000F803FC070E0E060C000C000EF1
:1019B000F007F0030006000C060C0E0EFC07F803FF
:1019C000000000008003C003E003700338031C0321
:1019D0000E030603FE0FFE0F0003000300030003C7
:1019E00000000000FE0FFE0F060006000600FE03CA
:1019F000FC07000E000C000C060C0E0EFC07F80392
:101A000000000000C003E003700038001C000C0060
:101A1000FE03FE070E0E060C060C0E0EFC07F80366
:101A200000000000FE0FFE0F00060006000300038A
:101A300080018001C000C000600060003000300004
:101A400000000000F001F8031C070C060C061C0740
:101A5000F803FC070E0E060C060C0E0EFC07F8032E
:101A600000000000F803FC070E0E060C060C0E0E1C
:101A7000FC0FF80F000600078003C001F800780093
:101A80000000000000000000000000007000700076
:101A90007000000000000000700070007000000086
:101AA0000000000000000000000000007000700056
:101AB0007000000000000000700070007000600006
:101AC0006000300000038003C001E00070003800B7
:101AD0001C001C0038007000E000C00180030003FF
:101AE0000000000000000000000000000000FC07F3
:101AF000FC0700000000FC07FC07000000000000DD
:101B0000000000000C001C0038007000E000C00164
:101B100080038003C001E000700038001C000C004E
:101B200000000000F801FC030E070606060780030C
:101B3000C001E00060006000600000006000600024
:101B400000000000F803FC070C06E60DF60DB60DCC
:101B5000B60DB60DB60DF607E6030E00FC03F00356
:101B60000000000060006000F000F000F00098014C
:101B7000980198010C03FC03FC0306060606060602
:101B800000000000FE00FE01860306030603860334
:101B9000FE01FE030607060606060607FE03FE0113
:101BA00000000000F001F8031C070C060600060008
:101BB00006000600060006000C061C07F803F001EC
:101BC00000000000FE00FE0186030603060606066E
:101BD000060606060606060606038603FE01FE0046
:101BE00000000000FE07FE070600060006000600D3
:101BF000FE01FE010600060006000600FE07FE07C5
