:020000040800F2
:1000000048560020A10100085520000841200008A2
:1000100051200008210B0008892C00080000000076
:100020000000000000000000000000000D22000899
:10003000230B000800000000572000080F220008D2
:10004000BB010008BB010008BB010008BB010008A0
:10005000BB010008BB010008BB010008BB01000890
:10006000BB010008BB010008BB010008BB01000880
:10007000BB010008BB010008BB010008BB01000870
:10008000BB010008BB010008BB010008BB01000860
:10009000BB010008BB010008BB010008BB01000850
:1000A000BB010008BB010008BB010008BB01000840
:1000B000BB0100080000000000000000BB010008B8
:1000C000BB010008BB010008BB010008BB01000820
:1000D000BB0100087B2C0008BB010008BB01000825
:1000E000BB010008BB010008000000000000000088
:1000F0000000000000000000000000000000000000
:1001000000000000BB01000800000000BB01000867
:100110000000000000000000BB010008BB01000857
:10012000BB010008BB010008BB010008BB010008BF
:10013000BB010008000000000000000000000000FB
:10014000BB010008BB010008BB0100080000000063
:10015000BB010008BB01000843200008BB010008E8
:10016000BB010008BB010008BB0100080000000043
:10017000BB010008BB0100080000000000000000F7
:10018000BB010008BB010008BB010008DFF80CD070
:1001900000F02EFC004800471D9000084856002043
:1001A0000648804706480047FEE7FEE7FEE7FEE711
:1001B000FEE7FEE7FEE7FEE7FEE7FEE79F22000818
:1001C0008D0100082DE9F05F0546002092469B4610
:1001D00088460646814640241BE02846414647465D
:1001E000224600F081FA53465A46C01A914110D374
:1001F00011461846224600F068FA2D1A67EB0108EE
:100200004F4622460120002100F05FFA17EB00095B
:100210004E41201EA4F10104DFDC484631462A4647
:10022000434600F000B830BCBDE8C09F2DE9F04166
:100230000024061B254671F1000605DA012400277B
:10024000D0EB070067EB0101161E73F1000605DA1B
:100250000027D2EB0702012567EB0303FFF7B2FF8C
:1002600086460E4617469C46AC4204D00025D0EB8D
:10027000050E65EB010624B10020D2EB000760EB10
:10028000030C704631463A466346BDE8F08140EAC9
:1002900001039B0703D009E008C9121F08C0042A04
:1002A000FAD203E011F8013B00F8013B521EF9D2EB
:1002B0007047D2B201E000F8012B491EFBD2704713
:1002C0000022F6E710B513460A4604461946FFF722
:1002D000F0FF204610BD421C10F8011B0029FBD185
:1002E000801A7047F0B480EA0102D40F4200B2EBEA
:1002F000410F02D20246084611464A0042D0C30DC1
:10030000DDB2C1F3C752AD1A202D35DAC1F31601A3
:1003100041F4000204B15242C5F1200602FA06F18E
:100320002A411044B3EBD05F23D0C4B1012DA0EB20
:10033000C35009DCF0BC4FF0004202EAC352DBB20A
:1003400000F5000000F0E9B9400000F1807000EB1A
:10035000C350A0F1807040EAD170490009E049081B
:1003600041EAC071A0EBC35000F50000400800EB6B
:10037000C350F0BC00F0C8B96142012202EB410158
:10038000001BF6E7F0BC704781F00041AAE780F05F
:100390000040A7E780EA010210B502F000434000E8
:1003A00022D04A001FD0010E01EB1261C0F35600AB
:1003B000C2F3560240F4000042F40002A0FB022007
:1003C00000047F39140400D0401C50EA124001D4CC
:1003D0004000491EC2B20C0604EBD010401C40087D
:1003E000802A02D003E0002010BD20F00100002987
:1003F00000DA0020184310BD2DE9FE4F81EA030406
:1004000004F0004421F0004100944FF0000B23F071
:10041000004350EA01045ED052EA03045BD0C3F308
:100420000A54C1F30A552C44A4F2F3340194A0FBFE
:100430000254C1F3130141F48011C3F3130343F4D5
:10044000801301FB024400FB034E840A970A44EA2E
:10045000815447EA8357A4FB076802958D0A05FB80
:1004600007854FEA932C04FB0C542705029D4FEAA5
:10047000065847EA1637B5EB08056EEB070C870EF2
:10048000920E47EA811742EA8312A7FB0201B6EBFC
:100490000B0164EB00042B0D43EA0C335E1844EBB4
:1004A0001C50DA465146E7FB0201C5F313044FEA3C
:1004B0000B3343EA14534FEA0432019C43EA060328
:1004C000A4F10C040294009CCDE900B400F062F9A0
:1004D00003B000F003B800200146F9E730BCBDE8E6
:1004E000C08F2DE9F04D81EA030404F0004B21F0A8
:1004F000004514464FF0000A23F0004150EA05027F
:1005000020D054EA01021DD0C5F30A570246C5F3B4
:100510001303C1F31300C1F30A5640F4801543F4EA
:100520008013A7EB0608101BD64608F2FD3873EBC4
:10053000050002D308F1010801E092185B41B8F10F
:10054000000F03DA00200146BDE8F08D00204FF4D3
:100550008011064684460EE0171B73EB050705D392
:10056000121B63EB050306434CEA010C49084FEAF2
:10057000300092185B4150EA0107EDD152EA0300C6
:1005800012D082EA040083EA0501084305D0101B5B
:10059000AB4106D20122002306E000224FF00043C7
:1005A00002E06FF0010253101AEB06004CEB085109
:1005B00010EB0A0041EB0B01BDE8F04D00F0DBB899
:1005C000002801DBC0F10040002901DBC1F100413E
:1005D000814201D20120704700207047C10F80EA9C
:1005E000E0700844CA079623002100F096B89623CD
:1005F0000022114600F091B80EB540F2334102914D
:100600000021CDE900110A460B4600F0C3F803B003
:1006100000BD00F0004220F00040C10DC0F3160004
:1006200040F400007F2901DA00207047962903DC9E
:10063000C1F19601C84001E096398840002AF4D003
:100640004042704720F00040C10DC0F3160040F456
:1006500000007F2901DA00207047962903DCC1F1F0
:100660009601C8407047963988407047C1F30A52D6
:1006700010B5C1F3130140F2FF3341F480119A42E7
:1006800001DA002010BD40F233439A42A2F2334215
:1006900003DC524200F028F810BD904010BD30B588
:1006A0000B46014600202022012409E021FA02F530
:1006B0009D4205D303FA02F5491B04FA02F52844CA
:1006C000151EA2F10102F1DC30BD202A04DB203A24
:1006D00000FA02F1002070479140C2F1200320FA95
:1006E00003F3194390407047202A04DB203A21FA93
:1006F00002F00021704721FA02F3D040C2F120023B
:1007000091400843194670470029A8BF7047401C14
:10071000490008BF20F00100704710B4B0FA80FC17
:1007200000FA0CF050EA010404BF10BC704749B154
:10073000CCF1200421FA04F411FA0CF118BF0121C4
:1007400021430843A3EB0C01CB1D4FEA00614FEAA4
:10075000102042BF002010BC704700EBC350104473
:100760000029A4BF10BC7047401C490008BF20F0FE
:10077000010010BC704710B5141E73F1000408DAB4
:10078000401C41F1000192185B411A4301D120F055
:10079000010010BD2DE9F04D92469B4611B1B1FA12
:1007A00081F202E0B0FA80F220329046FFF78DFF2E
:1007B00004460F4640EA0A0041EA0B0153465A46F6
:1007C000084313D0114653EA010019D0C8F1400282
:1007D0005046FFF789FF05460E46504659464246A9
:1007E000FFF773FF084305D0012004E02046394697
:1007F000BDE8F08D0020054346EAE0762C43374300
:100800000A986305E40AA0EB08000022FD0A44EA06
:1008100047540A3002D500200146E9E701051019C6
:100820006941DDE9084500196941BDE8F04DA2E7DD
:100830002DE9FE4F804681EA0300C00F0C46009070
:1008400021F0004123F00045B8EB0200A94105D298
:100850004046214690461C460B46024623F0004087
:10086000104347D0270DC7F30A00C3F30A51029083
:10087000401A019040286BDAC3F3130040F4801B48
:100880000098924620B10023D2EB030A63EB0B0BD6
:1008900001985946C0F140025046FFF716FF064640
:1008A0000D4650465946019A00F0B4F810EB080086
:1008B0006141002487EA115284EAE7731A4340D069
:1008C000009A62B3019A012A4FEA075215DC001B15
:1008D00061EB02014FF0004202EA0752CDE900420B
:1008E000001C41F5801132462B46FFF753FF03B041
:1008F00000F045B840462146F9E7001B61EB0201D4
:10090000001C41F5801300185B412018A2F5001768
:1009100047EB030140EAD570B6196D4111E06D084F
:100920004FEA360645EAC0754FEA0752001B61EBF5
:100930000201001C41F5801149084FEA30000019FE
:10094000514132462B4603B000F01CB8FFF713BFED
:100950000098012240000023D0EB020263EBE07319
:10096000009821464FEAE074B8EB000061EB040107
:10097000E9E783F000435BE781F0004158E730BCD2
:10098000BDE8C08F30BCBDE8C04FFFF7DFBFC1F38B
:100990000A52C1F3130140F2FF3341F480119A422D
:1009A00002DA00200146704740F233439A42A2F235
:1009B000334202DC5242FFF797BEFFF786BE0000CB
:1009C00030B5041E71F1000404DB4FF000444042D6
:1009D00064EB0101141E73F1000405DB1C464FF0AB
:1009E0000043524263EB0403994208BF904230BD7A
:1009F000064C074D06E0E06840F0010394E807006C
:100A000098471034AC42F6D3FFF7C4FBB4C60008D5
:100A1000D4C60008202A06DBCB17203A41FA02F0A0
:100A200043EAE07306E041FA02F3D040C2F120024B
:100A3000914008431946704730B58C1810F8012BC7
:100A400012F00F0301D110F8013B120906D110F882
:100A5000012B03E010F8015B01F8015B5B1EF9D18B
:100A600001E001F8013B521EFBD1A142E6D3002078
:100A700030BD000070B5E8B10C4619B315464AB355
:100A8000064620461821FFF71BFC30690421C4E903
:100A900002060020A0702180318A60822182718A42
:100AA000326AA1822878801A4843E08001212046DA
:100AB000A17570BD4CF2E35115A0C0F60001CE2225
:100AC00002F074FE4CF2E3510BA0C0F60001CF22FD
:100AD00002F06CFE4CF2E35102A0C0F60001D022FD
:100AE00002F064FE4E554C4C20213D20706368435B
:100AF000686172436F6465004E554C4C20213D2067
:100B0000707444657363726970746F7200000000E2
:100B10004E554C4C20213D207074466F6E74000081
:100B2000FEE7704780B289B292B29BB206F0FCBE7B
:100B3000EFF3108072B600BFFEE7014690F8250083
:100B4000022815D10868D1E910C3026822F00E020C
:100B50000260026822F00102026003F01C00012220
:100B600002FA00F0CCF80400002081F8252002E011
:100B70000420C8630120002281F82420704780B53A
:100B800090F82510022920D10168D0F838E0D0E98A
:100B900010C30A68BEF1000F22F00E020A600A6854
:100BA00022F001020A6003F01C014FF0010202FA78
:100BB00001F1CCF804104FF0000180F8252080F8F6
:100BC000241005D0F047002102E00421C163012177
:100BD000084680BD2DE9F04F84B00C680190002CD0
:100BE00000F0E180019841F2000600F13842C4F6BD
:100BF00000068E464FEAB2270721B04208BF042103
:100C0000042F4FF000054FF001074FF000064FF0A2
:100C1000000838BF4FEAB2210091CDF808E000BFCC
:100C2000A7F1010A012000FA0AF214EA020900F011
:100C3000AC80DEF804C00CF0030BABF10104012C16
:100C400016D80198744681680323E468B340994339
:100C5000B4402143816041684FEA480E9143CCF390
:100C6000001202FA0AF20446D843114361600BE015
:100C70000321B140019CC843BBF1030FB64603D129
:100C8000B6464FF0030B23E0E168029B01409A68EF
:100C9000BBF1020F02FA0EF241EA0201E16017D144
:100CA0006FF0030101EA5A01214405F01C040F22F0
:100CB000D1F820C002FA04FB1A692CEA0B0CA240FE
:100CC00042EA0C02019C0A62D3F804C00CF0030B48
:100CD00021680BFA0EF2014011432160DDF808E0B3
:100CE0001CF4403F51D041F26000C4F202000168A0
:100CF00040F2004C41F0010101600168C4F2010CB6
:100D000001F00101039103992AF003014FF6084A0B
:100D10006144CFF6FF7A05F00C030F2051F80A204A
:100D200000FA03F40098A24300FA03F31A4341F8CF
:100D30000A20DCF80810DEF8042041EA090340F23A
:100D40000C40D40258BF21EA0903CCF80830C4F2A1
:100D500001000168940241EA090358BF21EA09032E
:100D60000360DCF80410940341EA090358BF21EA48
:100D70000903CCF80430DCF80010D20341EA09037F
:100D800058BF21EA0903CCF80030DEF8004008F132
:100D9000010834FA07F106F1020607F1010705F12F
:100DA00004057FF43DAF04B000F000B830BCBDE8EE
:100DB000C08F1823002A08BF2823C150704744F26F
:100DC0004460C2F200000068704740F2D01044F264
:100DD0004461C2F20000C2F2000100780A681044C7
:100DE0000860704780B5032000F087F8002000F00D
:100DF00007F808B1012080BD00F02CF8002080BD6C
:100E0000B0B540F2D011C2F200010978F9B1044640
:100E100040F21400C2F200004FF47A720068B2FB94
:100E2000F1F1B0FBF1F000F0E0FE0F2C4FF0010506
:100E30000ED868B94FF0FF3021460022002500F09F
:100E400031F840F2D410C2F20000046000E0012545
:100E50002846B0BD82B041F25800C4F20200816859
:100E600041F001018160816801F001010191019966
:100E7000016841F080510160006800F080500090EE
:100E8000009802B0704700280BD400F01F01012227
:100E900002FA01F14EF200124009CEF2000242F8CD
:100EA0002010704710B54EF60C5CCEF2000CDCF84A
:100EB0000030C3F3022E8EF00704042C28BF042454
:100EC000BEF103034FF0FF3E0EFA04F438BF0023D7
:100ED000A14399400EFA03F39A4300F00F03043B39
:100EE0001143634409010C3300F16042B0F1FF3F4C
:100EF000C8BF02F56443197010BD4EF60C51CEF216
:100F000000010A684FF6FF031A4060F30A2242F01C
:100F1000806040F0FD7008607047000047F20001FB
:100F2000C4F200010A68B0F5007F02F4C06025D168
:100F3000B0F5007F2AD00868012262F34A200860D9
:100F400040F21400C2F200000068322358434DF60C
:100F50008363C4F21B33A0FB030302EB934000BF87
:100F60004B69421E824203D213F480601046F7D1CF
:100F70004869400544BF0320704707E0B0F5806F23
:100F800004D00868022262F34A20086000207047FB
:100F900047F20000C4F20000006800F4C06070472F
:100FA0002DE9F04381B00446407841F20C07000778
:100FB000C4F202071BD5606C68B1B0F5400F11D0C8
:100FC000B0F5000F40F00E81386840F48030386092
:100FD0004FF4000006E0201D002101F03DF881469D
:100FE00038B9606CF96F21F440010843F8674FF09D
:100FF0000009A078800757D5F86CC0000BD4F86CB6
:101000004FF0010840F08050F864F86C00F0805018
:101010000090009801E04FF0000847F20005C4F28C
:101020000005286840F480702860FFF7C8FE064677
:101030002868C00507D4FFF7C2FE801B0228F7D935
:101040004FF0030929E0B9F1000F26D1D7F8840049
:1010500010F4407017D0A16D884211D0D7F88400E9
:10106000D7F8841020F4407041F48031C7F8841020
:10107000D7F8841021F48031C7F88410C7F88400B1
:10108000C00740F0B280D7F88400A16D20F4407012
:1010900008434FF00009C7F88400B8F1000F03D0EF
:1010A000F86C20F08050F8642168C80705D0F86F0C
:1010B000226A20F003001043F867880705D5F86F0F
:1010C000626A20F00C001043F867480705D5F86FF6
:1010D000A26A20F030001043F867880605D5F86F43
:1010E000E26A20F440601043F867880505D5F86F80
:1010F000E26B20F440201043F867480505D5F86FEF
:10110000226C20F440101043F867480605D5F86FAC
:10111000226B20F440501043F867080605D5F86F9D
:10112000626B20F440401043F867C80505D5F86F9E
:10113000A26B20F440301043F867080318D5FA6F0B
:10114000A06C22F040620243B0F1806FFA6707D0D2
:10115000B0F1006F0CD1386840F48010386007E0BF
:10116000201D012100F078FF2168002818BF81466A
:10117000480318D5FA6FE06C22F040620243B0F1E8
:10118000806FFA6707D0B0F1006F0CD1386840F477
:101190008010386007E0201D012100F05DFF21680C
:1011A000002818BF8146480410D5F86F226D20F042
:1011B00040501043B2F1805FF86707D1201D022133
:1011C00000F04AFF2168002818BF8146080405D5B1
:1011D000F86F616D20F080400843F867484601B021
:1011E000BDE8F0834FF0010903E7FFF7E8FD06468D
:1011F00041F288354FF00309D7F8840080073FF5A6
:1012000042AFFFF7DCFD801BA842F5D945E700009F
:101210002DE9F04381B0002800F0A48042F20008DC
:10122000C4F202080446D8F800000D4600F007009A
:1012300088420DD2D8F8000020F007002843C8F8F3
:101240000000D8F8000000F00700A84240F08A80B3
:10125000206841F20809C107C4F2020932D060686F
:10126000022806D0032809D159F8081C89010DD499
:1012700078E059F8081C890308D473E059F8081C71
:1012800010B1490502D46DE089076BD5D9F800107B
:1012900021F003010843C9F80000FFF790FD06465E
:1012A00041F28837D9F80000616800F00C00B0EB1B
:1012B000810F06D0FFF783FD801BB842F2D90320CF
:1012C00051E02068810707D5D9F80010A26821F005
:1012D000F0011143C9F80010D8F8001001F007011F
:1012E000A9420CD9D8F8001021F007012943C8F809
:1012F0000010D8F8001001F00701A94232D14107CF
:1013000007D5D9F80010E26821F4E0611143C9F86B
:101310000010000708D5D9F80000216920F46050BA
:1013200040EAC100C9F8000000F04AF8D9F80010FE
:101330004AF61822C1F30311C0F60002515C40F2D4
:10134000140201F01F0120FA01F140F2D410C2F2A0
:1013500000000068C2F20002116001B0BDE8F04375
:10136000FFF74EBD012001B0BDE8F08340F214004C
:1013700041F20801C2F20000C4F2020100680968EB
:101380004AF62822C1F30221C0F60002515C01F0A6
:101390001F01C840704740F2140041F20801C2F238
:1013A0000000C4F20201006809684AF62822C1F36D
:1013B000C221C0F60002515C01F01F01C840704715
:1013C00041F20001C4F20201886810F00C02C86802
:1013D00005D00C2A27D100F00300012823D108688A
:1013E000000703D4D1F89400000A01E0086800095E
:1013F0004AF6486300F00F00C0F6000353F82030AF
:10140000002A184618BF00200C2A18BF7047C86869
:1014100000F0030002280FD0032804BF41F200238C
:10142000C0F27A030CE0042A1DD0082A20D141F230
:101430000020C0F27A00704742F20043C0F2F40389
:10144000C868C0F30210CA680130C2F30622C96836
:101450005A43B2FBF0F0C1F34161022202EB4101B9
:10146000B0FBF1F0704742F20040C0F2F400704768
:1014700000200023C8E700002DE9F04381B00028D8
:1014800000F05E8241F200060446C4F20206B06833
:10149000F168227800F00C08D00601F0030728D488
:1014A0002078C0075BD0B8F1080F51D0B8F10C0F0D
:1014B00008BF032F4CD06568B5F5803F07D0306872
:1014C000B5F5A02F40F0798240F48020306030687C
:1014D00040F480303060FFF772FC054630688003CE
:1014E0003DD4FFF76CFC401B64284FF00300F5D996
:1014F00027E2B8F1000F1BD0B8F10C0F08BF012F85
:1015000016D0A1693068002900F09F8140F00100E9
:101510003060FFF754FC05463068800700F1A88171
:10152000FFF74DFC401B02284FF00300F4D908E2FE
:101530003068800703D5A069002800F00182206A86
:101540003168090700F1DF80D6F894100909DBE063
:101550003068800303D56068002800F0F1812078AE
:1015600080072CD5B8F1040F1BD0B8F10C0F08BFC1
:10157000022F16D0E1683068002900F0E58140F4C0
:1015800080703060FFF71BFC054600BF30684005E7
:101590000ED4FFF714FC401B02284FF00300F5D9CE
:1015A000CFE13068400503D5E068002800F0C8812D
:1015B0007068216920F0F85040EA0160706020787E
:1015C000000760D42078400774D42078800600F1AA
:1015D0008080A06A002800F04682022840F05A81EC
:1015E000F068E16A00F003028A4240F07781226BE2
:1015F0006FF00F0300F0700103EB0212914240F014
:101600006D81616B00F4FE42B2EB012F40F0668108
:10161000A16B00F07842B2EBC16F40F05F81E26BEA
:101620000023CFF6E07303EA025200F4C001A2F5F2
:101630000012914240F05281216C4FF07E4202EA4A
:10164000016100F0C06001F17E41884240F04681B6
:101650003068800100F10782306840F080703060AF
:10166000F06840F08070F060FFF7A9FB0446306836
:10167000800100F1F881FFF7A2FB001B02284FF068
:101680000300F4D95DE16169D6F89400002900F007
:10169000C78040F00100C6F89400FFF790FB0546B4
:1016A000D6F8940080078DD4FFF789FB401B0228F1
:1016B000F6D9B3E0B06DC00074D4B06D4FF001093D
:1016C00040F08050B065B06D00F080500090009800
:1016D0006AE0616AD6F89800002900F0178140F0AE
:1016E0000100C6F89800FFF76AFB0546D6F8980097
:1016F00080073FF56EAFFFF762FB401B02284FF0FB
:101700000300F3D91DE1316801F0F001884216D9D8
:1017100000F037FD002840F01381306840F00800E9
:1017200030603068D4E9072120F0F00008433060D1
:10173000706820F47F4040EA0220706014E0316855
:10174000B8F1000F41F008013160316821F0F0017B
:1017500041EA000131607168E26921F47F4141EAA8
:101760000221716000F0E780FFF72AFEB1684AF6B7
:101770001822C1F30311C0F60002515C40F21402BA
:1017800001F01F0120FA01F140F2D410C2F2000072
:101790000068C2F200021160FFF732FB002840F03F
:1017A000D0807DE64FF0000947F20007C4F2000741
:1017B0003868C00511D4386840F480703860FFF78D
:1017C000FEFA05463868C00507D4FFF7F8FA401B53
:1017D00002284FF00300F5D9B3E0A568012D08D029
:1017E000D6F89000052D40F0C18040F00400C6F806
:1017F0009000D6F8900040F00100C6F89000FFF786
:10180000DEFA054641F28837D6F89000800700F1ED
:10181000CB80FFF7D4FA401BB842F5D9032090E003
:1018200020F00100C6F89400FFF7C9FA054600BF92
:10183000D6F8940080077FF5C5AEFFF7C0FA401BCD
:1018400002284FF00300F3D97BE020F00100306064
:10185000FFF7B5FA054600BF306880077FF520AE78
:10186000FFF7ADFA401B02284FF00300F4D968E0FF
:10187000306840F0080030603068D4E9072120F07B
:10188000F00008433060706820F47F4040EA022096
:10189000706005E6B8F10C0F52D0306820F080700F
:1018A00030603068000103D4F06820F00300F0607D
:1018B000F0684FF6FF71CFF6EE610840F060FFF779
:1018C0007EFA04463068800140F1CD80FFF777FA58
:1018D000001B03284FF00300F4D332E0B8F10C0FE3
:1018E0002ED0306840012BD4306820F080703060FA
:1018F000FFF765FA05463068800177D5FFF75FFA94
:10190000401B02284FF00300F5D91AE020F0010037
:10191000C6F89800FFF753FA054600BFD6F89800BE
:1019200080077FF556AEFFF74AFA401B02284FF0BA
:101930000300F3D905E000F024FC00283FF414AFC5
:10194000012001B0BDE8F08320F480703060FFF723
:1019500036FA0546306840057FF531AEFFF72FFABD
:10196000401B02284FF00300F4D9EAE720F0010001
:10197000C6F89000D6F8900020F00400C6F8900059
:10198000FFF71DFA002D05467FF43CAF41F2883782
:10199000D6F89000800707D5FFF711FA401BB84230
:1019A0004FF00300F4D9CCE7B9F1000F3FF40DAECE
:1019B000B06D20F08050B06507E620F480303060D4
:1019C000306820F480203060FFF7F9F9002D0546DB
:1019D0007FF484AD06E0FFF7F2F9401B64284FF076
:1019E0000300AED830688003F5D4B8E5F06848F25B
:1019F0008C01C0F29D1104F12C0700EA010C8ECF7E
:101A00006FF00F00D4E90F5400EB02100022CFF664
:101A1000E07241EA0C0102EA05520843A2F5001205
:101A20004FF07E4540EA032005EA0465104305F1C6
:101A30007E4540EAC7602843F060306840F080701F
:101A40003060F06840F08070F060FFF7B8F904464D
:101A50003068800107D4FFF7B2F9001B02284FF06D
:101A60000300F5D96DE700206BE740B1B0B504463F
:101A7000406A30B10020206104F1140007E0012029
:101A800070476068B0F5827F03D004F11C0000212C
:101A900001600025A56294F85D0020B9204684F815
:101AA0005C5000F04EF8022084F85D002068D4F805
:101AB0000CE00268BEF5E06F22F0400202604EF4D6
:101AC000006298BF0125B2F5706F1CBF0023A362AE
:101AD0004FEA053CD4E90135D4E9042103F48273CB
:101AE00005F404452B4402F002021A44A36901F0F4
:101AF0000101E569114403F40072114405F0380254
:101B0000256A114405F08002A56A114405F40052CB
:101B1000114301600421626A0EF4706501EA134109
:101B2000636B45EA0C0502F01002294303F0080339
:101B300011431943416000200121206684F85D10A3
:101B4000B0BD2DE9F04387B0044602A81421FEF78A
:101B5000B7FB206843F60001C4F20001884241D17E
:101B600041F24C00C4F20200C16840F2004441F46A
:101B70008041C160C168C4F6000401F48041019154
:101B80000199016802AD41F00401016001684FF064
:101B9000020801F004010191019901684FF0000968
:101BA00041F0020101600068032600F0020001908C
:101BB00001980C200290052704F580602946CDF895
:101BC0000C80CDF8109005960697FFF703F84FF4B8
:101BD000005002A981E8010320462946CDE90567A6
:101BE000FEF7F8FF07B0BDE8F083411E0020B0EB20
:101BF000116F1CBF012070474EF21002CEF200029E
:101C000051604EF62351CEF20001F0230B700721F4
:101C100090601160704770477047704770B50168F9
:101C20000446C8690A6840F62F03D1F808E003406B
:101C3000202B02F0200308D13BB1616E002900F097
:101C400035812046BDE87040084740F60F05284220
:101C50000BD040F220150EF0010CC0F200452A42D4
:101C60008CF001064ED1002E4CD0236E0240D606D9
:101C700039D5012B37D1102008628868400600F161
:101C8000B280B4F85800B4F85A20B4F85A30002B97
:101C900000F00C81801A020400F0088151E8001F56
:101CA000226821F4907142E800130BB12168F5E736
:101CB000216851E8021F226821F0010142E8021365
:101CC000002BF5D12021E16700212166616600BF6C
:101CD000216851E8001F226821F0100142E800133A
:101CE000002BF5D1C4E0C00240F1C8801EF4800092
:101CF00000F0C4804FF4801220460A62BDE87040B4
:101D0000FFF78ABFC50718BF12F4807507D00125F9
:101D10000D62D4F8805045F00105C4F8805000F001
:101D200002054FF0010E8EEA5505354307D1022515
:101D30000D62D4F8805045F00405C4F8805000F0DE
:101D400004058EEA95052E4307D104260E62D4F8C9
:101D5000806046F00206C4F8806053EA0C0318BFA6
:101D60000123060708D53BB108230B62D4F8803065
:101D700043F00803C4F8803003050BD512F08063EC
:101D800008D04FF400630B62D4F8803043F0200396
:101D9000C4F88030D4F88030002B00F087801040E9
:101DA000800604D5626E12B1204690472168D4F8AF
:101DB0008000896800F0280001F0400140186FD0D1
:101DC000204600F017FB20688168490640F17D80BD
:101DD00050E8020F216820F0400041E80202002A8A
:101DE00065D02068F4E7206F026853689DB2002D2B
:101DF0005CD0B4F85800854258D2A4F85A30126822
:101E0000920632D451E8000F216820F4807041E836
:101E100000021AB1206850E8000FF5E7206850E88A
:101E2000020F216820F0010041E80202002AF5D1EA
:101E3000206850E8020F216820F0400041E80202CB
:101E4000002AF5D12020E06700202066206850E8B5
:101E5000000F216820F0100041E80002002AF5D1AF
:101E6000206FFEF76AFEB4F85800B4F85A10401A12
:101E700081B22046BDE87040FFF7CDBE10060DD4FC
:101E8000500613D551E8000F216820F0400041E8CA
:101E90000002FAB1206850E8000FF5E7A16ECDE628
:101EA0002046FFF7BAFE0020C4F8800070BD206F06
:101EB00058B142F2E531C0F600018163FEF75FFEE2
:101EC0000028F3D0206F816BBCE62046BDE870404F
:101ED000FFF7A3BE20200021A0672046A166BDE831
:101EE000704000F0ACB810B5A0B10446806F28B9BE
:101EF000002084F87400204600F025F82420A06714
:101F00002068016821F001010160204600F09AFA82
:101F1000012801D1012010BD606A10B1204600F0F7
:101F2000C7F92168486820F490404860886820F02C
:101F30002A008860086840F0010220460A60BDE877
:101F4000104000F01BBA10B59EB0044619A8142129
:101F5000FEF7B6F902A85C21FEF7B2F9206843F655
:101F60000001C4F2010188422ED048F20001C4F2FF
:101F70000001884261D12020029000200D9002A82B
:101F8000FFF70EF808B1FEF7D3FD41F24C00C4F2A2
:101F900002000169462441F001010161016901F07B
:101FA000010101910199016841F00401016000689B
:101FB000082100F00400019001980320199040F6D8
:101FC0000000C4F6000026E00120029000200A90E4
:101FD00002A8FEF7E5FF08B1FEF7AAFD41F24C00AA
:101FE000C4F202004169252441F480414161416904
:101FF00001F4804101910199016841F00101016002
:102000000068072100F00100019001984FF4C060C2
:1020100019904FF0904002221A9200221B92032244
:10202000CDE91C2119A9FEF7D5FD20460221002289
:10203000FEF738FF2046FEF726FF1EB010BD7047A2
:10204000FEE740F2CC30C2F20000FFF7E7BD00002F
:10205000FEE70000FEE77047F0B581B041F20007EF
:10206000C4F20207FA680D469107044612D0F868D8
:10207000216800F0030088424FF0010040F07F80AB
:1020800000297CD0F868C0F30210616801308842F2
:102090000AD11DE02068032808D002283ED001287C
:1020A00002D13968890708D4012068E039688903BA
:1020B0005CBF39685FEA4131F6D5F968626821F0A2
:1020C00073016FF00F0303EB021208431043F86033
:1020D000386820F080603860FEF771FE064600BF69
:1020E0003868000105D5FEF76AFE801B0228F7D983
:1020F0003EE0BDB1386948F2FF01CFF6FF11012D76
:102100001AD101F1B461014020690023CFF6E073D8
:10211000A26803EA0050A0F5001016E039684905EE
:10212000C2D5CAE7386948F2FF01C0F2FF71014029
:10213000D4E90220C00608E0014060694FF07E4308
:10214000A26803EA006000F17E4041EA02210843F0
:102150003861386840F080603860FEF730FE054630
:102160003868000106D4FEF72AFE401B0228F7D982
:10217000032004E0A069396908433861002001B0F8
:10218000F0BDB0B582B041F25805C4F2020529682D
:102190000446C9000FD4286840F0805028602868A1
:1021A00000F0805001900198FEF7F2FE296821F0BE
:1021B0008051296001E0FEF7EBFEB0F5007F06D10B
:1021C000812C08D30120A02C88BF02200DE0802C98
:1021D00003D9032009E0002007E0A4F17000B0FA61
:1021E00080F04009802C08BF022042F20001C4F2B6
:1021F00002010A6822F0070202440A60096801F03D
:102200000701081A18BF012002B0B0BD704780B5A1
:10221000FEF7DBFDBDE8804005F084BC80B596B0DC
:1022200005A84421FEF74CF868461421FEF748F84B
:102230004FF40070FEF772FE18B1EFF3108072B623
:10224000FEE74FF4807108911021022009910121CD
:102250000590CDE90F0011910A2112910721CDE9D6
:102260001310159005A8FFF707F920B1EFF31080C0
:1022700072B600BFFEE70F200090032001900020FF
:10228000CDE90200049068460421FEF7C1FF20B1A9
:10229000EFF3108072B600BFFEE716B080BD4EF6B9
:1022A0008850CEF20000016841F47001016070476F
:1022B00080B5416ACA0708D00268D0F828C05368C0
:1022C00023F4003343EA0C0353608A0708D50268FD
:1022D000D0F82CC0536823F4803343EA0C035360D6
:1022E0004A0708D50268D0F830C0536823F4802329
:1022F00043EA0C0353600A0708D50268D0F834C0DB
:10230000536823F4004343EA0C035360CA0608D51C
:102310000268D0F838C0936823F4805343EA0C0372
:1023200093608A0608D50268D0F83CC0936823F40D
:10233000005343EA0C0393604A0614D50268D0F8B0
:1023400040C05368BCF5801F23F4801343EA0C039C
:10235000536008D1D2F804C0D0F844E02CF4C00394
:1023600043EA0E035360090658BF80BD0168806CC4
:102370004A6822F400221043486080BDB0B582B0A4
:1023800004460020C4F88000FEF719FD21680546C8
:102390000A6812070CD56FF07E4C20464FF40011EE
:1023A00000222B46CDF800C000F04CF978B9216826
:1023B000086840070DD56FF07E4C20464FF4800131
:1023C00000222B46CDF800C000F03CF908B10320F4
:1023D00006E02020A067E0670020206684F87400F3
:1023E00002B0B0BD806A0021A0F85A10A0F85210C7
:1023F000FFF713BC016851E8001F026821F49071D7
:1024000042E80013002BF5D1016851E8021F026871
:1024100021F0010142E80213002BF5D1016E0129E0
:102420000AD100BF016851E8001F026821F01001C5
:1024300042E80013002BF5D12021C167002101667D
:1024400041667047B0B505462A69D5E902130068B0
:102450000A436969D5F81CE01143026846F6F31493
:10246000CEF6FF7441EA0E0122401143016041683B
:1024700048F2000C21F4405119434160AA69C4F2AA
:10248000000C60451CBF296A0A438168102321F4AF
:1024900030611143816047F6FF71C4F20001884248
:1024A00012DC44F20041C4F2000188421BD044F621
:1024B0000001C4F2000188422AD141F28801C4F22D
:1024C000020109680B091BE0604513D043F60001C7
:1024D000C4F2010188421BD141F28801C4F2020119
:1024E0000B6854A210E041F28801C4F202010968AD
:1024F0008B0805E041F28801C4F2020109688B0AE9
:102500004BF21412C0F6000203F0030152F821301E
:10251000604542F20040C0F2F40011D0BEF5004F19
:102520001DD1082B4FF0010100F27E80DFE803F09F
:1025300005454E7C487C7C7C4C00FEF717FF41E053
:10254000082B4FF0010100F26F80DFE803F0056D0A
:102550001C6D166D6D6D1A00FEF708FF0FE0082B5D
:102560004FF0010160D8DFE803F005464F5F495F97
:102570005F5F4D00FEF7FAFE42E0FEF721FF10B963
:102580004FE04FF400406A6802EB420188424FF08E
:10259000010149D31303984246D8010E000210EB03
:1025A000520041F100010023FDF70CFE4FF6FF42FF
:1025B000A0F54071C0F20F022FE0FEF7ECFE01E043
:1025C000FEF7FEFE10B92CE04FF4004069684A089F
:1025D00002EB4000B0FBF1F04FF6EF72A0F11001FA
:1025E000914220D84FF6F0710140C0F342002A68B2
:1025F0000844D06015E0FEF7CEFE01E0FEF7E0FEF5
:1026000010B90EE04FF4004069684FF6EF7200EB2E
:102610005100B0FBF1F0A0F11001914203D82968FC
:10262000C860002100E00121002208466A66AA660F
:10263000B0BD00BF01000000040000000200000067
:10264000080000002DE9F04381B0044600681546FB
:10265000C2690E461140891BB1FA81F14909A942AC
:102660001ED1DDF82080994608F1010787B1FEF7F9
:10267000A6FBB8F1000F15D0A0EB0900404511D81A
:1026800020680168490744BFC1695FEA015121D44C
:10269000C1693140891BB1FA81F14909A942E5D0EC
:1026A000002038E0206850E8000F216820F4D07046
:1026B00041E80002002AF5D1206850E8020F2168A5
:1026C00020F0010041E80202002AF5D12020A06795
:1026D000E0671CE04FF40061016200BF50E8000FAA
:1026E000216820F4D07041E800020AB12068F5E7C3
:1026F000206850E8020F216820F0010041E8020242
:10270000002AF5D12020A067E067C4F880000020EF
:1027100084F87400032001B0BDE8F0832DE9F04F88
:1027200085B040F2C835C2F2000591462A680C46D1
:1027300092F85010DDF838C09846890706460FD544
:10274000D76C304621464A464346AA46CDF800C0DB
:10275000E346B847002877D0DAF800205546DC4633
:10276000A9EB060001B2A8EB040300EBE1301FB2B5
:1027700080EAE1300FFA80FB03EBE7304FF0FF38DF
:1027800080EAE7300029C8BF4FF0010813680FFA4C
:1027900080F9002F4FF0FF37304621466246C8BF10
:1027A0000127E24698475A46CB45CDF810B025DAC6
:1027B000B9F1010F48DB1FFA89F02946D3463B46A1
:1027C00047080025CDF80880174438B24845A4BF13
:1027D000A7EB0907464408681C449846036830B2D2
:1027E0008A4621B25A469847681C4346DDF808805D
:1027F000049A05B251464D45E6DB25E0012A23DB6C
:1028000090B229464546D446BB464FEA500A0027B7
:10281000CDF80C90CA440FFA8AF09042A4BFAAEBFC
:10282000020A5C4408682E440368884621B230B22C
:102830006246E1469847049A781CCC46DDF80C9035
:1028400007B241469742E5DB05B000F000B830BC66
:10285000BDE8C08F40F2C833C2F200031B681B689A
:102860001847022888BF704740F2C832C2F20002FF
:10287000126802EBC000C164032180F85010704759
:102880002DE9F04F81B040F2C83B8246824291462A
:102890000F46C2F2000BBCBF814692468B42B8BFC6
:1028A0001F46DBF800009846B8BF884690F85810DD
:1028B0000A9D89070AD5466D0FFA8AF039B20FFAD8
:1028C00089F20FFA88F30095B047A0B10FFA89F4A6
:1028D0000FFA88F8564600BFDBF8000039B20368EB
:1028E00030B22A469847701C06B2A642F4DD781C26
:1028F00007B24745EEDD01B000F000B830BCBDE8DE
:10290000C08F80B582B040F2C831C2F200010968C0
:1029100084468888C9880138013902B20BB2002088
:102920000021CDF800C0FFF7ABFF02B080BD80B53D
:1029300040F2C831C2F20001096890E80C50006909
:1029400001F12C0787E80C50C86380BDF0B5024642
:1029500090F90000030608605CBF0120F0BDC6B21C
:1029600070B20023B0F1FF3F4FF0000013DCC02E27
:1029700001D2FF200FE0E02E01D202200BE0F02E6A
:1029800001D2032007E0F82E01D2042003E0062044
:10299000FC2E38BF05200B6092F90030B3F1FF3FE9
:1029A0005FFA83FCC4BF81F800C0F0BDBCF1C00F6A
:1029B000C0F0B580BCF1E00F0DD2527802F0E00318
:1029C000802B40F0AC8002F03F0242EA8C120A7089
:1029D000CCF3820219E0BCF1F00F18D292F9016039
:1029E00006F0C005802D40F09A80927802F0C00574
:1029F000802D40F09480F5B202F03F0242EA851249
:102A00000A70C6F3830242EA03124A70F0BDBCF1B9
:102A1000F80F23D292F9016006F0C005802D7ED117
:102A2000D57805F0C004802C79D192F9022002F00B
:102A3000C004802C73D1D4B205F03F0545EA84155B
:102A40000D70C2F3830242EA06124A7003F00702D5
:102A5000C6F3011343EA82028A70F0BD92F9045072
:102A600092F9014092F90330BCF1FC0F5FFA85FE48
:102A700024D204F0C005802D51D192F9022002F039
:102A8000C005802D4BD103F0C005802D47D10EF03D
:102A9000C005802D43D1DDB20EF03F0646EA851613
:102AA0000E70C3F3830343EA02134B70C2F30112A7
:102AB00042EA84028A704FEA8C122FE0E4B204F0FA
:102AC000C006802E2BD192F9026006F0C007802F3D
:102AD00025D103F0C007802F21D105F0C007802F3A
:102AE0001DD192F9052002F0C007802F18BFF0BD5C
:102AF000D7B207F03F0747EA8E170F70C2F3830281
:102B000042EA05124A70C3F3011242EA86028A7051
:102B10000CF0010204F03F0343EA8212CA70F0BDD8
:102B2000844601608280C3804FF00410591FCCF8A6
:102B30002000501FACF82610ACF81E1045F65D4181
:102B4000ACF82400ACF81C0040F20110ACF84610C0
:102B50004FF6FF71ACF840000020CCF84210002185
:102B6000CCF82C00CCF83C00CCF83600CCF8320085
:102B7000CCE90400CCF818000CEBC10201310329A8
:102B8000D06482F85000F7D140F2C831C2F200019F
:102B90000120C1F800C0704740F2C8320146C2F2BD
:102BA000000201201160704740F2C831C2F20001FA
:102BB0000968A1F84400704740F2C831C2F2000130
:102BC0000968A1F84200704740F2C833C2F200031E
:102BD0001B68588199811A727047B0B540F2C835A8
:102BE000C2F20005296831B391F84800C2071CBF42
:102BF00000F0FE0081F84800D1E9040488B1A04249
:102C00000FD048618C6134B1A17D890744BF217A1E
:102C10005FEA01711BD4017A044601F09701283163
:102C2000017244B1207A810603D5204600F054FD9C
:102C3000207A000700D4B0BD204600F08BF9204672
:102C400000F0B0FC2046BDE8B04000F053B9E18987
:102C5000C28991420BD1618A428A914207D1218A6D
:102C6000028A914203D1A18A828A9142D3D020461E
:102C700000F0C2FC28684069CDE740F2B440C2F2DF
:102C80000000FEF7CBBF0000FEE700002DE9F04397
:102C900083B0164644F25452C2F200021268002A6F
:102CA00056D007461068894601211D4605F0D2FA24
:102CB00000284DD480463046B74238BF3846ADF87C
:102CC000000028460A9C88BF3E46ADF80460A9452E
:102CD00038BF4846ADF802006A4640464FF0000152
:102CE00088BF4D46ADF80650ADF8084004F0EDFB46
:102CF0000546404604F0CFFBB5F1FF3F28DCBDF8A8
:102D00000000BDF80430984222D8BDF80210BDF88A
:102D1000062000BF97B28EB2BE4212D800B209B2EE
:102D2000224600F018F8BDF80200BDF80620411C4C
:102D30008BB2BDF800009342ADF80210EED9BDF899
:102D40000430013087B29EB2B742ADF80000E1D93D
:102D500003B0BDE8F083F0B581B044F25456C2F23E
:102D600000060C463168ADF8022019B30A7C8B8945
:102D7000E743002A04BF0446D81907B29F4219DA74
:102D8000C889844216DA0868012105F063FA002830
:102D900010D405463068808900FB0471284605F090
:102DA0001BF90DF102012846022205F069FC2846B4
:102DB00004F071FB01B0F0BD2DE9F04F87B00C4677
:102DC000109907460D88501E994616468A4602B24B
:102DD00038462146234606920095FFF79FFC601C6B
:102DE000A9F10101BAF802500FFA80FB0FFA81F83D
:102DF000384659463A4643460095FFF78FFCBAF8E5
:102E000004503846494632464B46CDF8109000955E
:102E1000FFF784FCBAF80650304621463246434656
:102E200003940095FFF77AFC781CBAF80850B11E9D
:102E30000FFA80FA0AB2504659465B460592009551
:102E4000FFF76CFC1099A9F10202A01C4C890FFA43
:102E500082F901B2504652464B4602910094FFF768
:102E60005DFC1098069D8489504641462A4643469B
:102E70000094FFF753FCDDF840802846B8F80E4078
:102E800059462A464B460094FFF748FCB81C029D61
:102E9000B8F81070F11E04B20AB2204629462B463B
:102EA0000097FFF73BFC04990398CA1E0330B8F85B
:102EB000127016B201B22046224633460097FFF741
:102EC0002DFC2046059CB8F81470494622464B4616
:102ED0000097FFF723FCB8F81670204629462246D3
:102EE00033460097FFF71AFC07B000F000B830BC7B
:102EF000BDE8C08F2DE9F04381B040F2F4150446DF
:102F0000C2F200050220287020784FF00009C5F8B1
:102F10000490E0B14701E846002600BF6068815D8B
:102F2000304401F00301022900900DD1817E59B196
:102F3000C5F80480008B226BA5F801002846E970D3
:102F40009047009880F81A902036B742E6D101B039
:102F5000BDE8F083B0B50178002957D040F2C832FF
:102F6000C2F2000212684368B2F90AE0B2F90CC07A
:102F7000127A0833B2FA82F00EF10102B2FA82F24A
:102F800040095209104300BF13F8084C13F8072CEE
:102F900004F04B040A2C33D190B1540630D594067A
:102FA00051BF42F0100202F0FE0442EA841242F0E5
:102FB0000802D4B242EA941222F0460220E000BF96
:102FC0005506B3F9005002F0620458BF621DAE45C9
:102FD00002F0DF0412DBB3F90450AE450EDCB3F9A6
:102FE0000250AC450ADBB3F90650AC4506DC54068A
:102FF00042F020045CBF04F0F902941C44F040024B
:1030000003F8072C013903F12003BDD1B0BD000046
:103010002DE9F04F87B09046119AC6B21C46DB2EC0
:103020008A4607DCC32E0DDCB02E17D0B52E08BFA4
:10303000E6261AE0F52E0BDCDC2E11D0E42E08BFBC
:10304000842612E0C42E0DD0D62E08BF99260CE09F
:10305000FC2E09D0F62E08BF942606E0F82604E0E0
:103060009A2602E08E2600E081265189B14200F2C4
:10307000978111988089B042C0F092811198B0F97F
:10308000063098B2002800F08B81119D42072A6912
:103090004FEAD0074FF0010C18BF0CEBD007844665
:1030A000069712B1771A12F807C040F2C832C2F27E
:1030B00000021268DDF840B092F86070CDF814C0DC
:1030C000BF0765D42A79CDF80CA0012A00F0C28090
:1030D000002A40F065811198028910B20128C0F2DF
:1030E0005F81069B711A594301FB02F5591E0122AB
:1030F00012FA81F1002300910699002940D00026A0
:1031000002952846E1465546019300BF5FEA094112
:1031100000F10101049121D011994FF0000A0968D2
:103120000F5C00BF40F2C830C2F2000000682246C7
:103130000368F80728B20FFA88F108BF5A46984783
:103140000135BAF1060FA9F1010909D87F085FEA34
:1031500009400AF1010AE5D102E000BF4FF0000981
:1031600001360699B0B288420498CFD31198029DD7
:1031700000990089DDF814C0DDF80CA0019B0D4416
:10318000013399B202B2914208F10108B4DB07E1C0
:1031900029890AEB0C004144D76D0138013902B28C
:1031A0000BB250464146B84729790546012900F03F
:1031B000AC80059F002940F0F380119801890BB283
:1031C000012BC0F2ED80119ADDF818C0528901FB85
:1031D0000CF1B21A01FB02F0ACF10101012212FA6A
:1031E00081F10026029100BF069969B3039600267B
:1031F000049000BF390400F1010A17D011994FF073
:103200000008096811F800905FEAC970204608BFFD
:103210005846A847B8F1060FA7F1010707D84FEAAB
:103220005909380408F10108EED100E00027013601
:103230000699B0B288425046DCD3119802990389AE
:103240000498059F039E08440136B1B21AB2914218
:10325000CADBA5E02F893AB2012AC0F2A180711A17
:10326000594301FB07F9E5B25FFA8BFE24F0FF0436
:103270002BF0FF0700260694BCF1000F39D004960E
:1032800040F2C8362C460025D346BA467746C2F2ED
:10329000000600BF1198006810F8090009F1010943
:1032A000C0F5807101FB07F214FB0022C2F3072274
:1032B000069B584301FB0A0031684FF47F4303EA41
:1032C00010200B6802440FFA8BF00FFA88F1984730
:1032D000DDF814C00135A8B260450BF1010BD9D35C
:1032E0001199049EC8880A8903992546BE46574607
:1032F0008A46A9EB0C01013601FA80F9B1B213B28A
:10330000994208F10108B7DB4AE011980599008954
:103310000FFA80FCBCF1010F42DB119B5FFA84F8CD
:103320005A89B3F90630B21A42431FFA83FE02FBF0
:1033300003F65FFA8BF924F0FF042BF0FF0700205F
:1033400029B3DDF844A04FF0000B0690DAF8000036
:10335000805D0136C0F5807101FB09F218FB002287
:10336000604301FB0700C2F307214FF47F4202EAEA
:1033700010200844A84705990BF1010B1FFA8BF0A8
:103380008842E3D3BAF806E0BAF808C006980130DC
:10339000721A83B20FFA8CF6B34202FA8EF6CFDBC2
:1033A00007B000F000B830BCBDE8C08F2DE9F04F89
:1033B0008BB004460089B4F90A2007906068B4F91C
:1033C0000E70B4F80CC0217D00230A93B0B3D4F87A
:1033D00000A0BAF1000F31D003687BB3B0F9083018
:1033E000A7EB020B9B4529DB1FFA82FEC288B4F9CA
:1033F000189009929AB2E68A04921FFA89F801227B
:10340000554600BF2F780A2F02D017B903E000BF3E
:1034100001320135F6E711F0300F12D04FF480354C
:10342000534305EB0B45C3EB15434FF0FF3515FA3E
:1034300082F29BB202FB1932130403D50BB000F0E9
:10344000AEB80022C1F3001312B21A4172440892BE
:10345000079AACEB020202F1010901F001020692A7
:10346000C1F34001059104994144CDE903914FF026
:10347000000C524692F90070FBB29BB30A2B31D07C
:103480004589AF4202DB81898F4201DD0132F1E7DC
:103490000169DDF824E011B17F1B11F807E00CEBA6
:1034A00006015FB2B7F1FF3F01EB0E0CEEDCC02B63
:1034B00002D24FF0FF3310E0E02B01D202230CE0E8
:1034C000F02B01D2032308E0F82B01D2042304E0FF
:1034D000FC2B4FF0060338BF05231A444FEA4C0C6F
:1034E000C8E700BFA6EB0C01494409B20029A5D4E6
:1034F000059A89B2D140069ADDF81C80002A08BFDF
:10350000884400BF9AF900905FFA89FBBBF1000F75
:103510003FF494AFBBF10A0F38D050460AA9FFF729
:1035200015FA40F2C831C2F2000109680746C96ABB
:1035300071B1608A089A238A656800904FFA8BF00F
:103540000FFA88F112B20195FFF762FD10E000BF9B
:103550005FEA09600CD562680998116919B1508950
:10356000A9EB0000085C08EB060101EB000800BFB6
:10357000606809990269BA441AB14189A9EB01014D
:10358000515C08EB060202EB0108BBE70899049ABC
:10359000DDF80C9011440AF1010A089167E730BC8C
:1035A000BDE8C08F2DE9F04381B08146007800B3BB
:1035B0004FEA4018002700BFD9F80400C65D06F0A6
:1035C0000301022912D1C5196C78B00603D56A68C7
:1035D00048462946904706F08800882806D114F00E
:1035E000410003D06A684846294690472037B845CD
:1035F000E2D101B0BDE8F0832DE9F04F89B018B1F8
:103600000446007A800701D4FF205DE0A07DE689B2
:1036100010F0010040F2C830278AC2F20000B4F86E
:1036200012A094F82C101CBF03360337006818BF93
:10363000AAF1030A40692A22A0424FF0280008BFDD
:10364000262208BF2420205AA7F1010BA55AADF865
:1036500018000BEB01000FFA86F80FFA8AF939B25D
:1036600003B240464A46ADF81A500095FFF708F9F4
:10367000D4E90601CDE90201F01CADF8100094F880
:103680002C0094F822105844ADF8160094F920004C
:103690008DF81C1094F92110ADF81E0002A8ADF8A9
:1036A0001270ADF814A0ADF82010FFF77FFE94F86B
:1036B0002C004A46384401B249F6135740460B469F
:1036C0000097FFF72BF8002040B209B000F000B8D7
:1036D00030BCBDE8C08F00002DE9F04381B0044646
:1036E000C789B0F81080B0F81290007AA68A00F06E
:1036F000DF01000721720FD440F2C830C2F200008F
:1037000000680FFA89F2B0F8465038B233B2014679
:103710000095FFF7B5F845E0A07D490617D410F0F5
:10372000010114D04BF6441CC0F6000C38B20FFA5D
:1037300088F10FFA89F233B2CDF800C0FFF73CFBF5
:10374000A07D033708F10308A9F10309033E8007B0
:103750000AD52046FFF750FF207A41061FD494F87F
:103760002C00404400F10108A58938B20FFA88F115
:103770000FFA89F233B20095FFF782F8207888B10A
:10378000616800BF0A7802F00B030A2B04BF42F005
:1037900060020A70013801F12001F3D102E000F06B
:1037A000BF00207201B0BDE8F083000084B040F299
:1037B0000007C2F200070D4606461CA03946144613
:1037C00007F0FCF83046394607F0F8F81DA03946F6
:1037D00007F0F4F82846394607F0F0F81BA0394600
:1037E00007F0ECF801A80A21012CADF80E1014DB4B
:1037F0004CF6CD410930CCF6CC41A4FB0123DA08CC
:1038000002EB8203A4EB430343F0300300F80139D9
:10381000092C1446F1D8013000E00A3040F20001D2
:10382000C2F2000107F0CAF802F028FC2A2A2A2076
:10383000617373657274696F6E206661696C65642B
:103840003A2000002C2066696C6520002C206C69F1
:103850006E652000F0B581B014460F46064602F0B2
:1038600050FDD4E90053024655EA030005D0501B31
:1038700071EB030003DA002006E0002000E00120E5
:1038800092197941C4E9002101B0F0BD10B528B109
:10389000044602F036FDC4E9000110BD4CF216509A
:1038A0004CF2D141C0F60000C0F600014FF438726E
:1038B000FFF77CFF10B528B1044602F022FD216815
:1038C000401A10BD4CF216504CF2D141C0F6000027
:1038D000C0F6000140F2E622FFF768FF416D31B10A
:1038E0000968416519B1012180F8711006E090F86E
:1038F000741029B1012180F870100021084670472A
:10390000816B0029F6D0016C0029F3D090F8732068
:103910001207EFD44165012180F87410E4E700003C
:10392000EFF31082EFF3108372B6D0F8803039B124
:103930008B4204BF0023C0F8803082F3108806E079
:103940000021C0F8801082F31088194693B100223C
:10395000CA60EFF31082EFF3108372B6C36F0B608F
:10396000B0F87630C167591CA0F8761082F3108841
:1039700002F0EDBC4CF2D14103A0C0F6000140F2D0
:103980000132FFF713FF00BF66616C736500000032
:10399000B0B5B2F902E0BEF1010FB8BFB0BD1488F6
:1039A0004FEA410C002100BF25B2012D0ADB0024A3
:1039B000B2F9005020F814300134AC42F8DBB2F810
:1039C00002E0ACB201310FFA8EF5A9426044EBDBA4
:1039D000B0BD0000F0B585B00C9EC6F30216072EF0
:1039E00028D8DDE90D4CDDE90A5EDFE806F0090FB5
:1039F00023160423041DCDE9005E00F03BF919E015
:103A0000CDE9005E029400F0EFF813E0CDE9005E2E
:103A1000CDE9024C00F056F80CE0CDE9005ECDF89F
:103A200008C000F09BF805E0CDE9005ECDF808C0C5
:103A300000F002F805B0F0BD2DE9F047DDF824C034
:103A4000BCF90270012FB8BFBDE8F087073212B28F
:103A5000089C4FEAE20901F007010122DDF828E0A5
:103A600002FA01F8BCF800104FEA440A00254FF4AE
:103A7000FF7600BF0AB2012A1BDB0021474602463F
:103A80001478274274461CBF33F81140E44323F8EE
:103A900011407C0006EA4707E4B2002C04BF013263
:103AA0000127BCF900400131A142E9DBBCF80270FA
:103AB000A1B201353AB2484495425344DADBBDE83D
:103AC000F08700002DE9F04F82B0DDF830C0BCF97E
:103AD0000250012D3CDB073212B2D2100B9E019234
:103AE00001F007010122DDE90D9E02FA01F1BCF8A7
:103AF00000204FEA460A4FF0000B4FF4FF77009189
:103B000011B201291CDB009D002201460E4616F869
:103B1000018B4C4615EA080F08BF744623F8124083
:103B20006C0007EA4505E4B2002C04BF31460125CC
:103B3000BCF900600132B242E8DBBCF80250B2B21C
:103B400001990BF1010B084429B28B455344D7DB93
:103B500002B000F000B830BCBDE8C08F2DE9F04FD6
:103B6000DDF828C0BCF90270012FB8BF00F038B8EA
:103B70000732099C12B2DDF82CE04FEAE20901F0AD
:103B800007010122BCF8005002FA01F84FEA440A8A
:103B90004FF0000B4FF4FF7729B2012916DB00210B
:103BA000424604462678324203D1BCF8005023F83E
:103BB00011E05600F6B207EA4202002E01F10101BF
:103BC0002EB204BF01340122B142EBDBBCF902107A
:103BD0000BF1010B48448B455344DDDB00F000B88A
:103BE00030BCBDE8C08F00002DE9F04FDDF828C0E3
:103BF000BCF90270012FB8BF00F039B80732099C38
:103C000012B2DDF82CE04FEAE20901F007010122CF
:103C1000BCF8005002FA01F84FEA440A4FF0000BDA
:103C20004FF4FF7729B2012917DB002142460446F1
:103C3000267832424FEA4206F6B21CBFBCF800506A
:103C400023F811E007EA4202002E01F101012EB231
:103C500004BF01340122B142EADBBCF902100BF1CE
:103C6000010B48448B455344DCDB00F000B830BC0A
:103C7000BDE8C08F2DE9F047DDF824C0BCF9027023
:103C8000012FB8BFBDE8F0870732089C12B24FEA97
:103C9000E20801F007010122BCF8005002FA01FE1F
:103CA0004FEA44094FF0000A4FF4FF7629B2012988
:103CB00019DB0027724601460C78224206D033F801
:103CC0001740BCF80050E44323F817405400E4B216
:103CD00006EA4202002C07F101072CB204BF0131B1
:103CE0000122A742E8DBBCF902100AF1010A4044B4
:103CF0008A454B44DADBBDE8F08700002DE9F04F40
:103D00008AB0139FB7F90250012D2E460295C0F2DA
:103D10008080149DB7F90060EF00FCB2F827891B82
:103D200007EA15279B1B009106A90597FC2701931D
:103D30008B1C08A907EAD507B646023100264FF0CA
:103D4000FF0C0497BEF1010F039657DB4FF00009FB
:103D500017784FF00008C7F5807ABAF1010F08BF55
:103D6000C7F1FF0A059D0788ADF82450049DFE00A9
:103D7000ADF82250F82505EA1725ADF81C50FC25B2
:103D8000F6B205EAD705ADF81A50CAF5807B06FBF6
:103D90000AF514FB0B55ADB22D0AADF82040ADF875
:103DA00026C0ADF81EC0ADF8185000BF31F818504D
:103DB00033F8186005FB0BF506FB0A55ADB22D0A6A
:103DC00023F8185008F10108B8F1020FEED1BDF840
:103DD000185009F10109C5F3C405BDF81A60043291
:103DE00006F0FC0645EAC605BDF81C60F14506F084
:103DF000F80645EA062520F8025BA9D1019D039E3D
:103E000002EB8502029D0136AE42009D00EB4500AB
:103E100098D10AB000F000B830BCBDE8C08F0000F7
:103E20002DE9F04F8AB0139FB7F90250012D2E46AD
:103E30000295C0F28680149EB7F90040F700FDB2EB
:103E4000F827091B07EA16271B1B009106A90597EF
:103E5000FC2701938B1C08A907EAD607A346023169
:103E600000264FF0FF0C0497BBF1010F03965DDBBA
:103E70004FF0000E1778159CF82667434FF48074B6
:103E8000A4EB17281FFA88F4022C4FF0FE0408BF99
:103E9000A4EB1728059CC8F58079ADF82440049C54
:103EA0004FF0000AADF822400488ADF8205006EA31
:103EB0001426ADF81C60FC26E70006EAD404FFB225
:103EC000ADF81A4005FB09F407FB0844ADF826C01D
:103ED000A4B2240AADF81EC0ADF8184031F81A405B
:103EE00033F81A6004FB09F406FB0844A4B2240A60
:103EF00023F81A400AF1010ABAF1020FEED1BDF817
:103F000018400EF1010EC4F3C404BDF81A60043267
:103F100006F0FC0644EAC604BDF81C60DE4506F067
:103F2000F80644EA062420F8024BA3D1019F039E21
:103F300002EB8702029F0136BE42009F00EB470062
:103F400092D10AB000F000B830BCBDE8C08F0000CC
:103F50002DE9F04F8AB0139FB7F90250012D2E467C
:103F60000295C0F27F80149DB7F90060EF00FCB2AB
:103F7000F827891B07EA15279B1B009106A90597BF
:103F8000FC2701938B1C08A907EAD507B646023126
:103F900000264FF0FF0C0497BEF1010F039657DB8C
:103FA0004FF0000917784FF00008C7F5807ABAF192
:103FB000010F08BFC7F1FF0A059D0788ADF824501F
:103FC000049DFE00ADF82250F82505EA1725ADF84E
:103FD0001C50FC25F6B205EAD705ADF81A50CAF513
:103FE000807B06FB0AF514FB0B55ADB22D0AADF82C
:103FF0002040ADF826C0ADF81EC0ADF8185000BF87
:1040000031F8185033F8186005FB0BF506FB0A551C
:10401000ADB22D0A23F8185008F10108B8F1020FCB
:10402000EED1BDF8185009F10109C5F3C405BDF87A
:104030001A60013206F0FC0645EAC605BDF81C60B0
:10404000F14506F0F80645EA062520F8025BA9D1FD
:10405000019D039E2A44029D0136AE42009D00EB65
:10406000450099D10AB000F000B830BCBDE8C08F5F
:104070002DE9F04F8AB0139FB7F90250012D2E465B
:104080000295C0F28580149EB7F90040F700FDB29A
:10409000F827091B07EA16271B1B009106A905979D
:1040A000FC2701938B1C08A907EAD607A346023117
:1040B00000264FF0FF0C0497BBF1010F03965DDB68
:1040C0004FF0000E1778159CF82667434FF4807464
:1040D000A4EB17281FFA88F4022C4FF0FE0408BF47
:1040E000A4EB1728059CC8F58079ADF82440049C02
:1040F0004FF0000AADF822400488ADF8205006EADF
:104100001426ADF81C60FC26E70006EAD404FFB2D2
:10411000ADF81A4005FB09F407FB0844ADF826C0CA
:10412000A4B2240AADF81EC0ADF8184031F81A4008
:1041300033F81A6004FB09F406FB0844A4B2240A0D
:1041400023F81A400AF1010ABAF1020FEED1BDF8C4
:1041500018400EF1010EC4F3C404BDF81A60013218
:1041600006F0FC0644EAC604BDF81C60DE4506F015
:10417000F80644EA062420F8024BA3D1019F039ECF
:104180003A44029F0136BE42009F00EB470093D1A4
:104190000AB000F000B830BCBDE8C08F2DE9F04F88
:1041A00089B0B2F90260012E3746019679DBDDF85D
:1041B00048E0B2F90020F826DF0006EA1326BEF137
:1041C000FF0F08BF0EF1010EFFB20496FC26891AFC
:1041D00006EAD3030091BA4607FB0EF105AF07AC20
:1041E0000393CEF5807593460237023400234FF0D7
:1041F000FF0900BFBBF1010F02934ADB4FF0000C37
:10420000049AF823ADF82020039A4FF00008ADF887
:104210001E200288ADF81CA003EA1223D600ADF8D8
:104220001830FC23F6B203EAD202ADF8162006FBE2
:104230000512ADF8229092B2120AADF81A90ADF8BC
:10424000142000BF34F8182037F8183002FB0EF2A3
:1042500003FB052292B2120A27F8182008F1010880
:10426000B8F1020FEED1BDF814200CF1010CC2F32D
:10427000C402BDF81630BDF8186003F0FC0342EA32
:10428000C30206F0F80342EA0322DC4520F8022BC1
:10429000B6D1029B019A01339342009A00EB42008F
:1042A000A8D109B000F000B830BCBDE8C08F2DE93E
:1042B000F041A2B08046002000908DF808008DF8F3
:1042C0000B00ADF80900D1E9000501F10807D0CFD6
:1042D0004969CDE9030505A8D0C0089192E883009B
:1042E0005569D2E903620E95CDE90C6209AA83C231
:1042F0001868D8F804100F908868FC25CDF8048061
:1043000020B1016811B1684688470546404601F072
:1043100099F868B222B0BDE8F0812DE9F041A2B071
:10432000002500958DF808508DF80B50ADF8095018
:104330008046D1E9005001F10807D0CF4969CDE9A5
:10434000035005A8D0C00891DDF8A0C093E8830011
:104350005D69D3E903630E95CDE90C63CDE90A17D6
:10436000DCF8001009900F9192E88B000DF1400CE1
:10437000D2E904628CE88B00D8F8040014961592F8
:104380008068FC25CDF8048020B1016811B1684631
:1043900088470546404601F055F868B222B0BDE8AE
:1043A000F0812DE9F04FA3B00026CDE901608DF832
:1043B0000C608DF80F60ADF80D6082460DF1B00C09
:1043C000D1E90060D1E90274D1E904519B469CE82F
:1043D0000812CDE90460CDE90674CDE9085193E8EF
:1043E00083005D69D3E903630F95CDE90D63CDE9E2
:1043F0000B17DCF800100A90109192E88B00D2E9BC
:1044000004620DF1440C0DF104088CE88B00CDE939
:10441000156208F1580630463021FBF751FFBBF119
:10442000000F07D09BE88F00DBF8145086E88F0060
:10443000756102E001208DF86700B9F1000F0AD024
:1044400099E88E00D9E9046508F1700080E88E00D3
:10445000C0E9046502E001208DF87F00DAF804006D
:10446000FC25806820B1016811B101A88847054684
:10447000504600F0E7FF68B223B000F000B830BC4F
:10448000BDE8C08F2DE9F047A2B015460022CDE966
:1044900000208DF808208DF80B20ADF80920824609
:1044A000D1E90026D1E90207D1E90441CDE903268B
:1044B000CDE90507CDE9074193E88700D3E9043644
:1044C000DDE92A9CCDE90D360AAB86C3DCF8001085
:1044D000E84608F1400609900F9130463021FBF77D
:1044E000EFFE35B195E88F006D6986E88F00756144
:1044F00002E001208DF84B00B9F1000F0AD099E8D5
:104500008E00D9E9046508F1580080E88E00C0E902
:10451000046502E001208DF86300DAF80400FC2550
:10452000806820B1016811B1684688470546504649
:1045300000F088FF68B222B0BDE8F08770B5A2B085
:104540004FF0000CCDE900C08DF808C08DF80BC00D
:10455000D1E900350646D1E902040393D1E90431DB
:10456000CDE90450CDE90643089192E82B00D2E949
:104570000424CDE90D240AAA2AC271680990C968E9
:10458000FC25ADF809C021B1096811B1684688471A
:104590000546304600F056FF68B222B070BDF0B557
:1045A000A3B04FF0000CCDE901C08DF80CC08DF820
:1045B0000FC00746D1E90050D1E902460495D1E980
:1045C00004510DF1140E8EE85100CDE9085193E825
:1045D00043005C69D3E903530F94CDE90D530AAB53
:1045E00043C392E84B000DF1400ED2E904528EE82D
:1045F0004B00786814951592C168FC25ADF80DC084
:1046000021B1096811B101A888470546384600F074
:1046100019FF68B223B0F0BD2DE9F047A2B0824681
:104620000020CDE9000A8DF808008DF80B00ADF8E8
:104630000900154691E8C500D1E904410DF10C0CC3
:104640008CE8C500CDE9074193E88700D3E904363B
:10465000E846CDE90D3609AB08F13C06DDF8A89037
:1046600087C330463021FBF72BFE35B195E88F002C
:104670006D6986E88F00756102E001208DF84700C2
:10468000B9F1000F0AD099E88E00D9E9046508F164
:10469000540080E88E00C0E9046502E001208DF836
:1046A0005F00DAF80400FC25C06820B1016811B190
:1046B000684688470546504600F0C4FE68B222B0FE
:1046C000BDE8F08770B5A2B00D4606466846882161
:1046D000FBF7F6FD3FCD0DF10C0C8CE81F00706868
:1046E00008958068FC25019620B1016811B16846E3
:1046F00088470546304600F0A5FE68B222B070BD7E
:1047000040F20C71C2F20001002808BF01F1200044
:10471000418911F01002EFF31081EFF3108372B6AC
:1047200007D10323437200234381438943F01003DD
:104730004381B2FA82F0400981F31088704701206A
:10474000704710B5044600F010F801462046BDE859
:104750001040AFF3008002464172202000EA910031
:1047600000F140030846538170472DE9F04796B0A9
:1047700004464068407800F00300022828D003284F
:1047800049D1A069013005D140F20C70C2F200009D
:10479000C069A0610020CDE90D00CDE90B00CDE995
:1047A0000600CDE90200204604210426FFF7C7FFDA
:1047B000002800F0FE80E06988B3466807684FEA89
:1047C0001649CDE90276A069390C41EA064A30E083
:1047D000A069013005D140F20C70C2F20000C0693E
:1047E000A0610020CDE90800CDE90600CDE9140064
:1047F000CDE9120020460121FFF7A1FF68B1E06971
:10480000002879D041680768CDE91271A0693A0C97
:1048100042EA014677E0FC26DAE00426C9E0A06916
:104820004FF0000A011DE1618668002703964FEAF8
:104830001649002514A912AA0023009500F052FE83
:10484000002800F0B5801299A069149114A90BAA50
:10485000012302F090FB002800F051818046BDF852
:104860004800BDF84A1094F82420381AAAEB010138
:10487000ADF8080007B2D0070DB2ADF80A1022D08B
:10488000B7F1FF3F0DDC206AB0F9080097FBF0F1AB
:1048900001FB1070B919091A0746ADF80800ADF808
:1048A0000C10B5F1FF3F0EDC206AB0F90A0095FB51
:1048B000F0F101FB105005EB0901091A0546ADF8AE
:1048C0000A00ADF80E10D8F8080002A9079006A853
:1048D000024602F049F900286AD047EA050000B212
:1048E000B0F1FF3F78DDD4E9081702AB204642461D
:1048F000009701F0D4F859E0A0690026011DE1619C
:1049000081680027139100250BA902AA00230095B6
:1049100000F0E8FD00284BD00299A0690B910BA98B
:1049200006AA012302F027FB002800F0F4800546C8
:10493000BDF80800BDF80A10381AADF84800701A22
:10494000A968ADF84A0014A8159112A9024602F010
:104950000BF968B30020CDE90400CDE9020012A9EB
:1049600002AA2846012302F006FB08B3606801781A
:1049700001F00E02052AC0F0C080C1F342010122FD
:1049800090F9010002FA01F10BAD11910027002806
:104990004FF0000302A811AA294648BF012300973F
:1049A00000F0FAFD20462946FFF78CFE064600E09F
:1049B000FD26F0B2FD280BD140F20400C2F2000047
:1049C0000078C0074FF0000008BF6FF0020000E061
:1049D00070B216B0BDE8F087606A02AA20F0010646
:1049E00014AB20464146009601F012F80646002816
:1049F000DFD4D4F824C05FEACC70DAD0BDF954001B
:104A0000BDF91C10814222DDDDE90632091ACDE92B
:104A10001232ADF84C1029B21844B1F1FF3FADF895
:104A2000480006DCBDF85600ADF84A50401BADF812
:104A30004E0012AA204641460023CDF800C000F0E7
:104A4000E7FF0646B0F1FF3F01DCF01CB1D1BDF934
:104A50005600BDF91E10814224DDDDE906633AB23D
:104A6000091A00EB1640B2F1FF3FCDE91263ADF831
:104A70004E10ADF84A0006DCBDF85400ADF84870A1
:104A8000C01BADF84C00676A12AA204641460023BD
:104A9000009700F0BDFF0646B0F1FF3F02DCF01CBE
:104AA0007FF487AFBDF95400BDF91C2082427FF727
:104AB00080AFBDF95610BDF91E308B427FF779AF3C
:104AC000069F121AADF84C205A1A3844ADF84E2001
:104AD000ADF8480001EB1740D4E90817ADF84A00DB
:104AE00012AB20464246009700F0D9FF0646002848
:104AF00054BF6FF0020006465BE7FC2659E74CF214
:104B000070304CF22F31C0F60000C0F6000140F2C8
:104B10001762FEF74BFE4CF270304CF22F31C0F6AC
:104B20000000C0F6000140F2A652FEF73FFE40F240
:104B30000C71C2F20001002808BF01F12000FFF74C
:104B400000BE00002DE9F04FB1B0002A00F0C8828D
:104B5000044640680D4601781746C1F34201012220
:104B600002FA01F1CDE92E113091417898460822E0
:104B7000C8064FF000062D9202D44FF0000911E054
:104B8000A06A49B200294FF000030FA92EAA48BF1E
:104B90000123CDF8008000F0FFFC00286DD0814695
:104BA0006068417848B20DF19C0B00284FF000037B
:104BB0002FAA2846594648BF0123CDF8008000F0AF
:104BC000EBFC82461BA930AA38460023009600F071
:104BD000E3FC0146BAF1000F4FF0FD0018BF0029B9
:104BE00003D140B231B000F0C1BA60684078C1066C
:104BF00000F0040043D44FF00005B0B1A06A21A931
:104C00000C3100220023009500F06CFC68B10BF120
:104C10000C010BAA002302F0AEF921A92DAA012351
:104C2000CDF8008000F0B8FC0546606800274078A9
:104C3000000740F19480E06A15A90C31002200239E
:104C4000009700F04FFC002800F08980A36908223B
:104C50001E88D3F808C0F60706924FF000024FF006
:104C6000000603954AD100BF9988DF88DB680E44AF
:104C70001D883A44E907F7D040E0FD20B1E74FF046
:104C80000005B0B1E06B21A90C3100220023009592
:104C900000F028FC68B10FA90C310BAA002302F028
:104CA0006AF921A92DAA0123CDF8008000F074FC37
:104CB0000546606800274078000750D5206C15A98C
:104CC0000C3100220023009700F00CFC002846D095
:104CD000A36908221F88D3F808C0FF0706924FF087
:104CE00000024FF00006039508D100BF9F88DD88C1
:104CF000DB683E4419882A44C907F7D0BDF878100C
:104D0000BDF87C30891B4668A3EB0C0783683144EF
:104D1000CDE90463ADF8101041891F440129ADF8B5
:104D200014700ED0BDF87A10BDF87E70891AA7EB0A
:104D30001C4201EB1641ADF8121002EB1341ADF825
:104D4000161004A907AA0023002502F014F915A9DA
:104D500006AA0123009500F01FFC039D0746BDF93C
:104D6000AC00BDF97C20BDF9AE10BDF97E6090426B
:104D7000B8BF0246ADF81020B142B8BF0E46ADF83C
:104D80001260049861682B9048785FEAC8710BF153
:104D9000100300F0100173D1002900F0B2802E9AA8
:104DA0000FA901F110034846CDF8008000F0E2FAA7
:104DB0001DB36068407810F004001ED0BDF9940067
:104DC000BDF94C60BDF99620BC462F46BDF94E504A
:104DD000B042B8BF0646ADF89460AA42B8BF1546C7
:104DE00021A92D9AADF896503D4601F110032846B1
:104DF0006746CDF8008000F0BDFA8FB1BDF96400C0
:104E0000BDF97C20BDF96610BDF97E309042B8BF77
:104E10000246ADF864209942B8BF0B46ADF8663043
:104E20000FA9484600F0BFFC00287FF4DAAE21AE9F
:104E30002846314600F0B7FC00287FF4D2AE0DF1D1
:104E400054083846414600F0AEFC00287FF4C9AE55
:104E50006068407810F00C0F00F02C81002D1BA82A
:104E600008BF2E46002F08BFB84604AFCDE90008A2
:104E700027A90FAA204633460297FFF792FAB0E619
:104E8000002900F0AC80410700F13681000700F1F5
:104E90003C812E9A0FA901F110034846CDF80080FD
:104EA00000F068FAFDB16068407810F004001AD094
:104EB000BDF99400BDF94C70BDF99620BDF94E6066
:104EC000B84221A9B8BF0746ADF89470B242B8BF46
:104ED00016462D9A01F110032846ADF89660CDF8DC
:104EE000008000F047FA0FA9484600F05CFC00285B
:104EF0007FF477AE27A90FAA1BAB2046FFF74FFB25
:104F00006FE62F9A27A95046CDF8008000F032FABC
:104F10001DB36068407810F004001ED0BDF9940005
:104F2000BDF9AC60BDF99620BC462F46BDF9AE5028
:104F3000B042B8BF0646ADF89460AA42B8BF154665
:104F400021A92D9AADF896503D4601F1100328464F
:104F50006746CDF8008000F00DFA8FB1BDF964000E
:104F6000BDF97C20BDF96610BDF97E309042B8BF16
:104F70000246ADF864209942B8BF0B46ADF86630E2
:104F800027A9504600F00FFC00287FF42AAE21AE7E
:104F90002846314600F007FC00287FF422AE0DF1D0
:104FA00054083846414600F0FEFB00287FF419AE55
:104FB0006068407810F00C0F00F08580002D08BF6D
:104FC0002E46002F08BFB84604AF27A91BAB2046CA
:104FD0003246CDF800800197FFF754FA01E62F9A88
:104FE00027A95046CDF8008000F0C4F91DB36068D1
:104FF000407810F004001ED0BDF99400BDF9AC60FB
:10500000BDF99620BC462F46BDF9AE50B042B8BFA0
:105010000646ADF89460AA42B8BF154621A92D9A5C
:10502000ADF896503D4601F1100328466746CDF88D
:10503000008000F09FF98FB1BDF96400BDF97C20BC
:10504000BDF96610BDF97E309042B8BF0246ADF89A
:1050500064209942B8BF0B46ADF8663027A9504688
:1050600000F0A1FB00287FF4BCAD21AE28463146FC
:1050700000F099FB00287FF4B4AD0DF154083846D8
:10508000414600F090FB00287FF4ABAD60684078AB
:1050900010F00C0F1ED0002D08BF2E4627A91BAB09
:1050A00020463246002F08BFB846CDF80080FFF7F3
:1050B000B3FA96E504AF27A90FAA1BAB20460097C9
:1050C000FFF72BF98DE527A91BAA04AB2046FFF7B4
:1050D000EEF886E527A91BAA2046FFF72FFA80E500
:1050E0004CF270304CF22F31C0F60000C0F60001D7
:1050F00040F2DB22FEF75AFB4CF22F3107A0C0F63C
:10510000000140F2D632FEF751FB4CF22F310DA0D8
:10511000C0F6000140F2D732FEF748FB214F505F46
:10512000434F52452E70744F702D3E496E666F2E60
:10513000506172616D2E624861735372634D617389
:105140006B000000214F505F434F52452E70744F4B
:10515000702D3E496E666F2E506172616D2E6248F1
:1051600061734465734D61736B00000030BCBDE832
:10517000C08F80B5426840F20C71C2F20001002A73
:1051800008BF01F120025168097801F00E010829D9
:105190000BD1D0F80CC0B0F91410138C00F11C0224
:1051A0006046FEF7F5FB002080BD4CF212404CF249
:1051B0005141C0F60000C0F600014FF4C572FEF781
:1051C000F5FA70B586B0D0F804E040F20C71C2F286
:1051D0000001BEF1000F08BF01F1200EDEF804103F
:1051E000097801F00E01082920D1DEF8244014F0DE
:1051F0000C0F01D0FC2016E0D0E903C1B0F92C500F
:10520000B0F91420436ABEF82860BEF82CE03C30A8
:10521000E4B2CDE900506046CDE90246CDF810E099
:10522000FEF7D8FB002040B206B070BD4CF2124031
:105230004CF25141C0F60000C0F6000140F27B2262
:10524000FEF7B4FAB0B584B001464B6840F20C707A
:10525000C2F20000CA68002B08BF00F120038C7D59
:1052600093F82CC0486AB1F82CE0EB2C10D18C8A52
:105270001D8DBCF1FF0F01F13C011AD0CDE90015E5
:105280000FFA8EF123B2CDF808C0FEF7C9FD1FE07A
:105290008C8A1D8DBCF1FF0F01F13C0111D0CDE9CD
:1052A00000150FFA8EF123B2CDF808C0FEF7E0FE2C
:1052B0000EE000910FFA8EF123B20195FEF71EFD6C
:1052C00006E000910FFA8EF123B20195FEF740FE41
:1052D000002004B0B0BD10B582B0416840F20C723D
:1052E000C2F20002002908BF02F120014A681278C8
:1052F000082A16D191F824E0D0F80CC0848A0B8CCF
:10530000BEF1FF0F00F11C0221B2604604D0CDF8BF
:1053100000E0FEF743FF01E0FEF73AFB002002B099
:1053200010BD4CF2D7304CF28131C0F60000C0F60F
:105330000001ED22FEF73AFA2DE9F0418CB0E84683
:105340000E460746404620211C461546FAF7B8FF90
:10535000002D38464FF020014246089608BF3D46D2
:105360000995002E08BF34460A9401F064FB0CB086
:10537000BDE8F081F0B591F80BC0DDF814E05FEA0C
:105380008C7C0EF0080C0BD4BCF1000F1BD00789ED
:105390008E891D88BF1BA7EB050CA1F80CC014E07B
:1053A000BCF1000F19D0D1F814C08D89BCF804707D
:1053B000BCF808401E8804EB47077F1BA7EB060CD0
:1053C000A1F80CC00BE04FF0000C5FEA4E7709D556
:1053D0004789CE895B88BF1B0EE04FF0000C5FEA67
:1053E0004E7701D4002309E04F69CD89FE887F897B
:1053F0005B8807EB46077F1BFB1ACB81082A0CD37F
:105400004F68B0F9086007FA8CF716FB03734B601E
:10541000C0685A4300EBD20011E04F680FFA8CF6D7
:1054200007FA8CF74F60B0F908000F685043073057
:105430007243C0081BB207EBD20200FB03200860D6
:10544000F0BD000010B500283BD00446406840780D
:1054500000F01F00122812DCC11F082924D8DFE841
:1054600001F0052F2F25052F2F2F0500206A00F0B2
:1054700063F9A06A00F060F904F12C001BE01A281F
:1054800004DC132815D0172805D019E01B2802D0FA
:105490001F2818BF10BDA06A00F04EF9E06B00F0A5
:1054A0004BF904F1400006E0032809D104F1200083
:1054B00001E004F128000068BDE8104000F03CB9AC
:1054C00010BD4CF22F3103A0C0F60001E122FEF71F
:1054D0006DF900BF4E554C4C20213D2070744F504B
:1054E000000000002DE9F04782B004460F468068B6
:1054F00061681D461646786039600BB1002028604F
:105500000EB100203060A078218841EA0040C10738
:105510003ED1DDF828904FF0000AE846400706D556
:1055200015B1286800B92C60B9F1000F30D1E468DA
:105530006CB36EB1B7F90000B7F9021032880028D9
:10554000D8BF121A708832800029D8BF401A7080E4
:10555000A1682088CDF800A00191C0071CBF606839
:105560000090404639463A4601F0FEFA78B120886C
:10557000C0070DD1A088398808443880E088798830
:1055800008447880A078218841EA0040C6E70024DA
:10559000204602B0BDE8F0872DE9F04184B01E46F8
:1055A00015460C4601F114034FF0000802A9002231
:1055B000CDF80080FFF796FF616919B109780222E2
:1055C00022EA410800284DD0DDF828C016B1018834
:1055D000890702D4D5F800E007E0C1780123C1F3C0
:1055E000420103FA01FEC5F800E05FEA0C75BDF860
:1055F00008304FF00005BDF80A208788C1884FF0B9
:10560000000658BFDD1B5FEA4C7358BF561ABEF147
:10561000080F09D3B0F908102AB211FB0622C66898
:105620008BB202FB0EF10DE0B0F90810C7688BB227
:105630000EFB01F10731C90836B22AB201FB06762A
:105640000EFB02F106EBD1012381C4E90012DDE972
:105650000212C4E90312C178E27AA17202F0FC01DD
:105660004144E17204B0BDE8F081B0B584B04FF0C0
:105670000004F0B10D4602A9002200230094FFF7B8
:1056800031FF10B10188890701D4002411E0C078EE
:10569000290701D506280BD0E90701D0EB2807D050
:1056A000690701D5042803D0A907EED50228ECD15B
:1056B0000124204604B0B0BD10B582B11268B2B169
:1056C000836923B10C46984708B1204610BD4CF2BF
:1056D000E3510BA0C0F60001F222FEF767F84CF28E
:1056E000E3510FA0C0F60001EB22FEF75FF84CF289
:1056F000E35105A0C0F60001EC22FEF757F800BF09
:1057000066616C73650000004E554C4C20213D20B5
:10571000282A7070636843686172436F646529006A
:105720004E554C4C20213D20707063684368617277
:10573000436F646500000000C8B180B584B04FF0CD
:10574000000C02A900220023CDF800C0FFF7CAFE1A
:1057500050B101460088000706D58B69CA68002051
:10576000C8600BB10869984704B0BDE88040704735
:1057700080B582B0B1F90EC0B1F90C00B1F91020BA
:10578000B1F91230D1F814E06146CDF800E0FBF732
:10579000C9F940F2F070C2F20000002102B0BDE889
:1057A0008040FEF7BDB8B0B5054600284FF00000B8
:1057B00031D00C4679B3288800F0090009281FD1A0
:1057C0006B69FBB1286904F10C022946984708B3BC
:1057D000E8602060E878B8B1C0F34200022813D82E
:1057E000C0F103004FF0FF31626801FA00F022EAD5
:1057F0000001228A00206160A181E081114407E05C
:10580000002008E0FA2006E0218A00206060E060C5
:10581000218100E0F92040B2B0BD2DE9F04381B014
:1058200040F2100440F2F070C2F20004C2F2000034
:105830002268D0E9261040F2F013C2F2000318608B
:10584000CAB340F20808C2F20008D8F8000040F2DB
:10585000D816C2F20006814238BF0846336840F2CB
:10586000E017C2F20007C8F800009942C8BF0B4613
:10587000D7E900053360401845EBE171013AC7E90B
:105880000001226017D11E2200234FF01E090025BF
:10589000FAF798FC40F2E811002808BF0120C2F294
:1058A000000108604FF0FF30C8F800003560C7E91C
:1058B0000055C4F80090012001B0BDE8F0837047A6
:1058C0007047F0B583B0B1F90860B1F90A701546B8
:1058D000002000224FF6FF730C4601F0A9FB4FF6A3
:1058E0009C70C0F2010031183844490840084FF05C
:1058F00064120292ADF80410ADF8060001A920462A
:1059000000224023009503F037FA002001F02AF925
:105910002046294602F0DCFE002001F023F9002099
:1059200001F020F9002003B0F0BD000010B584B0F4
:1059300008460C4601F055FD4AF63020C0F600003E
:1059400001F030FD002001F01FFD4FF45F000290D8
:10595000F020C0F2090003904FF0DF0C02AA0020F3
:10596000214644F20823CDF800C001F0B8FB002026
:1059700001F0F8F84FF4FC604FF6FF7101F0FDFC08
:105980001C20002101F0DAFC40F2E814C2F200040D
:105990002068C8B100F0B2FC216840F2E632B0FBEA
:1059A000F1F0904205D800F0A9FC2168B0FBF1F4B9
:1059B00001E040F2E7340846002100F021FC0246F5
:1059C0000AA0214601F014FC40F2F010C2F20000DF
:1059D0000068002100F014FC014608A001F008FC5A
:1059E000002001F0BFF8002004B010BD4650533A2B
:1059F0002533643A25646D73200000004C43442D28
:105A00004C6174656E63793A2532646D73000000F1
:105A10002DE9F0418AB004460020CDE90800CDE927
:105A20000600CDE90400CDE902001546884611883C
:105A300052686E881F464B421144206AADF8003010
:105A40007342ADF8041006EB1241ADF80230ADF828
:105A50000610694606AA012301F08DFAC0B11FB1F4
:105A6000DDE907107860396002AA40462946012323
:105A700001F081FA60B16068007800F00E0005283E
:105A800008D3109B06A902AA2046FFF75BF802E0A4
:105A9000FD2000E0FC2040B20AB0BDE8F08170B506
:105AA00084B01446054600200E46CDE90200CDE93B
:105AB00000006A4620461946012301F05CFA60B1F5
:105AC0006868007800F00E00052808D3089B6A4635
:105AD00028463146FFF736F802E0FD2000E0FC20C2
:105AE00040B204B070BD704700207047B0B582B0BE
:105AF00001F0FDFF40F20024C2F200042168401AC8
:105B00000B2859D301F0F3FF44F25455C2F20005BB
:105B10002968206000294FD0486800284CD0002117
:105B200002F098FB002847D404462868806820B912
:105B300001A92046042202F016FC204601F0ABFC2D
:105B400029688868C0BBBDF80420488A82422CD3EB
:105B50008D8AAA4229D2BDF80630CC8AA34224D32A
:105B6000B1F818E0734520D2B1F80CC0121A02FB4C
:105B70000CF2281A92FBF0F0CA891B1B5A43AEEBB9
:105B800004030D7C92FBF3F1ADF80400ADF80610B0
:105B90003DB9C243ADF8041008460CEB0201ADF864
:105BA000061000B209B2012204E0B1F90C00B1F90B
:105BB0000E100022FDF708F8FDF70FF802B0B0BD97
:105BC00070B540F21804C2F200042568A54208BF6F
:105BD00070BD002635F8080C40B335F8061C35F8C2
:105BE000080CE9B135F8061C884217D101F07FFF97
:105BF00055F8041C35F8122C401A904216D955F865
:105C0000103C7BB135F8081C55F8180C55F80C2CD5
:105C1000984700280ED435F8141C11E035F8080C0C
:105C200025F8060C01F063FF45F8040C2D68A54229
:105C3000D0D10CE035F8081C35F8140C8142F1D1B4
:105C400055F8180CFAF73CFB25F8086CEAE770BD2C
:105C5000B0B582B0C5690C46A87CADF8061030B16D
:105C6000022829D001283DD1286804803AE0A8788C
:105C7000E978002201F052FF28796979012201F0C8
:105C80004DFF287A697A002201F048FF28782146E2
:105C900001F046FFA879E979002201F03FFFA879D9
:105CA000E979012201F03AFF287A697A012202B0EB
:105CB000BDE8B04001F032BF28786978002201F0D9
:105CC0002DFFE87A297B0022AC1C01F027FF0DF1A3
:105CD00006012046012201F07BFFE87A297B0122A0
:105CE00001F01CFF02B0B0BDB0B582B0C5690C4672
:105CF000A87CADF8061030B1022829D001283DD18A
:105D0000286844803AE0A878E978012201F006FF8B
:105D100028796979012201F001FF287A697A002245
:105D200001F0FCFE2878214601F0FAFEA879E97915
:105D3000002201F0F3FEA879E979012201F0EEFEDC
:105D4000287A697A012202B0BDE8B04001F0E6BECF
:105D500028786978012201F0E1FEE87A297B0022A7
:105D6000AC1C01F0DBFE0DF106012046012201F022
:105D70002FFFE87A297B012201F0D0FE02B0B0BDEE
:105D8000B0B582B0C569AA7C022A02D2FFF7ACFF87
:105D900019E018D148BAADF80600287869780122D0
:105DA00001F0BCFEE87A297B0022AC1C01F0B6FEB3
:105DB0000DF106012046022201F00AFFE87A297B54
:105DC000012201F0ABFE02B0B0BD00002DE9F043AE
:105DD00081B0036C022963D0044601296AD00029EE
:105DE00040F0C380002A00F0C08016885088918857
:105DF000D7888E428846814684BFB0460E46B84258
:105E000088BFB946198888BF0746884580F0AD80AD
:105E10005888874280F0A980158920462A21FFF7FB
:105E200017FF310A2046FFF75FFF20463146FFF794
:105E30005BFF4FEA18212046FFF756FF20464146F8
:105E4000FFF752FF20462B21FFF702FF4FEA1921EF
:105E50002046FFF749FF20464946FFF745FF390A2C
:105E60002046FFF741FF20463946FFF73DFF204619
:105E70002C21FFF7EDFEA8EB0600A7EB090101308E
:105E8000013101FB00F6012E12DB002720462946D6
:105E9000FFF776FF0137B7424FF00000F6DB66E010
:105EA000002A4FF0FF3062D0002B60D010681860DD
:105EB00000205CE0002A58D0158850889188D68848
:105EC0008D420F46804684BF2F460D46B04288BFA4
:105ED000B046198888BF06468F4246D25888864207
:105EE00043D2D2F8089020462A21FFF7B1FE290AB2
:105EF0002046FFF7F9FE20462946FFF7F5FE390A4E
:105F00002046FFF7F1FE20463946FFF7EDFE20461A
:105F10002B21FFF79DFE4FEA18212046FFF7E4FEF4
:105F200020464146FFF7E0FE310A2046FFF7DCFE3F
:105F300020463146FFF7D8FE20462C21FFF788FE89
:105F4000781BA6EB08010130013101FB00F5012DA2
:105F5000AEDB002639F816102046FFF711FF013698
:105F6000AE424FF00000F5DB01E04FF0FF3001B032
:105F7000BDE8F0832DE9F04381B00446022B4FF0D9
:105F8000FF3030D3904672B3236C1A885B88B1FB24
:105F9000F2F61FFA86F9994525D206FB121520461E
:105FA0002A21AFB2FFF754FE390A2046FFF79CFEC4
:105FB000E9B22046FFF798FE20462B21FFF748FE66
:105FC0004FEA19212046FFF78FFEF1B22046FFF776
:105FD0008BFE20462C21FFF73BFEB8F80010204630
:105FE000FFF7CEFE022001B0BDE8F08370B540F2AD
:105FF0002004C2F200042568A54208BF70BD44F227
:106000005056C2F2000600BF55F8202C42B1A5F14F
:106010002400017B012903D1306081681030904752
:106020002D68A542F0D170BD70B540F22804C2F2CF
:1060300000042568A54208BF70BD002655F8180C5D
:10604000C0B115F8100C012814D101F050FD55E92C
:106050000312401A90420DD955E90610884715F8E9
:10606000040C20B101F043FD45F80C0C02E005F8EA
:10607000106C00BF2D68A542E0D170BDFEE70000A6
:106080002DE9F04F83B090F800A0BAF1000F00F0B6
:10609000A4804FF0000C4FF0010B4FF0070E0023CF
:1060A000DDB26C08CDE901432BEA0303002500278C
:1060B000009300BF0E68D1F8088006FB0C564FEA2B
:1060C000D60918F809302EEA0606F340DB0740F03F
:1060D0007880072A08D8DFE802F0040A0D0F1E298D
:1060E0003E4B029B3B4450E04FF000084FE0DDF890
:1060F00000804CE0FBB201E005EB0C034AF6AB2458
:10610000CAF6AA2463434FF0000813F1AA3F38BF30
:106110004FF001083BE04AF6AB24FBB2CAF6AA24D2
:10612000A3FB0436019B03EB56032EE04AF6AB2497
:1061300005FB0CF3CAF6AA24A3FB04684FEA580631
:1061400006EB460603F001099B1B4B44B3FA83F3AD
:106150004FEA53181BE04AF6AB2305FB0CF8CAF6CE
:10616000AA23A8FB036308EB530305FB0C330CE0E5
:106170004AF6AB2405FB0CF3CAF6AA24A3FB046879
:1061800005EB0C0603EB580333442BEA03080368C2
:10619000D0F8089003FB0C532EEA0304DB0819F82F
:1061A00003600BFA04F414EA060546EA040B18BF70
:1061B0000125454508BF26EA040B09F803B04FF056
:1061C000010B0137FDB2AA453FF674AF029B0133C4
:1061D0005FFA83FCE2453FF663AF03B000F000B81E
:1061E00030BCBDE8C08F40F2A411C2F200010968C2
:1061F000A1FB000250EA02010CBF012011467047CA
:1062000080B540F2A412C2F2000212680023FAF72D
:106210000DF880BD2DE9F04385B000285BD00F4616
:106220000546002908BF071D78683968DDF83090F9
:106230000DF108081646CDE90210ADF80E20002039
:10624000294642461C46CDF8009000F048FF002049
:1062500000F088FCF888BDF80A10801B0844ADF8EF
:106260000A000020294642462346CDF8009000F05F
:1062700036FF002000F076FC786839684246CDE9A8
:106280000210000C06EB1141A0EB4600ADF80A101D
:10629000ADF80E00002029462346ADF80C60CDF87D
:1062A000009000F01CFF002000F05CFCB888BDF8F6
:1062B0000810801B0844ADF808000020294642461B
:1062C0002346CDF8009000F00AFF002000F04AFCC1
:1062D00005B0BDE8F0834CF2904103A0C0F6000188
:1062E00040F2D512FDF762FA4E554C4C20213D206C
:1062F0007074546172676574000000004FF47A7026
:10630000704701F0FABB80B5EFF31080EFF3108116
:1063100072B644F26851C2F200010A7801230B7090
:1063200080F3108892B9FFF7E9FF44F6D351C1F228
:106330006201A0FB0112B0F57A7F40F2A4104FEA8F
:106340009211C2F2000038BF0121016080BDEFF35D
:10635000108CEFF3108172B6D0F8841009B30B687B
:10636000C0F8843013B90023C0F8883090F8732047
:10637000B1FA81F35B0902F0FD0242EA430280F8C0
:1063800073208CF31088A1B18369C0F88010486035
:1063900083B190F8732052070CD48A69C069D20F78
:1063A000184790F8731041F0020180F873108CF3D5
:1063B00010887047FDF7B4BA2DE9F0410D46044648
:1063C000FFF7A1FF04F144005C21F9F779FF2046B3
:1063D00029464422F9F75BFFA06968B3B4F90C10B1
:1063E000B4F90E50E28A05FB01FEC4F86CE0C2F37A
:1063F00082100123C2F3422203FA00F09340471EA9
:106400005E1E57EA06021FFA81FCAAB224D0AFB181
:10641000A6B1424212EA010C02D18645844676D3E7
:10642000584210EA050202D19E451A466FD302FB7C
:106430000CF070450DD96AE0FA2569E0002F5DD0B7
:10644000424212EA010C02D1864584465FD3BEFB6C
:10645000FCF2A4F80CC0E281A18AFA25002957D0E9
:10646000A368002B54D0100446D02069FE250028D4
:106470004ED05FEA0C424BD04FF6FC770330C0F2AF
:10648000FF0720F0030E4FF0000800EA07054FF069
:10649000010CA4F8768000BF6CF30300E768020CDF
:1064A00018819A7283F80B80C3E90387DA7E03F1BF
:1064B0001C0645EA02625E619A6173B1EFF31082D5
:1064C000EFF3108772B6E76F1F60B4F87670E3677A
:1064D0007B1CA4F8763082F31088013906EB0E039A
:1064E000DAD194F87310012084F8700041F00200B2
:1064F000002584F873000BE0FE2509E0002EABD0E8
:10650000584210EA050206D19E451A4603D2F725E5
:1065100068B2BDE8F081BEFBF2FCE281A4F80CC0D9
:106520009AE700002DE9F04F85B00446006A002884
:1065300000F02F8294F87200042800F28C800D463F
:10654000DFE810F08F00BA01DF010500050094F8C4
:10655000730000F0FE0084F8730004F19000FDF772
:1065600095F9A069002800F02082A06F002800F0B3
:106570002582B4F84410B4F84C20B4F84630B4F88E
:106580004E701144FA188181C281A07D400708D560
:10659000A06FB0F91010B0F912204069514300F01B
:1065A0007DFAA06F94F870208169002721F00041E6
:1065B00041EAC27122468161EFF31080EFF310814E
:1065C00072B652F8883FA66F94F87310002B18BF6C
:1065D0001A464FF0880308BF84231660E6503760E0
:1065E00080F31088880702D52046FFF7B0FEE08AC6
:1065F000A66FC00784F8707002D1002000F0ACFCD8
:10660000308AB4F844100844B4F9501002B28A42F7
:10661000A4F8440034DB708AB4F84610B4F9522070
:10662000084401B2A4F8460000209142A4F84400B6
:1066300026DBA4F846002046FDF750F900BB04F124
:106640009000FDF737F9D4F89C100844C4F89C007A
:10665000002084F87200216B09B1606B8847002626
:1066600093E194F87320002104F19000C4F898108D
:10667000C4F89C1042F0010184F87310FDF706F98C
:10668000B5FA85F0400904F14C0A04F158090027D5
:10669000029000BFA767EFF31080EFF3108172B68E
:1066A000B4F87610E28AB1EB123F12D9EFF3108101
:1066B000EFF3108272B6B4F87630E26F013BA4F8C3
:1066C000763012B11368E367176081F31088546065
:1066D000A26780F31088D4F87880B8F1000F3BD01F
:1066E00094F8700008F1080B30B10298656584F8E1
:1066F0007400012084F8710094F8710070B3606D2B
:1067000084F8717068B3017B29B9011D2046524697
:1067100000F02AFA48BB2046FDF7E0F80028EBD14C
:10672000EFF31080EFF3108172B6A16F71B1EFF348
:106730001082EFF3108372B6E36F0B60B4F876301B
:10674000E167591CA4F8761082F31088A76780F3DC
:1067500010884FF0FF307AE0002078E0B4F868004D
:1067600041E0D4E90001C4E91301E08AC0F38211D9
:1067700091B1B4F84C204FF0FF3303FA01F102EA73
:106780000103A4F84C30D21AB4F85030CE431A4466
:1067900032441140A4F85010C0F3422CBCF1000F59
:1067A00012D0B4F84E204FF0FF3101FA0CF302EA98
:1067B0000306A4F84E60921BB4F85260D9433244E9
:1067C00011441940A4F8521080070AD4B4F95000BB
:1067D000E36EB4F9522083424AD802FB00F1994299
:1067E00046D9E068A066B4F84C10B4F94420B4F877
:1067F0004E301144B4F846604942ADF80C10991976
:106800004942ADF80E10B4F95010636800B2891A0D
:1068100004938142C8BF0146A8F81010B4F946009D
:10682000B4F95210B4F96A20081A9042C8BF104651
:10683000A8F81200584603A94A46002300F09BFB23
:10684000E08AC00702D1484600F086FB4846C4F8FB
:106850008C0018B1411C07D1F1E600BFA16A19B143
:10686000E06A8847D4F88C0000283FF413AF17E0A3
:10687000B3FBF0F180B209B29142B8BF0A46BCF155
:10688000000FA4F8680008D04FF0FF3101FA0CF1B6
:106890001140A6D0A4F86A10A5E7A4F86A20A2E7E0
:1068A00004F19000FDF706F8D4F89C100844C4F8F1
:1068B0009C00012084F8720004F190073846FCF730
:1068C000E5FF94F87320D4E90830D4F88C1002F076
:1068D000010298470646002000F044F93846FCF7CC
:1068E000E9FFD4F89810A26B0844C4F8980012B3DA
:1068F00094F8730000F0080030431CD1022084F8A3
:10690000720004F190073846FCF7C0FF94F873203A
:10691000D4E90E30D4F88C1002F0010298470646F4
:10692000002000F01FF93846FCF7C4FFD4F8981097
:106930000844C4F89800E08A000712D575B1802792
:10694000287B40B9D4F88C00291D01224FF4FC6348
:106950000097FFF75FFC2D68002DF1D1002000F0BB
:1069600001F9012E10D0B6F1FF3F06DD022E08D14D
:10697000032084F87200022607E0002084F87200E9
:1069800003E0042084F872000126304605B000F0D0
:106990004FB84CF22A504CF2D141C0F60000C0F67C
:1069A00000014FF44E72FCF701FF4CF2D14110A0F0
:1069B000C0F600014FF4CD72FCF7F8FE4CF2D14165
:1069C00003A0C0F6000140F29B12FCF7EFFE00BFEF
:1069D0004E554C4C20213D20746869732E416461F2
:1069E000707465722E707443757272656E740000F7
:1069F0004E554C4C20213D20746869732E744346DB
:106A0000472E446570656E64656E63792E65767495
:106A10004F6E4C6F774C6576656C52656E6465722F
:106A2000696E672E666E48616E646C657200000068
:106A300030BCBDE8C08F10B5EFF3108CEFF31083BE
:106A400072B6CB0701F002031CBFD2E900E4C0E933
:106A500006E4002B01F004031CBFD2E902E4C0E904
:106A600008E4002B01F010031CBFD2E904E4C0E9E4
:106A70000AE401F020011BB1D2E90634C0E90C346C
:106A800041B102F12001D1E9002389683830C0E921
:106A9000002381608CF31088002010BDF0B1E1B1BB
:106AA000C20724D100F00302022A04D1028801396E
:106AB00052BA20F8022B0022B2EB510F01F0010272
:106AC00006D04908036801395BBA40F8043BF9D1A4
:106AD0001AB1016809BA090C018070474CF2D14122
:106AE00011A0C0F6000140F22312FCF75FFE4CF249
:106AF000D14103A0C0F600014FF49572FCF756FE99
:106B000028282875696E747074725F742920706803
:106B100077427566666572292026203078303129E3
:106B2000203D3D20300000004E554C4C20213D20A2
:106B300070687742756666657200000080B540F245
:106B40000C70C2F200009421F9F7BAFB80BD10B5B9
:106B5000044628B12046182998BF1821F9F7B0FB40
:106B6000204610BD012070472DE9F0438388B0F91D
:106B700000408F8823445E1EB1F90030B0F90280D6
:106B8000B1F902501F44013F9C420FFA86FE0FFAF2
:106B900087F9C8BF2346A845AC46C8BFC446CE4502
:106BA000B8BF37460FFA87FE9E450EDBC088C988FE
:106BB0004044013804B26818013800B284420FFA28
:106BC0008CF1B8BF2046884202DA0020BDE8F0838D
:106BD00052B1AEEB0301A0EB0C0001310130138088
:106BE000A2F802C09180D0800120BDE8F0830000AF
:106BF00080B5D1B1012A20DB4FF0000C4860EFF3E3
:106C0000108EEFF3108372B6D0F8A430002B14BFAF
:106C10001960C0F8A010C0F8A41041F830CB8EF372
:106C20001088013A08BF80BDE8E74CF25E510AA027
:106C3000C0F60001C922FCF7B9FD4CF25E5103A079
:106C4000C0F60001CA22FCF7B1FD00BF6877436FB0
:106C5000756E74203E2030004E554C4C20213D2056
:106C600070745363656E65730000000070B5ACB05E
:106C7000044690F8A900092800F21781D4F8A05022
:106C8000DFE800F0051121395064729AC07C002DB4
:106C900000F0108194F8A80040F0040084F8A800E7
:106CA000012084F8A900E96909B12846884794F8C9
:106CB000A800410740F1F08000F0FB0084F8A80034
:106CC000022084F8A900A868002800F0CE80696935
:106CD00009B12846884716AE30462C21F9F7F0FA5C
:106CE000A8680221CDE9180520463246FFF7A3FE29
:106CF000032084F8A900204600210026FFF712FC9B
:106D0000B0F1FF3F40F38D80002840F0F380A96987
:106D100009B128468847A868002800F0EE800420C2
:106D200084F8A9002869002800F0B8800BAE30462E
:106D30002C21F9F7C5FA28690221CDE90D05204675
:106D40003246FFF778FE052084F8A900E96820465E
:106D5000FFF7E8FBB0F1FF3F40F38380002840F0ED
:106D6000C980062084F8A900296A09B12846884705
:106D700094F8A800C0075AD10120B8E094F8A80000
:106D800000F0FE0084F8A800EFF31081EFF310800C
:106D900072B6D4F8A000002800F085800268C4F81C
:106DA000A02012B90022C4F8A42081F31088816ABF
:106DB00000297AD0884778E0D4F8B060307800288D
:106DC00000F0A1806D4628462C21F9F779FA706809
:106DD0000221CDE9020420462A46FFF72CFE94F852
:106DE000A800B4F8DE1000F0FD0084F8A800002030
:106DF000C82998BFC82184F8B4000820A4F8DE1080
:106E000084F8A900204600210025FFF78BFBB0F194
:106E1000FF3F09DD00286DD194F8A800800765D4F4
:106E200067E084F8A96065E084F8A95062E0696AC7
:106E300009B128468847D4F8E83023B1D4F8EC00EB
:106E400021462A469847D4F8B00000284BD0017854
:106E5000002884F8DC1049D0481E0B2846D20720B1
:106E600045E0002184F8A91044E0E868A0B1286951
:106E700090B1696909B12846884721AE30462C2176
:106E8000F9F71EFA28690221CDE92305204632468A
:106E9000FFF7D1FD032009E0042007E0002084F87B
:106EA000A900FE2026E081F31088002084F8A900C4
:106EB00001201FE0EFF31080EFF3108172B694F819
:106EC000A81001F0FE0284F8A82080F31088C807FB
:106ED0000FD0D4F8E830002BEAD0D4F8EC002146EB
:106EE00000229847E4E7002084F8DC00092084F8B9
:106EF000A900002040B22CB070BD286900283FF4E2
:106F00000EAF0620D2E74CF25E5103A0C0F600019E
:106F100040F2F242FCF74AFC746869732E537769B9
:106F20007463682E70744D6F64652D3E63684566AA
:106F3000666563747320213D2041524D5F32445F8A
:106F40005343454E455F5357495443485F43464773
:106F50005F4E4F4E4500000040F20C73EFF310827D
:106F6000EFF3108172B6C2F20003D969D86182F3DF
:106F700010880846704770B582B014460A46054628
:106F800000202146C4E90200206041F8040F566841
:106F90001268A6600A600090A868019068462BB14C
:106FA0000A46FFF7E1FD30B900260DE00022002679
:106FB000FFF7DAFD40B128682646206020F0050181
:106FC000000CA0702180E560304602B070BD2DE954
:106FD000F0470446089D40F20C70C2F20000002CFD
:106FE00008BF00F1200405F07000202804BF002035
:106FF000BDE8F087DDE909A92046984616460F4608
:10700000FDF77EFB88B14AF65420C0F600006060B0
:10701000C4E90668C4E90875A4F828A02046A4F8C5
:107020002C90BDE8F047FDF782BD0120BDE8F08758
:10703000F0B581B0054640F20C70C2F20000002DA0
:1070400008BF00F1200528461C4616460F46FDF7EE
:1070500057FB68B14AF66420C0F600006860C5E9D5
:10706000067628462C8401B0BDE8F040FDF75FBDF0
:10707000012001B0F0BD2DE9F04381B0044640F29B
:107080000C70C2F200000F46DDE90868002C08BF52
:1070900000F12004184609211D469146FEF7E5FA45
:1070A000B0B12046FDF72CFBA0B14AF67420C0F623
:1070B000000060600020C4E90679C4E90850268514
:1070C000204684F82C8001B0BDE8F043FDF72FBDC9
:1070D000FE2000E0012040B201B0BDE8F0832DE9C0
:1070E000F041054640F20C70C2F20000069C002DF3
:1070F00008BF00F120052846984616460F46FDF7C2
:10710000FFFA78B14AF68420C0F600006860C5E94D
:107110000676A5F82080284685F82440BDE8F04191
:10712000FDF705BD0120BDE8F081F0B581B04FF657
:107130008311C3F62261F9F72DF94FF07A51F9F76F
:10714000D1F80446F9F765FA0546204600210027E4
:10715000F9F736FA002818BF013D2846F9F73EFA3C
:1071600001462046F9F710F94FF08841F9F712F976
:107170000546F9F767FA044628464FF04441F9F707
:10718000B1F80646B7EB542F0CBF2E46002420461C
:10719000F9F72DFA01463046F9F7F6F805464FF0B3
:1071A0007E502946F9F7F0F84BF65C17C0F6000759
:1071B00057F82410F9F7EEF8064607EB840041680B
:1071C0002846F9F7E7F801463046F9F78BF801B0A1
:1071D000F0BD80B5FFF797F801F0EEFA02F032FF4C
:1071E00002F0F7F902F005FABDE8804002F021BA9A
:1071F00083B0B0B581B040F20424844605A8C2F241
:1072000000040EC005AB20461021624600931025F5
:1072100002F03AFF102838BF05460020605520468E
:1072200000F006F8284601B0BDE8B04003B0704752
:107230002DE9F04F81B040F2A815C2F20005696A4D
:107240004FF00008D1F81090E9684FEA194B0A0C8A
:107250004FEA890A0FFA89F60CB217B2009000BF04
:107260000278A2F10801052921D8DFE801F0030A1C
:1072700016212107B5F91010B14235DAA5F81080B2
:1072800036E0298A51440AB292FBF6F373439A1A04
:1072900011440AB2A24229822ADB698AA5F8108029
:1072A00059440AB2BA42A8BF4146698220E01AB3E3
:1072B000288A29896A8A6B89084499182B7E00B22A
:1072C00009B26A4601F066FE298A084401B2A14269
:1072D00028820FDB688AA5F81080584401B2B942B1
:1072E000A8BF4046688205E0A1EB0901298200BFE2
:1072F000013000900098B3E701B000F000B830BC56
:10730000BDE8C08F40B10168406840F2A812C2F2E7
:107310000002C2E9001070474CF2E35102A0C0F62F
:1073200000016F22FCF742FA4E554C4C20213D20C3
:10733000707453637265656E0000000070B540F2B2
:10734000A816C2F20006736AB6F90E40B3F910C06F
:10735000B3F812E0B6F90C300CFB01F191FBF3F23B
:1073600010440EFB00F005B295FBF4F502FB13117F
:1073700005FB14003182708270BD40F2A812C2F287
:1073800000029082D182704740F2A811C2F200013F
:10739000002808BF0846026840680023C1E90220AF
:1073A0000B61704740F2A812C2F200024AF6302187
:1073B000536AC0F60001002818BF01468B420DD069
:1073C000C86848B1488A38B1088A28B1486918B1F4
:1073D00000205162106102E0FE2000E0002040B277
:1073E000704740F2A811C2F20001002808BF4FF018
:1073F000FF30C8617047F0B581B04FF68311C3F616
:107400002261F8F7C7FF0446F9F703F9054620465D
:1074100000210027F9F7D4F8002818BF013D2846BD
:10742000F9F7DCF801462046F8F7AEFF4FF0884147
:10743000F8F7B0FF0546F9F705F9044628464FF07E
:107440004441F8F74FFF0646B7EB542F0CBF2E46CA
:1074500000242046F9F7CBF801463046F8F794FFB0
:1074600005464FF07E502946F8F78EFF4BF65C1725
:10747000C0F6000757F82410F8F78CFF064607EB14
:10748000840041682846F8F785FF01463046F8F742
:1074900029FF01B0F0BD10B5012813D840F2182122
:1074A00000EB4000C2F2000101EB8000044614F83A
:1074B000011F39B1406800F019F8207810B10020A0
:1074C000207010BD4FF0FF3010BD012884BF4FF079
:1074D000FF30704740F2182300EB4000C2F2000377
:1074E00003EB8000406800F03FB8000080B582B038
:1074F000012802D94FF0FF3021E040F2302200EBAA
:107500000011C2F2000252F82130D3B14BF2B401A3
:10751000C0F6000151F820C04CF2ED20C0F600008A
:107520004CF2F6210090C0F600010BA2022040F2BE
:107530001F13CDF804C000F0CFFC6FF0FE0002B0C6
:1075400080BD02EB8100C16819B102B0BDE8804086
:1075500008476FF0FD00F2E76244657669636543B2
:107560006C6F73650000000080B582B0012802D9FD
:107570004FF0FF3021E040F2302C00EB001EC2F251
:10758000000C5CF82E30D3B14BF2B401C0F6000110
:1075900051F820C04CF2ED20C0F600004CF2F6216C
:1075A0000090C0F600010BA2022040F23513CDF886
:1075B00004C000F091FC6FF0FE0002B080BD0CEB47
:1075C0008E0003691BB102B0BDE8804018476FF020
:1075D000FD00F2E76244657669636543746C000000
:1075E0002DE9F04F85B040F2302BC2F2000B584627
:1075F0008821F8F765FE4CF66C184CF66410C0F65E
:107600000008C0F600004BF2BC0A4BF2B40940453A
:10761000C0F6000AC0F6000920D04CF66417C0F688
:10762000000700BF002100261AF806003A789042B1
:107630000DD106EB061559F826200BEB85000262EA
:107640007A684C1C4162904721464BF82500002E79
:107650004FF00106E8D008374745E3D14CF66418EF
:107660004CF65410C0F60008C0F6000040451FD08C
:107670004CF65417C0F60007002100261AF8060041
:107680003A7890420DD106EB061559F826200BEBFF
:10769000850002627A684C1C4162904721464BF893
:1076A0002500002E4FF00106E8D008374745E3D10A
:1076B0004CF2F62A4CF2233625A0C0F6000AC0F69A
:1076C000000622A70090032051463246AD230197C1
:1076D00000F002FC4CF2DF2500274FF0FF380FF2DC
:1076E0008809C0F6000500BF07EB07110BEB81000E
:1076F000006A58B15BF821100095CDE90201032022
:1077000051463246B623019708E000BF8DE8A0023B
:10771000032051463246B223CDF80C8000F0DCFB4A
:10772000002F4FF00107DFD04CF2F6214CF223324C
:1077300010A7C0F60001C0F600020320B82300978E
:1077400000F0CAFB002005B000F016B864657300B5
:107750000D0A6465765F6E6F09092531367309730A
:10776000746174650D0A00006E6F2064726976653D
:10777000000000000D0A000030BCBDE8C08F000012
:1077800080B582B0012802D94FF0FF3020E040F2EE
:10779000302200EB0011C2F2000252F82130CBB1CE
:1077A0004BF2B401C0F6000151F820C04CF2ED20BC
:1077B000C0F600004CF2F6210090C0F600010BA2CA
:1077C0000220DB23CDF804C000F086FB6FF0FE0042
:1077D00002B080BD02EB8100816819B102B0BDE842
:1077E000804008476FF0FD00F2E700BF6244657615
:1077F0006963654F70656E0010B582B001284FF067
:10780000FF3C20D8FAB140F2302E00EB001CC2F24F
:10781000000E5EF82C40CCB14BF2B401C0F6000172
:1078200051F820404CF2ED20C0F600004CF2F62159
:107830000090C0F600010CA20220F223019400F097
:107840004BFB6FF0FE0C604602B010BD0EEB8C00DF
:10785000D0F818C0BCF1000F03D002B0BDE8104052
:1078600060476FF0FD0CEEE7624465766963655230
:107870006561640010B582B001284FF0FF3C21D84B
:1078800002B340F2302E00EB001CC2F2000E5EF894
:107890002C40D4B14BF2B401C0F6000151F82040A5
:1078A0004CF2ED20C0F600004CF2F6210090C0F63C
:1078B00000010DA2022040F20913019400F00CFB1C
:1078C0006FF0FE0C604602B010BD0EEB8C00D0F8DD
:1078D00014C0BCF1000F03D002B0BDE810406047F7
:1078E0006FF0FD0CEEE700BF624465766963655793
:1078F0007269746500000000B0B54CF654144CF683
:107900004010C0F60004C0F60000A04209D04CF6BA
:107910004015C0F6000500BF55F8040B8047AC4287
:10792000FAD10020B0BD00002DE9F04383B08146BC
:10793000002B4FF0FF305FD01646002A5CD00A9F24
:10794000002F59D0884644F25451C2F20001096810
:10795000002951D0086801211C4600F07BFC00285A
:1079600048D4054609EB06000138ADF8040008EBE1
:1079700004000138ADF806006A4628460121ADF83A
:107980000090ADF802800297FFF79FFD044628465D
:10799000FFF781FDB4F1FF3F2ADCBDF80000BDF820
:1079A0000430984224D8BDF80210BDF80620002407
:1079B00096B28DB2B54214D837F8142000B209B28D
:1079C0000134FBF7C8F9BDF80200BDF80620411CE0
:1079D0008BB2BDF800009342ADF80210ECD9BDF8AF
:1079E0000430013086B29DB2AE42ADF80000DFD95E
:1079F000002001E04FF0FF3003B0BDE8F08370B528
:107A000082B030B304468068022804D3606810B1A5
:107A10006FF0010554E02068022100F01BFC0546D0
:107A2000013009D0E06801AA019028460221FFF741
:107A30004CFD2846FFF72FFD44F25851C2F20001D9
:107A4000086848B1D0F82011C4F82011C0F82041CE
:107A500006E04FF0FF3533E000200C60C4F8200151
:107A6000012004F11C06B4F90C20B4F90E3042F6E2
:107A7000575120740025C0F600013046A4F85C5030
:107A8000FBF74EF83046FBF787F84FF6FF70FBF731
:107A900093F80020FBF788F842F68D41C0F600010C
:107AA0000120FAF7DEFE4AF69420C0F60000FAF74D
:107AB0003EFFFFF743F844F25450C2F20000046066
:107AC000284602B070BD000081B040F23001C2F221
:107AD0000001096848434FF47A714843009000BFA1
:107AE0000098411E00280091FAD101B0704740F281
:107AF000BC30C2F200000068704740F2C030C2F2F1
:107B00000000016840F2BC30C2F20000006870471B
:107B100000F074BA00F0CABA00F0DBBA00F0E4BAC0
:107B200000F0F7BA40F2BC30C2F200000168013147
:107B30000160006800B1704740F2C030C2F200003E
:107B40000168013101607047F0B583B040F2300741
:107B5000C2F200073C6848F2A060C0F20100604336
:107B6000029000200190009040F2BC30C2F2000070
:107B70000168019102994A1E00290292FAD1006817
:107B8000009000980199401AF8F736FD9FED0E0B12
:107B900002460B4651EC100BF8F7A3FC05462046B5
:107BA0000E46F8F729FD02460B4628463146F8F7FF
:107BB00023FCF8F75BFD386003B0BDE8F04000F04F
:107BC000A7B800BF00BF00BF000000000000594080
:107BD00070B5064600284FF0FF300FD00D4669B152
:107BE0003078144601280AD13CB100BF15F8011BBA
:107BF000304600F00BF8013CF8D1002070BD304653
:107C000029462246BDE8704000F08CBA2DE9F04FBD
:107C100085B078B30C46017801292DD1B0F80190D8
:107C200090F807A0B0F80510B0F8038090F808B0FD
:107C300056464FEA1920BAF1000F18BF01260390EB
:107C40004FEA18200D0ACFB2029038462946324634
:107C5000FFF764FFBBF1000FCDF810B0019611D013
:107C6000BAFA8AF04FEA501B384629465A46FFF7BF
:107C700055FF08E000243DE0214605B000F03EB885
:107C800000F07CBAB3468BF001064FF0000A5FFAB1
:107C900088F85FFA89F900BF029904F08002404633
:107CA000FFF73CFF384629463246FFF737FF039976
:107CB0004846FFF72FFF002818BF0120049940EA2B
:107CC0004404012908BFBAF1070F0AD038462946F3
:107CD0005A46FFF723FFBAF1070F0AF1010ADBD377
:107CE0005E460198864205D086F001023846294654
:107CF000FFF714FFE0B205B000F005B830BCBDE8F6
:107D0000C04FFFF7BDBF30BCBDE8C08F00F058BA10
:107D10007047000070B58AB0FFF716FF4CF2B72429
:107D20004CF2D9254CF2862CC0F60004C0F60005B2
:107D3000C0F6000C032021462A4640F23913CDF844
:107D400000C000F0C9F84CF2C21CC0F6000C0320C1
:107D500021462A464FF49D73CDF800C000F0BCF8D0
:107D60004CF2242CC0F6000C032021462A4640F297
:107D70003B13CDF800C000F0AFF84CF2F31CC0F696
:107D8000000C032021462A464FF49E73CDF800C014
:107D900000F0A2F84CF2911CC0F6000C0320214622
:107DA0002A4640F23D13CDF800C000F095F84CF2A1
:107DB000552CC0F6000C032021462A464FF49F7331
:107DC000CDF800C000F088F84CF2601CC0F6000C42
:107DD000032021462A4640F23F13CDF800C000F0B0
:107DE0007BF80FF26C0C032021462A464FF4A07357
:107DF000CDF800C000F070F822A008900121082200
:107E00000C23152025A60FF2880C4FF0060ECDE9A5
:107E10000060CDE90233CDE90421032021462A4642
:107E200040F24313CDF818E0CDF81CC000F054F830
:107E300024A002260090032021462A464FF4A27374
:107E4000019600F049F80AB0BDE87040FFF7C8BBE2
:107E50002020202020202020202020202020202022
:107E60002020202020285F202F20202020202020BC
:107E700020202020202020202020202020200D0A2B
:107E80000000000031333A30393A31300000000050
:107E90004E6F7620313820323032330048573A2541
:107EA000642E25642E25642046573A25642E2564C9
:107EB0002E256420434F4D50494C453A25732D25BE
:107EC000730D0A00646576696365206E756D626581
:107ED000723A25640D0A00002DE9F04383B00328AF
:107EE00071D840F2B828C2F2000804460F46404656
:107EF0004FF4807199461646F8F7E2F9032C01D148
:107F0000002749E031A032A1095D055D88F8001025
:107F10003A20690788F8010001D4022715E03846A5
:107F2000F8F7D9F9C4B257FA80F00A2C84BFA0F14F
:107F30000A070A2408F1020039462246F8F7A7F991
:107F400004EB0800E71C20218170A8070FD53046FC
:107F5000F8F7C1F9044608EB0700E2B23146F8F73A
:107F600096F957FA84F0471C202108F80010E8071A
:107F700012D018A101A84A4602F072F8002822D4B3
:107F8000044608EB070001A92246F8F780F9E0193A
:107F9000471C202108F800100A9A0BAB08EB0700D9
:107FA000C7F1FF01009302F06FF800280BD440F2F4
:107FB000B824C2F200042046F8F78DF982B20020FE
:107FC0002146FFF7A3FE03B0BDE8F08300030700DE
:107FD000495745002564000001280CD840F21822BA
:107FE00000EB4000C2F2000202EB8000427812B1C6
:107FF0008160002070474FF0FF307047B0B50B280C
:1080000018BF112900D1B0BD012410294FF0030C75
:108010004FEA802008BF4FF0553408BF4FF0FF3CB7
:10802000012A4FF000024FF0000E18BFF44608BFBF
:10803000224600F190405BB1012B02D10022A646FE
:1080400006E04FF0020E102908BF4FF0AA3E0022B2
:10805000102907D1002102604160C0F808C0C0F8B3
:108060000CE0B0BD4B00032405689C40A5430560AF
:1080700005689A402A4302600122456802FA01F12C
:1080800025EA0101416041680CFA03F24160816810
:10809000A1438160816811438160C1680EFA03F2D7
:1080A000A143C160C1681143C160B0BD02460B2845
:1080B0004FF000000CD001F0FE03102B08BF7047FA
:1080C00090021022C4F600021058C84000F00100CF
:1080D00070470B2801D1002004E010218002C4F673
:1080E0000001085880B270470B2811D041F00103FD
:1080F000112B08BF70470123002A40F2180203FA2F
:1081000001F14FEA8020C4F6000208BF09041150B3
:1081100070470B2808BF704714228002C4F6000283
:1081200011507047034600284FF0FF3018BF002958
:1081300000D17047587802281ED84BF2A803C0F629
:10814000000353F82000436843F4805343600368FE
:108150005B0603D4036843F04003036062B14FF051
:10816000000C00BF83689B07FCD511F80C300CF1A4
:10817000010C94450373F5D10020704710B140788D
:10818000022801D9002070474BF2A802C0F6000275
:1081900052F82000027B426842F48052426002683A
:1081A000520603D4026842F04002026082689207DD
:1081B000FCD501738168C907FCD0007B70470000C3
:1081C00010B54FF0000E0428844638BF4FF0010E62
:1081D0004FF0FF30E1B3ACF10803B3FA83F35B096E
:1081E00053EA0E0334D0BCF1080F04D148F200006A
:1081F000C4F2000005E04BF22410C0F6000050F875
:108200002C00B2B140F2010C4FF0000EC0F20B0C8A
:10821000634600BFC469640604D4013B022BF9D253
:1082200014E000BF11F80E300EF1010E9645836286
:10823000EED14FF4302100BFC3695B0602D401398F
:10824000FAD803E000291046C8BF10BD6FF0010046
:1082500010BD000070B5022941D840F2FC13C2F2F3
:1082600000031A7840F2182CC2F2000C32B9002236
:108270008CF801208CF80D2001221A70002300BF19
:1082800003EB43020CEB82025578012D02D15268B8
:10829000824224D0002B4FF00103F1D0002600BF12
:1082A00006EB46020CEB82031D4615F8014F24B184
:1082B000002E4FF00106F3D011E00CF8221001213E
:1082C00029700021C3E90101FFF75AFAB0F1FF3F1D
:1082D00007DCFE3005D0287808B1002028704FF068
:1082E000FF36304670BD0000B0B582B08C464FF00E
:1082F000FF3188B3BCF1000F2ED0964662B34EF624
:10830000314300210122C0F2004300BF1CF80140AC
:10831000A4F130050A2D0DD3A4F141051A2D09D37E
:10832000A4F120051A2D4FF0010407D802FA05F533
:108330001D4203D001318E45E8D100240169027B42
:10834000437B24B1CDE900CE01F08CF903E0CDF8F8
:1083500000C001F035FE0146084602B0B0BD80B550
:1083600001F068F980BDB0B514460A4601460128FF
:108370004FF0FF301CD8DAB101EB410040F2182178
:10838000C2F2000111F8203043F00203022B10D199
:1083900001EB8005687860B155F8081F234655F851
:1083A000040CFFF729FA002802D429682144296027
:1083B000B0BD4FF0FF30B0BDB0B5044648F2B930A3
:1083C0000021C0F60000C4E9001004F10800A16219
:1083D00061631421F7F774FF606A4BF2C00200EB8F
:1083E0008001C0F6000202EB8101E16145F6757182
:1083F00045F6CD52C0F60001C0F60002C4E90421E2
:1084000040F2B831C2F2000101EB80022264F02296
:10841000C0F2401241F82020002000210022FFF786
:108420007DFB6420FFF750FBE1690122087C497C59
:10843000FFF774FB6420FFF747FBE569A87C38BBB6
:108440002878697800220023FFF762FBA878E97892
:108450000122FFF763FB287969790022FFF75EFBB1
:10846000287A697A0022FFF759FB28796979012275
:10847000FFF754FB2878FFF74FFB287A697A01222F
:10848000FFF74CFB2878697801220023FFF740FBB7
:108490000C20FFF719FB20461121FDF7D9FB0C201A
:1084A000FFF712FB20463621FDF7D2FB20460021C4
:1084B000FDF71AFC20463A21FDF7CAFB204665214C
:1084C000FDF712FC2046B221FDF7C2FB20460C212D
:1084D000FDF70AFC20460C21FDF706FC2046002192
:1084E000FDF702FC20463321FDF7FEFB2046332139
:1084F000FDF7FAFB2046B721FDF7AAFB20467221C3
:10850000FDF7F2FB2046BB21FDF7A2FB20463D21F3
:10851000FDF7EAFB2046C021FDF79AFB20462C21FF
:10852000FDF7E2FB2046C221FDF792FB2046012128
:10853000FDF7DAFB2046C321FDF78AFB204619210F
:10854000FDF7D2FB2046C421FDF782FB2046202107
:10855000FDF7CAFB2046C621FDF77AFB20460F2116
:10856000FDF7C2FB2046D021FDF772FB2046A42177
:10857000FDF7BAFB2046A121FDF7B6FB2046E0211E
:10858000FDF766FB2046D021FDF7AEFB2046042117
:10859000FDF7AAFB20460D21FDF7A6FB2046112181
:1085A000FDF7A2FB20461321FDF79EFB20462B2161
:1085B000FDF79AFB20463F21FDF796FB204654210C
:1085C000FDF792FB20464C21FDF78EFB204618213B
:1085D000FDF78AFB20460D21FDF786FB20460B2187
:1085E000FDF782FB20461F21FDF77EFB204623215D
:1085F000FDF77AFB2046E121FDF72AFB2046D0213A
:10860000FDF772FB20460421FDF76EFB20460C218E
:10861000FDF76AFB20461121FDF766FB204613217A
:10862000FDF762FB20462C21FDF75EFB20463F2133
:10863000FDF75AFB20464421FDF756FB2046512109
:10864000FDF752FB20462F21FDF74EFB20461F2150
:10865000FDF74AFB20461F21FDF746FB204620215F
:10866000FDF742FB20462321FDF73EFB204621215A
:10867000FDF7EEFA20462921FDF7EAFA0020B0BD09
:10868000B0B514460A46014601284FF0FF301BD80A
:10869000D2B101EB410040F21821C2F2000111F801
:1086A0002030013B012B10D801EB8005687860B1C8
:1086B00055F8081F234655F8040CFFF7DBF800288F
:1086C00002D4296821442960B0BD4FF0FF30B0BD0D
:1086D0002DE9F04F85B000285FD08346008940F235
:1086E000C43700EBD03004B2BBF80A006FF00905C4
:1086F00000EBD03006B24CF63010C0F60000D0E9E6
:108700000102C2F20007CDE9020271B13C20FDF77F
:108710006AFD44F26052C2F20002FBF79BF820B1FE
:108720003878013000F00700387005EB640940F23A
:10873000A07405EB660A0026C2F2000438783D46B4
:10874000304400F0070034F8201004EB800040882B
:1087500049445044ADF80A0040F2C070C2F2000033
:10876000875D4FF6FF704CF62013ADF8081048EA0D
:1087700000080020594602AAC0F60003CDF8008088
:1087800001972F46FEF777FC0020FEF7EBF9013644
:10879000082ED3D105B000F00BB84CF270304CF27B
:1087A000A551C0F60000C0F600018D22FAF7FEFFC9
:1087B00030BCBDE8C08F00002DE9F0412DED0E8BDF
:1087C0004CF63010C0F60000B0F90810B0F90A00FD
:1087D0009FED249A40F2A0779FED23CA40F2C07823
:1087E0008C1085100026B5EE00AAB3EE0EBAC2F2C8
:1087F0000007B4EE00DAC2F2000800BF00EE106A13
:10880000B8EE40EA2EEE090A20EE0A8AB0EE480AD7
:10881000FEF7F1FD20EE0B0ABDEEC00A10EE100AC5
:10882000204407EB8601B0EE480A4880FEF77DFC45
:1088300020EE0B0ABDEEC00A10EE100A2EEE0C0A56
:10884000284420EE0D0A27F82600BDEEC00A10EEDF
:10885000100A08F806000136082ECFD100F006B83D
:10886000BDE8F081DA0F494000007F43BDEC088B82
:10887000BDEC06CBFFF7F4BFB0B592B040F2F07498
:10888000C2F200042046F021F7F71AFD4AF6D4118F
:1088900001ADC0F6000128464422F7F7F8FC204657
:1088A0002946FDF789FDB0F1FF3F23DD002001904F
:1088B0004FF0F010029001A8FEF724FDFEF789FCAE
:1088C00040F2F074C2F2000445F62D114BF234135D
:1088D000C0F60001C0F6000320460022FCF72CFD84
:1088E00040F23401C2F2000120460122FEF780F975
:1088F00012B0B0BD4CF26B6103A0C0F6000140F2B3
:108900005512FAF753FF00BF66616C7365000000F3
:1089100040F2F070C2F20000FEF7A8B92DE9F04F66
:1089200085B004781546049183466FF003010293E5
:1089300000290E4600D54E4202986FF0030A01EB63
:1089400000084FF004090391BAF1000F514605EBFE
:108950000A0048BF4946A04238BFA04513D28E4204
:10896000C8BF31466FF0010252FA81F121F00207CF
:10897000002F18BF01270499C2B25FFA88F3584646
:10898000009701F036FB0AF1010ABAF1050FA9F1CF
:108990000109D9D1039901310529C9D105B000F0E8
:1089A00000B830BCBDE8C08F2DE9F04782B08246E8
:1089B000D0F8008043EAC20089460A2140F23752CB
:1089C000064600BF730A5343013983EA4606F9D1CC
:1089D00046EA802045F2124180EA0107002400BFE8
:1089E00027FA04F000F00105E3B250464946082298
:1089F000009501F0FEFA0134062CF1D1C6F3801483
:108A00005046494608220723009401F0F2FAC6F3C3
:108A1000C0145046494608220823009401F0E9FAA0
:108A2000C6F300265046494607220823009601F067
:108A3000E0FA092427FA04F000F00106C4F10E0060
:108A4000C2B2504649460823009601F0D2FA0134DA
:108A50000F2CEFD1002600BFF043404427FA06F167
:108A600001F00105C2B2504649460823009501F0C5
:108A7000C0FA0136082EEFD1A8F10F06082400BF76
:108A8000301927FA04F101F00105C3B250464946F6
:108A90000822009501F0ADFA01340F2CF0D1A8F1B5
:108AA00008000127C3B2504649460822009701F04A
:108AB000A0FA02B0BDE8F0872DE9F04F03AF8FB008
:108AC00090F800800546B8F1000F8B4647F8403C0F
:108AD00047F83C2C1DD000244FF0010929EA040A74
:108AE00082B0E6B22846594606223346CDF800A0A9
:108AF00001F07FFA02B082B028465946324606237A
:108B0000CDF800A001F075FA02B00134E0B2804562
:108B1000E4D82846594603220323FFF7FFFEA8F1B5
:108B20000400C6B22846594632460323FFF7F6FE34
:108B30002846594603223346FFF7F0FE57F83C6CAF
:108B4000012E0FD944F62510C2F29240A6FB000177
:108B5000701A01EB50000221202E01EB90010DD183
:108B60001A2017E057F8402CA7F10C042846594664
:108B70000023A54600F0F8B8FFF716BFB0004A0082
:108B800050FA82F06FF00103013053FA82F290FB49
:108B9000F2F04000CAB247E9095B47F844DC47F805
:108BA000342C4FF0FF3252FA81F5072252FA81F14C
:108BB00021F00701ADEB0104A546062121700A2131
:108BC00001EB860100222B46DEB20132A155D6B25E
:108BD000013B091AB542F7DC002047F8384C47E959
:108BE0000C5057E9098B00BF002100BF57F82C0C2F
:108BF00047F8281C684008431EBF57E90B0108438B
:108C00005FEA006048D057F8300C57F8281C4840FD
:108C100057F82C1C0843B0FA80F040093CD157F8B3
:108C2000380C57F82C1C10F8019057F8281C405CA1
:108C30006FF0010147F81C0C00290E4600D54E428A
:108C400057F81C0C6FF0010A0844022447F8181C5E
:108C500047F8140CBAF1000F514648BF21468E4226
:108C6000C8BF31464D1E09EB0A0018BF012582B06E
:108C7000C2B257F8140C5946C3B24046009501F0F1
:108C8000B8F902B0013CE01C0AF1010AE2D157F840
:108C9000181C01310329CFD157F8281C57F8340C80
:108CA000013157F8305C8142A0D357F82C1C57F89B
:108CB000340C0131814247F82C1C95D357F844DC21
:108CC00057F8245C57F8201C57F8402C28460023FE
:108CD000FFF76AFE57F83C4C072C40D32868002168
:108CE00041F62573224600BFD60A5E4386EA420259
:108CF0000B2901F10101F7D342EA043147F8141CB2
:108D000057F8209CA0F10B0A002600BF4AF6AB21C1
:108D1000F0B2CAF6AA21A0FB010157F8140C4FEAE1
:108D2000510BF04000F001040BEB4B00301A5044A3
:108D300082B05FFA80F82846494642465B46009476
:108D400001F057F902B082B0284649465A464346D8
:108D5000009401F04EF902B00136122ED6D1A7F1DF
:108D60000C04A54600F005B830BCBDE8C04FFFF7C5
:108D700003BF30BCBDE8C08F2DE9F04F8DB0002897
:108D800000F0B9801C46914605460F46C3EB032B05
:108D900000200B900A9011B9A8680AAF0B90786870
:108DA00039684BF2E4030DF12008CDE90810C0F654
:108DB0000003002029464246CDF800900194FEF7BA
:108DC0005AF90020FDF7CEFEB888BDF820104BF20E
:108DD000D40308440738ADF82000C0F60003002093
:108DE00029464246CDF800900194FEF744F9002050
:108DF000FDF7B8FE3888BDF824100730ADF818002C
:108E000078884FF0070AADF81A00A1F10E00ADF80E
:108E10001C00264606AA002029464B46ADF81EA097
:108E2000FF2C18BF4FEA1B260096FEF758F90020CA
:108E3000FDF798FE38887988ADF81000C81DADF8A8
:108E40001200BDF82400BDF82610ADF81400A1F101
:108E50000E00ADF8160004AA002029464B460096E5
:108E6000FEF73DF90020FDF77DFEF888BDF82210E1
:108E70004BF2041308440738ADF82200C0F6000393
:108E8000002029464246CDF800900194FEF7F3F801
:108E90000020FDF767FE38884BF2F403ADF82000A0
:108EA000C0F60003002029464246CDF80090019408
:108EB000FEF7E1F80020FDF755FEBDF82000BDF8F3
:108EC00024100730ADF80800BDF8220002AAADF862
:108ED0000A00A1F10E00ADF80C00002029464B4617
:108EE000ADF80EA00096FEF7FAF80020FDF73AFE66
:108EF0000DB000F00BB84CF270304CF22161C0F6AE
:108F00000000C0F600015F22FAF750FC30BCBDE85B
:108F1000C08F10B582B004468DF807000DF107012F
:108F200000200122FEF7F2FE204602B010BD000034
:108F3000A0F13001CAB20A2A06D3A0F14101C9B298
:108F4000192903D8A0F1370148B27047A0F12002D7
:108F50000F2A0DD82421DFE802F0080F0F0F0911A6
:108F60000F0F0F0F13150F17191BEDE72521EBE757
:108F70003A2801D12C21E7E7FF21E5E72621E3E7A5
:108F80002721E1E72821DFE72921DDE72A21DBE7A7
:108F90002B21D9E72DE9F0418CB040F2A814C2F2A0
:108FA00000041546626A0E46074606A910462A4680
:108FB0009846FCF781FB9DF92E002968084428603B
:108FC000606ABDF82A10428A3944ADF81010BDF825
:108FD0002C10C769E56932440898511AADF812108F
:108FE00005903FB1A38A04A906AA2846CDF80080BF
:108FF000B8470BE0206AA18AE78ACDE9000106A9FB
:1090000004AB00202A460297FDF7E1FF0020FDF7A0
:10901000A9FD9DF928000CB0BDE8F08188B043F6A9
:109020000008C4F20008F7F7DDFEF9F7F7F80027AB
:1090300041F24C000797C4F20200016840F60004B8
:1090400041F0040101600168C4F6000401F004016C
:10905000029102990168002241F002010160016859
:1090600001F0020102910299016841F001010160E1
:10907000016801F0010102910299016841F00801C3
:10908000016000684FF4015100F00800029002985E
:109090002046F7F78EFEA4F5806528464FF4004180
:1090A00001224FF4004A4FF00109F7F782FE2046F3
:1090B00080210122F7F77DFE4FF4005003AECDE989
:1090C000030920463146CDE90577F7F783FD4FF0D8
:1090D0000C0B28463146CDE903B7CDF81490F7F7CD
:1090E00079FDCDE903A94FF0020A284631460597DC
:1090F000CDF818A0F7F76EFDC020CDE90309204692
:109100003146CDE9057AF7F765FD40F2B44008F540
:109110008031C2F200004FF4E13280E88600C0E9FD
:109120000377C0E905B7C0E907774762F8F7DBFEC8
:1091300018B1EFF3108072B6FEE740F25040C2F271
:1091400000004FF482714FF4E0624FF40073102678
:10915000C0E900810721C0E90272C0E904A9C0E9A1
:109160000636C0E90877C0E90A71C0E90C77F8F75C
:109170007CFC20B1EFF3108072B600BFFEE7FEF773
:10918000C9FD40F26800C2F20000FEF738FC46F666
:10919000D920F9F7B6FB40F2901AC2F2000A31A1C9
:1091A00050460B22FFF7A0F89AF80100002844D09F
:1091B00000240121E9B360003221013001EB4401B8
:1091C00000F1320B4FF00009019100BFE1B25FFAEC
:1091D00089F25046FFF7C3F828B3322000EB49006C
:1091E00005B20198294606B230464FF6E0724FEAC2
:1091F0004908F9F72FFB0FFA8BF7384629464FF647
:10920000E072F9F727FB08F10100323005B2304671
:1092100029464FF6E072F9F71DFB384629464FF60E
:10922000E072F9F717FB9AF8010009F1010981458D
:10923000CCD3013484420146BCD30DA710A115A2A2
:109240000320B1230097FEF747FE42F21070FEF7AD
:109250003BFCFFF711FB00BFFEF74EFBFFF758FB8F
:10926000FAE700BF426162794F532D32303233004A
:1092700064656C617920313073200D0A00000000B4
:109280002E2E2F436F72652F5372632F6D61696E9F
:109290002E6300006D61696E000000002DE9F04F43
:1092A00003AF8FB04AF67863C0F6000301EB81018B
:1092B000013803EBC10313F800904AF61873C0F6A7
:1092C000000303EB01114BF25803C0F6000333F81F
:1092D000103031F81010D808B0FBF9F0B1FBF9F4F8
:1092E00000FB09F1A1EBD30147F81C1C9188001B7E
:1092F00047F82C0CC81D20F007005FFA84F8ADEB8E
:10930000000047F8443C47F8402C854647F8300CAD
:1093100047F8481CF6F7D4FF072050FA84F020F0F5
:109320000700ADEB0005AD4628464146F6F7C8FFFD
:109330004FF0FF3050FA84F10120B8F1000F47F8E8
:10934000145C47F8201C68543BD04FF0010A4FF0E2
:10935000000E40F21D1300BF5FFA8AF1002200BF29
:1093600057F8140C9346825C002007251FFA80FCF6
:109370004FEADC165E4386EA400021FA05F606F065
:1093800001065643013D6C1C80EA0600EED10BF14C
:10939000010257F8146C424506F80B0005D257F845
:1093A000145CAE5C704005F80B004245D8D11FFA42
:1093B0008AF0C00958430EF1010EC64580EA4A0AF8
:1093C000CAD357F8400C57F82CBC806847F8340CC7
:1093D0005FFA8BF047F8180C002857F81C0C09EBC3
:1093E000000A2AD057E90DE500214FF0000C0023B8
:1093F000B9F1000F16D000205C4600BF89B21EF8FC
:1094000001605A1C9BB2EE545FFA8AF3C6B2013077
:109410009E42C3B208BF013451FA84F14B45134652
:10942000ECD300E01A460CF1010C57F8180C5FFA67
:109430008CF188421346DBD802E057F8305C0022FA
:109440005FFA8AF0A9EB000CBCF1010F47F8380C69
:109450001ADB57F8181C013057F834EC414300234D
:109460005C4600BF89B21EF80160501C92B2AE5437
:109470001A0603F10103DAB208BF013451FA84F18C
:1094800094450246EEDC00E0104657F8382CB9F15E
:10949000000F00F08D8081B247F83C1C57F8201C6B
:1094A00040F21D1A01FB09F147F8241C57F8301C43
:1094B0004C4611FA80F047F8280C57F8340C4FF05E
:1094C000000C47F81C0C00BF944508BF0BF1010BC2
:1094D0005FEA0B6060D057F83C0C57F8302C6044C2
:1094E000594602EB000B47F82C1CC9B2002247F882
:1094F000201C00BF57F81C0C9BF80010835CB8F1CF
:10950000020F47F8182C0AD357F8285C012000BF37
:109510002E5D013005F80C6040454D44F8D157F8F8
:10952000240CB8F1000F4FF000020BF8002026D0F9
:1095300081EA0300C3B24FF0000E00BF57F8140CCD
:10954000002510F80E100720AEB2F60906FB0AF649
:1095500086EA450523FA00F606F001064E43013877
:10956000421C85EA0605EFD10EFB09F01BF800103E
:109570000EF1010E6940C6450BF80010DED157F818
:10958000182C57F8201C01328A42B3D157F82CBC52
:1095900057F8382C01E000BF002157F81C0C0CF1E3
:1095A000010C0844CC4504F1010447F81C0C8BD194
:1095B00057E90D0157F8482CF6F769FE57E91110E5
:1095C000A7F10C040160A54600F000B830BCBDE86E
:1095D000C08F80B5FCF795FE40F2C872C2F200025F
:1095E000C2E9000140F2D070C2F200000121017016
:1095F00080BDB0B5FCF785FE40F2D874C2F200041D
:10960000C4E900010F20FCF7EEFD40F2E071C2F268
:109610000001D4E90045086040F6B830FCF7E3FDEE
:10962000001940F2E8726941C2F20002C2E9000189
:10963000B0BD7047437884468B424FF0000088BF2E
:10964000934200D8704713FB0210DCF80810C208E0
:10965000895C072222EA000021FA00F000F00100F4
:10966000704700002DE9F04F03AF9BB088461121F1
:1096700001EB8209027080F80190837047F8700C4A
:10968000C0F808805800B12121FA00F0924600F09D
:1096900003026FF001004BF2580100EB4A00C0F6E4
:1096A00000010D5A47F8682C42EA82014AF6187206
:1096B000C0F6000202EB0111085A072247F83C0CE1
:1096C000E81DC10802EBD000FC6920F00700ADEBFB
:1096D000000B47F874DCDD46002047F81C0C5846A8
:1096E00027F8181C47F814BCF6F7EAFD2646204672
:1096F000002800F0B5800138BA6981B2515C303978
:109700000A29F5D309E000BF013EB969B0B2085695
:10971000FFF70EFC013000F04481002EF4D19BF8DD
:109720000000042640F020008BF800004BF60A00F1
:10973000C0F2BB7047F8405C47F8489C47F81C6C87
:10974000BAF1090F84BF4DF6DC50C0F20300BAF144
:109750001A0F88BF400AC0080121454661F3DF00A7
:109760004FF0070C0F2818BF013800BF24FA00F291
:10977000F40802F001022CEA06031BF804109A40D8
:1097800011430BF80410FC6941B201360029A0F125
:109790000100EBDC002C47F81C6C00F06A8157F8E4
:1097A0001C0C47F844AC4FF000084FF007094FF08D
:1097B000000A002447F8380CB86910F90800FFF7D0
:1097C000B7FB2D210AF1010A04FB01045FFA8AF0BC
:1097D00002281AD11FFA84FC0A2100BF2CFA01F2D8
:1097E000F40802F0010229EA06031BF804009A407B
:1097F000104301390BF80400481C06F10106EDD1B5
:1098000000244FF0000A47F8386CF86908F10108A5
:109810008045D1D15FEA0A6057F8380C47F81C0C34
:1098200000F0258157E9129A1FFA84FE05214FF0B6
:10983000070CA8462EFA01F3F20803F001032CEA04
:1098400006041BF80200A340184301390BF802007C
:10985000481C06F10106EDD147F81C6C01200CE113
:109860009BF80000042640F010008BF800004BF637
:109870000A00C0F2BB7047F8405C47F8388C47F8E4
:109880001C6CBAF1090F84BF4DF6DC50C0F2030026
:10989000BAF11A0F88BF400A00F0060008304D46A2
:1098A0004FF0070C024600BF013AD3B224FA03F38B
:1098B00003F0010EF3082CEA06081BF803900EFAD9
:1098C00008F141EA09010BF8031041B20136012900
:1098D000A0F10100E8DC002C47F81C6C00F0B2801D
:1098E00057F81CCC47F844AC4FF000094FF0070A7A
:1098F0004FF000084FF0000EB8690EEB8E0210F921
:10990000093008F1010803EB42025FFA88F3032BE8
:10991000A2F1300E1AD11FFA8EFC09232CFA03F0A3
:10992000F40800F001002AEA06011BF80420884030
:109930001043013B0BF80400581C06F10106EDD161
:10994000FC694FF0000EB4464FF0000809F1010920
:10995000A145D1D15FEA0860A94647F81CCC76D072
:1099600008EB480041B2002979D457F8388C57E900
:1099700011A51FFA8EFEC9B24FF0070C2EFA01F3A3
:10998000F20803F001032CEA06041BF80200A340CE
:10999000184301360029A1F101010BF80200EDDCAA
:1099A00061E09BF80000042640F040004FF0070CF7
:1099B00007218BF8000047F81C6CBAF1090F88BF2B
:1099C0000F2100BF24FA01F2F40802F001022CEA90
:1099D00006031BF804009A4010430BF80400FC69CE
:1099E00048B201360028A1F10101EBDC47F81C6CFC
:1099F0009CB34FF0000C4FF0070E47F8388C00BFB7
:109A0000B869072310F90C8028FA03F4F10804F070
:109A100001042EEA06001BF8012004FA00F01043AE
:109A2000013B0BF80100581C06F10106ECD1F86966
:109A30000CF1010C8445E3D157F8388C022047F82B
:109A40001C6C1CE057F8388C0020A94615E057F82C
:109A5000388C57F844AC00200FE002200FE057F894
:109A6000388C57E911A547F81C6C002007E057F81F
:109A700044AC0120A84657F8489C57F8405C57F87A
:109A80003C1C57F8702CC1EBD501D07088B2C6EBE6
:109A9000C001042928BF04214A1E56FA82F2002977
:109AA00018BF561C714211F00701A1F1010156FACD
:109AB00081F118BF4E1CB6EBC00F47F81C6C20D2CA
:109AC0004FEAC00CEC214FF0070E00BF072300BF88
:109AD00021FA03F5F00805F001052EEA06041BF84B
:109AE000002005FA04F42243013B0BF80020581C27
:109AF00006F10106ECD1664581F0FD01E6D347F899
:109B00001C6C5FFA89F54FF0070B15FB05B4E608EE
:109B10004046314647F8285C27F8246C47F8208CEB
:109B2000F6F7CEFB0BEBD40020F00700ADEB000006
:109B30008546314647F8345C27F8306C47F82C0CE2
:109B400047F83C0CF6F7BCFB57F8684CA7F1280027
:109B5000A7F1340152462346FEF7AEFFA7F11C02DF
:109B600050462146FFF79AFB012D47F8405C6AD02A
:109B700057F8140C57F81C6C47F8440C4FF0FF30A2
:109B800050FA89F108044FF0000947F8381C00BF6B
:109B90000FFA81FAB0F5C02F4FF0010008BF4FF067
:109BA000050A20EA5A0B0023002000BFAAEB00029E
:109BB00002F0FE04062C4FF0000438BF0124A34538
:109BC0001C4657F8381C18BF0C1BB1452DD257F84E
:109BD000405CE4B26C4354FA82F257F83C5C4FEAC2
:109BE000D20C4FF0070E15F80C402EEA02020121AC
:109BF00001FA02F2144018D157F8441C4FEAD90474
:109C00000C5D5D46D3462EEA090A18F80CE024FAEA
:109C10000AF4DA46AB464EEA020509F10109E40707
:109C200008BF2EEA020508F80C5000284FF001008A
:109C3000BCD057F8400C01338342B5D3AAF10201DE
:109C400008040028A4DC57F8409C6FF0004009FB92
:109C500009FA0024A7F12805A7F13402002147F8EA
:109C60005C0C47F8581C47F86CAC00BF47F8604CD8
:109C7000E4B228462E461546114657F8682C23466E
:109C8000FEF792FE30462946224647F8644CFCF720
:109C9000F7F900214FF0000C4FF0000EB9F1010F61
:109CA0002DD00CFB09F2D30818F80330072020EA66
:109CB000020223FA02F202F001020123012400BF92
:109CC000CE18F50818F80550072020EA060625FAF0
:109CD00006F606F00106D5B2B54207D10134E6B268
:109CE000052E06D088BF0EF1010E05E00124324694
:109CF00002E00EF1030E052401334B45E0D30CF1D5
:109D0000010CCC454944C9D347F838EC4FF0000E5C
:109D1000CC4600BFB9F1010F2FD04FEADE0118F891
:109D20000110072020EA0E02D14001F001010123B9
:109D300062460126D40818F80440072020EA0205EC
:109D4000EC4004F00104CDB2A54209D10136F4B2D1
:109D5000052C08D057F8380C88BF013007E000BF49
:109D60000126214605E057F8380C0526033047F850
:109D7000380C01334B454A44DCD30EF1010ECE457D
:109D80000CF1010CC6D34FF0000BFF200021002383
:109D9000C2B247F8540C09FB02F04A1E47F8480CBF
:109DA00001FB09F0D2B247F84C0C02FB09F04FF06E
:109DB000000C0E464FF0000A4FF0000E072247F845
:109DC000500C47F83C1C47F844BC00BF0BEB0C049C
:109DD000E50818F8055022EA0404012000FA04F40A
:109DE000002904EA05044DD0BCF1000F4AD02546F5
:109DF000002C18BF012557F8500CACF10102C146E8
:109E000050FA82F84FEAD8014FF0070B19F8011009
:109E10002BEA080021FA00F0012121EA000857F896
:109E2000480C00EB0C01C80819F800002BEA0101EE
:109E3000C840012121EA000057F84C1C51FA82F178
:109E4000CA0819F802202BEA01014FF0010B22FA8F
:109E500001F12BEA010157F838BC95EA010F594688
:109E600018BF033195EA000F08BF594695EA080F5D
:109E7000C84657F8409C18BF8B4647F838BC57F87F
:109E800044BC072240F2FE7000EA4E0E00EA4A0A85
:109E9000F008002C18BF0EF1010E18F8000022EA9D
:109EA0000601C840BCF10A0F60F3000A18D3BEF5E2
:109EB000BA6F02D0BEF15D0F04D157F8380C2830CC
:109EC00047F8380C57F83C1CBAF5BA6F02D0BAF113
:109ED0005D0F07D157F8380C283047F8380C01E0EF
:109EE00057F83C1C002C0CF1010C18BF0133CC4579
:109EF0004E44FFF46BAF57F8540C0131CB44494545
:109F000000F10100FFF444AF99B2890011FA83F126
:109F100057F86CAC57F8386C8900002293B2C3F143
:109F2000090000FB0AF0814205DB03F10B0000FB96
:109F30000AF0814202D90A360132EFE757F85C0C89
:109F400057F8581C864257F8604CB8BF214647F86E
:109F5000581CB8BF304657F864BCA7F12805A7F1D4
:109F6000340647F85C0C284631465A46FCF788F818
:109F70003246BBF1070F04F10104FFF477AE57F846
:109F8000581C57F8700CCCB2A7F12805A7F134067D
:109F900057F8682C0171284631462346FEF704FD28
:109FA000284631462246FCF76BF857F874DCA7F1D7
:109FB0000C040020A54600F000B830BCBDE8C08FFE
:109FC0002DE9F04383B0DDF82880074640469946E6
:109FD00015460E46F6F77FF984B2384631462A46D2
:109FE0004B46CDF800800194FFF73CFB03B0BDE881
:109FF000F0832DE9F041D0F800E084680EFB0320E7
:10A000004FF0070E2EEA0005C0084FF00108275C4C
:10A01000DDF818C008FA05F547EA0506BCF1000F9F
:10A0200008BF27EA050626540868896800FB032054
:10A030002EEA0002C0080B5C08FA02F21A430A5426
:10A04000BDE8F081B0B544F26C550024C2F20005C1
:10A0500028196C21FCF77BFD6C34D82CF8D1B0BDED
:10A060000FB4084B10B504A902AA039800F0FCF83D
:10A07000044602A9002000F09CFC204610BC5DF8BC
:10A0800014FB0000B3A900087CB50C001D46164661
:10A09000014601D0601E00E00020CDE90010064B13
:10A0A0006A462946304600F0DFF8002C02D0009ABC
:10A0B000002111707CBD00009DA9000802E008C8C5
:10A0C000121F08C1002AFAD170477047002001E032
:10A0D00001C1121F002AFBD1704700002DE9FF5F6C
:10A0E00082B00021DDE90430020DDDF840B0034309
:10A0F00018D044F61050A2F2FF32424315141198C2
:10A1000001281FD0A5EB0B00401C5FEA000A4FF0AE
:10A1100000064E4FDFF83891B046504615D5CAF1CB
:10A12000000413E0119801244AA3012801D16FEA29
:10A130000B010298119AC0E90031C0E9024206B051
:10A1400000F08EB8CBF10000DFE704460021404A62
:10A15000491842EB0450CDE9001012E0E00707D0A7
:10A1600032463B4640464946F6F746F98046894620
:10A1700032463B4610461946F6F73EF906460F466C
:10A180006410002CEAD1DDE90401DDE90023BAF115
:10A19000000F06DAF6F730F942464B46F6F72CF98F
:10A1A00005E0F6F79EF942464B46F6F79AF9044663
:10A1B0000E460022284BF6F703FC03D84FF0FF3081
:10A1C000014607E00022254B20463146F6F730FBDA
:10A1D000F6F7DDFB102409E0002C0ADB0A2200233D
:10A1E000F5F7F0FF039B30321A55641E50EA010266
:10A1F000F2D1641C039AC4F111031444119A012A88
:10A2000003D0012208430DD10AE0084304D0002006
:10A210004FF0110B119072E7A3EB0B056D1E0DE0D3
:10A220005B4504DD4FF0000205F1010504E003DAAF
:10A230004FF00002A5F10105002AECD00298119917
:10A24000C0E90231C0E9004579E700000000144090
:10A250000000F03F300000000000F0430000E03F4D
:10A2600030BCBDE8C09F00002DE9FF4F95B09B4674
:10A270008946064600250FE2252877D10024274687
:10A28000F84A0121059400E0044316F8013F203B01
:10A2900001FA03F01042F7D130782A2811D06FF07C
:10A2A0002F033078A0F13002092A16D8059A44F01D
:10A2B000020402EB820203EB42021044761C05907A
:10A2C000EFE759F8042B0592002A03DA504244F4D0
:10A2D0000054059044F00204761C30782E2816D1E4
:10A2E00016F8010F44F004042A280DD06FF02F0255
:10A2F0003078A0F13003092B09D807EB870302EB74
:10A300004303C718761CF3E759F8047B761C3078B2
:10A310006C280FD006DC4C2817D068280DD06A288E
:10A3200014D104E0742810D07A280FD10DE044F441
:10A3300000140AE044F4801401E044F440147278FC
:10A34000824202D104F58014761C761C307866288F
:10A350000BD013DC582877D009DC002875D04528AD
:10A36000F6D04628F4D047281AD19DE118E063289A
:10A3700035D0642879D0652812D195E1702873D042
:10A3800008DC6728F1D069286FD06E280DD06F28BF
:10A3900006D1B5E073282CD0752875D0782874D0F4
:10A3A0005A46179990476D1C75E1C4F30250022874
:10A3B00009D003280DD0D9F8001004280DD00D6065
:10A3C00009F1040967E1D9F80010EA17C1E9005260
:10A3D000F6E7D9F800100D80F2E70D70F0E719F8F4
:10A3E000041B8DF8001000208DF80100EA460120C2
:10A3F00003E059F804AB4FF0FF3061074FF0000164
:10A4000002D40DE008F101018846B9420FDA804517
:10A41000F8DB1AF808100029F4D108E008F101016E
:10A4200088468142FADB1AF808100029F6D105980F
:10A430005B46A0EB080721463846179A00F097FACA
:10A44000284400EB080507E04DE029E10DE01AF88B
:10A45000010B5A4617999047B8F10108F7D25B46AD
:10A4600021463846179A13E142E00A220092C4F3CB
:10A4700002524FF0000A022A08D059F804CB032AEE
:10A480004FEAEC710AD00DE029E02AE009F107015A
:10A4900021F00702F2E802C1914609E00FFA8CFCB4
:10A4A0004FEAEC71042A03D14FFA8CFC4FEAEC71AD
:10A4B000002907DA0A460021DCF1000C61EB0201F9
:10A4C0002D2202E0220504D52B228DF80420012242
:10A4D00003E0E20701D02022F7E7904659E00A2185
:10A4E00002E010220DE010214FF0000A00910BE075
:10A4F00010224FF0000A44F004040827009203E001
:10A5000008224FF0000A0092C4F30252022A05D03A
:10A5100059F804CB0021032A08D009E009F107010A
:10A5200021F00702F2E802C1914605E01FFA8CFC17
:10A53000042A01D10CF0FF0C4FF00008220728D5A7
:10A54000702806D0009B83F0100353EA0A0305D05D
:10A550000EE040228DF80420012208E05CEA0102AE
:10A5600006D030228DF804208DF805000222904696
:10A57000009B83F0080353EA0A030AD15CEA010254
:10A5800001D1620705D530228DF804204FF0010873
:10A590007F1E582804D034A003900EA802900DE02E
:10A5A00036A0F9E753466046009AF5F70BFE84465D
:10A5B0000398825C0298401E029002705CEA0100DF
:10A5C000F0D1029806A9081A00F1200A600702D506
:10A5D00024F4803400E00127574502DDA7EB0A0090
:10A5E00000E0002000EB0A01009005984144401A69
:10A5F0000590E00306D45B462146179A059800F0C3
:10A60000B6F90544002706E001A85A46C05D17992F
:10A6100090476D1C7F1C4745F6DBE0030CD55B467D
:10A620002146179A059800F0A2F9054404E030206D
:10A630005A46179990476D1C0099481E00900029B2
:10A64000F5DC08E0029802995A460078491C02910C
:10A65000179990476D1CBAF10001AAF1010AF1DCCB
:10A6600065E10000092801003031323334353637D6
:10A67000383961626364656600000000303132334E
:10A6800034353637383941424344454600000000EE
:10A6900000F05BF90544761C307800287FF4ECADBF
:10A6A00019B0284600F04EB9620700D4062709F118
:10A6B000070222F0070CFCE80223E14603F0004801
:10A6C0005FEA080C02D00FF2702C0DE05FEA045C28
:10A6D00002D50FF2682C07E05FEAC47C02D00FF2CB
:10A6E000602C01E0AFF2700C4FF0FF3823F0004314
:10A6F000CDF850C065280CD006DC452809D0462886
:10A700001DD047283DD13DE0662818D067287ED16E
:10A7100038E00021112F01DB112000E0781CCDE989
:10A72000000106A90EA8FFF7D9FCDDE90F010E9A7A
:10A7300003910021009207F1010A04914DE04FF0CE
:10A7400000400097CDE9011006A90EA8FFF7C6FC4E
:10A75000DDE90F0203920E9B11990022DDF80CA097
:10A760000093049211B9791C00EB010AB7EB0A00BF
:10A7700004D4C0F1FF3007F1010A0490AAEB0700EE
:10A78000019044E0012F00DA01270021112F01DDA3
:10A79000112000E03846CDE9000106A90EA8FFF718
:10A7A0009DFCDDE90F010E9A0391002104910092B6
:10A7B000BA4621070CD40399514500DA8A46BAF10A
:10A7C000010F05DD009AAAF10101515C302908D082
:10A7D000B84202DA10F1040F06DA0121CDE90110C6
:10A7E00015E0AAF10101E9E7002805DC049901441C
:10A7F0000491AAEB000102E0411C514500DD8A46AC
:10A800000499401A401C01904FF00040029020072C
:10A8100004D40198504501DBCDF8048000208DF868
:10A820004F0002980DF14F07B0F1004F25D02B20BB
:10A830000E9002984FF0020800280CDA4042029075
:10A840002D200E9007E00A210298F5F728FF3031FD
:10A85000029007F8011DB8F10001A8F10108F2DC2F
:10A8600002980028EFD1791E0E980870307800F019
:10A87000200040F0450007F8020D12A8C01B00F1AF
:10A8800007081498007800B1012000EB0A01019834
:10A8900001EBE07105984144401A401E0590E00329
:10A8A00006D45B462146179A059800F060F80544E7
:10A8B0001498007818B15A46179990476D1CE00318
:10A8C00024D55B462146179A059800F050F80544B8
:10A8D0001CE00498002807DBDDE90301884203DD62
:10A8E0000098405C179901E0179930205A4690472C
:10A8F000049805F10105401C04900198401E019048
:10A9000004D12E205A46179990476D1CBAF10001C8
:10A91000AAF1010ADDDC05E017F8010B5A46179988
:10A9200090476D1CB8F10001A8F10108F4DC5B460A
:10A930002146179A0598ABE62D0000002B00000079
:10A940002000000030BCBDE8C08F2DE9F041044676
:10A9500000251E461746880404D405E03946202009
:10A96000B0476D1C641EF9D52846BDE8F0812DE97D
:10A97000F041044600251E469046C80301D5302705
:10A9800000E02027880404D505E041463846B0475A
:10A990006D1C641EF9D52846BDE8F0814A68002A7E
:10A9A00006D00A68531C0B6010704868401E48604F
:10A9B00070470A68531C0B601070704770B50D46E5
:10A9C000044602E02946FEF7A4FA14F8010B002819
:10A9D000F8D170BD00000000F000F000E008002099
:10A9E000F0000800000F000004000030715700085C
:10A9F0000000000000000000000000000000000057
:10AA0000000000001B5800080000000000000000CB
:10AA10000000000000000000000000000000000036
:10AA200001020304060708090000000001020304F4
:10AA3000030000000000000006008003A8AA000830
:10AA40000600080070000000750A00080000000001
:10AA5000200000000883003D0000000028AE000830
:10AA600000000000080200300000000038AE0008BE
:10AA700000000000088300380000000030AE00082D
:10AA800000000000080200310000000040AE000895
:10AA90000000000044B100080000060008000000AB
:10AAA000FF000000000000000000000000000000A7
:10AAB00004040404040004000A0A0A000000000060
:10AAC0000A0A1F0A1F0A0A00041E050E140F0400BA
:10AAD00003130804021918000205050215091600DF
:10AAE0000C0C04020000000008040202020408002A
:10AAF00002040808080402000004150E0E150400E4
:10AB00000004041F04040000000000000C0C0402F8
:10AB10000000001F0000000000000000000C0C00FE
:10AB200000100804020100000E11131519110E0087
:10AB30000406040404040E000E11100E01011F008F
:10AB40001F10080C10110E00080C0A091F0808003D
:10AB50001F010F1010110E001C02010F11110E0029
:10AB60001F101008040201000E11110E11110E0029
:10AB70000E11111E10080700000004000400000060
:10AB8000000004000404020010080402040810007D
:10AB900000001F001F00000002040810080402004B
:10ABA0000E11100C040004000E11151D0D011E00E5
:10ABB000040A11111F1111000F11110F11110F00B3
:10ABC0000E11010101110E000F11111111110F00D1
:10ABD0001F01010F01011F001F01010F01010100F1
:10ABE0001E11010119111E001111111F1111110067
:10ABF0000E04040404040E001C08080808090600DA
:10AC000011090503050911000101010101011F00DE
:10AC1000111B151515111100111113151911110022
:10AC20000E11111111110E000F11110F0101010070
:10AC30000E111111150916000F11110F0509110040
:10AC40000E11010E10110E001F150404040404005F
:10AC50001111111111110E0011111111110A04001D
:10AC60001111111515150A0011110A040A1111000C
:10AC700011110A04040404001F10080E02011F0031
:10AC80001E02020202021E0000010204081000005F
:10AC90001E10101010101E00040A11000000000009
:10ACA0000000000000001F0006060408000000006D
:10ACB000000006080E091E0001010D1311130D00FE
:10ACC00000000E1101110E001010161911191600B6
:10ACD00000000E111F010E000814040E04040400ED
:10ACE00000000E191916100E01010D13111111009B
:10ACF0000400060404040E00080008080809060001
:10AD000001010905030509000604040404040E00FA
:10AD100000000B151515150000000D131111110081
:10AD200000000E1111110E0000000D13130D010192
:10AD3000000016191916101000000D130101010072
:10AD400000001E010E100F0004041F04041408006C
:10AD5000000011111119160000001111110A040050
:10AD60000000111115150A000000110A040A110053
:10AD7000000011111E10110E00001F0804021F0018
:10AD80000804040204040800040404000404040089
:10AD90000204040804040200021508000000000078
:10ADA000000000000000000000000C12120C000067
:10ADB00000000C1E1E0C000000001E12121E0000DF
:10ADC00000001E1E1E1E000000000C0C121E0000C3
:10ADD00000000C0C1E1E000000001E120C0C0000D7
:10ADE00000001E1E0C0C00000000181616180000B3
:10ADF0000000181E1E1800000000061A1A060000A7
:10AE00000000061E1E06000000000C12120C0000BE
:10AE100000000C1E1E0C000000001E12121E00007E
:10AE200000001E1E1E1E0000C3510008000000008E
:10AE300045520008000000007351000800000000A7
:10AE4000D752000800000000A0860100400D03005A
:10AE5000801A060000350C0040420F0080841E005E
:10AE600000093D0000127A000024F40000366E0153
:10AE70000048E801006CDC02010101020204040444
:10AE80000505050809090A0A0B0D0E101111121407
:10AE90001517191A1C1D1F21232526282B2D2F318C
:10AEA0000101010101020202020404040404060675
:10AEB000060607080809090A0C0C0C0D0E0F1011E4
:10AEC00012131314151618190101020404040506BF
:10AED00008080B0B101012101315191919221E2037
:10AEE0002325282A2D303336393C3F42464A4D51DE
:10AEF00001010202040406060808080A0C100C11DD
:10AF0000101215141717191B1D22222326282B2D6A
:10AF1000303335383B3E41440A0010001A0024000B
:10AF200030004000480058006E0082009600B000DB
:10AF3000C600D800F0001801340152016C01A001D4
:10AF4000BA01DC01F80130024C028402BC02D802D2
:10AF500010032C0364039C03D4030C042804600432
:10AF6000B404EC0424055C0507000A000F0014007B
:10AF70001A002400280030003C0048005000600007
:10AF80006800780084009000A800B400C400E000CD
:10AF9000E000FC000E012C0138015001680186011F
:10AFA000A401C201E001FE011C023A023A02580269
:10AFB00076029402D002EE0211001C002C00400028
:10AFC0005800700082009C00C000E00008013401BD
:10AFD00060018001B001E00114024C028A02BC024F
:10AFE000EE0230038403C0031A045604B004EC04D8
:10AFF0004605A005FA055406AE0608076207BC0719
:10B000003408AC0806097E090D001600240034003F
:10B01000480060006C008400A000C000E000040153
:10B020002001400168019801C001F8012202580284
:10B030008402B202EE022A036603B803FC031A0478
:10B040007404B0040A054605A005FA053606900604
:10B05000EA0644079E07F807D00067013702270376
:10B0600037046705200690072009D00AA00C900E2F
:10B07000A0102B127B14EB167B192B1CFB1EEB2153
:10B0800024245427A42A142EA431543524390B3CEB
:10B090001B404B449B480B4D9B514B56E059D05E97
:10B0A000E0631069606ED0730030014000380040EA
:10B0B000003C00401AC300081FC300080015000030
:10B0C0000206000100000000000000020D00000068
:10B0D0000000020004000000070000000700070055
:10B0E00020C900080400000000000000070007005D
:10B0F00020C9000804000000000007000700070046
:10B1000020C900080400000007000700070007002E
:10B1100020C9000800000000040000000200000038
:10B120000800000000380140004400400048004092
:10B13000004C0040000000000000DF00F0000900AB
:10B140000000000000000000000000001C22362269
:10B150002A221C001C3E2A3E223E1C0000143E3EB9
:10B160003E1C080000081C3E3E1C0800081C1C0871
:10B170003E3E080000081C3E3E081C000000000087
:10B1800000000000000000000000000000000000BF
:10B190000000000000000000000000000038302C1B
:10B1A00012120C001C22221C081C080000000000C7
:10B1B00000000000302C342C34360600002A1C36E7
:10B1C0001C2A0000040C1C3C1C0C040010181C1E43
:10B1D0001C181000081C3E083E1C0800141414140F
:10B1E000140014003C2A2A2C282828001C220C14A5
:10B1F00018221C0000000000001E1E00081C3E0853
:10B200003E1C081C081C3E0808080800080808081E
:10B210003E1C08000008183E1808000000080C3EFC
:10B220000C0800000000000202023E000014143E60
:10B230001414000008081C1C3E3E00003E3E1C1C6E
:10B24000080800000000000000000000081C1C08A6
:10B2500008000800363612000000000000143E14FA
:10B26000143E1400041C020C100E080026261008C0
:10B2700004323200040A0A042A122C000C0C0400C6
:10B28000000000000804040404040800040808087E
:10B290000808040000141C3E1C1400000008083EAE
:10B2A0000808000000000000000C0C040000003E34
:10B2B0000000000000000000000C0C00002010083E
:10B2C000040200001C22322A26221C00080C080856
:10B2D00008081C001C22201804023E001C22201C0E
:10B2E00020221C00101814123E1010003E02021EF4
:10B2F00020221C001804021E22221C003E201008DE
:10B30000040404001C22221C22221C001C22223CB9
:10B3100020100C0000000C0C000C0C0000000C0CA9
:10B32000000C0C04100804020408100000003E0089
:10B33000003E000004081020100804001C22201801
:10B34000080008001C223A2A3A021C001C22222271
:10B350003E2222001E22221E22221E001C22020247
:10B3600002221C001E22222222221E003E02021E57
:10B3700002023E003E02021E020202001C22023AAB
:10B3800022223C002222223E222222001C080808FF
:10B3900008081C002020202022221C0022120A065D
:10B3A0000A1222000202020202023E0022362A2271
:10B3B0002222220022262A32222222001C2222229B
:10B3C00022221C001E22221E020202001C22222215
:10B3D0002A122C001E22221E122222001C22021CD3
:10B3E00020221C003E080808080808002222222209
:10B3F00022221C00222222222214080022222A2A8F
:10B400002A2A1400222214081422220022222214A2
:10B41000080808001E10080402021E001C04040490
:10B4200004041C0000020408102000001C1010106E
:10B4300010101C0008142200000000000000000092
:10B440000000003F0C0C08000000000000001C2061
:10B450003C223C0002021E2222221E0000001C226E
:10B4600002221C0020203C2222223C0000001C2240
:10B470001E021C001804041E0404040000003C22E8
:10B48000223C201C02020E121212120008000808B0
:10B4900008081800100018101010120C0202120AEE
:10B4A000060A120008080808080818000000162AF2
:10B4B0002A22220000000E121212120000001C228A
:10B4C00022221C0000001E2222221E0200003C221A
:10B4D00022223C2000001A2404040E0000001C025A
:10B4E0001C201C0000041E0404140800000012129A
:10B4F000121A140000002222221408000000222246
:10B500002A3E1400000012120C1212000000121247
:10B51000121C080600001E100C021E00180404066F
:10B520000404180008080800080808000C1010306F
:10B5300010100C00140A000000000000081C362245
:10B54000223E00001C220202221C080C12001212D1
:10B55000121A140030001C221E021C001C001C20A9
:10B560003C223C0014001C203C223C000C001C200F
:10B570003C223C001C141C203C223C00001C2202EB
:10B58000221C080C1C001C221E021C0014001C2281
:10B590001E021C000C001C221E021C0014000808C5
:10B5A000080818001C00080808081800040008080B
:10B5B0000808180014000814223E22001C141C362F
:10B5C000223E220030003E021E023E0000001E28E5
:10B5D0003E0A3C003C0A0A3E0A0A3A001C000C12D1
:10B5E00012120C0014000C1212120C0006000C12A5
:10B5F00012120C001C001212121A14000600121271
:10B60000121A140014001212121C0806120C121244
:10B6100012120C001400121212120C000000201C56
:10B620001A160E011824041E04243A003C322A2A59
:10B630002A261E0000221408142200001028081CCC
:10B6400008080A0418001C203C223C0018000808C6
:10B650000808180018000C1212120C001800121220
:10B66000121A1400140A000E12121200140A001208
:10B67000161A12001C203C223C003C000C12121234
:10B680000C001E000800080C02221C001E29352D8B
:10B6900035211E0000003F202000000002120A1C7D
:10B6A0002210380002120A342A3820000800080844
:10B6B0001C1C0800000024122400000000001224BA
:10B6C000120000002A0015002A0015002A152A156C
:10B6D0002A152A15153F2A3F153F2A3F0808080852
:10B6E000080808080808080F0808080818000814BF
:10B6F000223E22001C000814223E22000C000814E6
:10B70000223E22001E212D252D211E000A0B080B92
:10B710000A0A0A0A0A0A0A0A0A0A0A0A000F080B8F
:10B720000A0A0A0A0A0B080F0000000000081C029F
:10B73000021C08002214083E083E08000000000F0A
:10B740000808080808080838000000000808083F32
:10B75000000000000000003F08080808080808383A
:10B76000080808080000003F000000000808083F23
:10B770000808080828141C203C223C00281408143F
:10B78000223E22000A3A023E00000000003E023A39
:10B790000A0A0A0A0A3B003F00000000003F003B83
:10B7A0000A0A0A0A0A3A023A0A0A0A0A003F003F4B
:10B7B000000000000A3B003B0A0A0A0A221C22225F
:10B7C000221C22000C0204081C120C001C24242E33
:10B7D00024241C001C003E021E023E0014003E02F7
:10B7E0001E023E000C003E021E023E000808080039
:10B7F0000000000018001C0808081C001C001C08A1
:10B8000008081C0014001C0808081C000808080F81
:10B810000000000000000038080808083F3F3F3FD4
:10B820003F3F3F3F000000003F3F3F3F0808080008
:10B83000080808000C001C0808081C003F3F3F3F98
:10B8400000000000180C121212120C00000E120E52
:10B8500012120E021C0C121212120C00060C121202
:10B8600012120C00140A000C12120C00140A0C1212
:10B8700012120C0000001212120E02020006020E3A
:10B88000120E020606020E12120E02061800121204
:10B8900012120C001C00121212120C0006001212DE
:10B8A00012120C0018001212121C080618002214A2
:10B8B00008080800001C0000000000000C0C040038
:10B8C000000000000000001C0000000000081C0830
:10B8D000001C000000003E00003E000003160B3478
:10B8E0002A3820003C2A2A2C282828001C220C1444
:10B8F00018221C000008003E000800000000001C88
:10B90000180000000C12120C0000000000000014CF
:10B910000000000000000004000000000406040411
:10B92000000000000E040C06000000000608040ED3
:10B930000000000000001E1E1E1E0000000000008F
:10B94000000000002C632C632C632C63FFFFFFFFBF
:10B950004D6B4D6B1CE71CE7139D139D0000000011
:10B96000920E493CB10AC93C2BC3163D2EFB483D03
:10B97000752B7B3D04A9963D80B6AF3D36BDC83DD5
:10B980002FBCE13D73B2FA3D87CF093E8340163E9E
:10B99000B5AB223EA2102F3ECF6E3B3EC2C5473E06
:10B9A0000115543E135C603E7F9A6C3ECCCF783ECE
:10B9B000C07D823E938E883E229A8E3E32A0943E77
:10B9C00086A09A3EE59AA03E128FA63ED47CAC3E5D
:10B9D000EF63B23E2A44B83E491DBE3E15EFC33E5A
:10B9E00053B9C93ECA7BCF3E4136D53E80E8DA3EE8
:10B9F0004F92E03E7533E63EBBCBEB3EEA5AF13E5A
:10BA0000CBE0F63E275DFC3EE4E7003F3D9C033F74
:10BA1000824B063F9BF5083F6B9A0B3FDA390E3F8E
:10BA2000CDD3103F2A68133FD9F6153FC07F183F8A
:10BA3000C6021B3FD17F1D3FCBF61F3F9967223FB8
:10BA400025D2243F5636273F1594293F4AEB2B3FFA
:10BA5000DE3B2E3FBB85303FC9C8323FF304353F44
:10BA6000233A373F4268393F3B8F3B3FF9AE3D3F7A
:10BA700067C73F3F70D8413F01E2433F03E4453F82
:10BA800065DE473F12D1493FF8BB4B3F029F4D3F18
:10BA9000207A4F3F3D4D513F4918533F31DB543FD2
:10BAA000E595563F5348583F6AF2593F1A945B3F19
:10BAB000532D5D3F05BE5E3F2146603F97C5613F08
:10BAC0005A3C633F59AA643F880F663FD86B673F73
:10BAD0003CBF683FA7096A3F0C4B6B3F5E836C3FDE
:10BAE00093B26D3F9ED86E3F73F56F3F0809713F6B
:10BAF0005213723F4714733FDD0B743F0BFA743FD0
:10BB0000C6DE753F07BA763FC58B773FF853783F5F
:10BB10009812793F9DC7793F02737A3FBE147B3FED
:10BB2000CDAC7B3F283B7C3FC9BF7C3FAC3A7D3FDF
:10BB3000CCAB7D3F23137E3FB0707E3F6DC47E3F14
:10BB4000580E7F3F6D4E7F3FAB847F3F0FB17F3FED
:10BB500097D37F3F43EC7F3F11FB7F3F0000803F47
:10BB600011FB7F3F43EC7F3F97D37F3F0FB17F3F78
:10BB7000AB847F3F6D4E7F3F580E7F3F6DC47E3F4D
:10BB8000B0707E3F23137E3FCCAB7D3FAC3A7D3F10
:10BB9000C9BF7C3F283B7C3FCDAC7B3FBE147B3F85
:10BBA00002737A3F9DC7793F9812793FF853783FE7
:10BBB000C58B773F07BA763FC6DE753F0BFA743FF9
:10BBC000DD0B743F4714733F5213723F0809713FF6
:10BBD00073F56F3F9ED86E3F93B26D3F5E836C3FAF
:10BBE0000C4B6B3FA7096A3F3CBF683FD86B673F70
:10BBF000880F663F59AA643F5A3C633F97C5613F2F
:10BC00002146603F05BE5E3F532D5D3F1A945B3F6A
:10BC10006AF2593F5348583FE595563F31DB543F50
:10BC20004918533F3D4D513F207A4F3F029F4D3FB2
:10BC3000F8BB4B3F12D1493F65DE473F03E4453F28
:10BC400001E2433F70D8413F67C73F3FF9AE3D3FF8
:10BC50003B8F3B3F4268393F233A373FF304353F40
:10BC6000C9C8323FBB85303FDE3B2E3F4AEB2B3FFE
:10BC70001594293F5636273F25D2243F9967223F06
:10BC8000CBF61F3FD17F1D3FC6021B3FC07F183F31
:10BC9000D9F6153F2A68133FCDD3103FDA390E3F4E
:10BCA0006B9A0B3F9BF5083F824B063F3D9C033F41
:10BCB000E4E7003F275DFC3ECBE0F63EEA5AF13E6A
:10BCC000BBCBEB3E7533E63E4F92E03E80E8DA3E7A
:10BCD0004136D53ECA7BCF3E53B9C93E15EFC33E70
:10BCE000491DBE3E2A44B83EEF63B23ED47CAC3E12
:10BCF000128FA63EE59AA03E86A09A3E32A0943EC0
:10BD0000229A8E3E938E883EC07D823ECCCF783E76
:10BD10007F9A6C3E135C603E0115543EC2C5473E9F
:10BD2000CF6E3B3EA2102F3EB5AB223E8340163E67
:10BD300087CF093E73B2FA3D2FBCE13D36BDC83D09
:10BD400080B6AF3D04A9963D752B7B3D2EFB483D4B
:10BD50002BC3163DB10AC93C920E493C00000000BD
:10BD6000920E49BCB10AC9BC2BC316BD2EFB48BDFF
:10BD7000752B7BBD04A996BD80B6AFBD36BDC8BDD1
:10BD80002FBCE1BD73B2FABD87CF09BE834016BE9A
:10BD9000B5AB22BEA2102FBECF6E3BBEC2C547BE02
:10BDA000011554BE135C60BE7F9A6CBECCCF78BECA
:10BDB000C07D82BE938E88BE229A8EBE32A094BE73
:10BDC00086A09ABEE59AA0BE128FA6BED47CACBE59
:10BDD000EF63B2BE2A44B8BE491DBEBE15EFC3BE56
:10BDE00053B9C9BECA7BCFBE4136D5BE80E8DABEE4
:10BDF0004F92E0BE7533E6BEBBCBEBBEEA5AF1BE56
:10BE0000CBE0F6BE275DFCBEE4E700BF3D9C03BF70
:10BE1000824B06BF9BF508BF6B9A0BBFDA390EBF8A
:10BE2000CDD310BF2A6813BFD9F615BFC07F18BF86
:10BE3000C6021BBFD17F1DBFCBF61FBF996722BFB4
:10BE400025D224BF563627BF159429BF4AEB2BBFF6
:10BE5000DE3B2EBFBB8530BFC9C832BFF30435BF40
:10BE6000233A37BF426839BF3B8F3BBFF9AE3DBF76
:10BE700067C73FBF70D841BF01E243BF03E445BF7E
:10BE800065DE47BF12D149BFF8BB4BBF029F4DBF14
:10BE9000207A4FBF3D4D51BF491853BF31DB54BFCE
:10BEA000E59556BF534858BF6AF259BF1A945BBF15
:10BEB000532D5DBF05BE5EBF214660BF97C561BF04
:10BEC0005A3C63BF59AA64BF880F66BFD86B67BF6F
:10BED0003CBF68BFA7096ABF0C4B6BBF5E836CBFDA
:10BEE00093B26DBF9ED86EBF73F56FBF080971BF67
:10BEF000521372BF471473BFDD0B74BF0BFA74BFCC
:10BF0000C6DE75BF07BA76BFC58B77BFF85378BF5B
:10BF1000981279BF9DC779BF02737ABFBE147BBFE9
:10BF2000CDAC7BBF283B7CBFC9BF7CBFAC3A7DBFDB
:10BF3000CCAB7DBF23137EBFB0707EBF6DC47EBF10
:10BF4000580E7FBF6D4E7FBFAB847FBF0FB17FBFE9
:10BF500097D37FBF43EC7FBF11FB7FBF000080BF43
:10BF600011FB7FBF43EC7FBF97D37FBF0FB17FBF74
:10BF7000AB847FBF6D4E7FBF580E7FBF6DC47EBF49
:10BF8000B0707EBF23137EBFCCAB7DBFAC3A7DBF0C
:10BF9000C9BF7CBF283B7CBFCDAC7BBFBE147BBF81
:10BFA00002737ABF9DC779BF981279BFF85378BFE3
:10BFB000C58B77BF07BA76BFC6DE75BF0BFA74BFF5
:10BFC000DD0B74BF471473BF521372BF080971BFF2
:10BFD00073F56FBF9ED86EBF93B26DBF5E836CBFAB
:10BFE0000C4B6BBFA7096ABF3CBF68BFD86B67BF6C
:10BFF000880F66BF59AA64BF5A3C63BF97C561BF2B
:10C00000214660BF05BE5EBF532D5DBF1A945BBF66
:10C010006AF259BF534858BFE59556BF31DB54BF4C
:10C02000491853BF3D4D51BF207A4FBF029F4DBFAE
:10C03000F8BB4BBF12D149BF65DE47BF03E445BF24
:10C0400001E243BF70D841BF67C73FBFF9AE3DBFF4
:10C050003B8F3BBF426839BF233A37BFF30435BF3C
:10C06000C9C832BFBB8530BFDE3B2EBF4AEB2BBFFA
:10C07000159429BF563627BF25D224BF996722BF02
:10C08000CBF61FBFD17F1DBFC6021BBFC07F18BF2D
:10C09000D9F615BF2A6813BFCDD310BFDA390EBF4A
:10C0A0006B9A0BBF9BF508BF824B06BF3D9C03BF3D
:10C0B000E4E700BF275DFCBECBE0F6BEEA5AF1BE66
:10C0C000BBCBEBBE7533E6BE4F92E0BE80E8DABE76
:10C0D0004136D5BECA7BCFBE53B9C9BE15EFC3BE6C
:10C0E000491DBEBE2A44B8BEEF63B2BED47CACBE0E
:10C0F000128FA6BEE59AA0BE86A09ABE32A094BEBC
:10C10000229A8EBE938E88BEC07D82BECCCF78BE72
:10C110007F9A6CBE135C60BE011554BEC2C547BE9B
:10C12000CF6E3BBEA2102FBEB5AB22BE834016BE63
:10C1300087CF09BE73B2FABD2FBCE1BD36BDC8BD05
:10C1400080B6AFBD04A996BD752B7BBD2EFB48BD47
:10C150002BC316BDB10AC9BC920E49BC00000080B9
:10C1600020202020202020202020202020202020CF
:10C170002020202020202020202F202020202020B0
:10C1800020202020202020202020202020200D0AD8
:10C190000020202F20202020292020202F20202098
:10C1A00029202F20202029202F2020202F202F2041
:10C1B0002020202F2020202020205C202020200D47
:10C1C0000A00202020205F5F5F5F202020202020A9
:10C1D000202020202020202020202020202020205F
:10C1E0002020205F5F202020202020205F5F202053
:10C1F0000D0A002D2D2D2F5F5F202F2D2D2D2D2D84
:10C200005F5F2D2D2D2F5F5F2D2D2D2D2D2D2D2D94
:10C210002D2F2D2D2D2D2F2D2D2D2D5C2D2D2D2D1B
:10C220002D0D0A00202020202F2020202920202032
:10C23000202020202020202F2020202020202020EF
:10C240002020202F20202020292020202F202020C7
:10C25000205C0D0A005F2F5F5F5F5F2F5F5F5F28CD
:10C260005F5F5F285F285F5F5F2F5F285F5F5F2FE3
:10C270005F285F5F5F5F2F5F5F5F285F5F5F5F2F9C
:10C280005F5F5F0D0A005F5F5F5F5F5F5F5F5F5FC4
:10C290005F5F5F5F5F5F5F5F5F5F5F5F5F5F5F5FAE
:10C2A0005F5F5F5F5F5F5F5F5F5F5F5F5F5F5F5F9E
:10C2B0005F5F5F5F0D0A002E2E2F2E2E2F2E2E2F4A
:10C2C000426162794F532F626F732F636F72652FD4
:10C2D000625F636F72652E630062496E6974002548
:10C2E000640909253136730925640D0A0025732078
:10C2F0006572720D0A002E2E2F2E2E2F2E2E2F42FB
:10C300006162794F532F626F732F636F72652F6273
:10C310005F6465766963652E63006E756C6C00748E
:10C3200066740062446576696365496E6974002EBF
:10C330002E2F2E2E2F2E2E2F426162794F532F62D9
:10C340006F732F746869726470617274792F61728F
:10C350006D2D32642F626F735F61726D2D32642FA9
:10C360005F5F61726D5F32645F636F72652E630041
:10C370004E554C4C20213D20707454617267657499
:10C38000002E2E2F2E2E2F2E2E2F426162794F53EC
:10C390002F626F732F746869726470617274792F81
:10C3A00061726D2D32642F626F735F61726D2D3219
:10C3B000642F5F5F61726D5F32645F636F6C6F7576
:10C3C000725F66696C6C696E675F776974685F61DC
:10C3D0006C7068612E630041524D5F32445F434F81
:10C3E0004C4F55525F524742353635203D3D204F28
:10C3F000505F434F52452E70744F702D3E496E660C
:10C400006F2E436F6C6F75722E6368536368656D32
:10C41000650041524D5F32445F434F4C4F55525F70
:10C42000535A5F3136424954203D3D204F505F43BF
:10C430004F52452E70744F702D3E496E666F2E43DD
:10C440006F6C6F75722E7533436F6C6F7572535AC4
:10C45000002E2E2F2E2E2F2E2E2F426162794F531B
:10C460002F626F732F746869726470617274792FB0
:10C4700061726D2D32642F626F735F61726D2D3248
:10C48000642F61726D5F32645F647261772E630046
:10C490002E2E2F2E2E2F2E2E2F426162794F532FAC
:10C4A000626F732F746869726470617274792F613E
:10C4B000726D2D32642F626F735F61726D2D326405
:10C4C0002F61726D5F32645F68656C7065722E6398
:10C4D000002E2E2F2E2E2F2E2E2F426162794F539B
:10C4E0002F626F732F746869726470617274792F30
:10C4F00061726D2D32642F626F735F61726D2D32C8
:10C50000642F61726D5F32645F68656C7065725F25
:10C510007066622E63004E554C4C20213D20706C9D
:10C5200054696D657374616D70004E554C4C2021DB
:10C530003D20746869732E744346472E44657065C8
:10C540006E64656E63792E6576744F6E44726177A2
:10C55000696E672E666E48616E646C6572002E2E81
:10C560002F2E2E2F2E2E2F426162794F532F626F66
:10C57000732F746869726470617274792F61726D5F
:10C580002D32642F626F735F61726D2D32642F6183
:10C59000726D5F32645F68656C7065725F7363654E
:10C5A0006E652E63002E2E2F2E2E2F2E2E2F4261E3
:10C5B00062794F532F626F732F7468697264706170
:10C5C0007274792F61726D2D32642F626F735F61A7
:10C5D000726D2D32642F627573795F776865656C53
:10C5E0002E63002E2E2F2E2E2F2E2E2F426162799B
:10C5F0004F532F626F732F74686972647061727425
:10C60000792F61726D2D32642F626F735F61726D6D
:10C610002D32642F6C63645F7072696E74662E6372
:10C62000002E2E2F2E2E2F2E2E2F426162794F5349
:10C630002F626F732F746869726470617274792FDE
:10C6400061726D2D32642F626F735F61726D2D3276
:10C65000642F73686170655F726F756E645F636F7E
:10C66000726E65725F626F782E63002E2E2F2E2EF3
:10C670002F2E2E2F426162794F532F626F732F74CA
:10C680006869726470617274792F61726D2D3264A1
:10C690002F626F735F61726D2D32642F61726D5FF7
:10C6A00032645F646973705F616461707465725F46
:10C6B000302E630070C9000800000020D80100007F
:10C6C000380A0008D0C90008D801002070540000C2
:10C6D000CCA000080000001377C9EDEFD1841E0044
:10C6E0000000000040D5FFFFFFFFFFFFE155000005
:10C6F000003DF1FFFFFFFFFFFFFFFFFB56000FD4E0
:10C70000FFFFFFFFFFFFFFFFFFFFE8206BFFFFFFC3
:10C71000FFFFFFFFFFFFFFFFFF8FBEFFFFFFFFFFDA
:10C72000FFFFFFFFFFFFFFDEE1FFFFFFFFFFFFFF58
:10C73000FFFFFFFFFFFAE1FFFFFFFFFFFFFFFFFF2C
:10C74000FFFFFFFABDFFFFFFFFFFFFFFFFFFFFFF40
:10C75000FFDD6AFFFFFFFFFFFFFFFFFFFFFFFF8D12
:10C760000FD3FFFFFFFFFFFFFFFFFFFFE71F003BB0
:10C77000F0FFFFFFFFFFFFFFFFFA540000003ED372
:10C78000FFFFFFFFFFFFE05200000000001273C632
:10C79000EAECCE811C000000000000000000FFFF5A
:10C7A000FFFFFFFFFFFFFFFFFFFFFFFFFFFF000097
:10C7B0000000000000000000FFFFFFFFFFFFFFFF81
:10C7C000FFFFFFFFFFFFFFFFFFFFFFFF0000000075
:10C7D0000000FFFFFFFFFFFFFFFFFFFFFFFFFFFF67
:10C7E000FFFFFFFFFFFFFFFFFFFF0000FFFFFFFF57
:10C7F000FFFFFFFFFFFFFFFFFFFFFFFFFFFFFFFF49
:10C80000FFFFFFFFFFFFFFFFFFFFFFFFFFFFFFFF38
:10C81000FFFFFFFFFFFFFFFFFFFFFFFFFFFFFFFF28
:10C82000FFFFFFFFFFFFFFFFFFFFFFFFFFFFFFFF18
:10C83000FFFFFFFFFFFFFFFFFFFFFFFFFFFFFFFF08
:10C84000FFFFFFFFFFFFFFFFFFFFFFFFFFFFFFFFF8
:10C85000FFFFFFFFFFFFFFFFFFFFFFFFFFFFFFFFE8
:10C86000FFFFFFFFFFFFFFFFFFFFFFFFFFFFFFFFD8
:10C87000FFFFFFFFFFFFFFFFFFFFFFFFFFFFFFFFC8
:10C88000FFFFFFFFFFFFFFFFFFFFFFFFFFFFFFFFB8
:10C89000FFFFFFFFFFFFFFFFFFFFFFFFFFFFFFFFA8
:10C8A000FFFFFFFFFFFFFFFFFFFFFFFFFFFFFFFF98
:10C8B000FFFFFFFFFFFFFFFFFFFFFFFFFFFFFFFF88
:10C8C000FFFFFFFFFFFFFFFFFFFFFFFF0000FFFF76
:10C8D000FFFFFFFFFFFFFFFFFFFFFFFFFFFFFFFF68
:10C8E000FFFFFFFFFFFF000000000000FFFFFFFF52
:10C8F000FFFFFFFFFFFFFFFFFFFFFFFFFFFFFFFF48
:10C9000000000000000000000000FFFFFFFFFFFF2D
:10C91000FFFFFFFFFFFFFFFFFFFF00000000000021
:10C9200003000006000000000E000E00D4C6000840
:10C9300003000008000000000E000E0098C7000869
:10C94000E75A0008ED5F000829600008ED5A00086A
:10C95000C15B000800000000E95A00081500000053
:10C96000B983000800000000E95A00080000000038
:10C9700051420155FFFFFFFF521E35093D0018339C
:10C98000201833202033202033202833202803147C
:10C99000200A95C35800080911C1580008BF580063
:10C9A00008C20104FFF000F00128330B01863805AE
:10C9B00000200164F000F064F000F033E00742FF73
:10C9C00055FFFFFFFF4630AA00080142100000009B
:040000050800018D61
:00000001FF
