Component: ARM Compiler 6.14 Tool: armlink [5db06800]

==============================================================================

Section Cross References

    startup_stm32l431xx.o(RESET) refers to startup_stm32l431xx.o(STACK) for __initial_sp
    startup_stm32l431xx.o(RESET) refers to startup_stm32l431xx.o(.text) for Reset_Handler
    startup_stm32l431xx.o(RESET) refers to stm32l4xx_it.o(.text.NMI_Handler) for NMI_Handler
    startup_stm32l431xx.o(RESET) refers to stm32l4xx_it.o(.text.HardFault_Handler) for HardFault_Handler
    startup_stm32l431xx.o(RESET) refers to stm32l4xx_it.o(.text.MemManage_Handler) for MemManage_Handler
    startup_stm32l431xx.o(RESET) refers to stm32l4xx_it.o(.text.BusFault_Handler) for BusFault_Handler
    startup_stm32l431xx.o(RESET) refers to stm32l4xx_it.o(.text.UsageFault_Handler) for UsageFault_Handler
    startup_stm32l431xx.o(RESET) refers to stm32l4xx_it.o(.text.SVC_Handler) for SVC_Handler
    startup_stm32l431xx.o(RESET) refers to stm32l4xx_it.o(.text.DebugMon_Handler) for DebugMon_Handler
    startup_stm32l431xx.o(RESET) refers to stm32l4xx_it.o(.text.PendSV_Handler) for PendSV_Handler
    startup_stm32l431xx.o(RESET) refers to stm32l4xx_it.o(.text.SysTick_Handler) for SysTick_Handler
    startup_stm32l431xx.o(RESET) refers to stm32l4xx_it.o(.text.USART1_IRQHandler) for USART1_IRQHandler
    startup_stm32l431xx.o(RESET) refers to stm32l4xx_it.o(.text.LPUART1_IRQHandler) for LPUART1_IRQHandler
    startup_stm32l431xx.o(.text) refers to system_stm32l4xx.o(.text.SystemInit) for SystemInit
    startup_stm32l431xx.o(.text) refers to entry.o(.ARM.Collect$$$$00000000) for __main
    main.o(.text.main) refers to stm32l4xx_hal.o(.text.HAL_Init) for HAL_Init
    main.o(.text.main) refers to main.o(.text.SystemClock_Config) for SystemClock_Config
    main.o(.text.main) refers to stm32l4xx_hal_gpio.o(.text.HAL_GPIO_WritePin) for HAL_GPIO_WritePin
==============================================================================

Removing Unused input sections from the image.

    Removing startup_stm32l431xx.o(HEAP), (512 bytes).
    Removing main.o(.text), (0 bytes).
    Removing main.o(.ARM.exidx.text.main), (8 bytes).
    Removing main.o(.ARM.exidx.text.SystemClock_Config), (8 bytes).
    Removing main.o(.ARM.exidx.text.Error_Handler), (8 bytes).
    Removing main.o(.bss.hqspi), (76 bytes).
    Removing main.o(.bss.hsd1), (132 bytes).
    Removing main.o(.ARM.use_no_argv), (4 bytes).
    Removing stm32l4xx_it.o(.text), (0 bytes).
    Removing stm32l4xx_it.o(.ARM.exidx.text.NMI_Handler), (8 bytes).
    Removing stm32l4xx_it.o(.ARM.exidx.text.HardFault_Handler), (8 bytes).
    Removing stm32l4xx_it.o(.ARM.exidx.text.MemManage_Handler), (8 bytes).
    Removing stm32l4xx_it.o(.ARM.exidx.text.BusFault_Handler), (8 bytes).
    Removing stm32l4xx_it.o(.ARM.exidx.text.UsageFault_Handler), (8 bytes).
    Removing stm32l4xx_it.o(.ARM.exidx.text.SVC_Handler), (8 bytes).
    Removing stm32l4xx_it.o(.ARM.exidx.text.DebugMon_Handler), (8 bytes).
    Removing stm32l4xx_it.o(.ARM.exidx.text.PendSV_Handler), (8 bytes).
    Removing stm32l4xx_it.o(.ARM.exidx.text.SysTick_Handler), (8 bytes).
==============================================================================

Image Symbol Table

    Local Symbols

    Symbol Name                              Value     Ov Type        Size  Object(Section)

    ../clib/../cmprslib/zerorunl.c           0x00000000   Number         0  __dczerorl.o ABSOLUTE
    ../clib/microlib/division.c              0x00000000   Number         0  uldiv.o ABSOLUTE
    ../clib/microlib/division.c              0x00000000   Number         0  ldiv.o ABSOLUTE
    ../clib/microlib/division.c              0x00000000   Number         0  uidiv.o ABSOLUTE
    ../clib/microlib/errno.c                 0x00000000   Number         0  errno.o ABSOLUTE
    ../clib/microlib/init/entry.s            0x00000000   Number         0  entry.o ABSOLUTE
    ../clib/microlib/init/entry.s            0x00000000   Number         0  entry2.o ABSOLUTE
    ../clib/microlib/init/entry.s            0x00000000   Number         0  entry5.o ABSOLUTE
    ../clib/microlib/init/entry.s            0x00000000   Number         0  entry7a.o ABSOLUTE
    ../clib/microlib/init/entry.s            0x00000000   Number         0  entry7b.o ABSOLUTE
    ../clib/microlib/init/entry.s            0x00000000   Number         0  entry8a.o ABSOLUTE
    ../clib/microlib/init/entry.s            0x00000000   Number         0  entry8b.o ABSOLUTE
    ../clib/microlib/init/entry.s            0x00000000   Number         0  entry9a.o ABSOLUTE
    ../clib/microlib/init/entry.s            0x00000000   Number         0  entry9b.o ABSOLUTE
    ../clib/microlib/init/entry.s            0x00000000   Number         0  entry10a.o ABSOLUTE
    ../clib/microlib/init/entry.s            0x00000000   Number         0  entry10b.o ABSOLUTE
    ../clib/microlib/init/entry.s            0x00000000   Number         0  entry11a.o ABSOLUTE
    ../clib/microlib/init/entry.s            0x00000000   Number         0  entry11b.o ABSOLUTE
    ../clib/microlib/longlong.c              0x00000000   Number         0  llshl.o ABSOLUTE
    ../clib/microlib/longlong.c              0x00000000   Number         0  llushr.o ABSOLUTE
    ../clib/microlib/longlong.c              0x00000000   Number         0  llsshr.o ABSOLUTE
    ../clib/microlib/malloc/malloc.c         0x00000000   Number         0  malloc.o ABSOLUTE
    ../clib/microlib/malloc/malloc.c         0x00000000   Number         0  mallocr.o ABSOLUTE
    ../clib/microlib/malloc/malloc.c         0x00000000   Number         0  malloca.o ABSOLUTE
    ../clib/microlib/malloc/malloc.c         0x00000000   Number         0  mallocra.o ABSOLUTE
    ../clib/microlib/malloc/mvars.c          0x00000000   Number         0  mvars.o ABSOLUTE
    ../clib/microlib/printf/printf.c         0x00000000   Number         0  printfb.o ABSOLUTE
    ../clib/microlib/printf/printf.c         0x00000000   Number         0  printf0.o ABSOLUTE
    ../clib/microlib/printf/printf.c         0x00000000   Number         0  printf1.o ABSOLUTE
    ../clib/microlib/printf/printf.c         0x00000000   Number         0  printf2.o ABSOLUTE
    ../clib/microlib/printf/printf.c         0x00000000   Number         0  printf3.o ABSOLUTE
    ../clib/microlib/printf/printf.c         0x00000000   Number         0  printf4.o ABSOLUTE
    ../clib/microlib/printf/printf.c         0x00000000   Number         0  printf5.o ABSOLUTE
    ../clib/microlib/printf/printf.c         0x00000000   Number         0  printf6.o ABSOLUTE
    ../clib/microlib/printf/printf.c         0x00000000   Number         0  printf7.o ABSOLUTE
    ../clib/microlib/printf/printf.c         0x00000000   Number         0  printf8.o ABSOLUTE
    ../clib/microlib/printf/printf.c         0x00000000   Number         0  printfa.o ABSOLUTE
    ../clib/microlib/printf/stubs.s          0x00000000   Number         0  printfstubs.o ABSOLUTE
    ../clib/microlib/stdio/fputs.c           0x00000000   Number         0  fputs.o ABSOLUTE
    ../clib/microlib/stdio/fputs.c           0x00000000   Number         0  fputs_e.o ABSOLUTE
    ../clib/microlib/stdio/streams.c         0x00000000   Number         0  stderr.o ABSOLUTE
    ../clib/microlib/stdio/streams.c         0x00000000   Number         0  stdout.o ABSOLUTE
    ../clib/microlib/stdlib/rand.c           0x00000000   Number         0  rand.o ABSOLUTE
    ../clib/microlib/string/memcpy.c         0x00000000   Number         0  memcpya.o ABSOLUTE
    ../clib/microlib/string/memcpy.c         0x00000000   Number         0  memcpyb.o ABSOLUTE
    ../clib/microlib/string/memset.c         0x00000000   Number         0  memseta.o ABSOLUTE
    ../clib/microlib/string/strlen.c         0x00000000   Number         0  strlen.o ABSOLUTE
    ../clib/microlib/stubs.s                 0x00000000   Number         0  iusefp.o ABSOLUTE
    ../clib/microlib/time/clock.c            0x00000000   Number         0  clock.o ABSOLUTE
    ../fplib/microlib/fpadd.c                0x00000000   Number         0  fadd.o ABSOLUTE
    ../fplib/microlib/fpadd.c                0x00000000   Number         0  dadd.o ABSOLUTE
    ../fplib/microlib/fpcmp.c                0x00000000   Number         0  fcmplt.o ABSOLUTE
    ../fplib/microlib/fpdiv.c                0x00000000   Number         0  ddiv.o ABSOLUTE
    ../fplib/microlib/fpepilogue.c           0x00000000   Number         0  fepilogue.o ABSOLUTE
    ../fplib/microlib/fpepilogue.c           0x00000000   Number         0  depilogue.o ABSOLUTE
    ../fplib/microlib/fpfix.c                0x00000000   Number         0  ffixi.o ABSOLUTE
    ../fplib/microlib/fpfix.c                0x00000000   Number         0  ffixui.o ABSOLUTE
    ../fplib/microlib/fpfix.c                0x00000000   Number         0  dfixui.o ABSOLUTE
    ../fplib/microlib/fpfix.c                0x00000000   Number         0  dfixul.o ABSOLUTE
    ../fplib/microlib/fpfix.c                0x00000000   Number         0  ffixir.o ABSOLUTE
    ../fplib/microlib/fpflt.c                0x00000000   Number         0  fflti.o ABSOLUTE
    ../fplib/microlib/fpflt.c                0x00000000   Number         0  ffltui.o ABSOLUTE
    ../fplib/microlib/fpflt.c                0x00000000   Number         0  ffltl.o ABSOLUTE
    ../fplib/microlib/fpflt.c                0x00000000   Number         0  dfltui.o ABSOLUTE
    ../fplib/microlib/fpmul.c                0x00000000   Number         0  fmul.o ABSOLUTE
    ../fplib/microlib/fpmul.c                0x00000000   Number         0  dmul.o ABSOLUTE
    ../fplib/microlib/fprem.c                0x00000000   Number         0  frem.o ABSOLUTE
    ../fplib/microlib/fprnd.c                0x00000000   Number         0  frnd.o ABSOLUTE
    ../mathlib/fmodf.c                       0x00000000   Number         0  fmodf.o ABSOLUTE
    ../mathlib/fmodf.c                       0x00000000   Number         0  fmodf_x.o ABSOLUTE
    ../mathlib/funder.c                      0x00000000   Number         0  funder.o ABSOLUTE
    ../mathlib/round.c                       0x00000000   Number         0  lroundf.o ABSOLUTE
    ../mathlib/round.c                       0x00000000   Number         0  lroundf_x.o ABSOLUTE
    DigitsFont.c                             0x00000000   Number         0  digitsfont.o ABSOLUTE
    GLCD_Fonts.c                             0x00000000   Number         0  glcd_fonts.o ABSOLUTE
    GreenCircle.c                            0x00000000   Number         0  greencircle.o ABSOLUTE
    Lighting.c                               0x00000000   Number         0  lighting.o ABSOLUTE
    ListCover.c                              0x00000000   Number         0  listcover.o ABSOLUTE
    MeterPanel.c                             0x00000000   Number         0  meterpanel.o ABSOLUTE
    Pointer.c                                0x00000000   Number         0  pointer.o ABSOLUTE
    QuaterArc.c                              0x00000000   Number         0  quaterarc.o ABSOLUTE
    SinWave.c                                0x00000000   Number         0  sinwave.o ABSOLUTE
    SpinWheel.c                              0x00000000   Number         0  spinwheel.o ABSOLUTE
    __arm_2d_colour_filling_with_alpha.c     0x00000000   Number         0  __arm_2d_colour_filling_with_alpha.o ABSOLUTE
    __arm_2d_conversion_helium.c             0x00000000   Number         0  __arm_2d_conversion_helium.o ABSOLUTE
    __arm_2d_core.c                          0x00000000   Number         0  __arm_2d_core.o ABSOLUTE
    __arm_2d_tile.c                          0x00000000   Number         0  __arm_2d_tile.o ABSOLUTE
    __arm_2d_transform_helium.c              0x00000000   Number         0  __arm_2d_transform_helium.o ABSOLUTE
    arm_2d.c                                 0x00000000   Number         0  arm_2d.o ABSOLUTE
    arm_2d_alpha_blending.c                  0x00000000   Number         0  arm_2d_alpha_blending.o ABSOLUTE
    arm_2d_async.c                           0x00000000   Number         0  arm_2d_async.o ABSOLUTE
    arm_2d_conversion.c                      0x00000000   Number         0  arm_2d_conversion.o ABSOLUTE
    arm_2d_disp_adapter_0.c                  0x00000000   Number         0  arm_2d_disp_adapter_0.o ABSOLUTE
    arm_2d_draw.c                            0x00000000   Number         0  arm_2d_draw.o ABSOLUTE
    arm_2d_helium.c                          0x00000000   Number         0  arm_2d_helium.o ABSOLUTE
    arm_2d_helper.c                          0x00000000   Number         0  arm_2d_helper.o ABSOLUTE
    arm_2d_helper_list.c                     0x00000000   Number         0  arm_2d_helper_list.o ABSOLUTE
    arm_2d_helper_pfb.c                      0x00000000   Number         0  arm_2d_helper_pfb.o ABSOLUTE
    arm_2d_helper_scene.c                    0x00000000   Number         0  arm_2d_helper_scene.o ABSOLUTE
    arm_2d_transform.c                       0x00000000   Number         0  arm_2d_transform.o ABSOLUTE
    arm_common_tables.c                      0x00000000   Number         0  arm_common_tables.o ABSOLUTE
    arm_cos_f32.c                            0x00000000   Number         0  arm_cos_f32.o ABSOLUTE
    arm_cos_q31.c                            0x00000000   Number         0  arm_cos_q31.o ABSOLUTE
    arm_sin_f32.c                            0x00000000   Number         0  arm_sin_f32.o ABSOLUTE
    arm_sin_q31.c                            0x00000000   Number         0  arm_sin_q31.o ABSOLUTE
    arrow.c                                  0x00000000   Number         0  arrow.o ABSOLUTE
    b_core.c                                 0x00000000   Number         0  b_core.o ABSOLUTE
    b_device.c                               0x00000000   Number         0  b_device.o ABSOLUTE
    b_drv_st7789.c                           0x00000000   Number         0  b_drv_st7789.o ABSOLUTE
    b_hal.c                                  0x00000000   Number         0  b_hal.o ABSOLUTE
    b_hal_flash.c                            0x00000000   Number         0  b_hal_flash.o ABSOLUTE
    b_hal_gpio.c                             0x00000000   Number         0  b_hal_gpio.o ABSOLUTE
    b_hal_i2c.c                              0x00000000   Number         0  b_hal_i2c.o ABSOLUTE
    b_hal_it.c                               0x00000000   Number         0  b_hal_it.o ABSOLUTE
    b_hal_qspi.c                             0x00000000   Number         0  b_hal_qspi.o ABSOLUTE
    b_hal_sdio.c                             0x00000000   Number         0  b_hal_sdio.o ABSOLUTE
    b_hal_spi.c                              0x00000000   Number         0  b_hal_spi.o ABSOLUTE
    b_hal_uart.c                             0x00000000   Number         0  b_hal_uart.o ABSOLUTE
    b_mod_adchub.c                           0x00000000   Number         0  b_mod_adchub.o ABSOLUTE
    b_mod_button.c                           0x00000000   Number         0  b_mod_button.o ABSOLUTE
    b_mod_error.c                            0x00000000   Number         0  b_mod_error.o ABSOLUTE
    b_mod_fs.c                               0x00000000   Number         0  b_mod_fs.o ABSOLUTE
    b_mod_gui.c                              0x00000000   Number         0  b_mod_gui.o ABSOLUTE
    b_mod_iap.c                              0x00000000   Number         0  b_mod_iap.o ABSOLUTE
    b_mod_kv.c                               0x00000000   Number         0  b_mod_kv.o ABSOLUTE
    b_mod_menu.c                             0x00000000   Number         0  b_mod_menu.o ABSOLUTE
    b_mod_modbus.c                           0x00000000   Number         0  b_mod_modbus.o ABSOLUTE
    b_mod_param.c                            0x00000000   Number         0  b_mod_param.o ABSOLUTE
    b_mod_protocol.c                         0x00000000   Number         0  b_mod_protocol.o ABSOLUTE
    b_mod_pwm.c                              0x00000000   Number         0  b_mod_pwm.o ABSOLUTE
    b_mod_qrcode.c                           0x00000000   Number         0  b_mod_qrcode.o ABSOLUTE
    b_mod_shell.c                            0x00000000   Number         0  b_mod_shell.o ABSOLUTE
    b_mod_state.c                            0x00000000   Number         0  b_mod_state.o ABSOLUTE
    b_mod_trace.c                            0x00000000   Number         0  b_mod_trace.o ABSOLUTE
    b_mod_xm128.c                            0x00000000   Number         0  b_mod_xm128.o ABSOLUTE
    b_mod_ymodem.c                           0x00000000   Number         0  b_mod_ymodem.o ABSOLUTE
    b_queue.c                                0x00000000   Number         0  b_queue.o ABSOLUTE
    b_sem.c                                  0x00000000   Number         0  b_sem.o ABSOLUTE
    b_task.c                                 0x00000000   Number         0  b_task.o ABSOLUTE
    b_timer.c                                0x00000000   Number         0  b_timer.o ABSOLUTE
    b_util_fifo.c                            0x00000000   Number         0  b_util_fifo.o ABSOLUTE
    b_util_log.c                             0x00000000   Number         0  b_util_log.o ABSOLUTE
    b_util_lunar.c                           0x00000000   Number         0  b_util_lunar.o ABSOLUTE
    b_util_memp.c                            0x00000000   Number         0  b_util_memp.o ABSOLUTE
    b_util_utc.c                             0x00000000   Number         0  b_util_utc.o ABSOLUTE
    background.c                             0x00000000   Number         0  background.o ABSOLUTE
    battery_boarder_1.c                      0x00000000   Number         0  battery_boarder_1.o ABSOLUTE
    battery_gasgauge.c                       0x00000000   Number         0  battery_gasgauge.o ABSOLUTE
    battery_gasgauge_block.c                 0x00000000   Number         0  battery_gasgauge_block.o ABSOLUTE
    battery_gasgauge_grade_boarder.c         0x00000000   Number         0  battery_gasgauge_grade_boarder.o ABSOLUTE
    blue_slashes.c                           0x00000000   Number         0  blue_slashes.o ABSOLUTE
    busy_wheel.c                             0x00000000   Number         0  busy_wheel.o ABSOLUTE
    cdrcmple.s                               0x00000000   Number         0  cdrcmple.o ABSOLUTE
    circle_mask.c                            0x00000000   Number         0  circle_mask.o ABSOLUTE
    circle_small.c                           0x00000000   Number         0  circle_small.o ABSOLUTE
    clockface.c                              0x00000000   Number         0  clockface.o ABSOLUTE
    cmsis_logo.c                             0x00000000   Number         0  cmsis_logo.o ABSOLUTE
    controls.c                               0x00000000   Number         0  controls.o ABSOLUTE
    dc.s                                     0x00000000   Number         0  dc.o ABSOLUTE
    dynamic_nebula.c                         0x00000000   Number         0  dynamic_nebula.o ABSOLUTE
    gear_01.c                                0x00000000   Number         0  gear_01.o ABSOLUTE
    gear_02.c                                0x00000000   Number         0  gear_02.o ABSOLUTE
    glass_reflection_narrow.c                0x00000000   Number         0  glass_reflection_narrow.o ABSOLUTE
    glass_reflection_wide.c                  0x00000000   Number         0  glass_reflection_wide.o ABSOLUTE
    green28_28.c                             0x00000000   Number         0  green28_28.o ABSOLUTE
    handlers.s                               0x00000000   Number         0  handlers.o ABSOLUTE
    helium.c                                 0x00000000   Number         0  helium.o ABSOLUTE
    init.s                                   0x00000000   Number         0  init.o ABSOLUTE
    lcd_printf.c                             0x00000000   Number         0  lcd_printf.o ABSOLUTE
    list_view.c                              0x00000000   Number         0  list_view.o ABSOLUTE
    main.c                                   0x00000000   Number         0  main.o ABSOLUTE
    mcu_stm32l41x_flash.c                    0x00000000   Number         0  mcu_stm32l41x_flash.o ABSOLUTE
    mcu_stm32l41x_gpio.c                     0x00000000   Number         0  mcu_stm32l41x_gpio.o ABSOLUTE
    mcu_stm32l41x_i2c.c                      0x00000000   Number         0  mcu_stm32l41x_i2c.o ABSOLUTE
    mcu_stm32l41x_it.c                       0x00000000   Number         0  mcu_stm32l41x_it.o ABSOLUTE
    mcu_stm32l41x_qspi.c                     0x00000000   Number         0  mcu_stm32l41x_qspi.o ABSOLUTE
    mcu_stm32l41x_sdio.c                     0x00000000   Number         0  mcu_stm32l41x_sdio.o ABSOLUTE
    mcu_stm32l41x_spi.c                      0x00000000   Number         0  mcu_stm32l41x_spi.o ABSOLUTE
    mcu_stm32l41x_uart.c                     0x00000000   Number         0  mcu_stm32l41x_uart.o ABSOLUTE
    number_list.c                            0x00000000   Number         0  number_list.o ABSOLUTE
    pointer_sec.c                            0x00000000   Number         0  pointer_sec.o ABSOLUTE
    progress_bar_drill.c                     0x00000000   Number         0  progress_bar_drill.o ABSOLUTE
    progress_bar_flowing.c                   0x00000000   Number         0  progress_bar_flowing.o ABSOLUTE
    progress_bar_simple.c                    0x00000000   Number         0  progress_bar_simple.o ABSOLUTE
    progress_wheel.c                         0x00000000   Number         0  progress_wheel.o ABSOLUTE
    qrcode.c                                 0x00000000   Number         0  qrcode.o ABSOLUTE
    retarget_io.c                            0x00000000   Number         0  retarget_io.o ABSOLUTE
    shape_round_corner_box.c                 0x00000000   Number         0  shape_round_corner_box.o ABSOLUTE
    small_icon_sun.c                         0x00000000   Number         0  small_icon_sun.o ABSOLUTE
    software.c                               0x00000000   Number         0  software.o ABSOLUTE
    spinning_wheel.c                         0x00000000   Number         0  spinning_wheel.o ABSOLUTE
    star.c                                   0x00000000   Number         0  star.o ABSOLUTE
    startup_stm32l431xx.s                    0x00000000   Number         0  startup_stm32l431xx.o ABSOLUTE
    stm32l4xx_hal.c                          0x00000000   Number         0  stm32l4xx_hal.o ABSOLUTE
    stm32l4xx_hal_adc.c                      0x00000000   Number         0  stm32l4xx_hal_adc.o ABSOLUTE
    stm32l4xx_hal_adc_ex.c                   0x00000000   Number         0  stm32l4xx_hal_adc_ex.o ABSOLUTE
    stm32l4xx_hal_cortex.c                   0x00000000   Number         0  stm32l4xx_hal_cortex.o ABSOLUTE
    stm32l4xx_hal_dma.c                      0x00000000   Number         0  stm32l4xx_hal_dma.o ABSOLUTE
    stm32l4xx_hal_dma_ex.c                   0x00000000   Number         0  stm32l4xx_hal_dma_ex.o ABSOLUTE
    stm32l4xx_hal_flash.c                    0x00000000   Number         0  stm32l4xx_hal_flash.o ABSOLUTE
    stm32l4xx_hal_flash_ex.c                 0x00000000   Number         0  stm32l4xx_hal_flash_ex.o ABSOLUTE
    stm32l4xx_hal_flash_ramfunc.c            0x00000000   Number         0  stm32l4xx_hal_flash_ramfunc.o ABSOLUTE
    stm32l4xx_hal_gpio.c                     0x00000000   Number         0  stm32l4xx_hal_gpio.o ABSOLUTE
    stm32l4xx_hal_i2c.c                      0x00000000   Number         0  stm32l4xx_hal_i2c.o ABSOLUTE
    stm32l4xx_hal_i2c_ex.c                   0x00000000   Number         0  stm32l4xx_hal_i2c_ex.o ABSOLUTE
    stm32l4xx_hal_iwdg.c                     0x00000000   Number         0  stm32l4xx_hal_iwdg.o ABSOLUTE
    stm32l4xx_hal_mmc.c                      0x00000000   Number         0  stm32l4xx_hal_mmc.o ABSOLUTE
    stm32l4xx_hal_mmc_ex.c                   0x00000000   Number         0  stm32l4xx_hal_mmc_ex.o ABSOLUTE
    stm32l4xx_hal_msp.c                      0x00000000   Number         0  stm32l4xx_hal_msp.o ABSOLUTE
    stm32l4xx_hal_pwr.c                      0x00000000   Number         0  stm32l4xx_hal_pwr.o ABSOLUTE
    stm32l4xx_hal_pwr_ex.c                   0x00000000   Number         0  stm32l4xx_hal_pwr_ex.o ABSOLUTE
    stm32l4xx_hal_qspi.c                     0x00000000   Number         0  stm32l4xx_hal_qspi.o ABSOLUTE
    stm32l4xx_hal_rcc.c                      0x00000000   Number         0  stm32l4xx_hal_rcc.o ABSOLUTE
    stm32l4xx_hal_rcc_ex.c                   0x00000000   Number         0  stm32l4xx_hal_rcc_ex.o ABSOLUTE
    stm32l4xx_hal_sd.c                       0x00000000   Number         0  stm32l4xx_hal_sd.o ABSOLUTE
    stm32l4xx_hal_sd_ex.c                    0x00000000   Number         0  stm32l4xx_hal_sd_ex.o ABSOLUTE
    stm32l4xx_hal_smartcard.c                0x00000000   Number         0  stm32l4xx_hal_smartcard.o ABSOLUTE
    stm32l4xx_hal_smartcard_ex.c             0x00000000   Number         0  stm32l4xx_hal_smartcard_ex.o ABSOLUTE
    stm32l4xx_hal_spi.c                      0x00000000   Number         0  stm32l4xx_hal_spi.o ABSOLUTE
    stm32l4xx_hal_spi_ex.c                   0x00000000   Number         0  stm32l4xx_hal_spi_ex.o ABSOLUTE
    stm32l4xx_hal_tim.c                      0x00000000   Number         0  stm32l4xx_hal_tim.o ABSOLUTE
    stm32l4xx_hal_tim_ex.c                   0x00000000   Number         0  stm32l4xx_hal_tim_ex.o ABSOLUTE
    stm32l4xx_hal_uart.c                     0x00000000   Number         0  stm32l4xx_hal_uart.o ABSOLUTE
    stm32l4xx_hal_uart_ex.c                  0x00000000   Number         0  stm32l4xx_hal_uart_ex.o ABSOLUTE
    stm32l4xx_hal_usart.c                    0x00000000   Number         0  stm32l4xx_hal_usart.o ABSOLUTE
    stm32l4xx_hal_usart_ex.c                 0x00000000   Number         0  stm32l4xx_hal_usart_ex.o ABSOLUTE
    stm32l4xx_hal_wwdg.c                     0x00000000   Number         0  stm32l4xx_hal_wwdg.o ABSOLUTE
    stm32l4xx_it.c                           0x00000000   Number         0  stm32l4xx_it.o ABSOLUTE
    stm32l4xx_ll_sdmmc.c                     0x00000000   Number         0  stm32l4xx_ll_sdmmc.o ABSOLUTE
    system_stm32l4xx.c                       0x00000000   Number         0  system_stm32l4xx.o ABSOLUTE
    ugui.c                                   0x00000000   Number         0  ugui.o ABSOLUTE
    watch_panel.c                            0x00000000   Number         0  watch_panel.o ABSOLUTE
    wave.c                                   0x00000000   Number         0  wave.o ABSOLUTE
    white_dot.c                              0x00000000   Number         0  white_dot.o ABSOLUTE
    wifi_signal.c                            0x00000000   Number         0  wifi_signal.o ABSOLUTE
    RESET                                    0x08000000   Section      396  startup_stm32l431xx.o(RESET)
    .ARM.Collect$$$$00000000                 0x0800018c   Section        0  entry.o(.ARM.Collect$$$$00000000)
    .ARM.Collect$$$$00000001                 0x0800018c   Section        4  entry2.o(.ARM.Collect$$$$00000001)
    .ARM.Collect$$$$00000004                 0x08000190   Section        4  entry5.o(.ARM.Collect$$$$00000004)
    .ARM.Collect$$$$00000008                 0x08000194   Section        0  entry7b.o(.ARM.Collect$$$$00000008)
    .ARM.Collect$$$$0000000A                 0x08000194   Section        0  entry8b.o(.ARM.Collect$$$$0000000A)
    .ARM.Collect$$$$0000000B                 0x08000194   Section        8  entry9a.o(.ARM.Collect$$$$0000000B)
    __lit__00000000                          0x0800019c   Data           4  entry2.o(.ARM.Collect$$$$00002712)
    .ARM.Collect$$$$0000000D                 0x0800019c   Section        0  entry10a.o(.ARM.Collect$$$$0000000D)
    .ARM.Collect$$$$0000000F                 0x0800019c   Section        0  entry11a.o(.ARM.Collect$$$$0000000F)
    .ARM.Collect$$$$00002712                 0x0800019c   Section        4  entry2.o(.ARM.Collect$$$$00002712)
    $v0                                      0x080001a0   Number         0  startup_stm32l431xx.o(.text)
    .text                                    0x080001a0   Section       36  startup_stm32l431xx.o(.text)
    .text                                    0x080001c4   Section        0  uldiv.o(.text)
    .text                                    0x0800022c   Section        0  ldiv.o(.text)
    .text                                    0x0800028e   Section        0  memcpya.o(.text)
    .text                                    0x080002b2   Section        0  memseta.o(.text)
    .text                                    0x080002d6   Section        0  strlen.o(.text)
    .text                                    0x080002e4   Section        0  fadd.o(.text)
    .text                                    0x08000394   Section        0  fmul.o(.text)
    .text                                    0x080003f8   Section        0  dmul.o(.text)
    .text                                    0x080004e2   Section        0  ddiv.o(.text)
    .text                                    0x080005c0   Section        0  fcmplt.o(.text)
    .text                                    0x080005dc   Section        0  fflti.o(.text)
    .text                                    0x080005ee   Section        0  ffltui.o(.text)
    .text                                    0x080005f8   Section        0  dfltui.o(.text)
    .text                                    0x08000612   Section        0  ffixi.o(.text)
    .text                                    0x08000644   Section        0  ffixui.o(.text)
    .text                                    0x0800066c   Section        0  dfixui.o(.text)
    .text                                    0x0800069e   Section        0  uidiv.o(.text)
    .text                                    0x080006ca   Section        0  llshl.o(.text)
    .text                                    0x080006e8   Section        0  llushr.o(.text)
    .text                                    0x08000708   Section        0  iusefp.o(.text)
    .text                                    0x08000708   Section        0  fepilogue.o(.text)
    .text                                    0x08000776   Section        0  depilogue.o(.text)
    .text                                    0x08000830   Section        0  dadd.o(.text)
    .text                                    0x0800098e   Section        0  dfixul.o(.text)
    .text                                    0x080009c0   Section       48  cdrcmple.o(.text)
    .text                                    0x080009f0   Section       36  init.o(.text)
    .text                                    0x08000a14   Section        0  llsshr.o(.text)
    .text                                    0x08000a38   Section        0  __dczerorl.o(.text)
    [Anonymous Symbol]                       0x08000a74   Section        0  lcd_printf.o(.text.ARM_2D_A1_FONT_GET_CHAR_DESCRIPTOR_HANDLER)
    [Anonymous Symbol]                       0x08000b20   Section        0  stm32l4xx_it.o(.text.BusFault_Handler)
    [Anonymous Symbol]                       0x08000b22   Section        0  stm32l4xx_it.o(.text.DebugMon_Handler)
    [Anonymous Symbol]                       0x08000b24   Section        0  b_mod_gui.o(.text.Disp0_DrawBitmap)
    [Anonymous Symbol]                       0x08000b30   Section        0  main.o(.text.Error_Handler)
    [Anonymous Symbol]                       0x08000b3a   Section        0  stm32l4xx_hal_dma.o(.text.HAL_DMA_Abort)
    [Anonymous Symbol]                       0x08000b7e   Section        0  stm32l4xx_hal_dma.o(.text.HAL_DMA_Abort_IT)
    [Anonymous Symbol]                       0x08000bd4   Section        0  stm32l4xx_hal_gpio.o(.text.HAL_GPIO_Init)
    [Anonymous Symbol]                       0x08000db2   Section        0  stm32l4xx_hal_gpio.o(.text.HAL_GPIO_WritePin)
    [Anonymous Symbol]                       0x08000dbe   Section        0  stm32l4xx_hal.o(.text.HAL_GetTick)
    [Anonymous Symbol]                       0x08000dca   Section        0  stm32l4xx_hal.o(.text.HAL_IncTick)
    [Anonymous Symbol]                       0x08000de4   Section        0  stm32l4xx_hal.o(.text.HAL_Init)
    [Anonymous Symbol]                       0x08000e00   Section        0  stm32l4xx_hal.o(.text.HAL_InitTick)
    [Anonymous Symbol]                       0x08000e54   Section        0  stm32l4xx_hal_msp.o(.text.HAL_MspInit)
    [Anonymous Symbol]                       0x08000e86   Section        0  stm32l4xx_hal_cortex.o(.text.HAL_NVIC_EnableIRQ)
    [Anonymous Symbol]                       0x08000ea4   Section        0  stm32l4xx_hal_cortex.o(.text.HAL_NVIC_SetPriority)
    [Anonymous Symbol]                       0x08000efa   Section        0  stm32l4xx_hal_cortex.o(.text.HAL_NVIC_SetPriorityGrouping)
    [Anonymous Symbol]                       0x08000f1c   Section        0  stm32l4xx_hal_pwr_ex.o(.text.HAL_PWREx_ControlVoltageScaling)
    [Anonymous Symbol]                       0x08000f90   Section        0  stm32l4xx_hal_pwr_ex.o(.text.HAL_PWREx_GetVoltageRange)
    [Anonymous Symbol]                       0x08000fa0   Section        0  stm32l4xx_hal_rcc_ex.o(.text.HAL_RCCEx_PeriphCLKConfig)
    [Anonymous Symbol]                       0x08001210   Section        0  stm32l4xx_hal_rcc.o(.text.HAL_RCC_ClockConfig)
    [Anonymous Symbol]                       0x0800136c   Section        0  stm32l4xx_hal_rcc.o(.text.HAL_RCC_GetPCLK1Freq)
    [Anonymous Symbol]                       0x08001396   Section        0  stm32l4xx_hal_rcc.o(.text.HAL_RCC_GetPCLK2Freq)
    [Anonymous Symbol]                       0x080013c0   Section        0  stm32l4xx_hal_rcc.o(.text.HAL_RCC_GetSysClockFreq)
    [Anonymous Symbol]                       0x08001478   Section        0  stm32l4xx_hal_rcc.o(.text.HAL_RCC_OscConfig)
    [Anonymous Symbol]                       0x08001a6a   Section        0  stm32l4xx_hal_spi.o(.text.HAL_SPI_Init)
    [Anonymous Symbol]                       0x08001b42   Section        0  stm32l4xx_hal_msp.o(.text.HAL_SPI_MspInit)
    [Anonymous Symbol]                       0x08001bea   Section        0  stm32l4xx_hal_cortex.o(.text.HAL_SYSTICK_Config)
    [Anonymous Symbol]                       0x08001c16   Section        0  stm32l4xx_hal_uart.o(.text.HAL_UARTEx_RxEventCallback)
    [Anonymous Symbol]                       0x08001c18   Section        0  stm32l4xx_hal_uart_ex.o(.text.HAL_UARTEx_WakeupCallback)
    [Anonymous Symbol]                       0x08001c1a   Section        0  stm32l4xx_hal_uart.o(.text.HAL_UART_ErrorCallback)
    [Anonymous Symbol]                       0x08001c1c   Section        0  stm32l4xx_hal_uart.o(.text.HAL_UART_IRQHandler)
    [Anonymous Symbol]                       0x08001ee6   Section        0  stm32l4xx_hal_uart.o(.text.HAL_UART_Init)
    [Anonymous Symbol]                       0x08001f46   Section        0  stm32l4xx_hal_msp.o(.text.HAL_UART_MspInit)
    [Anonymous Symbol]                       0x0800203e   Section        0  stm32l4xx_hal_uart.o(.text.HAL_UART_TxCpltCallback)
    [Anonymous Symbol]                       0x08002040   Section        0  stm32l4xx_it.o(.text.HardFault_Handler)
    [Anonymous Symbol]                       0x08002042   Section        0  stm32l4xx_it.o(.text.LPUART1_IRQHandler)
    [Anonymous Symbol]                       0x08002050   Section        0  stm32l4xx_it.o(.text.MemManage_Handler)
    [Anonymous Symbol]                       0x08002054   Section        0  stm32l4xx_it.o(.text.NMI_Handler)
    [Anonymous Symbol]                       0x08002056   Section        0  stm32l4xx_it.o(.text.PendSV_Handler)
    RCCEx_PLLSAI1_Config                     0x08002059   Thumb Code   298  stm32l4xx_hal_rcc_ex.o(.text.RCCEx_PLLSAI1_Config)
    [Anonymous Symbol]                       0x08002058   Section        0  stm32l4xx_hal_rcc_ex.o(.text.RCCEx_PLLSAI1_Config)
    RCC_SetFlashLatencyFromMSIRange          0x08002183   Thumb Code   138  stm32l4xx_hal_rcc.o(.text.RCC_SetFlashLatencyFromMSIRange)
    [Anonymous Symbol]                       0x08002182   Section        0  stm32l4xx_hal_rcc.o(.text.RCC_SetFlashLatencyFromMSIRange)
    [Anonymous Symbol]                       0x0800220c   Section        0  stm32l4xx_it.o(.text.SVC_Handler)
    [Anonymous Symbol]                       0x0800220e   Section        0  stm32l4xx_it.o(.text.SysTick_Handler)
    [Anonymous Symbol]                       0x0800221c   Section        0  main.o(.text.SystemClock_Config)
    [Anonymous Symbol]                       0x0800229e   Section        0  system_stm32l4xx.o(.text.SystemInit)
    [Anonymous Symbol]                       0x080022b0   Section        0  stm32l4xx_hal_uart.o(.text.UART_AdvFeatureConfig)
    [Anonymous Symbol]                       0x0800237c   Section        0  stm32l4xx_hal_uart.o(.text.UART_CheckIdleState)
    UART_DMAAbortOnError                     0x080023e5   Thumb Code    16  stm32l4xx_hal_uart.o(.text.UART_DMAAbortOnError)
    [Anonymous Symbol]                       0x080023e4   Section        0  stm32l4xx_hal_uart.o(.text.UART_DMAAbortOnError)
    UART_EndRxTransfer                       0x080023f5   Thumb Code    80  stm32l4xx_hal_uart.o(.text.UART_EndRxTransfer)
    [Anonymous Symbol]                       0x080023f4   Section        0  stm32l4xx_hal_uart.o(.text.UART_EndRxTransfer)
    [Anonymous Symbol]                       0x08002444   Section        0  stm32l4xx_hal_uart.o(.text.UART_SetConfig)
    [Anonymous Symbol]                       0x08002644   Section        0  stm32l4xx_hal_uart.o(.text.UART_WaitOnFlagUntilTimeout)
    [Anonymous Symbol]                       0x0800271c   Section        0  ugui.o(.text.UG_DrawLine)
    [Anonymous Symbol]                       0x08002854   Section        0  ugui.o(.text.UG_DrawPixel)
    [Anonymous Symbol]                       0x08002862   Section        0  ugui.o(.text.UG_DriverRegister)
    [Anonymous Symbol]                       0x08002880   Section        0  ugui.o(.text.UG_FillFrame)
    [Anonymous Symbol]                       0x08002902   Section        0  ugui.o(.text.UG_FillScreen)
    [Anonymous Symbol]                       0x0800292e   Section        0  ugui.o(.text.UG_FontSelect)
    [Anonymous Symbol]                       0x0800294c   Section        0  ugui.o(.text.UG_GetUnicode)
    [Anonymous Symbol]                       0x08002b20   Section        0  ugui.o(.text.UG_Init)
    [Anonymous Symbol]                       0x08002b98   Section        0  ugui.o(.text.UG_SelectGUI)
    [Anonymous Symbol]                       0x08002ba8   Section        0  ugui.o(.text.UG_SetBackcolor)
    [Anonymous Symbol]                       0x08002bb8   Section        0  ugui.o(.text.UG_SetForecolor)
    [Anonymous Symbol]                       0x08002bc8   Section        0  ugui.o(.text.UG_TouchUpdate)
    [Anonymous Symbol]                       0x08002bda   Section        0  ugui.o(.text.UG_Update)
    [Anonymous Symbol]                       0x08002c7a   Section        0  stm32l4xx_it.o(.text.USART1_IRQHandler)
    [Anonymous Symbol]                       0x08002c88   Section        0  stm32l4xx_it.o(.text.UsageFault_Handler)
    _LCD_FillRect                            0x08002c8d   Thumb Code   202  b_mod_gui.o(.text._LCD_FillRect)
    [Anonymous Symbol]                       0x08002c8c   Section        0  b_mod_gui.o(.text._LCD_FillRect)
    _LCD_SetColorPixel                       0x08002d57   Thumb Code    98  b_mod_gui.o(.text._LCD_SetColorPixel)
    [Anonymous Symbol]                       0x08002d56   Section        0  b_mod_gui.o(.text._LCD_SetColorPixel)
    [Anonymous Symbol]                       0x08002db8   Section        0  ugui.o(.text._UG_DrawObjectFrame)
    [Anonymous Symbol]                       0x08002ef4   Section        0  ugui.o(.text._UG_HandleEvents)
    [Anonymous Symbol]                       0x08002f54   Section        0  ugui.o(.text._UG_ProcessTouchData)
    [Anonymous Symbol]                       0x08003010   Section        0  ugui.o(.text._UG_PutChar)
    [Anonymous Symbol]                       0x080033ac   Section        0  ugui.o(.text._UG_PutText)
    [Anonymous Symbol]                       0x080035a4   Section        0  ugui.o(.text._UG_UpdateObjects)
    [Anonymous Symbol]                       0x080035f8   Section        0  ugui.o(.text._UG_WindowDrawTitle)
    [Anonymous Symbol]                       0x080036d8   Section        0  ugui.o(.text._UG_WindowUpdate)
    [Anonymous Symbol]                       0x080037ac   Section        0  retarget_io.o(.text.__aeabi_assert)
    [Anonymous Symbol]                       0x08003854   Section        0  arm_2d_helper.o(.text.__arm_2d_helper_is_time_out)
    [Anonymous Symbol]                       0x0800388c   Section        0  arm_2d_helper_pfb.o(.text.__arm_2d_helper_perf_counter_start)
    [Anonymous Symbol]                       0x080038b4   Section        0  arm_2d_helper_pfb.o(.text.__arm_2d_helper_perf_counter_stop)
    __arm_2d_helper_pfb_get_next_dirty_region 0x080038dd   Thumb Code    66  arm_2d_helper_pfb.o(.text.__arm_2d_helper_pfb_get_next_dirty_region)
    [Anonymous Symbol]                       0x080038dc   Section        0  arm_2d_helper_pfb.o(.text.__arm_2d_helper_pfb_get_next_dirty_region)
    [Anonymous Symbol]                       0x08003920   Section        0  arm_2d_helper_pfb.o(.text.__arm_2d_helper_pfb_report_rendering_complete)
    [Anonymous Symbol]                       0x08003990   Section        0  arm_2d_draw.o(.text.__arm_2d_impl_rgb16_colour_filling)
    [Anonymous Symbol]                       0x080039d4   Section        0  arm_2d_draw.o(.text.__arm_2d_impl_rgb16_draw_pattern)
    [Anonymous Symbol]                       0x08003a38   Section        0  arm_2d_draw.o(.text.__arm_2d_impl_rgb16_draw_pattern_bg_comp)
    [Anonymous Symbol]                       0x08003ac4   Section        0  arm_2d_draw.o(.text.__arm_2d_impl_rgb16_draw_pattern_bg_fg)
    [Anonymous Symbol]                       0x08003b5c   Section        0  arm_2d_draw.o(.text.__arm_2d_impl_rgb16_draw_pattern_bg_only)
    [Anonymous Symbol]                       0x08003be8   Section        0  arm_2d_draw.o(.text.__arm_2d_impl_rgb16_draw_pattern_fg_only)
    [Anonymous Symbol]                       0x08003c74   Section        0  arm_2d_draw.o(.text.__arm_2d_impl_rgb16_draw_pattern_no_bg_comp)
    [Anonymous Symbol]                       0x08003cfc   Section        0  arm_2d_alpha_blending.o(.text.__arm_2d_impl_rgb565_colour_filling_channel_mask)
    [Anonymous Symbol]                       0x08003e20   Section        0  arm_2d_alpha_blending.o(.text.__arm_2d_impl_rgb565_colour_filling_channel_mask_opacity)
    [Anonymous Symbol]                       0x08003f50   Section        0  arm_2d_alpha_blending.o(.text.__arm_2d_impl_rgb565_colour_filling_mask)
    [Anonymous Symbol]                       0x08004070   Section        0  arm_2d_alpha_blending.o(.text.__arm_2d_impl_rgb565_colour_filling_mask_opacity)
    [Anonymous Symbol]                       0x0800419c   Section        0  arm_2d_alpha_blending.o(.text.__arm_2d_impl_rgb565_colour_filling_with_opacity)
    [Anonymous Symbol]                       0x080042ae   Section        0  arm_2d.o(.text.__arm_2d_issue_sub_task_copy)
    [Anonymous Symbol]                       0x0800431a   Section        0  arm_2d.o(.text.__arm_2d_issue_sub_task_copy_origin)
    [Anonymous Symbol]                       0x080043a2   Section        0  arm_2d.o(.text.__arm_2d_issue_sub_task_copy_origin_masks)
    [Anonymous Symbol]                       0x08004484   Section        0  arm_2d.o(.text.__arm_2d_issue_sub_task_copy_with_mask)
    [Anonymous Symbol]                       0x0800453c   Section        0  arm_2d.o(.text.__arm_2d_issue_sub_task_fill)
    [Anonymous Symbol]                       0x0800459e   Section        0  arm_2d.o(.text.__arm_2d_issue_sub_task_fill_origin)
    [Anonymous Symbol]                       0x08004618   Section        0  arm_2d.o(.text.__arm_2d_issue_sub_task_fill_with_mask)
    [Anonymous Symbol]                       0x080046c4   Section        0  arm_2d.o(.text.__arm_2d_issue_sub_task_tile_process)
    [Anonymous Symbol]                       0x08004700   Section        0  arm_2d.o(.text.__arm_2d_op_acquire)
    [Anonymous Symbol]                       0x0800473e   Section        0  arm_2d.o(.text.__arm_2d_op_ensure_resource)
    [Anonymous Symbol]                       0x08004742   Section        0  arm_2d.o(.text.__arm_2d_op_frontend)
    [Anonymous Symbol]                       0x08004756   Section        0  arm_2d.o(.text.__arm_2d_op_frontend_on_leave)
    [Anonymous Symbol]                       0x0800476a   Section        0  arm_2d.o(.text.__arm_2d_op_frontend_op_decoder)
    [Anonymous Symbol]                       0x08004b2e   Section        0  arm_2d.o(.text.__arm_2d_op_invoke)
    __arm_2d_region_calculator               0x08004b45   Thumb Code  1576  arm_2d.o(.text.__arm_2d_region_calculator)
    [Anonymous Symbol]                       0x08004b44   Section        0  arm_2d.o(.text.__arm_2d_region_calculator)
    [Anonymous Symbol]                       0x08005172   Section        0  arm_2d_draw.o(.text.__arm_2d_rgb16_sw_colour_filling)
    [Anonymous Symbol]                       0x080051c2   Section        0  arm_2d_draw.o(.text.__arm_2d_rgb16_sw_draw_pattern)
    [Anonymous Symbol]                       0x08005244   Section        0  arm_2d_alpha_blending.o(.text.__arm_2d_rgb565_sw_colour_filling_with_mask_and_opacity)
    [Anonymous Symbol]                       0x080052d6   Section        0  arm_2d_alpha_blending.o(.text.__arm_2d_rgb565_sw_colour_filling_with_opacity)
    [Anonymous Symbol]                       0x08005338   Section        0  arm_2d_helper_scene.o(.text.__arm_2d_scene_player_register_on_draw_navigation_event_handler)
    __arm_2d_source_side_tile_mirror_preprocess 0x08005375   Thumb Code   206  arm_2d.o(.text.__arm_2d_source_side_tile_mirror_preprocess)
    [Anonymous Symbol]                       0x08005374   Section        0  arm_2d.o(.text.__arm_2d_source_side_tile_mirror_preprocess)
    [Anonymous Symbol]                       0x08005444   Section        0  arm_2d.o(.text.__arm_2d_sub_task_depose)
    [Anonymous Symbol]                       0x080054e4   Section        0  arm_2d.o(.text.__arm_2d_tile_get_1st_derived_child_or_root)
    __arm_2d_tile_region_caculator           0x08005599   Thumb Code   210  arm_2d.o(.text.__arm_2d_tile_region_caculator)
    [Anonymous Symbol]                       0x08005598   Section        0  arm_2d.o(.text.__arm_2d_tile_region_caculator)
    [Anonymous Symbol]                       0x0800566a   Section        0  arm_2d.o(.text.__arm_2d_valid_mask)
    __arm_lcd_get_char_descriptor            0x080056b9   Thumb Code   128  lcd_printf.o(.text.__arm_lcd_get_char_descriptor)
    [Anonymous Symbol]                       0x080056b8   Section        0  lcd_printf.o(.text.__arm_lcd_get_char_descriptor)
    __depose_virtual_resource                0x08005739   Thumb Code    56  arm_2d.o(.text.__depose_virtual_resource)
    [Anonymous Symbol]                       0x08005738   Section        0  arm_2d.o(.text.__depose_virtual_resource)
    [Anonymous Symbol]                       0x08005770   Section        0  arm_2d_disp_adapter_0.o(.text.__glcd0_pfb_render_handler)
    __load_virtual_resource                  0x080057a7   Thumb Code   116  arm_2d.o(.text.__load_virtual_resource)
    [Anonymous Symbol]                       0x080057a6   Section        0  arm_2d.o(.text.__load_virtual_resource)
    __on_each_frame_complete                 0x0800581b   Thumb Code   164  arm_2d_disp_adapter_0.o(.text.__on_each_frame_complete)
    [Anonymous Symbol]                       0x0800581a   Section        0  arm_2d_disp_adapter_0.o(.text.__on_each_frame_complete)
    __on_frame_complete                      0x080058bf   Thumb Code     2  arm_2d_disp_adapter_0.o(.text.__on_frame_complete)
    [Anonymous Symbol]                       0x080058be   Section        0  arm_2d_disp_adapter_0.o(.text.__on_frame_complete)
    __on_frame_start                         0x080058c1   Thumb Code     2  arm_2d_disp_adapter_0.o(.text.__on_frame_start)
    [Anonymous Symbol]                       0x080058c0   Section        0  arm_2d_disp_adapter_0.o(.text.__on_frame_start)
    __pfb_draw_handler                       0x080058c3   Thumb Code   104  arm_2d_disp_adapter_0.o(.text.__pfb_draw_handler)
    [Anonymous Symbol]                       0x080058c2   Section        0  arm_2d_disp_adapter_0.o(.text.__pfb_draw_handler)
    __pfb_draw_navigation                    0x0800592d   Thumb Code   228  arm_2d_disp_adapter_0.o(.text.__pfb_draw_navigation)
    [Anonymous Symbol]                       0x0800592c   Section        0  arm_2d_disp_adapter_0.o(.text.__pfb_draw_navigation)
    __tile_clipped_pave                      0x08005a11   Thumb Code   142  arm_2d.o(.text.__tile_clipped_pave)
    [Anonymous Symbol]                       0x08005a10   Section        0  arm_2d.o(.text.__tile_clipped_pave)
    __tile_non_negtive_location_pave         0x08005a9f   Thumb Code    72  arm_2d.o(.text.__tile_non_negtive_location_pave)
    [Anonymous Symbol]                       0x08005a9e   Section        0  arm_2d.o(.text.__tile_non_negtive_location_pave)
    _bCoreMonitor                            0x08005ae7   Thumb Code     2  b_core.o(.text._bCoreMonitor)
    [Anonymous Symbol]                       0x08005ae6   Section        0  b_core.o(.text._bCoreMonitor)
    _bDriverNullInit                         0x08005ae9   Thumb Code     4  b_device.o(.text._bDriverNullInit)
    [Anonymous Symbol]                       0x08005ae8   Section        0  b_device.o(.text._bDriverNullInit)
    _bGUI_Core                               0x08005aed   Thumb Code   212  b_mod_gui.o(.text._bGUI_Core)
    [Anonymous Symbol]                       0x08005aec   Section        0  b_mod_gui.o(.text._bGUI_Core)
    _bHalUartDetectIdle                      0x08005bc1   Thumb Code   144  b_hal_uart.o(.text._bHalUartDetectIdle)
    [Anonymous Symbol]                       0x08005bc0   Section        0  b_hal_uart.o(.text._bHalUartDetectIdle)
    _bLcdWriteCmd                            0x08005c51   Thumb Code   152  b_drv_st7789.o(.text._bLcdWriteCmd)
    [Anonymous Symbol]                       0x08005c50   Section        0  b_drv_st7789.o(.text._bLcdWriteCmd)
    _bLcdWriteData                           0x08005ce9   Thumb Code   152  b_drv_st7789.o(.text._bLcdWriteData)
    [Anonymous Symbol]                       0x08005ce8   Section        0  b_drv_st7789.o(.text._bLcdWriteData)
    _bLcdWriteGRam                           0x08005d81   Thumb Code    74  b_drv_st7789.o(.text._bLcdWriteGRam)
    [Anonymous Symbol]                       0x08005d80   Section        0  b_drv_st7789.o(.text._bLcdWriteGRam)
    _bST7789Ctl                              0x08005dcd   Thumb Code   424  b_drv_st7789.o(.text._bST7789Ctl)
    [Anonymous Symbol]                       0x08005dcc   Section        0  b_drv_st7789.o(.text._bST7789Ctl)
    _bST7789Write                            0x08005f75   Thumb Code   120  b_drv_st7789.o(.text._bST7789Write)
    [Anonymous Symbol]                       0x08005f74   Section        0  b_drv_st7789.o(.text._bST7789Write)
    _bTaskCore                               0x08005fed   Thumb Code    60  b_task.o(.text._bTaskCore)
    [Anonymous Symbol]                       0x08005fec   Section        0  b_task.o(.text._bTaskCore)
    _bTimerCore                              0x08006029   Thumb Code    84  b_timer.o(.text._bTimerCore)
    [Anonymous Symbol]                       0x08006028   Section        0  b_timer.o(.text._bTimerCore)
    [Anonymous Symbol]                       0x0800607c   Section        0  retarget_io.o(.text.abort)
    applyMask                                0x08006081   Thumb Code   352  qrcode.o(.text.applyMask)
    [Anonymous Symbol]                       0x08006080   Section        0  qrcode.o(.text.applyMask)
    [Anonymous Symbol]                       0x080061e6   Section        0  arm_2d_helper.o(.text.arm_2d_helper_convert_ms_to_ticks)
    [Anonymous Symbol]                       0x08006200   Section        0  arm_2d_helper.o(.text.arm_2d_helper_convert_ticks_to_ms)
    [Anonymous Symbol]                       0x08006214   Section        0  arm_2d_helper.o(.text.arm_2d_helper_draw_box)
    [Anonymous Symbol]                       0x080062fc   Section        0  b_mod_gui.o(.text.arm_2d_helper_get_reference_clock_frequency)
    [Anonymous Symbol]                       0x08006302   Section        0  b_mod_gui.o(.text.arm_2d_helper_get_system_timestamp)
    [Anonymous Symbol]                       0x08006306   Section        0  arm_2d_helper.o(.text.arm_2d_helper_init)
    [Anonymous Symbol]                       0x0800634e   Section        0  arm_2d_helper_pfb.o(.text.arm_2d_helper_pfb_flush)
    [Anonymous Symbol]                       0x080063b8   Section        0  arm_2d_helper_pfb.o(.text.arm_2d_helper_pfb_init)
    [Anonymous Symbol]                       0x08006524   Section        0  arm_2d_helper_pfb.o(.text.arm_2d_helper_pfb_task)
    [Anonymous Symbol]                       0x08006a36   Section        0  arm_2d_helper_pfb.o(.text.arm_2d_helper_pfb_update_dependency)
    [Anonymous Symbol]                       0x08006a9c   Section        0  arm_2d_helper_pfb.o(.text.arm_2d_helper_swap_rgb16)
    [Anonymous Symbol]                       0x08006b3c   Section        0  arm_2d.o(.text.arm_2d_init)
    [Anonymous Symbol]                       0x08006b4e   Section        0  arm_2d.o(.text.arm_2d_op_init)
    [Anonymous Symbol]                       0x08006b64   Section        0  arm_2d.o(.text.arm_2d_op_wait_async)
    [Anonymous Symbol]                       0x08006b68   Section        0  arm_2d.o(.text.arm_2d_region_intersect)
    [Anonymous Symbol]                       0x08006bf0   Section        0  arm_2d_helper_scene.o(.text.arm_2d_scene_player_append_scenes)
    [Anonymous Symbol]                       0x08006c6c   Section        0  arm_2d_helper_scene.o(.text.arm_2d_scene_player_task)
    [Anonymous Symbol]                       0x08006f58   Section        0  arm_2d.o(.text.arm_2d_set_default_frame_buffer)
    [Anonymous Symbol]                       0x08006f76   Section        0  arm_2d.o(.text.arm_2d_tile_generate_child)
    [Anonymous Symbol]                       0x08006fce   Section        0  arm_2d_draw.o(.text.arm_2dp_rgb16_draw_pattern)
    [Anonymous Symbol]                       0x08007030   Section        0  arm_2d_draw.o(.text.arm_2dp_rgb16_fill_colour)
    [Anonymous Symbol]                       0x08007076   Section        0  arm_2d_alpha_blending.o(.text.arm_2dp_rgb565_fill_colour_with_mask_and_opacity)
    [Anonymous Symbol]                       0x080070de   Section        0  arm_2d_alpha_blending.o(.text.arm_2dp_rgb565_fill_colour_with_opacity)
    [Anonymous Symbol]                       0x0800712a   Section        0  arm_cos_f32.o(.text.arm_cos_f32)
    [Anonymous Symbol]                       0x080071d2   Section        0  controls.o(.text.arm_extra_controls_init)
    [Anonymous Symbol]                       0x080071f0   Section        0  lcd_printf.o(.text.arm_lcd_printf)
    [Anonymous Symbol]                       0x08007230   Section        0  lcd_printf.o(.text.arm_lcd_puts)
    [Anonymous Symbol]                       0x08007304   Section        0  lcd_printf.o(.text.arm_lcd_text_init)
    [Anonymous Symbol]                       0x0800733c   Section        0  lcd_printf.o(.text.arm_lcd_text_location)
    [Anonymous Symbol]                       0x0800737a   Section        0  lcd_printf.o(.text.arm_lcd_text_set_colour)
    [Anonymous Symbol]                       0x08007388   Section        0  lcd_printf.o(.text.arm_lcd_text_set_draw_region)
    [Anonymous Symbol]                       0x080073a4   Section        0  lcd_printf.o(.text.arm_lcd_text_set_font)
    [Anonymous Symbol]                       0x080073e2   Section        0  lcd_printf.o(.text.arm_lcd_text_set_target_framebuffer)
    [Anonymous Symbol]                       0x080073f6   Section        0  arm_sin_f32.o(.text.arm_sin_f32)
    [Anonymous Symbol]                       0x08007496   Section        0  b_core.o(.text.bClose)
    [Anonymous Symbol]                       0x080074ca   Section        0  b_core.o(.text.bCtl)
    [Anonymous Symbol]                       0x080074ec   Section        0  b_device.o(.text.bDeviceClose)
    [Anonymous Symbol]                       0x08007568   Section        0  b_device.o(.text.bDeviceCtl)
    [Anonymous Symbol]                       0x080075e0   Section        0  b_device.o(.text.bDeviceInit)
    [Anonymous Symbol]                       0x08007780   Section        0  b_device.o(.text.bDeviceOpen)
    [Anonymous Symbol]                       0x080077f8   Section        0  b_device.o(.text.bDeviceRead)
    [Anonymous Symbol]                       0x08007874   Section        0  b_device.o(.text.bDeviceWrite)
    [Anonymous Symbol]                       0x080078f8   Section        0  b_core.o(.text.bExec)
    [Anonymous Symbol]                       0x08007928   Section        0  b_mod_gui.o(.text.bGUIDrawBmp)
    [Anonymous Symbol]                       0x080079fe   Section        0  b_mod_gui.o(.text.bGUIRegist)
    [Anonymous Symbol]                       0x08007ac8   Section        0  b_hal.o(.text.bHalDelayMs)
    [Anonymous Symbol]                       0x08007aee   Section        0  b_hal.o(.text.bHalGetSysTick)
    [Anonymous Symbol]                       0x08007afa   Section        0  b_hal.o(.text.bHalGetSysTickPlus)
    [Anonymous Symbol]                       0x08007b10   Section        0  b_hal_gpio.o(.text.bHalGpioConfig)
    [Anonymous Symbol]                       0x08007b14   Section        0  b_hal_gpio.o(.text.bHalGpioReadPin)
    [Anonymous Symbol]                       0x08007b18   Section        0  b_hal_gpio.o(.text.bHalGpioReadPort)
    [Anonymous Symbol]                       0x08007b1c   Section        0  b_hal_gpio.o(.text.bHalGpioWritePin)
    [Anonymous Symbol]                       0x08007b20   Section        0  b_hal_gpio.o(.text.bHalGpioWritePort)
    [Anonymous Symbol]                       0x08007b24   Section        0  b_hal.o(.text.bHalIncSysTick)
    [Anonymous Symbol]                       0x08007b48   Section        0  b_hal.o(.text.bHalInit)
    [Anonymous Symbol]                       0x08007bd0   Section        0  b_hal_spi.o(.text.bHalSpiSend)
    [Anonymous Symbol]                       0x08007c0c   Section        0  b_hal_spi.o(.text.bHalSpiTransfer)
    [Anonymous Symbol]                       0x08007d0c   Section        0  b_hal_uart.o(.text.bHalUartSend)
    [Anonymous Symbol]                       0x08007d10   Section        0  b_hal.o(.text.bHalUserInit)
    [Anonymous Symbol]                       0x08007d14   Section        0  b_core.o(.text.bInit)
    [Anonymous Symbol]                       0x08007ed8   Section        0  b_util_log.o(.text.bLogOut)
    bLogParamTable                           0x08007fcc   Number         0  b_util_log.o(.text.bLogOut)
    bLogPrefix                               0x08007fd0   Number         0  b_util_log.o(.text.bLogOut)
    [Anonymous Symbol]                       0x08007fd8   Section        0  b_core.o(.text.bLseek)
    [Anonymous Symbol]                       0x08007ffc   Section        0  mcu_stm32l41x_gpio.o(.text.bMcuGpioConfig)
    [Anonymous Symbol]                       0x080080ac   Section        0  mcu_stm32l41x_gpio.o(.text.bMcuGpioReadPin)
    [Anonymous Symbol]                       0x080080d2   Section        0  mcu_stm32l41x_gpio.o(.text.bMcuGpioReadPort)
    [Anonymous Symbol]                       0x080080e8   Section        0  mcu_stm32l41x_gpio.o(.text.bMcuGpioWritePin)
    [Anonymous Symbol]                       0x08008112   Section        0  mcu_stm32l41x_gpio.o(.text.bMcuGpioWritePort)
    [Anonymous Symbol]                       0x08008124   Section        0  mcu_stm32l41x_spi.o(.text.bMcuSpiSend)
    [Anonymous Symbol]                       0x0800817c   Section        0  mcu_stm32l41x_spi.o(.text.bMcuSpiTransfer)
    [Anonymous Symbol]                       0x080081c0   Section        0  mcu_stm32l41x_uart.o(.text.bMcuUartSend)
    [Anonymous Symbol]                       0x08008254   Section        0  b_core.o(.text.bOpen)
    [Anonymous Symbol]                       0x080082e8   Section        0  b_mod_qrcode.o(.text.bQRCodeCreate)
    [Anonymous Symbol]                       0x0800835e   Section        0  b_mod_qrcode.o(.text.bQRCodeGetValue)
    [Anonymous Symbol]                       0x08008366   Section        0  b_core.o(.text.bRead)
    [Anonymous Symbol]                       0x080083b8   Section        0  b_drv_st7789.o(.text.bST7789_Init)
    [Anonymous Symbol]                       0x08008680   Section        0  b_core.o(.text.bWrite)
    [Anonymous Symbol]                       0x080086d0   Section        0  busy_wheel.o(.text.busy_wheel2_show)
    [Anonymous Symbol]                       0x080087b8   Section        0  busy_wheel.o(.text.busy_wheel_init)
    [Anonymous Symbol]                       0x08008878   Section        0  arm_2d_disp_adapter_0.o(.text.disp_adapter0_init)
    [Anonymous Symbol]                       0x08008910   Section        0  arm_2d_disp_adapter_0.o(.text.disp_adapter0_task)
    drawFinderPattern                        0x0800891d   Thumb Code   134  qrcode.o(.text.drawFinderPattern)
    [Anonymous Symbol]                       0x0800891c   Section        0  qrcode.o(.text.drawFinderPattern)
    drawFormatBits                           0x080089a9   Thumb Code   272  qrcode.o(.text.drawFormatBits)
    [Anonymous Symbol]                       0x080089a8   Section        0  qrcode.o(.text.drawFormatBits)
    drawFunctionPatterns                     0x08008ab9   Thumb Code   688  qrcode.o(.text.drawFunctionPatterns)
    [Anonymous Symbol]                       0x08008ab8   Section        0  qrcode.o(.text.drawFunctionPatterns)
    [Anonymous Symbol]                       0x08008d78   Section        0  shape_round_corner_box.o(.text.draw_round_corner_box)
    [Anonymous Symbol]                       0x08008f12   Section        0  b_util_log.o(.text.fputc)
    getAlphanumeric                          0x08008f31   Thumb Code   100  qrcode.o(.text.getAlphanumeric)
    [Anonymous Symbol]                       0x08008f30   Section        0  qrcode.o(.text.getAlphanumeric)
    [Anonymous Symbol]                       0x08008f94   Section        0  lcd_printf.o(.text.lcd_draw_char)
    [Anonymous Symbol]                       0x0800901c   Section        0  main.o(.text.main)
    performErrorCorrection                   0x0800929d   Thumb Code   816  qrcode.o(.text.performErrorCorrection)
    [Anonymous Symbol]                       0x0800929c   Section        0  qrcode.o(.text.performErrorCorrection)
    [Anonymous Symbol]                       0x080095d2   Section        0  progress_bar_drill.o(.text.progress_bar_drill_init)
    [Anonymous Symbol]                       0x080095f2   Section        0  progress_bar_flowing.o(.text.progress_bar_flowing_init)
    [Anonymous Symbol]                       0x08009632   Section        0  progress_bar_simple.o(.text.progress_bar_simple_init)
    [Anonymous Symbol]                       0x08009634   Section        0  qrcode.o(.text.qrcode_getModule)
    [Anonymous Symbol]                       0x08009664   Section        0  qrcode.o(.text.qrcode_initBytes)
    [Anonymous Symbol]                       0x08009fc0   Section        0  qrcode.o(.text.qrcode_initText)
    setFunctionModule                        0x08009ff3   Thumb Code    82  qrcode.o(.text.setFunctionModule)
    [Anonymous Symbol]                       0x08009ff2   Section        0  qrcode.o(.text.setFunctionModule)
    [Anonymous Symbol]                       0x0800a044   Section        0  spinning_wheel.o(.text.spinning_wheel_init)
    i.__0sprintf                             0x0800a060   Section        0  printfa.o(i.__0sprintf)
    i.__0vsnprintf                           0x0800a088   Section        0  printfa.o(i.__0vsnprintf)
    i.__scatterload_copy                     0x0800a0bc   Section       14  handlers.o(i.__scatterload_copy)
    i.__scatterload_null                     0x0800a0ca   Section        2  handlers.o(i.__scatterload_null)
    i.__scatterload_zeroinit                 0x0800a0cc   Section       14  handlers.o(i.__scatterload_zeroinit)
    _fp_digits                               0x0800a0dd   Thumb Code   366  printfa.o(i._fp_digits)
    i._fp_digits                             0x0800a0dc   Section        0  printfa.o(i._fp_digits)
    _printf_core                             0x0800a269   Thumb Code  1744  printfa.o(i._printf_core)
    i._printf_core                           0x0800a268   Section        0  printfa.o(i._printf_core)
    _printf_post_padding                     0x0800a94b   Thumb Code    36  printfa.o(i._printf_post_padding)
    i._printf_post_padding                   0x0800a94a   Section        0  printfa.o(i._printf_post_padding)
    _printf_pre_padding                      0x0800a96f   Thumb Code    46  printfa.o(i._printf_pre_padding)
    i._printf_pre_padding                    0x0800a96e   Section        0  printfa.o(i._printf_pre_padding)
    _snputc                                  0x0800a99d   Thumb Code    22  printfa.o(i._snputc)
    i._snputc                                0x0800a99c   Section        0  printfa.o(i._snputc)
    _sputc                                   0x0800a9b3   Thumb Code    10  printfa.o(i._sputc)
    i._sputc                                 0x0800a9b2   Section        0  printfa.o(i._sputc)
    i.fputs                                  0x0800a9bc   Section        0  fputs.o(i.fputs)
    .L__const.__user_scene_player_init.tCFG  0x0800a9d4   Data          68  arm_2d_disp_adapter_0.o(.rodata..L__const.__user_scene_player_init.tCFG)
    NUM_ERROR_CORRECTION_BLOCKS              0x0800ae78   Data         160  qrcode.o(.rodata.NUM_ERROR_CORRECTION_BLOCKS)
    [Anonymous Symbol]                       0x0800ae78   Section        0  qrcode.o(.rodata.NUM_ERROR_CORRECTION_BLOCKS)
    NUM_ERROR_CORRECTION_CODEWORDS           0x0800af18   Data         320  qrcode.o(.rodata.NUM_ERROR_CORRECTION_CODEWORDS)
    [Anonymous Symbol]                       0x0800af18   Section        0  qrcode.o(.rodata.NUM_ERROR_CORRECTION_CODEWORDS)
    NUM_RAW_DATA_MODULES                     0x0800b058   Data          80  qrcode.o(.rodata.NUM_RAW_DATA_MODULES)
    [Anonymous Symbol]                       0x0800b058   Section        0  qrcode.o(.rodata.NUM_RAW_DATA_MODULES)
    SpiTable                                 0x0800b0a8   Data          12  mcu_stm32l41x_spi.o(.rodata.SpiTable)
    [Anonymous Symbol]                       0x0800b0a8   Section        0  mcu_stm32l41x_spi.o(.rodata.SpiTable)
    bDeviceDescTable                         0x0800b0b4   Data           8  b_device.o(.rodata.bDeviceDescTable)
    [Anonymous Symbol]                       0x0800b0b4   Section        0  b_device.o(.rodata.bDeviceDescTable)
    bDriverNumberTable                       0x0800b0bc   Data           2  b_device.o(.rodata.bDriverNumberTable)
    [Anonymous Symbol]                       0x0800b0bc   Section        0  b_device.o(.rodata.bDriverNumberTable)
    bHalIf_ST7789                            0x0800b0c0   Data          20  b_drv_st7789.o(.rodata.bHalIf_ST7789)
    [Anonymous Symbol]                       0x0800b0c0   Section        0  b_drv_st7789.o(.rodata.bHalIf_ST7789)
    .Lswitch.table.UART_SetConfig.3          0x0800b114   Data          16  stm32l4xx_hal_uart.o(.rodata.cst16)
    UartTable                                0x0800b124   Data          16  mcu_stm32l41x_uart.o(.rodata.cst16)
    disp_adapter0_init.s_tNavDirtyRegionList 0x0800b134   Data          16  arm_2d_disp_adapter_0.o(.rodata.disp_adapter0_init.s_tNavDirtyRegionList)
    [Anonymous Symbol]                       0x0800b134   Section        0  arm_2d_disp_adapter_0.o(.rodata.disp_adapter0_init.s_tNavDirtyRegionList)
    .L.str.7                                 0x0800c160   Data          49  b_core.o(.rodata.str1.1)
    [Anonymous Symbol]                       0x0800c160   Section        0  b_core.o(.rodata.str1.1)
    .L.str.5                                 0x0800c191   Data          49  b_core.o(.rodata.str1.1)
    .L.str.2                                 0x0800c1c2   Data          49  b_core.o(.rodata.str1.1)
    .L.str.4                                 0x0800c1f3   Data          49  b_core.o(.rodata.str1.1)
    .L.str.3                                 0x0800c224   Data          49  b_core.o(.rodata.str1.1)
    .L.str.6                                 0x0800c255   Data          49  b_core.o(.rodata.str1.1)
    .L.str.1                                 0x0800c286   Data          49  b_core.o(.rodata.str1.1)
    .L.str                                   0x0800c2b7   Data          34  b_core.o(.rodata.str1.1)
    .L__func__.bInit                         0x0800c2d9   Data           6  b_core.o(.rodata.str1.1)
    .L.str.3                                 0x0800c2df   Data          14  b_device.o(.rodata.str1.1)
    [Anonymous Symbol]                       0x0800c2df   Section        0  b_device.o(.rodata.str1.1)
    .L.str.6                                 0x0800c2ed   Data           9  b_device.o(.rodata.str1.1)
    .L.str                                   0x0800c2f6   Data          36  b_device.o(.rodata.str1.1)
    .L.str.8                                 0x0800c31a   Data           5  b_device.o(.rodata.str1.1)
    .L.str.9                                 0x0800c31f   Data           4  b_device.o(.rodata.str1.1)
    .L__func__.bDeviceInit                   0x0800c323   Data          12  b_device.o(.rodata.str1.1)
    .L.str.1                                 0x0800c32f   Data          65  arm_2d.o(.rodata.str1.1)
    [Anonymous Symbol]                       0x0800c32f   Section        0  arm_2d.o(.rodata.str1.1)
    .L.str                                   0x0800c370   Data          17  arm_2d.o(.rodata.str1.1)
    .L.str                                   0x0800c370   Data          17  arm_2d.o(.rodata.str1.1)
    .L.str.14                                0x0800c370   Data          17  arm_2d.o(.rodata.str1.1)
    .L.str.2                                 0x0800c370   Data           6  arm_2d.o(.rodata.str1.1)
    .L.str.3                                 0x0800c376   Data          84  arm_2d.o(.rodata.str1.1)
    .L.str.1                                 0x0800c381   Data          86  arm_2d_alpha_blending.o(.rodata.str1.1)
    [Anonymous Symbol]                       0x0800c381   Section        0  arm_2d_alpha_blending.o(.rodata.str1.1)
    .L.str.5                                 0x0800c3ca   Data          65  arm_2d.o(.rodata.str1.1)
    .L.str.2                                 0x0800c3d7   Data          58  arm_2d_alpha_blending.o(.rodata.str1.1)
    .L.str.3                                 0x0800c3d7   Data          59  arm_2d_alpha_blending.o(.rodata.str1.1)
    .L.str.3                                 0x0800c412   Data          63  arm_2d_draw.o(.rodata.str1.1)
    [Anonymous Symbol]                       0x0800c412   Section        0  arm_2d_draw.o(.rodata.str1.1)
    .L.str.21                                0x0800c41c   Data          62  arm_2d.o(.rodata.str1.1)
    .L.str.4                                 0x0800c44c   Data          63  arm_2d_alpha_blending.o(.rodata.str1.1)
    .L.str.1                                 0x0800c451   Data          63  arm_2d_draw.o(.rodata.str1.1)
    .L.str.2                                 0x0800c451   Data          62  arm_2d_draw.o(.rodata.str1.1)
    .L.str.22                                0x0800c45a   Data          63  arm_2d.o(.rodata.str1.1)
    .L.str.24                                0x0800c48b   Data          51  arm_2d_alpha_blending.o(.rodata.str1.1)
    .L.str.1                                 0x0800c490   Data          65  arm_2d_helper.o(.rodata.str1.1)
    [Anonymous Symbol]                       0x0800c490   Section        0  arm_2d_helper.o(.rodata.str1.1)
    .L.str.23                                0x0800c499   Data          63  arm_2d.o(.rodata.str1.1)
    .L.str.25                                0x0800c4be   Data          86  arm_2d_alpha_blending.o(.rodata.str1.1)
    .L.str.4                                 0x0800c4ce   Data          63  arm_2d_draw.o(.rodata.str1.1)
    .L.str.1                                 0x0800c4d1   Data          69  arm_2d_helper_pfb.o(.rodata.str1.1)
    [Anonymous Symbol]                       0x0800c4d1   Section        0  arm_2d_helper_pfb.o(.rodata.str1.1)
    .L.str.24                                0x0800c4d8   Data          79  arm_2d.o(.rodata.str1.1)
    .L.str.26                                0x0800c514   Data           6  arm_2d_alpha_blending.o(.rodata.str1.1)
    .L.str.5                                 0x0800c516   Data          20  arm_2d_helper_pfb.o(.rodata.str1.1)
    .L.str.27                                0x0800c51a   Data          49  arm_2d_alpha_blending.o(.rodata.str1.1)
    .L.str.25                                0x0800c527   Data          60  arm_2d.o(.rodata.str1.1)
    .L.str.8                                 0x0800c52a   Data          52  arm_2d_helper_pfb.o(.rodata.str1.1)
    .L.str.28                                0x0800c54b   Data          76  arm_2d_alpha_blending.o(.rodata.str1.1)
    .L.str.1                                 0x0800c55e   Data          71  arm_2d_helper_scene.o(.rodata.str1.1)
    [Anonymous Symbol]                       0x0800c55e   Section        0  arm_2d_helper_scene.o(.rodata.str1.1)
    .L.str.26                                0x0800c563   Data          79  arm_2d.o(.rodata.str1.1)
    .L.str.29                                0x0800c597   Data          60  arm_2d_alpha_blending.o(.rodata.str1.1)
    .L.str.1                                 0x0800c5a5   Data          62  busy_wheel.o(.rodata.str1.1)
    .L.str.4                                 0x0800c5a5   Data         107  arm_2d_helper_scene.o(.rodata.str1.1)
    [Anonymous Symbol]                       0x0800c5a5   Section        0  busy_wheel.o(.rodata.str1.1)
    .L.str.27                                0x0800c5b2   Data          60  arm_2d.o(.rodata.str1.1)
    .L.str.30                                0x0800c5d3   Data          85  arm_2d_alpha_blending.o(.rodata.str1.1)
    .L.str.1                                 0x0800c5e3   Data          62  lcd_printf.o(.rodata.str1.1)
    [Anonymous Symbol]                       0x0800c5e3   Section        0  lcd_printf.o(.rodata.str1.1)
    .L.str.28                                0x0800c5ee   Data         102  arm_2d.o(.rodata.str1.1)
    .L.str.8                                 0x0800c610   Data           6  arm_2d_helper_scene.o(.rodata.str1.1)
    .L.str.1                                 0x0800c621   Data          74  shape_round_corner_box.o(.rodata.str1.1)
    [Anonymous Symbol]                       0x0800c621   Section        0  shape_round_corner_box.o(.rodata.str1.1)
    .L.str.31                                0x0800c628   Data          31  arm_2d_alpha_blending.o(.rodata.str1.1)
    .L.str.32                                0x0800c647   Data          72  arm_2d_alpha_blending.o(.rodata.str1.1)
    .L.str.29                                0x0800c654   Data          61  arm_2d.o(.rodata.str1.1)
    .L.str.1                                 0x0800c66b   Data          73  arm_2d_disp_adapter_0.o(.rodata.str1.1)
    [Anonymous Symbol]                       0x0800c66b   Section        0  arm_2d_disp_adapter_0.o(.rodata.str1.1)
    .L.str.33                                0x0800c68f   Data          31  arm_2d_alpha_blending.o(.rodata.str1.1)
    .L.str.30                                0x0800c691   Data         102  arm_2d.o(.rodata.str1.1)
    .L.str.34                                0x0800c6ae   Data         101  arm_2d_alpha_blending.o(.rodata.str1.1)
    c_bmpWhiteDotAlpha                       0x0800c6d4   Data         196  white_dot.o(arm2d.asset.c_bmpWhiteDotAlpha)
    [Anonymous Symbol]                       0x0800c6d4   Section        0  white_dot.o(arm2d.asset.c_bmpWhiteDotAlpha)
    .L.str.31                                0x0800c6f7   Data          61  arm_2d.o(.rodata.str1.1)
    .L.str.35                                0x0800c713   Data          72  arm_2d_alpha_blending.o(.rodata.str1.1)
    .L.str.87                                0x0800c734   Data          58  arm_2d.o(.rodata.str1.1)
    .L.str.36                                0x0800c75b   Data          73  arm_2d_alpha_blending.o(.rodata.str1.1)
    c_bmpWhiteDotRGB565                      0x0800c798   Data         392  white_dot.o(arm2d.asset.c_bmpWhiteDotRGB565)
    [Anonymous Symbol]                       0x0800c798   Section        0  white_dot.o(arm2d.asset.c_bmpWhiteDotRGB565)
    .L.str.37                                0x0800c7a4   Data          72  arm_2d_alpha_blending.o(.rodata.str1.1)
    .L.str.38                                0x0800c7ec   Data         154  arm_2d_alpha_blending.o(.rodata.str1.1)
    .L.str.39                                0x0800c886   Data          72  arm_2d_alpha_blending.o(.rodata.str1.1)
    .L.str.41                                0x0800c8ce   Data          73  arm_2d_alpha_blending.o(.rodata.str1.1)
    .L.str.43                                0x0800c917   Data          18  arm_2d_alpha_blending.o(.rodata.str1.1)
    .L.str.44                                0x0800c929   Data          97  arm_2d_alpha_blending.o(.rodata.str1.1)
    __tagsym$$used.0                         0x0800c940   Number         0  b_core.o(bos_polling)
    __tagsym$$used.0                         0x0800c944   Number         0  b_task.o(bos_polling)
    __tagsym$$used.0                         0x0800c948   Number         0  b_timer.o(bos_polling)
    __tagsym$$used.0                         0x0800c94c   Number         0  b_mod_gui.o(bos_polling)
    __tagsym$$used.0                         0x0800c950   Number         0  b_hal_uart.o(bos_polling)
    __tagsym$$used.1                         0x0800c954   Number         0  b_device.o(driver_init)
    __tagsym$$used.0                         0x0800c95c   Number         0  b_drv_st7789.o(driver_init)
    __tagsym$$used.0                         0x0800c964   Number         0  b_device.o(driver_init_0)
    .L.str.45                                0x0800c98a   Data          62  arm_2d_alpha_blending.o(.rodata.str1.1)
    .L.str.46                                0x0800c9c8   Data          94  arm_2d_alpha_blending.o(.rodata.str1.1)
    .L.str.47                                0x0800ca26   Data          61  arm_2d_alpha_blending.o(.rodata.str1.1)
    .L.str.48                                0x0800ca63   Data          97  arm_2d_alpha_blending.o(.rodata.str1.1)
    .L.str.49                                0x0800cac4   Data          62  arm_2d_alpha_blending.o(.rodata.str1.1)
    .L.str.50                                0x0800cb02   Data          97  arm_2d_alpha_blending.o(.rodata.str1.1)
    .L.str.51                                0x0800cb63   Data          62  arm_2d_alpha_blending.o(.rodata.str1.1)
    .L.str.52                                0x0800cba1   Data          94  arm_2d_alpha_blending.o(.rodata.str1.1)
    .L.str.53                                0x0800cbff   Data          61  arm_2d_alpha_blending.o(.rodata.str1.1)
    .L.str.54                                0x0800cc3c   Data          97  arm_2d_alpha_blending.o(.rodata.str1.1)
    .L.str.55                                0x0800cc9d   Data          62  arm_2d_alpha_blending.o(.rodata.str1.1)
    .data                                    0x20000000   Section        4  stderr.o(.data)
    BENCHMARK.0                              0x20000008   Data           4  arm_2d_disp_adapter_0.o(.data.BENCHMARK.0)
    [Anonymous Symbol]                       0x20000008   Section        0  arm_2d_disp_adapter_0.o(.data.BENCHMARK.0)
    BENCHMARK.5                              0x20000010   Data           4  arm_2d_disp_adapter_0.o(.data.BENCHMARK.5)
    [Anonymous Symbol]                       0x20000010   Section        0  arm_2d_disp_adapter_0.o(.data.BENCHMARK.5)
    bHalUartListHead                         0x20000018   Data           8  b_hal_uart.o(.data.bHalUartListHead)
    [Anonymous Symbol]                       0x20000018   Section        0  b_hal_uart.o(.data.bHalUartListHead)
    bTaskListHead                            0x20000020   Data           8  b_task.o(.data.bTaskListHead)
    [Anonymous Symbol]                       0x20000020   Section        0  b_task.o(.data.bTaskListHead)
    bTimerListHead                           0x20000028   Data           8  b_timer.o(.data.bTimerListHead)
    [Anonymous Symbol]                       0x20000028   Section        0  b_timer.o(.data.bTimerListHead)
    bUsDelayParam                            0x20000030   Data           4  b_hal.o(.data.bUsDelayParam)
    [Anonymous Symbol]                       0x20000030   Section        0  b_hal.o(.data.bUsDelayParam)
    disp_adapter0_init.s_tScenes             0x20000034   Data          48  arm_2d_disp_adapter_0.o(.data.disp_adapter0_init.s_tScenes)
    [Anonymous Symbol]                       0x20000034   Section        0  arm_2d_disp_adapter_0.o(.data.disp_adapter0_init.s_tScenes)
    main.gui_bTFT                            0x20000068   Data         296  main.o(.data.main.gui_bTFT)
    [Anonymous Symbol]                       0x20000068   Section        0  main.o(.data.main.gui_bTFT)
    s_tHelper.1                              0x200001a4   Data           4  arm_2d_helper.o(.data.s_tHelper.1)
    [Anonymous Symbol]                       0x200001a4   Section        0  arm_2d_helper.o(.data.s_tHelper.1)
    s_tLCDTextControl                        0x200001a8   Data          40  lcd_printf.o(.data.s_tLCDTextControl)
    [Anonymous Symbol]                       0x200001a8   Section        0  lcd_printf.o(.data.s_tLCDTextControl)
    BENCHMARK.1                              0x200001d8   Data           4  arm_2d_disp_adapter_0.o(.bss.BENCHMARK.1)
    [Anonymous Symbol]                       0x200001d8   Section        0  arm_2d_disp_adapter_0.o(.bss.BENCHMARK.1)
    BENCHMARK.2                              0x200001e0   Data           8  arm_2d_disp_adapter_0.o(.bss.BENCHMARK.2)
    [Anonymous Symbol]                       0x200001e0   Section        0  arm_2d_disp_adapter_0.o(.bss.BENCHMARK.2)
    BENCHMARK.3                              0x200001e8   Data           4  arm_2d_disp_adapter_0.o(.bss.BENCHMARK.3)
    [Anonymous Symbol]                       0x200001e8   Section        0  arm_2d_disp_adapter_0.o(.bss.BENCHMARK.3)
    BENCHMARK.6                              0x200001f0   Data           4  arm_2d_disp_adapter_0.o(.bss.BENCHMARK.6)
    [Anonymous Symbol]                       0x200001f0   Section        0  arm_2d_disp_adapter_0.o(.bss.BENCHMARK.6)
    _UG_HandleEvents.msg                     0x200001f4   Data           8  ugui.o(.bss._UG_HandleEvents.msg)
    [Anonymous Symbol]                       0x200001f4   Section        0  ugui.o(.bss._UG_HandleEvents.msg)
    _bCoreCreateFd.init                      0x200001fc   Data           1  b_core.o(.bss._bCoreCreateFd.init)
    [Anonymous Symbol]                       0x200001fc   Section        0  b_core.o(.bss._bCoreCreateFd.init)
    _bGUI_Core.tick                          0x20000200   Data           4  b_mod_gui.o(.bss._bGUI_Core.tick)
    [Anonymous Symbol]                       0x20000200   Section        0  b_mod_gui.o(.bss._bGUI_Core.tick)
    arm_lcd_printf.s_chBuffer                0x20000204   Data          17  lcd_printf.o(.bss.arm_lcd_printf.s_chBuffer)
    [Anonymous Symbol]                       0x20000204   Section        0  lcd_printf.o(.bss.arm_lcd_printf.s_chBuffer)
    bCoreFdTable                             0x20000218   Data          24  b_core.o(.bss.bCoreFdTable)
    [Anonymous Symbol]                       0x20000218   Section        0  b_core.o(.bss.bCoreFdTable)
    bDriverInterfaceTable                    0x20000230   Data         136  b_device.o(.bss.bDriverInterfaceTable)
    [Anonymous Symbol]                       0x20000230   Section        0  b_device.o(.bss.bDriverInterfaceTable)
    bLogBuff                                 0x200002b8   Data         256  b_util_log.o(.bss.bLogBuff)
    [Anonymous Symbol]                       0x200002b8   Section        0  b_util_log.o(.bss.bLogBuff)
    bST7789RunInfo                           0x200003b8   Data           4  b_drv_st7789.o(.bss.bST7789RunInfo)
    [Anonymous Symbol]                       0x200003b8   Section        0  b_drv_st7789.o(.bss.bST7789RunInfo)
    bSysTick                                 0x200003bc   Data           4  b_hal.o(.bss.bSysTick)
    [Anonymous Symbol]                       0x200003bc   Section        0  b_hal.o(.bss.bSysTick)
    bSysTickOvr                              0x200003c0   Data           4  b_hal.o(.bss.bSysTickOvr)
    [Anonymous Symbol]                       0x200003c0   Section        0  b_hal.o(.bss.bSysTickOvr)
    busy_wheel2_show.s_chOffset              0x200003c4   Data           1  busy_wheel.o(.bss.busy_wheel2_show.s_chOffset)
    [Anonymous Symbol]                       0x200003c4   Section        0  busy_wheel.o(.bss.busy_wheel2_show.s_chOffset)
    gui                                      0x200003c8   Data           4  ugui.o(.bss.gui)
    [Anonymous Symbol]                       0x200003c8   Section        0  ugui.o(.bss.gui)
    s_tDotsLocation                          0x200007a0   Data          32  busy_wheel.o(.bss.noinit)
    [Anonymous Symbol]                       0x200007a0   Section        0  busy_wheel.o(.bss.noinit)
    s_tAlphaTable                            0x200007c0   Data           8  busy_wheel.o(.bss.noinit)
    s_lLastTime                              0x200007c8   Data           8  progress_bar_drill.o(.bss.noinit)
    [Anonymous Symbol]                       0x200007c8   Section        0  progress_bar_drill.o(.bss.noinit)
    s_wUnit                                  0x200007d0   Data           1  progress_bar_drill.o(.bss.noinit)
    s_lLastTime                              0x200007d8   Data           8  progress_bar_flowing.o(.bss.noinit)
    [Anonymous Symbol]                       0x200007d8   Section        0  progress_bar_flowing.o(.bss.noinit)
    s_wUnit                                  0x200007e0   Data           4  progress_bar_flowing.o(.bss.noinit)
    s_lWavingTime                            0x200007e8   Data           8  progress_bar_flowing.o(.bss.noinit)
    __user_scene_player_init.s_tPFBs         0x200008e0   Data       15472  arm_2d_disp_adapter_0.o(.bss.noinit.arm_2d_pfb_pool)
    [Anonymous Symbol]                       0x200008e0   Section        0  arm_2d_disp_adapter_0.o(.bss.noinit.arm_2d_pfb_pool)
    pCurrentTaskAttr                         0x20004550   Data           4  b_task.o(.bss.pCurrentTaskAttr)
    [Anonymous Symbol]                       0x20004550   Section        0  b_task.o(.bss.pCurrentTaskAttr)
    pGUICurrent                              0x20004554   Data           4  b_mod_gui.o(.bss.pGUICurrent)
    [Anonymous Symbol]                       0x20004554   Section        0  b_mod_gui.o(.bss.pGUICurrent)
    pGUIHead                                 0x20004558   Data           4  b_mod_gui.o(.bss.pGUIHead)
    [Anonymous Symbol]                       0x20004558   Section        0  b_mod_gui.o(.bss.pGUIHead)
    s_lLastTime2                             0x20004560   Data           8  busy_wheel.o(.bss.s_lLastTime2)
    [Anonymous Symbol]                       0x20004560   Section        0  busy_wheel.o(.bss.s_lLastTime2)
    s_tHelper.0                              0x20004568   Data           1  arm_2d_helper.o(.bss.s_tHelper.0)
    [Anonymous Symbol]                       0x20004568   Section        0  arm_2d_helper.o(.bss.s_tHelper.0)
    s_tMaskRotateCB                          0x2000456c   Data         216  spinning_wheel.o(.bss.s_tMaskRotateCB)
    [Anonymous Symbol]                       0x2000456c   Section        0  spinning_wheel.o(.bss.s_tMaskRotateCB)
    STACK                                    0x20004648   Section     4096  startup_stm32l431xx.o(STACK)

    Global Symbols

    Symbol Name                              Value     Ov Type        Size  Object(Section)

    BuildAttributes$$THM_ISAv4$E$P$D$K$B$S$7EM$VFPi3$EXTD16$VFPS$VFMA$PE$A:L22UL41UL21$X:L11$S22US41US21$IEEE1$IW$~IW$USESV6$~STKCKD$USESV7$~SHL$OTIME$ROPI$IEEEX$EBA8$MICROLIB$REQ8$PRES8$EABIv2 0x00000000   Number         0  anon$$obj.o ABSOLUTE
    _printf_a                                0x00000000   Number         0  printfstubs.o ABSOLUTE
    _printf_c                                0x00000000   Number         0  printfstubs.o ABSOLUTE
    _printf_charcount                        0x00000000   Number         0  printfstubs.o ABSOLUTE
    _printf_d                                0x00000000   Number         0  printfstubs.o ABSOLUTE
    _printf_e                                0x00000000   Number         0  printfstubs.o ABSOLUTE
    _printf_f                                0x00000000   Number         0  printfstubs.o ABSOLUTE
    _printf_flags                            0x00000000   Number         0  printfstubs.o ABSOLUTE
    _printf_fp_dec                           0x00000000   Number         0  printfstubs.o ABSOLUTE
    _printf_fp_hex                           0x00000000   Number         0  printfstubs.o ABSOLUTE
    _printf_g                                0x00000000   Number         0  printfstubs.o ABSOLUTE
    _printf_i                                0x00000000   Number         0  printfstubs.o ABSOLUTE
    _printf_int_dec                          0x00000000   Number         0  printfstubs.o ABSOLUTE
    _printf_l                                0x00000000   Number         0  printfstubs.o ABSOLUTE
    _printf_lc                               0x00000000   Number         0  printfstubs.o ABSOLUTE
    _printf_ll                               0x00000000   Number         0  printfstubs.o ABSOLUTE
    _printf_lld                              0x00000000   Number         0  printfstubs.o ABSOLUTE
    _printf_lli                              0x00000000   Number         0  printfstubs.o ABSOLUTE
    _printf_llo                              0x00000000   Number         0  printfstubs.o ABSOLUTE
    _printf_llu                              0x00000000   Number         0  printfstubs.o ABSOLUTE
    _printf_llx                              0x00000000   Number         0  printfstubs.o ABSOLUTE
    _printf_longlong_dec                     0x00000000   Number         0  printfstubs.o ABSOLUTE
    _printf_longlong_hex                     0x00000000   Number         0  printfstubs.o ABSOLUTE
    _printf_longlong_oct                     0x00000000   Number         0  printfstubs.o ABSOLUTE
    _printf_ls                               0x00000000   Number         0  printfstubs.o ABSOLUTE
    _printf_mbtowc                           0x00000000   Number         0  printfstubs.o ABSOLUTE
    _printf_n                                0x00000000   Number         0  printfstubs.o ABSOLUTE
    _printf_o                                0x00000000   Number         0  printfstubs.o ABSOLUTE
    _printf_p                                0x00000000   Number         0  printfstubs.o ABSOLUTE
    _printf_percent                          0x00000000   Number         0  printfstubs.o ABSOLUTE
    _printf_pre_padding                      0x00000000   Number         0  printfstubs.o ABSOLUTE
    _printf_return_value                     0x00000000   Number         0  printfstubs.o ABSOLUTE
    _printf_s                                0x00000000   Number         0  printfstubs.o ABSOLUTE
    _printf_sizespec                         0x00000000   Number         0  printfstubs.o ABSOLUTE
    _printf_str                              0x00000000   Number         0  printfstubs.o ABSOLUTE
    _printf_truncate_signed                  0x00000000   Number         0  printfstubs.o ABSOLUTE
    _printf_truncate_unsigned                0x00000000   Number         0  printfstubs.o ABSOLUTE
    _printf_u                                0x00000000   Number         0  printfstubs.o ABSOLUTE
    _printf_wc                               0x00000000   Number         0  printfstubs.o ABSOLUTE
    _printf_wctomb                           0x00000000   Number         0  printfstubs.o ABSOLUTE
    _printf_widthprec                        0x00000000   Number         0  printfstubs.o ABSOLUTE
    _printf_x                                0x00000000   Number         0  printfstubs.o ABSOLUTE
    __cpp_initialize__aeabi_                  - Undefined Weak Reference
    __cxa_finalize                            - Undefined Weak Reference
    _clock_init                               - Undefined Weak Reference
    _microlib_exit                            - Undefined Weak Reference
    __Vectors_Size                           0x0000018c   Number         0  startup_stm32l431xx.o ABSOLUTE
    __Vectors                                0x08000000   Data           4  startup_stm32l431xx.o(RESET)
    __Vectors_End                            0x0800018c   Data           0  startup_stm32l431xx.o(RESET)
    __main                                   0x0800018d   Thumb Code     0  entry.o(.ARM.Collect$$$$00000000)
    _main_stk                                0x0800018d   Thumb Code     0  entry2.o(.ARM.Collect$$$$00000001)
    _main_scatterload                        0x08000191   Thumb Code     0  entry5.o(.ARM.Collect$$$$00000004)
    __main_after_scatterload                 0x08000195   Thumb Code     0  entry5.o(.ARM.Collect$$$$00000004)
    _main_clock                              0x08000195   Thumb Code     0  entry7b.o(.ARM.Collect$$$$00000008)
    _main_cpp_init                           0x08000195   Thumb Code     0  entry8b.o(.ARM.Collect$$$$0000000A)
    _main_init                               0x08000195   Thumb Code     0  entry9a.o(.ARM.Collect$$$$0000000B)
    __rt_final_cpp                           0x0800019d   Thumb Code     0  entry10a.o(.ARM.Collect$$$$0000000D)
    __rt_final_exit                          0x0800019d   Thumb Code     0  entry11a.o(.ARM.Collect$$$$0000000F)
    Reset_Handler                            0x080001a1   Thumb Code     8  startup_stm32l431xx.o(.text)
    ADC1_IRQHandler                          0x080001bb   Thumb Code     0  startup_stm32l431xx.o(.text)
    CAN1_RX0_IRQHandler                      0x080001bb   Thumb Code     0  startup_stm32l431xx.o(.text)
    CAN1_RX1_IRQHandler                      0x080001bb   Thumb Code     0  startup_stm32l431xx.o(.text)
    CAN1_SCE_IRQHandler                      0x080001bb   Thumb Code     0  startup_stm32l431xx.o(.text)
    CAN1_TX_IRQHandler                       0x080001bb   Thumb Code     0  startup_stm32l431xx.o(.text)
    COMP_IRQHandler                          0x080001bb   Thumb Code     0  startup_stm32l431xx.o(.text)
    CRS_IRQHandler                           0x080001bb   Thumb Code     0  startup_stm32l431xx.o(.text)
    DMA1_Channel1_IRQHandler                 0x080001bb   Thumb Code     0  startup_stm32l431xx.o(.text)
    DMA1_Channel2_IRQHandler                 0x080001bb   Thumb Code     0  startup_stm32l431xx.o(.text)
    DMA1_Channel3_IRQHandler                 0x080001bb   Thumb Code     0  startup_stm32l431xx.o(.text)
    DMA1_Channel4_IRQHandler                 0x080001bb   Thumb Code     0  startup_stm32l431xx.o(.text)
    DMA1_Channel5_IRQHandler                 0x080001bb   Thumb Code     0  startup_stm32l431xx.o(.text)
    DMA1_Channel6_IRQHandler                 0x080001bb   Thumb Code     0  startup_stm32l431xx.o(.text)
    DMA1_Channel7_IRQHandler                 0x080001bb   Thumb Code     0  startup_stm32l431xx.o(.text)
    DMA2_Channel1_IRQHandler                 0x080001bb   Thumb Code     0  startup_stm32l431xx.o(.text)
    DMA2_Channel2_IRQHandler                 0x080001bb   Thumb Code     0  startup_stm32l431xx.o(.text)
    DMA2_Channel3_IRQHandler                 0x080001bb   Thumb Code     0  startup_stm32l431xx.o(.text)
    DMA2_Channel4_IRQHandler                 0x080001bb   Thumb Code     0  startup_stm32l431xx.o(.text)
    DMA2_Channel5_IRQHandler                 0x080001bb   Thumb Code     0  startup_stm32l431xx.o(.text)
    DMA2_Channel6_IRQHandler                 0x080001bb   Thumb Code     0  startup_stm32l431xx.o(.text)
    DMA2_Channel7_IRQHandler                 0x080001bb   Thumb Code     0  startup_stm32l431xx.o(.text)
    EXTI0_IRQHandler                         0x080001bb   Thumb Code     0  startup_stm32l431xx.o(.text)
    EXTI15_10_IRQHandler                     0x080001bb   Thumb Code     0  startup_stm32l431xx.o(.text)
    EXTI1_IRQHandler                         0x080001bb   Thumb Code     0  startup_stm32l431xx.o(.text)
    EXTI2_IRQHandler                         0x080001bb   Thumb Code     0  startup_stm32l431xx.o(.text)
    EXTI3_IRQHandler                         0x080001bb   Thumb Code     0  startup_stm32l431xx.o(.text)
    EXTI4_IRQHandler                         0x080001bb   Thumb Code     0  startup_stm32l431xx.o(.text)
    EXTI9_5_IRQHandler                       0x080001bb   Thumb Code     0  startup_stm32l431xx.o(.text)
    FLASH_IRQHandler                         0x080001bb   Thumb Code     0  startup_stm32l431xx.o(.text)
    FPU_IRQHandler                           0x080001bb   Thumb Code     0  startup_stm32l431xx.o(.text)
    I2C1_ER_IRQHandler                       0x080001bb   Thumb Code     0  startup_stm32l431xx.o(.text)
    I2C1_EV_IRQHandler                       0x080001bb   Thumb Code     0  startup_stm32l431xx.o(.text)
    I2C2_ER_IRQHandler                       0x080001bb   Thumb Code     0  startup_stm32l431xx.o(.text)
    I2C2_EV_IRQHandler                       0x080001bb   Thumb Code     0  startup_stm32l431xx.o(.text)
    I2C3_ER_IRQHandler                       0x080001bb   Thumb Code     0  startup_stm32l431xx.o(.text)
    I2C3_EV_IRQHandler                       0x080001bb   Thumb Code     0  startup_stm32l431xx.o(.text)
    LPTIM1_IRQHandler                        0x080001bb   Thumb Code     0  startup_stm32l431xx.o(.text)
    LPTIM2_IRQHandler                        0x080001bb   Thumb Code     0  startup_stm32l431xx.o(.text)
    PVD_PVM_IRQHandler                       0x080001bb   Thumb Code     0  startup_stm32l431xx.o(.text)
    QUADSPI_IRQHandler                       0x080001bb   Thumb Code     0  startup_stm32l431xx.o(.text)
    RCC_IRQHandler                           0x080001bb   Thumb Code     0  startup_stm32l431xx.o(.text)
    RNG_IRQHandler                           0x080001bb   Thumb Code     0  startup_stm32l431xx.o(.text)
    RTC_Alarm_IRQHandler                     0x080001bb   Thumb Code     0  startup_stm32l431xx.o(.text)
    RTC_WKUP_IRQHandler                      0x080001bb   Thumb Code     0  startup_stm32l431xx.o(.text)
    SAI1_IRQHandler                          0x080001bb   Thumb Code     0  startup_stm32l431xx.o(.text)
    SDMMC1_IRQHandler                        0x080001bb   Thumb Code     0  startup_stm32l431xx.o(.text)
    SPI1_IRQHandler                          0x080001bb   Thumb Code     0  startup_stm32l431xx.o(.text)
    SPI2_IRQHandler                          0x080001bb   Thumb Code     0  startup_stm32l431xx.o(.text)
    SPI3_IRQHandler                          0x080001bb   Thumb Code     0  startup_stm32l431xx.o(.text)
    SWPMI1_IRQHandler                        0x080001bb   Thumb Code     0  startup_stm32l431xx.o(.text)
    TAMP_STAMP_IRQHandler                    0x080001bb   Thumb Code     0  startup_stm32l431xx.o(.text)
    TIM1_BRK_TIM15_IRQHandler                0x080001bb   Thumb Code     0  startup_stm32l431xx.o(.text)
    TIM1_CC_IRQHandler                       0x080001bb   Thumb Code     0  startup_stm32l431xx.o(.text)
    TIM1_TRG_COM_IRQHandler                  0x080001bb   Thumb Code     0  startup_stm32l431xx.o(.text)
    TIM1_UP_TIM16_IRQHandler                 0x080001bb   Thumb Code     0  startup_stm32l431xx.o(.text)
    TIM2_IRQHandler                          0x080001bb   Thumb Code     0  startup_stm32l431xx.o(.text)
    TIM6_DAC_IRQHandler                      0x080001bb   Thumb Code     0  startup_stm32l431xx.o(.text)
    TIM7_IRQHandler                          0x080001bb   Thumb Code     0  startup_stm32l431xx.o(.text)
    TSC_IRQHandler                           0x080001bb   Thumb Code     0  startup_stm32l431xx.o(.text)
    USART2_IRQHandler                        0x080001bb   Thumb Code     0  startup_stm32l431xx.o(.text)
    USART3_IRQHandler                        0x080001bb   Thumb Code     0  startup_stm32l431xx.o(.text)
    WWDG_IRQHandler                          0x080001bb   Thumb Code     0  startup_stm32l431xx.o(.text)
    __aeabi_uldivmod                         0x080001c5   Thumb Code    98  uldiv.o(.text)
    __aeabi_ldivmod                          0x0800022d   Thumb Code    98  ldiv.o(.text)
    __aeabi_memcpy                           0x0800028f   Thumb Code    36  memcpya.o(.text)
    __aeabi_memcpy4                          0x0800028f   Thumb Code     0  memcpya.o(.text)
    __aeabi_memcpy8                          0x0800028f   Thumb Code     0  memcpya.o(.text)
    __aeabi_memset                           0x080002b3   Thumb Code    14  memseta.o(.text)
    __aeabi_memset4                          0x080002b3   Thumb Code     0  memseta.o(.text)
    __aeabi_memset8                          0x080002b3   Thumb Code     0  memseta.o(.text)
    __aeabi_memclr                           0x080002c1   Thumb Code     4  memseta.o(.text)
    __aeabi_memclr4                          0x080002c1   Thumb Code     0  memseta.o(.text)
    __aeabi_memclr8                          0x080002c1   Thumb Code     0  memseta.o(.text)
    _memset$wrapper                          0x080002c5   Thumb Code    18  memseta.o(.text)
    strlen                                   0x080002d7   Thumb Code    14  strlen.o(.text)
    __aeabi_fadd                             0x080002e5   Thumb Code   164  fadd.o(.text)
    __aeabi_fsub                             0x08000389   Thumb Code     6  fadd.o(.text)
    __aeabi_frsub                            0x0800038f   Thumb Code     6  fadd.o(.text)
    __aeabi_fmul                             0x08000395   Thumb Code   100  fmul.o(.text)
    __aeabi_dmul                             0x080003f9   Thumb Code   228  dmul.o(.text)
    __aeabi_ddiv                             0x080004e3   Thumb Code   222  ddiv.o(.text)
    __aeabi_fcmplt                           0x080005c1   Thumb Code    28  fcmplt.o(.text)
    __aeabi_i2f                              0x080005dd   Thumb Code    18  fflti.o(.text)
    __aeabi_ui2f                             0x080005ef   Thumb Code    10  ffltui.o(.text)
    __aeabi_ui2d                             0x080005f9   Thumb Code    26  dfltui.o(.text)
    __aeabi_f2iz                             0x08000613   Thumb Code    50  ffixi.o(.text)
    __aeabi_f2uiz                            0x08000645   Thumb Code    40  ffixui.o(.text)
    __aeabi_d2uiz                            0x0800066d   Thumb Code    50  dfixui.o(.text)
    __aeabi_uidiv                            0x0800069f   Thumb Code     0  uidiv.o(.text)
    __aeabi_uidivmod                         0x0800069f   Thumb Code    44  uidiv.o(.text)
    __aeabi_llsl                             0x080006cb   Thumb Code    30  llshl.o(.text)
    _ll_shift_l                              0x080006cb   Thumb Code     0  llshl.o(.text)
    __aeabi_llsr                             0x080006e9   Thumb Code    32  llushr.o(.text)
    _ll_ushift_r                             0x080006e9   Thumb Code     0  llushr.o(.text)
    __I$use$fp                               0x08000709   Thumb Code     0  iusefp.o(.text)
    _float_round                             0x08000709   Thumb Code    18  fepilogue.o(.text)
    _float_epilogue                          0x0800071b   Thumb Code    92  fepilogue.o(.text)
    _double_round                            0x08000777   Thumb Code    30  depilogue.o(.text)
    _double_epilogue                         0x08000795   Thumb Code   156  depilogue.o(.text)
    __aeabi_dadd                             0x08000831   Thumb Code   322  dadd.o(.text)
    __aeabi_dsub                             0x08000973   Thumb Code     6  dadd.o(.text)
    __aeabi_drsub                            0x08000979   Thumb Code     6  dadd.o(.text)
    __aeabi_d2ulz                            0x0800098f   Thumb Code    48  dfixul.o(.text)
    __aeabi_cdrcmple                         0x080009c1   Thumb Code    48  cdrcmple.o(.text)
    __scatterload                            0x080009f1   Thumb Code    28  init.o(.text)
    __scatterload_rt2                        0x080009f1   Thumb Code     0  init.o(.text)
    __aeabi_lasr                             0x08000a15   Thumb Code    36  llsshr.o(.text)
    _ll_sshift_r                             0x08000a15   Thumb Code     0  llsshr.o(.text)
    __decompress                             0x08000a39   Thumb Code     0  __dczerorl.o(.text)
    __decompress0                            0x08000a39   Thumb Code    58  __dczerorl.o(.text)
    ARM_2D_A1_FONT_GET_CHAR_DESCRIPTOR_HANDLER 0x08000a75   Thumb Code   172  lcd_printf.o(.text.ARM_2D_A1_FONT_GET_CHAR_DESCRIPTOR_HANDLER)
    BusFault_Handler                         0x08000b21   Thumb Code     2  stm32l4xx_it.o(.text.BusFault_Handler)
    DebugMon_Handler                         0x08000b23   Thumb Code     2  stm32l4xx_it.o(.text.DebugMon_Handler)
    Disp0_DrawBitmap                         0x08000b25   Thumb Code    12  b_mod_gui.o(.text.Disp0_DrawBitmap)
    Error_Handler                            0x08000b31   Thumb Code    10  main.o(.text.Error_Handler)
    HAL_DMA_Abort                            0x08000b3b   Thumb Code    68  stm32l4xx_hal_dma.o(.text.HAL_DMA_Abort)
    HAL_DMA_Abort_IT                         0x08000b7f   Thumb Code    86  stm32l4xx_hal_dma.o(.text.HAL_DMA_Abort_IT)
    HAL_GPIO_Init                            0x08000bd5   Thumb Code   472  stm32l4xx_hal_gpio.o(.text.HAL_GPIO_Init)
    HAL_GPIO_WritePin                        0x08000db3   Thumb Code    12  stm32l4xx_hal_gpio.o(.text.HAL_GPIO_WritePin)
    HAL_GetTick                              0x08000dbf   Thumb Code    12  stm32l4xx_hal.o(.text.HAL_GetTick)
    HAL_IncTick                              0x08000dcb   Thumb Code    26  stm32l4xx_hal.o(.text.HAL_IncTick)
    HAL_Init                                 0x08000de5   Thumb Code    28  stm32l4xx_hal.o(.text.HAL_Init)
    HAL_InitTick                             0x08000e01   Thumb Code    84  stm32l4xx_hal.o(.text.HAL_InitTick)
    HAL_MspInit                              0x08000e55   Thumb Code    50  stm32l4xx_hal_msp.o(.text.HAL_MspInit)
    HAL_NVIC_EnableIRQ                       0x08000e87   Thumb Code    30  stm32l4xx_hal_cortex.o(.text.HAL_NVIC_EnableIRQ)
    HAL_NVIC_SetPriority                     0x08000ea5   Thumb Code    86  stm32l4xx_hal_cortex.o(.text.HAL_NVIC_SetPriority)
    HAL_NVIC_SetPriorityGrouping             0x08000efb   Thumb Code    32  stm32l4xx_hal_cortex.o(.text.HAL_NVIC_SetPriorityGrouping)
    HAL_PWREx_ControlVoltageScaling          0x08000f1d   Thumb Code   116  stm32l4xx_hal_pwr_ex.o(.text.HAL_PWREx_ControlVoltageScaling)
    HAL_PWREx_GetVoltageRange                0x08000f91   Thumb Code    16  stm32l4xx_hal_pwr_ex.o(.text.HAL_PWREx_GetVoltageRange)
    HAL_RCCEx_PeriphCLKConfig                0x08000fa1   Thumb Code   622  stm32l4xx_hal_rcc_ex.o(.text.HAL_RCCEx_PeriphCLKConfig)
    HAL_RCC_ClockConfig                      0x08001211   Thumb Code   348  stm32l4xx_hal_rcc.o(.text.HAL_RCC_ClockConfig)
    HAL_RCC_GetPCLK1Freq                     0x0800136d   Thumb Code    42  stm32l4xx_hal_rcc.o(.text.HAL_RCC_GetPCLK1Freq)
    HAL_RCC_GetPCLK2Freq                     0x08001397   Thumb Code    42  stm32l4xx_hal_rcc.o(.text.HAL_RCC_GetPCLK2Freq)
    HAL_RCC_GetSysClockFreq                  0x080013c1   Thumb Code   182  stm32l4xx_hal_rcc.o(.text.HAL_RCC_GetSysClockFreq)
    HAL_RCC_OscConfig                        0x08001479   Thumb Code  1522  stm32l4xx_hal_rcc.o(.text.HAL_RCC_OscConfig)
    HAL_SPI_Init                             0x08001a6b   Thumb Code   216  stm32l4xx_hal_spi.o(.text.HAL_SPI_Init)
    HAL_SPI_MspInit                          0x08001b43   Thumb Code   168  stm32l4xx_hal_msp.o(.text.HAL_SPI_MspInit)
    HAL_SYSTICK_Config                       0x08001beb   Thumb Code    44  stm32l4xx_hal_cortex.o(.text.HAL_SYSTICK_Config)
    HAL_UARTEx_RxEventCallback               0x08001c17   Thumb Code     2  stm32l4xx_hal_uart.o(.text.HAL_UARTEx_RxEventCallback)
    HAL_UARTEx_WakeupCallback                0x08001c19   Thumb Code     2  stm32l4xx_hal_uart_ex.o(.text.HAL_UARTEx_WakeupCallback)
    HAL_UART_ErrorCallback                   0x08001c1b   Thumb Code     2  stm32l4xx_hal_uart.o(.text.HAL_UART_ErrorCallback)
    HAL_UART_IRQHandler                      0x08001c1d   Thumb Code   714  stm32l4xx_hal_uart.o(.text.HAL_UART_IRQHandler)
    HAL_UART_Init                            0x08001ee7   Thumb Code    96  stm32l4xx_hal_uart.o(.text.HAL_UART_Init)
    HAL_UART_MspInit                         0x08001f47   Thumb Code   248  stm32l4xx_hal_msp.o(.text.HAL_UART_MspInit)
    HAL_UART_TxCpltCallback                  0x0800203f   Thumb Code     2  stm32l4xx_hal_uart.o(.text.HAL_UART_TxCpltCallback)
    HardFault_Handler                        0x08002041   Thumb Code     2  stm32l4xx_it.o(.text.HardFault_Handler)
    LPUART1_IRQHandler                       0x08002043   Thumb Code    12  stm32l4xx_it.o(.text.LPUART1_IRQHandler)
    MemManage_Handler                        0x08002051   Thumb Code     2  stm32l4xx_it.o(.text.MemManage_Handler)
    NMI_Handler                              0x08002055   Thumb Code     2  stm32l4xx_it.o(.text.NMI_Handler)
    PendSV_Handler                           0x08002057   Thumb Code     2  stm32l4xx_it.o(.text.PendSV_Handler)
    SVC_Handler                              0x0800220d   Thumb Code     2  stm32l4xx_it.o(.text.SVC_Handler)
    SysTick_Handler                          0x0800220f   Thumb Code    14  stm32l4xx_it.o(.text.SysTick_Handler)
    SystemClock_Config                       0x0800221d   Thumb Code   130  main.o(.text.SystemClock_Config)
    SystemInit                               0x0800229f   Thumb Code    18  system_stm32l4xx.o(.text.SystemInit)
    UART_AdvFeatureConfig                    0x080022b1   Thumb Code   204  stm32l4xx_hal_uart.o(.text.UART_AdvFeatureConfig)
    UART_CheckIdleState                      0x0800237d   Thumb Code   104  stm32l4xx_hal_uart.o(.text.UART_CheckIdleState)
    UART_SetConfig                           0x08002445   Thumb Code   512  stm32l4xx_hal_uart.o(.text.UART_SetConfig)
    UART_WaitOnFlagUntilTimeout              0x08002645   Thumb Code   216  stm32l4xx_hal_uart.o(.text.UART_WaitOnFlagUntilTimeout)
    UG_DrawLine                              0x0800271d   Thumb Code   306  ugui.o(.text.UG_DrawLine)
    UG_DrawPixel                             0x08002855   Thumb Code    14  ugui.o(.text.UG_DrawPixel)
    UG_DriverRegister                        0x08002863   Thumb Code    30  ugui.o(.text.UG_DriverRegister)
    UG_FillFrame                             0x08002881   Thumb Code   124  ugui.o(.text.UG_FillFrame)
    UG_FillScreen                            0x08002903   Thumb Code    44  ugui.o(.text.UG_FillScreen)
    UG_FontSelect                            0x0800292f   Thumb Code    30  ugui.o(.text.UG_FontSelect)
    UG_GetUnicode                            0x0800294d   Thumb Code   468  ugui.o(.text.UG_GetUnicode)
    UG_Init                                  0x08002b21   Thumb Code   120  ugui.o(.text.UG_Init)
    UG_SelectGUI                             0x08002b99   Thumb Code    16  ugui.o(.text.UG_SelectGUI)
    UG_SetBackcolor                          0x08002ba9   Thumb Code    16  ugui.o(.text.UG_SetBackcolor)
    UG_SetForecolor                          0x08002bb9   Thumb Code    16  ugui.o(.text.UG_SetForecolor)
    UG_TouchUpdate                           0x08002bc9   Thumb Code    18  ugui.o(.text.UG_TouchUpdate)
    UG_Update                                0x08002bdb   Thumb Code   160  ugui.o(.text.UG_Update)
    USART1_IRQHandler                        0x08002c7b   Thumb Code    12  stm32l4xx_it.o(.text.USART1_IRQHandler)
    UsageFault_Handler                       0x08002c89   Thumb Code     2  stm32l4xx_it.o(.text.UsageFault_Handler)
    _UG_DrawObjectFrame                      0x08002db9   Thumb Code   310  ugui.o(.text._UG_DrawObjectFrame)
    _UG_HandleEvents                         0x08002ef5   Thumb Code    96  ugui.o(.text._UG_HandleEvents)
    _UG_ProcessTouchData                     0x08002f55   Thumb Code   186  ugui.o(.text._UG_ProcessTouchData)
    _UG_PutChar                              0x08003011   Thumb Code   918  ugui.o(.text._UG_PutChar)
    _UG_PutText                              0x080033ad   Thumb Code   498  ugui.o(.text._UG_PutText)
    _UG_UpdateObjects                        0x080035a5   Thumb Code    84  ugui.o(.text._UG_UpdateObjects)
    _UG_WindowDrawTitle                      0x080035f9   Thumb Code   216  ugui.o(.text._UG_WindowDrawTitle)
    _UG_WindowUpdate                         0x080036d9   Thumb Code   210  ugui.o(.text._UG_WindowUpdate)
    __aeabi_assert                           0x080037ad   Thumb Code   168  retarget_io.o(.text.__aeabi_assert)
    __arm_2d_helper_is_time_out              0x08003855   Thumb Code    56  arm_2d_helper.o(.text.__arm_2d_helper_is_time_out)
    __arm_2d_helper_perf_counter_start       0x0800388d   Thumb Code    40  arm_2d_helper_pfb.o(.text.__arm_2d_helper_perf_counter_start)
    __arm_2d_helper_perf_counter_stop        0x080038b5   Thumb Code    40  arm_2d_helper_pfb.o(.text.__arm_2d_helper_perf_counter_stop)
    __arm_2d_helper_pfb_report_rendering_complete 0x08003921   Thumb Code   112  arm_2d_helper_pfb.o(.text.__arm_2d_helper_pfb_report_rendering_complete)
    __arm_2d_impl_rgb16_colour_filling       0x08003991   Thumb Code    66  arm_2d_draw.o(.text.__arm_2d_impl_rgb16_colour_filling)
    __arm_2d_impl_rgb16_draw_pattern         0x080039d5   Thumb Code   100  arm_2d_draw.o(.text.__arm_2d_impl_rgb16_draw_pattern)
    __arm_2d_impl_rgb16_draw_pattern_bg_comp 0x08003a39   Thumb Code   138  arm_2d_draw.o(.text.__arm_2d_impl_rgb16_draw_pattern_bg_comp)
    __arm_2d_impl_rgb16_draw_pattern_bg_fg   0x08003ac5   Thumb Code   146  arm_2d_draw.o(.text.__arm_2d_impl_rgb16_draw_pattern_bg_fg)
    __arm_2d_impl_rgb16_draw_pattern_bg_only 0x08003b5d   Thumb Code   132  arm_2d_draw.o(.text.__arm_2d_impl_rgb16_draw_pattern_bg_only)
    __arm_2d_impl_rgb16_draw_pattern_fg_only 0x08003be9   Thumb Code   134  arm_2d_draw.o(.text.__arm_2d_impl_rgb16_draw_pattern_fg_only)
    __arm_2d_impl_rgb16_draw_pattern_no_bg_comp 0x08003c75   Thumb Code   134  arm_2d_draw.o(.text.__arm_2d_impl_rgb16_draw_pattern_no_bg_comp)
    __arm_2d_impl_rgb565_colour_filling_channel_mask 0x08003cfd   Thumb Code   284  arm_2d_alpha_blending.o(.text.__arm_2d_impl_rgb565_colour_filling_channel_mask)
    __arm_2d_impl_rgb565_colour_filling_channel_mask_opacity 0x08003e21   Thumb Code   296  arm_2d_alpha_blending.o(.text.__arm_2d_impl_rgb565_colour_filling_channel_mask_opacity)
    __arm_2d_impl_rgb565_colour_filling_mask 0x08003f51   Thumb Code   282  arm_2d_alpha_blending.o(.text.__arm_2d_impl_rgb565_colour_filling_mask)
    __arm_2d_impl_rgb565_colour_filling_mask_opacity 0x08004071   Thumb Code   294  arm_2d_alpha_blending.o(.text.__arm_2d_impl_rgb565_colour_filling_mask_opacity)
    __arm_2d_impl_rgb565_colour_filling_with_opacity 0x0800419d   Thumb Code   268  arm_2d_alpha_blending.o(.text.__arm_2d_impl_rgb565_colour_filling_with_opacity)
    __arm_2d_issue_sub_task_copy             0x080042af   Thumb Code   108  arm_2d.o(.text.__arm_2d_issue_sub_task_copy)
    __arm_2d_issue_sub_task_copy_origin      0x0800431b   Thumb Code   136  arm_2d.o(.text.__arm_2d_issue_sub_task_copy_origin)
    __arm_2d_issue_sub_task_copy_origin_masks 0x080043a3   Thumb Code   220  arm_2d.o(.text.__arm_2d_issue_sub_task_copy_origin_masks)
    __arm_2d_issue_sub_task_copy_with_mask   0x08004485   Thumb Code   184  arm_2d.o(.text.__arm_2d_issue_sub_task_copy_with_mask)
    __arm_2d_issue_sub_task_fill             0x0800453d   Thumb Code    98  arm_2d.o(.text.__arm_2d_issue_sub_task_fill)
    __arm_2d_issue_sub_task_fill_origin      0x0800459f   Thumb Code   122  arm_2d.o(.text.__arm_2d_issue_sub_task_fill_origin)
    __arm_2d_issue_sub_task_fill_with_mask   0x08004619   Thumb Code   172  arm_2d.o(.text.__arm_2d_issue_sub_task_fill_with_mask)
    __arm_2d_issue_sub_task_tile_process     0x080046c5   Thumb Code    60  arm_2d.o(.text.__arm_2d_issue_sub_task_tile_process)
    __arm_2d_op_acquire                      0x08004701   Thumb Code    62  arm_2d.o(.text.__arm_2d_op_acquire)
    __arm_2d_op_ensure_resource              0x0800473f   Thumb Code     4  arm_2d.o(.text.__arm_2d_op_ensure_resource)
    __arm_2d_op_frontend                     0x08004743   Thumb Code    20  arm_2d.o(.text.__arm_2d_op_frontend)
    __arm_2d_op_frontend_on_leave            0x08004757   Thumb Code    20  arm_2d.o(.text.__arm_2d_op_frontend_on_leave)
    __arm_2d_op_frontend_op_decoder          0x0800476b   Thumb Code   964  arm_2d.o(.text.__arm_2d_op_frontend_op_decoder)
    __arm_2d_op_invoke                       0x08004b2f   Thumb Code    20  arm_2d.o(.text.__arm_2d_op_invoke)
    __arm_2d_rgb16_sw_colour_filling         0x08005173   Thumb Code    80  arm_2d_draw.o(.text.__arm_2d_rgb16_sw_colour_filling)
    __arm_2d_rgb16_sw_draw_pattern           0x080051c3   Thumb Code   130  arm_2d_draw.o(.text.__arm_2d_rgb16_sw_draw_pattern)
    __arm_2d_rgb565_sw_colour_filling_with_mask_and_opacity 0x08005245   Thumb Code   146  arm_2d_alpha_blending.o(.text.__arm_2d_rgb565_sw_colour_filling_with_mask_and_opacity)
    __arm_2d_rgb565_sw_colour_filling_with_opacity 0x080052d7   Thumb Code    98  arm_2d_alpha_blending.o(.text.__arm_2d_rgb565_sw_colour_filling_with_opacity)
    __arm_2d_scene_player_register_on_draw_navigation_event_handler 0x08005339   Thumb Code    60  arm_2d_helper_scene.o(.text.__arm_2d_scene_player_register_on_draw_navigation_event_handler)
    __arm_2d_sub_task_depose                 0x08005445   Thumb Code   160  arm_2d.o(.text.__arm_2d_sub_task_depose)
    __arm_2d_tile_get_1st_derived_child_or_root 0x080054e5   Thumb Code   180  arm_2d.o(.text.__arm_2d_tile_get_1st_derived_child_or_root)
    __arm_2d_valid_mask                      0x0800566b   Thumb Code    78  arm_2d.o(.text.__arm_2d_valid_mask)
    __glcd0_pfb_render_handler               0x08005771   Thumb Code    54  arm_2d_disp_adapter_0.o(.text.__glcd0_pfb_render_handler)
    abort                                    0x0800607d   Thumb Code     2  retarget_io.o(.text.abort)
    arm_2d_helper_convert_ms_to_ticks        0x080061e7   Thumb Code    26  arm_2d_helper.o(.text.arm_2d_helper_convert_ms_to_ticks)
    arm_2d_helper_convert_ticks_to_ms        0x08006201   Thumb Code    20  arm_2d_helper.o(.text.arm_2d_helper_convert_ticks_to_ms)
    arm_2d_helper_draw_box                   0x08006215   Thumb Code   232  arm_2d_helper.o(.text.arm_2d_helper_draw_box)
    arm_2d_helper_get_reference_clock_frequency 0x080062fd   Thumb Code     6  b_mod_gui.o(.text.arm_2d_helper_get_reference_clock_frequency)
    arm_2d_helper_get_system_timestamp       0x08006303   Thumb Code     4  b_mod_gui.o(.text.arm_2d_helper_get_system_timestamp)
    arm_2d_helper_init                       0x08006307   Thumb Code    72  arm_2d_helper.o(.text.arm_2d_helper_init)
    arm_2d_helper_pfb_flush                  0x0800634f   Thumb Code   106  arm_2d_helper_pfb.o(.text.arm_2d_helper_pfb_flush)
    arm_2d_helper_pfb_init                   0x080063b9   Thumb Code   362  arm_2d_helper_pfb.o(.text.arm_2d_helper_pfb_init)
    arm_2d_helper_pfb_task                   0x08006525   Thumb Code  1292  arm_2d_helper_pfb.o(.text.arm_2d_helper_pfb_task)
    arm_2d_helper_pfb_update_dependency      0x08006a37   Thumb Code   102  arm_2d_helper_pfb.o(.text.arm_2d_helper_pfb_update_dependency)
    arm_2d_helper_swap_rgb16                 0x08006a9d   Thumb Code   160  arm_2d_helper_pfb.o(.text.arm_2d_helper_swap_rgb16)
    arm_2d_init                              0x08006b3d   Thumb Code    18  arm_2d.o(.text.arm_2d_init)
    arm_2d_op_init                           0x08006b4f   Thumb Code    22  arm_2d.o(.text.arm_2d_op_init)
    arm_2d_op_wait_async                     0x08006b65   Thumb Code     4  arm_2d.o(.text.arm_2d_op_wait_async)
    arm_2d_region_intersect                  0x08006b69   Thumb Code   134  arm_2d.o(.text.arm_2d_region_intersect)
    arm_2d_scene_player_append_scenes        0x08006bf1   Thumb Code   124  arm_2d_helper_scene.o(.text.arm_2d_scene_player_append_scenes)
    arm_2d_scene_player_task                 0x08006c6d   Thumb Code   748  arm_2d_helper_scene.o(.text.arm_2d_scene_player_task)
    arm_2d_set_default_frame_buffer          0x08006f59   Thumb Code    30  arm_2d.o(.text.arm_2d_set_default_frame_buffer)
    arm_2d_tile_generate_child               0x08006f77   Thumb Code    88  arm_2d.o(.text.arm_2d_tile_generate_child)
    arm_2dp_rgb16_draw_pattern               0x08006fcf   Thumb Code    98  arm_2d_draw.o(.text.arm_2dp_rgb16_draw_pattern)
    arm_2dp_rgb16_fill_colour                0x08007031   Thumb Code    70  arm_2d_draw.o(.text.arm_2dp_rgb16_fill_colour)
    arm_2dp_rgb565_fill_colour_with_mask_and_opacity 0x08007077   Thumb Code   104  arm_2d_alpha_blending.o(.text.arm_2dp_rgb565_fill_colour_with_mask_and_opacity)
    arm_2dp_rgb565_fill_colour_with_opacity  0x080070df   Thumb Code    76  arm_2d_alpha_blending.o(.text.arm_2dp_rgb565_fill_colour_with_opacity)
    arm_cos_f32                              0x0800712b   Thumb Code   168  arm_cos_f32.o(.text.arm_cos_f32)
    arm_extra_controls_init                  0x080071d3   Thumb Code    30  controls.o(.text.arm_extra_controls_init)
    arm_lcd_printf                           0x080071f1   Thumb Code    64  lcd_printf.o(.text.arm_lcd_printf)
    arm_lcd_puts                             0x08007231   Thumb Code   206  lcd_printf.o(.text.arm_lcd_puts)
    arm_lcd_text_init                        0x08007305   Thumb Code    56  lcd_printf.o(.text.arm_lcd_text_init)
    arm_lcd_text_location                    0x0800733d   Thumb Code    62  lcd_printf.o(.text.arm_lcd_text_location)
    arm_lcd_text_set_colour                  0x0800737b   Thumb Code    14  lcd_printf.o(.text.arm_lcd_text_set_colour)
    arm_lcd_text_set_draw_region             0x08007389   Thumb Code    28  lcd_printf.o(.text.arm_lcd_text_set_draw_region)
    arm_lcd_text_set_font                    0x080073a5   Thumb Code    62  lcd_printf.o(.text.arm_lcd_text_set_font)
    arm_lcd_text_set_target_framebuffer      0x080073e3   Thumb Code    20  lcd_printf.o(.text.arm_lcd_text_set_target_framebuffer)
    arm_sin_f32                              0x080073f7   Thumb Code   160  arm_sin_f32.o(.text.arm_sin_f32)
    bClose                                   0x08007497   Thumb Code    52  b_core.o(.text.bClose)
    bCtl                                     0x080074cb   Thumb Code    32  b_core.o(.text.bCtl)
    bDeviceClose                             0x080074ed   Thumb Code   124  b_device.o(.text.bDeviceClose)
    bDeviceCtl                               0x08007569   Thumb Code   120  b_device.o(.text.bDeviceCtl)
    bDeviceInit                              0x080075e1   Thumb Code   408  b_device.o(.text.bDeviceInit)
    bDeviceOpen                              0x08007781   Thumb Code   120  b_device.o(.text.bDeviceOpen)
    bDeviceRead                              0x080077f9   Thumb Code   124  b_device.o(.text.bDeviceRead)
    bDeviceWrite                             0x08007875   Thumb Code   132  b_device.o(.text.bDeviceWrite)
    bExec                                    0x080078f9   Thumb Code    46  b_core.o(.text.bExec)
    bGUIDrawBmp                              0x08007929   Thumb Code   214  b_mod_gui.o(.text.bGUIDrawBmp)
    bGUIRegist                               0x080079ff   Thumb Code   200  b_mod_gui.o(.text.bGUIRegist)
    bHalDelayMs                              0x08007ac9   Thumb Code    38  b_hal.o(.text.bHalDelayMs)
    bHalGetSysTick                           0x08007aef   Thumb Code    12  b_hal.o(.text.bHalGetSysTick)
    bHalGetSysTickPlus                       0x08007afb   Thumb Code    22  b_hal.o(.text.bHalGetSysTickPlus)
    bHalGpioConfig                           0x08007b11   Thumb Code     4  b_hal_gpio.o(.text.bHalGpioConfig)
    bHalGpioReadPin                          0x08007b15   Thumb Code     4  b_hal_gpio.o(.text.bHalGpioReadPin)
    bHalGpioReadPort                         0x08007b19   Thumb Code     4  b_hal_gpio.o(.text.bHalGpioReadPort)
    bHalGpioWritePin                         0x08007b1d   Thumb Code     4  b_hal_gpio.o(.text.bHalGpioWritePin)
    bHalGpioWritePort                        0x08007b21   Thumb Code     4  b_hal_gpio.o(.text.bHalGpioWritePort)
    bHalIncSysTick                           0x08007b25   Thumb Code    36  b_hal.o(.text.bHalIncSysTick)
    bHalInit                                 0x08007b49   Thumb Code   136  b_hal.o(.text.bHalInit)
    bHalSpiSend                              0x08007bd1   Thumb Code    60  b_hal_spi.o(.text.bHalSpiSend)
    bHalSpiTransfer                          0x08007c0d   Thumb Code   240  b_hal_spi.o(.text.bHalSpiTransfer)
    bHalUartSend                             0x08007d0d   Thumb Code     4  b_hal_uart.o(.text.bHalUartSend)
    bHalUserInit                             0x08007d11   Thumb Code     2  b_hal.o(.text.bHalUserInit)
    bInit                                    0x08007d15   Thumb Code   452  b_core.o(.text.bInit)
    bLogOut                                  0x08007ed9   Thumb Code   256  b_util_log.o(.text.bLogOut)
    bLseek                                   0x08007fd9   Thumb Code    36  b_core.o(.text.bLseek)
    bMcuGpioConfig                           0x08007ffd   Thumb Code   176  mcu_stm32l41x_gpio.o(.text.bMcuGpioConfig)
    bMcuGpioReadPin                          0x080080ad   Thumb Code    38  mcu_stm32l41x_gpio.o(.text.bMcuGpioReadPin)
    bMcuGpioReadPort                         0x080080d3   Thumb Code    22  mcu_stm32l41x_gpio.o(.text.bMcuGpioReadPort)
    bMcuGpioWritePin                         0x080080e9   Thumb Code    42  mcu_stm32l41x_gpio.o(.text.bMcuGpioWritePin)
    bMcuGpioWritePort                        0x08008113   Thumb Code    18  mcu_stm32l41x_gpio.o(.text.bMcuGpioWritePort)
    bMcuSpiSend                              0x08008125   Thumb Code    88  mcu_stm32l41x_spi.o(.text.bMcuSpiSend)
    bMcuSpiTransfer                          0x0800817d   Thumb Code    66  mcu_stm32l41x_spi.o(.text.bMcuSpiTransfer)
    bMcuUartSend                             0x080081c1   Thumb Code   146  mcu_stm32l41x_uart.o(.text.bMcuUartSend)
    bOpen                                    0x08008255   Thumb Code   146  b_core.o(.text.bOpen)
    bQRCodeCreate                            0x080082e9   Thumb Code   118  b_mod_qrcode.o(.text.bQRCodeCreate)
    bQRCodeGetValue                          0x0800835f   Thumb Code     8  b_mod_qrcode.o(.text.bQRCodeGetValue)
    bRead                                    0x08008367   Thumb Code    82  b_core.o(.text.bRead)
    bST7789_Init                             0x080083b9   Thumb Code   712  b_drv_st7789.o(.text.bST7789_Init)
    bWrite                                   0x08008681   Thumb Code    80  b_core.o(.text.bWrite)
    busy_wheel2_show                         0x080086d1   Thumb Code   224  busy_wheel.o(.text.busy_wheel2_show)
    busy_wheel_init                          0x080087b9   Thumb Code   180  busy_wheel.o(.text.busy_wheel_init)
    disp_adapter0_init                       0x08008879   Thumb Code   152  arm_2d_disp_adapter_0.o(.text.disp_adapter0_init)
    disp_adapter0_task                       0x08008911   Thumb Code    12  arm_2d_disp_adapter_0.o(.text.disp_adapter0_task)
    draw_round_corner_box                    0x08008d79   Thumb Code   404  shape_round_corner_box.o(.text.draw_round_corner_box)
    fputc                                    0x08008f13   Thumb Code    28  b_util_log.o(.text.fputc)
    lcd_draw_char                            0x08008f95   Thumb Code   136  lcd_printf.o(.text.lcd_draw_char)
    main                                     0x0800901d   Thumb Code   640  main.o(.text.main)
    progress_bar_drill_init                  0x080095d3   Thumb Code    32  progress_bar_drill.o(.text.progress_bar_drill_init)
    progress_bar_flowing_init                0x080095f3   Thumb Code    64  progress_bar_flowing.o(.text.progress_bar_flowing_init)
    progress_bar_simple_init                 0x08009633   Thumb Code     2  progress_bar_simple.o(.text.progress_bar_simple_init)
    qrcode_getModule                         0x08009635   Thumb Code    46  qrcode.o(.text.qrcode_getModule)
    qrcode_initBytes                         0x08009665   Thumb Code  2390  qrcode.o(.text.qrcode_initBytes)
    qrcode_initText                          0x08009fc1   Thumb Code    50  qrcode.o(.text.qrcode_initText)
    spinning_wheel_init                      0x0800a045   Thumb Code    28  spinning_wheel.o(.text.spinning_wheel_init)
    __0sprintf                               0x0800a061   Thumb Code    34  printfa.o(i.__0sprintf)
    __1sprintf                               0x0800a061   Thumb Code     0  printfa.o(i.__0sprintf)
    __2sprintf                               0x0800a061   Thumb Code     0  printfa.o(i.__0sprintf)
    __c89sprintf                             0x0800a061   Thumb Code     0  printfa.o(i.__0sprintf)
    sprintf                                  0x0800a061   Thumb Code     0  printfa.o(i.__0sprintf)
    __0vsnprintf                             0x0800a089   Thumb Code    46  printfa.o(i.__0vsnprintf)
    __1vsnprintf                             0x0800a089   Thumb Code     0  printfa.o(i.__0vsnprintf)
    __2vsnprintf                             0x0800a089   Thumb Code     0  printfa.o(i.__0vsnprintf)
    __c89vsnprintf                           0x0800a089   Thumb Code     0  printfa.o(i.__0vsnprintf)
    vsnprintf                                0x0800a089   Thumb Code     0  printfa.o(i.__0vsnprintf)
    __scatterload_copy                       0x0800a0bd   Thumb Code    14  handlers.o(i.__scatterload_copy)
    __scatterload_null                       0x0800a0cb   Thumb Code     2  handlers.o(i.__scatterload_null)
    __scatterload_zeroinit                   0x0800a0cd   Thumb Code    14  handlers.o(i.__scatterload_zeroinit)
    fputs                                    0x0800a9bd   Thumb Code    24  fputs.o(i.fputs)
    AHBPrescTable                            0x0800aa18   Data          16  system_stm32l4xx.o(.rodata.AHBPrescTable)
    APBPrescTable                            0x0800aa28   Data           8  system_stm32l4xx.o(.rodata.APBPrescTable)
    ARM_2D_FONT_6x8                          0x0800aa30   Data          36  glcd_fonts.o(.rodata.ARM_2D_FONT_6x8)
    ARM_2D_OP_DRAW_PATTERN_RGB16             0x0800aa54   Data          16  arm_2d_draw.o(.rodata.ARM_2D_OP_DRAW_PATTERN_RGB16)
    ARM_2D_OP_FILL_COLOUR_RGB16              0x0800aa64   Data          16  arm_2d_draw.o(.rodata.ARM_2D_OP_FILL_COLOUR_RGB16)
    ARM_2D_OP_FILL_COLOUR_WITH_MASK_AND_OPACITY_RGB565 0x0800aa74   Data          16  arm_2d_alpha_blending.o(.rodata.ARM_2D_OP_FILL_COLOUR_WITH_MASK_AND_OPACITY_RGB565)
    ARM_2D_OP_FILL_COLOUR_WITH_OPACITY_RGB565 0x0800aa84   Data          16  arm_2d_alpha_blending.o(.rodata.ARM_2D_OP_FILL_COLOUR_WITH_OPACITY_RGB565)
    FONT_6X8                                 0x0800aa94   Data          20  ugui.o(.rodata.FONT_6X8)
    Font_6x8_h                               0x0800aaa8   Data         896  glcd_fonts.o(.rodata.Font_6x8_h)
    LOW_LEVEL_IO__ARM_2D_IO_DRAW_PATTERN_RGB16 0x0800ae28   Data           8  arm_2d_draw.o(.rodata.LOW_LEVEL_IO__ARM_2D_IO_DRAW_PATTERN_RGB16)
    LOW_LEVEL_IO__ARM_2D_IO_FILL_COLOUR_MASK_AND_OPACITY_RGB565 0x0800ae30   Data           8  arm_2d_alpha_blending.o(.rodata.LOW_LEVEL_IO__ARM_2D_IO_FILL_COLOUR_MASK_AND_OPACITY_RGB565)
    LOW_LEVEL_IO__ARM_2D_IO_FILL_COLOUR_RGB16 0x0800ae38   Data           8  arm_2d_draw.o(.rodata.LOW_LEVEL_IO__ARM_2D_IO_FILL_COLOUR_RGB16)
    LOW_LEVEL_IO__ARM_2D_IO_FILL_COLOUR_WITH_OPACITY_RGB565 0x0800ae40   Data           8  arm_2d_alpha_blending.o(.rodata.LOW_LEVEL_IO__ARM_2D_IO_FILL_COLOUR_WITH_OPACITY_RGB565)
    MSIRangeTable                            0x0800ae48   Data          48  system_stm32l4xx.o(.rodata.MSIRangeTable)
    c_tileWhiteDotAlphaQ1                    0x0800b0d4   Data          16  shape_round_corner_box.o(.rodata.c_tileWhiteDotAlphaQ1)
    c_tileWhiteDotAlphaQ2                    0x0800b0e4   Data          16  shape_round_corner_box.o(.rodata.c_tileWhiteDotAlphaQ2)
    c_tileWhiteDotAlphaQ3                    0x0800b0f4   Data          16  shape_round_corner_box.o(.rodata.c_tileWhiteDotAlphaQ3)
    c_tileWhiteDotAlphaQ4                    0x0800b104   Data          16  shape_round_corner_box.o(.rodata.c_tileWhiteDotAlphaQ4)
    font_6x8                                 0x0800b144   Data        2048  ugui.o(.rodata.font_6x8)
    pal_window                               0x0800b944   Data          24  ugui.o(.rodata.pal_window)
    sinTable_f32                             0x0800b95c   Data        2052  arm_common_tables.o(.rodata.sinTable_f32)
    Region$$Table$$Base                      0x0800c6b4   Number         0  anon$$obj.o(Region$$Table)
    Region$$Table$$Limit                     0x0800c6d4   Number         0  anon$$obj.o(Region$$Table)
    c_tileWhiteDotMask                       0x0800c920   Data          16  white_dot.o(arm2d.tile.c_tileWhiteDotMask)
    c_tileWhiteDotRGB565                     0x0800c930   Data          16  white_dot.o(arm2d.tile.c_tileWhiteDotRGB565)
    bos_polling$$Base                        0x0800c940   Number         0  b_core.o(bos_polling)
    polling_bCoreMonitor                     0x0800c940   Data           4  b_core.o(bos_polling)
    polling_bTaskCore                        0x0800c944   Data           4  b_task.o(bos_polling)
    polling_bTimerCore                       0x0800c948   Data           4  b_timer.o(bos_polling)
    polling_bGUI_Core                        0x0800c94c   Data           4  b_mod_gui.o(bos_polling)
    polling_bHalUartDetectIdle               0x0800c950   Data           4  b_hal_uart.o(bos_polling)
    bos_polling$$Limit                       0x0800c954   Number         0  b_hal_uart.o(bos_polling)
    driver_init$$Base                        0x0800c954   Number         0  b_device.o(driver_init)
    init_bDriverNullInit                     0x0800c954   Data           8  b_device.o(driver_init)
    initbST7789_Init                         0x0800c95c   Data           8  b_drv_st7789.o(driver_init)
    driver_init$$Limit                       0x0800c964   Number         0  b_drv_st7789.o(driver_init)
    driver_init_0$$Base                      0x0800c964   Number         0  b_device.o(driver_init_0)
    init0_bDriverNullInit                    0x0800c964   Data           8  b_device.o(driver_init_0)
    driver_init_0$$Limit                     0x0800c96c   Number         0  b_device.o(driver_init_0)
    __stderr                                 0x20000000   Data           4  stderr.o(.data)
    ARM_2D_RUNTIME_FEATURE                   0x20000004   Data           1  arm_2d.o(.data.ARM_2D_RUNTIME_FEATURE)
    SystemCoreClock                          0x20000014   Data           4  system_stm32l4xx.o(.data.SystemCoreClock)
    qrInstance                               0x20000190   Data          20  main.o(.data.qrInstance)
    uwTickFreq                               0x200001d0   Data           1  stm32l4xx_hal.o(.data.uwTickFreq)
    uwTickPrio                               0x200001d4   Data           4  stm32l4xx_hal.o(.data.uwTickPrio)
    hlpuart1                                 0x200003cc   Data         132  main.o(.bss.hlpuart1)
    hspi2                                    0x20000450   Data         100  main.o(.bss.hspi2)
    huart1                                   0x200004b4   Data         132  main.o(.bss.huart1)
    modules_buf                              0x20000538   Data         466  main.o(.bss.modules_buf)
    ARM_2D_CTRL                              0x2000070c   Data         148  arm_2d.o(.bss.noinit)
    DISP0_ADAPTER                            0x200007f0   Data         240  arm_2d_disp_adapter_0.o(.bss.noinit)
    uwTick                                   0x20004644   Data           4  stm32l4xx_hal.o(.bss.uwTick)
    __initial_sp                             0x20005648   Data           0  startup_stm32l431xx.o(STACK)



==============================================================================

Memory Map of the image

  Image Entry point : 0x0800018d

  Load Region LR_IROM1 (Base: 0x08000000, Size: 0x0000cb48, Max: 0x00040000, ABSOLUTE, COMPRESSED[0x0000c9d0])

    Execution Region ER_IROM1 (Exec base: 0x08000000, Load base: 0x08000000, Size: 0x0000c96c, Max: 0x00040000, ABSOLUTE)

    Exec Addr    Load Addr    Size         Type   Attr      Idx    E Section Name        Object

    0x08000000   0x08000000   0x0000018c   Data   RO            3    RESET               startup_stm32l431xx.o
    0x0800018c   0x0800018c   0x00000000   Code   RO         6144  * .ARM.Collect$$$$00000000  mc_w.l(entry.o)
    0x0800018c   0x0800018c   0x00000004   Code   RO         6496    .ARM.Collect$$$$00000001  mc_w.l(entry2.o)
    0x08000190   0x08000190   0x00000004   Code   RO         6499    .ARM.Collect$$$$00000004  mc_w.l(entry5.o)
    0x08000194   0x08000194   0x00000000   Code   RO         6501    .ARM.Collect$$$$00000008  mc_w.l(entry7b.o)
    0x08000194   0x08000194   0x00000000   Code   RO         6503    .ARM.Collect$$$$0000000A  mc_w.l(entry8b.o)
    0x08000194   0x08000194   0x00000008   Code   RO         6504    .ARM.Collect$$$$0000000B  mc_w.l(entry9a.o)
    0x0800019c   0x0800019c   0x00000000   Code   RO         6506    .ARM.Collect$$$$0000000D  mc_w.l(entry10a.o)
    0x0800019c   0x0800019c   0x00000000   Code   RO         6508    .ARM.Collect$$$$0000000F  mc_w.l(entry11a.o)
    0x0800019c   0x0800019c   0x00000004   Code   RO         6497    .ARM.Collect$$$$00002712  mc_w.l(entry2.o)
    0x080001a0   0x080001a0   0x00000024   Code   RO            4    .text               startup_stm32l431xx.o
    0x080001c4   0x080001c4   0x00000068   Code   RO         6152    .text               mc_w.l(uldiv.o)
    0x0800022c   0x0800022c   0x00000062   Code   RO         6154    .text               mc_w.l(ldiv.o)
    0x0800028e   0x0800028e   0x00000024   Code   RO         6161    .text               mc_w.l(memcpya.o)
    0x080002b2   0x080002b2   0x00000024   Code   RO         6163    .text               mc_w.l(memseta.o)
    0x080002d6   0x080002d6   0x0000000e   Code   RO         6165    .text               mc_w.l(strlen.o)
    0x080002e4   0x080002e4   0x000000b0   Code   RO         6458    .text               mf_w.l(fadd.o)
    0x08000394   0x08000394   0x00000064   Code   RO         6460    .text               mf_w.l(fmul.o)
    0x080003f8   0x080003f8   0x000000ea   Code   RO         6462    .text               mf_w.l(dmul.o)
    0x080004e2   0x080004e2   0x000000de   Code   RO         6464    .text               mf_w.l(ddiv.o)
    0x080005c0   0x080005c0   0x0000001c   Code   RO         6466    .text               mf_w.l(fcmplt.o)
    0x080005dc   0x080005dc   0x00000012   Code   RO         6468    .text               mf_w.l(fflti.o)
    0x080005ee   0x080005ee   0x0000000a   Code   RO         6470    .text               mf_w.l(ffltui.o)
    0x080005f8   0x080005f8   0x0000001a   Code   RO         6474    .text               mf_w.l(dfltui.o)
    0x08000612   0x08000612   0x00000032   Code   RO         6476    .text               mf_w.l(ffixi.o)
    0x08000644   0x08000644   0x00000028   Code   RO         6478    .text               mf_w.l(ffixui.o)
    0x0800066c   0x0800066c   0x00000032   Code   RO         6480    .text               mf_w.l(dfixui.o)
    0x0800069e   0x0800069e   0x0000002c   Code   RO         6511    .text               mc_w.l(uidiv.o)
    0x080006ca   0x080006ca   0x0000001e   Code   RO         6513    .text               mc_w.l(llshl.o)
    0x080006e8   0x080006e8   0x00000020   Code   RO         6515    .text               mc_w.l(llushr.o)
    0x08000708   0x08000708   0x00000000   Code   RO         6526    .text               mc_w.l(iusefp.o)
    0x08000708   0x08000708   0x0000006e   Code   RO         6527    .text               mf_w.l(fepilogue.o)
    0x08000776   0x08000776   0x000000ba   Code   RO         6533    .text               mf_w.l(depilogue.o)
    0x08000830   0x08000830   0x0000015e   Code   RO         6535    .text               mf_w.l(dadd.o)
    0x0800098e   0x0800098e   0x00000030   Code   RO         6537    .text               mf_w.l(dfixul.o)
    0x080009be   0x080009be   0x00000002   PAD
    0x080009c0   0x080009c0   0x00000030   Code   RO         6541    .text               mf_w.l(cdrcmple.o)
    0x080009f0   0x080009f0   0x00000024   Code   RO         6543    .text               mc_w.l(init.o)
    0x08000a14   0x08000a14   0x00000024   Code   RO         6545    .text               mc_w.l(llsshr.o)
    0x08000a38   0x08000a38   0x0000003a   Code   RO         6555    .text               mc_w.l(__dczerorl.o)
    0x08000a72   0x08000a72   0x00000002   PAD
    0x08000a74   0x08000a74   0x000000ac   Code   RO         4493    .text.ARM_2D_A1_FONT_GET_CHAR_DESCRIPTOR_HANDLER  lcd_printf.o
    0x08000b20   0x08000b20   0x00000002   Code   RO           40    .text.BusFault_Handler  stm32l4xx_it.o
    0x08000b22   0x08000b22   0x00000002   Code   RO           46    .text.DebugMon_Handler  stm32l4xx_it.o
    0x08000b24   0x08000b24   0x0000000c   Code   RO         1531    .text.Disp0_DrawBitmap  b_mod_gui.o
    0x08000b30   0x08000b30   0x0000000a   Code   RO           15    .text.Error_Handler  main.o
    0x08000b3a   0x08000b3a   0x00000044   Code   RO         1168    .text.HAL_DMA_Abort  stm32l4xx_hal_dma.o
    0x08000b7e   0x08000b7e   0x00000056   Code   RO         1170    .text.HAL_DMA_Abort_IT  stm32l4xx_hal_dma.o
    0x08000bd4   0x08000bd4   0x000001de   Code   RO          282    .text.HAL_GPIO_Init  stm32l4xx_hal_gpio.o
    0x08000db2   0x08000db2   0x0000000c   Code   RO          288    .text.HAL_GPIO_WritePin  stm32l4xx_hal_gpio.o
    0x08000dbe   0x08000dbe   0x0000000c   Code   RO          101    .text.HAL_GetTick   stm32l4xx_hal.o
    0x08000dca   0x08000dca   0x0000001a   Code   RO           99    .text.HAL_IncTick   stm32l4xx_hal.o
    0x08000de4   0x08000de4   0x0000001c   Code   RO           89    .text.HAL_Init      stm32l4xx_hal.o
    0x08000e00   0x08000e00   0x00000054   Code   RO           91    .text.HAL_InitTick  stm32l4xx_hal.o
    0x08000e54   0x08000e54   0x00000032   Code   RO           63    .text.HAL_MspInit   stm32l4xx_hal_msp.o
    0x08000e86   0x08000e86   0x0000001e   Code   RO          176    .text.HAL_NVIC_EnableIRQ  stm32l4xx_hal_cortex.o
    0x08000ea4   0x08000ea4   0x00000056   Code   RO          174    .text.HAL_NVIC_SetPriority  stm32l4xx_hal_cortex.o
    0x08000efa   0x08000efa   0x00000020   Code   RO          172    .text.HAL_NVIC_SetPriorityGrouping  stm32l4xx_hal_cortex.o
    0x08000f1a   0x08000f1a   0x00000002   PAD
    0x08000f1c   0x08000f1c   0x00000074   Code   RO         1096    .text.HAL_PWREx_ControlVoltageScaling  stm32l4xx_hal_pwr_ex.o
    0x08000f90   0x08000f90   0x00000010   Code   RO         1094    .text.HAL_PWREx_GetVoltageRange  stm32l4xx_hal_pwr_ex.o
    0x08000fa0   0x08000fa0   0x0000026e   Code   RO          616    .text.HAL_RCCEx_PeriphCLKConfig  stm32l4xx_hal_rcc_ex.o
    0x0800120e   0x0800120e   0x00000002   PAD
    0x08001210   0x08001210   0x0000015c   Code   RO          586    .text.HAL_RCC_ClockConfig  stm32l4xx_hal_rcc.o
    0x0800136c   0x0800136c   0x0000002a   Code   RO          592    .text.HAL_RCC_GetPCLK1Freq  stm32l4xx_hal_rcc.o
    0x08001396   0x08001396   0x0000002a   Code   RO          594    .text.HAL_RCC_GetPCLK2Freq  stm32l4xx_hal_rcc.o
    0x080013c0   0x080013c0   0x000000b6   Code   RO          584    .text.HAL_RCC_GetSysClockFreq  stm32l4xx_hal_rcc.o
    0x08001476   0x08001476   0x00000002   PAD
    0x08001478   0x08001478   0x000005f2   Code   RO          580    .text.HAL_RCC_OscConfig  stm32l4xx_hal_rcc.o
    0x08001a6a   0x08001a6a   0x000000d8   Code   RO          753    .text.HAL_SPI_Init  stm32l4xx_hal_spi.o
    0x08001b42   0x08001b42   0x000000a8   Code   RO           77    .text.HAL_SPI_MspInit  stm32l4xx_hal_msp.o
    0x08001bea   0x08001bea   0x0000002c   Code   RO          184    .text.HAL_SYSTICK_Config  stm32l4xx_hal_cortex.o
    0x08001c16   0x08001c16   0x00000002   Code   RO          972    .text.HAL_UARTEx_RxEventCallback  stm32l4xx_hal_uart.o
    0x08001c18   0x08001c18   0x00000002   Code   RO         1023    .text.HAL_UARTEx_WakeupCallback  stm32l4xx_hal_uart_ex.o
    0x08001c1a   0x08001c1a   0x00000002   Code   RO          970    .text.HAL_UART_ErrorCallback  stm32l4xx_hal_uart.o
    0x08001c1c   0x08001c1c   0x000002ca   Code   RO          966    .text.HAL_UART_IRQHandler  stm32l4xx_hal_uart.o
    0x08001ee6   0x08001ee6   0x00000060   Code   RO          884    .text.HAL_UART_Init  stm32l4xx_hal_uart.o
    0x08001f46   0x08001f46   0x000000f8   Code   RO           65    .text.HAL_UART_MspInit  stm32l4xx_hal_msp.o
    0x0800203e   0x0800203e   0x00000002   Code   RO          974    .text.HAL_UART_TxCpltCallback  stm32l4xx_hal_uart.o
    0x08002040   0x08002040   0x00000002   Code   RO           36    .text.HardFault_Handler  stm32l4xx_it.o
    0x08002042   0x08002042   0x0000000c   Code   RO           54    .text.LPUART1_IRQHandler  stm32l4xx_it.o
    0x0800204e   0x0800204e   0x00000002   PAD
    0x08002050   0x08002050   0x00000002   Code   RO           38    .text.MemManage_Handler  stm32l4xx_it.o
    0x08002052   0x08002052   0x00000002   PAD
    0x08002054   0x08002054   0x00000002   Code   RO           34    .text.NMI_Handler   stm32l4xx_it.o
    0x08002056   0x08002056   0x00000002   Code   RO           48    .text.PendSV_Handler  stm32l4xx_it.o
    0x08002058   0x08002058   0x0000012a   Code   RO          618    .text.RCCEx_PLLSAI1_Config  stm32l4xx_hal_rcc_ex.o
    0x08002182   0x08002182   0x0000008a   Code   RO          582    .text.RCC_SetFlashLatencyFromMSIRange  stm32l4xx_hal_rcc.o
    0x0800220c   0x0800220c   0x00000002   Code   RO           44    .text.SVC_Handler   stm32l4xx_it.o
    0x0800220e   0x0800220e   0x0000000e   Code   RO           50    .text.SysTick_Handler  stm32l4xx_it.o
    0x0800221c   0x0800221c   0x00000082   Code   RO           13    .text.SystemClock_Config  main.o
    0x0800229e   0x0800229e   0x00000012   Code   RO         1293    .text.SystemInit    system_stm32l4xx.o
    0x080022b0   0x080022b0   0x000000cc   Code   RO          890    .text.UART_AdvFeatureConfig  stm32l4xx_hal_uart.o
    0x0800237c   0x0800237c   0x00000068   Code   RO          892    .text.UART_CheckIdleState  stm32l4xx_hal_uart.o
    0x080023e4   0x080023e4   0x00000010   Code   RO          968    .text.UART_DMAAbortOnError  stm32l4xx_hal_uart.o
    0x080023f4   0x080023f4   0x00000050   Code   RO          938    .text.UART_EndRxTransfer  stm32l4xx_hal_uart.o
    0x08002444   0x08002444   0x00000200   Code   RO          888    .text.UART_SetConfig  stm32l4xx_hal_uart.o
    0x08002644   0x08002644   0x000000d8   Code   RO          906    .text.UART_WaitOnFlagUntilTimeout  stm32l4xx_hal_uart.o
    0x0800271c   0x0800271c   0x00000138   Code   RO         5586    .text.UG_DrawLine   ugui.o
    0x08002854   0x08002854   0x0000000e   Code   RO         5596    .text.UG_DrawPixel  ugui.o
    0x08002862   0x08002862   0x0000001e   Code   RO         5652    .text.UG_DriverRegister  ugui.o
    0x08002880   0x08002880   0x00000082   Code   RO         5582    .text.UG_FillFrame  ugui.o
    0x08002902   0x08002902   0x0000002c   Code   RO         5580    .text.UG_FillScreen  ugui.o
    0x0800292e   0x0800292e   0x0000001e   Code   RO         5578    .text.UG_FontSelect  ugui.o
    0x0800294c   0x0800294c   0x000001d4   Code   RO         5602    .text.UG_GetUnicode  ugui.o
    0x08002b20   0x08002b20   0x00000078   Code   RO         5574    .text.UG_Init       ugui.o
    0x08002b98   0x08002b98   0x00000010   Code   RO         5576    .text.UG_SelectGUI  ugui.o
    0x08002ba8   0x08002ba8   0x00000010   Code   RO         5622    .text.UG_SetBackcolor  ugui.o
    0x08002bb8   0x08002bb8   0x00000010   Code   RO         5620    .text.UG_SetForecolor  ugui.o
    0x08002bc8   0x08002bc8   0x00000012   Code   RO         5668    .text.UG_TouchUpdate  ugui.o
    0x08002bda   0x08002bda   0x000000a0   Code   RO         5658    .text.UG_Update     ugui.o
    0x08002c7a   0x08002c7a   0x0000000c   Code   RO           52    .text.USART1_IRQHandler  stm32l4xx_it.o
    0x08002c86   0x08002c86   0x00000002   PAD
    0x08002c88   0x08002c88   0x00000002   Code   RO           42    .text.UsageFault_Handler  stm32l4xx_it.o
    0x08002c8a   0x08002c8a   0x00000002   PAD
    0x08002c8c   0x08002c8c   0x000000ca   Code   RO         1517    .text._LCD_FillRect  b_mod_gui.o
    0x08002d56   0x08002d56   0x00000062   Code   RO         1515    .text._LCD_SetColorPixel  b_mod_gui.o
    0x08002db8   0x08002db8   0x0000013c   Code   RO         5646    .text._UG_DrawObjectFrame  ugui.o
    0x08002ef4   0x08002ef4   0x00000060   Code   RO         5644    .text._UG_HandleEvents  ugui.o
    0x08002f54   0x08002f54   0x000000ba   Code   RO         5640    .text._UG_ProcessTouchData  ugui.o
    0x0800300e   0x0800300e   0x00000002   PAD
    0x08003010   0x08003010   0x0000039c   Code   RO         5610    .text._UG_PutChar   ugui.o
    0x080033ac   0x080033ac   0x000001f8   Code   RO         5632    .text._UG_PutText   ugui.o
    0x080035a4   0x080035a4   0x00000054   Code   RO         5642    .text._UG_UpdateObjects  ugui.o
    0x080035f8   0x080035f8   0x000000de   Code   RO         5660    .text._UG_WindowDrawTitle  ugui.o
    0x080036d6   0x080036d6   0x00000002   PAD
    0x080036d8   0x080036d8   0x000000d2   Code   RO         5662    .text._UG_WindowUpdate  ugui.o
    0x080037aa   0x080037aa   0x00000002   PAD
    0x080037ac   0x080037ac   0x000000a8   Code   RO         5977    .text.__aeabi_assert  retarget_io.o
    0x08003854   0x08003854   0x00000038   Code   RO         4010    .text.__arm_2d_helper_is_time_out  arm_2d_helper.o
    0x0800388c   0x0800388c   0x00000028   Code   RO         4104    .text.__arm_2d_helper_perf_counter_start  arm_2d_helper_pfb.o
    0x080038b4   0x080038b4   0x00000028   Code   RO         4106    .text.__arm_2d_helper_perf_counter_stop  arm_2d_helper_pfb.o
    0x080038dc   0x080038dc   0x00000042   Code   RO         4120    .text.__arm_2d_helper_pfb_get_next_dirty_region  arm_2d_helper_pfb.o
    0x0800391e   0x0800391e   0x00000002   PAD
    0x08003920   0x08003920   0x00000070   Code   RO         4102    .text.__arm_2d_helper_pfb_report_rendering_complete  arm_2d_helper_pfb.o
    0x08003990   0x08003990   0x00000042   Code   RO         3902    .text.__arm_2d_impl_rgb16_colour_filling  arm_2d_draw.o
    0x080039d2   0x080039d2   0x00000002   PAD
    0x080039d4   0x080039d4   0x00000064   Code   RO         3928    .text.__arm_2d_impl_rgb16_draw_pattern  arm_2d_draw.o
    0x08003a38   0x08003a38   0x0000008a   Code   RO         3926    .text.__arm_2d_impl_rgb16_draw_pattern_bg_comp  arm_2d_draw.o
    0x08003ac2   0x08003ac2   0x00000002   PAD
    0x08003ac4   0x08003ac4   0x00000098   Code   RO         3924    .text.__arm_2d_impl_rgb16_draw_pattern_bg_fg  arm_2d_draw.o
    0x08003b5c   0x08003b5c   0x0000008a   Code   RO         3922    .text.__arm_2d_impl_rgb16_draw_pattern_bg_only  arm_2d_draw.o
    0x08003be6   0x08003be6   0x00000002   PAD
    0x08003be8   0x08003be8   0x0000008c   Code   RO         3918    .text.__arm_2d_impl_rgb16_draw_pattern_fg_only  arm_2d_draw.o
    0x08003c74   0x08003c74   0x00000086   Code   RO         3920    .text.__arm_2d_impl_rgb16_draw_pattern_no_bg_comp  arm_2d_draw.o
    0x08003cfa   0x08003cfa   0x00000002   PAD
    0x08003cfc   0x08003cfc   0x00000122   Code   RO         2480    .text.__arm_2d_impl_rgb565_colour_filling_channel_mask  arm_2d_alpha_blending.o
    0x08003e1e   0x08003e1e   0x00000002   PAD
    0x08003e20   0x08003e20   0x0000012e   Code   RO         2482    .text.__arm_2d_impl_rgb565_colour_filling_channel_mask_opacity  arm_2d_alpha_blending.o
    0x08003f4e   0x08003f4e   0x00000002   PAD
    0x08003f50   0x08003f50   0x00000120   Code   RO         2472    .text.__arm_2d_impl_rgb565_colour_filling_mask  arm_2d_alpha_blending.o
    0x08004070   0x08004070   0x0000012c   Code   RO         2478    .text.__arm_2d_impl_rgb565_colour_filling_mask_opacity  arm_2d_alpha_blending.o
    0x0800419c   0x0800419c   0x00000112   Code   RO         2466    .text.__arm_2d_impl_rgb565_colour_filling_with_opacity  arm_2d_alpha_blending.o
    0x080042ae   0x080042ae   0x0000006c   Code   RO         1657    .text.__arm_2d_issue_sub_task_copy  arm_2d.o
    0x0800431a   0x0800431a   0x00000088   Code   RO         1663    .text.__arm_2d_issue_sub_task_copy_origin  arm_2d.o
    0x080043a2   0x080043a2   0x000000e2   Code   RO         1665    .text.__arm_2d_issue_sub_task_copy_origin_masks  arm_2d.o
    0x08004484   0x08004484   0x000000b8   Code   RO         1659    .text.__arm_2d_issue_sub_task_copy_with_mask  arm_2d.o
    0x0800453c   0x0800453c   0x00000062   Code   RO         1653    .text.__arm_2d_issue_sub_task_fill  arm_2d.o
    0x0800459e   0x0800459e   0x0000007a   Code   RO         1661    .text.__arm_2d_issue_sub_task_fill_origin  arm_2d.o
    0x08004618   0x08004618   0x000000ac   Code   RO         1655    .text.__arm_2d_issue_sub_task_fill_with_mask  arm_2d.o
    0x080046c4   0x080046c4   0x0000003c   Code   RO         1651    .text.__arm_2d_issue_sub_task_tile_process  arm_2d.o
    0x08004700   0x08004700   0x0000003e   Code   RO         1677    .text.__arm_2d_op_acquire  arm_2d.o
    0x0800473e   0x0800473e   0x00000004   Code   RO         1667    .text.__arm_2d_op_ensure_resource  arm_2d.o
    0x08004742   0x08004742   0x00000014   Code   RO         1679    .text.__arm_2d_op_frontend  arm_2d.o
    0x08004756   0x08004756   0x00000014   Code   RO         1671    .text.__arm_2d_op_frontend_on_leave  arm_2d.o
    0x0800476a   0x0800476a   0x000003c4   Code   RO         1673    .text.__arm_2d_op_frontend_op_decoder  arm_2d.o
    0x08004b2e   0x08004b2e   0x00000014   Code   RO         1681    .text.__arm_2d_op_invoke  arm_2d.o
    0x08004b42   0x08004b42   0x00000002   PAD
    0x08004b44   0x08004b44   0x0000062e   Code   RO         2289    .text.__arm_2d_region_calculator  arm_2d.o
    0x08005172   0x08005172   0x00000050   Code   RO         3958    .text.__arm_2d_rgb16_sw_colour_filling  arm_2d_draw.o
    0x080051c2   0x080051c2   0x00000082   Code   RO         3970    .text.__arm_2d_rgb16_sw_draw_pattern  arm_2d_draw.o
    0x08005244   0x08005244   0x00000092   Code   RO         2582    .text.__arm_2d_rgb565_sw_colour_filling_with_mask_and_opacity  arm_2d_alpha_blending.o
    0x080052d6   0x080052d6   0x00000062   Code   RO         2510    .text.__arm_2d_rgb565_sw_colour_filling_with_opacity  arm_2d_alpha_blending.o
    0x08005338   0x08005338   0x0000003c   Code   RO         4153    .text.__arm_2d_scene_player_register_on_draw_navigation_event_handler  arm_2d_helper_scene.o
    0x08005374   0x08005374   0x000000ce   Code   RO         2293    .text.__arm_2d_source_side_tile_mirror_preprocess  arm_2d.o
    0x08005442   0x08005442   0x00000002   PAD
    0x08005444   0x08005444   0x000000a0   Code   RO         1647    .text.__arm_2d_sub_task_depose  arm_2d.o
    0x080054e4   0x080054e4   0x000000b4   Code   RO         2039    .text.__arm_2d_tile_get_1st_derived_child_or_root  arm_2d.o
    0x08005598   0x08005598   0x000000d2   Code   RO         2291    .text.__arm_2d_tile_region_caculator  arm_2d.o
    0x0800566a   0x0800566a   0x0000004e   Code   RO         1699    .text.__arm_2d_valid_mask  arm_2d.o
    0x080056b8   0x080056b8   0x00000080   Code   RO         4497    .text.__arm_lcd_get_char_descriptor  lcd_printf.o
    0x08005738   0x08005738   0x00000038   Code   RO         1649    .text.__depose_virtual_resource  arm_2d.o
    0x08005770   0x08005770   0x00000036   Code   RO         5163    .text.__glcd0_pfb_render_handler  arm_2d_disp_adapter_0.o
    0x080057a6   0x080057a6   0x00000074   Code   RO         2295    .text.__load_virtual_resource  arm_2d.o
    0x0800581a   0x0800581a   0x000000a4   Code   RO         5189    .text.__on_each_frame_complete  arm_2d_disp_adapter_0.o
    0x080058be   0x080058be   0x00000002   Code   RO         5173    .text.__on_frame_complete  arm_2d_disp_adapter_0.o
    0x080058c0   0x080058c0   0x00000002   Code   RO         5171    .text.__on_frame_start  arm_2d_disp_adapter_0.o
    0x080058c2   0x080058c2   0x00000068   Code   RO         5169    .text.__pfb_draw_handler  arm_2d_disp_adapter_0.o
    0x0800592a   0x0800592a   0x00000002   PAD
    0x0800592c   0x0800592c   0x000000e4   Code   RO         5167    .text.__pfb_draw_navigation  arm_2d_disp_adapter_0.o
    0x08005a10   0x08005a10   0x0000008e   Code   RO         2285    .text.__tile_clipped_pave  arm_2d.o
    0x08005a9e   0x08005a9e   0x00000048   Code   RO         2287    .text.__tile_non_negtive_location_pave  arm_2d.o
    0x08005ae6   0x08005ae6   0x00000002   Code   RO         1309    .text._bCoreMonitor  b_core.o
    0x08005ae8   0x08005ae8   0x00000004   Code   RO         1351    .text._bDriverNullInit  b_device.o
    0x08005aec   0x08005aec   0x000000d4   Code   RO         1537    .text._bGUI_Core    b_mod_gui.o
    0x08005bc0   0x08005bc0   0x00000090   Code   RO         5436    .text._bHalUartDetectIdle  b_hal_uart.o
    0x08005c50   0x08005c50   0x00000098   Code   RO         1492    .text._bLcdWriteCmd  b_drv_st7789.o
    0x08005ce8   0x08005ce8   0x00000098   Code   RO         1494    .text._bLcdWriteData  b_drv_st7789.o
    0x08005d80   0x08005d80   0x0000004a   Code   RO         1496    .text._bLcdWriteGRam  b_drv_st7789.o
    0x08005dca   0x08005dca   0x00000002   PAD
    0x08005dcc   0x08005dcc   0x000001a8   Code   RO         1490    .text._bST7789Ctl   b_drv_st7789.o
    0x08005f74   0x08005f74   0x00000078   Code   RO         1488    .text._bST7789Write  b_drv_st7789.o
    0x08005fec   0x08005fec   0x0000003c   Code   RO         1451    .text._bTaskCore    b_task.o
    0x08006028   0x08006028   0x00000054   Code   RO         1474    .text._bTimerCore   b_timer.o
    0x0800607c   0x0800607c   0x00000002   Code   RO         5979    .text.abort         retarget_io.o
    0x0800607e   0x0800607e   0x00000002   PAD
    0x08006080   0x08006080   0x00000166   Code   RO         5944    .text.applyMask     qrcode.o
    0x080061e6   0x080061e6   0x0000001a   Code   RO         4008    .text.arm_2d_helper_convert_ms_to_ticks  arm_2d_helper.o
    0x08006200   0x08006200   0x00000014   Code   RO         4006    .text.arm_2d_helper_convert_ticks_to_ms  arm_2d_helper.o
    0x08006214   0x08006214   0x000000e8   Code   RO         4024    .text.arm_2d_helper_draw_box  arm_2d_helper.o
    0x080062fc   0x080062fc   0x00000006   Code   RO         1535    .text.arm_2d_helper_get_reference_clock_frequency  b_mod_gui.o
    0x08006302   0x08006302   0x00000004   Code   RO         1533    .text.arm_2d_helper_get_system_timestamp  b_mod_gui.o
    0x08006306   0x08006306   0x00000048   Code   RO         4000    .text.arm_2d_helper_init  arm_2d_helper.o
    0x0800634e   0x0800634e   0x0000006a   Code   RO         4100    .text.arm_2d_helper_pfb_flush  arm_2d_helper_pfb.o
    0x080063b8   0x080063b8   0x0000016a   Code   RO         4084    .text.arm_2d_helper_pfb_init  arm_2d_helper_pfb.o
    0x08006522   0x08006522   0x00000002   PAD
    0x08006524   0x08006524   0x00000512   Code   RO         4110    .text.arm_2d_helper_pfb_task  arm_2d_helper_pfb.o
    0x08006a36   0x08006a36   0x00000066   Code   RO         4108    .text.arm_2d_helper_pfb_update_dependency  arm_2d_helper_pfb.o
    0x08006a9c   0x08006a9c   0x000000a0   Code   RO         4090    .text.arm_2d_helper_swap_rgb16  arm_2d_helper_pfb.o
    0x08006b3c   0x08006b3c   0x00000012   Code   RO         2277    .text.arm_2d_init   arm_2d.o
    0x08006b4e   0x08006b4e   0x00000016   Code   RO         2281    .text.arm_2d_op_init  arm_2d.o
    0x08006b64   0x08006b64   0x00000004   Code   RO         1675    .text.arm_2d_op_wait_async  arm_2d.o
    0x08006b68   0x08006b68   0x00000086   Code   RO         2035    .text.arm_2d_region_intersect  arm_2d.o
    0x08006bee   0x08006bee   0x00000002   PAD
    0x08006bf0   0x08006bf0   0x0000007c   Code   RO         4141    .text.arm_2d_scene_player_append_scenes  arm_2d_helper_scene.o
    0x08006c6c   0x08006c6c   0x000002ec   Code   RO         4163    .text.arm_2d_scene_player_task  arm_2d_helper_scene.o
    0x08006f58   0x08006f58   0x0000001e   Code   RO         1685    .text.arm_2d_set_default_frame_buffer  arm_2d.o
    0x08006f76   0x08006f76   0x00000058   Code   RO         2047    .text.arm_2d_tile_generate_child  arm_2d.o
    0x08006fce   0x08006fce   0x00000062   Code   RO         3964    .text.arm_2dp_rgb16_draw_pattern  arm_2d_draw.o
    0x08007030   0x08007030   0x00000046   Code   RO         3952    .text.arm_2dp_rgb16_fill_colour  arm_2d_draw.o
    0x08007076   0x08007076   0x00000068   Code   RO         2576    .text.arm_2dp_rgb565_fill_colour_with_mask_and_opacity  arm_2d_alpha_blending.o
    0x080070de   0x080070de   0x0000004c   Code   RO         2504    .text.arm_2dp_rgb565_fill_colour_with_opacity  arm_2d_alpha_blending.o
    0x0800712a   0x0800712a   0x000000a8   Code   RO         5990    .text.arm_cos_f32   arm_cortexM4l_math.lib(arm_cos_f32.o)
    0x080071d2   0x080071d2   0x0000001e   Code   RO         4445    .text.arm_extra_controls_init  controls.o
    0x080071f0   0x080071f0   0x00000040   Code   RO         4503    .text.arm_lcd_printf  lcd_printf.o
    0x08007230   0x08007230   0x000000d4   Code   RO         4501    .text.arm_lcd_puts  lcd_printf.o
    0x08007304   0x08007304   0x00000038   Code   RO         4477    .text.arm_lcd_text_init  lcd_printf.o
    0x0800733c   0x0800733c   0x0000003e   Code   RO         4489    .text.arm_lcd_text_location  lcd_printf.o
    0x0800737a   0x0800737a   0x0000000e   Code   RO         4479    .text.arm_lcd_text_set_colour  lcd_printf.o
    0x08007388   0x08007388   0x0000001c   Code   RO         4487    .text.arm_lcd_text_set_draw_region  lcd_printf.o
    0x080073a4   0x080073a4   0x0000003e   Code   RO         4491    .text.arm_lcd_text_set_font  lcd_printf.o
    0x080073e2   0x080073e2   0x00000014   Code   RO         4481    .text.arm_lcd_text_set_target_framebuffer  lcd_printf.o
    0x080073f6   0x080073f6   0x000000a0   Code   RO         6010    .text.arm_sin_f32   arm_cortexM4l_math.lib(arm_sin_f32.o)
    0x08007496   0x08007496   0x00000034   Code   RO         1321    .text.bClose        b_core.o
    0x080074ca   0x080074ca   0x00000020   Code   RO         1319    .text.bCtl          b_core.o
    0x080074ea   0x080074ea   0x00000002   PAD
    0x080074ec   0x080074ec   0x0000007c   Code   RO         1363    .text.bDeviceClose  b_device.o
    0x08007568   0x08007568   0x00000078   Code   RO         1365    .text.bDeviceCtl    b_device.o
    0x080075e0   0x080075e0   0x0000019e   Code   RO         1353    .text.bDeviceInit   b_device.o
    0x0800777e   0x0800777e   0x00000002   PAD
    0x08007780   0x08007780   0x00000078   Code   RO         1357    .text.bDeviceOpen   b_device.o
    0x080077f8   0x080077f8   0x0000007c   Code   RO         1359    .text.bDeviceRead   b_device.o
    0x08007874   0x08007874   0x00000084   Code   RO         1361    .text.bDeviceWrite  b_device.o
    0x080078f8   0x080078f8   0x0000002e   Code   RO         1329    .text.bExec         b_core.o
    0x08007926   0x08007926   0x00000002   PAD
    0x08007928   0x08007928   0x000000d6   Code   RO         1529    .text.bGUIDrawBmp   b_mod_gui.o
    0x080079fe   0x080079fe   0x000000c8   Code   RO         1513    .text.bGUIRegist    b_mod_gui.o
    0x08007ac6   0x08007ac6   0x00000002   PAD
    0x08007ac8   0x08007ac8   0x00000026   Code   RO         5221    .text.bHalDelayMs   b_hal.o
    0x08007aee   0x08007aee   0x0000000c   Code   RO         5217    .text.bHalGetSysTick  b_hal.o
    0x08007afa   0x08007afa   0x00000016   Code   RO         5219    .text.bHalGetSysTickPlus  b_hal.o
    0x08007b10   0x08007b10   0x00000004   Code   RO         5286    .text.bHalGpioConfig  b_hal_gpio.o
    0x08007b14   0x08007b14   0x00000004   Code   RO         5292    .text.bHalGpioReadPin  b_hal_gpio.o
    0x08007b18   0x08007b18   0x00000004   Code   RO         5294    .text.bHalGpioReadPort  b_hal_gpio.o
    0x08007b1c   0x08007b1c   0x00000004   Code   RO         5288    .text.bHalGpioWritePin  b_hal_gpio.o
    0x08007b20   0x08007b20   0x00000004   Code   RO         5290    .text.bHalGpioWritePort  b_hal_gpio.o
    0x08007b24   0x08007b24   0x00000024   Code   RO         5215    .text.bHalIncSysTick  b_hal.o
    0x08007b48   0x08007b48   0x00000088   Code   RO         5213    .text.bHalInit      b_hal.o
    0x08007bd0   0x08007bd0   0x0000003c   Code   RO         5412    .text.bHalSpiSend   b_hal_spi.o
    0x08007c0c   0x08007c0c   0x00000100   Code   RO         5410    .text.bHalSpiTransfer  b_hal_spi.o
    0x08007d0c   0x08007d0c   0x00000004   Code   RO         5428    .text.bHalUartSend  b_hal_uart.o
    0x08007d10   0x08007d10   0x00000002   Code   RO         5211    .text.bHalUserInit  b_hal.o
    0x08007d12   0x08007d12   0x00000002   PAD
    0x08007d14   0x08007d14   0x000001c4   Code   RO         1325    .text.bInit         b_core.o
    0x08007ed8   0x08007ed8   0x00000100   Code   RO         1601    .text.bLogOut       b_util_log.o
    0x08007fd8   0x08007fd8   0x00000024   Code   RO         1317    .text.bLseek        b_core.o
    0x08007ffc   0x08007ffc   0x000000b0   Code   RO         5473    .text.bMcuGpioConfig  mcu_stm32l41x_gpio.o
    0x080080ac   0x080080ac   0x00000026   Code   RO         5477    .text.bMcuGpioReadPin  mcu_stm32l41x_gpio.o
    0x080080d2   0x080080d2   0x00000016   Code   RO         5481    .text.bMcuGpioReadPort  mcu_stm32l41x_gpio.o
    0x080080e8   0x080080e8   0x0000002a   Code   RO         5475    .text.bMcuGpioWritePin  mcu_stm32l41x_gpio.o
    0x08008112   0x08008112   0x00000012   Code   RO         5479    .text.bMcuGpioWritePort  mcu_stm32l41x_gpio.o
    0x08008124   0x08008124   0x00000058   Code   RO         5548    .text.bMcuSpiSend   mcu_stm32l41x_spi.o
    0x0800817c   0x0800817c   0x00000042   Code   RO         5546    .text.bMcuSpiTransfer  mcu_stm32l41x_spi.o
    0x080081be   0x080081be   0x00000002   PAD
    0x080081c0   0x080081c0   0x00000092   Code   RO         5561    .text.bMcuUartSend  mcu_stm32l41x_uart.o
    0x08008252   0x08008252   0x00000002   PAD
    0x08008254   0x08008254   0x00000092   Code   RO         1311    .text.bOpen         b_core.o
    0x080082e6   0x080082e6   0x00000002   PAD
    0x080082e8   0x080082e8   0x00000076   Code   RO         1563    .text.bQRCodeCreate  b_mod_qrcode.o
    0x0800835e   0x0800835e   0x00000008   Code   RO         1565    .text.bQRCodeGetValue  b_mod_qrcode.o
    0x08008366   0x08008366   0x00000052   Code   RO         1313    .text.bRead         b_core.o
    0x080083b8   0x080083b8   0x000002c8   Code   RO         1486    .text.bST7789_Init  b_drv_st7789.o
    0x08008680   0x08008680   0x00000050   Code   RO         1315    .text.bWrite        b_core.o
    0x080086d0   0x080086d0   0x000000e6   Code   RO         4429    .text.busy_wheel2_show  busy_wheel.o
    0x080087b6   0x080087b6   0x00000002   PAD
    0x080087b8   0x080087b8   0x000000c0   Code   RO         4425    .text.busy_wheel_init  busy_wheel.o
    0x08008878   0x08008878   0x00000098   Code   RO         5165    .text.disp_adapter0_init  arm_2d_disp_adapter_0.o
    0x08008910   0x08008910   0x0000000c   Code   RO         5175    .text.disp_adapter0_task  arm_2d_disp_adapter_0.o
    0x0800891c   0x0800891c   0x0000008c   Code   RO         5954    .text.drawFinderPattern  qrcode.o
    0x080089a8   0x080089a8   0x00000110   Code   RO         5942    .text.drawFormatBits  qrcode.o
    0x08008ab8   0x08008ab8   0x000002c0   Code   RO         5938    .text.drawFunctionPatterns  qrcode.o
    0x08008d78   0x08008d78   0x0000019a   Code   RO         4616    .text.draw_round_corner_box  shape_round_corner_box.o
    0x08008f12   0x08008f12   0x0000001c   Code   RO         1599    .text.fputc         b_util_log.o
    0x08008f2e   0x08008f2e   0x00000002   PAD
    0x08008f30   0x08008f30   0x00000064   Code   RO         5950    .text.getAlphanumeric  qrcode.o
    0x08008f94   0x08008f94   0x00000088   Code   RO         4495    .text.lcd_draw_char  lcd_printf.o
    0x0800901c   0x0800901c   0x00000280   Code   RO           11    .text.main          main.o
    0x0800929c   0x0800929c   0x00000336   Code   RO         5940    .text.performErrorCorrection  qrcode.o
    0x080095d2   0x080095d2   0x00000020   Code   RO         4556    .text.progress_bar_drill_init  progress_bar_drill.o
    0x080095f2   0x080095f2   0x00000040   Code   RO         4571    .text.progress_bar_flowing_init  progress_bar_flowing.o
    0x08009632   0x08009632   0x00000002   Code   RO         4587    .text.progress_bar_simple_init  progress_bar_simple.o
    0x08009634   0x08009634   0x0000002e   Code   RO         5948    .text.qrcode_getModule  qrcode.o
    0x08009662   0x08009662   0x00000002   PAD
    0x08009664   0x08009664   0x0000095c   Code   RO         5936    .text.qrcode_initBytes  qrcode.o
    0x08009fc0   0x08009fc0   0x00000032   Code   RO         5946    .text.qrcode_initText  qrcode.o
    0x08009ff2   0x08009ff2   0x00000052   Code   RO         5952    .text.setFunctionModule  qrcode.o
    0x0800a044   0x0800a044   0x0000001c   Code   RO         4637    .text.spinning_wheel_init  spinning_wheel.o
    0x0800a060   0x0800a060   0x00000028   Code   RO         6404    i.__0sprintf        mc_w.l(printfa.o)
    0x0800a088   0x0800a088   0x00000034   Code   RO         6407    i.__0vsnprintf      mc_w.l(printfa.o)
    0x0800a0bc   0x0800a0bc   0x0000000e   Code   RO         6549    i.__scatterload_copy  mc_w.l(handlers.o)
    0x0800a0ca   0x0800a0ca   0x00000002   Code   RO         6550    i.__scatterload_null  mc_w.l(handlers.o)
    0x0800a0cc   0x0800a0cc   0x0000000e   Code   RO         6551    i.__scatterload_zeroinit  mc_w.l(handlers.o)
    0x0800a0da   0x0800a0da   0x00000002   PAD
    0x0800a0dc   0x0800a0dc   0x0000018a   Code   RO         6409    i._fp_digits        mc_w.l(printfa.o)
    0x0800a266   0x0800a266   0x00000002   PAD
    0x0800a268   0x0800a268   0x000006e2   Code   RO         6410    i._printf_core      mc_w.l(printfa.o)
    0x0800a94a   0x0800a94a   0x00000024   Code   RO         6411    i._printf_post_padding  mc_w.l(printfa.o)
    0x0800a96e   0x0800a96e   0x0000002e   Code   RO         6412    i._printf_pre_padding  mc_w.l(printfa.o)
    0x0800a99c   0x0800a99c   0x00000016   Code   RO         6413    i._snputc           mc_w.l(printfa.o)
    0x0800a9b2   0x0800a9b2   0x0000000a   Code   RO         6414    i._sputc            mc_w.l(printfa.o)
    0x0800a9bc   0x0800a9bc   0x00000018   Code   RO         6147    i.fputs             mc_w.l(fputs.o)
    0x0800a9d4   0x0800a9d4   0x00000044   Data   RO         5196    .rodata..L__const.__user_scene_player_init.tCFG  arm_2d_disp_adapter_0.o
    0x0800aa18   0x0800aa18   0x00000010   Data   RO         1298    .rodata.AHBPrescTable  system_stm32l4xx.o
    0x0800aa28   0x0800aa28   0x00000008   Data   RO         1299    .rodata.APBPrescTable  system_stm32l4xx.o
    0x0800aa30   0x0800aa30   0x00000024   Data   RO         4469    .rodata.ARM_2D_FONT_6x8  glcd_fonts.o
    0x0800aa54   0x0800aa54   0x00000010   Data   RO         3986    .rodata.ARM_2D_OP_DRAW_PATTERN_RGB16  arm_2d_draw.o
    0x0800aa64   0x0800aa64   0x00000010   Data   RO         3989    .rodata.ARM_2D_OP_FILL_COLOUR_RGB16  arm_2d_draw.o
    0x0800aa74   0x0800aa74   0x00000010   Data   RO         3662    .rodata.ARM_2D_OP_FILL_COLOUR_WITH_MASK_AND_OPACITY_RGB565  arm_2d_alpha_blending.o
    0x0800aa84   0x0800aa84   0x00000010   Data   RO         3770    .rodata.ARM_2D_OP_FILL_COLOUR_WITH_OPACITY_RGB565  arm_2d_alpha_blending.o
    0x0800aa94   0x0800aa94   0x00000014   Data   RO         5917    .rodata.FONT_6X8    ugui.o
    0x0800aaa8   0x0800aaa8   0x00000380   Data   RO         4468    .rodata.Font_6x8_h  glcd_fonts.o
    0x0800ae28   0x0800ae28   0x00000008   Data   RO         3977    .rodata.LOW_LEVEL_IO__ARM_2D_IO_DRAW_PATTERN_RGB16  arm_2d_draw.o
    0x0800ae30   0x0800ae30   0x00000008   Data   RO         3641    .rodata.LOW_LEVEL_IO__ARM_2D_IO_FILL_COLOUR_MASK_AND_OPACITY_RGB565  arm_2d_alpha_blending.o
    0x0800ae38   0x0800ae38   0x00000008   Data   RO         3980    .rodata.LOW_LEVEL_IO__ARM_2D_IO_FILL_COLOUR_RGB16  arm_2d_draw.o
    0x0800ae40   0x0800ae40   0x00000008   Data   RO         3761    .rodata.LOW_LEVEL_IO__ARM_2D_IO_FILL_COLOUR_WITH_OPACITY_RGB565  arm_2d_alpha_blending.o
    0x0800ae48   0x0800ae48   0x00000030   Data   RO         1300    .rodata.MSIRangeTable  system_stm32l4xx.o
    0x0800ae78   0x0800ae78   0x000000a0   Data   RO         5958    .rodata.NUM_ERROR_CORRECTION_BLOCKS  qrcode.o
    0x0800af18   0x0800af18   0x00000140   Data   RO         5957    .rodata.NUM_ERROR_CORRECTION_CODEWORDS  qrcode.o
    0x0800b058   0x0800b058   0x00000050   Data   RO         5956    .rodata.NUM_RAW_DATA_MODULES  qrcode.o
    0x0800b0a8   0x0800b0a8   0x0000000c   Data   RO         5552    .rodata.SpiTable    mcu_stm32l41x_spi.o
    0x0800b0b4   0x0800b0b4   0x00000008   Data   RO         1385    .rodata.bDeviceDescTable  b_device.o
    0x0800b0bc   0x0800b0bc   0x00000002   Data   RO         1384    .rodata.bDriverNumberTable  b_device.o
    0x0800b0be   0x0800b0be   0x00000002   PAD
    0x0800b0c0   0x0800b0c0   0x00000014   Data   RO         1500    .rodata.bHalIf_ST7789  b_drv_st7789.o
    0x0800b0d4   0x0800b0d4   0x00000010   Data   RO         4621    .rodata.c_tileWhiteDotAlphaQ1  shape_round_corner_box.o
    0x0800b0e4   0x0800b0e4   0x00000010   Data   RO         4622    .rodata.c_tileWhiteDotAlphaQ2  shape_round_corner_box.o
    0x0800b0f4   0x0800b0f4   0x00000010   Data   RO         4623    .rodata.c_tileWhiteDotAlphaQ3  shape_round_corner_box.o
    0x0800b104   0x0800b104   0x00000010   Data   RO         4620    .rodata.c_tileWhiteDotAlphaQ4  shape_round_corner_box.o
    0x0800b114   0x0800b114   0x00000010   Data   RO         1012    .rodata.cst16       stm32l4xx_hal_uart.o
    0x0800b124   0x0800b124   0x00000010   Data   RO         5565    .rodata.cst16       mcu_stm32l41x_uart.o
    0x0800b134   0x0800b134   0x00000010   Data   RO         5192    .rodata.disp_adapter0_init.s_tNavDirtyRegionList  arm_2d_disp_adapter_0.o
    0x0800b144   0x0800b144   0x00000800   Data   RO         5916    .rodata.font_6x8    ugui.o
    0x0800b944   0x0800b944   0x00000018   Data   RO         5919    .rodata.pal_window  ugui.o
    0x0800b95c   0x0800b95c   0x00000804   Data   RO         6116    .rodata.sinTable_f32  arm_cortexM4l_math.lib(arm_common_tables.o)
    0x0800c160   0x0800c160   0x0000017f   Data   RO         1341    .rodata.str1.1      b_core.o
    0x0800c2df   0x0800c2df   0x00000050   Data   RO         1386    .rodata.str1.1      b_device.o
    0x0800c32f   0x0800c32f   0x00000052   Data   RO         2299    .rodata.str1.1      arm_2d.o
    0x0800c381   0x0800c381   0x00000091   Data   RO         3624    .rodata.str1.1      arm_2d_alpha_blending.o
    0x0800c412   0x0800c412   0x0000007e   Data   RO         3974    .rodata.str1.1      arm_2d_draw.o
    0x0800c490   0x0800c490   0x00000041   Data   RO         4036    .rodata.str1.1      arm_2d_helper.o
    0x0800c4d1   0x0800c4d1   0x0000008d   Data   RO         4122    .rodata.str1.1      arm_2d_helper_pfb.o
    0x0800c55e   0x0800c55e   0x00000047   Data   RO         4181    .rodata.str1.1      arm_2d_helper_scene.o
    0x0800c5a5   0x0800c5a5   0x0000003e   Data   RO         4432    .rodata.str1.1      busy_wheel.o
    0x0800c5e3   0x0800c5e3   0x0000003e   Data   RO         4505    .rodata.str1.1      lcd_printf.o
    0x0800c621   0x0800c621   0x0000004a   Data   RO         4628    .rodata.str1.1      shape_round_corner_box.o
    0x0800c66b   0x0800c66b   0x00000049   Data   RO         5194    .rodata.str1.1      arm_2d_disp_adapter_0.o
    0x0800c6b4   0x0800c6b4   0x00000020   Data   RO         6548    Region$$Table       anon$$obj.o
    0x0800c6d4   0x0800c6d4   0x000000c4   Data   RO         5136    arm2d.asset.c_bmpWhiteDotAlpha  white_dot.o
    0x0800c798   0x0800c798   0x00000188   Data   RO         5132    arm2d.asset.c_bmpWhiteDotRGB565  white_dot.o
    0x0800c920   0x0800c920   0x00000010   Data   RO         5137    arm2d.tile.c_tileWhiteDotMask  white_dot.o
    0x0800c930   0x0800c930   0x00000010   Data   RO         5133    arm2d.tile.c_tileWhiteDotRGB565  white_dot.o
    0x0800c940   0x0800c940   0x00000004   Data   RO         1339    bos_polling         b_core.o
    0x0800c944   0x0800c944   0x00000004   Data   RO         1453    bos_polling         b_task.o
    0x0800c948   0x0800c948   0x00000004   Data   RO         1476    bos_polling         b_timer.o
    0x0800c94c   0x0800c94c   0x00000004   Data   RO         1539    bos_polling         b_mod_gui.o
    0x0800c950   0x0800c950   0x00000004   Data   RO         5438    bos_polling         b_hal_uart.o
    0x0800c954   0x0800c954   0x00000008   Data   RO         1382    driver_init         b_device.o
    0x0800c95c   0x0800c95c   0x00000008   Data   RO         1499    driver_init         b_drv_st7789.o
    0x0800c964   0x0800c964   0x00000008   Data   RO         1381    driver_init_0       b_device.o


    Execution Region RW_IRAM2 (Exec base: 0x10000000, Load base: 0x0800c9d0, Size: 0x00000000, Max: 0x00004000, ABSOLUTE)

    **** No section assigned to this execution region ****


    Execution Region RW_IRAM1 (Exec base: 0x20000000, Load base: 0x0800c970, Size: 0x00005648, Max: 0x0000c000, ABSOLUTE, COMPRESSED[0x00000060])

    Exec Addr    Load Addr    Size         Type   Attr      Idx    E Section Name        Object

    0x20000000   COMPRESSED   0x00000004   Data   RW         6151    .data               mc_w.l(stderr.o)
    0x20000004   COMPRESSED   0x00000001   Data   RW         2297    .data.ARM_2D_RUNTIME_FEATURE  arm_2d.o
    0x20000005   COMPRESSED   0x00000003   PAD
    0x20000008   COMPRESSED   0x00000004   Data   RW         5197    .data.BENCHMARK.0   arm_2d_disp_adapter_0.o
    0x2000000c   COMPRESSED   0x00000004   PAD
    0x20000010   COMPRESSED   0x00000004   Data   RW         5201    .data.BENCHMARK.5   arm_2d_disp_adapter_0.o
    0x20000014   COMPRESSED   0x00000004   Data   RW         1297    .data.SystemCoreClock  system_stm32l4xx.o
    0x20000018   COMPRESSED   0x00000008   Data   RW         5439    .data.bHalUartListHead  b_hal_uart.o
    0x20000020   COMPRESSED   0x00000008   Data   RW         1454    .data.bTaskListHead  b_task.o
    0x20000028   COMPRESSED   0x00000008   Data   RW         1477    .data.bTimerListHead  b_timer.o
    0x20000030   COMPRESSED   0x00000004   Data   RW         5227    .data.bUsDelayParam  b_hal.o
    0x20000034   COMPRESSED   0x00000030   Data   RW         5193    .data.disp_adapter0_init.s_tScenes  arm_2d_disp_adapter_0.o
    0x20000064   COMPRESSED   0x00000004   PAD
    0x20000068   COMPRESSED   0x00000128   Data   RW           19    .data.main.gui_bTFT  main.o
    0x20000190   COMPRESSED   0x00000014   Data   RW           18    .data.qrInstance    main.o
    0x200001a4   COMPRESSED   0x00000004   Data   RW         4038    .data.s_tHelper.1   arm_2d_helper.o
    0x200001a8   COMPRESSED   0x00000028   Data   RW         4506    .data.s_tLCDTextControl  lcd_printf.o
    0x200001d0   COMPRESSED   0x00000001   Data   RW          160    .data.uwTickFreq    stm32l4xx_hal.o
    0x200001d1   COMPRESSED   0x00000003   PAD
    0x200001d4   COMPRESSED   0x00000004   Data   RW          159    .data.uwTickPrio    stm32l4xx_hal.o
    0x200001d8        -       0x00000004   Zero   RW         5198    .bss.BENCHMARK.1    arm_2d_disp_adapter_0.o
    0x200001dc   COMPRESSED   0x00000004   PAD
    0x200001e0        -       0x00000008   Zero   RW         5199    .bss.BENCHMARK.2    arm_2d_disp_adapter_0.o
    0x200001e8        -       0x00000004   Zero   RW         5200    .bss.BENCHMARK.3    arm_2d_disp_adapter_0.o
    0x200001ec   COMPRESSED   0x00000004   PAD
    0x200001f0        -       0x00000004   Zero   RW         5202    .bss.BENCHMARK.6    arm_2d_disp_adapter_0.o
    0x200001f4        -       0x00000008   Zero   RW         5924    .bss._UG_HandleEvents.msg  ugui.o
    0x200001fc        -       0x00000001   Zero   RW         1342    .bss._bCoreCreateFd.init  b_core.o
    0x200001fd   COMPRESSED   0x00000003   PAD
    0x20000200        -       0x00000004   Zero   RW         1542    .bss._bGUI_Core.tick  b_mod_gui.o
    0x20000204        -       0x00000011   Zero   RW         4507    .bss.arm_lcd_printf.s_chBuffer  lcd_printf.o
    0x20000215   COMPRESSED   0x00000003   PAD
    0x20000218        -       0x00000018   Zero   RW         1340    .bss.bCoreFdTable   b_core.o
    0x20000230        -       0x00000088   Zero   RW         1383    .bss.bDriverInterfaceTable  b_device.o
    0x200002b8        -       0x00000100   Zero   RW         1603    .bss.bLogBuff       b_util_log.o
    0x200003b8        -       0x00000004   Zero   RW         1498    .bss.bST7789RunInfo  b_drv_st7789.o
    0x200003bc        -       0x00000004   Zero   RW         5225    .bss.bSysTick       b_hal.o
    0x200003c0        -       0x00000004   Zero   RW         5226    .bss.bSysTickOvr    b_hal.o
    0x200003c4        -       0x00000001   Zero   RW         4435    .bss.busy_wheel2_show.s_chOffset  busy_wheel.o
    0x200003c5   COMPRESSED   0x00000003   PAD
    0x200003c8        -       0x00000004   Zero   RW         5918    .bss.gui            ugui.o
    0x200003cc        -       0x00000084   Zero   RW           20    .bss.hlpuart1       main.o
    0x20000450        -       0x00000064   Zero   RW           24    .bss.hspi2          main.o
    0x200004b4        -       0x00000084   Zero   RW           21    .bss.huart1         main.o
    0x20000538        -       0x000001d2   Zero   RW           17    .bss.modules_buf    main.o
    0x2000070a   COMPRESSED   0x00000002   PAD
    0x2000070c        -       0x00000094   Zero   RW         2300    .bss.noinit         arm_2d.o
    0x200007a0        -       0x00000028   Zero   RW         4431    .bss.noinit         busy_wheel.o
    0x200007c8        -       0x00000009   Zero   RW         4560    .bss.noinit         progress_bar_drill.o
    0x200007d1   COMPRESSED   0x00000007   PAD
    0x200007d8        -       0x00000018   Zero   RW         4575    .bss.noinit         progress_bar_flowing.o
    0x200007f0        -       0x000000f0   Zero   RW         5191    .bss.noinit         arm_2d_disp_adapter_0.o
    0x200008e0        -       0x00003c70   Zero   RW         5195    .bss.noinit.arm_2d_pfb_pool  arm_2d_disp_adapter_0.o
    0x20004550        -       0x00000004   Zero   RW         1455    .bss.pCurrentTaskAttr  b_task.o
    0x20004554        -       0x00000004   Zero   RW         1541    .bss.pGUICurrent    b_mod_gui.o
    0x20004558        -       0x00000004   Zero   RW         1540    .bss.pGUIHead       b_mod_gui.o
    0x2000455c   COMPRESSED   0x00000004   PAD
    0x20004560        -       0x00000008   Zero   RW         4436    .bss.s_lLastTime2   busy_wheel.o
    0x20004568        -       0x00000001   Zero   RW         4037    .bss.s_tHelper.0    arm_2d_helper.o
    0x20004569   COMPRESSED   0x00000003   PAD
    0x2000456c        -       0x000000d8   Zero   RW         4643    .bss.s_tMaskRotateCB  spinning_wheel.o
    0x20004644        -       0x00000004   Zero   RW          161    .bss.uwTick         stm32l4xx_hal.o
    0x20004648        -       0x00001000   Zero   RW            1    STACK               startup_stm32l431xx.o


==============================================================================

Image component sizes


      Code (inc. data)   RO Data    RW Data    ZI Data      Debug   Object Name

      5294        106         82          1        148     230899   arm_2d.o
      1878          0        193          0          0     786799   arm_2d_alpha_blending.o
       718         44        157         56      15732      11414   arm_2d_disp_adapter_0.o
      1246          8        174          0          0      35947   arm_2d_draw.o
       406         20         65          4          1      10700   arm_2d_helper.o
      2286        174        141          0          0      21596   arm_2d_helper_pfb.o
       932        106         71          0          0      22360   arm_2d_helper_scene.o
       928        136        387          0         25       5280   b_core.o
      1038        112        106          0        136       7267   b_device.o
      1634          0         28          0          4       9419   b_drv_st7789.o
       246          8          0          4          8       2035   b_hal.o
        20          0          0          0          0       4127   b_hal_gpio.o
       316          0          0          0          0       5047   b_hal_spi.o
       148          0          4          8          0       4679   b_hal_uart.o
       948          0          4          0         12       9742   b_mod_gui.o
       126          0          0          0          0       3016   b_mod_qrcode.o
        60          0          4          8          4       4406   b_task.o
        84          0          4          8          0       4322   b_timer.o
       284         12          0          0        256       3287   b_util_log.o
       422          8         62          0         49       3926   busy_wheel.o
        30          0          0          0          0        571   controls.o
         0          0        932          0          0       2903   glcd_fonts.o
       954        142         62         40         17       8859   lcd_printf.o
       780         56          0        316        830      14590   main.o
       296          0          0          0          0       3842   mcu_stm32l41x_gpio.o
       154          0         12          0          0       3728   mcu_stm32l41x_spi.o
       146          0         16          0          0       2390   mcu_stm32l41x_uart.o
        32          0          0          0          9       3100   progress_bar_drill.o
        64          0          0          0         24       3481   progress_bar_flowing.o
         2          0          0          0          0       2777   progress_bar_simple.o
      4970         24        560          0          0      27564   qrcode.o
       170         40          0          0          0       2735   retarget_io.o
       410          0        138          0          0       4556   shape_round_corner_box.o
        28          0          0          0        216       5183   spinning_wheel.o
        36          8        396          0       4096        844   startup_stm32l431xx.o
       150          0          0          5          4       8507   stm32l4xx_hal.o
       192          0          0          0          0       9914   stm32l4xx_hal_cortex.o
       154          0          0          0          0       7243   stm32l4xx_hal_dma.o
       490          0          0          0          0       5361   stm32l4xx_hal_gpio.o
       466          0          0          0          0      12754   stm32l4xx_hal_msp.o
       132          0          0          0          0       8051   stm32l4xx_hal_pwr_ex.o
      2274          0          0          0          0       9761   stm32l4xx_hal_rcc.o
       920          0          0          0          0      13471   stm32l4xx_hal_rcc_ex.o
       216          0          0          0          0      22374   stm32l4xx_hal_spi.o
      1948         46         16          0          0      27938   stm32l4xx_hal_uart.o
         2          0          0          0          0       8090   stm32l4xx_hal_uart_ex.o
        54          0          0          0          0       4272   stm32l4xx_it.o
        18          0         72          4          0       2985   system_stm32l4xx.o
      3916          0       2092          0         12      72156   ugui.o
         0          0        620          0          0       2307   white_dot.o

    ----------------------------------------------------------------------
     38088       1050       6432        468      21616    1488575   Object Totals
         0          0         32          0          0          0   (incl. Generated)
        70          0          2         14         33          0   (incl. Padding)

    ----------------------------------------------------------------------

      Code (inc. data)   RO Data    RW Data    ZI Data      Debug   Library Member Name

         0          0       2052          0          0       4961   arm_common_tables.o
       168          0          0          0          0        957   arm_cos_f32.o
       160          0          0          0          0        952   arm_sin_f32.o
        58          0          0          0          0          0   __dczerorl.o
         0          0          0          0          0          0   entry.o
         0          0          0          0          0          0   entry10a.o
         0          0          0          0          0          0   entry11a.o
         8          4          0          0          0          0   entry2.o
         4          0          0          0          0          0   entry5.o
         0          0          0          0          0          0   entry7b.o
         0          0          0          0          0          0   entry8b.o
         8          4          0          0          0          0   entry9a.o
        24          0          0          0          0         80   fputs.o
        30          0          0          0          0          0   handlers.o
        36          8          0          0          0         68   init.o
         0          0          0          0          0          0   iusefp.o
        98          0          0          0          0         84   ldiv.o
        30          0          0          0          0         68   llshl.o
        36          0          0          0          0         68   llsshr.o
        32          0          0          0          0         68   llushr.o
        36          0          0          0          0         68   memcpya.o
        36          0          0          0          0        108   memseta.o
      2362         92          0          0          0        668   printfa.o
         0          0          0          4          0          0   stderr.o
        14          0          0          0          0         68   strlen.o
        44          0          0          0          0         80   uidiv.o
       104          0          0          0          0         92   uldiv.o
        48          0          0          0          0         68   cdrcmple.o
       350          0          0          0          0        148   dadd.o
       222          0          0          0          0        100   ddiv.o
       186          0          0          0          0        176   depilogue.o
        50          0          0          0          0         76   dfixui.o
        48          0          0          0          0         68   dfixul.o
        26          0          0          0          0         76   dfltui.o
       234          0          0          0          0         96   dmul.o
       176          0          0          0          0        140   fadd.o
        28          0          0          0          0         68   fcmplt.o
       110          0          0          0          0        168   fepilogue.o
        50          0          0          0          0         68   ffixi.o
        40          0          0          0          0         68   ffixui.o
        18          0          0          0          0         68   fflti.o
        10          0          0          0          0         68   ffltui.o
       100          0          0          0          0         76   fmul.o

    ----------------------------------------------------------------------
      4992        108       2052          4          0       9922   Library Totals
         8          0          0          0          0          0   (incl. Padding)

    ----------------------------------------------------------------------

      Code (inc. data)   RO Data    RW Data    ZI Data      Debug   Library Name

       328          0       2052          0          0       6870   arm_cortexM4l_math.lib
      2960        108          0          4          0       1520   mc_w.l
      1696          0          0          0          0       1532   mf_w.l

    ----------------------------------------------------------------------
      4992        108       2052          4          0       9922   Library Totals

    ----------------------------------------------------------------------

==============================================================================


      Code (inc. data)   RO Data    RW Data    ZI Data      Debug   

     43080       1158       8484        472      21616    1496181   Grand Totals
     43080       1158       8484         96      21616    1496181   ELF Image Totals (compressed)
     43080       1158       8484         96          0          0   ROM Totals

==============================================================================

    Total RO  Size (Code + RO Data)                51564 (  50.36kB)
    Total RW  Size (RW Data + ZI Data)             22088 (  21.57kB)
    Total ROM Size (Code + RO Data + RW Data)      51660 (  50.45kB)

==============================================================================

