:020000040800F2
:10000000482A0020D9020008553700084137000867
:10001000513700081D1700080943000800000000C0
:10002000000000000000000000000000EB3D0008A0
:100030001F1700080000000057370008ED3D0008BA
:10004000F3020008F3020008F3020008F3020008BC
:10005000F3020008F3020008F3020008F3020008AC
:10006000F3020008F3020008F3020008F30200089C
:10007000F3020008F3020008F3020008F30200088C
:10008000F3020008F3020008F3020008F30200087C
:10009000F3020008F3020008F3020008F30200086C
:1000A000F3020008F3020008F3020008F30200085C
:1000B000F30200080000000000000000F302000846
:1000C000F3020008F3020008F3020008F30200083C
:1000D000F3020008FD420008F3020008F3020008E2
:1000E000F3020008F3020008000000000000000016
:1000F0000000000000000000000000000000000000
:1001000000000000F302000800000000F3020008F5
:100110000000000000000000F3020008F3020008E5
:10012000F3020008F3020008F3020008F3020008DB
:10013000F3020008000000000000000000000000C2
:10014000F3020008F3020008F302000800000000B8
:10015000F3020008F302000843370008F302000826
:10016000F3020008F3020008F30200080000000098
:10017000F3020008F3020008000000000000000085
:10018000F3020008F3020008F302000800F002F88E
:1001900000F092F80AA090E8000C82448344AAF18F
:1001A0000107DA4501D100F087F8AFF2090EBAE88D
:1001B0000F0013F0010F18BFFB1A43F0010318479B
:1001C0006C8100008C810000103A24BF78C878C18F
:1001D000FAD8520724BF30C830C144BF04680C604D
:1001E000704700000023002400250026103A28BF95
:1001F00078C1FBD8520728BF30C148BF0B60704799
:100200006E2900F09F83702900F0ED84662907F0C5
:100210005886652907F05586672907F052866129B7
:1002200007F0518603681B0A28BF41F08001692945
:1002300000F01A81642900F01781752900F01481FB
:100240006F2900F07B84782900F0B984E92900F057
:100250001584E42900F01284F52900F00F84EF29B9
:1002600000F07884F82900F0B8840368DB0928BF1F
:1002700041F08001632901F0D480732901F0D98015
:10028000E32901F0E480F32901F0E98000207047C0
:100290001FB507F009FE01F037F904000020002126
:1002A00007F056FB401C60600020002107F03AFB7D
:1002B000E0601FBD10B510BD01F0F9F81146FFF761
:1002C000E7FF06F0F5FB01F0D5F903B4FFF7F2FF05
:1002D00003BC01F01BFA00000948804709480047A9
:1002E000FEE7FEE7FEE7FEE7FEE7FEE7FEE7FEE7E6
:1002F000FEE7FEE704480549054A064B7047000043
:100300007F3E00088D01000848240020482A002074
:10031000482600204826002053EA020C00F069809D
:100320002DE9F04B4FF00006002B1FBFB3FA83F509
:1003300003FA05F424FA05F65E4012BF1643B2FA3A
:1003400082F502FA05F4C5F120051EBF22FA05FC6C
:1003500044EA0C04203556EA044C4FEA144418BF12
:10036000641C4FF000084FF00009904271EB030C41
:1003700039D3002919BFB1FA81F701FA07F6B0FAAB
:1003800080F700FA07F6C7F120071EBF20FA07FC26
:1003900046EA0C062037B6FBF4FCA7EB0507103F36
:1003A00007F01F0BCBF120062CFA06F60CFA0BFB1C
:1003B00044BFB3460026202FA4BF5E464FF0000B7B
:1003C0005BEA060C08BF4FF0010B19EB0B0948EB79
:1003D0000608ABFB027C06FB02CC0BFB03CCC01B6C
:1003E00071EB0C01C1E70B46024641464846BDE8A9
:1003F000F08B13B5084318BF4FF0FF300146AFF341
:100400000080BDE81C4070477CB51D4616460C00B8
:10041000009001D02044401E074B7B442A46694689
:100420000190304600F0A7FA05461CB1002069464D
:1004300000F0B4FA28467CBD890500000FB41CB555
:10044000084B06AA7B4469460090059800F093FA91
:1004500004460020694600F0A1FA20461CBC5DF865
:1004600014FB0000550500002DE9F041064600246C
:1004700010687529314616A510D000F0CFF9002874
:1004800002DA404213A507E031688A0701D512A5B8
:1004900002E0490704D511A5012401E000F0C7F9E5
:1004A00000210A2206F1240709E0B0FBF2FCB0FBB0
:1004B000F2F302FB1C00303078541846491C002827
:1004C000F3D123462A463046BDE8F04100F0E1B9B9
:1004D000000000002D0000002B00000020000000A4
:1004E0002DE9F05F894604464FF0000ADFF874B149
:1004F000FB44C0F820A02046E1688847002874D05B
:10050000252806D0D4E901219047206A401C2062AA
:10051000F1E700265F462046E16888472028054627
:1005200007DB312D05D2781910F8200C08B10643ED
:10053000F1E7B00701D526F00406C4F81CA0002797
:10054000C4F818A02A2D09D0284607F0E4F938B3DA
:1005500004EB8708303DC8F8185019E059F8041B1F
:10056000204604EB87029161E1688847012F054628
:1005700018D1E069002820DA26F020061DE0D8F81E
:10058000180000EB800005EB40003038C8F8180078
:100590002046E1688847054607F0BDF90028EED1FE
:1005A000012F0AD02E2D08D12046E16888477F1CF4
:1005B0000546022F46F02006C4DBA069002803DAB6
:1005C000404246F00106A061F00701D026F0100677
:1005D0006C2D0BD0682D09D04C2D39D06A2D35D01B
:1005E000742D35D07A2D33D016E038E0E1682F46EF
:1005F00020468847B842054609D16C2F26D04FF4D3
:100600008060E168064320468847054604E06C2F79
:100610001AD04FF4807006430DB3A5F1410019289C
:1006200002D8203546F400664A4629462046266010
:100630004E46FFF7E5FD80B101280BD0F61D26F0F0
:10064000070000F1080956E74020E4E78020D8E7DA
:100650000020D6E706F104094DE7284652E7206A54
:1006600000F002B8D679000030BCBDE8C09F10B5DC
:10067000431C02E010F8011B71B18107FAD14FF061
:10068000013202C88C1A8C4314EAC211F9D0C01A84
:100690000A0603D0C01E10BDC01A10BD0A0401D046
:1006A000801E10BD0902FCD0401E10BD032A40F27E
:1006B000308010F0030C00F0158011F8013BBCF104
:1006C000020F624498BF11F801CB00F8013B38BF1C
:1006D00011F8013BA2F1040298BF00F801CB38BF2A
:1006E00000F8013B11F0030300F08882083AC0F0E3
:1006F000088051F8043B083A51F804CBA0E80810F0
:10070000F5E7121D5CBF51F8043B40F8043BAFF322
:100710000080D20724BF11F8013B11F801CB48BF7C
:1007200011F8012B24BF00F8013B00F801CB48BFB2
:1007300000F8012B70474FF000020429C0F012802E
:1007400010F0030C00F01B80CCF1040CBCF1020F84
:1007500018BF00F8012BA8BF20F8022BA1EB0C0159
:1007600000F00DB85FEAC17C24BF00F8012B00F84F
:10077000012B48BF00F8012B70474FF0000200B575
:10078000134694469646203922BFA0E80C50A0E8B4
:100790000C50B1F12001BFF4F7AF090728BFA0E862
:1007A0000C5048BF0CC05DF804EB890028BF40F82E
:1007B000042B08BF704748BF20F8022B11F0804F70
:1007C00018BF00F8012B704770477047704770B52D
:1007D000044685690068C10601D5302600E0202660
:1007E000C00707D070BDD4E9012130469047206A88
:1007F000401C20626D1EF6D570BD70B5044685693B
:100800000078C00707D170BDD4E9012120209047AE
:10081000206A401C20626D1EF6D570BD09684A052D
:1008200001D540B27047C905FCD500B270470968D0
:100830004A0501D5C0B27047C905FCD580B27047E2
:1008400070B50C460546012A05D02878800600D5EB
:10085000EA69002302E0012305E05B1C934202D217
:10086000E05C0028F9D1A869E618C01AA861286AD6
:10087000184428622846FFF7AAFF04E0D5E90121C1
:1008800014F8010B9047B442F8D32846FFF7B5FFA0
:1008900070BD2DE9F0470D4699469246044600F199
:1008A00024080168880604D5E06921F01001216060
:1008B00000E00120A84201DD471B00E00027A169FC
:1008C0007A1902EB0900081AA0612078C00602D448
:1008D0002046FFF77CFF002608E0D4E901211AF842
:1008E00006009047206A401C761C20624E45F4DBCF
:1008F0002078C0060AD52046FFF769FF06E0D4E954
:10090000012130209047206A401C2062381EA7F148
:100910000107F4DC07E0D4E9012118F8050090474D
:10092000206A401C2062281EA5F10105F3DC204648
:10093000FFF763FF2078000602D50220BDE8F087AC
:100940000120FBE711680268006A530501D50870B1
:100950000AE0D30501D5088006E0130603D5C217C7
:10096000C1E9000200E008600120704701694A1CEB
:1009700002610878704700B58FB0CDE901310021E0
:10098000059105497944CDE9031011466846FFF702
:10099000A7FD0FB000BD0000E5FFFFFF0A6802F8E9
:1009A000010B0A607047D1E900239A4202D2531C1E
:1009B0000B601070704700002DE9FF5F15468A46F6
:1009C0000446DFF8AC80F8440027D8E900103E4622
:1009D000CDE9001010E03AF816106A4602A800F0BF
:1009E00042FD411C07D02178890603D5E2693918F8
:1009F00091420DD80744761C2078800602D5E06924
:100A0000B84205DDAE42E6DB3AF816000028E2D136
:100A1000A069C01BA0612046FFF7D9FED8E90010ED
:100A2000CDE90010002017E03AF818106A4602A835
:100A300000F019FDB0F1FF3F81460BD000250DF10C
:100A4000080B05E0D4E901211BF8050090476D1C57
:100A50004D45F7D308F10100B0428046E4DB206A3F
:100A6000384420622046FFF7C8FE00F003B80000BB
:100A7000127500003FBCBDE8C09F00002DE9F041A9
:100A80008046D21D22F007020025D2E90002F52996
:100A900015A614D0011E72F1000106DA0023D0EB76
:100AA000030063EB020211A608E0D8F800108B07E0
:100AB00001D50FA602E0490701D50EA60125114672
:100AC000002408F1240704E000F0CAF830323A5557
:100AD000641C50EA0102F7D12B46324621464046BB
:100AE000BDE8F041FFF7D5BE000000002D0000007A
:100AF0002B0000002000000030B4002100F124048D
:100B000008E002F00705D208303542EA4372DB08FC
:100B10006554491C52EA0305F3D10468002310A26E
:100B2000250708D504F020040C4304D0C469012330
:100B30000CA2641EC46130BCFFF7ABBE10B5044606
:100B400021461068FFF773FE02462046BDE81040BC
:100B50000023D1E7D21D22F00701D1E90023CBE722
:100B60000000000030000000F0B40D4601880905C7
:100B700002D5214C7C4402E01F4C7C440E34002101
:100B800000F1240608E002F00F071209E75D42EACF
:100B900003721B097754491C52EA0307F3D1027808
:100BA0000023120704D5702D06D009B10223113499
:100BB0002246F0BCFFF76DBE01231034F8E770B594
:100BC00004460D4621461068FFF731FE02462946CD
:100BD0002046BDE870400023C6E7D21D22F007037F
:100BE000D3E90023C0E70368126843F020030360E1
:100BF0000823C3610023B7E76C73000010B5203AE7
:100C0000C0F00B80B1E81850A0E81850B1E81850B7
:100C1000A0E81850203ABFF4F5AF5FEA027C24BF89
:100C2000B1E81850A0E8185044BF18C918C0BDE872
:100C300010405FEA827C24BF51F8043B40F8043B3B
:100C400008BF7047D20728BF31F8023B48BF11F8F0
:100C5000012B28BF20F8023B48BF00F8012B70474A
:100C600030B5B0F10A0271F100034FEA900E4EEA7E
:100C7000817EB0EB0E0061EB91014FEA101E4EEA4F
:100C8000017E10EB0E0041EB11114FEA102E4EEADF
:100C9000016E10EB0E0041EB11214FEA104E4EEAAF
:100CA000014E10EB0E0041EB1141401841F10001E3
:100CB0004FEAD00040EA41704FEAD1014FEA810487
:100CC00044EA907410EB800544EB01046D1944EB89
:100CD0000404521BA3414FF0000348BF0A3200D561
:100CE00030BD401C41F1000130BD2DE9FF4F0C46E5
:100CF0001E464FF0FF378BB0D2E90001DDF860806F
:100D00000A908A46C1F30A5505B93D4600210846B6
:100D10004FF00000BAF1000F00F4400005DA00EBDC
:100D200080004FF4400101EA50004FEA9059B9F1B8
:100D3000010F00DDB9460A9850EA4A000ED044F689
:100D40001050A5F2FF3545432F14B8F1000F1ED007
:100D50007542291E1EDDC9F100021CE0B8F1010F29
:100D60004FF0000001D0302103E0F24305E02154B0
:100D7000401CB042FBDB30460022002121540B997D
:100D8000C1F80880C1E900200FB000F0BCB9BD1B5C
:100D90006D1CDEE74A4600DA694206A800F0F8FB5F
:100DA00006AB93E8070003AB83E8070050460A99B7
:100DB00006F0D1F98DE80700A0F500501F3800902B
:100DC0000398002D0ADD42F21F014A460844002321
:100DD00003A90390684606F03AFC09E0A0F500502C
:100DE0004A461F38002303A90390684606F044FCD6
:100DF0008DE807000004000C03D04FF0FF304108DD
:100E000000E01046B8F1000F03D000220092154612
:100E10001EE0751E05D4FFF723FF303262556D1EAC
:100E2000F9D5B3460122084302D000227F1C04E01A
:100E30002078302801D100227F1E002A099784D013
:100E40001DE0112D07DAFFF70BFF303262556D1CE4
:100E500050EA0102F5D1084302D00098C8B10EE073
:100E60000021681E05E0235C625C63542254401E2E
:100E7000491C8142F7DBAB46A81B401E09900020AD
:100E800004F80B000B98099AC0F80880C0E9002B01
:100E90007AE711264FF0000857E72DE9F04F884612
:100EA0000446D21D22F0070191B0D1E90001CDE93D
:100EB0000A0106F018FD02460B98C00F01D02D2044
:100EC00007E02068810701D52B2002E0202101EAFC
:100ED000C000032A099001D0072A05DB03464146DA
:100EE000204600F015FB0BE12078800601D5E06973
:100EF00000E00620B8F1650F814606D0B8F1660F14
:100F000018D0B8F1670F70D131E00020B9F1110F9E
:100F1000009001DB112301E009F101030AAA01A9F4
:100F20000CA8FFF7E2FEDDE90C70002609F10105CF
:100F3000834647E001204B4600904FF000470AAA45
:100F400001A90CA8FFF7D1FEDDE90DB00C995D46B3
:100F5000002610B909F101000D18B9EB050003D402
:100F6000C0F1FF3609F10105A5EB09002BE0B9F14D
:100F7000010F01DA4FF001090020B9F1110F0090C3
:100F8000484601DD112300E003460AAA01A90CA886
:100F9000FFF7ABFEDDE90C704D4600268346207856
:100FA00000070AD4AB4500DA5D4601A8012D04DD37
:100FB000411911F8011C302907D04F4502DA17F109
:100FC000040F04DA012082460FE06D1EEEE7002FC9
:100FD00002DCED1B3E4403E0781CA84200DD7D1CD2
:100FE000B81B00F1010A4FF000472078000703D436
:100FF000AA4501DB4FF0FF3A0021B7F1004F0DF198
:1010000043088DF8431024D002202B23002F01DA4F
:101010007F422D230A21021EA0F1010000DC5FB1F6
:1010200097FBF1FC97FBF1F201FB1C7C17460CF1DE
:10103000300C08F801CDEEE7A8F10100037021881B
:10104000090501D5452100E06521A0F1010800F85E
:10105000011C09980FA9A1EB0807FF1D00B1012091
:10106000411901EBEA70A1693844081A401EA061D9
:101070002078C00602D42046FFF7A9FB099828B1C2
:10108000D4E901219047206A401C20622078C006E4
:1010900022D52046FFF79BFB1EE0002E04DBB34564
:1010A00002DD01A8805D00E03020D4E901219047F5
:1010B000206A401C2062761CAAF101005FEA000A47
:1010C0000AD100F021FAC0680168405CD4E901212E
:1010D0009047206A401C2062281EA5F10105DCDC37
:1010E00007E0D4E9012118F8010B9047206A401C61
:1010F0002062381EA7F10107F3DC2046FFF77DFBD5
:10110000032011B041E630BCBDE8C08F2DE9F04F9F
:1011100004460D46D21D22F0070089B0D0E90097A1
:101120004846394606F0DFFB0246F80F01D02D2372
:1011300007E02068810701D52B2302E0202101EA86
:10114000C0038DF820300BB1012000E00020032AFD
:10115000824601D0072A04DB2946204600F0D8F950
:101160003FE12078800601D40D2500E0E569C7F352
:101170000A560D2D49DA00214FEA175B08464FF059
:101180000000002F00F4400007DA00EB80004FF46D
:10119000400100EBD07001EA60008115012901DDFA
:1011A0004FF0FF3100224FEA850CBCF1180F06D337
:1011B0001346ACF118004FF08052C24003E04FF4E8
:1011C000801323FA0CF30CF10C0CBCF1200F04D3A8
:1011D000ACF1200C09FA0CF001E007FA0CF0002940
:1011E0004FF0004801DD18B90FE00ED140450CD397
:1011F00019EB02095F4121B9404502D19F4329EA19
:101200000209BBEB175F00D0761C2088000502D5D1
:101210007B48784402E07A487844193808AA302399
:1012200002F80A30037C0AF10101002E0AF1020AD9
:1012300053546A4602DC4FF0300101E04FF03101B7
:101240004FF001088DF8001002D0A6F2FF3603E03F
:1012500059EA470100D06B4E002D02DC21780907C6
:1012600004D54FF002082E218DF80110C44600214C
:101270000BE0C7F303433F01C35C491C6D1E02F83A
:101280000830052908F1010801DA002DF1DC002100
:101290000CE000EB1973491C1B786D1E082902F83D
:1012A00008304FEA091908F1010801DA002DF0DCD5
:1012B00021688B0602D516E0A8F10108E04505DD9E
:1012C00002EB080313F8013C302BF5D0B8F1000F06
:1012D00009DD02EB080313F8013C2E2B03D10907AB
:1012E00001D4A8F10108002D05DD3E2102F8081007
:1012F0006D1E08F10108407C002E02F8080008F17C
:10130000010804DA2D20764202F8080002E02B20C2
:1013100002F808000A214FF47A70864208F10108A9
:101320000BDB96FBF0F3303302F8083096FBF0F35A
:1013300008F1010800FB136601E0642E0CDB642059
:1013400096FBF0F3303302F8083096FBF0F308F127
:10135000010800FB136601E00A2E06DB96FBF1F0A4
:10136000303002F8080008F1010896FBF1F001FBAB
:101370001060303002F80800A16908F1010808EB9C
:10138000050202EB0A00081AA0612078C00602D408
:101390002046FFF71CFA216A08AE01EB0A00206222
:1013A00004E0D4E9012116F8010B9047BAF1010AD3
:1013B000F7D22078C00602D52046FFF708FA6E461D
:1013C00009E016F8010B3E280FD0D4E9012190471F
:1013D000206A401C2062B8F10108F2D22046FFF7D3
:1013E0000CFA09B0032000F00FB8206A28442062EC
:1013F00003E0D4E90121302090476D1EEBD3F8E7DC
:10140000096D000002FCFFFF30BCBDE8C08F10B5C5
:10141000436913B1AFF3008001E0FFF711FA012037
:1014200010BD127800F124010A7000224A700122D6
:10143000EDE711684FF0FF32E9E710B5436913B1EA
:10144000AFF3008001E0FFF7B7FA012010BD12886A
:1014500000F1240182840022C2840122EDE7116898
:101460004FF0FF32E9E72DE9F04116460C460546FC
:1014700000F042F8036893F80101012807D0FF2C1F
:1014800012D8185D80B101202C70BDE8F081D3F82E
:1014900007013246214603F20713C7182846BC4607
:1014A000BDE8F041002360474FF0FF30EDE775469F
:1014B00000F0EAF8AE4605006946534620F0070002
:1014C000854618B020B5FEF715FFBDE820404FF067
:1014D00000064FF000074FF000084FF0000BAC463D
:1014E000ACE8C009ACE8C009ACE8C009ACE8C00988
:1014F00021F007018D46704710B500F005F8001D7A
:1015000010BD00BF4D64000000487047400000203F
:101510002DE9F0411F46044603260168072A01F41D
:10152000006004DB08B116A505E016A503E008B1CC
:1015300015A500E015A521F010002060A069C01ECF
:10154000A0610FB1401EA0612046FFF740F94FB1E6
:10155000D4E9012138469047206A401C2062C01C13
:10156000206206E0206AFAE7D4E9012115F8010BB0
:101570009047761EF8D22046FFF73FF9BDE8F0818C
:101580004E414E006E616E00494E4600696E660027
:101590002DE9F047814616468AB0354878440DC893
:1015A0008DE80D0032487844801C03AC0DC884E8F7
:1015B0000D0041F69B300844372190FBF1F290FB7F
:1015C000F1F5A5F1800501FB12041B3C02D5644234
:1015D000012000E00020DFF898A080460027FA44B0
:1015E000AAF1BE0A0EE0E0070AD03246684607EBD1
:1015F000470101230AEB810106F03EF88DE8070060
:1016000064107F1C002CEED1194F7F44AE3F19E0CF
:10161000E80715D007EB04100DF1180A90E80E004A
:101620008AE80E00C068F04201D19819089032464D
:10163000012306A903A806F01FF803AB83E80700FF
:101640006D10641C002DE3D14FF001033246694652
:10165000B8F1000F03A802D005F0F9FF01E006F091
:101660000BF8C9E90001C9F808200AB0BDE8F08705
:10167000106A000010B50446AFF300802046BDE8B4
:101680001040FEF722BE00000048704720000020F6
:1016900030B44FF0013C50F8042B51F8043BCCFA25
:1016A00052F4D51A20D1FCB950F8042B51F8043B60
:1016B000CCFA52F4D51A17D1B4B950F8042B51F81A
:1016C000043BCCFA52F4D51A0ED16CB950F8042B65
:1016D00051F8043BCCFA52F4D51A05D1002CDAD0DB
:1016E00030BC4FF00000704729BAB1FA81F111F017
:1016F0001801D1F120008440F2D1CA40CB4012F051
:10170000FF0213F0FF0330BCD01A704701491820C4
:10171000ABBEFEE72600020070470000FEE7704700
:10172000EFF3108072B600BFFEE7014690F8250087
:10173000022815D10868D1E910C3026822F00E0210
:101740000260026822F00102026003F01C00012224
:1017500002FA00F0CCF80400002081F8252002E015
:101760000420C8630120002281F82420704780B53E
:1017700090F82510022920D10168D0F838E0D0E98E
:1017800010C30A68BEF1000F22F00E020A600A6858
:1017900022F001020A6003F01C014FF0010202FA7C
:1017A00001F1CCF804104FF0000180F8252080F8FA
:1017B000241005D0F047002102E00421C16301217B
:1017C000084680BDB0B5044600F005F9054640F274
:1017D0001800C2F200000078611C18BF044400BF6A
:1017E00000F0F9F8401BA042FAD3B0BD2DE9F04F4C
:1017F00084B00C680190002C00F0E180019841F267
:10180000000600F13842C4F600068E464FEAB227C1
:101810000721B04208BF0421042F4FF000054FF00C
:1018200001074FF000064FF0000838BF4FEAB22121
:101830000091CDF808E000BFA7F1010A012000FAED
:101840000AF214EA020900F0AC80DEF804C00CF0E1
:10185000030BABF10104012C16D801987446816882
:101860000323E468B3409943B44021438160416855
:101870004FEA480E9143CCF3001202FA0AF20446F2
:10188000D843114361600BE00321B140019CC84380
:10189000BBF1030FB64603D1B6464FF0030B23E06E
:1018A000E168029B01409A68BBF1020F02FA0EF256
:1018B00041EA0201E16017D16FF0030101EA5A0128
:1018C000214405F01C040F22D1F820C002FA04FBC9
:1018D0001A692CEA0B0CA24042EA0C02019C0A6233
:1018E000D3F804C00CF0030B21680BFA0EF2014090
:1018F00011432160DDF808E01CF4403F51D041F273
:101900006000C4F20200016840F2004C41F00101A5
:1019100001600168C4F2010C01F001010391039917
:101920002AF003014FF6084A6144CFF6FF7A05F02A
:101930000C030F2051F80A2000FA03F40098A24388
:1019400000FA03F31A4341F80A20DCF80810DEF825
:10195000042041EA090340F20C40D40258BF21EAB6
:101960000903CCF80830C4F201000168940241EA8E
:10197000090358BF21EA09030360DCF8041094034B
:1019800041EA090358BF21EA0903CCF80430DCF826
:101990000010D20341EA090358BF21EA0903CCF839
:1019A0000030DEF8004008F1010834FA07F106F1D2
:1019B000020607F1010705F104057FF43DAF04B00D
:1019C00000F000B830BCBDE8C08F1823002A08BF63
:1019D0002823C150704742F24440C2F20000006820
:1019E000704740F2180042F24441C2F20000C2F2D5
:1019F000000100780A6810440860704780B5032031
:101A000000F087F8002000F007F808B1012080BD41
:101A100000F02CF8002080BDB0B540F21801C2F2F1
:101A200000010978F9B1044640F20000C2F200005A
:101A30004FF47A720068B2FBF1F1B0FBF1F001F003
:101A400053FC0F2C4FF001050ED868B94FF0FF3052
:101A500021460022002500F031F840F21C00C2F2BD
:101A60000000046000E001252846B0BD82B041F2CC
:101A70005800C4F20200816841F001018160816870
:101A800001F0010101910199016841F0805101606B
:101A9000006800F080500090009802B07047002865
:101AA0000BD400F01F01012202FA01F14EF20012E4
:101AB0004009CEF2000242F82010704710B54EF6F1
:101AC0000C5CCEF2000CDCF80030C3F3022E8EF07A
:101AD0000704042C28BF0424BEF103034FF0FF3E8B
:101AE0000EFA04F438BF0023A14399400EFA03F321
:101AF0009A4300F00F03043B1143634409010C3384
:101B000000F16042B0F1FF3FC8BF02F564431970B5
:101B100010BD4EF60C51CEF200010A684FF6FF03DD
:101B20001A4060F30A2242F0806040F0FD700860C5
:101B30007047000047F20001C4F200010A68B0F5E6
:101B4000007F02F4C06025D1B0F5007F2AD008687C
:101B5000012262F34A20086040F20000C2F2000055
:101B60000068322358434DF68363C4F21B33A0FB55
:101B7000030302EB934000BF4B69421E824203D233
:101B800013F480601046F7D14869400544BF032034
:101B9000704707E0B0F5806F04D00868022262F356
:101BA0004A2008600020704747F20000C4F200009D
:101BB000006800F4C060704741F20002B0F5003FD9
:101BC000C4F2020210D1D2F8900000F44070B0F5D7
:101BD000407F1FD0B0F5007F00F01C81B0F5807F02
:101BE00040F0638178E070470146D06800F0030060
:101BF000032816D0022806D0012802D110688007D9
:101C000018D4002326E0106842F200434005C0F2D9
:101C1000F4030CE010684DF290018003C0F2030160
:101C200052E1106841F200238003C0F27A0303EA14
:101C3000E0730FE01068000703D4D2F894000009A5
:101C400000E010683C2303EA900048F26003C0F60D
:101C500000031B58B1F5007F4FF0000015DA1F2973
:101C600027DD7F2972DC202900F099804029BAD134
:101C7000D2F8880000F44050B0F5005F00F01E81FB
:101C8000B0F5805F40F0D680D7E0B1F5804F2ADB19
:101C9000B1F5802F6EDAB1F5804F00F08980B1F593
:101CA000004FA0D1D2F88800400058BF00F032BBEE
:101CB00004E1012900F08880022900F090800429C5
:101CC0007FF491AFD2F88800C0F30110DFE810F084
:101CD000B300B500F6000400D2F890004FF40041C4
:101CE00001EA80307FE7B1F5007F00F08180B1F537
:101CF000806F00F08680B1F5006F7FF474AFD2F88A
:101D0000880010F4400000F0D280B0F5400F00F0E1
:101D1000DE80B0F5000F40F0C8801068800144BF3D
:101D2000D0685FEAC03040F1C980D068C0F30210CB
:101D3000D1680130B3FBF0FCC1F30621D368002069
:101D4000B0EBD36F40F0F380D068F3E0802900F06F
:101D50006780B1F5807F7FF446AFD2F8880000F449
:101D60004030B0F5003F00F0A980B0F5803F40F072
:101D7000618062E003D0B1F5002F18BF7047D2F840
:101D80008800C0F38160DFE800F0025A6A7FD2F871
:101D9000980046F600418007C0F2DC2194E0D2F8BA
:101DA0008800C0F38120DFE800F04648890293E70D
:101DB000D2F8880000F04050B0F1805F00F06E80F3
:101DC000B0F1405F39D070E0D2F8880000F0030035
:101DD000DFE800F0033374027EE700F0B0BAD2F817
:101DE0008800C0F38100DFE800F02628690273E76D
:101DF000D2F88800C0F38140DFE800F01D0C6002DB
:101E00006AE7D2F88800C0F30150DFE800F014035D
:101E1000570261E7D2F894004FF4FA41800753E08B
:101E2000D2F8880000F44040B0F5004F46D0B0F53D
:101E3000804F02D0C8BB00F06DBA00F095BA1068B0
:101E4000000144BF10695FEAC0202ED51069C0F3BD
:101E50000620D1685843C1F3021112690EE01068E0
:101E6000800144BFD0685FEAC0201ED5D068C0F3AF
:101E70000620D1685843C1F30211D2680131B0FB8A
:101E8000F1F0C2F341513EE0106880070DD51068B3
:101E9000000721D4D2F8940000091EE01068000168
:101EA00044BF10695FEAC01020D40020704710685A
:101EB000000144BF10695FEAC0302AD4106842F2C2
:101EC00000414005C0F2F40101EAE07070474FF6AE
:101ED0006870C0F21F00704710683C2101EA900052
:101EE00048F26001C0F60001085870471069C0F35D
:101EF0000620D1685843C1F3021112690131B0FBC9
:101F0000F1F0C2F34161022202EB4101B0FBF1F0BA
:101F10007047D068C0F3021011690130B3FBF0FCC8
:101F2000C1F3062113690020B0EBD36F01D0DA0EA4
:101F300004E010691122800358BF072201FB0CF056
:101F4000B0FBF2F0704700002DE9F04381B0044689
:101F5000407841F20C070007C4F202071BD5606C01
:101F600068B1B0F5400F11D0B0F5000F40F00E8110
:101F7000386840F4803038604FF4000006E0201DDF
:101F8000002101F0E9FB814638B9606CF96F21F45A
:101F900040010843F8674FF00009A078800757D543
:101FA000F86CC0000BD4F86C4FF0010840F0805082
:101FB000F864F86C00F080500090009801E04FF059
:101FC000000847F20005C4F20005286840F480705C
:101FD0002860FFF700FD06462868C00507D4FFF714
:101FE000FAFC801B0228F7D94FF0030929E0B9F168
:101FF000000F26D1D7F8840010F4407017D0A16DDF
:10200000884211D0D7F88400D7F8841020F44070AB
:1020100041F48031C7F88410D7F8841021F480315E
:10202000C7F88410C7F88400C00740F0B280D7F822
:102030008400A16D20F4407008434FF00009C7F8F8
:102040008400B8F1000F03D0F86C20F08050F864E1
:102050002168C80705D0F86F226A20F003001043FA
:10206000F867880705D5F86F626A20F00C00104306
:10207000F867480705D5F86FA26A20F030001043D2
:10208000F867880605D5F86FE26A20F440601043CF
:10209000F867880505D5F86FE26B20F440201043FF
:1020A000F867480505D5F86F226C20F440101043FE
:1020B000F867480605D5F86F226B20F440501043AE
:1020C000F867080605D5F86F626B20F440401043AE
:1020D000F867C80505D5F86FA26B20F440301043AF
:1020E000F867080318D5FA6FA06C22F0406202432B
:1020F000B0F1806FFA6707D0B0F1006F0CD138688B
:1021000040F48010386007E0201D012101F024FB1D
:102110002168002818BF8146480318D5FA6FE06C83
:1021200022F040620243B0F1806FFA6707D0B0F14D
:10213000006F0CD1386840F48010386007E0201D33
:10214000012101F009FB2168002818BF81464804DD
:1021500010D5F86F226D20F040501043B2F1805F2F
:10216000F86707D1201D022101F0F6FA2168002846
:1021700018BF8146080405D5F86F616D20F08040D6
:102180000843F867484601B0BDE8F0834FF0010905
:1021900003E7FFF720FC064641F288354FF00309BC
:1021A000D7F8840080073FF542AFFFF714FC801B8F
:1021B000A842F5D945E700002DE9F04381B0002899
:1021C00000F0A48042F20008C4F202080446D8F8E5
:1021D00000000D4600F0070088420DD2D8F800003C
:1021E00020F007002843C8F80000D8F8000000F0ED
:1021F0000700A84240F08A80206841F20809C10720
:10220000C4F2020932D06068022806D0032809D13E
:1022100059F8081C89010DD478E059F8081C890385
:1022200008D473E059F8081C10B1490502D46DE0D8
:1022300089076BD5D9F8001021F003010843C9F8CC
:102240000000FFF7C8FB064641F28837D9F80000C6
:10225000616800F00C00B0EB810F06D0FFF7BBFB0C
:10226000801BB842F2D9032051E02068810707D5CE
:10227000D9F80010A26821F0F0011143C9F800104C
:10228000D8F8001001F00701A9420CD9D8F80010C5
:1022900021F007012943C8F80010D8F8001001F018
:1022A0000701A94232D1410707D5D9F80010E268E9
:1022B00021F4E0611143C9F80010000708D5D9F8EE
:1022C0000000216920F4605040EAC100C9F8000014
:1022D00000F04AF8D9F8001047F6C872C1F30311AC
:1022E000C0F60002515C40F2000201F01F0120FA2A
:1022F00001F140F21C00C2F200000068C2F20002CC
:10230000116001B0BDE8F043FFF786BB012001B0CA
:10231000BDE8F08340F2000041F20801C2F2000083
:10232000C4F202010068096847F6D872C1F30221BD
:10233000C0F60002515C01F01F01C840704740F236
:10234000000041F20801C2F20000C4F2020100687C
:10235000096847F6D872C1F3C221C0F60002515C89
:1023600001F01F01C840704741F20001C4F20201B0
:10237000886810F00C02C86805D00C2A27D100F03C
:102380000300012823D10868000703D4D1F8940082
:10239000000A01E00868000948F2600300F00F003D
:1023A000C0F6000353F82030002A184618BF00205A
:1023B0000C2A18BF7047C86800F0030002280FD02D
:1023C000032804BF41F20023C0F27A030CE0042A80
:1023D0001DD0082A20D141F20020C0F27A007047B7
:1023E00042F20043C0F2F403C868C0F30210CA68A6
:1023F0000130C2F30622C9685A43B2FBF0F0C1F3C0
:102400004161022202EB4101B0FBF1F0704742F260
:102410000040C0F2F400704700200023C8E700002D
:102420002DE9F04381B0002800F05E8241F2000601
:102430000446C4F20206B068F168227800F00C0885
:10244000D00601F0030728D42078C0075BD0B8F18C
:10245000080F51D0B8F10C0F08BF032F4CD065689E
:10246000B5F5803F07D03068B5F5A02F40F07982F0
:1024700040F480203060306840F480303060FFF7F6
:10248000AAFA0546306880033DD4FFF7A4FA401B42
:1024900064284FF00300F5D927E2B8F1000F1BD0F4
:1024A000B8F10C0F08BF012F16D0A16930680029C0
:1024B00000F09F8140F001003060FFF78CFA054684
:1024C0003068800700F1A881FFF785FA401B0228D9
:1024D0004FF00300F4D908E23068800703D5A06903
:1024E000002800F00182206A3168090700F1DF80CE
:1024F000D6F894100909DBE03068800303D56068E2
:10250000002800F0F181207880072CD5B8F1040F65
:102510001BD0B8F10C0F08BF022F16D0E16830684D
:10252000002900F0E58140F480703060FFF753FA35
:10253000054600BF306840050ED4FFF74CFA401B3B
:1025400002284FF00300F5D9CFE13068400503D5EC
:10255000E068002800F0C8817068216920F0F85018
:1025600040EA016070602078000760D4207840075E
:1025700074D42078800600F18080A06A002800F0E2
:102580004682022840F05A81F068E16A00F00302B6
:102590008A4240F07781226B6FF00F0300F07001E8
:1025A00003EB0212914240F06D81616B00F4FE4238
:1025B000B2EB012F40F06681A16B00F07842B2EBE4
:1025C000C16F40F05F81E26B0023CFF6E07303EA56
:1025D000025200F4C001A2F50012914240F0528173
:1025E000216C4FF07E4202EA016100F0C06001F10F
:1025F0007E41884240F046813068800100F10782C8
:10260000306840F080703060F06840F08070F060BA
:10261000FFF7E1F904463068800100F1F881FFF727
:10262000DAF9001B02284FF00300F4D95DE161697B
:10263000D6F89400002900F0C78040F00100C6F8E9
:102640009400FFF7C8F90546D6F8940080078DD4AA
:10265000FFF7C1F9401B0228F6D9B3E0B06DC00006
:1026600074D4B06D4FF0010940F08050B065B06D8A
:1026700000F08050009000986AE0616AD6F89800F7
:10268000002900F0178140F00100C6F89800FFF71C
:10269000A2F90546D6F8980080073FF56EAFFFF720
:1026A0009AF9401B02284FF00300F3D91DE131686D
:1026B00001F0F001884216D901F0E3F8002840F05B
:1026C0001381306840F0080030603068D4E9072199
:1026D00020F0F00008433060706820F47F4040EA4A
:1026E0000220706014E03168B8F1000F41F0080179
:1026F0003160316821F0F00141EA00013160716818
:10270000E26921F47F4141EA0221716000F0E78033
:10271000FFF72AFEB16847F6C872C1F30311C0F68D
:102720000002515C40F2000201F01F0120FA01F1A9
:1027300040F21C00C2F200000068C2F20002116008
:10274000FFF76AF9002840F0D0807DE64FF00009DD
:1027500047F20007C4F200073868C00511D4386892
:1027600040F480703860FFF736F905463868C005D8
:1027700007D4FFF730F9401B02284FF00300F5D9CA
:10278000B3E0A568012D08D0D6F89000052D40F0E3
:10279000C18040F00400C6F89000D6F8900040F0E8
:1027A0000100C6F89000FFF716F9054641F2883798
:1027B000D6F89000800700F1CB80FFF70CF9401BA2
:1027C000B842F5D9032090E020F00100C6F894004B
:1027D000FFF701F9054600BFD6F8940080077FF5A2
:1027E000C5AEFFF7F8F8401B02284FF00300F3D9FD
:1027F0007BE020F001003060FFF7EDF8054600BFF8
:10280000306880077FF520AEFFF7E5F8401B02280F
:102810004FF00300F4D968E0306840F00800306001
:102820003068D4E9072120F0F00008433060706878
:1028300020F47F4040EA0220706005E6B8F10C0FFA
:1028400052D0306820F0807030603068000103D4CE
:10285000F06820F00300F060F0684FF6FF71CFF6EB
:10286000EE610840F060FFF7B6F80446306880017A
:1028700040F1CD80FFF7AFF8001B03284FF00300B5
:10288000F4D332E0B8F10C0F2ED0306840012BD4D5
:10289000306820F080703060FFF79DF805463068A2
:1028A000800177D5FFF797F8401B02284FF003000F
:1028B000F5D91AE020F00100C6F89800FFF78BF870
:1028C000054600BFD6F8980080077FF556AEFFF7A3
:1028D00082F8401B02284FF00300F3D905E000F016
:1028E000D0FF00283FF414AF012001B0BDE8F08311
:1028F00020F480703060FFF76EF8054630684005C0
:102900007FF531AEFFF767F8401B02284FF0030058
:10291000F4D9EAE720F00100C6F89000D6F890005C
:1029200020F00400C6F89000FFF755F8002D05468A
:102930007FF43CAF41F28837D6F89000800707D586
:10294000FFF749F8401BB8424FF00300F4D9CCE739
:10295000B9F1000F3FF40DAEB06D20F08050B065BE
:1029600007E620F480303060306820F4802030604A
:10297000FFF731F8002D05467FF484AD06E0FFF740
:102980002AF8401B64284FF00300AED8306880035B
:10299000F5D4B8E5F06848F28C01C0F29D1104F15D
:1029A0002C0700EA010C8ECF6FF00F00D4E90F5412
:1029B00000EB02100022CFF6E07241EA0C0102EABD
:1029C00005520843A2F500124FF07E4540EA03206D
:1029D00005EA0465104305F17E4540EAC7602843D7
:1029E000F060306840F080703060F06840F08070D7
:1029F000F060FEF7F0FF04463068800107D4FEF770
:102A0000EAFF001B02284FF00300F5D96DE7002014
:102A10006BE780B5D0E9193ED0F844C09A0F0A7030
:102A2000C3F383624A70C3F301628A701A0CCA70DE
:102A30001A0A0A714FEA1E524B71CA80CEF3034242
:102A40000A72CEF3C0324A72CEF380328A72CEF36B
:102A50004032CA72CEF300320A730022BCF1010F79
:102A60004A7335D0BCF1000F40F0858040F6FC720F
:102A7000C36E02EA8E0242EA93720A61C26EC2F328
:102A8000C2630B75C2F302634B75C2F342538B757D
:102A9000C2F38243CB75C2F3C2330B76D1F810C0B8
:102AA0000B7E0CF1010C03F0070302330CFA03FC5C
:102AB000C0F854C00B7A03F00F0E012303FA0EF393
:102AC00083655B0A03FB0CF3C3654FF4007311E0ED
:102AD000B0F86E200EF03F0342EA03420A610A6931
:102AE0004FF4806303EB82224FF40073C0E9152397
:102AF000C265C26E0366C2F380334B76C2F3C6135F
:102B000002F07F028B76CA76006FC20F0A77C0F39D
:102B100041724A77C0F382628A77C0F38352CA77E0
:102B2000C0F3405281F82020002281F82120C0F318
:102B3000004381F82230C0F3C03381F82330C0F362
:102B4000803381F82430C0F3403381F82530C0F35E
:102B5000003381F82630C0F3812381F82730C0F399
:102B60000123C0B2400881F8283081F829000120F3
:102B700081F82A000CE0016840F2FF52C0F24002E6
:102B80008A63816B012241F08051816380F8342097
:102B9000104680BD10B5016D04460068090400F0C0
:102BA00041FF20B1A16B0843A063002010BD206845
:102BB000002101F0F0F8C0F3432010BD10B5D0B1F2
:102BC000044690F8340020B900202077204600F019
:102BD0003AF9032084F83400204600F00FF800286A
:102BE0004FF0010018BF10BD0021A163216384F8DC
:102BF0003400002010BD012010BD0000F0B58FB0E2
:102C000004464FF40020FEF7D7FFC0B348F6593111
:102C10000546C009C0F24F11A0FB01016FF001028F
:102C20000F09206802EB11110026029100210022F9
:102C300000230096019601F0B1F82068416821F464
:102C40008071416001F0C0F82068B5FBF7F242F2F4
:102C500010134168C0F20103B3FBF2F241F480713A
:102C60004160501CFEF7AEFD0496206800F074FE33
:102C700070B1012584F83450A16B084304E00125AC
:102C80004FF0006084F83450A06328460FB0F0BDC8
:102C9000206800F085FE50B120680021A16400F09A
:102CA0005BFE0028E5D1A06C012802D009E00120DC
:102CB000A0642068002100F029FE10B14FF0805080
:102CC000D7E704984FF6FE71884221D80025CCF250
:102CD00010154FF6FF7600BF2068002100F016FEA9
:102CE0000028C6D12068294600F01CFE0028E5D146
:102CF0002068002101F04FF80499002801F101013A
:102D00000491049901D4B142E6D3C0F3807000E08D
:102D1000002004994FF6FF72914202D34FF0807069
:102D2000A7E7606420680125ADF80E5001F02FF888
:102D300088B1606C032811D12068042101F02BF8C0
:102D4000000DE06404A92046FFF763FE002853D07D
:102D50004FF080508EE74FF080608BE7206800F0E6
:102D60004EFE00287FF486AF2068002101F013F8A2
:102D7000216860670846042101F00DF82168A0670A
:102D80000846082101F007F82168E06708460C2191
:102D900001F001F8616CC4F880000329CCD02068F0
:102DA0000DF10E0100F04AFE00287FF463AF606C65
:102DB0000328C1D0BDF80E1020682165090400F079
:102DC00028FE00287FF456AF2068002100F0E3FFC2
:102DD000216860660846042100F0DDFF2168A066D6
:102DE0000846082100F0D7FF2168E06608460C215C
:102DF00000F0D1FF20679FE7216D20680A040023BF
:102E000000F0F1FD00287FF435AF94E88F00D4E99D
:102E10000565CDE90076029500F0C0FF20684FF40B
:102E2000007100F08CFD60B1216840F2FF52C0F2E9
:102E300040028A63A16B01250843A06384F83450E3
:102E400023E7002521E72DE9F0479EB0044619A8A5
:102E50001421FDF792FC02A85C21FDF78EFC20688E
:102E600042F60001C4F2010188425AD14FF4002019
:102E700002904FF08060149001200490082005908B
:102E800007204FF0020906904FF004084FF480101D
:102E9000CDF80C90CDE90789099002A8FFF754F806
:102EA00008B1FEF73DFC41F24C00C4F2020041695A
:102EB00040F6000441F4806141614169C4F60004B8
:102EC00001F4806101910199016819AD41F004019B
:102ED000016001684FF0000A01F0040101910199BD
:102EE0000168032641F00801016000680C2700F02A
:102EF0000800019001984FF48850CDE91909204647
:102F00002946CDF86CA01C961D97FEF76FFC19A8FA
:102F100080E8000704F580602946CDE91C67FEF7CC
:102F200065FC1EB0BDE8F0872DE9F04786B09A46F3
:102F300016460D460446FEF74EFD7DB1804694F8D8
:102F4000340001280ED10021A163E06D0AEB0602D6
:102F500082420FD9A06B40F0007006E0A06B40F0F9
:102F6000006002E0A06B40F00050A063012006B0BA
:102F7000BDE8F087032084F83400626C2068012AE1
:102F80004FF0FF32C16218BF760200924FEA4A2228
:102F9000019290224FF002090292CDE9039101279C
:102FA0006946059700F07DFDBAF1020F06D3C4F81B
:102FB00030902068314600F0FEFC04E02763206872
:102FC000314600F004FD70B1216840F2FF52C0F2BA
:102FD00040028A63A16B0843A0630120002184F8AA
:102FE00034002163C3E7DDF83890019E2068426B0E
:102FF000416B12F4957F27D17EB111F400410CD0C2
:10300000002700BF00F0E8FE1C2FE85102D0206826
:103010000437F7E7E819203E051DFEF7DCFCA0EBBE
:1030200008004845E2D3206840F2FF51C0F2400159
:103030008163A06B40F00040A063012084F834005D
:1030400000202063032092E7BAF1020F12D311F49B
:1030500080710FD0616C03290CD000F0FBFC01469D
:10306000206839B140F2FF52C0F240028263A06B87
:103070000843B1E7416B090726D4416B89072CD47B
:10308000416B890632D4416BB6B111F4001113D0F3
:10309000043E00F0A1FE2860FEF79DFCA0EB0800B6
:1030A00048452CD22068416B36B111F40011A6F1CD
:1030B000040605F10405ECD140F23A518163012088
:1030C00084F83400002052E740F2FF51C0F2400182
:1030D0008163A06B40F008007EE740F2FF51C0F230
:1030E00040018163A06B40F0020075E740F2FF51A0
:1030F000C0F240018163A06B40F020006CE72068C3
:1031000040F2FF51C0F240018163A06B40F00040EB
:1031100062E700002DE9F04F89B01F4615460E46C4
:103120000446FEF758FC76B1824694F83400012834
:103130000DD10021A163E06D7A1982420FD9A06BF5
:1031400040F0007006E0A06B40F0006002E0A06B71
:1031500040F00050A063012009B000F0C2B8032085
:1031600084F83400626C2068012A4FF0FF32C1629B
:1031700018BF6D0203927A0204929022CDE90521D4
:1031800007910121089103A900F08BFC022F06D3BF
:10319000202020632068294600F06BFC05E0102009
:1031A00020632068294600F070FC70B1216840F26D
:1031B000FF52C0F240028A63A16B0843A063012062
:1031C000002184F834002163C6E7DDF84880DDF88B
:1031D00010B002AD019700BF2068426B416B12F442
:1031E0008D7F3CD1BBF1000F18BF11F4804121D07D
:1031F000002700BFF15D06EB0709029199F8012055
:1032000041EA0221029199F8022041EA0241029129
:1032100099F8032041EA02610291294600F0DFFD9E
:103220001C2F03D020680437E4E700BFABF1200B6C
:1032300009F10406FEF7CFFBA0EB0A004045CBD313
:10324000206840F2FF51C0F240018163A06BA0638F
:10325000012084F834000020206303207CE7019AD9
:10326000022A12D311F480710FD0616C03290CD0A3
:1032700000F0F0FB0146206839B140F2FF52C0F285
:1032800040028263A06B084398E7416B09070DD4A5
:10329000416B890713D4416BC90619D440F23A51E6
:1032A0008163012084F83400002055E740F2FF518B
:1032B000C0F240018163A06B40F008007EE740F25D
:1032C000FF51C0F240018163A06B40F0020075E73E
:1032D00040F2FF51C0F240018163A06B40F010004A
:1032E0006CE730BCBDE8C08F411E0020B0EB116F11
:1032F0001CBF012070474EF21002CEF20002516056
:103300004EF62351CEF20001F0230B70072190609E
:1033100011607047704770477047000070B50168D2
:103320000446C8690A6840F62F03D1F808E0034054
:10333000202B02F0200308D13BB1616E002900F080
:1033400035812046BDE87040084740F60F05284209
:103350000BD040F220150EF0010CC0F200452A42BD
:103360008CF001064ED1002E4CD0236E0240D606C2
:1033700039D5012B37D1102008628868400600F14A
:10338000B280B4F85800B4F85A20B4F85A30002B80
:1033900000F00C81801A020400F0088151E8001F3F
:1033A000226821F4907142E800130BB12168F5E71F
:1033B000216851E8021F226821F0010142E802134E
:1033C000002BF5D12021E16700212166616600BF55
:1033D000216851E8001F226821F0100142E8001323
:1033E000002BF5D1C4E0C00240F1C8801EF480007B
:1033F00000F0C4804FF4801220460A62BDE870409D
:10340000FFF789BFC50718BF12F4807507D00125E3
:103410000D62D4F8805045F00105C4F8805000F0EA
:1034200002054FF0010E8EEA5505354307D10225FE
:103430000D62D4F8805045F00405C4F8805000F0C7
:1034400004058EEA95052E4307D104260E62D4F8B2
:10345000806046F00206C4F8806053EA0C0318BF8F
:103460000123060708D53BB108230B62D4F880304E
:1034700043F00803C4F8803003050BD512F08063D5
:1034800008D04FF400630B62D4F8803043F020037F
:10349000C4F88030D4F88030002B00F087801040D2
:1034A000800604D5626E12B1204690472168D4F898
:1034B0008000896800F0280001F0400140186FD0BA
:1034C000204600F087FD20688168490640F17D8034
:1034D00050E8020F216820F0400041E80202002A73
:1034E00065D02068F4E7206F026853689DB2002D14
:1034F0005CD0B4F85800854258D2A4F85A3012680B
:10350000920632D451E8000F216820F4807041E81F
:1035100000021AB1206850E8000FF5E7206850E873
:10352000020F216820F0010041E80202002AF5D1D3
:10353000206850E8020F216820F0400041E80202B4
:10354000002AF5D12020E06700202066206850E89E
:10355000000F216820F0100041E80002002AF5D198
:10356000206FFEF7E2F8B4F85800B4F85A10401A89
:1035700081B22046BDE87040FFF7CCBE10060DD4E6
:10358000500613D551E8000F216820F0400041E8B3
:103590000002FAB1206850E8000FF5E7A16ECDE611
:1035A0002046FFF7B9FE0020C4F8800070BD206FF0
:1035B00058B143F6C571C0F600018163FEF7D7F834
:1035C0000028F3D0206F816BBCE62046BDE8704038
:1035D000FFF7A2BE20200021A0672046A166BDE81B
:1035E000704000F0ACB810B5A0B10446806F28B9A7
:1035F000002084F87400204600F025F82420A067FD
:103600002068016821F001010160204600F00AFDF8
:10361000012801D1012010BD606A10B1204600F0E0
:1036200037FC2168486820F490404860886820F0A2
:103630002A008860086840F0010220460A60BDE860
:10364000104000F08BBC10B59EB0044619A81421A0
:10365000FDF793F802A85C21FDF78FF8206843F688
:103660000001C4F2010188422ED048F20001C4F2E8
:103670000001884261D12020029000200D9002A814
:10368000FEF762FC08B1FEF74BF841F24C00C4F2C1
:1036900002000169462441F001010161016901F064
:1036A000010101910199016841F004010160006884
:1036B000082100F00400019001980320199040F6C1
:1036C0000000C4F6000026E00120029000200A90CD
:1036D00002A8FEF739FC08B1FEF722F841F24C00CF
:1036E000C4F202004169252441F4804141614169ED
:1036F00001F4804101910199016841F001010160EB
:103700000068072100F00100019001984FF4C060AB
:1037100019904FF0904002221A9200221B9203222D
:10372000CDE91C2119A9FEF761F8204602210022EB
:10373000FEF7C4F92046FEF7B2F91EB010BD70477F
:10374000FEE742F2B420C2F20000FFF7E7BD00003E
:10375000FEE70000FEE77047F0B581B041F20007D8
:10376000C4F20207FA680D469107044612D0F868C1
:10377000216800F0030088424FF0010040F07F8094
:1037800000297CD0F868C0F30210616801308842DB
:103790000AD11DE02068032808D002283ED0012865
:1037A00002D13968890708D4012068E039688903A3
:1037B0005CBF39685FEA4131F6D5F968626821F08B
:1037C00073016FF00F0303EB021208431043F8601C
:1037D000386820F080603860FEF7FDF8064600BFCC
:1037E0003868000105D5FEF7F6F8801B0228F7D9E6
:1037F0003EE0BDB1386948F2FF01CFF6FF11012D5F
:103800001AD101F1B461014020690023CFF6E073C1
:10381000A26803EA0050A0F5001016E039684905D7
:10382000C2D5CAE7386948F2FF01C0F2FF71014012
:10383000D4E90220C00608E0014060694FF07E43F1
:10384000A26803EA006000F17E4041EA02210843D9
:103850003861386840F080603860FEF7BCF8054693
:103860003868000106D4FEF7B6F8401B0228F7D9E5
:10387000032004E0A069396908433861002001B0E1
:10388000F0BDB0B582B041F25805C4F20205296816
:103890000446C9000FD4286840F08050286028688A
:1038A00000F0805001900198FEF77EF9296821F020
:1038B0008051296001E0FEF777F9B0F5007F06D16D
:1038C000812C08D30120A02C88BF02200DE0802C81
:1038D00003D9032009E0002007E0A4F17000B0FA4A
:1038E00080F04009802C08BF022042F20001C4F29F
:1038F00002010A6822F0070202440A60096801F026
:103900000701081A18BF012002B0B0BD8160C3686A
:1039100040F2774161F30B03372141F28832C360F3
:1039200000F0D2B841F0004141F480118160C168DB
:1039300040F2694262F30B01C16000F087B9816017
:10394000C3684FF48A6161F30B03102141F288329E
:10395000C36000F0B9B8000000218160C1684FF475
:10396000806262F30B01C16040F20001C2F200010B
:10397000096844F6D352C1F26202A1FB0212510A55
:1039800041F288325143C943013124BF4FF0004016
:103990007047426B1206F7D5C5218163002070473E
:1039A0004FF4D5718160C1684FF4896262F30B01F5
:1039B000C16000F0BDB98160C36840F2524161F35B
:1039C0000B03122141F28832C36000F07DB88160A0
:1039D000C36840F2514161F30B03112141F2883277
:1039E000C36000F071B88260C36840F2474161F380
:1039F0000B03072141F28832C36000F065B8002153
:103A00008160C16840F2C24262F30B01C16000F004
:103A1000F1B88160C16840F2C94262F30B01C16034
:103A200000F0E8B88160C36840F24D4161F30B03D8
:103A30000D2141F28832C36000F046B80A460021E9
:103A40008160C36840F2434161F30B030321C3600B
:103A500000F022B900218160C36840F24C414EF26F
:103A6000001261F30B03C0F2F5520C21C36000F0A9
:103A70002BB88160C36840F2594161F30B031921EF
:103A800041F28832C36000F01FB88160C3684FF410
:103A90008B6161F30B03182141F28832C36000F09F
:103AA00013B880B5024691E80950506293620869E4
:103AB0004EEA0C0318434969D36A084323F0F7011F
:103AC00001430020D16280BD40F20003C2F2000336
:103AD000D3F800C044F6D353C1F26203ACFB033CFD
:103AE00003464FEA5C205043013000BF013804BF59
:103AF0004FF0004070475A6B12F0450FF6D012F4A9
:103B00000062F3D1586B400742BF042098637047AE
:103B1000586BC0071EBF012098637047C52098638B
:103B20001869C0B288421CBF0120704758694EF224
:103B30000801CFF6FF51084204BF0020704700285B
:103B400054D4410044BF40207047810044BF8020CE
:103B50007047C10044BF4FF480707047010144BFFB
:103B60004FF400707047410144BF4FF480607047CC
:103B7000C10144BF4FF400607047010244BF4FF4DD
:103B800080507047410244BF4FF40050704781029B
:103B900044BF4FF480407047C10244BF4FF400401F
:103BA0007047410344BF4FF400307047810344BF66
:103BB0004FF480207047C10344BF4FF4002070478A
:103BC000010444BF4FF480107047410444BF4FF4D8
:103BD00000107047810444BF4FF480007047000715
:103BE0004FF4000058BF4FF4803070474FF0007022
:103BF0007047000040F20001C2F20001096844F67B
:103C0000D352C1F26202A1FB0212510A41F2883280
:103C10005143C943013110D2426B12F0450FF9D024
:103C200012F40062F6D1416B490709D4416BC90710
:103C300008D1C5218163002106E04FF0004103E077
:103C4000042100E0012181630846704740F2000131
:103C5000C2F20001096844F6D352C1F26202A1FB2C
:103C60000212510A41F288325143C94301310ED246
:103C7000426B12F0450FF9D012F40062F6D1416B9D
:103C8000042211F0040108BFC522826301E04FF055
:103C9000004108467047000080B540F20003C2F2C0
:103CA0000003D3F800C044F6D353C1F26203ACFB67
:103CB000033C4FEA5C2C41F288330CFB03F36FEAC0
:103CC000030E00BF1EF1010E20D2D0F834C01CF04C
:103CD000450FF7D01CF40063F4D1436B5B0718D495
:103CE000436BDB0717D10369DBB28B4217D1C521C8
:103CF0008163406910F4604F13D0410415D44FF430
:103D00008051000458BF4FF4803106E04FF000416D
:103D100003E0042100E001218163084680BD012108
:103D2000FBE7000C10800021F7E74FF40051F4E7A7
:103D300040F20001C2F20001096844F6D352C1F218
:103D40006202A1FB0212510A41F288325143C94377
:103D5000013113D2426B12F0450FF9D012F4006218
:103D6000F6D1416B49070CD4416BC9070BD1416BAC
:103D7000490644BF40218163002106E04FF0004125
:103D800003E0042100E001218163084670470068D8
:103D900000F00300704708444069704710B584463E
:103DA000DDE902401943DDF810E02143084340EA11
:103DB0000E00DCF80410104347F6FF629143014304
:103DC0000020CCF8041010BD80B503210160022052
:103DD000FDF7F8FC002080BDD0F88000704709682E
:103DE00002460020C2F880107047704780B5FDF78A
:103DF000F8FDBDE8804001F03BB8000080B596B00A
:103E000005A84421FCF7B9FC68461421FCF7B5FC71
:103E10004FF40070FDF78EFE18B1EFF3108072B60C
:103E2000FEE74FF4807108911021022009910121D1
:103E30000590CDE90F0011910A2112910721CDE9DA
:103E40001310159005A8FEF7EBFA20B1EFF31080E0
:103E500072B600BFFEE70F20009003200190002003
:103E6000CDE90200049068460421FEF7A5F920B1CF
:103E7000EFF3108072B600BFFEE716B080BD4EF6BD
:103E80008850CEF20000016841F470010160704773
:103E900080B5416ACA0708D00268D0F828C05368C4
:103EA00023F4003343EA0C0353608A0708D5026801
:103EB000D0F82CC0536823F4803343EA0C035360DA
:103EC0004A0708D50268D0F830C0536823F480232D
:103ED00043EA0C0353600A0708D50268D0F834C0DF
:103EE000536823F4004343EA0C035360CA0608D521
:103EF0000268D0F838C0936823F4805343EA0C0377
:103F000093608A0608D50268D0F83CC0936823F411
:103F1000005343EA0C0393604A0614D50268D0F8B4
:103F200040C05368BCF5801F23F4801343EA0C03A0
:103F3000536008D1D2F804C0D0F844E02CF4C00398
:103F400043EA0E035360090658BF80BD0168806CC8
:103F50004A6822F400221043486080BDB0B582B0A8
:103F600004460020C4F88000FDF735FD21680546B1
:103F70000A6812070CD56FF07E4C20464FF40011F2
:103F800000222B46CDF800C000F04CF978B921682A
:103F9000086840070DD56FF07E4C20464FF4800135
:103FA00000222B46CDF800C000F03CF908B10320F8
:103FB00006E02020A067E0670020206684F87400F7
:103FC00002B0B0BD806A0021A0F85A10A0F85210CB
:103FD000FFF7A2B9016851E8001F026821F490714F
:103FE00042E80013002BF5D1016851E8021F026876
:103FF00021F0010142E80213002BF5D1016E0129E5
:104000000AD100BF016851E8001F026821F01001C9
:1040100042E80013002BF5D12021C1670021016681
:1040200041667047B0B505462A69D5E902130068B4
:104030000A436969D5F81CE01143026846F6F31497
:10404000CEF6FF7441EA0E0122401143016041683F
:1040500048F2000C21F4405119434160AA69C4F2AE
:10406000000C60451CBF296A0A438168102321F4B3
:1040700030611143816047F6FF71C4F2000188424C
:1040800012DC44F20041C4F2000188421BD044F625
:104090000001C4F2000188422AD141F28801C4F231
:1040A000020109680B091BE0604513D043F60001CB
:1040B000C4F2010188421BD141F28801C4F202011D
:1040C0000B6854A210E041F28801C4F202010968B1
:1040D0008B0805E041F28801C4F2020109688B0AED
:1040E00048F2B402C0F6000203F0030152F8213096
:1040F000604542F20040C0F2F40011D0BEF5004F1E
:104100001DD1082B4FF0010100F27E80DFE803F0A3
:1041100005454E7C487C7C7C4C00FEF7FBF841E07A
:10412000082B4FF0010100F26F80DFE803F0056D0E
:104130001C6D166D6D6D1A00FEF7ECF80FE0082B84
:104140004FF0010160D8DFE803F005464F5F495F9B
:104150005F5F4D00FEF7DEF842E0FEF705F910B9AB
:104160004FE04FF400406A6802EB420188424FF092
:10417000010149D31303984246D8010E000210EB07
:10418000520041F100010023FCF7C6F84FF6FF4250
:10419000A0F54071C0F20F022FE0FEF7D0F801E069
:1041A000FEF7E2F810B92CE04FF4004069684A08C5
:1041B00002EB4000B0FBF1F04FF6EF72A0F11001FE
:1041C000914220D84FF6F0710140C0F342002A68B6
:1041D0000844D06015E0FEF7B2F801E0FEF7C4F83D
:1041E00010B90EE04FF4004069684FF6EF7200EB33
:1041F0005100B0FBF1F0A0F11001914203D8296801
:10420000C860002100E00121002208466A66AA6613
:10421000B0BD00BF0100000004000000020000006B
:10422000080000002DE9F04381B0044600681546FF
:10423000C2690E461140891BB1FA81F14909A942B0
:104240001ED1DDF82080994608F1010787B1FDF7FE
:10425000C2FBB8F1000F15D0A0EB0900404511D802
:1042600020680168490744BFC1695FEA015121D450
:10427000C1693140891BB1FA81F14909A942E5D0F0
:10428000002038E0206850E8000F216820F4D0704A
:1042900041E80002002AF5D1206850E8020F2168A9
:1042A00020F0010041E80202002AF5D12020A06799
:1042B000E0671CE04FF40061016200BF50E8000FAE
:1042C000216820F4D07041E800020AB12068F5E7C7
:1042D000206850E8020F216820F0010041E8020246
:1042E000002AF5D12020A067E067C4F880000020F4
:1042F00084F87400032001B0BDE8F08342F2BC30C2
:10430000C2F20000FFF70AB8FEE7704700207047CE
:104310002DE9F04F83B0D0F81C90074699F80B00B8
:104320009B46924600280C467ED0BBF1000F00F061
:104330008F800025012040F6FE78CDE900A400BF63
:10434000002869D0386C99F80A10062899F80900F5
:1043500005EB04064FF0000218BF760200F086FD60
:10436000384651213246002300F07CF899F80920A4
:1043700099F80A1006461046012200F077FD002E3B
:1043800066D1F869FF218DF80A100DF10A010122AA
:104390000AEB452A00F0D6FD99F8090099F80A10B1
:1043A0000022002400F062FDFE6900BF3046FF21BC
:1043B00000F0E8FD444503D8FE2804F10104F5D1DE
:1043C000FE283ED13046FF215C4600F0DBFD4FF475
:1043D000007B00BF0AF8010B3046FF21ABF1010B57
:1043E00000F0D0FD5FEA0B41F4D13046FF2100F030
:1043F000C9FD99F8090099F80A10012200F036FD6C
:10440000F869FF218DF80B100DF10B01012200F06E
:1044100099FDA346DDE900A401355D451AD0D7F822
:104420001C9099F80B008BE799F800005146224642
:104430005B4600F075FDB0F1FF3FD8BF4FF0FF3B8A
:1044400008E099F8090099F80A10012200F00EFD21
:104450004FF0FF3B584603B000F000B830BCBDE859
:10446000C08F00002DE9F04385B0C5699946174615
:104470000446884600F0E7FCE46906462046FF2132
:1044800000F080FDFF2806D000F0DDFC801BB0F5B9
:10449000FA7FF3D930E0380E8DF80F00380C8DF824
:1044A0001000380A8DF811000DF10E012846062281
:1044B0008DF80E808DF812708DF8139000F042FD8B
:1044C000002100BF0C462846FF2100F05BFDC82CF0
:1044D00003D8FF2804F10101F4D0C92C0ED309A0A0
:1044E00048F2A7210090C0F600010AA20220BE23D4
:1044F000CDF8048000F0A4FE4FF0FF3005B0BDE819
:10450000F08300BF636D642564206572722E2E0DEA
:104510000A0000005F6253445F53656E64436D643C
:10452000000000002DE9F04F85B0C6698146F07AA1
:104530001F4600288B4600F09480002F029200F066
:104540009F804FF0000A01200DF111054FF6FD7814
:10455000CDE900B700287CD0D9F84000B17A062810
:10456000707A0AEB0B044FF0000218BF640200F0EF
:104570007DFC4846582122460023FFF773FF727ADC
:10458000B17A04461046012200F070FC002C77D16D
:104590000298FF2700EB4A200390D9F81C0004A9D9
:1045A00001228DF8107000F0CDFC707AB17A0022F3
:1045B000002400F05BFCD9F81CB08DF8117000BF2E
:1045C00058462946012200F0BDFC022C04F10104EA
:1045D000F6D33046FE2100F0D5FC039930464FF467
:1045E000007200F0AFFCD9F81C40FF200DF112075B
:1045F0008DF8120020463946012200F0A3FC204627
:104600003946012200F09EFC3046FF2100F0BAFC42
:1046100000F01F0005282ED1DDE900B7002400BFFF
:104620003046FF2100F0AEFC20B9444504F10104FE
:10463000F6D320E0707AB17A012200F017FCD9F8A5
:104640001C00FF218DF813100DF11301012200F061
:1046500079FC0AF1010ABA4514D0D9F81C60F07A45
:1046600078E7307811465A463B4600F062FCB0F1DC
:10467000FF3F07DC04E0707AB17A012200F0F6FB1C
:104680004FF0FF37384605B000F000B830BCBDE849
:10469000C08F000070B540F20404C2F20004256827
:1046A000A54208BF70BD42F24046C2F2000600BFFC
:1046B00055F8202C42B1A5F12400017B012903D13A
:1046C00030608168103090472D68A542F0D170BDF0
:1046D00070B540F20C04C2F200042568A54208BF80
:1046E00070BD002655F8240CE0B115F81C0C01280B
:1046F00018D100F0AEFB55E90523801A71EB0300D9
:1047000010D355E90910884715F8040C38B1A5F104
:1047100014030FCB8018594145E9050102E005F863
:104720001C6C00BF2D68A542DCD170BDB0B541F254
:104730006820C2F20000C26992B300F11C05002497
:10474000D088E8B19169D088A9B1814212D100F036
:104750007AFB2A6851699368401A984210D9D36845
:1047600053B1D1881068126998472A6800280DD47F
:1047700091880FE0D088906100F065FB2A68506155
:10478000154655F81C2F002ADAD109E0D188908807
:104790008142F1D11068FBF7CEFF2868C480EBE7B7
:1047A000B0BD10B5012813D840F28C0100EB4000D9
:1047B000C2F2000101EB8000044614F8011F39B178
:1047C000406800F009F8207810B10020207010BD7A
:1047D0004FF0FF3010BD000080B582B0012802D933
:1047E0004FF0FF3021E040F2A40200EB0011C2F2D2
:1047F000000252F82130D3B148F29C01C0F600010A
:1048000051F820C048F26120C0F6000048F26A2149
:104810000090C0F600010BA2022040F21F13CDF859
:1048200004C000F00DFD6FF0FE0002B080BD02EB91
:104830008100C16819B102B0BDE8804008476FF03F
:10484000FD00F2E762446576696365436C6F7365EA
:10485000000000002DE9F04F85B040F2A40BC2F239
:10486000000B58468821FBF788FF48F2743848F25D
:104870006C30C0F60008C0F6000048F2A40A48F206
:104880009C094045C0F6000AC0F6000920D048F255
:104890006C37C0F6000700BF002100261AF806009A
:1048A0003A7890420DD106EB061559F826200BEB0D
:1048B000850002627A684C1C4162904721464BF8A1
:1048C0002500002E4FF00106E8D008374745E3D118
:1048D00048F26C3848F25C30C0F60008C0F60000C0
:1048E00040451FD048F25C37C0F600070021002683
:1048F0001AF806003A7890420DD106EB061559F8E1
:1049000026200BEB850002627A684C1C41629047BE
:1049100021464BF82500002E4FF00106E8D008375D
:104920004745E3D148F26A2A48F29B2625A0C0F603
:10493000000AC0F6000622A7009003205146324626
:10494000AD23019700F07CFC48F2532500274FF07F
:10495000FF380FF28809C0F6000500BF07EB07110A
:104960000BEB8100006A58B15BF821100095CDE98E
:104970000201032051463246B623019708E000BFEA
:104980008DE8A002032051463246B223CDF80C80B8
:1049900000F056FC002F4FF00107DFD048F26A21EB
:1049A00048F29B2210A7C0F60001C0F600020320C7
:1049B000B823009700F044FC002005B000F016B8C2
:1049C000646573000D0A6465765F6E6F09092531B1
:1049D00036730973746174650D0A00006E6F20648C
:1049E00072697665000000000D0A000030BCBDE869
:1049F000C08F000080B582B0012802D94FF0FF308F
:104A000020E040F2A40200EB0011C2F2000252F8D2
:104A10002130CBB148F29C01C0F6000151F820C012
:104A200048F26120C0F6000048F26A210090C0F60A
:104A300000010BA20220DB23CDF804C000F000FC33
:104A40006FF0FE0002B080BD02EB8100816819B1F9
:104A500002B0BDE8804008476FF0FD00F2E700BFFC
:104A6000624465766963654F70656E0010B582B00B
:104A700001284FF0FF3C20D8FAB140F2A40E00EB21
:104A8000001CC2F2000E5EF82C40CCB148F29C0132
:104A9000C0F6000151F8204048F26120C0F6000045
:104AA00048F26A210090C0F600010CA20220F22315
:104AB000019400F0C5FB6FF0FE0C604602B010BD23
:104AC0000EEB8C00D0F818C0BCF1000F03D002B080
:104AD000BDE8104060476FF0FD0CEEE7624465767C
:104AE000696365526561640010B582B001284FF0BA
:104AF000FF3C21D802B340F2A40E00EB001CC2F22E
:104B0000000E5EF82C40D4B148F29C01C0F60001C2
:104B100051F8204048F26120C0F6000048F26A21B6
:104B20000090C0F600010DA2022040F2091301948A
:104B300000F086FB6FF0FE0C604602B010BD0EEB7D
:104B40008C00D0F814C0BCF1000F03D002B0BDE857
:104B5000104060476FF0FD0CEEE700BF62446576E1
:104B6000696365577269746500000000B0B548F26A
:104B70005C3448F24C30C0F60004C0F60000A0429D
:104B800009D048F24C35C0F6000500BF55F8040BBB
:104B90008047AC42FAD10020B0BD000010B588B00B
:104BA00006AC22A120460122FBF748FC40F22C1063
:104BB000C2F200002146012201F0A5FA98B1844614
:104BC0001BA048F2D82148F2FF220090C0F6000155
:104BD000C0F600020220F923CDF804C000F030FB3B
:104BE0004FF0FF301FE006A804A905AA01F058F90C
:104BF0000598049A81694089023941435043490824
:104C0000440810A0CDE9000148F2D82148F2FF2263
:104C1000C0F60001C0F60002032040F20113029426
:104C200000F00EFB002008B010BD00BF25643A0064
:104C30007364206D6F756E74206572722E2E2564FC
:104C40000D0A00002531306C75204B694220746FCD
:104C500074616C2064726976652073706163652E7F
:104C60000D0A2531306C75204B69422061766169EF
:104C70006C61626C652E0D0A0000000010B586B0F4
:104C80000020CDE9040041F28C20C2F2000051A1C5
:104C9000132201F05FFA70B1844651A048F2D82186
:104CA00048F208320090C0F60001C0F6000202206F
:104CB00040F2151364E041F28C24C2F20004204655
:104CC000002101F05FF905A904AB2046042201F0A0
:104CD00055FB70B1844645A048F2D82148F208320D
:104CE0000090C0F60001C0F60002022040F21D1341
:104CF00046E0DDE90404042812D143A048F2D8219B
:104D000048F208320090C0F60001C0F6000203200D
:104D10004FF49473019400F093FA0598013011E078
:104D200035A1CDE9001048F2D82148F20832C0F68A
:104D30000001C0F60002022040F22313029400F0AA
:104D40007FFA002041F28C24C2F200040590204634
:104D5000002101F017F905A904AB2046042201F057
:104D600023FCD8B184462CA048F2D82148F208325E
:104D70000090C0F60001C0F60002022040F22F139E
:104D8000CDF804C000F05CFA41F28C20C2F20000C1
:104D900001F077F84FF0FF3006B010BD41F28C20E3
:104DA000C2F2000001F06DF888B184461DA048F2FF
:104DB000D82148F208320090C0F60001C0F6000287
:104DC00002204FF49B73CDF804C000F039FA0020A4
:104DD000E2E700BF313A746573742E747874000092
:104DE0006F70656E2025640D0A00000072656164B5
:104DF0002025640D0A00000072656164202564208E
:104E000025640D0A00000000626F6F745F636F75A8
:104E10006E742025640D0A0077726974652025641C
:104E20000D0A0000636C6F73652025640D0A000095
:104E300041F26021C2F200010A6800BF0B689B1AB0
:104E40008342FBD3704741F26020C2F20000006849
:104E5000704741F26420C2F20000016841F2602014
:104E6000C2F200000068704700F07CBA00F08DBA12
:104E700041F26020C2F20000016801310160006867
:104E800000B1704741F26420C2F2000001680131B4
:104E90000160704700000000F0B583B040F21407D5
:104EA000C2F200073C6848F2A060C0F20100604313
:104EB000029000200190009041F26020C2F20000B8
:104EC0000168019102994A1E00290292FAD10068F4
:104ED000009000980199401A02F0D5FE9FED0E0B4C
:104EE00002460B4651EC100B02F048FD05462046E9
:104EF0000E4602F0C8FE02460B462846314602F036
:104F0000D5FE02F093FE386003B0BDE8F04000F03B
:104F1000B4B800BF00BF00BF00000000000059404F
:104F200020B919B113B1002000F044BA4FF0FF309E
:104F3000704720B919B113B1002000F04DBA4FF0FD
:104F4000FF30704770B5064600284FF0FF300FD095
:104F50000D4669B13078144601280AD13CB100BF32
:104F600015F8011B304600F00DF8013CF8D1002087
:104F700070BD304629462246BDE8704000F054BA64
:104F800000F066BA2DE9F04F85B060B30C460178A9
:104F900001292AD1B0F8019090F807B0B0F80510B7
:104FA000B0F8038090F808A05E464FEA1920BBF1E4
:104FB000000F18BF012601904FEA18200D0ACFB24A
:104FC0000090384629463246FFF750FFBAF1000FED
:104FD000029610D0BBFA8BF042093846294604925B
:104FE000FFF744FF08E0002439E0214605B000F057
:104FF0003AB800F053BA049604984FF0000A80F0D3
:1050000001000390DDE9006B5FFA88F85FFA89F927
:1050100004F0800240463146FFF728FF039A3846E5
:105020002946FFF723FF48465946FFF71DFF002892
:1050300018BF0120049A40EA440438462946FFF785
:1050400015FFBAF1070F0AF1010AE1D3DDE9020207
:105050000499814203D038462946FFF707FFE0B2A2
:1050600005B000F005B830BCBDE8C04FFFF7C1BFC8
:1050700030BCBDE8C08F00F033BA704770B58AB05D
:10508000FFF70AFF48F22B2448F24D2548F2FA1C9C
:10509000C0F60004C0F60005C0F6000C032021464F
:1050A0002A4640F23913CDF800C000F0C9F848F2A2
:1050B000361CC0F6000C032021462A464FF49D738F
:1050C000CDF800C000F0BCF848F2981CC0F6000C07
:1050D000032021462A4640F23B13CDF800C000F0E1
:1050E000AFF848F2671CC0F6000C032021462A46A0
:1050F0004FF49E73CDF800C000F0A2F848F2051CF2
:10510000C0F6000C032021462A4640F23D13CDF89C
:1051100000C000F095F848F2C91CC0F6000C03204E
:1051200021462A464FF49F73CDF800C000F088F85E
:1051300048F2D40CC0F6000C032021462A4640F267
:105140003F13CDF800C000F07BF80FF26C0C032089
:1051500021462A464FF4A073CDF800C000F070F845
:1051600022A00890012108220C23152025A60FF269
:10517000880C4FF0060ECDE90060CDE90233CDE991
:105180000421032021462A4640F24313CDF818E0BB
:10519000CDF81CC000F054F824A002260090032093
:1051A00021462A464FF4A273019600F049F80AB04E
:1051B000BDE87040FFF74EBB20202020202020209B
:1051C00020202020202020202020202020285F2098
:1051D0002F202020202020202020202020202020C0
:1051E0002020202020200D0A0000000030313A311C
:1051F000363A3135000000004A756C2031382032D3
:105200003032330048573A25642E25642E25642019
:1052100046573A25642E25642E256420434F4D5071
:10522000494C453A25732D25730D0A00646576694E
:105230006365206E756D6265723A25640D0A000023
:105240002DE9F04383B0032871D841F26018C2F20F
:10525000000804460F4640464FF4807199461646B2
:10526000FBF78BFA032C01D1002749E031A032A1D2
:10527000095D055D88F800103A20690788F801008B
:1052800001D4022715E03846FBF7F1F9C4B257FA0A
:1052900080F00A2C84BFA0F10A070A2408F102005A
:1052A00039462246FBF702FA04EB0800E71C2021EE
:1052B0008170A8070FD53046FBF7D9F9044608EBF3
:1052C0000700E2B23146FBF7F1F957FA84F0471CC8
:1052D000202108F80010E80712D018A101A84A46BA
:1052E000FBF7ACF8002822D4044608EB070001A91C
:1052F0002246FBF7DBF9E019471C202108F80010D3
:105300000A9A0BAB08EB0700C7F1FF010093FBF70C
:105310007BF800280BD441F26014C2F2000420464E
:10532000FBF7A5F982B200202146FFF7A4FE03B0E7
:10533000BDE8F083000307004957450025640000DD
:1053400001280CD840F28C0200EB4000C2F20002AF
:1053500002EB8000427812B18160002070474FF06C
:10536000FF307047024607284FF000000CD001F0D4
:10537000FE03102B08BF704790021022C4F60002F3
:105380001058C84000F001007047072811D041F0C4
:105390000103112B08BF70470123002A40F21802B5
:1053A00003FA01F14FEA8020C4F6000208BF0904A5
:1053B0001150704780B582B042F238304FF0FF3C58
:1053C000C2F20000CDF800C0FDF7AEFD002818BF06
:1053D0004FF0FF3002B080BD70B582B042F238307D
:1053E0004FF0FF34C2F200000094FDF793FEB8B90D
:1053F000FFF729FD42F238350446C2F2000541F2BA
:10540000883600BF2846FDF7C5FB042807D0FFF704
:105410001AFD001BB042F5D34FF0FF3400E000242A
:10542000204602B070BD000070B5064600284FF05F
:10543000FF300BD00D4649B1144632B115F8011BAF
:10544000304600F02BF8013CF8D1002070BD000080
:10545000024600284FF0FF3008BF704701291CD8D2
:10546000002951784FF0080008BF3020022984BF7E
:105470004FF0FF30704748F29002C0F6000252F839
:10548000211000BF8A681206FCD40A6822F0380294
:105490000A600A68104308600020704710B1407825
:1054A000022801D90020704748F29002C0F600029D
:1054B00052F82000426842F480524260026852066C
:1054C00004D4026842F04002026000BF8268920782
:1054D000FCD501738168C907FCD0007B70470000D0
:1054E00010B54FF0000E0428844638BF4FF0010E6F
:1054F0004FF0FF3071B3ACF10803B3FA83F35B09EB
:1055000053EA0E0308BF10BDBCF1080F04D148F2E6
:105510000000C4F2000005E048F2C400C0F600003C
:1055200050F82C00D2B140F2010C4FF0000EC0F246
:105530000B0C6346C469640604D4013B022BF9D208
:1055400009E000BF11F80E300EF1010E964583629E
:10555000EFD1104610BD6FF0010010BD002010BD4E
:1055600070B5022941D840F28A03C2F200031A78CA
:1055700040F28C0CC2F2000C32B900228CF80120EF
:105580008CF80D2001221A70002300BF03EB4302A8
:105590000CEB82025578012D02D15268824224D050
:1055A000002B4FF00103F1D0002600BF06EB4602AE
:1055B0000CEB82031D4615F8014F24B1002E4FF06D
:1055C0000106F3D011E00CF822100121297000210E
:1055D000C3E90101FFF70EFAB0F1FF3F07DCFE302F
:1055E00005D0287808B1002028704FF0FF363046EB
:1055F00070BDB0B514460A46014601284FF0FF3091
:105600001CD8DAB101EB410040F28C01C2F200017A
:1056100011F8203043F00203022B10D101EB80057A
:10562000687860B155F8081F234655F8040CFFF759
:105630001DFA002802D4296821442960B0BD4FF02A
:10564000FF30B0BD2DE9F04786B08246DAF824205D
:1056500048F2A60345F2456102EB4202C0F60003A0
:105660000020C0F6000103EB8206CAF82800CAF841
:105670003400CAF84000CAE90001F17A44F211325C
:1056800044F22553C0F60002C0F600030029CAE91F
:105690000200CAE90403CAF81820CAF81C6000F026
:1056A0002B814FF41540ADF810004020039064208A
:1056B000FFF7BEFB304600210024FFF761FC96F89F
:1056C000099096F80A80484641460122FFF7CEFB32
:1056D000DAF81C50FF200DF112078DF8120000BF00
:1056E000284639460122FFF72DFC092C04F101045C
:1056F000F6D34846414600220027FFF7B7FB03A92F
:1057000030460622FFF71EFC41F6FE743046FF21AC
:105710003D46FFF737FCA74203D8012805F10107F2
:10572000F4D1484641460122FFF7A0FBFF21DAF8F9
:105730001C008DF813100DF113010122FFF702FC7C
:1057400041F6FF7085420ED348F2A72148F2CE22DF
:105750008EA7C0F60001C0F600020220D0230097F9
:10576000FFF76EFDC6E0484641460022FFF77EFB8C
:105770005046402100229523FEF774FEB0F1FF3F12
:1057800040F3B380012840F0B080504648214FF4E8
:10579000D5728723FEF766FEB0F1FF3F40F3A58088
:1057A000012858D0052840F0C1800220CAF84000E6
:1057B000484641460122FFF759FBFF21DAF81C0059
:1057C0008DF8141005A90122FFF7BCFB484641469D
:1057D0000022FFF74BFB4FF0FF3500BF504677210B
:1057E00000220023FEF73EFEB0F1FF3F7DDD504674
:1057F000692100220023FEF735FEB0F1FF3F74DD82
:105800000135B5F5C77F01D80028E7D1B5F5C77FC9
:105810006BD830460121FFF7B3FBFF21DAF81C00FB
:105820008DF815100DF115010122FFF78BFB504685
:105830007B2100229523FEF715FEB0F1FF3F54DDDA
:10584000504650214FF400729523FEF70BFEB0F145
:10585000FF3F6BDC49E03046FF21FF24FFF792FB5E
:105860003046FF21FFF78EFB3046FF21FFF78AFB12
:105870003046FF21FFF786FB484641460122FFF7ED
:10588000F5FADAF81C000DF1160101228DF8164028
:10589000FFF758FB484641460022FFF7E7FA4FF072
:1058A000FF3500BF5046772100220023FEF7DAFDC6
:1058B000B0F1FF3F19DD504669214FF080420023CF
:1058C000FEF7D0FDB0F1FF3F0FDD0135B5F5C77F25
:1058D00001D80028E6D1B5F5C77F06D850467A2111
:1058E00000220023FEF7BEFD48B148464146012292
:1058F000FFF7BCFA4FF0FF3006B0BDE8F087304646
:10590000FF21FFF73FFB05463046FF21FFF73AFB3B
:105910003046FF21FFF736FB3046FF21FFF732FB11
:10592000680654BF04200620CAF840004846414695
:105930000122FFF79BFAFF21DAF81C008DF81710FF
:105940000DF117010122FFF7FDFA30460121FFF7A3
:1059500017FBDAF8407009A048F2A72148F2CE22DE
:105960000090C0F60001C0F6000203204FF4A573BA
:105970000197FFF765FC0020BEE700BF7364207449
:105980007970653A25640D0A00000000706F776534
:1059900072206F6E206572720D0A0000B0B5144659
:1059A0000A46014601284FF0FF301BD8D2B101EB67
:1059B000410040F28C01C2F2000111F82030013B9D
:1059C000012B10D801EB8005687860B155F8081FED
:1059D000234655F8040CFFF787F8002802D42968FD
:1059E00021442960B0BD4FF0FF30B0BD10B5044672
:1059F0000020E0704FF0FF302063204601F048FAAD
:105A000008B1042010BDB4F832024AF6552188428C
:105A10001CBF032010BD94F83400E838032827D8B1
:105A2000022825D048F2173C04F16A000021C0F694
:105A3000000C00BF435C1CF80120022903D09342F4
:105A400001F10101F6D0934210D048F2113204F175
:105A500086000021C0F60002435C545C042903D098
:105A6000A34201F10101F7D0A34201D1002010BDF2
:105A7000022010BD2DE9F04381B0D0F80090884697
:105A8000064639B13046414600F06AFF02280AD284
:105A900001254FE0D9F810401CB1D9F81800844214
:105AA00009D3012407E00546013026D0D9F81800B3
:105AB000444685423ED3D9F81400D0B3444522D1A0
:105AC000D9F8180008F10107874228BF022730469D
:105AD000394600F045FF054601302BD085B1012D38
:105AE00028D0D9F81000444602280CD3D9F8181051
:105AF000884228BF4046044605E04FF0FF3519E0D4
:105B000044463D46DFB92746D9F818000137874299
:105B100028BF022701D3022C0BD33046394600F0B0
:105B20001FFF0546013005D045B1012D02D0A74227
:105B3000EAD10025284601B0BDE8F0833D4648463D
:105B400029464FF0FF3201F0BEF9B8F1000F05D041
:105B500020B9484641462A4601F0B5F928B1012549
:105B6000012808BF4FF0FF35E4E7D9E90501C9F87E
:105B70001050023988429CBF0138C9F8140099F8C6
:105B8000040040F0010089F80400D3E7F0B581B0CB
:105B90000D46044601F0A5FA08B1012029E0A169EB
:105BA000A81E0239884204D2E16A678900FB071601
:105BB00001E06789002604F1340528464FF480513E
:105BC0002663FAF7B8FD6FB1002700BF6078F219BD
:105BD0002946012300F033F938B96089013787423B
:105BE000F4D303E00020002700E06089381A18BFD2
:105BF000012001B0F0BD2DE9F0410446006900F13B
:105C00002007B7F5001F02D30020A0610FE0A369B1
:105C10006BB12568A889B7FBF0F202FB107048B1A0
:105C200028443430E06100202761BDE8F081042081
:105C3000BDE8F0810E466169581CA06129B16889F0
:105C40000138104208D00020EAE72889B0EB571F3E
:105C50004FF00000D9D9E3E7204600F081FE02288A
:105C60003CBF0220BDE8F0818046013034D0A869F5
:105C700080450BD2A8F1020102388142C4F8148099
:105C80001DD2E86A6A8901FB020119E0002EBBD02F
:105C900061692046FFF7EEFE80460130032816D2E8
:105CA0004FF6F871C0F2FF0101EAC00040F2017145
:105CB000C0F2020121FA00F0C0B2BDE8F08100217B
:105CC000A889A161B7FBF0F202FB1070A8E7284693
:105CD0004146FFF75BFF10B10120BDE8F081A869E4
:105CE000C8E70000B0B50468054600F02FF800BF13
:105CF00070B9A969204601F0CBF848B9E869007885
:105D000058B1E52809D028460121FFF774FFEFE7D5
:105D1000042808BF072000B1B0BDA969204601F0E2
:105D2000B7F80028F8D1E8692021FAF704FDE869FE
:105D300005F12001002200BF8B5C835401320B2A45
:105D4000FAD10120E0700020B0BD0000B0B581683C
:105D50000568044600202061D9B16889AA895043AA
:105D600078B1AA69881E023A90421DD2EA6A6B890C
:105D700000FB032019E000BF02291FD3A86981425C
:105D80001CD2204600F0ECFD01460130F4D1012088
:105D9000B0BD2878032802D3A96A0029DDD128895B
:105DA00060B1A86A002100E000206161A06128B113
:105DB00005F13401C4E906010020B0BD0220B0BDE8
:105DC0000020704701281CBF04207047032907D01A
:105DD000022907D0012904BF4FF40010106004E02D
:105DE000082001E04FF400701080002070472DE97A
:105DF000F041012819D10D4601200221984616468E
:105E00000124FFF7ADFB002810D431460746FFF709
:105E100097FA384629464246FFF7EBFB04463846D8
:105E2000FEF7BFFCE00FBDE8F08104242046BDE88A
:105E3000F0810021012888BF0121084670472DE923
:105E4000F041012819D10D4601200221984616463D
:105E50000124FFF785FB002810D431460746FFF7E1
:105E60006FFA384629464246FFF798FD0446384601
:105E7000FEF797FCE00FBDE8F08104242046BDE862
:105E8000F08110B582B0044600F045FB30B901A99D
:105E9000204601F048F908B90020206002B010BD8A
:105EA0002DE9F04387B016468846069006A805A956
:105EB000002200F0A9FE00285DD1059D3560D5E9DE
:105EC0000507B91E884219D995F800C0BCF1010F29
:105ED00018D10226002401AF019500BF3846314693
:105EE00000F03EFD20B1411C4AD0012801D145E01F
:105EF0000134A86901368642F0D334E0C8F80000C6
:105F0000002038E0D5F824900024002646B9284621
:105F1000494600F0BDFF38BB95F800C009F1010902
:105F2000A919BCF1020F01F1340105D1098802223F
:105F3000B1FA81F149090DE088780A784B78C9787F
:105F4000000240EA0140184460F31B22B2FA82F0DA
:105F500041090422A8893244B2FBF0F3013F03FB5C
:105F600010260C44D2D10020C8F800406C61297979
:105F700041F00101297107B0BDE8F0830220F3E789
:105F80000120F1E72DE9F04182B00D4601A9044658
:105F900001F0C9F80746002840F0A380677C002F75
:105FA00040F09F80E168A94208D2207C800706D596
:105FB000274657F8140F0021396007E02946274685
:105FC00057F8140F00260D463E60A1B1DDF804809D
:105FD000B8F80A10B8F80C2002FB01F638B1691EB7
:105FE0000138B1FBF6F1B0FBF6F2914205D2A1689F
:105FF00049B3A16106E0002056E071420840A16962
:1060000060612D1AE9B1B5422CD96069227C304417
:1060100092076061204603D400F0A2FC014603E031
:10602000FFF728FD0146D8B1481C17D0022956D3E6
:10603000D8F81800814252D2AD1BB542A161E4D814
:1060400010E0386827E020460021FFF713FD0146E5
:10605000013003D0012942D0A160CAE701273FE007
:1060600000210025B8F80C003B68B5FBF0F202FBFC
:1060700010565819386076B1D8F818300239023BFA
:1060800099422CD2D8F82C30B8F80A7001FB0731AD
:1060900029B3561800E00026E168884204D9217C23
:1060A000E06041F040012174019DA989B0FBF1F24B
:1060B00002FB110088B1E26996420ED094F91000FB
:1060C000B0F1FF3F11DD687804F128013246012369
:1060D0000127FFF78CFE18B9E661002701E00227CF
:1060E0006774384602B0BDE8F081687804F1280191
:1060F00001230127FFF7A3FE0028F1D1207C00F047
:106100007F002074DFE7B0B584B00546039001A896
:106110001446CDE9011100F09DFC002814D440F292
:106120008001C2F2000151F820200AB1002313704F
:106130000DB100222A7041F820503CB102A803A9F9
:10614000002200F061FD02E00B2000E0002004B01E
:10615000B0BD00002DE9F04F8DB00C9170B102F090
:106160003F0A154683460CA86946524600F04CFD8E
:10617000074640B10020CBF8000000E00927384670
:106180000DB000F0F8B8DDF800800C9901A8CDF84A
:10619000048000F0EBFA9DF92F100746002948BF54
:1061A0000627002818BF07461AF01C0F00F0A08031
:1061B000002F00F0AB80042F03D101A8FFF792FD60
:1061C00007464AF0080A9FBB1AF0080030D008982A
:1061D00098F80010458B032905D1417D027D45EAE1
:1061E000016141EA02450021C4F62161C0F80E10A8
:1061F0002021C1720021418398F80020032A08BFA2
:106200008182C161012088F803009DB1D8F83090E7
:1062100001A82946002200F0E9FE07460028A9D17E
:106220004046494600F034FE0746681EC8F8100094
:10623000002F9FD1D8F8302008980AF00801CBE948
:10624000082098F80020458B032A4AEAC10105D1AD
:10625000427D037D45EA026242EA0345CBF80850DD
:10626000C669CBF80080CBF80C60B8F806000BF1DB
:106270002809ABF804008BF81010002748464FF4AB
:1062800080518BF81170CBF81C70CBF81470FAF7B2
:1062900052FA5FEA8A607FF572AF002E3FF46FAF6B
:1062A000CBF81460B8F80A00B8F80C1001FB00F441
:1062B000A64238D9C4F1000A5846294600F050FBDE
:1062C000054602284FF0000038BF01204700681C37
:1062D00008BF0127A6EB040027B90AEB0601A1427B
:1062E0000646E9D8002FCBF818507FF443AF1DE0E5
:1062F000002F7FF43FAF9DF80A00C10611D45FEA7A
:106300008A7197D510F0010005D193E79DF80A0036
:1063100010F0110F01D007272CE7082000EA4507ED
:1063200051E7042726E7CBF818503046B8F80C2080
:10633000B0FBF2F101FB1200C8B1D8F81820A81E7A
:10634000023A904215D2D8F82C20B8F80A3000FB57
:10635000032070B10A18CBF81C2098F801004946B8
:1063600001230127FFF743FD00287FF403AF002737
:1063700005E70227FEE630BCBDE8C08F2DE9F04FEF
:1063800083B0044600200F46186002A920469A46B2
:10639000164600F0C8FE002840F0B780607C002858
:1063A00040F0B380207CC00701D10720ADE0E06859
:1063B0006169401AB04238BF0646002E00F09F8047
:1063C00004F12800019000BF029DA889B1FBF0F301
:1063D00003FB1012002A47D16889013810EA03082C
:1063E00001D0A0690DE021B1A169204600F0B8FA02
:1063F00000E0A068012840F28480411C00F0838006
:10640000A061A9690238023988427AD2EA6A6989A8
:1064100000FB0122002A74D0A88902EB08098642F9
:1064200035D2E2694A4518D094F91000B0F1FF3F27
:106430000ADC687801990123FFF701FD002862D189
:10644000207C00F07F002074687801994A4601237F
:10645000FFF7CDFC002856D1A8896169C4F81C90CB
:10646000B1FBF0F202FB1012801AB04288BF304636
:1064700058B1A118283102463B4600BF11F8015B14
:10648000013A03F8015BF9D12AE0002028E0B6FBCD
:10649000F0FB4A460BEB08008842687888BFA1EB06
:1064A000080B39465B46FFF7A2FC60BB94F910006D
:1064B000B0F1FF3F11DCE069A0EB090159450CD2B6
:1064C000A88950B101FB0071019A00BF12F8013B8D
:1064D000013801F8013BF9D1029DA8890BFB00F0BE
:1064E000DAF80010361A0144CAF80010616907444E
:1064F00001444FF0000061617FF466AF05E00020C9
:1065000003E0022000E00120607403B000F000B856
:1065100030BCBDE8C08F70B582B001A9044600F060
:1065200002FE0646E0BB207C410601D4002637E08F
:10653000019D00060CD56878E26904F12801012369
:106540000126FFF77CFC58BB207C00F07F00207404
:10655000216A284600F09CFC064608BB606AC17AA6
:1065600041F02001C172A168226841831278032A98
:1065700003D10A0C090E02754175E168C161002161
:10658000C4F62161C0F81610002141820120E87094
:10659000284600F066FD217C064601F0BF0020740D
:1065A000304602B070BD00002DE9F04F83B00446C4
:1065B00000208B46186002A920469946164600F036
:1065C000B2FD002840F0CC80607C002840F0C880FC
:1065D000207C810701D40720C2E06169CA43B2422E
:1065E00038BF1646002E00F0B28004F1280001905A
:1065F000029FB889B1FBF0F303FB1012002A55D1BA
:106600007889013810EA030816D121B1A169204622
:10661000FFF730FA03E0A068002800F09580411CE5
:1066200000F09C80002800F09180012800F0948008
:10663000A168A06101B9A06094F91000B0F1FF3F1A
:106640000CDC7878E26901990123FFF7F8FB002858
:1066500040F08480207C00F07F002074A069B9693C
:1066600002380239884277D2FA6A798900FB01221E
:10667000002A71D0B88902EB080A86423DD2E1694E
:1066800051450CD0E16862698A4208D27878019954
:1066900052460123FFF7ABFB00285FD1B88961693F
:1066A000C4F81CA0B1FBF0F202FB1012801AB04239
:1066B00088BF304650B1A118283102465B4600BF62
:1066C00013F8017B013A01F8017BF9D1217C41F0FB
:1066D00080012174D9F80010361A0144C9F800105D
:1066E0006169E268014491428344616188BF0A465E
:1066F000002EE2607FF47CAF28E0B6FBF0F5524656
:1067000005EB08008842787888BFA1EB0805594658
:106710002B46FFF794FB08BBE069A0EB0A01A942F6
:106720000FD2B88948B101FB00B1019A11F8013BC1
:10673000013802F8013BF9D1029F207C00F07F0074
:106740002074B8896843C5E7002160E7207C40F0E9
:1067500040002074002003E0022000E0012060746B
:1067600003B000F000B830BCBDE8C08F2DE9F04F99
:1067700081B0804600680D46009000BF28785C28F4
:1067800018BF2F2801D10135F8E70020C8F808000C
:106790002878202808D28021404688F82B1001B0A4
:1067A00000F0D6B8FFF7D2BA48F21B3A08F1200B36
:1067B0004FF02030C0F6000A00214FF0080C0022F4
:1067C000CBF80700CBF80400CBF800006E5C013179
:1067D000212EC0F0A58001EB0C00A0EB020E00BF43
:1067E000F3B22E2B2FD05C2B39D02F2B37D0714505
:1067F00028D070B2B0F1FF3F06DC47F6E07306F038
:106800007F00C0F600031E5CF3B2544614F9010B7E
:10681000C7B20FB19842F9D1002F40F08680A6F19F
:106820006100C0B21A2808EB020038BF203E80F891
:1068300020606E5C01F101090132212E4946CFD260
:1068400016E000BF7146BCF10B0F4FF006006DD093
:1068500008222E2B4FF00B0CB8D067E00131685C9A
:106860005C2818BF2F28F9D0002089460AB95CE0BF
:1068700004209BF80010E52904BF05218BF80010C7
:10688000D8F8006088F82B004046FFF75FFA18BB85
:10689000D8F81810304600F0FBFAE8B9D8F81C0018
:1068A0000178002945D0C17A01F03F0188F806102F
:1068B000C17A09070BD40021425C1BF801300A2978
:1068C00003D09A4201F10101F6D09A422AD0404603
:1068D0000021FFF790F9DAE798F82B1088BB4807FA
:1068E00032D498F80600C00630D5009BD8F81000C6
:1068F00099894D44B0FBF1F202FB11001A78191886
:10690000B1F84E00032A06D134314A7D097D40EAB0
:10691000026040EA0140C8F808004FF020304BE721
:106920000420A2E798F82B10D9E7062001B000F068
:1069300014B898F82B1048074FF0040058BF0520F2
:10694000F4E70428F2D1F6E70020EFE70520EDE7B1
:1069500030BCBDE8C04FFFF725BF30BCBDE8C08FDD
:10696000F0B581B002293AD305680C46A86988427F
:1069700035D92878032835D0022854D001282ED1C3
:10698000A88904EB5406696AB6FBF0F00144284676
:1069900000F07EFA002850D1A8896A6AB6FBF0F1AF
:1069A00001FB10610136B6FBF0F0294491F8347018
:1069B0008118284600F06CFA00283ED1A889E20729
:1069C000B6FBF0F101FB1060284490F8340047EA70
:1069D000002108466FF31F3018BF080900E00120AE
:1069E00001B0F0BDA889696A8008B4FBF0F00144E9
:1069F000284600F04DFA00BBA889A100B1FBF0F1D8
:106A00004843C0EB8400291891F8363091F83400DF
:106A100091F8352091F837101B0243EA01411144E7
:106A200061F31B20DCE7A889696A4008B4FBF0F039
:106A30000144284600F02CFA10B14FF0FF30CFE7A8
:106A4000A8896100B1FBF0F14843C0EB4400284441
:106A5000808EC5E780B5D0F800E0BEF1000F20D0F1
:106A6000002300BF1EF803105A1C212902D33A2923
:106A70001346F7D13A2917D19EF900C04FF0FF31E4
:106A8000BCF1310F11DC022A0FD16FF02F0353FA42
:106A90008CF3092B9FBF72445FFA8CF1303902608E
:106AA00003E04FF0FF3100E00021084680BD000008
:106AB00086B0FAF7A3FFFDF7A1F9002741F24C00D9
:106AC0000597C4F20200016840F6000941F0040194
:106AD00001600168C4F6000901F004010091009909
:106AE0000168002241F002010160016801F0020129
:106AF00000910099016841F001010160016801F015
:106B0000010100910099016841F0080101600068ED
:106B10004FF4015100F00800009000984846FAF741
:106B200054FFA9F5806528464FF4004101224FF437
:106B3000004B4FF00108FAF748FF48468021012238
:106B4000FAF743FF4FF4005001AECDE90108484683
:106B50003146CDE90377FAF749FE4FF00C0A284693
:106B60003146CDE901A7CDF80C80FAF73FFE0224AB
:106B7000284642F600053146CDE901B80397049452
:106B8000C4F20105FAF732FEC020CDE901084846FB
:106B90003146CDE90374FAF729FE42F2BC3005F51F
:106BA0008051C2F200004FF4E13280E88600C0E973
:106BB0000377C0E905A7C0E907774762FCF713FD33
:106BC00018B1EFF3108072B6FEE742F23834C2F229
:106BD0000004201D14212560F9F7CFFD0420A061D9
:106BE0002046FBF7EBFF20B1EFF3108072B600BF39
:106BF000FEE7FEF743FAFDF7D1FFFEF73FF800BFCF
:106C0000FDF7B4FFFCE700002DE9F04385B00F4627
:106C1000002115463960FFF71DFF002819D40646EC
:106C200040F28000C2F2000050F826400CB33C60F5
:106C3000207805F0FE0570B16078FFF7FAF8C1071B
:106C400009D140070A21002D18BF01EAE075284646
:106C50001CE00B201AE000202070F0B26670FFF7F5
:106C6000AFF8C10707D145B110F0040005D00A20E4
:106C70000CE00C200AE0032008E0607804F10C0529
:106C800002212A46FFF79EF818B1012005B0BDE8A1
:106C9000F0832988A1F5007080B2B0F5606F4FF0E5
:106CA0000100F3D845F2555202EA5102891A4FF019
:106CB000333202EA910221F0CC31114401EB11117F
:106CC00021F0F0314FF001325143090E0129DDD896
:106CD00020460021FEF78AFE022819D101AD0020CE
:106CE000294600BF2218D2F8FA211030402841F876
:106CF000042BF7D1002655F8261029B12046FEF7BF
:106D000075FE012801D807E003200136042EF2D1D8
:106D10000428BAD0012827D8B4F83F10A0898142AE
:106D200022D1B4F84A20D4F8309002B9A26D94F878
:106D30004460E261701E0128A67015D894F8417075
:106D4000781E3840B7FA87F318BF01205B09184353
:106D5000678109D1B4F845304809B3FBF0F52381C8
:106D600005FB1030000401D00D208FE7B4F8470078
:106D700000B9606DB4F84280B8F1000FF4D002FBA6
:106D800006FE0EEB08062E44B042EDD3801BB8423F
:106D9000EAD3B0FBF7F04FF6F675C0F6FF750027A3
:106DA000A8424FF6F67538BF0327A84240F6F6759D
:106DB00038BF0227A84238BF0127002FD4D000F1E6
:106DC000020C09EB080006EB0905032FC4F818C0F4
:106DD000C4E90890E5620DD194F85E0094F85F6014
:106DE000184340EA06200004BED1206EA0624FEA9C
:106DF0008C000DE0002BB7D07044022FA0620FBFB3
:106E00004FEA4C000CEB4C000CF0010303EB50007C
:106E100008440138B0FBF1F08242A5D34FF0FF30B7
:106E2000C4E904008020032F207126D1B4F8640047
:106E3000012822D109F10101204600F029F8E0B92A
:106E4000B4F832124AF6552200209142207114D132
:106E5000606B45F25221C4F2611188420DD1D4F821
:106E6000180247F27221C6F24111884205D1D4F8C6
:106E70002002D4F81C12C4E9040140F288002770F3
:106E8000C2F200000188013101800020E180FDE6AE
:106E9000B0B50446006B884204BF0020B0BD204658
:106EA0000D4600F01EF900B1B0BD607804F1340168
:106EB0002A460123FEF79BFF00281CBF4FF0FF3539
:106EC00001202563B0BDF0B581B002292AD3044664
:106ED00080690E46884225D920781546032824D09B
:106EE000022849D001281DD1A08906EB5607616A06
:106EF000B7FBF0F001442046FFF7CAFF98B9A0891C
:106F000016F00106B7FBF0F101FB107107F1010764
:106F1000214401F1340144D00A7802F00F0265F3F4
:106F20000B123FE0022001B0F0BDA089616A800829
:106F3000B6FBF0F001442046FFF7AAFF0028F2D18B
:106F4000A089B100B1FBF0F105F070624843C0EBDD
:106F50008600204490F8371080F8345001F0F0019A
:106F600042EA01612A0A80F835202A0C090E80F8CD
:106F7000362080F8371034E0A089616A4008B6FBFB
:106F8000F0F001442046FFF783FF0028CBD1A08911
:106F90007100B1FBF0F14843C0EB46002044858608
:106FA0001FE0EAB20A70626AB7FBF0F00121E170FB
:106FB00081182046FFF76CFF0028B4D1A089B7FBE9
:106FC000F0F101FB1070204400F1340016B1C5F35C
:106FD000071105E00178C5F3032201F0F001114427
:106FE00001700120E07000209DE70000F0B581B045
:106FF00002292FD305680446A8690E46884229D97C
:10700000B2B1284611464FF0FF32FFF75CFF10BBCC
:107010000EE000BFD5E90510821E914205D22A7903
:107020000131696142F00101297187423E4614D263
:1070300020463146FFF794FC074601300FD067B178
:10704000012F07D0284631460022FFF73CFF0028D9
:10705000E0D000E0022001B0F0BD0020FBE70120FD
:10706000F9E7B0B5044600F03CF800B1B0BD2078B7
:1070700003282DD1207901282AD104F1380040F6C7
:10708000FC71F9F758FB45F25220C4F26110254615
:1070900045F8340F4AF65520A5F8FE0147F2722054
:1070A000C6F24110C5F8E40155E909100123C5F8FD
:1070B000E80155F8140CC5F8EC11421C15F8330C16
:1070C000294645F8042CFEF7BAFE002005F8300CDE
:1070D000607800210022FEF775FE002818BF01200D
:1070E000B0BD70B50446C078D0B16078226B04F1B1
:1070F0003405294601230126FEF7A1FE88B9606AFE
:10710000216BE269081A00269042E67009D2A07845
:10711000022805D160780A4429460123FEF78FFE34
:107120000026304670BDB0B50C4680B105460068FB
:1071300068B1017859B1A988C288914207D14078D5
:10714000FEF777FEC00702D12968002001E0002188
:1071500009202160B0BD5FEA400C08BF91F0000F2C
:107160004FEA8C234FEAC12243EA51514FEA1C50A7
:1071700018BF00F5F0404FEA300018BF41F0004161
:107180005FEA6C5C00F02980BCF1FF3F08BF40F073
:1071900080407047130C06BF12044FF0100C4FF0E4
:1071A000000C130E04BF12020CF1080C130F04BFE5
:1071B00012010CF1040C930F04BF92000CF1020CAD
:1071C000D30F04BF52000CF1010C11464FF0000226
:1071D000A0F11F00A0EB0C00704711F0004F08BF9A
:1071E000704731F000413FF4D5AF0B0C06BF0904E6
:1071F0004FF0100C4FF0000C0B0E04BF09020CF105
:10720000080C0B0F04BF09010CF1040C8B0F04BF19
:1072100089000CF1020CCB0F04BF49000CF1010CEA
:10722000CCF1200322FA03F341EA030102FA0CF243
:10723000A0EB0C0000F10100704723F07F4720F025
:107240007F4C80EA030000F00040ACEB070303F53D
:107250007C5303F1FF032DE9804909B44FEA14433D
:1072600024EA03484FEA154B25EA0B4E0FF2042699
:1072700006EB13273E7803FB0667C7F5000707FBFD
:1072800006F64FEAD64606F102064FEA543707FBE8
:10729000066CCCF1005C4FEA1C472CEA074C0CFB57
:1072A00006F507FB06F404EB15464FEA9616490867
:1072B0005FEA320234BF00204FF000404FEAD1377E
:1072C00006FB07FC4FEA1C4C0CFB0BF7D21B03FB25
:1072D0000CF761EB07010CFB0EF7B0EB074072EB0C
:1072E00017420CFB08F734BFA2EB0742B2EB074290
:1072F00061EB17414FEA0C444FEA910706FB07FC8C
:107300004FEA1C4C0CFB0BF7B0EBC74072EB57324B
:1073100003FB0CF734BFA2EBC742B2EBC74261EBF1
:1073200057310CFB0EF7B0EBC70072EB57720CFB3A
:1073300008F734BFA2EBC702B2EBC70261EB57718B
:107340004FEA816141EA92114FEA826242EA901269
:107350004FEA806004EBCC04039F4FEAD13706FB71
:1073600007FC4FEA1C4C0CFB0BF7D21B03FB0CF782
:1073700061EB07010CFB0EF7B0EB074072EB174215
:107380000CFB08F734BFA2EB0742B2EB074261EBFC
:1073900017414FEA8C5504EB9C244FEA910706FBFA
:1073A00007FC4FEA1C4C0CFB0BF7B0EBC74072EB31
:1073B000573203FB0CF734BFA2EBC742B2EBC74214
:1073C00061EB57310CFB0EF7B0EBC70072EB577255
:1073D0000CFB08F734BFA2EBC702B2EBC70261EBAC
:1073E00057714FEA816141EA92114FEA826242EAA3
:1073F00090124FEA806015EB4C2544F100044FEAEF
:10740000D13706FB07FC4FEA1C4C0CFB0BF7D21BD9
:1074100003FB0CF761EB07010CFB0EF7B0EB074029
:1074200072EB17420CFB08F734BFA2EB0742B2EB3A
:10743000074261EB17414FEA813141EA92414FEA3D
:10744000823242EA90424FEA80304FEA0C7615EBE6
:107450001C1544F1000448EA03434EEA0B484FF080
:10746000000EB2EB080C71EB030724BF62463946ED
:107470004EEB0E0E4FF0000B0018524149414BEB02
:107480000B0BB2EB080C71EB03077BF1000B24BF75
:10749000624639464EEB0E0E4FF0000B001852417B
:1074A00049414BEB0B0BB2EB080C71EB03077BF183
:1074B000000B24BF624639464EEB0E0E51EA02071E
:1074C00018BF46F0010616EB0E7655F1000254F196
:1074D000000103D5BDE88901BDE80088BDE8890148
:1074E000BDE80048B619524141EB0101A3F1010387
:1074F000704780807F7E7D7C7B7A79787776767521
:107500007473727171706F6E6E6D6C6C6B6A6A6998
:107510006868676666656464636362616160605F32
:107520005F5E5E5D5D5C5C5B5B5A5A5959585857AB
:107530005756565555555454535352525251515013
:1075400050504F4F4F4E4E4D4D4D4C4C4C4B4B4B66
:107550004A4A4A49494948484847474747464646AC
:1075600045454544444444434343434242424241E7
:1075700041419C46002B30D477002BD04FEA37078F
:107580001CB503B44FF010004FF01001BAF1000F1A
:1075900006D0BCF1000FDCBF40F0080040F008014D
:1075A0004FF000000FBCBDE810400BF1010BBBF128
:1075B000010F08BF5FEA170722BF12F1010211F1A4
:1075C00001014FF0004143F1000300F0004043EAA5
:1075D00000007047F9D35708D0E746EA06464FEA5D
:1075E000164613F1400F1FDD13F1200FDFBF1643C6
:1075F0000A46002120335B42BED0C3F1200746EA91
:1076000006464FEA164602FA07F746EA070622FA46
:1076100003F2C3F1200701FA07F742EA070221FA51
:1076200003F14FF00003A7E746EA020646EA0646E2
:107630004FEA164646EA0106BCBF46EA0646360C45
:107640004FF000034FF000024FF0000194E72DE9E6
:10765000804C70B49A46934691E8380007C831EAE6
:10766000400C48BF34EA430C03D5FFF7E6FDFFF7B3
:1076700080FFF0BCBDE8008C2DE9804C70B49A46C8
:10768000934691E8380007C810F0804F08BF13F008
:10769000804F03D100F005F8FFF76BFFF0BCBDE8A9
:1076A000008C20F07F4723F07F4C80EA030000F03D
:1076B000004007EB0C03A3F57C53A3F1FE0392F00B
:1076C000000F00F0B38095F0000F00F077802DE9F7
:1076D00001494FEA114021EA00484FEA144624EAE2
:1076E000064700FB06FC08FB06F607FB08F818EB4C
:1076F00006484CEB164C00FB07F718EB07484CEB21
:1077000017404FEA124B22EA0B4E4FEA154625EA84
:1077100006470BFB06FC0EFB06F607FB0EFE1EEBF8
:10772000064E4CEB164C0BFB07F71EEB074E4CEBD3
:10773000174B18EB0B0840F1000018EB0E0B58EB41
:10774000000840F100008F1A4FF000014FF00006D2
:107750003CBFC943661B14BFB5EB040C00213CBF02
:10776000C943F61B4FEA174427EA04454FEA1C4772
:107770002CEA074C04FB076205FB07F70CFB05F638
:1077800016EB074642EB174204FB0CFC16EB0C46CB
:1077900042EB1C421BEB060658EB020241414EEA4B
:1077A0008E0E46EA9E0601D5BDE80189B619524102
:1077B00041EB0101A3F10103BDE801894FEA144542
:1077C00024EA05464FEA114721EA074C05FB07F476
:1077D00006FB07F70CFB06F111EB074144EB1744DE
:1077E00005FB0CFC11EB0C4144EB1C444FEA124727
:1077F00022EA074C05FB07F206FB07F70CFB06F62F
:1078000016EB074642EB174205FB0CFC16EB0C4649
:1078100042EB1C456A1854F1000148BF7047B61985
:10782000524141EB0101A3F10103704795F0000FB4
:1078300037D04FEA114221EA02464FEA144724EAC0
:10784000074C02FB07F106FB07F70CFB06F414EBF1
:10785000074441EB174102FB0CFC14EB0C4441EBD9
:107860001C414FEA154725EA074C02FB07F506FBCA
:1078700007F70CFB06F616EB074645EB174502FB30
:107880000CFC16EB0C4645EB1C42121951F10001A1
:1078900048BF7047B619524141EB0101A3F1010302
:1078A00070474FEA144524EA05464FEA114721EA9A
:1078B000074C05FB07F106FB07F70CFB06F212EB82
:1078C000074241EB174105FB0CFC12EB0C4251EB5C
:1078D0001C414FF0000648BF7047921841EB010170
:1078E000A3F10103704703B401984100009850EAE6
:1078F000C12018BF04204A0D18BF40F0010040F21B
:10790000FF72B2EB515F08BF40F00200012808BFD0
:10791000052002B0704730380A2801D20120704794
:107920000020704710B500290AD00878002807D039
:1079300005487844F9F7ACFE002801D0002010BDBE
:107940000248784410BD0000420A00003A0A0000D4
:1079500010B500290AD00878002807D005487844D7
:10796000F9F796FE002801D0002010BD02487844A7
:1079700010BD0000320A00002A0A00002DE9C041B3
:1079800030B4DFF8A0C23CEA111418BF3CEA13146B
:1079900000F0EC801CEA111481EA030544EAD57476
:1079A00018BF1CEA131500F0C780A4EB050404F10E
:1079B0007F7404F500344FF0004545EAC12145EAE3
:1079C000C32341EA505143EA52534FEAC0204FEAE1
:1079D000C222994208BF904200F09C804FEA136592
:1079E0000FF24016765D4FEA134506FB05F7C7F127
:1079F000807706FB07F74FEAD737A7FB0368764285
:107A0000A7FB06CEC8F5803838BFA8F1010807FBF0
:107A100008E6A6FB028C4FF0000EE6FB03CEDCF17D
:107A2000000CCEF1004E38BFAEF1010EA6FB0C5893
:107A30004FF00007E6FB0E87A1FB08C6A0FB07CEB0
:107A400016EB0E064FF0000545F10005E1FB07655A
:107A500015F1E04E7EBFA4F580345FEA46066D4125
:107A600016F1800745F100054FEA172747EA056739
:107A70004FEA15254FEA0666A6F1DE46B6F1805FAD
:107A80001FD9384605EBC47124F0010C01EB0C1131
:107A9000BCF1FE6F02D8F0BCBDE8008124425CBF9F
:107AA00001F5801E9EEAC47F02D4F0BCBDE80081CF
:107AB000244238D4A1F1C041F0BCBDE8004100F03F
:107AC000EDB94FEAD02040EA41504FEAD1214FEAC8
:107AD000D22242EA43524FEAD323A7FB028607FB96
:107AE000036605FB02661EEA0E0F58BFA6EB0056A2
:107AF000B6EB00564FEA520E4EEAC37E18EB0E0E5E
:107B000056EB530EBDD518EB02085E417F1C55F1B4
:107B10000005B6E74FF480154FF000074FF0000660
:107B20004FF00008ADE701F1C04101F000414FF016
:107B30000000F0BCBDE800810CEA131511EA0C1F2F
:107B400000D00CE013EA0C1F00F025804FF000007D
:107B500081EA030101F00041F0BCBDE80081F0BC06
:107B6000BDE8004181EA030100F098B9F0BCBDE82E
:107B7000004170B500F044F9097EFC3E00F007B802
:107B80004FF0000081EA030101F00041704781EAF3
:107B9000030100F083B9F0BCBDE8004122494FF079
:107BA00000007047FFFDFBF9F7F5F4F2F0EEEDEBA6
:107BB000E9E8E6E4E3E1E0DEDDDBDAD8D7D5D4D3EB
:107BC000D1D0CFCDCCCBCAC8C7C6C5C4C2C1C0BF37
:107BD000BEBDBCBBBAB9B8B7B6B5B4B3B2B1B0AF3D
:107BE000AEADACABAAA9A8A8A7A6A5A4A3A3A2A121
:107BF000A09F9F9E9D9C9C9B9A99999897979695DC
:107C000095949393929191908F8F8E8E8D8C8C8B77
:107C10008B8A8989888887878685858484838382FF
:107C2000828181800000FF070000F87F4FEA115336
:107C3000A3F58063D3F11E03A8BFD3F1200C08DBAA
:107C40004FF0004242EAC12252EA505232FA03F0A7
:107C5000704709420BD4102BC4BF0020704703F5B6
:107C6000787CBCF1FF3F05D04FF0FF3070474FF0FC
:107C70000000704770B500F0C3F800BF499224803F
:107C800000207047F0E7B0FA80F310FA03F10AD051
:107C9000C3F11D0303F580634FEA03524FEA4150DD
:107CA00002EBD12170474FF00000704770B5DFF84C
:107CB00048C11CEA111E1EBF1CEA13159EEA0C0FD8
:107CC00095EA0C0F00F06F8081EA03044EEAD47E3F
:107CD000AE4421EA4C1123EA4C1341F4801143F4E1
:107CE0008013AEF17F7EA1FB024CA0FB0365361929
:107CF00055EB0C05A1FB034C4CF10003A0FB021C4F
:107D000016EB0C06654153F10003094218BF46F01B
:107D1000010613F4007F0BD14FEA03314FEA05301F
:107D200041EA155140EA165034036FF003020AE0AD
:107D30004FEAC3214FEAC52041EA555140EA565067
:107D4000F4026FF0020202EB2E4201EB025585EACB
:107D5000CE710AD05FEA440C18BF24F0004450F101
:107D6000000041F1000120EAD47040F2FE7C62453F
:107D700000D270BDA84214BF4FF080444FF0404481
:107D8000002E08BF0024BEF1806FA8BFA1F1C04142
:107D9000BDE8704080F2828001F1C04101F00041F5
:107DA0004FF0000070470CEA13159EEA0C0F18BF45
:107DB00095EA0C0F06D081EA030E4FF000000EF09A
:107DC000004170BD00F01CF88900013E00F007B8CA
:107DD00000F009B84FEA430C5FEA5C5C08D081EA26
:107DE000030100F05BB84FEA410C5FEA5C5CF6D13E
:107DF00002494FF0000070470000FF070000F87FC5
:107E00000EF1020E2EF0030E5EF8046B364205D41E
:107E1000012A43EB030515F5001F12D8012841EB99
:107E2000010C1CF5001F0CD80ED14FEAD17C0CEBD5
:107E30004C0C0CF1020C15F5001F08BF4CEBD37C69
:107E400004E04FF0080C01E04FEAD37C0CEB4C054A
:107E500026FA05F606F00706B6F1040C06D20EEB7C
:107E6000860CBDE870404CF0010C6047DFE80CF078
:107E7000090B02024FF00041A1F500214FF0000074
:107E800070BD19461046012851EB010418BFD4F506
:107E9000001484BF002001F0004170BD0808A0F567
:107EA00000114FEA31017047F1EE100A4FF6FF71F1
:107EB000C0F2C03120EA010040F04070E1EE100A4B
:107EC0007047F8F7EABFF9F721B90400000800008D
:107ED000000000000002000100001000000000008F
:107EE0000000000030313233343536373839414202
:107EF000434445464030580030313233343536370C
:107F000038396162636465664030780030313233FD
:107F100034353637383961626364656678700030AD
:107F20003132333435363738394142434445465887
:107F30005000000002400000000000A0000000000F
:107F400005400000000000C8000000000C400000D8
:107F50000000409C00000000194000000020BCBE52
:107F60000000000034400000BFC91B8E0000000468
:107F7000B5400000504BCFD06607E2CF01000000B3
:107F80006C4100003E8251AADFEEA73401000000E0
:107F9000D9420000DCB5A0E23A301F97FFFFFFFF97
:107FA000B4450000FD25A0C8E9A3C14FFFFFFFFFB6
:107FB000FF3F00000000008000000000FF3F0000C5
:107FC0000000008000000000000000000000000031
:107FD000010203040607080900000000010203046F
:107FE000809A45418E418F804545454949498E8F4C
:107FF0009092924F994F555559999A9B9C9D9E9F4F
:1080000041494F55A5A5A6A7A8A9AAABACADAEAF4F
:10801000B0B1B2B3B4B5B6B7B8B9BABBBCBDBEBFE8
:10802000C0C1C2C3C4C5C6C7C8C9CACBCCCDCECFD8
:10803000D0D1D2D3D4D5D6D7D8D9DADBDCDDDEDFC8
:10804000E0E1E2E3E4E5E6E7E8E9EAEBECEDEEEFB8
:10805000F0F1F2F3F4F5F6F7F8F9FAFBFCFDFEFFA8
:10806000A0860100400D0300801A060000350C00B8
:1080700040420F0080841E0000093D0000127A007B
:108080000024F40000366E010048E801006CDC02B8
:108090000030014000380040003C0040968200085B
:1080A0008E820008000D00000000000000000000AB
:1080B00000000000000000000400000002000000BA
:1080C0000800000000380140004400400048004023
:1080D000004C004020202020202020202020202094
:1080E000202020202020202020202020202F202081
:1080F0002020202020202020202020202020202080
:1081000020200D0A0020202F2020202029202020A0
:108110002F20202029202F20202029202F20202020
:108120002F202F202020202F2020202020205C20E6
:108130002020200D0A00202020205F5F5F5F20208C
:10814000202020202020202020202020202020202F
:10815000202020202020205F5F20202020202020A1
:108160005F5F20200D0A002D2D2D2F5F5F202F2D0A
:108170002D2D2D2D5F5F2D2D2D2F5F5F2D2D2D2D65
:108180002D2D2D2D2D2F2D2D2D2D2F2D2D2D2D5CEC
:108190002D2D2D2D2D0D0A00202020202F202020D8
:1081A00029202020202020202020202F20202020B7
:1081B000202020202020202F2020202029202020A7
:1081C0002F202020205C0D0A005F2F5F5F5F5F2F54
:1081D0005F5F5F285F5F5F285F285F5F5F2F5F28BB
:1081E0005F5F5F2F5F285F5F5F5F2F5F5F5F285F6D
:1081F0005F5F5F2F5F5F5F0D0A005F5F5F5F5F5FC5
:108200005F5F5F5F5F5F5F5F5F5F5F5F5F5F5F5F7E
:108210005F5F5F5F5F5F5F5F5F5F5F5F5F5F5F5F6E
:108220005F5F5F5F5F5F5F5F0D0A002E2E2F2E2E58
:108230002F2E2E2F426162794F532F626F732F635F
:108240006F72652F625F636F72652E630062496EA5
:1082500069740025640909253136730925640D0AFE
:10826000002573206572720D0A002E2E2F2E2E2FE0
:108270002E2E2F426162794F532F626F732F636FDF
:1082800072652F625F6465766963652E630074664C
:108290002D63617264006E756C6C00624465766972
:1082A0006365496E6974002E2E2F2E2E2F2E2E2FD1
:1082B000426162794F532F626F732F6472697665E2
:1082C00072732F625F6472765F73642E63005F6205
:1082D00053445F496E6974002E2E2F2E2E2F2E2EA2
:1082E0002F426162794F532F626F732F6D6F6475E8
:1082F0006C65732F625F6D6F645F66732E630062DF
:1083000046535F496E6974006246535F54657374E7
:108310000046415433320046415400222A2B2C3A65
:108320003B3C3D3E3F5B5D7C7F000000A08400083D
:108330000000002020000000C8010008C0840008E0
:1083400020000020282A0000E40100080B43000858
:1083500095460008D14600082D470008000000009F
:108360000D4300080D000000455600080000000005
:108370000D4300081C00000043000000F8FFFFFF51
:108380000C0000000E0000000F0000002E00000096
:108390001001000043000000F8FFFFFF00404040D4
:1083A00040404040404041414141414040404040C8
:1083B0004040404040404040404040404005020274
:1083C0000202020202020202020202020220202033
:1083D000202020202020200202020202020290908F
:1083E000909090901010101010101010101010108D
:1083F00010101010101010100202020202028888E1
:1084000088888888080808080808080808080808EC
:1084100008080808080808080202020240000000D4
:10842000000000000000000000000000000000004C
:10843000000000000000000000000000000000003C
:10844000000000000000000000000000000000002C
:10845000000000000000000000000000000000001C
:10846000000000000000000000000000000000000C
:1084700000000000000000000000000000000000FC
:1084800000000000000000000000000000000000EC
:1084900000000000000000000000000000000000DC
:1084A00000093D0004000020040000200C00002012
:1084B0000C0000200A000000010000001000000075
:040000050800018D61
:00000001FF
