Component: ARM Compiler 6.14 Tool: armlink [5db06800]

==============================================================================

Section Cross References

    startup_stm32l431xx.o(STACK) refers (Special) to heapauxi.o(.text) for __use_two_region_memory
    startup_stm32l431xx.o(HEAP) refers (Special) to heapauxi.o(.text) for __use_two_region_memory
    startup_stm32l431xx.o(RESET) refers (Special) to heapauxi.o(.text) for __use_two_region_memory
    startup_stm32l431xx.o(RESET) refers to startup_stm32l431xx.o(STACK) for __initial_sp
    startup_stm32l431xx.o(RESET) refers to startup_stm32l431xx.o(.text) for Reset_Handler
    startup_stm32l431xx.o(RESET) refers to stm32l4xx_it.o(.text.NMI_Handler) for NMI_Handler
    startup_stm32l431xx.o(RESET) refers to stm32l4xx_it.o(.text.HardFault_Handler) for HardFault_Handler
    startup_stm32l431xx.o(RESET) refers to stm32l4xx_it.o(.text.MemManage_Handler) for MemManage_Handler
    startup_stm32l431xx.o(RESET) refers to stm32l4xx_it.o(.text.BusFault_Handler) for BusFault_Handler
    startup_stm32l431xx.o(RESET) refers to stm32l4xx_it.o(.text.UsageFault_Handler) for UsageFault_Handler
    startup_stm32l431xx.o(RESET) refers to stm32l4xx_it.o(.text.SVC_Handler) for SVC_Handler
    startup_stm32l431xx.o(RESET) refers to stm32l4xx_it.o(.text.DebugMon_Handler) for DebugMon_Handler
    startup_stm32l431xx.o(RESET) refers to stm32l4xx_it.o(.text.PendSV_Handler) for PendSV_Handler
    startup_stm32l431xx.o(RESET) refers to stm32l4xx_it.o(.text.SysTick_Handler) for SysTick_Handler
    startup_stm32l431xx.o(RESET) refers to stm32l4xx_it.o(.text.USART1_IRQHandler) for USART1_IRQHandler
    startup_stm32l431xx.o(RESET) refers to stm32l4xx_it.o(.text.LPUART1_IRQHandler) for LPUART1_IRQHandler
    startup_stm32l431xx.o(.text) refers (Special) to heapauxi.o(.text) for __use_two_region_memory
    startup_stm32l431xx.o(.text) refers to system_stm32l4xx.o(.text.SystemInit) for SystemInit
==============================================================================

Removing Unused input sections from the image.

    Removing main.o(.text), (0 bytes).
    Removing main.o(.ARM.exidx.text.main), (8 bytes).
    Removing main.o(.ARM.exidx.text.SystemClock_Config), (8 bytes).
    Removing main.o(.ARM.exidx.text.Error_Handler), (8 bytes).
    Removing main.o(.bss.hqspi), (76 bytes).
    Removing main.o(.bss.hspi2), (100 bytes).
    Removing main.o(.ARM.use_no_argv), (4 bytes).
    Removing stm32l4xx_it.o(.text), (0 bytes).
    Removing stm32l4xx_it.o(.ARM.exidx.text.NMI_Handler), (8 bytes).
    Removing stm32l4xx_it.o(.ARM.exidx.text.HardFault_Handler), (8 bytes).
    Removing stm32l4xx_it.o(.ARM.exidx.text.MemManage_Handler), (8 bytes).
    Removing stm32l4xx_it.o(.ARM.exidx.text.BusFault_Handler), (8 bytes).
    Removing stm32l4xx_it.o(.ARM.exidx.text.UsageFault_Handler), (8 bytes).
    Removing stm32l4xx_it.o(.ARM.exidx.text.SVC_Handler), (8 bytes).
    Removing stm32l4xx_it.o(.ARM.exidx.text.DebugMon_Handler), (8 bytes).
    Removing stm32l4xx_it.o(.ARM.exidx.text.PendSV_Handler), (8 bytes).
    Removing stm32l4xx_it.o(.ARM.exidx.text.SysTick_Handler), (8 bytes).
    Removing stm32l4xx_it.o(.ARM.exidx.text.USART1_IRQHandler), (8 bytes).
==============================================================================

Image Symbol Table

    Local Symbols

    Symbol Name                              Value     Ov Type        Size  Object(Section)

    ../clib/angel/boardlib.s                 0x00000000   Number         0  boardinit1.o ABSOLUTE
    ../clib/angel/boardlib.s                 0x00000000   Number         0  boardinit2.o ABSOLUTE
    ../clib/angel/boardlib.s                 0x00000000   Number         0  boardinit3.o ABSOLUTE
    ../clib/angel/boardlib.s                 0x00000000   Number         0  boardshut.o ABSOLUTE
    ../clib/angel/handlers.s                 0x00000000   Number         0  __scatter_copy.o ABSOLUTE
    ../clib/angel/handlers.s                 0x00000000   Number         0  __scatter_zi.o ABSOLUTE
    ../clib/angel/kernel.s                   0x00000000   Number         0  __rtentry.o ABSOLUTE
    ../clib/angel/kernel.s                   0x00000000   Number         0  __rtentry2.o ABSOLUTE
    ../clib/angel/kernel.s                   0x00000000   Number         0  __rtentry4.o ABSOLUTE
    ../clib/angel/kernel.s                   0x00000000   Number         0  rtexit.o ABSOLUTE
    ../clib/angel/kernel.s                   0x00000000   Number         0  rtexit2.o ABSOLUTE
    ../clib/angel/rt.s                       0x00000000   Number         0  aeabi_ldiv0.o ABSOLUTE
    ../clib/angel/rt.s                       0x00000000   Number         0  aeabi_ldiv0_sigfpe.o ABSOLUTE
    ../clib/angel/rt.s                       0x00000000   Number         0  rt_div0.o ABSOLUTE
    ../clib/angel/rt.s                       0x00000000   Number         0  rt_ctype_table.o ABSOLUTE
    ../clib/angel/rt.s                       0x00000000   Number         0  rt_locale.o ABSOLUTE
    ../clib/angel/rt.s                       0x00000000   Number         0  rt_locale_intlibspace.o ABSOLUTE
    ../clib/angel/rt.s                       0x00000000   Number         0  rt_raise.o ABSOLUTE
    ../clib/angel/scatter.s                  0x00000000   Number         0  __scatter.o ABSOLUTE
    ../clib/angel/startup.s                  0x00000000   Number         0  __main.o ABSOLUTE
    ../clib/angel/sys.s                      0x00000000   Number         0  sys_stackheap_outer.o ABSOLUTE
    ../clib/angel/sys.s                      0x00000000   Number         0  libspace.o ABSOLUTE
    ../clib/angel/sys.s                      0x00000000   Number         0  use_no_semi.o ABSOLUTE
    ../clib/angel/sys.s                      0x00000000   Number         0  indicate_semi.o ABSOLUTE
    ../clib/angel/sysapp.c                   0x00000000   Number         0  sys_exit.o ABSOLUTE
    ../clib/angel/sysapp.c                   0x00000000   Number         0  sys_exit_hlt.o ABSOLUTE
    ../clib/angel/sysapp.c                   0x00000000   Number         0  sys_wrch.o ABSOLUTE
    ../clib/angel/sysapp.c                   0x00000000   Number         0  sys_wrch_hlt.o ABSOLUTE
    ../clib/angel/sysapp.c                   0x00000000   Number         0  sys_command.o ABSOLUTE
    ../clib/angel/sysapp.c                   0x00000000   Number         0  sys_command_hlt.o ABSOLUTE
    ../clib/armsys.c                         0x00000000   Number         0  argv_veneer.o ABSOLUTE
    ../clib/armsys.c                         0x00000000   Number         0  argv_veneer.o ABSOLUTE
    ../clib/armsys.c                         0x00000000   Number         0  _get_argv_nomalloc.o ABSOLUTE
    ../clib/armsys.c                         0x00000000   Number         0  no_argv.o ABSOLUTE
    ../clib/bigflt.c                         0x00000000   Number         0  bigflt0.o ABSOLUTE
    ../clib/btod.s                           0x00000000   Number         0  btod.o ABSOLUTE
    ../clib/btod_accurate.c                  0x00000000   Number         0  btod_accurate.o ABSOLUTE
    ../clib/btod_accurate.c                  0x00000000   Number         0  btod_accurate_common.o ABSOLUTE
    ../clib/heapalloc.c                      0x00000000   Number         0  hrguard.o ABSOLUTE
    ../clib/heapaux.c                        0x00000000   Number         0  heapauxi.o ABSOLUTE
    ../clib/libinit.s                        0x00000000   Number         0  libinit.o ABSOLUTE
    ../clib/libinit.s                        0x00000000   Number         0  libinit2.o ABSOLUTE
    ../clib/libinit.s                        0x00000000   Number         0  libshutdown.o ABSOLUTE
    ../clib/libinit.s                        0x00000000   Number         0  libshutdown2.o ABSOLUTE
    ../clib/locale.c                         0x00000000   Number         0  _c16rtomb.o ABSOLUTE
    ../clib/locale.s                         0x00000000   Number         0  lc_numeric_c.o ABSOLUTE
    ../clib/locale.s                         0x00000000   Number         0  lc_ctype_c.o ABSOLUTE
    ../clib/longlong.s                       0x00000000   Number         0  lludivv7m.o ABSOLUTE
    ../clib/longlong.s                       0x00000000   Number         0  llsdiv.o ABSOLUTE
    ../clib/longlong.s                       0x00000000   Number         0  lludiv10.o ABSOLUTE
    ../clib/longlong.s                       0x00000000   Number         0  llushr.o ABSOLUTE
    ../clib/memcpset.s                       0x00000000   Number         0  rt_memcpy_v6.o ABSOLUTE
    ../clib/memcpset.s                       0x00000000   Number         0  rt_memclr.o ABSOLUTE
    ../clib/memcpset.s                       0x00000000   Number         0  rt_memclr_w.o ABSOLUTE
    ../clib/memcpset.s                       0x00000000   Number         0  rt_memcpy_w.o ABSOLUTE
    ../clib/memcpset.s                       0x00000000   Number         0  strcmpv7em.o ABSOLUTE
    ../clib/misc.s                           0x00000000   Number         0  printf_stubs.o ABSOLUTE
    ../clib/printf.c                         0x00000000   Number         0  vsnprintf.o ABSOLUTE
    ../clib/printf.c                         0x00000000   Number         0  __2sprintf.o ABSOLUTE
    ../clib/printf.c                         0x00000000   Number         0  noretval__2sprintf.o ABSOLUTE
    ../clib/printf.c                         0x00000000   Number         0  __printf.o ABSOLUTE
    ../clib/printf.c                         0x00000000   Number         0  _printf_dec.o ABSOLUTE
    ../clib/printf.c                         0x00000000   Number         0  __printf_flags.o ABSOLUTE
    ../clib/printf.c                         0x00000000   Number         0  __printf_ss.o ABSOLUTE
    ../clib/printf.c                         0x00000000   Number         0  __printf_flags_ss.o ABSOLUTE
    ../clib/printf.c                         0x00000000   Number         0  __printf_wp.o ABSOLUTE
    ../clib/printf.c                         0x00000000   Number         0  __printf_flags_wp.o ABSOLUTE
    ../clib/printf.c                         0x00000000   Number         0  __printf_ss_wp.o ABSOLUTE
    ../clib/printf.c                         0x00000000   Number         0  __printf_flags_ss_wp.o ABSOLUTE
    ../clib/printf.c                         0x00000000   Number         0  _printf_pad.o ABSOLUTE
    ../clib/printf.c                         0x00000000   Number         0  _printf_truncate.o ABSOLUTE
    ../clib/printf.c                         0x00000000   Number         0  _printf_str.o ABSOLUTE
    ../clib/printf.c                         0x00000000   Number         0  _printf_intcommon.o ABSOLUTE
    ../clib/printf.c                         0x00000000   Number         0  _printf_charcount.o ABSOLUTE
    ../clib/printf.c                         0x00000000   Number         0  _printf_char_common.o ABSOLUTE
    ../clib/printf.c                         0x00000000   Number         0  _sputc.o ABSOLUTE
    ../clib/printf.c                         0x00000000   Number         0  _snputc.o ABSOLUTE
    ../clib/printf.c                         0x00000000   Number         0  _printf_wctomb.o ABSOLUTE
    ../clib/printf.c                         0x00000000   Number         0  _printf_longlong_dec.o ABSOLUTE
    ../clib/printf.c                         0x00000000   Number         0  _printf_oct_ll.o ABSOLUTE
    ../clib/printf.c                         0x00000000   Number         0  _printf_oct_int.o ABSOLUTE
    ../clib/printf.c                         0x00000000   Number         0  _printf_oct_int_ll.o ABSOLUTE
    ../clib/printf.c                         0x00000000   Number         0  _printf_hex_ll.o ABSOLUTE
    ../clib/printf.c                         0x00000000   Number         0  _printf_hex_int.o ABSOLUTE
    ../clib/printf.c                         0x00000000   Number         0  _printf_hex_int_ll.o ABSOLUTE
    ../clib/printf.c                         0x00000000   Number         0  _printf_hex_ptr.o ABSOLUTE
    ../clib/printf.c                         0x00000000   Number         0  _printf_hex_int_ptr.o ABSOLUTE
    ../clib/printf.c                         0x00000000   Number         0  _printf_hex_ll_ptr.o ABSOLUTE
    ../clib/printf.c                         0x00000000   Number         0  _printf_hex_int_ll_ptr.o ABSOLUTE
    ../clib/printf.c                         0x00000000   Number         0  _printf_fp_dec.o ABSOLUTE
    ../clib/printf.c                         0x00000000   Number         0  _printf_fp_dec_accurate.o ABSOLUTE
    ../clib/printf.c                         0x00000000   Number         0  _printf_fp_hex.o ABSOLUTE
    ../clib/printf.c                         0x00000000   Number         0  __printf_nopercent.o ABSOLUTE
    ../clib/printf.c                         0x00000000   Number         0  _printf_char.o ABSOLUTE
    ../clib/printf.c                         0x00000000   Number         0  _printf_wchar.o ABSOLUTE
    ../clib/printf.c                         0x00000000   Number         0  _printf_fp_infnan.o ABSOLUTE
    ../clib/printf_percent.s                 0x00000000   Number         0  _printf_d.o ABSOLUTE
    ../clib/printf_percent.s                 0x00000000   Number         0  _printf_percent.o ABSOLUTE
    ../clib/printf_percent.s                 0x00000000   Number         0  _printf_c.o ABSOLUTE
    ../clib/printf_percent.s                 0x00000000   Number         0  _printf_s.o ABSOLUTE
    ../clib/printf_percent.s                 0x00000000   Number         0  _printf_n.o ABSOLUTE
    ../clib/printf_percent.s                 0x00000000   Number         0  _printf_x.o ABSOLUTE
    ../clib/printf_percent.s                 0x00000000   Number         0  _printf_p.o ABSOLUTE
    ../clib/printf_percent.s                 0x00000000   Number         0  _printf_o.o ABSOLUTE
    ../clib/printf_percent.s                 0x00000000   Number         0  _printf_i.o ABSOLUTE
    ../clib/printf_percent.s                 0x00000000   Number         0  _printf_u.o ABSOLUTE
    ../clib/printf_percent.s                 0x00000000   Number         0  _printf_f.o ABSOLUTE
    ../clib/printf_percent.s                 0x00000000   Number         0  _printf_e.o ABSOLUTE
    ../clib/printf_percent.s                 0x00000000   Number         0  _printf_g.o ABSOLUTE
    ../clib/printf_percent.s                 0x00000000   Number         0  _printf_a.o ABSOLUTE
    ../clib/printf_percent.s                 0x00000000   Number         0  _printf_percent_end.o ABSOLUTE
    ../clib/printf_percent.s                 0x00000000   Number         0  _printf_lli.o ABSOLUTE
    ../clib/printf_percent.s                 0x00000000   Number         0  _printf_lld.o ABSOLUTE
    ../clib/printf_percent.s                 0x00000000   Number         0  _printf_llu.o ABSOLUTE
    ../clib/printf_percent.s                 0x00000000   Number         0  _printf_ll.o ABSOLUTE
    ../clib/printf_percent.s                 0x00000000   Number         0  _printf_l.o ABSOLUTE
    ../clib/printf_percent.s                 0x00000000   Number         0  _printf_lc.o ABSOLUTE
    ../clib/printf_percent.s                 0x00000000   Number         0  _printf_ls.o ABSOLUTE
    ../clib/printf_percent.s                 0x00000000   Number         0  _printf_llo.o ABSOLUTE
    ../clib/printf_percent.s                 0x00000000   Number         0  _printf_llx.o ABSOLUTE
    ../clib/signal.c                         0x00000000   Number         0  defsig_fpe_outer.o ABSOLUTE
    ../clib/signal.c                         0x00000000   Number         0  defsig_fpe_formal.o ABSOLUTE
    ../clib/signal.c                         0x00000000   Number         0  defsig_exit.o ABSOLUTE
    ../clib/signal.c                         0x00000000   Number         0  defsig_fpe_inner.o ABSOLUTE
    ../clib/signal.c                         0x00000000   Number         0  __raise.o ABSOLUTE
    ../clib/signal.c                         0x00000000   Number         0  defsig_general.o ABSOLUTE
    ../clib/signal.c                         0x00000000   Number         0  defsig_abrt_inner.o ABSOLUTE
    ../clib/signal.c                         0x00000000   Number         0  defsig_rtred_inner.o ABSOLUTE
    ../clib/signal.c                         0x00000000   Number         0  defsig_rtmem_inner.o ABSOLUTE
    ../clib/signal.c                         0x00000000   Number         0  defsig_rtmem_outer.o ABSOLUTE
    ../clib/signal.c                         0x00000000   Number         0  defsig_rtmem_formal.o ABSOLUTE
    ../clib/signal.c                         0x00000000   Number         0  defsig_stak_inner.o ABSOLUTE
    ../clib/signal.c                         0x00000000   Number         0  defsig_pvfn_inner.o ABSOLUTE
    ../clib/signal.c                         0x00000000   Number         0  defsig_cppl_inner.o ABSOLUTE
    ../clib/signal.c                         0x00000000   Number         0  defsig_segv_inner.o ABSOLUTE
    ../clib/signal.c                         0x00000000   Number         0  defsig_other.o ABSOLUTE
    ../clib/signal.s                         0x00000000   Number         0  defsig.o ABSOLUTE
    ../clib/stdlib.c                         0x00000000   Number         0  exit.o ABSOLUTE
    ../clib/string.c                         0x00000000   Number         0  strlen.o ABSOLUTE
    ../fplib/ddiv.s                          0x00000000   Number         0  ddiv.o ABSOLUTE
    ../fplib/dfixu.s                         0x00000000   Number         0  dfixu.o ABSOLUTE
    ../fplib/dflt.s                          0x00000000   Number         0  dflt_clz.o ABSOLUTE
    ../fplib/dmul.s                          0x00000000   Number         0  dmul.o ABSOLUTE
    ../fplib/dnaninf.s                       0x00000000   Number         0  dnaninf.o ABSOLUTE
    ../fplib/dretinf.s                       0x00000000   Number         0  dretinf.o ABSOLUTE
    ../fplib/fpinit.s                        0x00000000   Number         0  fpinit.o ABSOLUTE
    ../fplib/istatus.s                       0x00000000   Number         0  istatus.o ABSOLUTE
    ../fplib/printf1.s                       0x00000000   Number         0  printf1.o ABSOLUTE
    ../fplib/printf2.s                       0x00000000   Number         0  printf2.o ABSOLUTE
    ../fplib/printf2a.s                      0x00000000   Number         0  printf2a.o ABSOLUTE
    ../fplib/printf2b.s                      0x00000000   Number         0  printf2b.o ABSOLUTE
    ../fplib/usenofp.s                       0x00000000   Number         0  usenofp.o ABSOLUTE
    ../mathlib/fpclassify.c                  0x00000000   Number         0  fpclassify.o ABSOLUTE
    b_core.c                                 0x00000000   Number         0  b_core.o ABSOLUTE
    b_device.c                               0x00000000   Number         0  b_device.o ABSOLUTE
    b_drv_sd.c                               0x00000000   Number         0  b_drv_sd.o ABSOLUTE
    b_hal.c                                  0x00000000   Number         0  b_hal.o ABSOLUTE
    b_hal_flash.c                            0x00000000   Number         0  b_hal_flash.o ABSOLUTE
    b_hal_gpio.c                             0x00000000   Number         0  b_hal_gpio.o ABSOLUTE
    b_hal_i2c.c                              0x00000000   Number         0  b_hal_i2c.o ABSOLUTE
    b_hal_it.c                               0x00000000   Number         0  b_hal_it.o ABSOLUTE
    b_hal_qspi.c                             0x00000000   Number         0  b_hal_qspi.o ABSOLUTE
    b_hal_sdio.c                             0x00000000   Number         0  b_hal_sdio.o ABSOLUTE
    b_hal_spi.c                              0x00000000   Number         0  b_hal_spi.o ABSOLUTE
    b_hal_uart.c                             0x00000000   Number         0  b_hal_uart.o ABSOLUTE
    b_mod_adchub.c                           0x00000000   Number         0  b_mod_adchub.o ABSOLUTE
    b_mod_button.c                           0x00000000   Number         0  b_mod_button.o ABSOLUTE
    b_mod_error.c                            0x00000000   Number         0  b_mod_error.o ABSOLUTE
    b_mod_fs.c                               0x00000000   Number         0  b_mod_fs.o ABSOLUTE
    b_mod_gui.c                              0x00000000   Number         0  b_mod_gui.o ABSOLUTE
    b_mod_iap.c                              0x00000000   Number         0  b_mod_iap.o ABSOLUTE
    b_mod_kv.c                               0x00000000   Number         0  b_mod_kv.o ABSOLUTE
    b_mod_menu.c                             0x00000000   Number         0  b_mod_menu.o ABSOLUTE
    b_mod_modbus.c                           0x00000000   Number         0  b_mod_modbus.o ABSOLUTE
    b_mod_param.c                            0x00000000   Number         0  b_mod_param.o ABSOLUTE
    b_mod_protocol.c                         0x00000000   Number         0  b_mod_protocol.o ABSOLUTE
    b_mod_pwm.c                              0x00000000   Number         0  b_mod_pwm.o ABSOLUTE
    b_mod_shell.c                            0x00000000   Number         0  b_mod_shell.o ABSOLUTE
    b_mod_state.c                            0x00000000   Number         0  b_mod_state.o ABSOLUTE
    b_mod_trace.c                            0x00000000   Number         0  b_mod_trace.o ABSOLUTE
    b_mod_xm128.c                            0x00000000   Number         0  b_mod_xm128.o ABSOLUTE
    b_mod_ymodem.c                           0x00000000   Number         0  b_mod_ymodem.o ABSOLUTE
    b_queue.c                                0x00000000   Number         0  b_queue.o ABSOLUTE
    b_sem.c                                  0x00000000   Number         0  b_sem.o ABSOLUTE
    b_task.c                                 0x00000000   Number         0  b_task.o ABSOLUTE
    b_timer.c                                0x00000000   Number         0  b_timer.o ABSOLUTE
    b_util_fifo.c                            0x00000000   Number         0  b_util_fifo.o ABSOLUTE
    b_util_log.c                             0x00000000   Number         0  b_util_log.o ABSOLUTE
    b_util_lunar.c                           0x00000000   Number         0  b_util_lunar.o ABSOLUTE
    b_util_memp.c                            0x00000000   Number         0  b_util_memp.o ABSOLUTE
    b_util_uart.c                            0x00000000   Number         0  b_util_uart.o ABSOLUTE
    b_util_utc.c                             0x00000000   Number         0  b_util_utc.o ABSOLUTE
    dc.s                                     0x00000000   Number         0  dc.o ABSOLUTE
    diskio.c                                 0x00000000   Number         0  diskio.o ABSOLUTE
    ff.c                                     0x00000000   Number         0  ff.o ABSOLUTE
    ffsystem.c                               0x00000000   Number         0  ffsystem.o ABSOLUTE
    ffunicode.c                              0x00000000   Number         0  ffunicode.o ABSOLUTE
    main.c                                   0x00000000   Number         0  main.o ABSOLUTE
    mcu_stm32l41x_flash.c                    0x00000000   Number         0  mcu_stm32l41x_flash.o ABSOLUTE
    mcu_stm32l41x_gpio.c                     0x00000000   Number         0  mcu_stm32l41x_gpio.o ABSOLUTE
    mcu_stm32l41x_i2c.c                      0x00000000   Number         0  mcu_stm32l41x_i2c.o ABSOLUTE
    mcu_stm32l41x_it.c                       0x00000000   Number         0  mcu_stm32l41x_it.o ABSOLUTE
    mcu_stm32l41x_qspi.c                     0x00000000   Number         0  mcu_stm32l41x_qspi.o ABSOLUTE
    mcu_stm32l41x_sdio.c                     0x00000000   Number         0  mcu_stm32l41x_sdio.o ABSOLUTE
    mcu_stm32l41x_spi.c                      0x00000000   Number         0  mcu_stm32l41x_spi.o ABSOLUTE
    mcu_stm32l41x_uart.c                     0x00000000   Number         0  mcu_stm32l41x_uart.o ABSOLUTE
    startup_stm32l431xx.s                    0x00000000   Number         0  startup_stm32l431xx.o ABSOLUTE
    stm32l4xx_hal.c                          0x00000000   Number         0  stm32l4xx_hal.o ABSOLUTE
    stm32l4xx_hal_adc.c                      0x00000000   Number         0  stm32l4xx_hal_adc.o ABSOLUTE
    stm32l4xx_hal_adc_ex.c                   0x00000000   Number         0  stm32l4xx_hal_adc_ex.o ABSOLUTE
    stm32l4xx_hal_cortex.c                   0x00000000   Number         0  stm32l4xx_hal_cortex.o ABSOLUTE
    stm32l4xx_hal_dma.c                      0x00000000   Number         0  stm32l4xx_hal_dma.o ABSOLUTE
    stm32l4xx_hal_dma_ex.c                   0x00000000   Number         0  stm32l4xx_hal_dma_ex.o ABSOLUTE
    stm32l4xx_hal_flash.c                    0x00000000   Number         0  stm32l4xx_hal_flash.o ABSOLUTE
    stm32l4xx_hal_flash_ex.c                 0x00000000   Number         0  stm32l4xx_hal_flash_ex.o ABSOLUTE
    stm32l4xx_hal_flash_ramfunc.c            0x00000000   Number         0  stm32l4xx_hal_flash_ramfunc.o ABSOLUTE
    stm32l4xx_hal_gpio.c                     0x00000000   Number         0  stm32l4xx_hal_gpio.o ABSOLUTE
    stm32l4xx_hal_i2c.c                      0x00000000   Number         0  stm32l4xx_hal_i2c.o ABSOLUTE
    stm32l4xx_hal_i2c_ex.c                   0x00000000   Number         0  stm32l4xx_hal_i2c_ex.o ABSOLUTE
    stm32l4xx_hal_iwdg.c                     0x00000000   Number         0  stm32l4xx_hal_iwdg.o ABSOLUTE
    stm32l4xx_hal_mmc.c                      0x00000000   Number         0  stm32l4xx_hal_mmc.o ABSOLUTE
    stm32l4xx_hal_mmc_ex.c                   0x00000000   Number         0  stm32l4xx_hal_mmc_ex.o ABSOLUTE
    stm32l4xx_hal_msp.c                      0x00000000   Number         0  stm32l4xx_hal_msp.o ABSOLUTE
    stm32l4xx_hal_pwr.c                      0x00000000   Number         0  stm32l4xx_hal_pwr.o ABSOLUTE
    stm32l4xx_hal_pwr_ex.c                   0x00000000   Number         0  stm32l4xx_hal_pwr_ex.o ABSOLUTE
    stm32l4xx_hal_qspi.c                     0x00000000   Number         0  stm32l4xx_hal_qspi.o ABSOLUTE
    stm32l4xx_hal_rcc.c                      0x00000000   Number         0  stm32l4xx_hal_rcc.o ABSOLUTE
    stm32l4xx_hal_rcc_ex.c                   0x00000000   Number         0  stm32l4xx_hal_rcc_ex.o ABSOLUTE
    stm32l4xx_hal_sd.c                       0x00000000   Number         0  stm32l4xx_hal_sd.o ABSOLUTE
    stm32l4xx_hal_sd_ex.c                    0x00000000   Number         0  stm32l4xx_hal_sd_ex.o ABSOLUTE
    stm32l4xx_hal_smartcard.c                0x00000000   Number         0  stm32l4xx_hal_smartcard.o ABSOLUTE
    stm32l4xx_hal_smartcard_ex.c             0x00000000   Number         0  stm32l4xx_hal_smartcard_ex.o ABSOLUTE
    stm32l4xx_hal_spi.c                      0x00000000   Number         0  stm32l4xx_hal_spi.o ABSOLUTE
    stm32l4xx_hal_spi_ex.c                   0x00000000   Number         0  stm32l4xx_hal_spi_ex.o ABSOLUTE
    stm32l4xx_hal_tim.c                      0x00000000   Number         0  stm32l4xx_hal_tim.o ABSOLUTE
    stm32l4xx_hal_tim_ex.c                   0x00000000   Number         0  stm32l4xx_hal_tim_ex.o ABSOLUTE
    stm32l4xx_hal_uart.c                     0x00000000   Number         0  stm32l4xx_hal_uart.o ABSOLUTE
    stm32l4xx_hal_uart_ex.c                  0x00000000   Number         0  stm32l4xx_hal_uart_ex.o ABSOLUTE
    stm32l4xx_hal_usart.c                    0x00000000   Number         0  stm32l4xx_hal_usart.o ABSOLUTE
    stm32l4xx_hal_usart_ex.c                 0x00000000   Number         0  stm32l4xx_hal_usart_ex.o ABSOLUTE
    stm32l4xx_hal_wwdg.c                     0x00000000   Number         0  stm32l4xx_hal_wwdg.o ABSOLUTE
    stm32l4xx_it.c                           0x00000000   Number         0  stm32l4xx_it.o ABSOLUTE
    stm32l4xx_ll_sdmmc.c                     0x00000000   Number         0  stm32l4xx_ll_sdmmc.o ABSOLUTE
    system_stm32l4xx.c                       0x00000000   Number         0  system_stm32l4xx.o ABSOLUTE
    RESET                                    0x08000000   Section      396  startup_stm32l431xx.o(RESET)
    !!!main                                  0x0800018c   Section        8  __main.o(!!!main)
    !!!scatter                               0x08000194   Section       52  __scatter.o(!!!scatter)
    !!handler_copy                           0x080001c8   Section       26  __scatter_copy.o(!!handler_copy)
    !!handler_zi                             0x080001e4   Section       28  __scatter_zi.o(!!handler_zi)
    .ARM.Collect$$_printf_percent$$00000000  0x08000200   Section        0  _printf_percent.o(.ARM.Collect$$_printf_percent$$00000000)
    .ARM.Collect$$_printf_percent$$00000001  0x08000200   Section        6  _printf_n.o(.ARM.Collect$$_printf_percent$$00000001)
    .ARM.Collect$$_printf_percent$$00000002  0x08000206   Section        6  _printf_p.o(.ARM.Collect$$_printf_percent$$00000002)
    .ARM.Collect$$_printf_percent$$00000003  0x0800020c   Section        6  _printf_f.o(.ARM.Collect$$_printf_percent$$00000003)
    .ARM.Collect$$_printf_percent$$00000004  0x08000212   Section        6  _printf_e.o(.ARM.Collect$$_printf_percent$$00000004)
    .ARM.Collect$$_printf_percent$$00000005  0x08000218   Section        6  _printf_g.o(.ARM.Collect$$_printf_percent$$00000005)
    .ARM.Collect$$_printf_percent$$00000006  0x0800021e   Section        6  _printf_a.o(.ARM.Collect$$_printf_percent$$00000006)
    .ARM.Collect$$_printf_percent$$00000007  0x08000224   Section       10  _printf_ll.o(.ARM.Collect$$_printf_percent$$00000007)
    .ARM.Collect$$_printf_percent$$00000008  0x0800022e   Section        6  _printf_i.o(.ARM.Collect$$_printf_percent$$00000008)
    .ARM.Collect$$_printf_percent$$00000009  0x08000234   Section        6  _printf_d.o(.ARM.Collect$$_printf_percent$$00000009)
    .ARM.Collect$$_printf_percent$$0000000A  0x0800023a   Section        6  _printf_u.o(.ARM.Collect$$_printf_percent$$0000000A)
    .ARM.Collect$$_printf_percent$$0000000B  0x08000240   Section        6  _printf_o.o(.ARM.Collect$$_printf_percent$$0000000B)
    .ARM.Collect$$_printf_percent$$0000000C  0x08000246   Section        6  _printf_x.o(.ARM.Collect$$_printf_percent$$0000000C)
    .ARM.Collect$$_printf_percent$$0000000D  0x0800024c   Section        6  _printf_lli.o(.ARM.Collect$$_printf_percent$$0000000D)
    .ARM.Collect$$_printf_percent$$0000000E  0x08000252   Section        6  _printf_lld.o(.ARM.Collect$$_printf_percent$$0000000E)
    .ARM.Collect$$_printf_percent$$0000000F  0x08000258   Section        6  _printf_llu.o(.ARM.Collect$$_printf_percent$$0000000F)
    .ARM.Collect$$_printf_percent$$00000010  0x0800025e   Section        6  _printf_llo.o(.ARM.Collect$$_printf_percent$$00000010)
    .ARM.Collect$$_printf_percent$$00000011  0x08000264   Section        6  _printf_llx.o(.ARM.Collect$$_printf_percent$$00000011)
    .ARM.Collect$$_printf_percent$$00000012  0x0800026a   Section       10  _printf_l.o(.ARM.Collect$$_printf_percent$$00000012)
    .ARM.Collect$$_printf_percent$$00000013  0x08000274   Section        6  _printf_c.o(.ARM.Collect$$_printf_percent$$00000013)
    .ARM.Collect$$_printf_percent$$00000014  0x0800027a   Section        6  _printf_s.o(.ARM.Collect$$_printf_percent$$00000014)
    .ARM.Collect$$_printf_percent$$00000015  0x08000280   Section        6  _printf_lc.o(.ARM.Collect$$_printf_percent$$00000015)
    .ARM.Collect$$_printf_percent$$00000016  0x08000286   Section        6  _printf_ls.o(.ARM.Collect$$_printf_percent$$00000016)
    .ARM.Collect$$_printf_percent$$00000017  0x0800028c   Section        4  _printf_percent_end.o(.ARM.Collect$$_printf_percent$$00000017)
    .ARM.Collect$$libinit$$00000000          0x08000290   Section        2  libinit.o(.ARM.Collect$$libinit$$00000000)
    .ARM.Collect$$libinit$$00000001          0x08000292   Section        4  libinit2.o(.ARM.Collect$$libinit$$00000001)
    .ARM.Collect$$libinit$$00000004          0x08000296   Section        0  libinit2.o(.ARM.Collect$$libinit$$00000004)
    .ARM.Collect$$libinit$$0000000A          0x08000296   Section        0  libinit2.o(.ARM.Collect$$libinit$$0000000A)
    .ARM.Collect$$libinit$$0000000C          0x08000296   Section        0  libinit2.o(.ARM.Collect$$libinit$$0000000C)
    .ARM.Collect$$libinit$$0000000E          0x08000296   Section        0  libinit2.o(.ARM.Collect$$libinit$$0000000E)
    .ARM.Collect$$libinit$$0000000F          0x08000296   Section        6  libinit2.o(.ARM.Collect$$libinit$$0000000F)
    .ARM.Collect$$libinit$$00000011          0x0800029c   Section        0  libinit2.o(.ARM.Collect$$libinit$$00000011)
    .ARM.Collect$$libinit$$00000012          0x0800029c   Section       12  libinit2.o(.ARM.Collect$$libinit$$00000012)
    .ARM.Collect$$libinit$$00000013          0x080002a8   Section        0  libinit2.o(.ARM.Collect$$libinit$$00000013)
    .ARM.Collect$$libinit$$00000015          0x080002a8   Section        0  libinit2.o(.ARM.Collect$$libinit$$00000015)
    .ARM.Collect$$libinit$$00000016          0x080002a8   Section       10  libinit2.o(.ARM.Collect$$libinit$$00000016)
    .ARM.Collect$$libinit$$00000017          0x080002b2   Section        0  libinit2.o(.ARM.Collect$$libinit$$00000017)
    .ARM.Collect$$libinit$$00000019          0x080002b2   Section        0  libinit2.o(.ARM.Collect$$libinit$$00000019)
    .ARM.Collect$$libinit$$0000001B          0x080002b2   Section        0  libinit2.o(.ARM.Collect$$libinit$$0000001B)
    .ARM.Collect$$libinit$$0000001D          0x080002b2   Section        0  libinit2.o(.ARM.Collect$$libinit$$0000001D)
    .ARM.Collect$$libinit$$0000001F          0x080002b2   Section        0  libinit2.o(.ARM.Collect$$libinit$$0000001F)
    .ARM.Collect$$libinit$$00000021          0x080002b2   Section        0  libinit2.o(.ARM.Collect$$libinit$$00000021)
    .ARM.Collect$$libinit$$00000023          0x080002b2   Section        0  libinit2.o(.ARM.Collect$$libinit$$00000023)
    .ARM.Collect$$libinit$$00000025          0x080002b2   Section        0  libinit2.o(.ARM.Collect$$libinit$$00000025)
    .ARM.Collect$$libinit$$0000002C          0x080002b2   Section        0  libinit2.o(.ARM.Collect$$libinit$$0000002C)
    .ARM.Collect$$libinit$$0000002E          0x080002b2   Section        0  libinit2.o(.ARM.Collect$$libinit$$0000002E)
    .ARM.Collect$$libinit$$00000030          0x080002b2   Section        0  libinit2.o(.ARM.Collect$$libinit$$00000030)
    .ARM.Collect$$libinit$$00000032          0x080002b2   Section        0  libinit2.o(.ARM.Collect$$libinit$$00000032)
    .ARM.Collect$$libinit$$00000033          0x080002b2   Section        2  libinit2.o(.ARM.Collect$$libinit$$00000033)
    .ARM.Collect$$libshutdown$$00000000      0x080002b4   Section        2  libshutdown.o(.ARM.Collect$$libshutdown$$00000000)
    .ARM.Collect$$libshutdown$$00000002      0x080002b6   Section        0  libshutdown2.o(.ARM.Collect$$libshutdown$$00000002)
    .ARM.Collect$$libshutdown$$00000004      0x080002b6   Section        0  libshutdown2.o(.ARM.Collect$$libshutdown$$00000004)
    .ARM.Collect$$libshutdown$$00000007      0x080002b6   Section        0  libshutdown2.o(.ARM.Collect$$libshutdown$$00000007)
    .ARM.Collect$$libshutdown$$0000000A      0x080002b6   Section        0  libshutdown2.o(.ARM.Collect$$libshutdown$$0000000A)
    .ARM.Collect$$libshutdown$$0000000C      0x080002b6   Section        0  libshutdown2.o(.ARM.Collect$$libshutdown$$0000000C)
    .ARM.Collect$$libshutdown$$0000000F      0x080002b6   Section        0  libshutdown2.o(.ARM.Collect$$libshutdown$$0000000F)
    .ARM.Collect$$libshutdown$$00000010      0x080002b6   Section        2  libshutdown2.o(.ARM.Collect$$libshutdown$$00000010)
    .ARM.Collect$$rtentry$$00000000          0x080002b8   Section        0  __rtentry.o(.ARM.Collect$$rtentry$$00000000)
    .ARM.Collect$$rtentry$$00000002          0x080002b8   Section        0  __rtentry2.o(.ARM.Collect$$rtentry$$00000002)
    .ARM.Collect$$rtentry$$00000004          0x080002b8   Section        6  __rtentry4.o(.ARM.Collect$$rtentry$$00000004)
    .ARM.Collect$$rtentry$$00000009          0x080002be   Section        0  __rtentry2.o(.ARM.Collect$$rtentry$$00000009)
    .ARM.Collect$$rtentry$$0000000A          0x080002be   Section        4  __rtentry2.o(.ARM.Collect$$rtentry$$0000000A)
    .ARM.Collect$$rtentry$$0000000C          0x080002c2   Section        0  __rtentry2.o(.ARM.Collect$$rtentry$$0000000C)
    .ARM.Collect$$rtentry$$0000000D          0x080002c2   Section        8  __rtentry2.o(.ARM.Collect$$rtentry$$0000000D)
    .ARM.Collect$$rtexit$$00000000           0x080002ca   Section        2  rtexit.o(.ARM.Collect$$rtexit$$00000000)
    .ARM.Collect$$rtexit$$00000002           0x080002cc   Section        0  rtexit2.o(.ARM.Collect$$rtexit$$00000002)
    .ARM.Collect$$rtexit$$00000003           0x080002cc   Section        4  rtexit2.o(.ARM.Collect$$rtexit$$00000003)
    .ARM.Collect$$rtexit$$00000004           0x080002d0   Section        6  rtexit2.o(.ARM.Collect$$rtexit$$00000004)
    $v0                                      0x080002d8   Number         0  startup_stm32l431xx.o(.text)
    .text                                    0x080002d8   Section       64  startup_stm32l431xx.o(.text)
    .text                                    0x08000318   Section      240  lludivv7m.o(.text)
    .text                                    0x08000408   Section        0  vsnprintf.o(.text)
    .text                                    0x0800043c   Section        0  __2sprintf.o(.text)
    .text                                    0x08000468   Section        0  _printf_dec.o(.text)
    .text                                    0x080004e0   Section        0  __printf_flags_ss_wp.o(.text)
    .text                                    0x0800066e   Section        0  strlen.o(.text)
    .text                                    0x080006ac   Section      138  rt_memcpy_v6.o(.text)
    .text                                    0x08000736   Section       68  rt_memclr.o(.text)
    .text                                    0x0800077a   Section       78  rt_memclr_w.o(.text)
    .text                                    0x080007c8   Section        0  heapauxi.o(.text)
    .text                                    0x080007ce   Section        0  _printf_pad.o(.text)
    .text                                    0x0800081c   Section        0  _printf_truncate.o(.text)
    .text                                    0x08000840   Section        0  _printf_str.o(.text)
    .text                                    0x08000892   Section        0  _printf_intcommon.o(.text)
    .text                                    0x08000944   Section        0  _printf_charcount.o(.text)
    _printf_input_char                       0x0800096d   Thumb Code    10  _printf_char_common.o(.text)
    .text                                    0x0800096c   Section        0  _printf_char_common.o(.text)
    .text                                    0x0800099c   Section        0  _sputc.o(.text)
    .text                                    0x080009a6   Section        0  _snputc.o(.text)
    .text                                    0x080009b8   Section        0  _printf_wctomb.o(.text)
    .text                                    0x08000a7c   Section        0  _printf_longlong_dec.o(.text)
    _printf_longlong_oct_internal            0x08000af9   Thumb Code     0  _printf_oct_int_ll.o(.text)
    .text                                    0x08000af8   Section        0  _printf_oct_int_ll.o(.text)
    _printf_hex_common                       0x08000b69   Thumb Code     0  _printf_hex_int_ll_ptr.o(.text)
    .text                                    0x08000b68   Section        0  _printf_hex_int_ll_ptr.o(.text)
    .text                                    0x08000bfc   Section      100  rt_memcpy_w.o(.text)
    .text                                    0x08000c60   Section      138  lludiv10.o(.text)
    _fp_digits                               0x08000ceb   Thumb Code   432  _printf_fp_dec.o(.text)
    .text                                    0x08000cea   Section        0  _printf_fp_dec.o(.text)
    .text                                    0x0800110c   Section        0  _printf_fp_hex.o(.text)
    .text                                    0x0800140e   Section        0  _printf_char.o(.text)
    .text                                    0x0800143a   Section        0  _printf_wchar.o(.text)
    .text                                    0x08001466   Section        0  _c16rtomb.o(.text)
    .text                                    0x080014ae   Section       74  sys_stackheap_outer.o(.text)
    .text                                    0x080014f8   Section       16  rt_ctype_table.o(.text)
    .text                                    0x08001508   Section        8  rt_locale_intlibspace.o(.text)
    .text                                    0x08001510   Section        0  _printf_fp_infnan.o(.text)
    .text                                    0x08001590   Section        0  bigflt0.o(.text)
    .text                                    0x08001674   Section        0  exit.o(.text)
    .text                                    0x08001688   Section        8  libspace.o(.text)
    .text                                    0x08001690   Section      124  strcmpv7em.o(.text)
    .text                                    0x0800170c   Section        0  sys_exit.o(.text)
    .text                                    0x08001718   Section        2  use_no_semi.o(.text)
    .text                                    0x0800171a   Section        0  indicate_semi.o(.text)
    [Anonymous Symbol]                       0x0800171c   Section        0  stm32l4xx_it.o(.text.BusFault_Handler)
    [Anonymous Symbol]                       0x0800171e   Section        0  stm32l4xx_it.o(.text.DebugMon_Handler)
    [Anonymous Symbol]                       0x08001720   Section        0  main.o(.text.Error_Handler)
    [Anonymous Symbol]                       0x0800172a   Section        0  stm32l4xx_hal_dma.o(.text.HAL_DMA_Abort)
    [Anonymous Symbol]                       0x0800176e   Section        0  stm32l4xx_hal_dma.o(.text.HAL_DMA_Abort_IT)
    [Anonymous Symbol]                       0x080017c4   Section        0  stm32l4xx_hal.o(.text.HAL_Delay)
    [Anonymous Symbol]                       0x080017ec   Section        0  stm32l4xx_hal_gpio.o(.text.HAL_GPIO_Init)
    [Anonymous Symbol]                       0x080019ca   Section        0  stm32l4xx_hal_gpio.o(.text.HAL_GPIO_WritePin)
    [Anonymous Symbol]                       0x080019d6   Section        0  stm32l4xx_hal.o(.text.HAL_GetTick)
    [Anonymous Symbol]                       0x080019e2   Section        0  stm32l4xx_hal.o(.text.HAL_IncTick)
    [Anonymous Symbol]                       0x080019fc   Section        0  stm32l4xx_hal.o(.text.HAL_Init)
    [Anonymous Symbol]                       0x08001a18   Section        0  stm32l4xx_hal.o(.text.HAL_InitTick)
    [Anonymous Symbol]                       0x08001a6c   Section        0  stm32l4xx_hal_msp.o(.text.HAL_MspInit)
    [Anonymous Symbol]                       0x08001a9e   Section        0  stm32l4xx_hal_cortex.o(.text.HAL_NVIC_EnableIRQ)
    [Anonymous Symbol]                       0x08001abc   Section        0  stm32l4xx_hal_cortex.o(.text.HAL_NVIC_SetPriority)
    [Anonymous Symbol]                       0x08001b12   Section        0  stm32l4xx_hal_cortex.o(.text.HAL_NVIC_SetPriorityGrouping)
    [Anonymous Symbol]                       0x08001b34   Section        0  stm32l4xx_hal_pwr_ex.o(.text.HAL_PWREx_ControlVoltageScaling)
    [Anonymous Symbol]                       0x08001ba8   Section        0  stm32l4xx_hal_pwr_ex.o(.text.HAL_PWREx_GetVoltageRange)
    [Anonymous Symbol]                       0x08001bb8   Section        0  stm32l4xx_hal_rcc_ex.o(.text.HAL_RCCEx_GetPeriphCLKFreq)
    [Anonymous Symbol]                       0x08001f48   Section        0  stm32l4xx_hal_rcc_ex.o(.text.HAL_RCCEx_PeriphCLKConfig)
    [Anonymous Symbol]                       0x080021b8   Section        0  stm32l4xx_hal_rcc.o(.text.HAL_RCC_ClockConfig)
    [Anonymous Symbol]                       0x08002314   Section        0  stm32l4xx_hal_rcc.o(.text.HAL_RCC_GetPCLK1Freq)
    [Anonymous Symbol]                       0x0800233e   Section        0  stm32l4xx_hal_rcc.o(.text.HAL_RCC_GetPCLK2Freq)
    [Anonymous Symbol]                       0x08002368   Section        0  stm32l4xx_hal_rcc.o(.text.HAL_RCC_GetSysClockFreq)
    [Anonymous Symbol]                       0x08002420   Section        0  stm32l4xx_hal_rcc.o(.text.HAL_RCC_OscConfig)
    [Anonymous Symbol]                       0x08002a12   Section        0  stm32l4xx_hal_sd.o(.text.HAL_SD_GetCardCSD)
    [Anonymous Symbol]                       0x08002b94   Section        0  stm32l4xx_hal_sd.o(.text.HAL_SD_GetCardState)
    [Anonymous Symbol]                       0x08002bbc   Section        0  stm32l4xx_hal_sd.o(.text.HAL_SD_Init)
    [Anonymous Symbol]                       0x08002bfc   Section        0  stm32l4xx_hal_sd.o(.text.HAL_SD_InitCard)
    [Anonymous Symbol]                       0x08002e46   Section        0  stm32l4xx_hal_msp.o(.text.HAL_SD_MspInit)
    [Anonymous Symbol]                       0x08002f28   Section        0  stm32l4xx_hal_sd.o(.text.HAL_SD_ReadBlocks)
    [Anonymous Symbol]                       0x08003114   Section        0  stm32l4xx_hal_sd.o(.text.HAL_SD_WriteBlocks)
    [Anonymous Symbol]                       0x080032e8   Section        0  stm32l4xx_hal_cortex.o(.text.HAL_SYSTICK_Config)
    [Anonymous Symbol]                       0x08003314   Section        0  stm32l4xx_hal_uart.o(.text.HAL_UARTEx_RxEventCallback)
    [Anonymous Symbol]                       0x08003316   Section        0  stm32l4xx_hal_uart_ex.o(.text.HAL_UARTEx_WakeupCallback)
    [Anonymous Symbol]                       0x08003318   Section        0  stm32l4xx_hal_uart.o(.text.HAL_UART_ErrorCallback)
    [Anonymous Symbol]                       0x0800331c   Section        0  stm32l4xx_hal_uart.o(.text.HAL_UART_IRQHandler)
    [Anonymous Symbol]                       0x080035e6   Section        0  stm32l4xx_hal_uart.o(.text.HAL_UART_Init)
    [Anonymous Symbol]                       0x08003646   Section        0  stm32l4xx_hal_msp.o(.text.HAL_UART_MspInit)
    [Anonymous Symbol]                       0x0800373e   Section        0  stm32l4xx_hal_uart.o(.text.HAL_UART_TxCpltCallback)
    [Anonymous Symbol]                       0x08003740   Section        0  stm32l4xx_it.o(.text.HardFault_Handler)
    [Anonymous Symbol]                       0x08003742   Section        0  stm32l4xx_it.o(.text.LPUART1_IRQHandler)
    [Anonymous Symbol]                       0x08003750   Section        0  stm32l4xx_it.o(.text.MemManage_Handler)
    [Anonymous Symbol]                       0x08003754   Section        0  stm32l4xx_it.o(.text.NMI_Handler)
    [Anonymous Symbol]                       0x08003756   Section        0  stm32l4xx_it.o(.text.PendSV_Handler)
    RCCEx_PLLSAI1_Config                     0x08003759   Thumb Code   298  stm32l4xx_hal_rcc_ex.o(.text.RCCEx_PLLSAI1_Config)
    [Anonymous Symbol]                       0x08003758   Section        0  stm32l4xx_hal_rcc_ex.o(.text.RCCEx_PLLSAI1_Config)
    RCC_SetFlashLatencyFromMSIRange          0x08003883   Thumb Code   138  stm32l4xx_hal_rcc.o(.text.RCC_SetFlashLatencyFromMSIRange)
    [Anonymous Symbol]                       0x08003882   Section        0  stm32l4xx_hal_rcc.o(.text.RCC_SetFlashLatencyFromMSIRange)
    [Anonymous Symbol]                       0x0800390c   Section        0  stm32l4xx_ll_sdmmc.o(.text.SDMMC_CmdAppCommand)
    [Anonymous Symbol]                       0x08003924   Section        0  stm32l4xx_ll_sdmmc.o(.text.SDMMC_CmdAppOperCommand)
    [Anonymous Symbol]                       0x0800393e   Section        0  stm32l4xx_ll_sdmmc.o(.text.SDMMC_CmdBlockLength)
    [Anonymous Symbol]                       0x08003958   Section        0  stm32l4xx_ll_sdmmc.o(.text.SDMMC_CmdGoIdleState)
    [Anonymous Symbol]                       0x080039a0   Section        0  stm32l4xx_ll_sdmmc.o(.text.SDMMC_CmdOperCond)
    [Anonymous Symbol]                       0x080039b6   Section        0  stm32l4xx_ll_sdmmc.o(.text.SDMMC_CmdReadMultiBlock)
    [Anonymous Symbol]                       0x080039ce   Section        0  stm32l4xx_ll_sdmmc.o(.text.SDMMC_CmdReadSingleBlock)
    [Anonymous Symbol]                       0x080039e6   Section        0  stm32l4xx_ll_sdmmc.o(.text.SDMMC_CmdSelDesel)
    [Anonymous Symbol]                       0x080039fe   Section        0  stm32l4xx_ll_sdmmc.o(.text.SDMMC_CmdSendCID)
    [Anonymous Symbol]                       0x08003a12   Section        0  stm32l4xx_ll_sdmmc.o(.text.SDMMC_CmdSendCSD)
    [Anonymous Symbol]                       0x08003a24   Section        0  stm32l4xx_ll_sdmmc.o(.text.SDMMC_CmdSendStatus)
    [Anonymous Symbol]                       0x08003a3c   Section        0  stm32l4xx_ll_sdmmc.o(.text.SDMMC_CmdSetRelAdd)
    [Anonymous Symbol]                       0x08003a54   Section        0  stm32l4xx_ll_sdmmc.o(.text.SDMMC_CmdStopTransfer)
    [Anonymous Symbol]                       0x08003a72   Section        0  stm32l4xx_ll_sdmmc.o(.text.SDMMC_CmdWriteMultiBlock)
    [Anonymous Symbol]                       0x08003a8a   Section        0  stm32l4xx_ll_sdmmc.o(.text.SDMMC_CmdWriteSingleBlock)
    [Anonymous Symbol]                       0x08003aa2   Section        0  stm32l4xx_ll_sdmmc.o(.text.SDMMC_ConfigData)
    [Anonymous Symbol]                       0x08003ac8   Section        0  stm32l4xx_ll_sdmmc.o(.text.SDMMC_GetCmdResp1)
    [Anonymous Symbol]                       0x08003bf4   Section        0  stm32l4xx_ll_sdmmc.o(.text.SDMMC_GetCmdResp2)
    [Anonymous Symbol]                       0x08003c4c   Section        0  stm32l4xx_ll_sdmmc.o(.text.SDMMC_GetCmdResp3)
    [Anonymous Symbol]                       0x08003c98   Section        0  stm32l4xx_ll_sdmmc.o(.text.SDMMC_GetCmdResp6)
    [Anonymous Symbol]                       0x08003d30   Section        0  stm32l4xx_ll_sdmmc.o(.text.SDMMC_GetCmdResp7)
    [Anonymous Symbol]                       0x08003d8e   Section        0  stm32l4xx_ll_sdmmc.o(.text.SDMMC_GetPowerState)
    [Anonymous Symbol]                       0x08003d96   Section        0  stm32l4xx_ll_sdmmc.o(.text.SDMMC_GetResponse)
    [Anonymous Symbol]                       0x08003d9c   Section        0  stm32l4xx_ll_sdmmc.o(.text.SDMMC_Init)
    [Anonymous Symbol]                       0x08003dc8   Section        0  stm32l4xx_ll_sdmmc.o(.text.SDMMC_PowerState_ON)
    [Anonymous Symbol]                       0x08003dd8   Section        0  stm32l4xx_ll_sdmmc.o(.text.SDMMC_ReadFIFO)
    [Anonymous Symbol]                       0x08003dde   Section        0  stm32l4xx_ll_sdmmc.o(.text.SDMMC_WriteFIFO)
    [Anonymous Symbol]                       0x08003dea   Section        0  stm32l4xx_it.o(.text.SVC_Handler)
    [Anonymous Symbol]                       0x08003dec   Section        0  stm32l4xx_it.o(.text.SysTick_Handler)
    [Anonymous Symbol]                       0x08003dfc   Section        0  main.o(.text.SystemClock_Config)
    [Anonymous Symbol]                       0x08003e7e   Section        0  system_stm32l4xx.o(.text.SystemInit)
    [Anonymous Symbol]                       0x08003e90   Section        0  stm32l4xx_hal_uart.o(.text.UART_AdvFeatureConfig)
    [Anonymous Symbol]                       0x08003f5c   Section        0  stm32l4xx_hal_uart.o(.text.UART_CheckIdleState)
    UART_DMAAbortOnError                     0x08003fc5   Thumb Code    16  stm32l4xx_hal_uart.o(.text.UART_DMAAbortOnError)
    [Anonymous Symbol]                       0x08003fc4   Section        0  stm32l4xx_hal_uart.o(.text.UART_DMAAbortOnError)
    UART_EndRxTransfer                       0x08003fd5   Thumb Code    80  stm32l4xx_hal_uart.o(.text.UART_EndRxTransfer)
    [Anonymous Symbol]                       0x08003fd4   Section        0  stm32l4xx_hal_uart.o(.text.UART_EndRxTransfer)
    [Anonymous Symbol]                       0x08004024   Section        0  stm32l4xx_hal_uart.o(.text.UART_SetConfig)
    [Anonymous Symbol]                       0x08004224   Section        0  stm32l4xx_hal_uart.o(.text.UART_WaitOnFlagUntilTimeout)
    [Anonymous Symbol]                       0x080042fc   Section        0  stm32l4xx_it.o(.text.USART1_IRQHandler)
    [Anonymous Symbol]                       0x08004308   Section        0  stm32l4xx_it.o(.text.UsageFault_Handler)
    _bCoreMonitor                            0x0800430b   Thumb Code     2  b_core.o(.text._bCoreMonitor)
    [Anonymous Symbol]                       0x0800430a   Section        0  b_core.o(.text._bCoreMonitor)
    _bDriverNullInit                         0x0800430d   Thumb Code     4  b_device.o(.text._bDriverNullInit)
    [Anonymous Symbol]                       0x0800430c   Section        0  b_device.o(.text._bDriverNullInit)
    _bSD_Read                                0x08004311   Thumb Code   332  b_drv_sd.o(.text._bSD_Read)
    [Anonymous Symbol]                       0x08004310   Section        0  b_drv_sd.o(.text._bSD_Read)
    _bSD_SendCmd                             0x08004465   Thumb Code   192  b_drv_sd.o(.text._bSD_SendCmd)
    [Anonymous Symbol]                       0x08004464   Section        0  b_drv_sd.o(.text._bSD_SendCmd)
    _bSD_Write                               0x08004525   Thumb Code   360  b_drv_sd.o(.text._bSD_Write)
    [Anonymous Symbol]                       0x08004524   Section        0  b_drv_sd.o(.text._bSD_Write)
    _bTaskCore                               0x08004695   Thumb Code    60  b_task.o(.text._bTaskCore)
    [Anonymous Symbol]                       0x08004694   Section        0  b_task.o(.text._bTaskCore)
    _bTimerCore                              0x080046d1   Thumb Code    92  b_timer.o(.text._bTimerCore)
    [Anonymous Symbol]                       0x080046d0   Section        0  b_timer.o(.text._bTimerCore)
    _bUtilUartDetectIdle                     0x0800472d   Thumb Code   118  b_util_uart.o(.text._bUtilUartDetectIdle)
    [Anonymous Symbol]                       0x0800472c   Section        0  b_util_uart.o(.text._bUtilUartDetectIdle)
    [Anonymous Symbol]                       0x080047a2   Section        0  b_core.o(.text.bClose)
    [Anonymous Symbol]                       0x080047d8   Section        0  b_device.o(.text.bDeviceClose)
    [Anonymous Symbol]                       0x08004854   Section        0  b_device.o(.text.bDeviceInit)
    [Anonymous Symbol]                       0x080049f4   Section        0  b_device.o(.text.bDeviceOpen)
    [Anonymous Symbol]                       0x08004a6c   Section        0  b_device.o(.text.bDeviceRead)
    [Anonymous Symbol]                       0x08004ae8   Section        0  b_device.o(.text.bDeviceWrite)
    [Anonymous Symbol]                       0x08004b6c   Section        0  b_core.o(.text.bExec)
    [Anonymous Symbol]                       0x08004b9c   Section        0  b_mod_fs.o(.text.bFS_Init)
    [Anonymous Symbol]                       0x08004c7c   Section        0  b_mod_fs.o(.text.bFS_Test)
    [Anonymous Symbol]                       0x08004e30   Section        0  b_hal.o(.text.bHalDelayMs)
    [Anonymous Symbol]                       0x08004e46   Section        0  b_hal.o(.text.bHalGetSysTick)
    [Anonymous Symbol]                       0x08004e52   Section        0  b_hal.o(.text.bHalGetSysTickPlus)
    [Anonymous Symbol]                       0x08004e68   Section        0  b_hal_gpio.o(.text.bHalGpioReadPin)
    [Anonymous Symbol]                       0x08004e6c   Section        0  b_hal_gpio.o(.text.bHalGpioWritePin)
    [Anonymous Symbol]                       0x08004e70   Section        0  b_hal.o(.text.bHalIncSysTick)
    [Anonymous Symbol]                       0x08004e98   Section        0  b_hal.o(.text.bHalInit)
    [Anonymous Symbol]                       0x08004f20   Section        0  b_hal_sdio.o(.text.bHalSDIOReadBlocks)
    [Anonymous Symbol]                       0x08004f32   Section        0  b_hal_sdio.o(.text.bHalSDIOWriteBlocks)
    [Anonymous Symbol]                       0x08004f44   Section        0  b_hal_spi.o(.text.bHalSpiSend)
    [Anonymous Symbol]                       0x08004f80   Section        0  b_hal_spi.o(.text.bHalSpiSetSpeed)
    [Anonymous Symbol]                       0x08004f84   Section        0  b_hal_spi.o(.text.bHalSpiTransfer)
    [Anonymous Symbol]                       0x08005076   Section        0  b_hal_uart.o(.text.bHalUartSend)
    [Anonymous Symbol]                       0x0800507a   Section        0  b_hal.o(.text.bHalUserInit)
    [Anonymous Symbol]                       0x0800507c   Section        0  b_core.o(.text.bInit)
    [Anonymous Symbol]                       0x08005240   Section        0  b_util_log.o(.text.bLogOut)
    bLogParamTable                           0x08005334   Number         0  b_util_log.o(.text.bLogOut)
    bLogPrefix                               0x08005338   Number         0  b_util_log.o(.text.bLogOut)
    [Anonymous Symbol]                       0x08005340   Section        0  b_core.o(.text.bLseek)
    [Anonymous Symbol]                       0x08005364   Section        0  mcu_stm32l41x_gpio.o(.text.bMcuGpioReadPin)
    [Anonymous Symbol]                       0x0800538a   Section        0  mcu_stm32l41x_gpio.o(.text.bMcuGpioWritePin)
    [Anonymous Symbol]                       0x080053b4   Section        0  mcu_stm32l41x_sdio.o(.text.bMcuSDIOReadBlocks)
    [Anonymous Symbol]                       0x080053d8   Section        0  mcu_stm32l41x_sdio.o(.text.bMcuSDIOWriteBlocks)
    [Anonymous Symbol]                       0x08005428   Section        0  mcu_stm32l41x_spi.o(.text.bMcuSpiSend)
    [Anonymous Symbol]                       0x08005450   Section        0  mcu_stm32l41x_spi.o(.text.bMcuSpiSetSpeed)
    [Anonymous Symbol]                       0x0800549c   Section        0  mcu_stm32l41x_spi.o(.text.bMcuSpiTransfer)
    [Anonymous Symbol]                       0x080054e0   Section        0  mcu_stm32l41x_uart.o(.text.bMcuUartSend)
    [Anonymous Symbol]                       0x08005560   Section        0  b_core.o(.text.bOpen)
    [Anonymous Symbol]                       0x080055f2   Section        0  b_core.o(.text.bRead)
    [Anonymous Symbol]                       0x08005644   Section        0  b_drv_sd.o(.text.bSD_Init)
    [Anonymous Symbol]                       0x0800599c   Section        0  b_core.o(.text.bWrite)
    check_fs                                 0x080059ed   Thumb Code   136  ff.o(.text.check_fs)
    [Anonymous Symbol]                       0x080059ec   Section        0  ff.o(.text.check_fs)
    create_chain                             0x08005a75   Thumb Code   280  ff.o(.text.create_chain)
    [Anonymous Symbol]                       0x08005a74   Section        0  ff.o(.text.create_chain)
    dir_clear                                0x08005b8d   Thumb Code   106  ff.o(.text.dir_clear)
    [Anonymous Symbol]                       0x08005b8c   Section        0  ff.o(.text.dir_clear)
    dir_next                                 0x08005bf7   Thumb Code   236  ff.o(.text.dir_next)
    [Anonymous Symbol]                       0x08005bf6   Section        0  ff.o(.text.dir_next)
    dir_register                             0x08005ce5   Thumb Code   102  ff.o(.text.dir_register)
    [Anonymous Symbol]                       0x08005ce4   Section        0  ff.o(.text.dir_register)
    dir_sdi                                  0x08005d4d   Thumb Code   116  ff.o(.text.dir_sdi)
    [Anonymous Symbol]                       0x08005d4c   Section        0  ff.o(.text.dir_sdi)
    [Anonymous Symbol]                       0x08005dc0   Section        0  diskio.o(.text.disk_initialize)
    [Anonymous Symbol]                       0x08005dc4   Section        0  diskio.o(.text.disk_ioctl)
    [Anonymous Symbol]                       0x08005dee   Section        0  diskio.o(.text.disk_read)
    [Anonymous Symbol]                       0x08005e32   Section        0  diskio.o(.text.disk_status)
    [Anonymous Symbol]                       0x08005e3e   Section        0  diskio.o(.text.disk_write)
    [Anonymous Symbol]                       0x08005e82   Section        0  ff.o(.text.f_close)
    [Anonymous Symbol]                       0x08005ea0   Section        0  ff.o(.text.f_getfree)
    [Anonymous Symbol]                       0x08005f84   Section        0  ff.o(.text.f_lseek)
    [Anonymous Symbol]                       0x08006106   Section        0  ff.o(.text.f_mount)
    [Anonymous Symbol]                       0x08006154   Section        0  ff.o(.text.f_open)
    [Anonymous Symbol]                       0x0800637c   Section        0  ff.o(.text.f_read)
    [Anonymous Symbol]                       0x08006516   Section        0  ff.o(.text.f_sync)
    [Anonymous Symbol]                       0x080065a8   Section        0  ff.o(.text.f_write)
    follow_path                              0x0800676d   Thumb Code   484  ff.o(.text.follow_path)
    [Anonymous Symbol]                       0x0800676c   Section        0  ff.o(.text.follow_path)
    get_fat                                  0x08006961   Thumb Code   244  ff.o(.text.get_fat)
    [Anonymous Symbol]                       0x08006960   Section        0  ff.o(.text.get_fat)
    get_ldnumber                             0x08006a55   Thumb Code    90  ff.o(.text.get_ldnumber)
    [Anonymous Symbol]                       0x08006a54   Section        0  ff.o(.text.get_ldnumber)
    [Anonymous Symbol]                       0x08006ab0   Section        0  main.o(.text.main)
    mount_volume                             0x08006c09   Thumb Code   648  ff.o(.text.mount_volume)
    [Anonymous Symbol]                       0x08006c08   Section        0  ff.o(.text.mount_volume)
    move_window                              0x08006e91   Thumb Code    54  ff.o(.text.move_window)
    [Anonymous Symbol]                       0x08006e90   Section        0  ff.o(.text.move_window)
    put_fat                                  0x08006ec7   Thumb Code   292  ff.o(.text.put_fat)
    [Anonymous Symbol]                       0x08006ec6   Section        0  ff.o(.text.put_fat)
    remove_chain                             0x08006fed   Thumb Code   118  ff.o(.text.remove_chain)
    [Anonymous Symbol]                       0x08006fec   Section        0  ff.o(.text.remove_chain)
    sync_fs                                  0x08007063   Thumb Code   128  ff.o(.text.sync_fs)
    [Anonymous Symbol]                       0x08007062   Section        0  ff.o(.text.sync_fs)
    sync_window                              0x080070e3   Thumb Code    68  ff.o(.text.sync_window)
    [Anonymous Symbol]                       0x080070e2   Section        0  ff.o(.text.sync_window)
    validate                                 0x08007127   Thumb Code    48  ff.o(.text.validate)
    [Anonymous Symbol]                       0x08007126   Section        0  ff.o(.text.validate)
    CL$$btod_d2e                             0x08007156   Section       62  btod.o(CL$$btod_d2e)
    CL$$btod_d2e_denorm_low                  0x08007194   Section       70  btod.o(CL$$btod_d2e_denorm_low)
    CL$$btod_d2e_norm_op1                    0x080071da   Section       96  btod.o(CL$$btod_d2e_norm_op1)
    CL$$btod_div_common                      0x0800723a   Section      824  btod.o(CL$$btod_div_common)
    CL$$btod_e2e                             0x08007572   Section      220  btod.o(CL$$btod_e2e)
    CL$$btod_ediv                            0x0800764e   Section       42  btod.o(CL$$btod_ediv)
    CL$$btod_emul                            0x08007678   Section       42  btod.o(CL$$btod_emul)
    CL$$btod_mult_common                     0x080076a2   Section      580  btod.o(CL$$btod_mult_common)
    i.__ARM_fpclassify                       0x080078e6   Section        0  fpclassify.o(i.__ARM_fpclassify)
    i._is_digit                              0x08007916   Section        0  __printf_wp.o(i._is_digit)
    locale$$code                             0x08007924   Section       44  lc_numeric_c.o(locale$$code)
    locale$$code                             0x08007950   Section       44  lc_ctype_c.o(locale$$code)
    $v0                                      0x0800797c   Number         0  ddiv.o(x$fpl$ddiv)
    x$fpl$ddiv                               0x0800797c   Section      688  ddiv.o(x$fpl$ddiv)
    ddiv_entry                               0x08007983   Thumb Code     0  ddiv.o(x$fpl$ddiv)
    $v0                                      0x08007c2c   Number         0  dfixu.o(x$fpl$dfixu)
    x$fpl$dfixu                              0x08007c2c   Section       90  dfixu.o(x$fpl$dfixu)
    $v0                                      0x08007c86   Number         0  dflt_clz.o(x$fpl$dfltu)
    x$fpl$dfltu                              0x08007c86   Section       38  dflt_clz.o(x$fpl$dfltu)
    $v0                                      0x08007cac   Number         0  dmul.o(x$fpl$dmul)
    x$fpl$dmul                               0x08007cac   Section      340  dmul.o(x$fpl$dmul)
    $v0                                      0x08007e00   Number         0  dnaninf.o(x$fpl$dnaninf)
    x$fpl$dnaninf                            0x08007e00   Section      156  dnaninf.o(x$fpl$dnaninf)
    $v0                                      0x08007e9c   Number         0  dretinf.o(x$fpl$dretinf)
    x$fpl$dretinf                            0x08007e9c   Section       12  dretinf.o(x$fpl$dretinf)
    $v0                                      0x08007ea8   Number         0  fpinit.o(x$fpl$fpinit)
    x$fpl$fpinit                             0x08007ea8   Section       26  fpinit.o(x$fpl$fpinit)
    $v0                                      0x08007ec2   Number         0  printf1.o(x$fpl$printf1)
    x$fpl$printf1                            0x08007ec2   Section        4  printf1.o(x$fpl$printf1)
    $v0                                      0x08007ec6   Number         0  printf2.o(x$fpl$printf2)
    x$fpl$printf2                            0x08007ec6   Section        4  printf2.o(x$fpl$printf2)
    maptable                                 0x08007eca   Data          17  __printf_flags_ss_wp.o(.constdata)
    .constdata                               0x08007eca   Section       17  __printf_flags_ss_wp.o(.constdata)
    x$fpl$usenofp                            0x08007eca   Section        0  usenofp.o(x$fpl$usenofp)
    initial_mbstate                          0x08007edc   Data           8  _printf_wctomb.o(.constdata)
    .constdata                               0x08007edc   Section        8  _printf_wctomb.o(.constdata)
    uc_hextab                                0x08007ee4   Data          20  _printf_hex_int_ll_ptr.o(.constdata)
    .constdata                               0x08007ee4   Section       40  _printf_hex_int_ll_ptr.o(.constdata)
    lc_hextab                                0x08007ef8   Data          20  _printf_hex_int_ll_ptr.o(.constdata)
    lc_hextab                                0x08007f0c   Data          19  _printf_fp_hex.o(.constdata)
    .constdata                               0x08007f0c   Section       38  _printf_fp_hex.o(.constdata)
    uc_hextab                                0x08007f1f   Data          19  _printf_fp_hex.o(.constdata)
    tenpwrs_x                                0x08007f34   Data          60  bigflt0.o(.constdata)
    .constdata                               0x08007f34   Section      148  bigflt0.o(.constdata)
    tenpwrs_i                                0x08007f70   Data          64  bigflt0.o(.constdata)
    ExCvt                                    0x08007fe0   Data         128  ff.o(.rodata.ExCvt)
    [Anonymous Symbol]                       0x08007fe0   Section        0  ff.o(.rodata.ExCvt)
    SpiTable                                 0x08008090   Data          12  mcu_stm32l41x_spi.o(.rodata.SpiTable)
    [Anonymous Symbol]                       0x08008090   Section        0  mcu_stm32l41x_spi.o(.rodata.SpiTable)
    bDeviceDescTable                         0x0800809c   Data           8  b_device.o(.rodata.bDeviceDescTable)
    [Anonymous Symbol]                       0x0800809c   Section        0  b_device.o(.rodata.bDeviceDescTable)
    bDriverNumberTable                       0x080080a4   Data           2  b_device.o(.rodata.bDriverNumberTable)
    [Anonymous Symbol]                       0x080080a4   Section        0  b_device.o(.rodata.bDriverNumberTable)
    bHalIf_SD                                0x080080a6   Data          12  b_drv_sd.o(.rodata.bHalIf_SD)
    [Anonymous Symbol]                       0x080080a6   Section        0  b_drv_sd.o(.rodata.bHalIf_SD)
    .Lswitch.table.UART_SetConfig.3          0x080080b4   Data          16  stm32l4xx_hal_uart.o(.rodata.cst16)
    UartTable                                0x080080c4   Data          16  mcu_stm32l41x_uart.o(.rodata.cst16)
    .L.str.7                                 0x080080d4   Data          49  b_core.o(.rodata.str1.1)
    [Anonymous Symbol]                       0x080080d4   Section        0  b_core.o(.rodata.str1.1)
    .L.str.5                                 0x08008105   Data          49  b_core.o(.rodata.str1.1)
    .L.str.2                                 0x08008136   Data          49  b_core.o(.rodata.str1.1)
    .L.str.4                                 0x08008167   Data          49  b_core.o(.rodata.str1.1)
    .L.str.3                                 0x08008198   Data          49  b_core.o(.rodata.str1.1)
    .L.str.6                                 0x080081c9   Data          49  b_core.o(.rodata.str1.1)
    .L.str.1                                 0x080081fa   Data          49  b_core.o(.rodata.str1.1)
    .L.str                                   0x0800822b   Data          34  b_core.o(.rodata.str1.1)
    .L__func__.bInit                         0x0800824d   Data           6  b_core.o(.rodata.str1.1)
    .L.str.3                                 0x08008253   Data          14  b_device.o(.rodata.str1.1)
    [Anonymous Symbol]                       0x08008253   Section        0  b_device.o(.rodata.str1.1)
    .L.str.6                                 0x08008261   Data           9  b_device.o(.rodata.str1.1)
    .L.str                                   0x0800826a   Data          36  b_device.o(.rodata.str1.1)
    .L.str.9                                 0x0800828e   Data           8  b_device.o(.rodata.str1.1)
    .L.str.8                                 0x08008296   Data           5  b_device.o(.rodata.str1.1)
    .L__func__.bDeviceInit                   0x0800829b   Data          12  b_device.o(.rodata.str1.1)
    .L.str                                   0x080082a7   Data          39  b_drv_sd.o(.rodata.str1.1)
    [Anonymous Symbol]                       0x080082a7   Section        0  b_drv_sd.o(.rodata.str1.1)
    .L__func__._bSD_Init                     0x080082ce   Data          10  b_drv_sd.o(.rodata.str1.1)
    .L.str.1                                 0x080082d8   Data          39  b_mod_fs.o(.rodata.str1.1)
    [Anonymous Symbol]                       0x080082d8   Section        0  b_mod_fs.o(.rodata.str1.1)
    .L__func__.bFS_Init                      0x080082ff   Data           9  b_mod_fs.o(.rodata.str1.1)
    .L__func__.bFS_Test                      0x08008308   Data           9  b_mod_fs.o(.rodata.str1.1)
    .L.str                                   0x08008311   Data          12  ff.o(.rodata.str1.1)
    .L.str.4                                 0x08008311   Data           6  ff.o(.rodata.str1.1)
    [Anonymous Symbol]                       0x08008311   Section        0  ff.o(.rodata.str1.1)
    .L.str.3                                 0x08008317   Data           4  ff.o(.rodata.str1.1)
    .L.str.5                                 0x0800831b   Data          15  ff.o(.rodata.str1.1)
    .L.str.1                                 0x0800831d   Data          20  ff.o(.rodata.str1.1)
    .L.str.2                                 0x08008331   Data          20  ff.o(.rodata.str1.1)
    __tagsym$$used.0                         0x0800834c   Number         0  b_core.o(bos_polling)
    __tagsym$$used.0                         0x08008350   Number         0  b_task.o(bos_polling)
    __tagsym$$used.0                         0x08008354   Number         0  b_timer.o(bos_polling)
    __tagsym$$used.0                         0x08008358   Number         0  b_util_uart.o(bos_polling)
    __tagsym$$used.1                         0x0800835c   Number         0  b_device.o(driver_init)
    __tagsym$$used.0                         0x08008364   Number         0  b_drv_sd.o(driver_init)
    __tagsym$$used.0                         0x0800836c   Number         0  b_device.o(driver_init_0)
    locale$$data                             0x08008374   Section       28  lc_numeric_c.o(locale$$data)
    __lcnum_c_name                           0x08008378   Data           2  lc_numeric_c.o(locale$$data)
    __lcnum_c_start                          0x08008380   Data           0  lc_numeric_c.o(locale$$data)
    __lcnum_c_point                          0x0800838c   Data           0  lc_numeric_c.o(locale$$data)
    __lcnum_c_thousands                      0x0800838e   Data           0  lc_numeric_c.o(locale$$data)
    __lcnum_c_grouping                       0x0800838f   Data           0  lc_numeric_c.o(locale$$data)
    __lcnum_c_end                            0x08008390   Data           0  lc_numeric_c.o(locale$$data)
    locale$$data                             0x08008390   Section      272  lc_ctype_c.o(locale$$data)
    __lcctype_c_name                         0x08008394   Data           2  lc_ctype_c.o(locale$$data)
    __lcctype_c_start                        0x0800839c   Data           0  lc_ctype_c.o(locale$$data)
    __lcctype_c_end                          0x080084a0   Data           0  lc_ctype_c.o(locale$$data)
    bTaskListHead                            0x20000004   Data           8  b_task.o(.data.bTaskListHead)
    [Anonymous Symbol]                       0x20000004   Section        0  b_task.o(.data.bTaskListHead)
    bTimerListHead                           0x2000000c   Data           8  b_timer.o(.data.bTimerListHead)
    [Anonymous Symbol]                       0x2000000c   Section        0  b_timer.o(.data.bTimerListHead)
    bUsDelayParam                            0x20000014   Data           4  b_hal.o(.data.bUsDelayParam)
    [Anonymous Symbol]                       0x20000014   Section        0  b_hal.o(.data.bUsDelayParam)
    .bss                                     0x20000020   Section       96  libspace.o(.bss)
    FatFs                                    0x20000080   Data           8  ff.o(.bss.FatFs)
    [Anonymous Symbol]                       0x20000080   Section        0  ff.o(.bss.FatFs)
    Fsid                                     0x20000088   Data           2  ff.o(.bss.Fsid)
    [Anonymous Symbol]                       0x20000088   Section        0  ff.o(.bss.Fsid)
    _bCoreCreateFd.init                      0x2000008a   Data           1  b_core.o(.bss._bCoreCreateFd.init)
    [Anonymous Symbol]                       0x2000008a   Section        0  b_core.o(.bss._bCoreCreateFd.init)
    bCoreFdTable                             0x2000008c   Data          24  b_core.o(.bss.bCoreFdTable)
    [Anonymous Symbol]                       0x2000008c   Section        0  b_core.o(.bss.bCoreFdTable)
    bDriverInterfaceTable                    0x200000a4   Data         136  b_device.o(.bss.bDriverInterfaceTable)
    [Anonymous Symbol]                       0x200000a4   Section        0  b_device.o(.bss.bDriverInterfaceTable)
    bFATFS_Table                             0x2000012c   Data        4148  b_mod_fs.o(.bss.bFATFS_Table)
    [Anonymous Symbol]                       0x2000012c   Section        0  b_mod_fs.o(.bss.bFATFS_Table)
    bLogBuff                                 0x20001160   Data         256  b_util_log.o(.bss.bLogBuff)
    [Anonymous Symbol]                       0x20001160   Section        0  b_util_log.o(.bss.bLogBuff)
    bSysTick                                 0x20001260   Data           4  b_hal.o(.bss.bSysTick)
    [Anonymous Symbol]                       0x20001260   Section        0  b_hal.o(.bss.bSysTick)
    bSysTickOvr                              0x20001264   Data           4  b_hal.o(.bss.bSysTickOvr)
    [Anonymous Symbol]                       0x20001264   Section        0  b_hal.o(.bss.bSysTickOvr)
    bUitlUartHead                            0x20001268   Data          36  b_util_uart.o(.bss.bUitlUartHead)
    [Anonymous Symbol]                       0x20001268   Section        0  b_util_uart.o(.bss.bUitlUartHead)
    pCurrentTaskAttr                         0x20002440   Data           4  b_task.o(.bss.pCurrentTaskAttr)
    [Anonymous Symbol]                       0x20002440   Section        0  b_task.o(.bss.pCurrentTaskAttr)
    Heap_Mem                                 0x20002448   Data         512  startup_stm32l431xx.o(HEAP)
    HEAP                                     0x20002448   Section      512  startup_stm32l431xx.o(HEAP)
    Stack_Mem                                0x20002648   Data        1024  startup_stm32l431xx.o(STACK)
    STACK                                    0x20002648   Section     1024  startup_stm32l431xx.o(STACK)
    __initial_sp                             0x20002a48   Data           0  startup_stm32l431xx.o(STACK)

    Global Symbols

    Symbol Name                              Value     Ov Type        Size  Object(Section)

    BuildAttributes$$THM_ISAv4$E$P$D$K$B$S$7EM$VFPi3$EXTD16$VFPS$VFMA$PE$A:L22UL41UL21$X:L11$S22US41US21$IEEE1$IW$~IW$USESV6$~STKCKD$USESV7$~SHL$OTIME$ROPI$IEEEJ$EBA8$UX$STANDARDLIB$REQ8$PRES8$EABIv2 0x00000000   Number         0  anon$$obj.o ABSOLUTE
    _printf_flags                            0x00000000   Number         0  printf_stubs.o ABSOLUTE
    _printf_return_value                     0x00000000   Number         0  printf_stubs.o ABSOLUTE
    _printf_sizespec                         0x00000000   Number         0  printf_stubs.o ABSOLUTE
    _printf_widthprec                        0x00000000   Number         0  printf_stubs.o ABSOLUTE
    __ARM_exceptions_init                     - Undefined Weak Reference
    __alloca_initialize                       - Undefined Weak Reference
    __arm_preinit_                            - Undefined Weak Reference
    __cpp_initialize__aeabi_                  - Undefined Weak Reference
    __cxa_finalize                            - Undefined Weak Reference
    __sigvec_lookup                           - Undefined Weak Reference
    _atexit_init                              - Undefined Weak Reference
    _call_atexit_fns                          - Undefined Weak Reference
    _clock_init                               - Undefined Weak Reference
    _fp_trap_init                             - Undefined Weak Reference
    _fp_trap_shutdown                         - Undefined Weak Reference
    _get_lc_collate                           - Undefined Weak Reference
    _get_lc_monetary                          - Undefined Weak Reference
    _get_lc_time                              - Undefined Weak Reference
    _getenv_init                              - Undefined Weak Reference
    _handle_redirection                       - Undefined Weak Reference
    _init_alloc                               - Undefined Weak Reference
    _init_user_alloc                          - Undefined Weak Reference
    _initio                                   - Undefined Weak Reference
    _printf_mbtowc                            - Undefined Weak Reference
    _printf_wc                                - Undefined Weak Reference
    _rand_init                                - Undefined Weak Reference
    _signal_finish                            - Undefined Weak Reference
    _signal_init                              - Undefined Weak Reference
    _terminate_alloc                          - Undefined Weak Reference
    _terminate_user_alloc                     - Undefined Weak Reference
    _terminateio                              - Undefined Weak Reference
    __Vectors_Size                           0x0000018c   Number         0  startup_stm32l431xx.o ABSOLUTE
    __Vectors                                0x08000000   Data           4  startup_stm32l431xx.o(RESET)
    __Vectors_End                            0x0800018c   Data           0  startup_stm32l431xx.o(RESET)
    __main                                   0x0800018d   Thumb Code     8  __main.o(!!!main)
    __scatterload                            0x08000195   Thumb Code     0  __scatter.o(!!!scatter)
    __scatterload_rt2                        0x08000195   Thumb Code    44  __scatter.o(!!!scatter)
    __scatterload_rt2_thumb_only             0x08000195   Thumb Code     0  __scatter.o(!!!scatter)
    __scatterload_null                       0x080001a3   Thumb Code     0  __scatter.o(!!!scatter)
    __scatterload_copy                       0x080001c9   Thumb Code    26  __scatter_copy.o(!!handler_copy)
    __scatterload_zeroinit                   0x080001e5   Thumb Code    28  __scatter_zi.o(!!handler_zi)
    _printf_n                                0x08000201   Thumb Code     0  _printf_n.o(.ARM.Collect$$_printf_percent$$00000001)
    _printf_percent                          0x08000201   Thumb Code     0  _printf_percent.o(.ARM.Collect$$_printf_percent$$00000000)
    _printf_p                                0x08000207   Thumb Code     0  _printf_p.o(.ARM.Collect$$_printf_percent$$00000002)
    _printf_f                                0x0800020d   Thumb Code     0  _printf_f.o(.ARM.Collect$$_printf_percent$$00000003)
    _printf_e                                0x08000213   Thumb Code     0  _printf_e.o(.ARM.Collect$$_printf_percent$$00000004)
    _printf_g                                0x08000219   Thumb Code     0  _printf_g.o(.ARM.Collect$$_printf_percent$$00000005)
    _printf_a                                0x0800021f   Thumb Code     0  _printf_a.o(.ARM.Collect$$_printf_percent$$00000006)
    _printf_ll                               0x08000225   Thumb Code     0  _printf_ll.o(.ARM.Collect$$_printf_percent$$00000007)
    _printf_i                                0x0800022f   Thumb Code     0  _printf_i.o(.ARM.Collect$$_printf_percent$$00000008)
    _printf_d                                0x08000235   Thumb Code     0  _printf_d.o(.ARM.Collect$$_printf_percent$$00000009)
    _printf_u                                0x0800023b   Thumb Code     0  _printf_u.o(.ARM.Collect$$_printf_percent$$0000000A)
    _printf_o                                0x08000241   Thumb Code     0  _printf_o.o(.ARM.Collect$$_printf_percent$$0000000B)
    _printf_x                                0x08000247   Thumb Code     0  _printf_x.o(.ARM.Collect$$_printf_percent$$0000000C)
    _printf_lli                              0x0800024d   Thumb Code     0  _printf_lli.o(.ARM.Collect$$_printf_percent$$0000000D)
    _printf_lld                              0x08000253   Thumb Code     0  _printf_lld.o(.ARM.Collect$$_printf_percent$$0000000E)
    _printf_llu                              0x08000259   Thumb Code     0  _printf_llu.o(.ARM.Collect$$_printf_percent$$0000000F)
    _printf_llo                              0x0800025f   Thumb Code     0  _printf_llo.o(.ARM.Collect$$_printf_percent$$00000010)
    _printf_llx                              0x08000265   Thumb Code     0  _printf_llx.o(.ARM.Collect$$_printf_percent$$00000011)
    _printf_l                                0x0800026b   Thumb Code     0  _printf_l.o(.ARM.Collect$$_printf_percent$$00000012)
    _printf_c                                0x08000275   Thumb Code     0  _printf_c.o(.ARM.Collect$$_printf_percent$$00000013)
    _printf_s                                0x0800027b   Thumb Code     0  _printf_s.o(.ARM.Collect$$_printf_percent$$00000014)
    _printf_lc                               0x08000281   Thumb Code     0  _printf_lc.o(.ARM.Collect$$_printf_percent$$00000015)
    _printf_ls                               0x08000287   Thumb Code     0  _printf_ls.o(.ARM.Collect$$_printf_percent$$00000016)
    _printf_percent_end                      0x0800028d   Thumb Code     0  _printf_percent_end.o(.ARM.Collect$$_printf_percent$$00000017)
    __rt_lib_init                            0x08000291   Thumb Code     0  libinit.o(.ARM.Collect$$libinit$$00000000)
    __rt_lib_init_fp_1                       0x08000293   Thumb Code     0  libinit2.o(.ARM.Collect$$libinit$$00000001)
    __rt_lib_init_heap_1                     0x08000297   Thumb Code     0  libinit2.o(.ARM.Collect$$libinit$$0000000A)
    __rt_lib_init_lc_common                  0x08000297   Thumb Code     0  libinit2.o(.ARM.Collect$$libinit$$0000000F)
    __rt_lib_init_preinit_1                  0x08000297   Thumb Code     0  libinit2.o(.ARM.Collect$$libinit$$00000004)
    __rt_lib_init_rand_1                     0x08000297   Thumb Code     0  libinit2.o(.ARM.Collect$$libinit$$0000000E)
    __rt_lib_init_user_alloc_1               0x08000297   Thumb Code     0  libinit2.o(.ARM.Collect$$libinit$$0000000C)
    __rt_lib_init_lc_collate_1               0x0800029d   Thumb Code     0  libinit2.o(.ARM.Collect$$libinit$$00000011)
    __rt_lib_init_lc_ctype_2                 0x0800029d   Thumb Code     0  libinit2.o(.ARM.Collect$$libinit$$00000012)
    __rt_lib_init_lc_ctype_1                 0x080002a9   Thumb Code     0  libinit2.o(.ARM.Collect$$libinit$$00000013)
    __rt_lib_init_lc_monetary_1              0x080002a9   Thumb Code     0  libinit2.o(.ARM.Collect$$libinit$$00000015)
    __rt_lib_init_lc_numeric_2               0x080002a9   Thumb Code     0  libinit2.o(.ARM.Collect$$libinit$$00000016)
    __rt_lib_init_alloca_1                   0x080002b3   Thumb Code     0  libinit2.o(.ARM.Collect$$libinit$$0000002E)
    __rt_lib_init_argv_1                     0x080002b3   Thumb Code     0  libinit2.o(.ARM.Collect$$libinit$$0000002C)
    __rt_lib_init_atexit_1                   0x080002b3   Thumb Code     0  libinit2.o(.ARM.Collect$$libinit$$0000001B)
    __rt_lib_init_clock_1                    0x080002b3   Thumb Code     0  libinit2.o(.ARM.Collect$$libinit$$00000021)
    __rt_lib_init_cpp_1                      0x080002b3   Thumb Code     0  libinit2.o(.ARM.Collect$$libinit$$00000032)
    __rt_lib_init_exceptions_1               0x080002b3   Thumb Code     0  libinit2.o(.ARM.Collect$$libinit$$00000030)
    __rt_lib_init_fp_trap_1                  0x080002b3   Thumb Code     0  libinit2.o(.ARM.Collect$$libinit$$0000001F)
    __rt_lib_init_getenv_1                   0x080002b3   Thumb Code     0  libinit2.o(.ARM.Collect$$libinit$$00000023)
    __rt_lib_init_lc_numeric_1               0x080002b3   Thumb Code     0  libinit2.o(.ARM.Collect$$libinit$$00000017)
    __rt_lib_init_lc_time_1                  0x080002b3   Thumb Code     0  libinit2.o(.ARM.Collect$$libinit$$00000019)
    __rt_lib_init_return                     0x080002b3   Thumb Code     0  libinit2.o(.ARM.Collect$$libinit$$00000033)
    __rt_lib_init_signal_1                   0x080002b3   Thumb Code     0  libinit2.o(.ARM.Collect$$libinit$$0000001D)
    __rt_lib_init_stdio_1                    0x080002b3   Thumb Code     0  libinit2.o(.ARM.Collect$$libinit$$00000025)
    __rt_lib_shutdown                        0x080002b5   Thumb Code     0  libshutdown.o(.ARM.Collect$$libshutdown$$00000000)
    __rt_lib_shutdown_cpp_1                  0x080002b7   Thumb Code     0  libshutdown2.o(.ARM.Collect$$libshutdown$$00000002)
    __rt_lib_shutdown_fp_trap_1              0x080002b7   Thumb Code     0  libshutdown2.o(.ARM.Collect$$libshutdown$$00000007)
    __rt_lib_shutdown_heap_1                 0x080002b7   Thumb Code     0  libshutdown2.o(.ARM.Collect$$libshutdown$$0000000F)
    __rt_lib_shutdown_return                 0x080002b7   Thumb Code     0  libshutdown2.o(.ARM.Collect$$libshutdown$$00000010)
    __rt_lib_shutdown_signal_1               0x080002b7   Thumb Code     0  libshutdown2.o(.ARM.Collect$$libshutdown$$0000000A)
    __rt_lib_shutdown_stdio_1                0x080002b7   Thumb Code     0  libshutdown2.o(.ARM.Collect$$libshutdown$$00000004)
    __rt_lib_shutdown_user_alloc_1           0x080002b7   Thumb Code     0  libshutdown2.o(.ARM.Collect$$libshutdown$$0000000C)
    __rt_entry                               0x080002b9   Thumb Code     0  __rtentry.o(.ARM.Collect$$rtentry$$00000000)
    __rt_entry_presh_1                       0x080002b9   Thumb Code     0  __rtentry2.o(.ARM.Collect$$rtentry$$00000002)
    __rt_entry_sh                            0x080002b9   Thumb Code     0  __rtentry4.o(.ARM.Collect$$rtentry$$00000004)
    __rt_entry_li                            0x080002bf   Thumb Code     0  __rtentry2.o(.ARM.Collect$$rtentry$$0000000A)
    __rt_entry_postsh_1                      0x080002bf   Thumb Code     0  __rtentry2.o(.ARM.Collect$$rtentry$$00000009)
    __rt_entry_main                          0x080002c3   Thumb Code     0  __rtentry2.o(.ARM.Collect$$rtentry$$0000000D)
    __rt_entry_postli_1                      0x080002c3   Thumb Code     0  __rtentry2.o(.ARM.Collect$$rtentry$$0000000C)
    __rt_exit                                0x080002cb   Thumb Code     0  rtexit.o(.ARM.Collect$$rtexit$$00000000)
    __rt_exit_ls                             0x080002cd   Thumb Code     0  rtexit2.o(.ARM.Collect$$rtexit$$00000003)
    __rt_exit_prels_1                        0x080002cd   Thumb Code     0  rtexit2.o(.ARM.Collect$$rtexit$$00000002)
    __rt_exit_exit                           0x080002d1   Thumb Code     0  rtexit2.o(.ARM.Collect$$rtexit$$00000004)
    Reset_Handler                            0x080002d9   Thumb Code     8  startup_stm32l431xx.o(.text)
    ADC1_IRQHandler                          0x080002f3   Thumb Code     0  startup_stm32l431xx.o(.text)
    CAN1_RX0_IRQHandler                      0x080002f3   Thumb Code     0  startup_stm32l431xx.o(.text)
    CAN1_RX1_IRQHandler                      0x080002f3   Thumb Code     0  startup_stm32l431xx.o(.text)
    CAN1_SCE_IRQHandler                      0x080002f3   Thumb Code     0  startup_stm32l431xx.o(.text)
    CAN1_TX_IRQHandler                       0x080002f3   Thumb Code     0  startup_stm32l431xx.o(.text)
    COMP_IRQHandler                          0x080002f3   Thumb Code     0  startup_stm32l431xx.o(.text)
    CRS_IRQHandler                           0x080002f3   Thumb Code     0  startup_stm32l431xx.o(.text)
    DMA1_Channel1_IRQHandler                 0x080002f3   Thumb Code     0  startup_stm32l431xx.o(.text)
    DMA1_Channel2_IRQHandler                 0x080002f3   Thumb Code     0  startup_stm32l431xx.o(.text)
    DMA1_Channel3_IRQHandler                 0x080002f3   Thumb Code     0  startup_stm32l431xx.o(.text)
    DMA1_Channel4_IRQHandler                 0x080002f3   Thumb Code     0  startup_stm32l431xx.o(.text)
    DMA1_Channel5_IRQHandler                 0x080002f3   Thumb Code     0  startup_stm32l431xx.o(.text)
    DMA1_Channel6_IRQHandler                 0x080002f3   Thumb Code     0  startup_stm32l431xx.o(.text)
    DMA1_Channel7_IRQHandler                 0x080002f3   Thumb Code     0  startup_stm32l431xx.o(.text)
    DMA2_Channel1_IRQHandler                 0x080002f3   Thumb Code     0  startup_stm32l431xx.o(.text)
    DMA2_Channel2_IRQHandler                 0x080002f3   Thumb Code     0  startup_stm32l431xx.o(.text)
    DMA2_Channel3_IRQHandler                 0x080002f3   Thumb Code     0  startup_stm32l431xx.o(.text)
    DMA2_Channel4_IRQHandler                 0x080002f3   Thumb Code     0  startup_stm32l431xx.o(.text)
    DMA2_Channel5_IRQHandler                 0x080002f3   Thumb Code     0  startup_stm32l431xx.o(.text)
    DMA2_Channel6_IRQHandler                 0x080002f3   Thumb Code     0  startup_stm32l431xx.o(.text)
    DMA2_Channel7_IRQHandler                 0x080002f3   Thumb Code     0  startup_stm32l431xx.o(.text)
    EXTI0_IRQHandler                         0x080002f3   Thumb Code     0  startup_stm32l431xx.o(.text)
    EXTI15_10_IRQHandler                     0x080002f3   Thumb Code     0  startup_stm32l431xx.o(.text)
    EXTI1_IRQHandler                         0x080002f3   Thumb Code     0  startup_stm32l431xx.o(.text)
    EXTI2_IRQHandler                         0x080002f3   Thumb Code     0  startup_stm32l431xx.o(.text)
    EXTI3_IRQHandler                         0x080002f3   Thumb Code     0  startup_stm32l431xx.o(.text)
    EXTI4_IRQHandler                         0x080002f3   Thumb Code     0  startup_stm32l431xx.o(.text)
    EXTI9_5_IRQHandler                       0x080002f3   Thumb Code     0  startup_stm32l431xx.o(.text)
    FLASH_IRQHandler                         0x080002f3   Thumb Code     0  startup_stm32l431xx.o(.text)
    FPU_IRQHandler                           0x080002f3   Thumb Code     0  startup_stm32l431xx.o(.text)
    I2C1_ER_IRQHandler                       0x080002f3   Thumb Code     0  startup_stm32l431xx.o(.text)
    I2C1_EV_IRQHandler                       0x080002f3   Thumb Code     0  startup_stm32l431xx.o(.text)
    I2C2_ER_IRQHandler                       0x080002f3   Thumb Code     0  startup_stm32l431xx.o(.text)
    I2C2_EV_IRQHandler                       0x080002f3   Thumb Code     0  startup_stm32l431xx.o(.text)
    I2C3_ER_IRQHandler                       0x080002f3   Thumb Code     0  startup_stm32l431xx.o(.text)
    I2C3_EV_IRQHandler                       0x080002f3   Thumb Code     0  startup_stm32l431xx.o(.text)
    LPTIM1_IRQHandler                        0x080002f3   Thumb Code     0  startup_stm32l431xx.o(.text)
    LPTIM2_IRQHandler                        0x080002f3   Thumb Code     0  startup_stm32l431xx.o(.text)
    PVD_PVM_IRQHandler                       0x080002f3   Thumb Code     0  startup_stm32l431xx.o(.text)
    QUADSPI_IRQHandler                       0x080002f3   Thumb Code     0  startup_stm32l431xx.o(.text)
    RCC_IRQHandler                           0x080002f3   Thumb Code     0  startup_stm32l431xx.o(.text)
    RNG_IRQHandler                           0x080002f3   Thumb Code     0  startup_stm32l431xx.o(.text)
    RTC_Alarm_IRQHandler                     0x080002f3   Thumb Code     0  startup_stm32l431xx.o(.text)
    RTC_WKUP_IRQHandler                      0x080002f3   Thumb Code     0  startup_stm32l431xx.o(.text)
    SAI1_IRQHandler                          0x080002f3   Thumb Code     0  startup_stm32l431xx.o(.text)
    SDMMC1_IRQHandler                        0x080002f3   Thumb Code     0  startup_stm32l431xx.o(.text)
    SPI1_IRQHandler                          0x080002f3   Thumb Code     0  startup_stm32l431xx.o(.text)
    SPI2_IRQHandler                          0x080002f3   Thumb Code     0  startup_stm32l431xx.o(.text)
    SPI3_IRQHandler                          0x080002f3   Thumb Code     0  startup_stm32l431xx.o(.text)
    SWPMI1_IRQHandler                        0x080002f3   Thumb Code     0  startup_stm32l431xx.o(.text)
    TAMP_STAMP_IRQHandler                    0x080002f3   Thumb Code     0  startup_stm32l431xx.o(.text)
    TIM1_BRK_TIM15_IRQHandler                0x080002f3   Thumb Code     0  startup_stm32l431xx.o(.text)
    TIM1_CC_IRQHandler                       0x080002f3   Thumb Code     0  startup_stm32l431xx.o(.text)
    TIM1_TRG_COM_IRQHandler                  0x080002f3   Thumb Code     0  startup_stm32l431xx.o(.text)
    TIM1_UP_TIM16_IRQHandler                 0x080002f3   Thumb Code     0  startup_stm32l431xx.o(.text)
    TIM2_IRQHandler                          0x080002f3   Thumb Code     0  startup_stm32l431xx.o(.text)
    TIM6_DAC_IRQHandler                      0x080002f3   Thumb Code     0  startup_stm32l431xx.o(.text)
    TIM7_IRQHandler                          0x080002f3   Thumb Code     0  startup_stm32l431xx.o(.text)
    TSC_IRQHandler                           0x080002f3   Thumb Code     0  startup_stm32l431xx.o(.text)
    USART2_IRQHandler                        0x080002f3   Thumb Code     0  startup_stm32l431xx.o(.text)
    USART3_IRQHandler                        0x080002f3   Thumb Code     0  startup_stm32l431xx.o(.text)
    WWDG_IRQHandler                          0x080002f3   Thumb Code     0  startup_stm32l431xx.o(.text)
    __user_initial_stackheap                 0x080002f5   Thumb Code     0  startup_stm32l431xx.o(.text)
    __aeabi_uldivmod                         0x08000319   Thumb Code     0  lludivv7m.o(.text)
    _ll_udiv                                 0x08000319   Thumb Code   240  lludivv7m.o(.text)
    vsnprintf                                0x08000409   Thumb Code    48  vsnprintf.o(.text)
    __2sprintf                               0x0800043d   Thumb Code    38  __2sprintf.o(.text)
    _printf_int_dec                          0x08000469   Thumb Code   104  _printf_dec.o(.text)
    __printf                                 0x080004e1   Thumb Code   388  __printf_flags_ss_wp.o(.text)
    strlen                                   0x0800066f   Thumb Code    62  strlen.o(.text)
    __aeabi_memcpy                           0x080006ad   Thumb Code     0  rt_memcpy_v6.o(.text)
    __rt_memcpy                              0x080006ad   Thumb Code   138  rt_memcpy_v6.o(.text)
    _memcpy_lastbytes                        0x08000713   Thumb Code     0  rt_memcpy_v6.o(.text)
    __aeabi_memclr                           0x08000737   Thumb Code     0  rt_memclr.o(.text)
    __rt_memclr                              0x08000737   Thumb Code    68  rt_memclr.o(.text)
    _memset                                  0x0800073b   Thumb Code     0  rt_memclr.o(.text)
    __aeabi_memclr4                          0x0800077b   Thumb Code     0  rt_memclr_w.o(.text)
    __aeabi_memclr8                          0x0800077b   Thumb Code     0  rt_memclr_w.o(.text)
    __rt_memclr_w                            0x0800077b   Thumb Code    78  rt_memclr_w.o(.text)
    _memset_w                                0x0800077f   Thumb Code     0  rt_memclr_w.o(.text)
    __use_two_region_memory                  0x080007c9   Thumb Code     2  heapauxi.o(.text)
    __rt_heap_escrow$2region                 0x080007cb   Thumb Code     2  heapauxi.o(.text)
    __rt_heap_expand$2region                 0x080007cd   Thumb Code     2  heapauxi.o(.text)
    _printf_pre_padding                      0x080007cf   Thumb Code    44  _printf_pad.o(.text)
    _printf_post_padding                     0x080007fb   Thumb Code    34  _printf_pad.o(.text)
    _printf_truncate_signed                  0x0800081d   Thumb Code    18  _printf_truncate.o(.text)
    _printf_truncate_unsigned                0x0800082f   Thumb Code    18  _printf_truncate.o(.text)
    _printf_str                              0x08000841   Thumb Code    82  _printf_str.o(.text)
    _printf_int_common                       0x08000893   Thumb Code   178  _printf_intcommon.o(.text)
    _printf_charcount                        0x08000945   Thumb Code    40  _printf_charcount.o(.text)
    _printf_char_common                      0x08000977   Thumb Code    32  _printf_char_common.o(.text)
    _sputc                                   0x0800099d   Thumb Code    10  _sputc.o(.text)
    _snputc                                  0x080009a7   Thumb Code    16  _snputc.o(.text)
    _printf_wctomb                           0x080009b9   Thumb Code   182  _printf_wctomb.o(.text)
    _printf_longlong_dec                     0x08000a7d   Thumb Code   108  _printf_longlong_dec.o(.text)
    _printf_longlong_oct                     0x08000af9   Thumb Code    68  _printf_oct_int_ll.o(.text)
    _printf_int_oct                          0x08000b3d   Thumb Code    24  _printf_oct_int_ll.o(.text)
    _printf_ll_oct                           0x08000b55   Thumb Code    12  _printf_oct_int_ll.o(.text)
    _printf_longlong_hex                     0x08000b69   Thumb Code    86  _printf_hex_int_ll_ptr.o(.text)
    _printf_int_hex                          0x08000bbf   Thumb Code    28  _printf_hex_int_ll_ptr.o(.text)
    _printf_ll_hex                           0x08000bdb   Thumb Code    12  _printf_hex_int_ll_ptr.o(.text)
    _printf_hex_ptr                          0x08000be7   Thumb Code    18  _printf_hex_int_ll_ptr.o(.text)
    __aeabi_memcpy4                          0x08000bfd   Thumb Code     0  rt_memcpy_w.o(.text)
    __aeabi_memcpy8                          0x08000bfd   Thumb Code     0  rt_memcpy_w.o(.text)
    __rt_memcpy_w                            0x08000bfd   Thumb Code   100  rt_memcpy_w.o(.text)
    _memcpy_lastbytes_aligned                0x08000c45   Thumb Code     0  rt_memcpy_w.o(.text)
    _ll_udiv10                               0x08000c61   Thumb Code   138  lludiv10.o(.text)
    _printf_fp_dec_real                      0x08000e9b   Thumb Code   620  _printf_fp_dec.o(.text)
    _printf_fp_hex_real                      0x0800110d   Thumb Code   756  _printf_fp_hex.o(.text)
    _printf_cs_common                        0x0800140f   Thumb Code    20  _printf_char.o(.text)
    _printf_char                             0x08001423   Thumb Code    16  _printf_char.o(.text)
    _printf_string                           0x08001433   Thumb Code     8  _printf_char.o(.text)
    _printf_lcs_common                       0x0800143b   Thumb Code    20  _printf_wchar.o(.text)
    _printf_wchar                            0x0800144f   Thumb Code    16  _printf_wchar.o(.text)
    _printf_wstring                          0x0800145f   Thumb Code     8  _printf_wchar.o(.text)
    _c16rtomb                                0x08001467   Thumb Code    72  _c16rtomb.o(.text)
    _wcrtomb                                 0x08001467   Thumb Code     0  _c16rtomb.o(.text)
    __user_setup_stackheap                   0x080014af   Thumb Code    74  sys_stackheap_outer.o(.text)
    __rt_ctype_table                         0x080014f9   Thumb Code    16  rt_ctype_table.o(.text)
    __rt_locale                              0x08001509   Thumb Code     8  rt_locale_intlibspace.o(.text)
    _printf_fp_infnan                        0x08001511   Thumb Code   112  _printf_fp_infnan.o(.text)
    _btod_etento                             0x08001591   Thumb Code   224  bigflt0.o(.text)
    exit                                     0x08001675   Thumb Code    18  exit.o(.text)
    __user_libspace                          0x08001689   Thumb Code     8  libspace.o(.text)
    __user_perproc_libspace                  0x08001689   Thumb Code     0  libspace.o(.text)
    __user_perthread_libspace                0x08001689   Thumb Code     0  libspace.o(.text)
    strcmp                                   0x08001691   Thumb Code   124  strcmpv7em.o(.text)
    _sys_exit                                0x0800170d   Thumb Code     8  sys_exit.o(.text)
    __I$use$semihosting                      0x08001719   Thumb Code     0  use_no_semi.o(.text)
    __use_no_semihosting_swi                 0x08001719   Thumb Code     2  use_no_semi.o(.text)
    __semihosting_library_function           0x0800171b   Thumb Code     0  indicate_semi.o(.text)
    BusFault_Handler                         0x0800171d   Thumb Code     2  stm32l4xx_it.o(.text.BusFault_Handler)
    DebugMon_Handler                         0x0800171f   Thumb Code     2  stm32l4xx_it.o(.text.DebugMon_Handler)
    Error_Handler                            0x08001721   Thumb Code    10  main.o(.text.Error_Handler)
    HAL_DMA_Abort                            0x0800172b   Thumb Code    68  stm32l4xx_hal_dma.o(.text.HAL_DMA_Abort)
    HAL_DMA_Abort_IT                         0x0800176f   Thumb Code    86  stm32l4xx_hal_dma.o(.text.HAL_DMA_Abort_IT)
    HAL_Delay                                0x080017c5   Thumb Code    40  stm32l4xx_hal.o(.text.HAL_Delay)
    HAL_GPIO_Init                            0x080017ed   Thumb Code   472  stm32l4xx_hal_gpio.o(.text.HAL_GPIO_Init)
    HAL_GPIO_WritePin                        0x080019cb   Thumb Code    12  stm32l4xx_hal_gpio.o(.text.HAL_GPIO_WritePin)
    HAL_GetTick                              0x080019d7   Thumb Code    12  stm32l4xx_hal.o(.text.HAL_GetTick)
    HAL_IncTick                              0x080019e3   Thumb Code    26  stm32l4xx_hal.o(.text.HAL_IncTick)
    HAL_Init                                 0x080019fd   Thumb Code    28  stm32l4xx_hal.o(.text.HAL_Init)
    HAL_InitTick                             0x08001a19   Thumb Code    84  stm32l4xx_hal.o(.text.HAL_InitTick)
    HAL_MspInit                              0x08001a6d   Thumb Code    50  stm32l4xx_hal_msp.o(.text.HAL_MspInit)
    HAL_NVIC_EnableIRQ                       0x08001a9f   Thumb Code    30  stm32l4xx_hal_cortex.o(.text.HAL_NVIC_EnableIRQ)
    HAL_NVIC_SetPriority                     0x08001abd   Thumb Code    86  stm32l4xx_hal_cortex.o(.text.HAL_NVIC_SetPriority)
    HAL_NVIC_SetPriorityGrouping             0x08001b13   Thumb Code    32  stm32l4xx_hal_cortex.o(.text.HAL_NVIC_SetPriorityGrouping)
    HAL_PWREx_ControlVoltageScaling          0x08001b35   Thumb Code   116  stm32l4xx_hal_pwr_ex.o(.text.HAL_PWREx_ControlVoltageScaling)
    HAL_PWREx_GetVoltageRange                0x08001ba9   Thumb Code    16  stm32l4xx_hal_pwr_ex.o(.text.HAL_PWREx_GetVoltageRange)
    HAL_RCCEx_GetPeriphCLKFreq               0x08001bb9   Thumb Code   910  stm32l4xx_hal_rcc_ex.o(.text.HAL_RCCEx_GetPeriphCLKFreq)
    HAL_RCCEx_PeriphCLKConfig                0x08001f49   Thumb Code   622  stm32l4xx_hal_rcc_ex.o(.text.HAL_RCCEx_PeriphCLKConfig)
    HAL_RCC_ClockConfig                      0x080021b9   Thumb Code   348  stm32l4xx_hal_rcc.o(.text.HAL_RCC_ClockConfig)
    HAL_RCC_GetPCLK1Freq                     0x08002315   Thumb Code    42  stm32l4xx_hal_rcc.o(.text.HAL_RCC_GetPCLK1Freq)
    HAL_RCC_GetPCLK2Freq                     0x0800233f   Thumb Code    42  stm32l4xx_hal_rcc.o(.text.HAL_RCC_GetPCLK2Freq)
    HAL_RCC_GetSysClockFreq                  0x08002369   Thumb Code   182  stm32l4xx_hal_rcc.o(.text.HAL_RCC_GetSysClockFreq)
    HAL_RCC_OscConfig                        0x08002421   Thumb Code  1522  stm32l4xx_hal_rcc.o(.text.HAL_RCC_OscConfig)
    HAL_SD_GetCardCSD                        0x08002a13   Thumb Code   386  stm32l4xx_hal_sd.o(.text.HAL_SD_GetCardCSD)
    HAL_SD_GetCardState                      0x08002b95   Thumb Code    40  stm32l4xx_hal_sd.o(.text.HAL_SD_GetCardState)
    HAL_SD_Init                              0x08002bbd   Thumb Code    62  stm32l4xx_hal_sd.o(.text.HAL_SD_Init)
    HAL_SD_InitCard                          0x08002bfd   Thumb Code   586  stm32l4xx_hal_sd.o(.text.HAL_SD_InitCard)
    HAL_SD_MspInit                           0x08002e47   Thumb Code   226  stm32l4xx_hal_msp.o(.text.HAL_SD_MspInit)
    HAL_SD_ReadBlocks                        0x08002f29   Thumb Code   490  stm32l4xx_hal_sd.o(.text.HAL_SD_ReadBlocks)
    HAL_SD_WriteBlocks                       0x08003115   Thumb Code   462  stm32l4xx_hal_sd.o(.text.HAL_SD_WriteBlocks)
    HAL_SYSTICK_Config                       0x080032e9   Thumb Code    44  stm32l4xx_hal_cortex.o(.text.HAL_SYSTICK_Config)
    HAL_UARTEx_RxEventCallback               0x08003315   Thumb Code     2  stm32l4xx_hal_uart.o(.text.HAL_UARTEx_RxEventCallback)
    HAL_UARTEx_WakeupCallback                0x08003317   Thumb Code     2  stm32l4xx_hal_uart_ex.o(.text.HAL_UARTEx_WakeupCallback)
    HAL_UART_ErrorCallback                   0x08003319   Thumb Code     2  stm32l4xx_hal_uart.o(.text.HAL_UART_ErrorCallback)
    HAL_UART_IRQHandler                      0x0800331d   Thumb Code   714  stm32l4xx_hal_uart.o(.text.HAL_UART_IRQHandler)
    HAL_UART_Init                            0x080035e7   Thumb Code    96  stm32l4xx_hal_uart.o(.text.HAL_UART_Init)
    HAL_UART_MspInit                         0x08003647   Thumb Code   248  stm32l4xx_hal_msp.o(.text.HAL_UART_MspInit)
    HAL_UART_TxCpltCallback                  0x0800373f   Thumb Code     2  stm32l4xx_hal_uart.o(.text.HAL_UART_TxCpltCallback)
    HardFault_Handler                        0x08003741   Thumb Code     2  stm32l4xx_it.o(.text.HardFault_Handler)
    LPUART1_IRQHandler                       0x08003743   Thumb Code    12  stm32l4xx_it.o(.text.LPUART1_IRQHandler)
    MemManage_Handler                        0x08003751   Thumb Code     2  stm32l4xx_it.o(.text.MemManage_Handler)
    NMI_Handler                              0x08003755   Thumb Code     2  stm32l4xx_it.o(.text.NMI_Handler)
    PendSV_Handler                           0x08003757   Thumb Code     2  stm32l4xx_it.o(.text.PendSV_Handler)
    SDMMC_CmdAppCommand                      0x0800390d   Thumb Code    24  stm32l4xx_ll_sdmmc.o(.text.SDMMC_CmdAppCommand)
    SDMMC_CmdAppOperCommand                  0x08003925   Thumb Code    26  stm32l4xx_ll_sdmmc.o(.text.SDMMC_CmdAppOperCommand)
    SDMMC_CmdBlockLength                     0x0800393f   Thumb Code    24  stm32l4xx_ll_sdmmc.o(.text.SDMMC_CmdBlockLength)
    SDMMC_CmdGoIdleState                     0x08003959   Thumb Code    72  stm32l4xx_ll_sdmmc.o(.text.SDMMC_CmdGoIdleState)
    SDMMC_CmdOperCond                        0x080039a1   Thumb Code    22  stm32l4xx_ll_sdmmc.o(.text.SDMMC_CmdOperCond)
    SDMMC_CmdReadMultiBlock                  0x080039b7   Thumb Code    24  stm32l4xx_ll_sdmmc.o(.text.SDMMC_CmdReadMultiBlock)
    SDMMC_CmdReadSingleBlock                 0x080039cf   Thumb Code    24  stm32l4xx_ll_sdmmc.o(.text.SDMMC_CmdReadSingleBlock)
    SDMMC_CmdSelDesel                        0x080039e7   Thumb Code    24  stm32l4xx_ll_sdmmc.o(.text.SDMMC_CmdSelDesel)
    SDMMC_CmdSendCID                         0x080039ff   Thumb Code    20  stm32l4xx_ll_sdmmc.o(.text.SDMMC_CmdSendCID)
    SDMMC_CmdSendCSD                         0x08003a13   Thumb Code    18  stm32l4xx_ll_sdmmc.o(.text.SDMMC_CmdSendCSD)
    SDMMC_CmdSendStatus                      0x08003a25   Thumb Code    24  stm32l4xx_ll_sdmmc.o(.text.SDMMC_CmdSendStatus)
    SDMMC_CmdSetRelAdd                       0x08003a3d   Thumb Code    24  stm32l4xx_ll_sdmmc.o(.text.SDMMC_CmdSetRelAdd)
    SDMMC_CmdStopTransfer                    0x08003a55   Thumb Code    30  stm32l4xx_ll_sdmmc.o(.text.SDMMC_CmdStopTransfer)
    SDMMC_CmdWriteMultiBlock                 0x08003a73   Thumb Code    24  stm32l4xx_ll_sdmmc.o(.text.SDMMC_CmdWriteMultiBlock)
    SDMMC_CmdWriteSingleBlock                0x08003a8b   Thumb Code    24  stm32l4xx_ll_sdmmc.o(.text.SDMMC_CmdWriteSingleBlock)
    SDMMC_ConfigData                         0x08003aa3   Thumb Code    38  stm32l4xx_ll_sdmmc.o(.text.SDMMC_ConfigData)
    SDMMC_GetCmdResp1                        0x08003ac9   Thumb Code   298  stm32l4xx_ll_sdmmc.o(.text.SDMMC_GetCmdResp1)
    SDMMC_GetCmdResp2                        0x08003bf5   Thumb Code    88  stm32l4xx_ll_sdmmc.o(.text.SDMMC_GetCmdResp2)
    SDMMC_GetCmdResp3                        0x08003c4d   Thumb Code    74  stm32l4xx_ll_sdmmc.o(.text.SDMMC_GetCmdResp3)
    SDMMC_GetCmdResp6                        0x08003c99   Thumb Code   152  stm32l4xx_ll_sdmmc.o(.text.SDMMC_GetCmdResp6)
    SDMMC_GetCmdResp7                        0x08003d31   Thumb Code    94  stm32l4xx_ll_sdmmc.o(.text.SDMMC_GetCmdResp7)
    SDMMC_GetPowerState                      0x08003d8f   Thumb Code     8  stm32l4xx_ll_sdmmc.o(.text.SDMMC_GetPowerState)
    SDMMC_GetResponse                        0x08003d97   Thumb Code     6  stm32l4xx_ll_sdmmc.o(.text.SDMMC_GetResponse)
    SDMMC_Init                               0x08003d9d   Thumb Code    44  stm32l4xx_ll_sdmmc.o(.text.SDMMC_Init)
    SDMMC_PowerState_ON                      0x08003dc9   Thumb Code    16  stm32l4xx_ll_sdmmc.o(.text.SDMMC_PowerState_ON)
    SDMMC_ReadFIFO                           0x08003dd9   Thumb Code     6  stm32l4xx_ll_sdmmc.o(.text.SDMMC_ReadFIFO)
    SDMMC_WriteFIFO                          0x08003ddf   Thumb Code    12  stm32l4xx_ll_sdmmc.o(.text.SDMMC_WriteFIFO)
    SVC_Handler                              0x08003deb   Thumb Code     2  stm32l4xx_it.o(.text.SVC_Handler)
    SysTick_Handler                          0x08003ded   Thumb Code    14  stm32l4xx_it.o(.text.SysTick_Handler)
    SystemClock_Config                       0x08003dfd   Thumb Code   130  main.o(.text.SystemClock_Config)
    SystemInit                               0x08003e7f   Thumb Code    18  system_stm32l4xx.o(.text.SystemInit)
    UART_AdvFeatureConfig                    0x08003e91   Thumb Code   204  stm32l4xx_hal_uart.o(.text.UART_AdvFeatureConfig)
    UART_CheckIdleState                      0x08003f5d   Thumb Code   104  stm32l4xx_hal_uart.o(.text.UART_CheckIdleState)
    UART_SetConfig                           0x08004025   Thumb Code   512  stm32l4xx_hal_uart.o(.text.UART_SetConfig)
    UART_WaitOnFlagUntilTimeout              0x08004225   Thumb Code   216  stm32l4xx_hal_uart.o(.text.UART_WaitOnFlagUntilTimeout)
    USART1_IRQHandler                        0x080042fd   Thumb Code    12  stm32l4xx_it.o(.text.USART1_IRQHandler)
    UsageFault_Handler                       0x08004309   Thumb Code     2  stm32l4xx_it.o(.text.UsageFault_Handler)
    bClose                                   0x080047a3   Thumb Code    52  b_core.o(.text.bClose)
    bDeviceClose                             0x080047d9   Thumb Code   124  b_device.o(.text.bDeviceClose)
    bDeviceInit                              0x08004855   Thumb Code   408  b_device.o(.text.bDeviceInit)
    bDeviceOpen                              0x080049f5   Thumb Code   120  b_device.o(.text.bDeviceOpen)
    bDeviceRead                              0x08004a6d   Thumb Code   124  b_device.o(.text.bDeviceRead)
    bDeviceWrite                             0x08004ae9   Thumb Code   132  b_device.o(.text.bDeviceWrite)
    bExec                                    0x08004b6d   Thumb Code    46  b_core.o(.text.bExec)
    bFS_Init                                 0x08004b9d   Thumb Code   224  b_mod_fs.o(.text.bFS_Init)
    bFS_Test                                 0x08004c7d   Thumb Code   436  b_mod_fs.o(.text.bFS_Test)
    bHalDelayMs                              0x08004e31   Thumb Code    22  b_hal.o(.text.bHalDelayMs)
    bHalGetSysTick                           0x08004e47   Thumb Code    12  b_hal.o(.text.bHalGetSysTick)
    bHalGetSysTickPlus                       0x08004e53   Thumb Code    22  b_hal.o(.text.bHalGetSysTickPlus)
    bHalGpioReadPin                          0x08004e69   Thumb Code     4  b_hal_gpio.o(.text.bHalGpioReadPin)
    bHalGpioWritePin                         0x08004e6d   Thumb Code     4  b_hal_gpio.o(.text.bHalGpioWritePin)
    bHalIncSysTick                           0x08004e71   Thumb Code    36  b_hal.o(.text.bHalIncSysTick)
    bHalInit                                 0x08004e99   Thumb Code   136  b_hal.o(.text.bHalInit)
    bHalSDIOReadBlocks                       0x08004f21   Thumb Code    18  b_hal_sdio.o(.text.bHalSDIOReadBlocks)
    bHalSDIOWriteBlocks                      0x08004f33   Thumb Code    18  b_hal_sdio.o(.text.bHalSDIOWriteBlocks)
    bHalSpiSend                              0x08004f45   Thumb Code    60  b_hal_spi.o(.text.bHalSpiSend)
    bHalSpiSetSpeed                          0x08004f81   Thumb Code     4  b_hal_spi.o(.text.bHalSpiSetSpeed)
    bHalSpiTransfer                          0x08004f85   Thumb Code   226  b_hal_spi.o(.text.bHalSpiTransfer)
    bHalUartSend                             0x08005077   Thumb Code     4  b_hal_uart.o(.text.bHalUartSend)
    bHalUserInit                             0x0800507b   Thumb Code     2  b_hal.o(.text.bHalUserInit)
    bInit                                    0x0800507d   Thumb Code   452  b_core.o(.text.bInit)
    bLogOut                                  0x08005241   Thumb Code   256  b_util_log.o(.text.bLogOut)
    bLseek                                   0x08005341   Thumb Code    36  b_core.o(.text.bLseek)
    bMcuGpioReadPin                          0x08005365   Thumb Code    38  mcu_stm32l41x_gpio.o(.text.bMcuGpioReadPin)
    bMcuGpioWritePin                         0x0800538b   Thumb Code    42  mcu_stm32l41x_gpio.o(.text.bMcuGpioWritePin)
    bMcuSDIOReadBlocks                       0x080053b5   Thumb Code    36  mcu_stm32l41x_sdio.o(.text.bMcuSDIOReadBlocks)
    bMcuSDIOWriteBlocks                      0x080053d9   Thumb Code    78  mcu_stm32l41x_sdio.o(.text.bMcuSDIOWriteBlocks)
    bMcuSpiSend                              0x08005429   Thumb Code    38  mcu_stm32l41x_spi.o(.text.bMcuSpiSend)
    bMcuSpiSetSpeed                          0x08005451   Thumb Code    76  mcu_stm32l41x_spi.o(.text.bMcuSpiSetSpeed)
    bMcuSpiTransfer                          0x0800549d   Thumb Code    66  mcu_stm32l41x_spi.o(.text.bMcuSpiTransfer)
    bMcuUartSend                             0x080054e1   Thumb Code   128  mcu_stm32l41x_uart.o(.text.bMcuUartSend)
    bOpen                                    0x08005561   Thumb Code   146  b_core.o(.text.bOpen)
    bRead                                    0x080055f3   Thumb Code    82  b_core.o(.text.bRead)
    bSD_Init                                 0x08005645   Thumb Code   856  b_drv_sd.o(.text.bSD_Init)
    bWrite                                   0x0800599d   Thumb Code    80  b_core.o(.text.bWrite)
    disk_initialize                          0x08005dc1   Thumb Code     4  diskio.o(.text.disk_initialize)
    disk_ioctl                               0x08005dc5   Thumb Code    42  diskio.o(.text.disk_ioctl)
    disk_read                                0x08005def   Thumb Code    68  diskio.o(.text.disk_read)
    disk_status                              0x08005e33   Thumb Code    12  diskio.o(.text.disk_status)
    disk_write                               0x08005e3f   Thumb Code    68  diskio.o(.text.disk_write)
    f_close                                  0x08005e83   Thumb Code    30  ff.o(.text.f_close)
    f_getfree                                0x08005ea1   Thumb Code   228  ff.o(.text.f_getfree)
    f_lseek                                  0x08005f85   Thumb Code   386  ff.o(.text.f_lseek)
    f_mount                                  0x08006107   Thumb Code    76  ff.o(.text.f_mount)
    f_open                                   0x08006155   Thumb Code   546  ff.o(.text.f_open)
    f_read                                   0x0800637d   Thumb Code   404  ff.o(.text.f_read)
    f_sync                                   0x08006517   Thumb Code   144  ff.o(.text.f_sync)
    f_write                                  0x080065a9   Thumb Code   446  ff.o(.text.f_write)
    main                                     0x08006ab1   Thumb Code   342  main.o(.text.main)
    _btod_d2e                                0x08007157   Thumb Code    62  btod.o(CL$$btod_d2e)
    _d2e_denorm_low                          0x08007195   Thumb Code    70  btod.o(CL$$btod_d2e_denorm_low)
    _d2e_norm_op1                            0x080071db   Thumb Code    96  btod.o(CL$$btod_d2e_norm_op1)
    __btod_div_common                        0x0800723b   Thumb Code   696  btod.o(CL$$btod_div_common)
    _e2e                                     0x08007573   Thumb Code   220  btod.o(CL$$btod_e2e)
    _btod_ediv                               0x0800764f   Thumb Code    42  btod.o(CL$$btod_ediv)
    _btod_emul                               0x08007679   Thumb Code    42  btod.o(CL$$btod_emul)
    __btod_mult_common                       0x080076a3   Thumb Code   580  btod.o(CL$$btod_mult_common)
    __ARM_fpclassify                         0x080078e7   Thumb Code    48  fpclassify.o(i.__ARM_fpclassify)
    _is_digit                                0x08007917   Thumb Code    14  __printf_wp.o(i._is_digit)
    _get_lc_numeric                          0x08007925   Thumb Code    44  lc_numeric_c.o(locale$$code)
    _get_lc_ctype                            0x08007951   Thumb Code    44  lc_ctype_c.o(locale$$code)
    __aeabi_ddiv                             0x0800797d   Thumb Code     0  ddiv.o(x$fpl$ddiv)
    _ddiv                                    0x0800797d   Thumb Code   552  ddiv.o(x$fpl$ddiv)
    __aeabi_d2uiz                            0x08007c2d   Thumb Code     0  dfixu.o(x$fpl$dfixu)
    _dfixu                                   0x08007c2d   Thumb Code    90  dfixu.o(x$fpl$dfixu)
    __aeabi_ui2d                             0x08007c87   Thumb Code     0  dflt_clz.o(x$fpl$dfltu)
    _dfltu                                   0x08007c87   Thumb Code    38  dflt_clz.o(x$fpl$dfltu)
    __aeabi_dmul                             0x08007cad   Thumb Code     0  dmul.o(x$fpl$dmul)
    _dmul                                    0x08007cad   Thumb Code   332  dmul.o(x$fpl$dmul)
    __fpl_dnaninf                            0x08007e01   Thumb Code   156  dnaninf.o(x$fpl$dnaninf)
    __fpl_dretinf                            0x08007e9d   Thumb Code    12  dretinf.o(x$fpl$dretinf)
    _fp_init                                 0x08007ea9   Thumb Code    26  fpinit.o(x$fpl$fpinit)
    __fplib_config_fpu_vfp                   0x08007ec1   Thumb Code     0  fpinit.o(x$fpl$fpinit)
    __fplib_config_pureend_doubles           0x08007ec1   Thumb Code     0  fpinit.o(x$fpl$fpinit)
    _printf_fp_dec                           0x08007ec3   Thumb Code     4  printf1.o(x$fpl$printf1)
    _printf_fp_hex                           0x08007ec7   Thumb Code     4  printf2.o(x$fpl$printf2)
    __I$use$fp                               0x08007eca   Number         0  usenofp.o(x$fpl$usenofp)
    AHBPrescTable                            0x08007fc8   Data          16  system_stm32l4xx.o(.rodata.AHBPrescTable)
    APBPrescTable                            0x08007fd8   Data           8  system_stm32l4xx.o(.rodata.APBPrescTable)
    MSIRangeTable                            0x08008060   Data          48  system_stm32l4xx.o(.rodata.MSIRangeTable)
    Region$$Table$$Base                      0x0800832c   Number         0  anon$$obj.o(Region$$Table)
    Region$$Table$$Limit                     0x0800834c   Number         0  anon$$obj.o(Region$$Table)
    bos_polling$$Base                        0x0800834c   Number         0  b_core.o(bos_polling)
    polling_bCoreMonitor                     0x0800834c   Data           4  b_core.o(bos_polling)
    polling_bTaskCore                        0x08008350   Data           4  b_task.o(bos_polling)
    polling_bTimerCore                       0x08008354   Data           4  b_timer.o(bos_polling)
    polling_bUtilUartDetectIdle              0x08008358   Data           4  b_util_uart.o(bos_polling)
    bos_polling$$Limit                       0x0800835c   Number         0  b_util_uart.o(bos_polling)
    driver_init$$Base                        0x0800835c   Number         0  b_device.o(driver_init)
    init_bDriverNullInit                     0x0800835c   Data           8  b_device.o(driver_init)
    initbSD_Init                             0x08008364   Data           8  b_drv_sd.o(driver_init)
    driver_init$$Limit                       0x0800836c   Number         0  b_drv_sd.o(driver_init)
    driver_init_0$$Base                      0x0800836c   Number         0  b_device.o(driver_init_0)
    init0_bDriverNullInit                    0x0800836c   Data           8  b_device.o(driver_init_0)
    driver_init_0$$Limit                     0x08008374   Number         0  b_device.o(driver_init_0)
    __ctype                                  0x0800839d   Data           0  lc_ctype_c.o(locale$$data)
    SystemCoreClock                          0x20000000   Data           4  system_stm32l4xx.o(.data.SystemCoreClock)
    uwTickFreq                               0x20000018   Data           1  stm32l4xx_hal.o(.data.uwTickFreq)
    uwTickPrio                               0x2000001c   Data           4  stm32l4xx_hal.o(.data.uwTickPrio)
    __libspace_start                         0x20000020   Data          96  libspace.o(.bss)
    __temporary_stack_top$libspace           0x20000080   Data           0  libspace.o(.bss)
    fil                                      0x2000128c   Data        4136  b_mod_fs.o(.bss.fil)
    hlpuart1                                 0x200022b4   Data         132  main.o(.bss.hlpuart1)
    hsd1                                     0x20002338   Data         132  main.o(.bss.hsd1)
    huart1                                   0x200023bc   Data         132  main.o(.bss.huart1)
    uwTick                                   0x20002444   Data           4  stm32l4xx_hal.o(.bss.uwTick)



==============================================================================

Memory Map of the image

  Image Entry point : 0x0800018d

  Load Region LR_IROM1 (Base: 0x08000000, Size: 0x000084c0, Max: 0x00040000, ABSOLUTE)

    Execution Region ER_IROM1 (Exec base: 0x08000000, Load base: 0x08000000, Size: 0x000084a0, Max: 0x00040000, ABSOLUTE)

    Exec Addr    Load Addr    Size         Type   Attr      Idx    E Section Name        Object

    0x08000000   0x08000000   0x0000018c   Data   RO            3    RESET               startup_stm32l431xx.o
    0x0800018c   0x0800018c   0x00000008   Code   RO         2146  * !!!main             c_w.l(__main.o)
    0x08000194   0x08000194   0x00000034   Code   RO         2489    !!!scatter          c_w.l(__scatter.o)
    0x080001c8   0x080001c8   0x0000001a   Code   RO         2491    !!handler_copy      c_w.l(__scatter_copy.o)
    0x080001e2   0x080001e2   0x00000002   PAD
    0x080001e4   0x080001e4   0x0000001c   Code   RO         2493    !!handler_zi        c_w.l(__scatter_zi.o)
    0x08000200   0x08000200   0x00000000   Code   RO         2135    .ARM.Collect$$_printf_percent$$00000000  c_w.l(_printf_percent.o)
    0x08000200   0x08000200   0x00000006   Code   RO         2219    .ARM.Collect$$_printf_percent$$00000001  c_w.l(_printf_n.o)
    0x08000206   0x08000206   0x00000006   Code   RO         2221    .ARM.Collect$$_printf_percent$$00000002  c_w.l(_printf_p.o)
    0x0800020c   0x0800020c   0x00000006   Code   RO         2225    .ARM.Collect$$_printf_percent$$00000003  c_w.l(_printf_f.o)
    0x08000212   0x08000212   0x00000006   Code   RO         2226    .ARM.Collect$$_printf_percent$$00000004  c_w.l(_printf_e.o)
    0x08000218   0x08000218   0x00000006   Code   RO         2227    .ARM.Collect$$_printf_percent$$00000005  c_w.l(_printf_g.o)
    0x0800021e   0x0800021e   0x00000006   Code   RO         2228    .ARM.Collect$$_printf_percent$$00000006  c_w.l(_printf_a.o)
    0x08000224   0x08000224   0x0000000a   Code   RO         2233    .ARM.Collect$$_printf_percent$$00000007  c_w.l(_printf_ll.o)
    0x0800022e   0x0800022e   0x00000006   Code   RO         2223    .ARM.Collect$$_printf_percent$$00000008  c_w.l(_printf_i.o)
    0x08000234   0x08000234   0x00000006   Code   RO         2134    .ARM.Collect$$_printf_percent$$00000009  c_w.l(_printf_d.o)
    0x0800023a   0x0800023a   0x00000006   Code   RO         2224    .ARM.Collect$$_printf_percent$$0000000A  c_w.l(_printf_u.o)
    0x08000240   0x08000240   0x00000006   Code   RO         2222    .ARM.Collect$$_printf_percent$$0000000B  c_w.l(_printf_o.o)
    0x08000246   0x08000246   0x00000006   Code   RO         2220    .ARM.Collect$$_printf_percent$$0000000C  c_w.l(_printf_x.o)
    0x0800024c   0x0800024c   0x00000006   Code   RO         2230    .ARM.Collect$$_printf_percent$$0000000D  c_w.l(_printf_lli.o)
    0x08000252   0x08000252   0x00000006   Code   RO         2231    .ARM.Collect$$_printf_percent$$0000000E  c_w.l(_printf_lld.o)
    0x08000258   0x08000258   0x00000006   Code   RO         2232    .ARM.Collect$$_printf_percent$$0000000F  c_w.l(_printf_llu.o)
    0x0800025e   0x0800025e   0x00000006   Code   RO         2237    .ARM.Collect$$_printf_percent$$00000010  c_w.l(_printf_llo.o)
    0x08000264   0x08000264   0x00000006   Code   RO         2238    .ARM.Collect$$_printf_percent$$00000011  c_w.l(_printf_llx.o)
    0x0800026a   0x0800026a   0x0000000a   Code   RO         2234    .ARM.Collect$$_printf_percent$$00000012  c_w.l(_printf_l.o)
    0x08000274   0x08000274   0x00000006   Code   RO         2217    .ARM.Collect$$_printf_percent$$00000013  c_w.l(_printf_c.o)
    0x0800027a   0x0800027a   0x00000006   Code   RO         2218    .ARM.Collect$$_printf_percent$$00000014  c_w.l(_printf_s.o)
    0x08000280   0x08000280   0x00000006   Code   RO         2235    .ARM.Collect$$_printf_percent$$00000015  c_w.l(_printf_lc.o)
    0x08000286   0x08000286   0x00000006   Code   RO         2236    .ARM.Collect$$_printf_percent$$00000016  c_w.l(_printf_ls.o)
    0x0800028c   0x0800028c   0x00000004   Code   RO         2229    .ARM.Collect$$_printf_percent$$00000017  c_w.l(_printf_percent_end.o)
    0x08000290   0x08000290   0x00000002   Code   RO         2340    .ARM.Collect$$libinit$$00000000  c_w.l(libinit.o)
    0x08000292   0x08000292   0x00000004   Code   RO         2363    .ARM.Collect$$libinit$$00000001  c_w.l(libinit2.o)
    0x08000296   0x08000296   0x00000000   Code   RO         2366    .ARM.Collect$$libinit$$00000004  c_w.l(libinit2.o)
    0x08000296   0x08000296   0x00000000   Code   RO         2369    .ARM.Collect$$libinit$$0000000A  c_w.l(libinit2.o)
    0x08000296   0x08000296   0x00000000   Code   RO         2371    .ARM.Collect$$libinit$$0000000C  c_w.l(libinit2.o)
    0x08000296   0x08000296   0x00000000   Code   RO         2373    .ARM.Collect$$libinit$$0000000E  c_w.l(libinit2.o)
    0x08000296   0x08000296   0x00000006   Code   RO         2374    .ARM.Collect$$libinit$$0000000F  c_w.l(libinit2.o)
    0x0800029c   0x0800029c   0x00000000   Code   RO         2376    .ARM.Collect$$libinit$$00000011  c_w.l(libinit2.o)
    0x0800029c   0x0800029c   0x0000000c   Code   RO         2377    .ARM.Collect$$libinit$$00000012  c_w.l(libinit2.o)
    0x080002a8   0x080002a8   0x00000000   Code   RO         2378    .ARM.Collect$$libinit$$00000013  c_w.l(libinit2.o)
    0x080002a8   0x080002a8   0x00000000   Code   RO         2380    .ARM.Collect$$libinit$$00000015  c_w.l(libinit2.o)
    0x080002a8   0x080002a8   0x0000000a   Code   RO         2381    .ARM.Collect$$libinit$$00000016  c_w.l(libinit2.o)
    0x080002b2   0x080002b2   0x00000000   Code   RO         2382    .ARM.Collect$$libinit$$00000017  c_w.l(libinit2.o)
    0x080002b2   0x080002b2   0x00000000   Code   RO         2384    .ARM.Collect$$libinit$$00000019  c_w.l(libinit2.o)
    0x080002b2   0x080002b2   0x00000000   Code   RO         2386    .ARM.Collect$$libinit$$0000001B  c_w.l(libinit2.o)
    0x080002b2   0x080002b2   0x00000000   Code   RO         2388    .ARM.Collect$$libinit$$0000001D  c_w.l(libinit2.o)
    0x080002b2   0x080002b2   0x00000000   Code   RO         2390    .ARM.Collect$$libinit$$0000001F  c_w.l(libinit2.o)
    0x080002b2   0x080002b2   0x00000000   Code   RO         2392    .ARM.Collect$$libinit$$00000021  c_w.l(libinit2.o)
    0x080002b2   0x080002b2   0x00000000   Code   RO         2394    .ARM.Collect$$libinit$$00000023  c_w.l(libinit2.o)
    0x080002b2   0x080002b2   0x00000000   Code   RO         2396    .ARM.Collect$$libinit$$00000025  c_w.l(libinit2.o)
    0x080002b2   0x080002b2   0x00000000   Code   RO         2400    .ARM.Collect$$libinit$$0000002C  c_w.l(libinit2.o)
    0x080002b2   0x080002b2   0x00000000   Code   RO         2402    .ARM.Collect$$libinit$$0000002E  c_w.l(libinit2.o)
    0x080002b2   0x080002b2   0x00000000   Code   RO         2404    .ARM.Collect$$libinit$$00000030  c_w.l(libinit2.o)
    0x080002b2   0x080002b2   0x00000000   Code   RO         2406    .ARM.Collect$$libinit$$00000032  c_w.l(libinit2.o)
    0x080002b2   0x080002b2   0x00000002   Code   RO         2407    .ARM.Collect$$libinit$$00000033  c_w.l(libinit2.o)
    0x080002b4   0x080002b4   0x00000002   Code   RO         2444    .ARM.Collect$$libshutdown$$00000000  c_w.l(libshutdown.o)
    0x080002b6   0x080002b6   0x00000000   Code   RO         2472    .ARM.Collect$$libshutdown$$00000002  c_w.l(libshutdown2.o)
    0x080002b6   0x080002b6   0x00000000   Code   RO         2474    .ARM.Collect$$libshutdown$$00000004  c_w.l(libshutdown2.o)
    0x080002b6   0x080002b6   0x00000000   Code   RO         2477    .ARM.Collect$$libshutdown$$00000007  c_w.l(libshutdown2.o)
    0x080002b6   0x080002b6   0x00000000   Code   RO         2480    .ARM.Collect$$libshutdown$$0000000A  c_w.l(libshutdown2.o)
    0x080002b6   0x080002b6   0x00000000   Code   RO         2482    .ARM.Collect$$libshutdown$$0000000C  c_w.l(libshutdown2.o)
    0x080002b6   0x080002b6   0x00000000   Code   RO         2485    .ARM.Collect$$libshutdown$$0000000F  c_w.l(libshutdown2.o)
    0x080002b6   0x080002b6   0x00000002   Code   RO         2486    .ARM.Collect$$libshutdown$$00000010  c_w.l(libshutdown2.o)
    0x080002b8   0x080002b8   0x00000000   Code   RO         2164    .ARM.Collect$$rtentry$$00000000  c_w.l(__rtentry.o)
    0x080002b8   0x080002b8   0x00000000   Code   RO         2255    .ARM.Collect$$rtentry$$00000002  c_w.l(__rtentry2.o)
    0x080002b8   0x080002b8   0x00000006   Code   RO         2267    .ARM.Collect$$rtentry$$00000004  c_w.l(__rtentry4.o)
    0x080002be   0x080002be   0x00000000   Code   RO         2257    .ARM.Collect$$rtentry$$00000009  c_w.l(__rtentry2.o)
    0x080002be   0x080002be   0x00000004   Code   RO         2258    .ARM.Collect$$rtentry$$0000000A  c_w.l(__rtentry2.o)
    0x080002c2   0x080002c2   0x00000000   Code   RO         2260    .ARM.Collect$$rtentry$$0000000C  c_w.l(__rtentry2.o)
    0x080002c2   0x080002c2   0x00000008   Code   RO         2261    .ARM.Collect$$rtentry$$0000000D  c_w.l(__rtentry2.o)
    0x080002ca   0x080002ca   0x00000002   Code   RO         2348    .ARM.Collect$$rtexit$$00000000  c_w.l(rtexit.o)
    0x080002cc   0x080002cc   0x00000000   Code   RO         2413    .ARM.Collect$$rtexit$$00000002  c_w.l(rtexit2.o)
    0x080002cc   0x080002cc   0x00000004   Code   RO         2414    .ARM.Collect$$rtexit$$00000003  c_w.l(rtexit2.o)
    0x080002d0   0x080002d0   0x00000006   Code   RO         2415    .ARM.Collect$$rtexit$$00000004  c_w.l(rtexit2.o)
    0x080002d6   0x080002d6   0x00000002   PAD
    0x080002d8   0x080002d8   0x00000040   Code   RO            4    .text               startup_stm32l431xx.o
    0x08000318   0x08000318   0x000000f0   Code   RO         2100    .text               c_w.l(lludivv7m.o)
    0x08000408   0x08000408   0x00000034   Code   RO         2104    .text               c_w.l(vsnprintf.o)
    0x0800043c   0x0800043c   0x0000002c   Code   RO         2106    .text               c_w.l(__2sprintf.o)
    0x08000468   0x08000468   0x00000078   Code   RO         2112    .text               c_w.l(_printf_dec.o)
    0x080004e0   0x080004e0   0x0000018e   Code   RO         2131    .text               c_w.l(__printf_flags_ss_wp.o)
    0x0800066e   0x0800066e   0x0000003e   Code   RO         2136    .text               c_w.l(strlen.o)
    0x080006ac   0x080006ac   0x0000008a   Code   RO         2138    .text               c_w.l(rt_memcpy_v6.o)
    0x08000736   0x08000736   0x00000044   Code   RO         2140    .text               c_w.l(rt_memclr.o)
    0x0800077a   0x0800077a   0x0000004e   Code   RO         2142    .text               c_w.l(rt_memclr_w.o)
    0x080007c8   0x080007c8   0x00000006   Code   RO         2144    .text               c_w.l(heapauxi.o)
    0x080007ce   0x080007ce   0x0000004e   Code   RO         2169    .text               c_w.l(_printf_pad.o)
    0x0800081c   0x0800081c   0x00000024   Code   RO         2171    .text               c_w.l(_printf_truncate.o)
    0x08000840   0x08000840   0x00000052   Code   RO         2173    .text               c_w.l(_printf_str.o)
    0x08000892   0x08000892   0x000000b2   Code   RO         2175    .text               c_w.l(_printf_intcommon.o)
    0x08000944   0x08000944   0x00000028   Code   RO         2177    .text               c_w.l(_printf_charcount.o)
    0x0800096c   0x0800096c   0x00000030   Code   RO         2179    .text               c_w.l(_printf_char_common.o)
    0x0800099c   0x0800099c   0x0000000a   Code   RO         2181    .text               c_w.l(_sputc.o)
    0x080009a6   0x080009a6   0x00000010   Code   RO         2183    .text               c_w.l(_snputc.o)
    0x080009b6   0x080009b6   0x00000002   PAD
    0x080009b8   0x080009b8   0x000000c2   Code   RO         2185    .text               c_w.l(_printf_wctomb.o)
    0x08000a7a   0x08000a7a   0x00000002   PAD
    0x08000a7c   0x08000a7c   0x0000007c   Code   RO         2188    .text               c_w.l(_printf_longlong_dec.o)
    0x08000af8   0x08000af8   0x00000070   Code   RO         2194    .text               c_w.l(_printf_oct_int_ll.o)
    0x08000b68   0x08000b68   0x00000094   Code   RO         2214    .text               c_w.l(_printf_hex_int_ll_ptr.o)
    0x08000bfc   0x08000bfc   0x00000064   Code   RO         2239    .text               c_w.l(rt_memcpy_w.o)
    0x08000c60   0x08000c60   0x0000008a   Code   RO         2271    .text               c_w.l(lludiv10.o)
    0x08000cea   0x08000cea   0x00000422   Code   RO         2273    .text               c_w.l(_printf_fp_dec.o)
    0x0800110c   0x0800110c   0x00000302   Code   RO         2277    .text               c_w.l(_printf_fp_hex.o)
    0x0800140e   0x0800140e   0x0000002c   Code   RO         2282    .text               c_w.l(_printf_char.o)
    0x0800143a   0x0800143a   0x0000002c   Code   RO         2284    .text               c_w.l(_printf_wchar.o)
    0x08001466   0x08001466   0x00000048   Code   RO         2286    .text               c_w.l(_c16rtomb.o)
    0x080014ae   0x080014ae   0x0000004a   Code   RO         2288    .text               c_w.l(sys_stackheap_outer.o)
    0x080014f8   0x080014f8   0x00000010   Code   RO         2290    .text               c_w.l(rt_ctype_table.o)
    0x08001508   0x08001508   0x00000008   Code   RO         2295    .text               c_w.l(rt_locale_intlibspace.o)
    0x08001510   0x08001510   0x00000080   Code   RO         2297    .text               c_w.l(_printf_fp_infnan.o)
    0x08001590   0x08001590   0x000000e4   Code   RO         2299    .text               c_w.l(bigflt0.o)
    0x08001674   0x08001674   0x00000012   Code   RO         2329    .text               c_w.l(exit.o)
    0x08001686   0x08001686   0x00000002   PAD
    0x08001688   0x08001688   0x00000008   Code   RO         2345    .text               c_w.l(libspace.o)
    0x08001690   0x08001690   0x0000007c   Code   RO         2361    .text               c_w.l(strcmpv7em.o)
    0x0800170c   0x0800170c   0x0000000c   Code   RO         2408    .text               c_w.l(sys_exit.o)
    0x08001718   0x08001718   0x00000002   Code   RO         2433    .text               c_w.l(use_no_semi.o)
    0x0800171a   0x0800171a   0x00000000   Code   RO         2435    .text               c_w.l(indicate_semi.o)
    0x0800171a   0x0800171a   0x00000002   PAD
    0x0800171c   0x0800171c   0x00000002   Code   RO           36    .text.BusFault_Handler  stm32l4xx_it.o
    0x0800171e   0x0800171e   0x00000002   Code   RO           42    .text.DebugMon_Handler  stm32l4xx_it.o
    0x08001720   0x08001720   0x0000000a   Code   RO           15    .text.Error_Handler  main.o
    0x0800172a   0x0800172a   0x00000044   Code   RO         1164    .text.HAL_DMA_Abort  stm32l4xx_hal_dma.o
    0x0800176e   0x0800176e   0x00000056   Code   RO         1166    .text.HAL_DMA_Abort_IT  stm32l4xx_hal_dma.o
    0x080017c4   0x080017c4   0x00000028   Code   RO          105    .text.HAL_Delay     stm32l4xx_hal.o
    0x080017ec   0x080017ec   0x000001de   Code   RO          278    .text.HAL_GPIO_Init  stm32l4xx_hal_gpio.o
    0x080019ca   0x080019ca   0x0000000c   Code   RO          284    .text.HAL_GPIO_WritePin  stm32l4xx_hal_gpio.o
    0x080019d6   0x080019d6   0x0000000c   Code   RO           97    .text.HAL_GetTick   stm32l4xx_hal.o
    0x080019e2   0x080019e2   0x0000001a   Code   RO           95    .text.HAL_IncTick   stm32l4xx_hal.o
    0x080019fc   0x080019fc   0x0000001c   Code   RO           85    .text.HAL_Init      stm32l4xx_hal.o
    0x08001a18   0x08001a18   0x00000054   Code   RO           87    .text.HAL_InitTick  stm32l4xx_hal.o
    0x08001a6c   0x08001a6c   0x00000032   Code   RO           59    .text.HAL_MspInit   stm32l4xx_hal_msp.o
    0x08001a9e   0x08001a9e   0x0000001e   Code   RO          172    .text.HAL_NVIC_EnableIRQ  stm32l4xx_hal_cortex.o
    0x08001abc   0x08001abc   0x00000056   Code   RO          170    .text.HAL_NVIC_SetPriority  stm32l4xx_hal_cortex.o
    0x08001b12   0x08001b12   0x00000020   Code   RO          168    .text.HAL_NVIC_SetPriorityGrouping  stm32l4xx_hal_cortex.o
    0x08001b32   0x08001b32   0x00000002   PAD
    0x08001b34   0x08001b34   0x00000074   Code   RO         1092    .text.HAL_PWREx_ControlVoltageScaling  stm32l4xx_hal_pwr_ex.o
    0x08001ba8   0x08001ba8   0x00000010   Code   RO         1090    .text.HAL_PWREx_GetVoltageRange  stm32l4xx_hal_pwr_ex.o
    0x08001bb8   0x08001bb8   0x0000038e   Code   RO          618    .text.HAL_RCCEx_GetPeriphCLKFreq  stm32l4xx_hal_rcc_ex.o
    0x08001f46   0x08001f46   0x00000002   PAD
    0x08001f48   0x08001f48   0x0000026e   Code   RO          612    .text.HAL_RCCEx_PeriphCLKConfig  stm32l4xx_hal_rcc_ex.o
    0x080021b6   0x080021b6   0x00000002   PAD
    0x080021b8   0x080021b8   0x0000015c   Code   RO          582    .text.HAL_RCC_ClockConfig  stm32l4xx_hal_rcc.o
    0x08002314   0x08002314   0x0000002a   Code   RO          588    .text.HAL_RCC_GetPCLK1Freq  stm32l4xx_hal_rcc.o
    0x0800233e   0x0800233e   0x0000002a   Code   RO          590    .text.HAL_RCC_GetPCLK2Freq  stm32l4xx_hal_rcc.o
    0x08002368   0x08002368   0x000000b6   Code   RO          580    .text.HAL_RCC_GetSysClockFreq  stm32l4xx_hal_rcc.o
    0x0800241e   0x0800241e   0x00000002   PAD
    0x08002420   0x08002420   0x000005f2   Code   RO          576    .text.HAL_RCC_OscConfig  stm32l4xx_hal_rcc.o
    0x08002a12   0x08002a12   0x00000182   Code   RO          722    .text.HAL_SD_GetCardCSD  stm32l4xx_hal_sd.o
    0x08002b94   0x08002b94   0x00000028   Code   RO          730    .text.HAL_SD_GetCardState  stm32l4xx_hal_sd.o
    0x08002bbc   0x08002bbc   0x0000003e   Code   RO          672    .text.HAL_SD_Init   stm32l4xx_hal_sd.o
    0x08002bfa   0x08002bfa   0x00000002   PAD
    0x08002bfc   0x08002bfc   0x0000024a   Code   RO          676    .text.HAL_SD_InitCard  stm32l4xx_hal_sd.o
    0x08002e46   0x08002e46   0x000000e2   Code   RO           69    .text.HAL_SD_MspInit  stm32l4xx_hal_msp.o
    0x08002f28   0x08002f28   0x000001ea   Code   RO          682    .text.HAL_SD_ReadBlocks  stm32l4xx_hal_sd.o
    0x08003112   0x08003112   0x00000002   PAD
    0x08003114   0x08003114   0x000001d4   Code   RO          684    .text.HAL_SD_WriteBlocks  stm32l4xx_hal_sd.o
    0x080032e8   0x080032e8   0x0000002c   Code   RO          180    .text.HAL_SYSTICK_Config  stm32l4xx_hal_cortex.o
    0x08003314   0x08003314   0x00000002   Code   RO          968    .text.HAL_UARTEx_RxEventCallback  stm32l4xx_hal_uart.o
    0x08003316   0x08003316   0x00000002   Code   RO         1019    .text.HAL_UARTEx_WakeupCallback  stm32l4xx_hal_uart_ex.o
    0x08003318   0x08003318   0x00000002   Code   RO          966    .text.HAL_UART_ErrorCallback  stm32l4xx_hal_uart.o
    0x0800331a   0x0800331a   0x00000002   PAD
    0x0800331c   0x0800331c   0x000002ca   Code   RO          962    .text.HAL_UART_IRQHandler  stm32l4xx_hal_uart.o
    0x080035e6   0x080035e6   0x00000060   Code   RO          880    .text.HAL_UART_Init  stm32l4xx_hal_uart.o
    0x08003646   0x08003646   0x000000f8   Code   RO           61    .text.HAL_UART_MspInit  stm32l4xx_hal_msp.o
    0x0800373e   0x0800373e   0x00000002   Code   RO          970    .text.HAL_UART_TxCpltCallback  stm32l4xx_hal_uart.o
    0x08003740   0x08003740   0x00000002   Code   RO           32    .text.HardFault_Handler  stm32l4xx_it.o
    0x08003742   0x08003742   0x0000000c   Code   RO           50    .text.LPUART1_IRQHandler  stm32l4xx_it.o
    0x0800374e   0x0800374e   0x00000002   PAD
    0x08003750   0x08003750   0x00000002   Code   RO           34    .text.MemManage_Handler  stm32l4xx_it.o
    0x08003752   0x08003752   0x00000002   PAD
    0x08003754   0x08003754   0x00000002   Code   RO           30    .text.NMI_Handler   stm32l4xx_it.o
    0x08003756   0x08003756   0x00000002   Code   RO           44    .text.PendSV_Handler  stm32l4xx_it.o
    0x08003758   0x08003758   0x0000012a   Code   RO          614    .text.RCCEx_PLLSAI1_Config  stm32l4xx_hal_rcc_ex.o
    0x08003882   0x08003882   0x0000008a   Code   RO          578    .text.RCC_SetFlashLatencyFromMSIRange  stm32l4xx_hal_rcc.o
    0x0800390c   0x0800390c   0x00000018   Code   RO         1247    .text.SDMMC_CmdAppCommand  stm32l4xx_ll_sdmmc.o
    0x08003924   0x08003924   0x0000001a   Code   RO         1249    .text.SDMMC_CmdAppOperCommand  stm32l4xx_ll_sdmmc.o
    0x0800393e   0x0800393e   0x00000018   Code   RO         1215    .text.SDMMC_CmdBlockLength  stm32l4xx_ll_sdmmc.o
    0x08003956   0x08003956   0x00000002   PAD
    0x08003958   0x08003958   0x00000048   Code   RO         1241    .text.SDMMC_CmdGoIdleState  stm32l4xx_ll_sdmmc.o
    0x080039a0   0x080039a0   0x00000016   Code   RO         1243    .text.SDMMC_CmdOperCond  stm32l4xx_ll_sdmmc.o
    0x080039b6   0x080039b6   0x00000018   Code   RO         1221    .text.SDMMC_CmdReadMultiBlock  stm32l4xx_ll_sdmmc.o
    0x080039ce   0x080039ce   0x00000018   Code   RO         1219    .text.SDMMC_CmdReadSingleBlock  stm32l4xx_ll_sdmmc.o
    0x080039e6   0x080039e6   0x00000018   Code   RO         1239    .text.SDMMC_CmdSelDesel  stm32l4xx_ll_sdmmc.o
    0x080039fe   0x080039fe   0x00000014   Code   RO         1257    .text.SDMMC_CmdSendCID  stm32l4xx_ll_sdmmc.o
    0x08003a12   0x08003a12   0x00000012   Code   RO         1261    .text.SDMMC_CmdSendCSD  stm32l4xx_ll_sdmmc.o
    0x08003a24   0x08003a24   0x00000018   Code   RO         1271    .text.SDMMC_CmdSendStatus  stm32l4xx_ll_sdmmc.o
    0x08003a3c   0x08003a3c   0x00000018   Code   RO         1263    .text.SDMMC_CmdSetRelAdd  stm32l4xx_ll_sdmmc.o
    0x08003a54   0x08003a54   0x0000001e   Code   RO         1237    .text.SDMMC_CmdStopTransfer  stm32l4xx_ll_sdmmc.o
    0x08003a72   0x08003a72   0x00000018   Code   RO         1225    .text.SDMMC_CmdWriteMultiBlock  stm32l4xx_ll_sdmmc.o
    0x08003a8a   0x08003a8a   0x00000018   Code   RO         1223    .text.SDMMC_CmdWriteSingleBlock  stm32l4xx_ll_sdmmc.o
    0x08003aa2   0x08003aa2   0x00000026   Code   RO         1207    .text.SDMMC_ConfigData  stm32l4xx_ll_sdmmc.o
    0x08003ac8   0x08003ac8   0x0000012a   Code   RO         1217    .text.SDMMC_GetCmdResp1  stm32l4xx_ll_sdmmc.o
    0x08003bf2   0x08003bf2   0x00000002   PAD
    0x08003bf4   0x08003bf4   0x00000058   Code   RO         1259    .text.SDMMC_GetCmdResp2  stm32l4xx_ll_sdmmc.o
    0x08003c4c   0x08003c4c   0x0000004a   Code   RO         1251    .text.SDMMC_GetCmdResp3  stm32l4xx_ll_sdmmc.o
    0x08003c96   0x08003c96   0x00000002   PAD
    0x08003c98   0x08003c98   0x00000098   Code   RO         1265    .text.SDMMC_GetCmdResp6  stm32l4xx_ll_sdmmc.o
    0x08003d30   0x08003d30   0x0000005e   Code   RO         1245    .text.SDMMC_GetCmdResp7  stm32l4xx_ll_sdmmc.o
    0x08003d8e   0x08003d8e   0x00000008   Code   RO         1199    .text.SDMMC_GetPowerState  stm32l4xx_ll_sdmmc.o
    0x08003d96   0x08003d96   0x00000006   Code   RO         1205    .text.SDMMC_GetResponse  stm32l4xx_ll_sdmmc.o
    0x08003d9c   0x08003d9c   0x0000002c   Code   RO         1189    .text.SDMMC_Init    stm32l4xx_ll_sdmmc.o
    0x08003dc8   0x08003dc8   0x00000010   Code   RO         1195    .text.SDMMC_PowerState_ON  stm32l4xx_ll_sdmmc.o
    0x08003dd8   0x08003dd8   0x00000006   Code   RO         1191    .text.SDMMC_ReadFIFO  stm32l4xx_ll_sdmmc.o
    0x08003dde   0x08003dde   0x0000000c   Code   RO         1193    .text.SDMMC_WriteFIFO  stm32l4xx_ll_sdmmc.o
    0x08003dea   0x08003dea   0x00000002   Code   RO           40    .text.SVC_Handler   stm32l4xx_it.o
    0x08003dec   0x08003dec   0x0000000e   Code   RO           46    .text.SysTick_Handler  stm32l4xx_it.o
    0x08003dfa   0x08003dfa   0x00000002   PAD
    0x08003dfc   0x08003dfc   0x00000082   Code   RO           13    .text.SystemClock_Config  main.o
    0x08003e7e   0x08003e7e   0x00000012   Code   RO         1289    .text.SystemInit    system_stm32l4xx.o
    0x08003e90   0x08003e90   0x000000cc   Code   RO          886    .text.UART_AdvFeatureConfig  stm32l4xx_hal_uart.o
    0x08003f5c   0x08003f5c   0x00000068   Code   RO          888    .text.UART_CheckIdleState  stm32l4xx_hal_uart.o
    0x08003fc4   0x08003fc4   0x00000010   Code   RO          964    .text.UART_DMAAbortOnError  stm32l4xx_hal_uart.o
    0x08003fd4   0x08003fd4   0x00000050   Code   RO          934    .text.UART_EndRxTransfer  stm32l4xx_hal_uart.o
    0x08004024   0x08004024   0x00000200   Code   RO          884    .text.UART_SetConfig  stm32l4xx_hal_uart.o
    0x08004224   0x08004224   0x000000d8   Code   RO          902    .text.UART_WaitOnFlagUntilTimeout  stm32l4xx_hal_uart.o
    0x080042fc   0x080042fc   0x0000000c   Code   RO           48    .text.USART1_IRQHandler  stm32l4xx_it.o
    0x08004308   0x08004308   0x00000002   Code   RO           38    .text.UsageFault_Handler  stm32l4xx_it.o
    0x0800430a   0x0800430a   0x00000002   Code   RO         1305    .text._bCoreMonitor  b_core.o
    0x0800430c   0x0800430c   0x00000004   Code   RO         1347    .text._bDriverNullInit  b_device.o
    0x08004310   0x08004310   0x00000152   Code   RO         1484    .text._bSD_Read     b_drv_sd.o
    0x08004462   0x08004462   0x00000002   PAD
    0x08004464   0x08004464   0x000000c0   Code   RO         1488    .text._bSD_SendCmd  b_drv_sd.o
    0x08004524   0x08004524   0x0000016e   Code   RO         1486    .text._bSD_Write    b_drv_sd.o
    0x08004692   0x08004692   0x00000002   PAD
    0x08004694   0x08004694   0x0000003c   Code   RO         1447    .text._bTaskCore    b_task.o
    0x080046d0   0x080046d0   0x0000005c   Code   RO         1470    .text._bTimerCore   b_timer.o
    0x0800472c   0x0800472c   0x00000076   Code   RO         1592    .text._bUtilUartDetectIdle  b_util_uart.o
    0x080047a2   0x080047a2   0x00000034   Code   RO         1317    .text.bClose        b_core.o
    0x080047d6   0x080047d6   0x00000002   PAD
    0x080047d8   0x080047d8   0x0000007c   Code   RO         1359    .text.bDeviceClose  b_device.o
    0x08004854   0x08004854   0x0000019e   Code   RO         1349    .text.bDeviceInit   b_device.o
    0x080049f2   0x080049f2   0x00000002   PAD
    0x080049f4   0x080049f4   0x00000078   Code   RO         1353    .text.bDeviceOpen   b_device.o
    0x08004a6c   0x08004a6c   0x0000007c   Code   RO         1355    .text.bDeviceRead   b_device.o
    0x08004ae8   0x08004ae8   0x00000084   Code   RO         1357    .text.bDeviceWrite  b_device.o
    0x08004b6c   0x08004b6c   0x0000002e   Code   RO         1325    .text.bExec         b_core.o
    0x08004b9a   0x08004b9a   0x00000002   PAD
    0x08004b9c   0x08004b9c   0x000000e0   Code   RO         1505    .text.bFS_Init      b_mod_fs.o
    0x08004c7c   0x08004c7c   0x000001b4   Code   RO         1507    .text.bFS_Test      b_mod_fs.o
    0x08004e30   0x08004e30   0x00000016   Code   RO         1738    .text.bHalDelayMs   b_hal.o
    0x08004e46   0x08004e46   0x0000000c   Code   RO         1734    .text.bHalGetSysTick  b_hal.o
    0x08004e52   0x08004e52   0x00000016   Code   RO         1736    .text.bHalGetSysTickPlus  b_hal.o
    0x08004e68   0x08004e68   0x00000004   Code   RO         1809    .text.bHalGpioReadPin  b_hal_gpio.o
    0x08004e6c   0x08004e6c   0x00000004   Code   RO         1805    .text.bHalGpioWritePin  b_hal_gpio.o
    0x08004e70   0x08004e70   0x00000024   Code   RO         1732    .text.bHalIncSysTick  b_hal.o
    0x08004e94   0x08004e94   0x00000004   PAD
    0x08004e98   0x08004e98   0x00000088   Code   RO         1730    .text.bHalInit      b_hal.o
    0x08004f20   0x08004f20   0x00000012   Code   RO         1905    .text.bHalSDIOReadBlocks  b_hal_sdio.o
    0x08004f32   0x08004f32   0x00000012   Code   RO         1907    .text.bHalSDIOWriteBlocks  b_hal_sdio.o
    0x08004f44   0x08004f44   0x0000003c   Code   RO         1929    .text.bHalSpiSend   b_hal_spi.o
    0x08004f80   0x08004f80   0x00000004   Code   RO         1925    .text.bHalSpiSetSpeed  b_hal_spi.o
    0x08004f84   0x08004f84   0x000000f2   Code   RO         1927    .text.bHalSpiTransfer  b_hal_spi.o
    0x08005076   0x08005076   0x00000004   Code   RO         1953    .text.bHalUartSend  b_hal_uart.o
    0x0800507a   0x0800507a   0x00000002   Code   RO         1728    .text.bHalUserInit  b_hal.o
    0x0800507c   0x0800507c   0x000001c4   Code   RO         1321    .text.bInit         b_core.o
    0x08005240   0x08005240   0x00000100   Code   RO         1560    .text.bLogOut       b_util_log.o
    0x08005340   0x08005340   0x00000024   Code   RO         1313    .text.bLseek        b_core.o
    0x08005364   0x08005364   0x00000026   Code   RO         2002    .text.bMcuGpioReadPin  mcu_stm32l41x_gpio.o
    0x0800538a   0x0800538a   0x0000002a   Code   RO         2000    .text.bMcuGpioWritePin  mcu_stm32l41x_gpio.o
    0x080053b4   0x080053b4   0x00000024   Code   RO         2057    .text.bMcuSDIOReadBlocks  mcu_stm32l41x_sdio.o
    0x080053d8   0x080053d8   0x0000004e   Code   RO         2059    .text.bMcuSDIOWriteBlocks  mcu_stm32l41x_sdio.o
    0x08005426   0x08005426   0x00000002   PAD
    0x08005428   0x08005428   0x00000026   Code   RO         2073    .text.bMcuSpiSend   mcu_stm32l41x_spi.o
    0x0800544e   0x0800544e   0x00000002   PAD
    0x08005450   0x08005450   0x0000004c   Code   RO         2069    .text.bMcuSpiSetSpeed  mcu_stm32l41x_spi.o
    0x0800549c   0x0800549c   0x00000042   Code   RO         2071    .text.bMcuSpiTransfer  mcu_stm32l41x_spi.o
    0x080054de   0x080054de   0x00000002   PAD
    0x080054e0   0x080054e0   0x00000080   Code   RO         2086    .text.bMcuUartSend  mcu_stm32l41x_uart.o
    0x08005560   0x08005560   0x00000092   Code   RO         1307    .text.bOpen         b_core.o
    0x080055f2   0x080055f2   0x00000052   Code   RO         1309    .text.bRead         b_core.o
    0x08005644   0x08005644   0x00000358   Code   RO         1482    .text.bSD_Init      b_drv_sd.o
    0x0800599c   0x0800599c   0x00000050   Code   RO         1311    .text.bWrite        b_core.o
    0x080059ec   0x080059ec   0x00000088   Code   RO         1707    .text.check_fs      ff.o
    0x08005a74   0x08005a74   0x00000118   Code   RO         1667    .text.create_chain  ff.o
    0x08005b8c   0x08005b8c   0x0000006a   Code   RO         1701    .text.dir_clear     ff.o
    0x08005bf6   0x08005bf6   0x000000ec   Code   RO         1689    .text.dir_next      ff.o
    0x08005ce2   0x08005ce2   0x00000002   PAD
    0x08005ce4   0x08005ce4   0x00000066   Code   RO         1653    .text.dir_register  ff.o
    0x08005d4a   0x08005d4a   0x00000002   PAD
    0x08005d4c   0x08005d4c   0x00000074   Code   RO         1679    .text.dir_sdi       ff.o
    0x08005dc0   0x08005dc0   0x00000004   Code   RO         1627    .text.disk_initialize  diskio.o
    0x08005dc4   0x08005dc4   0x0000002a   Code   RO         1633    .text.disk_ioctl    diskio.o
    0x08005dee   0x08005dee   0x00000044   Code   RO         1629    .text.disk_read     diskio.o
    0x08005e32   0x08005e32   0x0000000c   Code   RO         1625    .text.disk_status   diskio.o
    0x08005e3e   0x08005e3e   0x00000044   Code   RO         1631    .text.disk_write    diskio.o
    0x08005e82   0x08005e82   0x0000001e   Code   RO         1673    .text.f_close       ff.o
    0x08005ea0   0x08005ea0   0x000000e4   Code   RO         1693    .text.f_getfree     ff.o
    0x08005f84   0x08005f84   0x00000182   Code   RO         1675    .text.f_lseek       ff.o
    0x08006106   0x08006106   0x0000004c   Code   RO         1643    .text.f_mount       ff.o
    0x08006152   0x08006152   0x00000002   PAD
    0x08006154   0x08006154   0x00000228   Code   RO         1649    .text.f_open        ff.o
    0x0800637c   0x0800637c   0x0000019a   Code   RO         1661    .text.f_read        ff.o
    0x08006516   0x08006516   0x00000090   Code   RO         1669    .text.f_sync        ff.o
    0x080065a6   0x080065a6   0x00000002   PAD
    0x080065a8   0x080065a8   0x000001c4   Code   RO         1665    .text.f_write       ff.o
    0x0800676c   0x0800676c   0x000001f4   Code   RO         1651    .text.follow_path   ff.o
    0x08006960   0x08006960   0x000000f4   Code   RO         1659    .text.get_fat       ff.o
    0x08006a54   0x08006a54   0x0000005a   Code   RO         1645    .text.get_ldnumber  ff.o
    0x08006aae   0x08006aae   0x00000002   PAD
    0x08006ab0   0x08006ab0   0x00000156   Code   RO           11    .text.main          main.o
    0x08006c06   0x08006c06   0x00000002   PAD
    0x08006c08   0x08006c08   0x00000288   Code   RO         1647    .text.mount_volume  ff.o
    0x08006e90   0x08006e90   0x00000036   Code   RO         1657    .text.move_window   ff.o
    0x08006ec6   0x08006ec6   0x00000124   Code   RO         1709    .text.put_fat       ff.o
    0x08006fea   0x08006fea   0x00000002   PAD
    0x08006fec   0x08006fec   0x00000076   Code   RO         1655    .text.remove_chain  ff.o
    0x08007062   0x08007062   0x00000080   Code   RO         1671    .text.sync_fs       ff.o
    0x080070e2   0x080070e2   0x00000044   Code   RO         1711    .text.sync_window   ff.o
    0x08007126   0x08007126   0x00000030   Code   RO         1663    .text.validate      ff.o
    0x08007156   0x08007156   0x0000003e   Code   RO         2302    CL$$btod_d2e        c_w.l(btod.o)
    0x08007194   0x08007194   0x00000046   Code   RO         2304    CL$$btod_d2e_denorm_low  c_w.l(btod.o)
    0x080071da   0x080071da   0x00000060   Code   RO         2303    CL$$btod_d2e_norm_op1  c_w.l(btod.o)
    0x0800723a   0x0800723a   0x00000338   Code   RO         2312    CL$$btod_div_common  c_w.l(btod.o)
    0x08007572   0x08007572   0x000000dc   Code   RO         2309    CL$$btod_e2e        c_w.l(btod.o)
    0x0800764e   0x0800764e   0x0000002a   Code   RO         2306    CL$$btod_ediv       c_w.l(btod.o)
    0x08007678   0x08007678   0x0000002a   Code   RO         2305    CL$$btod_emul       c_w.l(btod.o)
    0x080076a2   0x080076a2   0x00000244   Code   RO         2311    CL$$btod_mult_common  c_w.l(btod.o)
    0x080078e6   0x080078e6   0x00000030   Code   RO         2343    i.__ARM_fpclassify  m_wm.l(fpclassify.o)
    0x08007916   0x08007916   0x0000000e   Code   RO         2124    i._is_digit         c_w.l(__printf_wp.o)
    0x08007924   0x08007924   0x0000002c   Code   RO         2327    locale$$code        c_w.l(lc_numeric_c.o)
    0x08007950   0x08007950   0x0000002c   Code   RO         2355    locale$$code        c_w.l(lc_ctype_c.o)
    0x0800797c   0x0800797c   0x000002b0   Code   RO         2149    x$fpl$ddiv          fz_wm.l(ddiv.o)
    0x08007c2c   0x08007c2c   0x0000005a   Code   RO         2152    x$fpl$dfixu         fz_wm.l(dfixu.o)
    0x08007c86   0x08007c86   0x00000026   Code   RO         2156    x$fpl$dfltu         fz_wm.l(dflt_clz.o)
    0x08007cac   0x08007cac   0x00000154   Code   RO         2162    x$fpl$dmul          fz_wm.l(dmul.o)
    0x08007e00   0x08007e00   0x0000009c   Code   RO         2241    x$fpl$dnaninf       fz_wm.l(dnaninf.o)
    0x08007e9c   0x08007e9c   0x0000000c   Code   RO         2243    x$fpl$dretinf       fz_wm.l(dretinf.o)
    0x08007ea8   0x08007ea8   0x0000001a   Code   RO         2427    x$fpl$fpinit        fz_wm.l(fpinit.o)
    0x08007ec2   0x08007ec2   0x00000004   Code   RO         2245    x$fpl$printf1       fz_wm.l(printf1.o)
    0x08007ec6   0x08007ec6   0x00000004   Code   RO         2247    x$fpl$printf2       fz_wm.l(printf2.o)
    0x08007eca   0x08007eca   0x00000000   Code   RO         2253    x$fpl$usenofp       fz_wm.l(usenofp.o)
    0x08007eca   0x08007eca   0x00000011   Data   RO         2132    .constdata          c_w.l(__printf_flags_ss_wp.o)
    0x08007edb   0x08007edb   0x00000001   PAD
    0x08007edc   0x08007edc   0x00000008   Data   RO         2186    .constdata          c_w.l(_printf_wctomb.o)
    0x08007ee4   0x08007ee4   0x00000028   Data   RO         2215    .constdata          c_w.l(_printf_hex_int_ll_ptr.o)
    0x08007f0c   0x08007f0c   0x00000026   Data   RO         2278    .constdata          c_w.l(_printf_fp_hex.o)
    0x08007f32   0x08007f32   0x00000002   PAD
    0x08007f34   0x08007f34   0x00000094   Data   RO         2300    .constdata          c_w.l(bigflt0.o)
    0x08007fc8   0x08007fc8   0x00000010   Data   RO         1294    .rodata.AHBPrescTable  system_stm32l4xx.o
    0x08007fd8   0x08007fd8   0x00000008   Data   RO         1295    .rodata.APBPrescTable  system_stm32l4xx.o
    0x08007fe0   0x08007fe0   0x00000080   Data   RO         1717    .rodata.ExCvt       ff.o
    0x08008060   0x08008060   0x00000030   Data   RO         1296    .rodata.MSIRangeTable  system_stm32l4xx.o
    0x08008090   0x08008090   0x0000000c   Data   RO         2077    .rodata.SpiTable    mcu_stm32l41x_spi.o
    0x0800809c   0x0800809c   0x00000008   Data   RO         1381    .rodata.bDeviceDescTable  b_device.o
    0x080080a4   0x080080a4   0x00000002   Data   RO         1380    .rodata.bDriverNumberTable  b_device.o
    0x080080a6   0x080080a6   0x0000000c   Data   RO         1491    .rodata.bHalIf_SD   b_drv_sd.o
    0x080080b2   0x080080b2   0x00000002   PAD
    0x080080b4   0x080080b4   0x00000010   Data   RO         1008    .rodata.cst16       stm32l4xx_hal_uart.o
    0x080080c4   0x080080c4   0x00000010   Data   RO         2090    .rodata.cst16       mcu_stm32l41x_uart.o
    0x080080d4   0x080080d4   0x0000017f   Data   RO         1337    .rodata.str1.1      b_core.o
    0x08008253   0x08008253   0x00000054   Data   RO         1382    .rodata.str1.1      b_device.o
    0x080082a7   0x080082a7   0x00000031   Data   RO         1492    .rodata.str1.1      b_drv_sd.o
    0x080082d8   0x080082d8   0x00000039   Data   RO         1510    .rodata.str1.1      b_mod_fs.o
    0x08008311   0x08008311   0x00000019   Data   RO         1715    .rodata.str1.1      ff.o
    0x0800832a   0x0800832a   0x00000002   PAD
    0x0800832c   0x0800832c   0x00000020   Data   RO         2488    Region$$Table       anon$$obj.o
    0x0800834c   0x0800834c   0x00000004   Data   RO         1335    bos_polling         b_core.o
    0x08008350   0x08008350   0x00000004   Data   RO         1449    bos_polling         b_task.o
    0x08008354   0x08008354   0x00000004   Data   RO         1472    bos_polling         b_timer.o
    0x08008358   0x08008358   0x00000004   Data   RO         1594    bos_polling         b_util_uart.o
    0x0800835c   0x0800835c   0x00000008   Data   RO         1378    driver_init         b_device.o
    0x08008364   0x08008364   0x00000008   Data   RO         1490    driver_init         b_drv_sd.o
    0x0800836c   0x0800836c   0x00000008   Data   RO         1377    driver_init_0       b_device.o
    0x08008374   0x08008374   0x0000001c   Data   RO         2326    locale$$data        c_w.l(lc_numeric_c.o)
    0x08008390   0x08008390   0x00000110   Data   RO         2354    locale$$data        c_w.l(lc_ctype_c.o)


    Execution Region RW_IRAM2 (Exec base: 0x10000000, Load base: 0x080084c0, Size: 0x00000000, Max: 0x00004000, ABSOLUTE)

    **** No section assigned to this execution region ****


    Execution Region RW_IRAM1 (Exec base: 0x20000000, Load base: 0x080084a0, Size: 0x00002a48, Max: 0x0000c000, ABSOLUTE)

    Exec Addr    Load Addr    Size         Type   Attr      Idx    E Section Name        Object

    0x20000000   0x080084a0   0x00000004   Data   RW         1293    .data.SystemCoreClock  system_stm32l4xx.o
    0x20000004   0x080084a4   0x00000008   Data   RW         1450    .data.bTaskListHead  b_task.o
    0x2000000c   0x080084ac   0x00000008   Data   RW         1473    .data.bTimerListHead  b_timer.o
    0x20000014   0x080084b4   0x00000004   Data   RW         1744    .data.bUsDelayParam  b_hal.o
    0x20000018   0x080084b8   0x00000001   Data   RW          156    .data.uwTickFreq    stm32l4xx_hal.o
    0x20000019   0x080084b9   0x00000003   PAD
    0x2000001c   0x080084bc   0x00000004   Data   RW          155    .data.uwTickPrio    stm32l4xx_hal.o
    0x20000020        -       0x00000060   Zero   RW         2346    .bss                c_w.l(libspace.o)
    0x20000080        -       0x00000008   Zero   RW         1713    .bss.FatFs          ff.o
    0x20000088        -       0x00000002   Zero   RW         1716    .bss.Fsid           ff.o
    0x2000008a        -       0x00000001   Zero   RW         1338    .bss._bCoreCreateFd.init  b_core.o
    0x2000008b   0x080084c0   0x00000001   PAD
    0x2000008c        -       0x00000018   Zero   RW         1336    .bss.bCoreFdTable   b_core.o
    0x200000a4        -       0x00000088   Zero   RW         1379    .bss.bDriverInterfaceTable  b_device.o
    0x2000012c        -       0x00001034   Zero   RW         1509    .bss.bFATFS_Table   b_mod_fs.o
    0x20001160        -       0x00000100   Zero   RW         1562    .bss.bLogBuff       b_util_log.o
    0x20001260        -       0x00000004   Zero   RW         1742    .bss.bSysTick       b_hal.o
    0x20001264        -       0x00000004   Zero   RW         1743    .bss.bSysTickOvr    b_hal.o
    0x20001268        -       0x00000024   Zero   RW         1597    .bss.bUitlUartHead  b_util_uart.o
    0x2000128c        -       0x00001028   Zero   RW         1511    .bss.fil            b_mod_fs.o
    0x200022b4        -       0x00000084   Zero   RW           17    .bss.hlpuart1       main.o
    0x20002338        -       0x00000084   Zero   RW           20    .bss.hsd1           main.o
    0x200023bc        -       0x00000084   Zero   RW           18    .bss.huart1         main.o
    0x20002440        -       0x00000004   Zero   RW         1451    .bss.pCurrentTaskAttr  b_task.o
    0x20002444        -       0x00000004   Zero   RW          157    .bss.uwTick         stm32l4xx_hal.o
    0x20002448        -       0x00000200   Zero   RW            2    HEAP                startup_stm32l431xx.o
    0x20002648        -       0x00000400   Zero   RW            1    STACK               startup_stm32l431xx.o


==============================================================================

Image component sizes


      Code (inc. data)   RO Data    RW Data    ZI Data      Debug   Object Name

       896        136        387          0         25       4879   b_core.o
       918        100        110          0        136       6988   b_device.o
      1752         64         69          0          0      11948   b_drv_sd.o
       230          8          0          4          8       1918   b_hal.o
         8          0          0          0          0       3991   b_hal_gpio.o
        36          0          0          0          0       1446   b_hal_sdio.o
       306          0          0          0          0       4561   b_hal_spi.o
         4          0          0          0          0       2489   b_hal_uart.o
       660        172         57          0       8284       3498   b_mod_fs.o
        60          0          4          8          4       4393   b_task.o
        92          0          4          8          0       4335   b_timer.o
       256         12          0          0        256       3169   b_util_log.o
       118          0          4          0         36       3273   b_util_uart.o
       194          0          0          0          0       2696   diskio.o
      5444          0        153          0         10      44873   ff.o
       482          0          0          0        396       9971   main.o
        80          0          0          0          0       3510   mcu_stm32l41x_gpio.o
       114          0          0          0          0       1591   mcu_stm32l41x_sdio.o
       180          0         12          0          0       3590   mcu_stm32l41x_spi.o
       128          0         16          0          0       2388   mcu_stm32l41x_uart.o
        64         26        396          0       1536        856   startup_stm32l431xx.o
       190          0          0          5          4       8544   stm32l4xx_hal.o
       192          0          0          0          0       9889   stm32l4xx_hal_cortex.o
       154          0          0          0          0       7227   stm32l4xx_hal_dma.o
       490          0          0          0          0       5339   stm32l4xx_hal_gpio.o
       524          0          0          0          0      12575   stm32l4xx_hal_msp.o
       132          0          0          0          0       8059   stm32l4xx_hal_pwr_ex.o
      2274          0          0          0          0       9592   stm32l4xx_hal_rcc.o
      1830         32          0          0          0      13069   stm32l4xx_hal_rcc_ex.o
      2032          0          0          0          0      23532   stm32l4xx_hal_sd.o
      1948         46         16          0          0      27499   stm32l4xx_hal_uart.o
         2          0          0          0          0       8002   stm32l4xx_hal_uart_ex.o
        54          0          0          0          0       1204   stm32l4xx_it.o
      1240          0          0          0          0      17654   stm32l4xx_ll_sdmmc.o
        18          0         72          4          0       2955   system_stm32l4xx.o

    ----------------------------------------------------------------------
     23162        596       1336         32      10696     281503   Object Totals
         0          0         32          0          0          0   (incl. Generated)
        60          0          4          3          1          0   (incl. Padding)

    ----------------------------------------------------------------------

      Code (inc. data)   RO Data    RW Data    ZI Data      Debug   Library Member Name

        44          6          0          0          0         84   __2sprintf.o
         8          0          0          0          0         68   __main.o
       398          4         17          0          0         92   __printf_flags_ss_wp.o
        14          0          0          0          0         68   __printf_wp.o
         0          0          0          0          0          0   __rtentry.o
        12          0          0          0          0          0   __rtentry2.o
         6          0          0          0          0          0   __rtentry4.o
        52          8          0          0          0          0   __scatter.o
        26          0          0          0          0          0   __scatter_copy.o
        28          0          0          0          0          0   __scatter_zi.o
        72          0          0          0          0         96   _c16rtomb.o
         6          0          0          0          0          0   _printf_a.o
         6          0          0          0          0          0   _printf_c.o
        44          0          0          0          0        108   _printf_char.o
        48          6          0          0          0         96   _printf_char_common.o
        40          0          0          0          0         68   _printf_charcount.o
         6          0          0          0          0          0   _printf_d.o
       120         16          0          0          0         92   _printf_dec.o
         6          0          0          0          0          0   _printf_e.o
         6          0          0          0          0          0   _printf_f.o
      1058          0          0          0          0        148   _printf_fp_dec.o
       770          8         38          0          0        100   _printf_fp_hex.o
       128         16          0          0          0         84   _printf_fp_infnan.o
         6          0          0          0          0          0   _printf_g.o
       148          4         40          0          0        160   _printf_hex_int_ll_ptr.o
         6          0          0          0          0          0   _printf_i.o
       178          0          0          0          0         88   _printf_intcommon.o
        10          0          0          0          0          0   _printf_l.o
         6          0          0          0          0          0   _printf_lc.o
        10          0          0          0          0          0   _printf_ll.o
         6          0          0          0          0          0   _printf_lld.o
         6          0          0          0          0          0   _printf_lli.o
         6          0          0          0          0          0   _printf_llo.o
         6          0          0          0          0          0   _printf_llu.o
         6          0          0          0          0          0   _printf_llx.o
       124         16          0          0          0         92   _printf_longlong_dec.o
         6          0          0          0          0          0   _printf_ls.o
         6          0          0          0          0          0   _printf_n.o
         6          0          0          0          0          0   _printf_o.o
       112          8          0          0          0        124   _printf_oct_int_ll.o
         6          0          0          0          0          0   _printf_p.o
        78          0          0          0          0        108   _printf_pad.o
         0          0          0          0          0          0   _printf_percent.o
         4          0          0          0          0          0   _printf_percent_end.o
         6          0          0          0          0          0   _printf_s.o
        82          0          0          0          0         80   _printf_str.o
        36          0          0          0          0         84   _printf_truncate.o
         6          0          0          0          0          0   _printf_u.o
        44          0          0          0          0        108   _printf_wchar.o
       194          6          8          0          0         92   _printf_wctomb.o
         6          0          0          0          0          0   _printf_x.o
        16          0          0          0          0         68   _snputc.o
        10          0          0          0          0         68   _sputc.o
       228          4        148          0          0         96   bigflt0.o
      1936        128          0          0          0        672   btod.o
        18          0          0          0          0         80   exit.o
         6          0          0          0          0        152   heapauxi.o
         0          0          0          0          0          0   indicate_semi.o
        44         10        272          0          0         76   lc_ctype_c.o
        44         10         28          0          0         76   lc_numeric_c.o
         2          0          0          0          0          0   libinit.o
        34          0          0          0          0          0   libinit2.o
         2          0          0          0          0          0   libshutdown.o
         2          0          0          0          0          0   libshutdown2.o
         8          4          0          0         96         68   libspace.o
       138          0          0          0          0         80   lludiv10.o
       240          0          0          0          0        100   lludivv7m.o
        16          4          0          0          0         76   rt_ctype_table.o
         8          4          0          0          0         68   rt_locale_intlibspace.o
        68          0          0          0          0         68   rt_memclr.o
        78          0          0          0          0         80   rt_memclr_w.o
       138          0          0          0          0         68   rt_memcpy_v6.o
       100          0          0          0          0         80   rt_memcpy_w.o
         2          0          0          0          0          0   rtexit.o
        10          0          0          0          0          0   rtexit2.o
       124          0          0          0          0         88   strcmpv7em.o
        62          0          0          0          0         76   strlen.o
        12          4          0          0          0         68   sys_exit.o
        74          0          0          0          0         80   sys_stackheap_outer.o
         2          0          0          0          0         68   use_no_semi.o
        52          4          0          0          0         80   vsnprintf.o
       688        140          0          0          0        264   ddiv.o
        90          4          0          0          0        140   dfixu.o
        38          0          0          0          0        116   dflt_clz.o
       340         12          0          0          0        152   dmul.o
       156          4          0          0          0        140   dnaninf.o
        12          0          0          0          0        116   dretinf.o
        26          0          0          0          0        116   fpinit.o
         4          0          0          0          0        116   printf1.o
         4          0          0          0          0        116   printf2.o
         0          0          0          0          0          0   usenofp.o
        48          0          0          0          0        124   fpclassify.o

    ----------------------------------------------------------------------
      8900        430        554          0         96       5876   Library Totals
        12          0          3          0          0          0   (incl. Padding)

    ----------------------------------------------------------------------

      Code (inc. data)   RO Data    RW Data    ZI Data      Debug   Library Name

      7482        270        551          0         96       4476   c_w.l
      1358        160          0          0          0       1276   fz_wm.l
        48          0          0          0          0        124   m_wm.l

    ----------------------------------------------------------------------
      8900        430        554          0         96       5876   Library Totals

    ----------------------------------------------------------------------

==============================================================================


      Code (inc. data)   RO Data    RW Data    ZI Data      Debug   

     32062       1026       1890         32      10792     283607   Grand Totals
     32062       1026       1890         32      10792     283607   ELF Image Totals
     32062       1026       1890         32          0          0   ROM Totals

==============================================================================

    Total RO  Size (Code + RO Data)                33952 (  33.16kB)
    Total RW  Size (RW Data + ZI Data)             10824 (  10.57kB)
    Total ROM Size (Code + RO Data + RW Data)      33984 (  33.19kB)

==============================================================================

